:020000020000FC
:02000400C7D063
:02000800C5D061
:02000C00C3D05F
:02001000C1D05D
:02001400BFD05B
:02001800BDD059
:02001C00BBD057
:02002000B9D055
:02002400B7D053
:02002800B5D051
:02002C00B3D04F
:02003000B1D04D
:02003400AFD04B
:02003800ADD049
:02003C00ABD047
:02004000A9D045
:02004400A7D043
:02004800A5D041
:02004C00A3D03F
:02005000A1D03D
:020054009FD03B
:020058009DD039
:02005C009BD037
:0200600099D035
:1000640097D00008000400701A000A0041546D651E
:10007400676133323850AF93AFB7AF93BF93EF9309
:10008400FF93B091C600A0911201E0E0F1E0EA0F05
:10009400F31DB083A395AF70A0931201FF91EF916C
:0A00A400BF91AF91AFBFAF91189567
:0200480018C0DE
:1000AE0000384E393738120187384E393738140137
:1000BE0087381A3806FF72782D697372000000387F
:1000CE00800030386700373814019238AB38293A3F
:1000DE0037380F000D3A373814018738373800019A
:1000EE00973992381A3807FF72783F2D697372006C
:1000FE0061000038113D373814019238373812013B
:10010E0092380D391A3807FF74782D706F6C6C00A9
:10011E007A0000389E00303891003738C600873894
:10012E001A3808FF74783F2D706F6C6C8A00003897
:10013E00113D3738C0009238373820000D3A1A3842
:10014E0004FF756272729800693886007A3D843DAC
:10015E0006FF2B7573617274A7000038373898004C
:10016E003738C1008738373806003738C20087382D
:10017E00AB00AB38E73A3738C50087383738C4009C
:06018E00873857001A3803
:040000000C941A3D05
:100194000A920FB60A920F900F900A9400921601D9
:1001A40009900FBE09906894089502FF6D2BAF006B
:1001B4000038AF3F043C1A3803FF75642A00D700A7
:1001C4000038AB38F938DA39D338BE38F038DA3990
:1001D400DB3897391A3804FF756D6178DE00003812
:1001E400AA3E56393038F700BE38D3381A3804FFDF
:1001F400756D696EED000038AA3E6139303803012F
:10020400BE38D3381A380038373800800D3A1439DC
:1002140030380F01373801001A3845391A380AFFC7
:100224006E616D653E666C616773F9000038BA3BB8
:10023400373800FF0D3A1A3803FF76657200110152
:1002440000387702A003963F9E3E73388502293F0B
:10025400AF3FBE02C60237382E00AF02DC02E7020F
:10026400D6039E3E7B38963F8D02A0031A3804FFC6
:100274006E6F6F701E013E010C94043806FF756E9C
:1002840075736564390100387B3A0A3F8D391A3831
:100294000200746F40010038E503480A983E733841
:1002A40030385E01ED065801F8061A380038F03887
:1002B400AB38480AF938BA3BAB38480A480ABA3B63
:1002C40024381A3808FF69636F6D706172654A01DA
:1002D4000038F938C938F0380D3930387501B33E73
:1002E400D33845391A38BE384E39BD0730389A01EB
:1002F400893AC93873389D01C938BA3B9D01AB3876
:1003040037380001563930388B01BE383738FF0092
:100314000D3A0D3930389201B33E4539C23A1A3894
:10032400293ABE38823CBE3837380200A83A7B01ED
:10033400B33E4E391A380038AB383738FF000D3A1F
:10034400613FBE38E73A3738FF000D3A613FE73A7C
:10035400163A1A3801FF2A0064010038A039D3384C
:100364001A3801FF6A00AC010038643A37380700D4
:1003740097397338643A373809009739733897399D
:100384001A3804FF64616273B3010038AB381B3957
:100394003038CD01D4011A3807FF646E6567617483
:1003A4006500C30100382A3C373801004E39043C4B
:1003B4001A3805FF636D6F766500CE01E101BF93C6
:1003C400AF93E991F991A991B991092F082B21F0E3
:1003D4001D9111930197E1F7AF91BF918991999183
:1003E4000C94043805FF327377617000DB01003828
:1003F400DB38F938DB38F0381A3803FF74696200E7
:10040400F401423817010AFF726566696C6C2D7439
:100414006962FF010038030237385A002C04C93ED0
:100424007B384E39C33E7B3845391A380AFF736F1F
:10043400757263652D746962050200380302C93E52
:1004440073381A3806FF65653E72616D180200380C
:100454004E39893AC9384D3BC9387B38823CBE385D
:10046400823CBE38B73A2C02B33E1A3809FF696E93
:1004740069742D75736572002402003837386A0078
:10048400F03A37381C00FE3929021A380BFF656E22
:100494007669726F6E6D656E740038024238400082
:1004A40009FF776F72646C6973747300000000381D
:1004B400373808001A3804FF2F706164520200387C
:1004C4007B3ACF3E8D391A3805FF2F686F6C640074
:1004D4005D020038CF3E0A3F8D391A380AFF666F35
:1004E4007274682D6E616D65660200386D030700D5
:1004F400616D666F727468001A3807FF76657273EF
:10050400696F6E007002003837383A001A3803FFFA
:10051400637075007F02003837383700CC031A380F
:1005240008FF6D63752D696E666F89020038373870
:1005340033001A3805FF2F75736572009202003874
:10054400373826001A3803FF686C640048024238C2
:10055400710104FF686F6C64A5020038A902AB380E
:1005640073382F3AAB38F938BE387B38F0388738CF
:100574001A3802FF3C23AB020038CF3EA9027B3875
:100584001A3801FF2300BB0200389E3E7338430330
:10059400DB3837380900C93868393038D40237387D
:1005A40007009739373830009739AF021A3802FFFD
:1005B4002373C3020038C602AA3E163A14393038EF
:1005C400DD021A3802FF233ED9020038B33EA902E5
:1005D4007338CF3EC9388D391A3804FF7369676E92
:1005E400E40200381B393038FA0237382D00AF02E4
:1005F4001A3803FF642E7200EF020038F938BB3E4C
:10060400C701BE02DC02DB38F302E702F038C93866
:100614008D399F3FD6031A3802FF2E72FB02003831
:10062400F938AF3FF038FF021A3802FF642E0E0388
:1006340000384E39FF02963F1A3801FF2E00170387
:100644000038AF3F1A031A3803FF75642E001F03E6
:1006540000384E393303963F1A3804FF75642E72FE
:1006640026030038F938BE02DC02E702F038C93844
:100674008D399F3FD6031A3806FF75642F6D6F645A
:100684002F030038F9384E390239BC39F038BE38F6
:10069400F938BC39F0381A3806FF64696769743F61
:1006A4003E0300384E3FAB3837383900723937389B
:1006B40000010D3A9739AB38373840017239373871
:1006C40007010D3A8D39373830008D39AB389E3EED
:1006D400733856391A3800380239CC03F038C9381F
:1006E400293AFE399739293AF9381A3802FF732C16
:1006F4004E030038AB387F031A380038F806AB389D
:10070400FE39BB3E053A8D39F9384E39BD073038CC
:100714009203893AAB387338F806823CB73A8C03B3
:10072400F038223930389903AB389238F806D33888
:100734001A3805FF69747970650078030038AB389E
:10074400FE39BB3E053A8D39F9384E39BD0730388C
:10075400B403893AAB38BA3BAB38C103BD03293A79
:10076400B73AAC03F03822393038BB03AB38BA3B64
:10077400C103D3381A380038E73AC1031A380038AD
:100784003738FF000D3AD93E1A3806FF69636F7592
:100794006E749B030038AB38293ABE38BA3B1A381A
:1007A40004FF74797065C7030038813FBD07303892
:1007B400E103893A9A3A9238D93EB73ADC031A38B7
:1007C40001FF2700D20300384F05A706143930383B
:1007D400EE033738F3FF603D1A3805FF63736B6926
:1007E4007000E2030038F938AB3830380404C938F3
:1007F40092380239C53F30380404373801004005C7
:100804002938F603F038D3381A3805FF6373636167
:100814006E00EF030038F938C938AB389238023922
:10082400C53F143930382104BE382F3ABE38C93890
:100834001B39143930382104293A29380F04EA388D
:10084400C9388D39F038D3381A3806FF61636365C7
:10085400707407040038C93897392F3AC938EA3E0A
:10086400AB386604143930385804AB3837380800CC
:10087400C53F30384F04D338DB38AA3E7239F938D3
:10088400DB38DB38F03830384D045E042F3AF93861
:10089400C938F038F10029385604AB38D93EC93884
:1008A4008738293AC938FD0029383104D338EA3861
:1008B400BE388D39893F1A38003837380800AB38CC
:1008C400D93E963FD93E1A380038AB3837380D0038
:1008D400C53FBE3837380A00C53F163A1A3806FFF6
:1008E400726566696C6C2704D83D1A00A23DAE3D62
:1008F40004FF63686172710400384F05D33892387D
:100904001A3806FF6E756D6265727A0400389E3E71
:100914007338F938CF04F938E304CF04F038163AC1
:10092400F938AB38143930389F04B33EF038D33833
:10093400F0389E3E7B384E391A380C3B4E394E39CE
:100944001B3B0205B3383038C30437380100C53FB8
:100954003038BA04923837382E00C53F3038BB04DB
:10096400F0383038B604D401373802002938CA04C4
:10097400D338B33EF038D338F0389E3E7B384E3906
:100984001A38B33EF0383038C804083E373801000E
:10099400F0389E3E7B3845391A380038C9389238C9
:1009A40037382D00C53FAB38F9383038DC043738D8
:1009B40001004005F0381A384C380A0010000200D3
:1009C4000A000038C9389238373823008D39AB38DB
:1009D4004E3937380400383E3038FA04DE0497398B
:1009E400BA3B9E3E7B383738010040052938FB046A
:1009F400D3381A3807FF3E6E756D62657200830442
:100A04000038AB3830381B05C938923853031439D1
:100A140030380E05D3381A38F938F9019E3E733848
:100A2400E200F038DA00F9013738010040052938CE
:100A340003051A3805FF706172736500FC04003801
:100A4400F9383605C33E73384005F0380C04AB382A
:100A5400293AC33E533A3738010040051A3806FF95
:100A6400736F757263651C05D83D1600A23DAE3DDB
:100A740007FF2F737472696E670031050038DB3825
:100A8400C9389739DB38DB388D391A380AFF706179
:100A94007273652D6E616D653A0500383C3F5305F0
:100AA4001A380038F9383605C33E73384005023920
:100AB400F403F0380C04AA3E97393605D3388D393F
:100AC400C33E7B381A3803FF737030004805693819
:100AD4000600A23DAE3D02FF737065055238080062
:100AE40003FF727030006D0500387A0573381A38C8
:100AF4005238040005FF646570746800720500389C
:100B040069057B3A8D39FE392F3A1A380DFF646F27
:100B14002D7265636F676E697A6572007C050038B3
:100B240037389D0537385A004709143930389C0541
:100B3400B33E31061A380038DB38DB38AA3E0C3BAA
:100B4400DB3824381B3BDB38AB383106C53F303843
:100B5400AE05D3384E391A38EA38EA3845391A38E6
:100B640009FF696E746572707265740088050038D7
:100B74004F05B3383038C9059105983E733830387D
:100B8400C405293ABA3B2438733F2938BA05D33807
:100B94001A3805FF723A6E756D00B2054C383D0186
:100BA4001007DD0506FF723A646E756DCB054C388F
:100BB4003D01B93FE305003822033738D0FF603DDB
:100BC4001A3800381A033738D0FF603D1A3807FF47
:100BD4007265633A6E756D00D40500388804303848
:100BE400FC0537380100C53F3038FA05D0051A38FE
:100BF400D9051A3831061A3808FF7265633A776FD7
:100C04007264E9050038A706AB38143930380D068C
:100C1400D33831061A3814061A3806FF723A776F39
:100C24007264FE054C3818061C0624060038D338B6
:100C340024381A3800381B3930382206F8061A3896
:100C440024381A3800381B3930382A06ED06ED06E8
:100C5400F8061A3806FF723A6661696C0F064C385A
:100C640035063506350600383738F3FF603D0FFF8B
:100C74007365617263682D776F72646C6973740055
:100C84002C060038F9384E3937385806F0387506CE
:100C9400AB38143930385206B33ED3384E391A388B
:100CA400AB389C06BE38180105011A380038F938EB
:100CB400D338AA3E023990066A0130386606F03805
:100CC400D3384E3945391A38B33EF0384E391A38CC
:100CD40011FF74726176657273652D776F72646C3F
:100CE40069737400390600384D3BAB3830388606DA
:100CF400AA3E0C3BBE3824381B3BDB383038860612
:100D0400AE09BA3B29387706B33E1A380BFF6E6139
:100D14006D653E737472696E67006A060038CC03B1
:100D24003738FF000D3A1A3807FF6E66613E636676
:100D3400610088060038AE09293A1A3809FF666945
:100D44006E642D6E616D6500960600383738B30603
:100D540037384800470914393038B206B33E4E39A3
:100D64001A380038F938AA3EF0384306AB38303820
:100D7400C006F938EA38EA38F03845391A3808FF35
:100D84002863726561746529A00600384F05280838
:100D9400AB38F9380D08F038373875017B383738F7
:100DA40073017B381A3801005C00C106003836052F
:100DB400EA38C33E7B381A3801002800D5060038CB
:100DC400373829002105B33E1A3807FF636F6D7069
:100DD400696C6500DE060038F038AB38293AF9381A
:100DE400BA3BF8061A3801FF2C00E7060038F93E32
:100DF400613BF93E293A5801FA3E1A3803005B2751
:100E04005D00F5060038ED063738E503F8061A38B4
:100E140007006C69746572616C0000070038983EC5
:100E2400733830381807ED063738F8061A380800D2
:100E3400736C69746572616C0A070038ED066D03A2
:100E44007B031A380038F93EED06FFFF1A380038E4
:100E5400733FF93EBE38613B1A380038F93E1A3800
:100E64000038733FF8061A3805006168656164004C
:100E740019070038ED06293824071A380200696674
:100E840036070038ED06303824071A380400656C3C
:100E9400736540070038ED0629382407BE38290752
:100EA4001A3804007468656E4807003829071A3830
:100EB4000500626567696E00530700382F071A380A
:100EC40005007768696C65005A0700384307BE3827
:100ED4001A38060072657065617462070038840709
:100EE40057071A380500756E74696C006B07003873
:100EF40037383038F80632071A38050061676169F7
:100F04006E0074070038ED06293832071A380200DB
:100F1400646F7F070038ED06893A2F074E39E707DB
:100F24001A3804006C6F6F7089070038ED06B73A01
:100F3400CE071A3805002B6C6F6F700093070038CA
:100F4400ED06A83ACE071A3805006C65617665008F
:100F54009C070038ED06C23A3B07E7071A3803003E
:100F64003F646F00A6070038ED06BD0743078C07F2
:100F7400BE38E7071A380038AA3EC53FAB38F938FF
:100F84003038C507B33EF038F7391A3807FF656EB5
:100F9400646C6F6F7000B10700383207DB07B33839
:100FA4003038D70757072938D0071A3802FF6C3E64
:100FB400C8070038FB07733873383738FEFFFB0760
:100FC400533A1A3802FF3E6CD8070038373802000B
:100FD400FB07533AFB0773387B381A3803FF6C70EE
:100FE4003000E407693866007A3D843D02FF6C7086
:100FF400F0074238770106FF637265617465F8078C
:101004000038C7063108ED064C381A3806FF686503
:1010140061646572FD070038F93EF938F938AB3878
:10102400223930381F08AB38373800FF163A7F03AF
:10103400F0384D3BF806F0381A383738F0FF603D89
:1010440007FF776C73636F7065000808D83D640010
:101054007A3D843D06FF72657665616C220800382E
:10106400373873017338B33830384008373875016E
:101074007338293B4E39373873017B381A3806FFE9
:101084006C61746573742C08423879010500646FCF
:1010940065733E0041080038ED066008ED060E94C5
:1010A400ED0655081A389A938A93CB0101967F91DD
:1010B4006F91BF93AF93DB010C9404380038F03880
:1010C4003738750173384D3BAE09293A613B1A38FC
:1010D40001FF3A0048080038C7067808D3381A38A0
:1010E40007FF3A6E6F6E616D65006A080038F93E5D
:1010F400AB3846087B38ED0600388D081A380100F5
:101104003B0072080038ED061A38960831081A3880
:1011140001FF5D008108003837380100983E7B38B4
:101124001A3801005B008A0800384E39983E7B3833
:101134001A3808FF7661726961626C659308003839
:101144000A3FAE0837380200133F1A3808FF636FAE
:101154006E7374616E749B080038C7063108ED061F
:101164004238F8061A3804FF75736572A808003807
:10117400C7063108ED065238F8061A3807007265BA
:10118400637572736500B508003846087338F8064D
:101194001A3809FF696D6D65646961746500C0087A
:1011A40000386F094D3BAB38BA3B3738FF7F0D3AF7
:1011B400BE38613B1A3806005B636861725DCB0818
:1011C4000038ED0637387E04F8061A3806006162E6
:1011D4006F727422DD0800386B3EED0600091A3880
:1011E40005FF61626F727400E80800383738FFFF4A
:1011F400603D06FF3F61626F7274F2080038DB38AD
:1012040030380609A003F708B33E1A3809FF6765AA
:10121400742D737461636B00FB080038AB38823C37
:10122400BE384D3BAB38F9384E39BE38BD0730387F
:101234002609893A9A3A2F3AA53EC93897394D3B3F
:10124400BE384539A83A1C09B33EF0381A3809FFAC
:101254007365742D737461636B0008090038AA3ECA
:10126400293BBE384E39BD0730383E09893A823CA5
:10127400BB3E293BB73A3909D3381A3809FF6D61A7
:10128400702D737461636B0029090038AB38823C9C
:10129400BE384D3BA53E813FBD0730386409893ACD
:1012A4009A3A4D3BBE38F93802392438B3383038CD
:1012B4005F09F038D338C23A1A38F03837380200A8
:1012C400A83A5209D3384E391A380BFF6765742D82
:1012D40063757272656E74004009003837384400D3
:1012E4004D3B1A3809FF6765742D6F72646572008F
:1012F40067090038373848000F091A3807FF636F49
:101304006D706172650074098709BF93AF938C0196
:1013140089919991DC01899199919C018991999183
:10132400FC01ED90F190EF1451F40A9519F02A950F
:10133400C1F701C02A95022B11F4882702C08FEF50
:1013440000C0982FAF91BF910C94043807FF6E66CC
:10135400613E6C666100800900389006293AFE39C6
:1013640097391A380BFF7365742D63757272656E45
:101374007400A809003837384400293B1A3808FF9C
:10138400776F72646C697374B4090038023F4E3924
:10139400C938293BAB38823C5801033F1A3804FF53
:1013A4006F6E6C79C1090038373846003738010050
:1013B400F0091A380EFF666F7274682D776F7264C5
:1013C4006C697374D109693842007A3D843D09FF20
:1013D4007365742D6F7264657200DC0900383738E8
:1013E400480030091A380FFF7365742D7265636FF6
:1013F400676E697A65727300E909003837385A00F4
:1014040030091A380FFF6765742D7265636F676E54
:10141400697A65727300F509003837385A000F0984
:101424001A3804FF636F6465040A0038C70631087C
:10143400F93E480AF8061A3808FF656E642D636F92
:101444006465130A0038ED060C94ED0604381A3866
:1014540008FF286D61726B6572291E0A693868007D
:101464007A3D843D0800706F7374706F6E652A0A4C
:1014740000384F059105480A480ABA3B24381A38FF
:1014840007FF692D63656C6C2B00340A0038293A18
:101494001A380BFF6170706C7475726E6B6579002D
:1014A400420A0038B400893C2201963F6D030A00C9
:0E14B400466F7274686475696E6FA0031A3813
:10700000BF93AF93DB0111966EF0FD01EE0FFF1FF2
:10701000659175911196FB01EE0FFF1F059115917A
:10702000F8010994E89464EB7CE3F5CF04FF6578FC
:1070300069744B0A1B38AF91BF91E6CF07FF6578A3
:1070400065637574650016382538BC01899199917E
:10705000E2CF2A38FD01EE0FFF1FA591B591D4CFE5
:107060003138982B89919991A9F31196CDCF383861
:107070009A938A93FD01EE0FFF1F859195911196CA
:10708000C3CF42389A938A93FB013196EE0FFF1FCC
:1070900085919591B9CF4C389A938A93CB010196FB
:1070A000B3CF52389A938A93FB013196EE0FFF1FAC
:1070B00085919591840D951DA7CF07FF2876616C6A
:1070C000756529001E380038C7063108ED06693895
:1070D0001A380E945508AB38293ABA3B24381A3876
:1070E00001FF40005D387438FC01819191918CCF93
:1070F00001FF210070387C38FC01899199919183BE
:1071000080838991999180CF02FF632178388838F4
:10711000FC018991999180838991999175CF02FFA2
:10712000634084389338FC01992780816DCF02FF3A
:1071300040758F380038F03A973973381A3802FFA3
:10714000217597380038F03A97397B381A3803FFA1
:10715000647570009F38AC389A938A9355CF04FFBA
:107160003F647570A738B438082F092B11F09A9333
:107170008A934ACF04FF73776170AF38BF388C01B0
:10718000899199911A930A933FCF04FF6F766572A4
:10719000BA38CA389A938A938A819B8135CF04FF83
:1071A00064726F70C538D438899199912DCF03FFDF
:1071B000726F7400CF38DC388C0129913991899134
:1071C00099913A932A931A930A931ECF03FF6E69FB
:1071D0007000D738EB38229617CF02FF723EE638A0
:1071E000F1389A938A938F919F910ECF02FF3E724E
:1071F000ED38FA389F938F938991999105CF02FFCB
:107200007240F63803399A938A938F919F919F9396
:107210008F93FACE02FF3C3EFF380038C53F143949
:107220001A3802FF303D0A391539982BD1F530C094
:1072300002FF303C11391C3997FD2AC032C002FFD1
:10724000303E18392339821593055CF151F120C085
:1072500003FF64303E001F392D3982159305899153
:10726000999182059305ECF0E1F012C003FF6430C0
:107270003C0028393B39229697FD0C9448390C94F0
:10728000513904FF74727565363946399A938A9379
:107290008FEF9FEFB9CE01FF300041394F399A93FC
:1072A0008A93C101B1CE02FF753C4B395739299100
:1072B000399182179307A8F3A1F3EACF02FF753E35
:1072C00053390038BE3856391A3801FF3C005E3950
:1072D000693929913991281739071CF7D9CF01FF4E
:1072E0003E00653973392991399128173907CCF255
:1072F000C1F2CECF04FF6C6F67326F397F39FC016A
:10730000992780E18A9522F0EE0FFF1FD8F77CCEF7
:107310009A957ACE01FF2D007A398E39099119910B
:10732000081B190BC80170CE01FF2B008A39983950
:1073300009911991800F911F67CE02FF6D2A943930
:10734000A1398C01899199919C0131027001209F92
:10735000C0013003F308900DE11CF31C1203F30885
:10736000900DE11CF31C9A938A93C7014DCE06FF42
:10737000756D2F6D6F649D39BD397C0129913991EF
:107380000991199140E15527000F111F221F331F4A
:10739000551F2E153F05520518F003952E193F096C
:1073A0004A9589F73A932A93C8012ECE03FF756D4B
:1073B0002A00B739DB398C0189919991809FF001BE
:1073C00022273327909FF00D211D331D819FF00D43
:1073D000211D331D919F200D311DCF019A938A935A
:1073E000C90112CE06FF696E76657274D639F83916
:1073F0008095909509CE02FF322FF239FF3995958D
:10740000879502CE02FF322AFB39063A880F991F70
:10741000FBCD03FF616E6400023A0E3A09911991A7
:1074200080239123F1CD02FF6F72093A173A099137
:107430001991802B912BE8CD03FF786F7200133ADE
:10744000213A0991199180279127DECD02FF312B36
:107450001C3A2A3A0196D8CD02FF312D263A303A0D
:107460000197D2CD06FF6C73686966742C3A383A7E
:10747000FC018991999131971AF0880F991FFBCFE0
:10748000C3CD06FF727368696674323A473AFC01ED
:107490008991999131971AF096958795FBCFB4CD44
:1074A00002FF2B21413A543AFC01899199912081A4
:1074B0003181820F931F8083918389919991A4CD0B
:1074C00003FF72704000503A653A9A938A938DB7E1
:1074D0009EB79ACD03FF72702100603A6F3A2FB7C2
:1074E000F8948DBF9EBF2FBF899199918DCD03FFD9
:1074F000737040006A3A7C3A9A938A93CE0184CDA5
:1075000003FF73702100773A853AEC0189919991D4
:107510007BCD8A3A29913991E0E83E0F821B930B8B
:107520003F932F939F938F93899199916DCD01FFF5
:107530006900803A9B3A9A938A938F919F91EF9139
:10754000FF91FF93EF939F938F938E0F9F1F5CCDBF
:10755000A93AEF91FF91E80FF91F899199911BF0DA
:10756000FF93EF9377CD0F911F9111964DCDB83AC0
:10757000EF91FF913196BBF3F3CF06FF756E6C6F01
:107580006F70973AC33A1F910F911F910F913CCDA5
:1075900006FF636D6F76653EBD3ACE3ABF93AF93FB
:1075A000E991F991A991B991092F082B41F0E80FC0
:1075B000F91FA80FB91F1E9112930197E1F7AF9120
:1075C000BF918991999120CD02FF3E3CC83AE83A9B
:1075D000092F982F802F18CD03FF75704000E43AD3
:1075E000F13A9A938A93C2010FCD03FF757021007F
:1075F000EC3AFA3A2C018991999106CD03FF316D4D
:107600007300F53A033BE0EAFFE03197F1F7FCCC79
:1076100003FF323E7200FE3A0D3BFC0189919991C5
:107620009F938F93FF93EF9389919991EDCC03FFF3
:1076300032723E00083B1C3B9A938A93EF91FF9174
:107640008F919F919A938A93CF01DECC02FF21659F
:10765000173B2A3BFC01899199912FB7F89428D0C8
:1076600000B5081709F00BD0319622D000B50917E4
:1076700011F0892F04D02FBF89919991C5CCF99928
:10768000FECF07B700FDFDCFF2BDE1BD80BDFA9A88
:10769000F99A089502FF4065263B4E3B2FB7F894B8
:1076A000FC0106D080B5319603D090B52FBFACCC8D
:1076B000F999FECFF2BDE1BDF89A089502FF216964
:1076C0004A3BD83D3E007A3D843D09FF2821692D83
:1076D0006E72777729005E3B6D3B1FB71F93F8945E
:1076E0009C0189919991AF93BF93CF93DF9309D078
:1076F000DF91CF91BF91AF91899199911F911FBF58
:1077000083CC11D0E094F0948E219F21982B21F00E
:10771000B394F90102E020D0F90104E01DD0F90191
:1077200000E11AD00895F901E07CFF7FEF01A0E4A9
:10773000B0E0FE01EE0FFF1F45915591FE01E217EB
:10774000F30711F00A0102C07A010C01002704D0EE
:107750002196119771F70895F999FECF17B710FD8B
:10776000FDCFEE0FFF1F016007BFE895089502FFF0
:107770004069653BBB3BFC01EE0FFF1F8591959176
:1077800043CC03FF6E3E7200B73BC63BFC01082FA3
:10779000899199919F938F930A95D1F7EF93FF93D6
:1077A0008991999131CC03FF6E723E00C13BD83B69
:1077B0009A938A93FF91EF910E2F8F919F919A93B5
:1077C0008A930A95D1F7CF011FCC03FF64322A00B8
:1077D000D33BEA3B09911991000F111F881F991F94
:1077E0001A930A9311CC03FF64322F00E53BF83B58
:1077F0000991199195958795179507951A930A936D
:1078000003CC02FF642BF33B053C29913991E990AD
:10781000F99049915991240F351F8E1D9F1D3A9360
:107820002A93F2CB02FF642D013C163C2991399139
:10783000E990F99049915991421B530BE80AF90AD2
:107840005A934A93C701E0CB07FF64696E7665726D
:107850007400123C2B3C09911991809590950095EC
:1078600010951A930A93D0CB04FF2F6D6F64243CBC
:10787000393C9C0109911991412F432717FF04C0FE
:10788000109500950F5F1F4F37FF04C0309520956E
:107890002F5F3F4FEE24FF1851E1001F111F5A9533
:1078A00039F447FF04C0109500950F5F1F4F0BC0C0
:1078B000EE1CFF1CE21AF30A20F4E20EF31E889479
:1078C000ECCF0894EACFFA92EA92C8019DCB03FF6D
:1078D00061627300343C6C3C99231AF48095909556
:1078E000019692CB04FF7069636B673C0038293ABC
:1078F000A53E7B3A973973381A3805FF63656C6C7F
:107900002B00723C833C02967FCB04FF2B696E7484
:107910007D3C8A3C789478CB04FF2D696E74853C5D
:10792000913CF89471CB04FF696E74218C3C003853
:10793000373800009739293B1A3804FF696E7440C4
:10794000933C00383738000097394D3B1A3808FF10
:10795000696E742D747261709D3CAE3C809316010B
:1079600089919991689450CB003837381601923834
:107970003738000097394D3B2438BF3C1A38C03C9B
:1079800001D042CB189500386D030300206F6B00C7
:10799000A0031A3800386D0302003E20893FA0037F
:1079A0001A3800386D030400203F3F20A0039E3E9C
:1079B0007338F938293F2203C33E73382203F03865
:1079C0009E3E7B381A3804FF71756974A73C0038F5
:1079D000F407FB077B386905843A76056E3A96080A
:1079E000983E733814393038F63CCA3C7604303847
:1079F000F03C3738B9054A3DB3383038083DAB382C
:107A00003738FEFF68393038063DD13C2938E83C2C
:107A1000C33C2938F03C1A3805FF70617573650066
:107A2000E33CD83D7B018E3D983D04FF636F6C6461
:107A30000C3D1A3DA4B62224332424BEEDE7F1E028
:107A40002F010FEF0DBF048318E01EBF1583CFEA8F
:107A5000C683D8E0D783A3E3BDE3D6CA04FF77612A
:107A6000726D153D00383F0237383D013738113D02
:107A7000B93D9608443FE73C1A3807FF68616E64D9
:107A80006C6572002E3D52380A0005FF6361746315
:107A900068003D3D00387B3AF938433D7338F9388A
:107AA000643A433D7B382438F038433D7B38F03826
:107AB000D3384E391A3805FF7468726F7700453D28
:107AC0000038AB3814393038673DD3381A38433D65
:107AD00073386E3AF038433D7B38F038BE38F938A9
:107AE000843AD338F0381A3807FF45646566657202
:107AF00040005B3D0038BA3B4D3B1A3807FF4564F8
:107B0000656665722100743D0038BA3B293B1A381E
:107B100007FF52646566657240007E3D0038BA3BDF
:107B200073381A3807FF5264656665722100883D14
:107B30000038BA3B7B381A3807FF556465666572B2
:107B40004000923D0038BA3BF03A973973381A3802
:107B500007FF55646566657221009C3D0038BA3B9D
:107B6000F03A97397B381A3806FF646566657221EA
:107B7000A83D0038293AAB38823CBA3B24381A3841
:107B800006FF646566657240B43D0038293AAB383B
:107B9000293ABA3B24381A3807FF286465666572AB
:107BA0002900C03D0038C7063108ED06D83D1A3817
:107BB0000E945508AB38293ABA3B243824381A3881
:107BC00002FF643DCC3D0038153C163A14391A3892
:107BD00002FF752EE03D00384E392A031A3803FFA4
:107BE000752E7200E83D00384E39BE3833031A381E
:107BF00005FF752F6D6F6400EF3D0038F9384E3981
:107C0000F038BC391A3806FF6E6567617465F83D57
:107C10000038F739293A1A3801FF2F00033E00389F
:107C2000383CEA381A3803FF6D6F64000C3E0038A8
:107C3000383CD3381A3803FF6D696E00133E0038A4
:107C4000AA3E72393038253EBE38D3381A3803FF81
:107C50006D6178001B3E0038AA3E68393038313EED
:107C6000BE38D3381A3806FF77697468696E273EC4
:107C70000038C9388D39F9388D39F03856391A3805
:107C80000DFF73686F772D776F72646C6973740082
:107C9000333E003837384F3EBE3875061A38003844
:107CA0009006A003963F45391A3805FF776F726436
:107CB0007300403E003837384A004D3B493E1A3881
:107CC00002002E22553E00386B3EED06A0031A3806
:107CD00002007322603E0038373822002105983EAA
:107CE00073383038743E1F071A3804FF66696C6CAD
:107CF000683E0038DB38DB38B3383038863E813FA9
:107D0000893AAB389A3A8738B73A813ED3381A382D
:107D100005FF665F63707500753E003837380024D4
:107D20003738F4001A3805FF737461746500883EB3
:107D30004238A30104FF62617365933E52380C0020
:107D400005FF63656C6C73009A3E063A04FF32646B
:107D50007570A03E0038C938C9381A3805FF32643A
:107D6000726F7000A63E0038D338D3381A3804FF3B
:107D70007475636BAE3E0038BE38C9381A3803FFDD
:107D80003E696E00B73E5238180004FF23746962E2
:107D9000BF3E4238A50103FF70616400C53E003854
:107DA0000A3F3738640097391A3804FF656D6974E3
:107DB000CB3ED83D0E00A23DAE3D05FF656D69741A
:107DC0003F00D53ED83D1000A23DAE3D03FF6B65A0
:107DD0007900DD3ED83D1200A23DAE3D04FF6B654B
:107DE000793FE63ED83D1400A23DAE3D02FF6470EF
:107DF000EE3E693836007A3D843D05FF6568657260
:107E00006500F63E69383A007A3D843D04FF6865B6
:107E10007265FD3E693838007A3D843D05FF616C2E
:107E20006C6F7400063F00380A3F973958010B3FCA
:107E30001A3803FF62696E000E3F003837380200BF
:107E40009E3E7B381A3807FF646563696D616C007C
:107E5000193F003837380A009E3E7B381A3803FF36
:107E600068657800233F0038373810009E3E7B3825
:107E70001A3802FF626C2F3F4238200007FF7475EA
:107E8000726E6B657900393FD83D3C007A3D843D88
:107E900007FF746F7570706572003E3F0038AB3835
:107EA0003738610037387B00383E30385A3F373832
:107EB000DF000D3A1A3807FF746F6C6F7765720038
:107EC000483F0038AB383738410037385B00383E20
:107ED00030386D3F37382000163A1A3806FF3F73A6
:107EE0007461636B5B3F003881051B3930387B3F21
:107EF0003738FCFF603D1A3806FF626F756E647399
:107F00006E3F0038C9389739BE381A3802FF63729D
:107F10007C3F003837380D00D93E37380A00D93E4B
:107F20001A3805FF737061636500863F00383C3F77
:107F3000D93E1A3806FF737061636573913F00384C
:107F40004E392B3EAB383038A93F963F2F3A29386F
:107F5000A23FD3381A3803FF733E64009A3F0038BB
:107F6000AB381B391A380800326C69746572616C61
:107F7000AB3F0038BE38ED063738F806ED06373827
:107F8000F8061A3801FF3D00B33F00388D39143927
:107F90001A3801FF3100C23F4238010001FF3200B0
:107FA000C93F4238020002FF2D31CE3F4238FFFF69
:00000001FF
