:020000020000FC
:02000400E9D041
:02000800E7D03F
:02000C00E5D03D
:02001000E3D03B
:02001400E1D039
:02001800DFD037
:02001C00DDD035
:02002000DBD033
:02002400D9D031
:02002800D7D02F
:02002C00D5D02D
:02003000D3D02B
:02003400D1D029
:02003800CFD027
:02003C00CDD025
:02004000CBD023
:02004400C9D021
:02004800C7D01F
:02004C00C5D01D
:02005000C3D01B
:02005400C1D019
:02005800BFD017
:02005C00BDD015
:02006000BBD013
:02006400B9D011
:02006800B7D00F
:02006C00B5D00D
:02007000B3D00B
:02007400B1D009
:02007800AFD007
:02007C00ADD005
:02008000ABD003
:02008400A9D001
:02008800A7D0FF
:02008C00A5D0FD
:02009000A3D0FB
:02009400A1D0F9
:020098009FD0F7
:02009C009DD0F5
:0200A0009BD0F3
:0200A40099D0F1
:1000A80097D0000A000400702B000A0041546D65C7
:1000B800676133325534AF93AFB7AF93BF93EF93C4
:1000C800FF93B091CE00A0911201E0E0F1E0EA0FB9
:1000D800F31DB083A395AF70A0931201FF91EF9128
:0A00E800BF91AF91AFBFAF91189523
:020064002CC0AE
:1000F20000384E393738120187384E3937381401F3
:1001020087381A3806FF72782D697372000000383A
:10011200A20030388900373814019238AB38293AB6
:1001220037380F000D3A3738140187383738000155
:10013200973992381A3807FF72783F2D6973720027
:1001420083000038113D37381401923837381201D4
:1001520092380D391A3807FF74782D706F6C6C0065
:100162009C000038C0003038B3003738CE008738E2
:100172001A3808FF74783F2D706F6C6CAC00003831
:10018200113D3738C8009238373820000D3A1A38F6
:1001920004FF75627272BA006938A8007A3D843D24
:1001A20006FF2B7573617274C900003837389800E6
:1001B2003738C9008738373806003738CA008738D9
:1001C200CD00AB38E73A3738CD0087383738CC0026
:0601D200873879001A389D
:040000000C941A3D05
:1001D8000A920FB60A920F900F900A940092160195
:1001E80009900FBE09906894089502FF6D2BD10005
:1001F8000038AF3F043C1A3803FF75642A00F90041
:100208000038AB38F938DA39D338BE38F038DA394B
:10021800DB3897391A3804FF756D617800010038AA
:10022800AA3E563930381901BE38D3381A3804FF77
:10023800756D696E0F010038AA3E613930382501A5
:10024800BE38D3381A380038373800800D3A143998
:1002580030383101373801001A3845391A380AFF61
:100268006E616D653E666C6167731B010038BA3B51
:10027800373800FF0D3A1A3803FF766572003301EC
:1002880000389902C203963F9E3E7338A702293F61
:10029800AF3FE002E80237382E00D102FE02090320
:1002A800F8039E3E7B38963FAF02C2031A3804FF1C
:1002B8006E6F6F70400160010C94043806FF756E14
:1002C800757365645B0100387B3A0A3F8D391A38CB
:1002D8000200746F6201003807046A0A983E733896
:1002E800303880010F077A011A071A380038F038B9
:1002F800AB386A0AF938BA3BAB386A0A6A0ABA3BB9
:1003080024381A3808FF69636F6D706172656C0173
:100318000038F938C938F0380D3930389701B33E0C
:10032800D33845391A38BE384E39DF073038BC0162
:10033800893AC9387338BF01C938BA3BBF01AB38ED
:100348003738000156393038AD01BE383738FF002C
:100358000D3A0D393038B401B33E4539C23A1A382E
:10036800293ABE38823CBE3837380200A83A9D0187
:10037800B33E4E391A380038AB383738FF000D3ADB
:10038800613FBE38E73A3738FF000D3A613FE73A38
:10039800163A1A3801FF2A0086010038A039D338E6
:1003A8001A3801FF6A00CE010038643A373807006E
:1003B80097397338643A3738090097397338973959
:1003C8001A3804FF64616273D5010038AB381B39F1
:1003D8003038EF01F6011A3807FF646E65676174FB
:1003E8006500E50100382A3C373801004E39043CE5
:1003F8001A3805FF636D6F766500F0010302BF933D
:10040800AF93E991F991A991B991092F082B21F09E
:100418001D9111930197E1F7AF91BF91899199913E
:100428000C94043805FF327377617000FD010038C1
:10043800DB38F938DB38F0381A3803FF74696200A2
:100448001602423817010AFF726566696C6C2D74D2
:10045800696221020038250237385A004E04C93E25
:100468007B384E39C33E7B3845391A380AFF736FDB
:10047800757263652D746962270200382502C93ECA
:1004880073381A3806FF65653E72616D3A020038A6
:100498004E39893AC9384D3BC9387B38823CBE3819
:1004A800823CBE38B73A4E02B33E1A3809FF696E2D
:1004B80069742D75736572004602003837388C00F0
:1004C800F03A37381C00FE394B021A380BFF656EBC
:1004D8007669726F6E6D656E74005A0242386200FA
:1004E80009FF776F72646C697374730000000038D9
:1004F800373808001A3804FF2F7061647402003816
:100508007B3ACF3E8D391A3805FF2F686F6C64002F
:100518007F020038CF3E0A3F8D391A380AFF666FCE
:100528007274682D6E616D65880200388F0307004C
:10053800616D666F727468001A3807FF76657273AA
:10054800696F6E009202003837383A001A3803FF94
:1005580063707500A102003837385900EE031A3865
:1005680008FF6D63752D696E666FAB02003837380A
:1005780055001A3805FF2F7573657200B4020038EC
:10058800373826001A3803FF686C64006A0242385C
:10059800710104FF686F6C64C7020038CB02AB3886
:1005A80073382F3AAB38F938BE387B38F03887388B
:1005B8001A3802FF3C23CD020038CF3ECB027B38ED
:1005C8001A3801FF2300DD0200389E3E73386503A8
:1005D800DB3837380900C93868393038F602373817
:1005E80007009739373830009739D1021A3802FF97
:1005F8002373E5020038E802AA3E163A1439303867
:10060800FF021A3802FF233EFB020038B33ECB023A
:100618007338CF3EC9388D391A3804FF7369676E4D
:10062800060300381B3930381C0337382D00D10237
:100638001A3803FF642E720011030038F938BB3EE4
:10064800E901E002FE02DB3815030903F038C93876
:100658008D399F3FF8031A3802FF2E721D030038A8
:10066800F938AF3FF03821031A3802FF642E3003FF
:1006780000384E392103963F1A3801FF2E003903FE
:100688000038AF3F3C031A3803FF75642E0041035E
:1006980000384E395503963F1A3804FF75642E7298
:1006A80048030038F938E002FE020903F038C93877
:1006B8008D399F3FF8031A3806FF75642F6D6F64F4
:1006C80051030038F9384E390239BC39F038BE3890
:1006D800F938BC39F0381A3806FF64696769743F1D
:1006E800600300384E3FAB38373839007239373835
:1006F80000010D3A9739AB3837384001723937382D
:1007080007010D3A8D39373830008D39AB389E3EA8
:10071800733856391A3800380239EE03F038C938B8
:10072800293AFE399739293AF9381A3802FF732CD1
:1007380070030038AB38A1031A3800381A07AB38F1
:10074800FE39BB3E053A8D39F9384E39DF07303866
:10075800B403893AAB3873381A07823CB73AAE0308
:10076800F03822393038BB03AB3892381A07D338FF
:100778001A3805FF6974797065009A030038AB3838
:10078800FE39BB3E053A8D39F9384E39DF07303826
:10079800D603893AAB38BA3BAB38E303DF03293ACF
:1007A800B73ACE03F03822393038DD03AB38BA3BDC
:1007B800E303D3381A380038E73AE3031A38003825
:1007C8003738FF000D3AD93E1A3806FF69636F754E
:1007D8006E74BD030038AB38293ABE38BA3B1A38B4
:1007E80004FF74797065E9030038813FDF0730380A
:1007F8000304893A9A3A9238D93EB73AFE031A382E
:1008080001FF2700F40300387105C9061439303890
:1008180010043738F3FF603D1A3805FF63736B69BE
:10082800700004040038F938AB3830382604C93869
:1008380092380239C53F303826043738010062053E
:1008480029381804F038D3381A3805FF6373636100
:100858006E0011040038F938C938AB3892380239BB
:10086800C53F143930384304BE382F3ABE38C9382A
:100878001B39143930384304293A29383104EA3805
:10088800C9388D39F038D3381A3806FF6163636583
:10089800707429040038C93897392F3AC938EA3EA4
:1008A800AB388804143930387A04AB383738080044
:1008B800C53F30387104D338DB38AA3E7239F9386D
:1008C800DB38DB38F03830386F0480042F3AF938D9
:1008D800C938F038130129387804AB38D93EC938FB
:1008E8008738293AC9381F0129385304D338EA38D8
:1008F800BE388D39893F1A38003837380800AB3888
:10090800D93E963FD93E1A380038AB3837380D00F3
:10091800C53FBE3837380A00C53F163A1A3806FFB1
:10092800726566696C6C4904D83D1A00A23DAE3DFB
:1009380004FF63686172930400387105D3389238F4
:100948001A3806FF6E756D6265729C0400389E3E0B
:100958007338F938F104F9380505F104F038163A16
:10096800F938AB3814393038C104B33EF038D338CD
:10097800F0389E3E7B384E391A380C3B4E394E398A
:100988001B3B2405B3383038E50437380100C53F30
:100998003038DC04923837382E00C53F3038DD0453
:1009A800F0383038D804F601373802002938EC041A
:1009B800D338B33EF038D338F0389E3E7B384E39C2
:1009C8001A38B33EF0383038EA04083E37380100A8
:1009D800F0389E3E7B3845391A380038C938923885
:1009E80037382D00C53FAB38F9383038FE04373872
:1009F80001006205F0381A384C380A00100002006D
:100A08000A000038C9389238373823008D39AB3896
:100A18004E3937380400383E30381C050005973900
:100A2800BA3B9E3E7B3837380100620529381D05E0
:100A3800D3381A3807FF3E6E756D62657200A504DB
:100A48000038AB3830383D05C93892387503143949
:100A580030383005D3381A38F9381B029E3E7338BF
:100A68000401F038FC001B02373801006205293800
:100A780025051A3805FF7061727365001E05003878
:100A8800F9385805C33E73386205F0382E04AB3880
:100A9800293AC33E533A3738010062051A3806FF2F
:100AA800736F757263653E05D83D1600A23DAE3D75
:100AB80007FF2F737472696E670053050038DB38BF
:100AC800C9389739DB38DB388D391A380AFF706135
:100AD8007273652D6E616D655C0500383C3F750568
:100AE8001A380038F9385805C33E73386205023998
:100AF8001604F0382E04AA3E97395805D3388D3994
:100B0800C33E7B381A3803FF737030006A056938B2
:100B18000600A23DAE3D02FF7370870552380800FB
:100B280003FF727030008F0500389C0573381A383F
:100B38005238040005FF6465707468009405003835
:100B48008B057B3A8D39FE392F3A1A380DFF646FC1
:100B58002D7265636F676E697A6572009E0500384D
:100B68003738BF0537387C00690914393038BE0575
:100B7800B33E53061A380038DB38DB38AA3E0C3B44
:100B8800DB3824381B3BDB38AB385306C53F3038DD
:100B9800D005D3384E391A38EA38EA3845391A3880
:100BA80009FF696E7465727072657400AA05003871
:100BB8007105B3383038EB05B305983E73383038D3
:100BC800E605293ABA3B2438733F2938DC05D3387F
:100BD8001A3805FF723A6E756D00D4054C385F01FE
:100BE8003207FF0506FF723A646E756DED054C38E5
:100BF8005F01B93F0506003844033738D0FF603D30
:100C08001A3800383C033738D0FF603D1A3807FFE0
:100C18007265633A6E756D00F6050038AA043038BF
:100C28001E0637380100C53F30381C06F2051A3851
:100C3800FB051A3853061A3808FF7265633A776F4E
:100C480072640B060038C906AB38143930382F06E1
:100C5800D33853061A3836061A3806FF723A776FB1
:100C6800726420064C383A063E0646060038D338E9
:100C780024381A3800381B39303844061A071A380D
:100C880024381A3800381B3930384C060F070F073C
:100C98001A071A3806FF723A6661696C31064C38D1
:100CA80057065706570600383738F3FF603D0FFFE1
:100CB8007365617263682D776F72646C6973740011
:100CC8004E060038F9384E3937387A06F038970624
:100CD800AB38143930387406B33ED3384E391A3825
:100CE800AB38BE06BE383A0127011A380038F93841
:100CF800D338AA3E0239B2068C0130388806F0385B
:100D0800D3384E3945391A38B33EF0384E391A3887
:100D180011FF74726176657273652D776F72646CFA
:100D2800697374005B0600384D3BAB383038A80651
:100D3800AA3E0C3BBE3824381B3BDB383038A806AB
:100D4800D009BA3B29389906B33E1A380BFF6E61B1
:100D58006D653E737472696E67008C060038EE0329
:100D68003738FF000D3A1A3807FF6E66613E636632
:100D78006100AA060038D009293A1A3809FF6669BD
:100D88006E642D6E616D6500B80600383738D5067B
:100D980037386A00690914393038D406B33E4E39F9
:100DA8001A380038F938AA3EF0386506AB383038BA
:100DB800E206F938EA38EA38F03845391A3808FFCF
:100DC8002863726561746529C206003871054A088E
:100DD800AB38F9382F08F038373875017B38373891
:100DE80073017B381A3801005C00E30600385805A7
:100DF800EA38C33E7B381A3801002800F706003865
:100E0800373829004305B33E1A3807FF636F6D7002
:100E1800696C650000070038F038AB38293AF938B2
:100E2800BA3B1A071A3801FF2C0009070038F93EA7
:100E3800613BF93E293A7A01FA3E1A3803005B27EA
:100E48005D00170700380F07373807041A071A38E4
:100E580007006C69746572616C0022070038983E5F
:100E6800733830383A070F0737381A071A38080026
:100E7800736C69746572616C2C0700380F078F03F7
:100E88009D031A380038F93E0F07FFFF1A3800385B
:100E9800733FF93EBE38613B1A380038F93E1A38BC
:100EA8000038733F1A071A380500616865616400E5
:100EB8003B0700380F07293846071A3802006966C9
:100EC800580700380F07303846071A380400656C91
:100ED8007365620700380F0729384607BE384B0785
:100EE8001A3804007468656E6A0700384B071A38A8
:100EF8000500626567696E007507003851071A3882
:100F080005007768696C65007C0700386507BE389E
:100F18001A38060072657065617484070038A60780
:100F280079071A380500756E74696C008D070038EA
:100F3800373830381A0754071A380500616761696D
:100F48006E00960700380F07293854071A38020030
:100F5800646FA10700380F07893A51074E3909080D
:100F68001A3804006C6F6F70AB0700380F07B73A78
:100F7800F0071A3805002B6C6F6F7000B507003842
:100F88000F07A83AF0071A3805006C656176650006
:100F9800BE0700380F07C23A5D0709081A38030070
:100FA8003F646F00C80700380F07DF076507AE0703
:100FB800BE3809081A380038AA3EC53FAB38F93898
:100FC8003038E707B33EF038F7391A3807FF656E4F
:100FD800646C6F6F7000D30700385407FD07B3388F
:100FE8003038F90779072938F2071A3802FF6C3EBA
:100FF800EA0700381D08733873383738FEFF1D08B4
:10100800533A1A3802FF3E6CFA07003837380200A4
:101018001D08533A1D0873387B381A3803FF6C7063
:1010280030000608693888007A3D843D02FF6C70FC
:1010380012084238770106FF6372656174651A0801
:101048000038E90653080F074C381A3806FF686558
:10105800616465721F080038F93EF938F938AB3811
:10106800223930384108AB38373800FF163AA10327
:10107800F0384D3B1A07F0381A383738F0FF603D22
:1010880007FF776C73636F7065002A08D83D860088
:101098007A3D843D06FF72657665616C44080038C8
:1010A800373873017338B338303862083738750108
:1010B8007338293B4E39373873017B381A3806FFA5
:1010C8006C61746573744E08423879010500646F69
:1010D80065733E00630800380F0782080F070E94F7
:1010E8000F0777081A389A938A93CB0101967F9154
:1010F8006F91BF93AF93DB010C9404380038F0383C
:101108003738750173384D3BD009293A613B1A3895
:1011180001FF3A006A080038E9069A08D3381A38F5
:1011280007FF3A6E6F6E616D65008C080038F93EF6
:10113800AB3868087B380F070038AF081A38010049
:101148003B00940800380F071A38B80853081A38B3
:1011580001FF5D00A308003837380100983E7B384E
:101168001A3801005B00AC0800384E39983E7B38CD
:101178001A3808FF7661726961626C65B5080038D3
:101188000A3FD00837380200133F1A3808FF636F48
:101198006E7374616E74BD080038E90653080F0752
:1011A80042381A071A3804FF75736572CA0800387E
:1011B800E90653080F0752381A071A3807007265EC
:1011C800637572736500D7080038680873381A07A2
:1011D8001A3809FF696D6D65646961746500E20814
:1011E800003891094D3BAB38BA3B3738FF7F0D3A91
:1011F800BE38613B1A3806005B636861725DED08B2
:1012080000380F073738A0041A071A380600616239
:101218006F727422FF0800386B3E0F0722091A38D4
:1012280005FF61626F7274000A0900383738FFFFE2
:10123800603D06FF3F61626F727414090038DB3845
:1012480030382809C2031909B33E1A3809FF6765FF
:10125800742D737461636B001D090038AB38823CD0
:10126800BE384D3BAB38F9384E39BE38DF07303819
:101278004809893A9A3A2F3AA53EC93897394D3BD9
:10128800BE384539A83A3E09B33EF0381A3809FF46
:101298007365742D737461636B002A090038AA3E64
:1012A800293BBE384E39DF0730386009893A823C1D
:1012B800BB3E293BB73A5B09D3381A3809FF6D6141
:1012C800702D737461636B004B090038AB38823C36
:1012D800BE384D3BA53E813FDF0730388609893A45
:1012E8009A3A4D3BBE38F93802392438B338303889
:1012F8008109F038D338C23A1A38F0383738020042
:10130800A83A7409D3384E391A380BFF6765742D1B
:1013180063757272656E740062090038373866004A
:101328004D3B1A3809FF6765742D6F72646572004A
:101338008909003837386A0031091A3807FF636F9E
:101348006D70617265009609A909BF93AF938C010E
:1013580089919991DC01899199919C01899199913F
:10136800FC01ED90F190EF1451F40A9519F02A95CB
:10137800C1F701C02A95022B11F4882702C08FEF0C
:1013880000C0982FAF91BF910C94043807FF6E6688
:10139800613E6C666100A2090038B206293AFE393E
:1013A80097391A380BFF7365742D63757272656E01
:1013B8007400CA09003837386600293B1A3808FF14
:1013C800776F72646C697374D6090038023F4E39BE
:1013D800C938293BAB38823C7A01033F1A3804FFED
:1013E8006F6E6C79E30900383738680037380100C8
:1013F800120A1A380EFF666F7274682D776F72645E
:101408006C697374F309693864007A3D843D09FF97
:101418007365742D6F7264657200FE090038373881
:101428006A0052091A380FFF7365742D7265636F6D
:10143800676E697A657273000B0A003837387C006A
:1014480052091A380FFF6765742D7265636F676EEE
:10145800697A65727300170A003837387C003109D9
:101468001A3804FF636F6465260A0038E9065308D2
:10147800F93E6A0A1A071A3808FF656E642D636F09
:101488006465350A00380F070C940F0704381A38BA
:1014980008FF286D61726B657229400A69388A00F5
:1014A8007A3D843D0800706F7374706F6E654C0AE6
:1014B80000387105B3056A0A6A0ABA3B24381A3833
:1014C80007FF692D63656C6C2B00560A0038293AB2
:1014D8001A380BFF6170706C7475726E6B657900E9
:1014E800640A0038D600893C4401963F8F030A00FD
:0E14F800466F7274686475696E6FC2031A38AD
:10700000BF93AF93DB0111966EF0FD01EE0FFF1FF2
:10701000659175911196FB01EE0FFF1F059115917A
:10702000F8010994E89464EB7CE3F5CF04FF6578FC
:1070300069746D0A1B38AF91BF91E6CF07FF657881
:1070400065637574650016382538BC01899199917E
:10705000E2CF2A38FD01EE0FFF1FA591B591D4CFE5
:107060003138982B89919991A9F31196CDCF383861
:107070009A938A93FD01EE0FFF1F859195911196CA
:10708000C3CF42389A938A93FB013196EE0FFF1FCC
:1070900085919591B9CF4C389A938A93CB010196FB
:1070A000B3CF52389A938A93FB013196EE0FFF1FAC
:1070B00085919591840D951DA7CF07FF2876616C6A
:1070C000756529001E380038E90653080F0769382E
:1070D0001A380E947708AB38293ABA3B24381A3854
:1070E00001FF40005D387438FC01819191918CCF93
:1070F00001FF210070387C38FC01899199919183BE
:1071000080838991999180CF02FF632178388838F4
:10711000FC018991999180838991999175CF02FFA2
:10712000634084389338FC01992780816DCF02FF3A
:1071300040758F380038F03A973973381A3802FFA3
:10714000217597380038F03A97397B381A3803FFA1
:10715000647570009F38AC389A938A9355CF04FFBA
:107160003F647570A738B438082F092B11F09A9333
:107170008A934ACF04FF73776170AF38BF388C01B0
:10718000899199911A930A933FCF04FF6F766572A4
:10719000BA38CA389A938A938A819B8135CF04FF83
:1071A00064726F70C538D438899199912DCF03FFDF
:1071B000726F7400CF38DC388C0129913991899134
:1071C00099913A932A931A930A931ECF03FF6E69FB
:1071D0007000D738EB38229617CF02FF723EE638A0
:1071E000F1389A938A938F919F910ECF02FF3E724E
:1071F000ED38FA389F938F938991999105CF02FFCB
:107200007240F63803399A938A938F919F919F9396
:107210008F93FACE02FF3C3EFF380038C53F143949
:107220001A3802FF303D0A391539982BD1F530C094
:1072300002FF303C11391C3997FD2AC032C002FFD1
:10724000303E18392339821593055CF151F120C085
:1072500003FF64303E001F392D3982159305899153
:10726000999182059305ECF0E1F012C003FF6430C0
:107270003C0028393B39229697FD0C9448390C94F0
:10728000513904FF74727565363946399A938A9379
:107290008FEF9FEFB9CE01FF300041394F399A93FC
:1072A0008A93C101B1CE02FF753C4B395739299100
:1072B000399182179307A8F3A1F3EACF02FF753E35
:1072C00053390038BE3856391A3801FF3C005E3950
:1072D000693929913991281739071CF7D9CF01FF4E
:1072E0003E00653973392991399128173907CCF255
:1072F000C1F2CECF04FF6C6F67326F397F39FC016A
:10730000992780E18A9522F0EE0FFF1FD8F77CCEF7
:107310009A957ACE01FF2D007A398E39099119910B
:10732000081B190BC80170CE01FF2B008A39983950
:1073300009911991800F911F67CE02FF6D2A943930
:10734000A1398C01899199919C0131027001209F92
:10735000C0013003F308900DE11CF31C1203F30885
:10736000900DE11CF31C9A938A93C7014DCE06FF42
:10737000756D2F6D6F649D39BD397C0129913991EF
:107380000991199140E15527000F111F221F331F4A
:10739000551F2E153F05520518F003952E193F096C
:1073A0004A9589F73A932A93C8012ECE03FF756D4B
:1073B0002A00B739DB398C0189919991809FF001BE
:1073C00022273327909FF00D211D331D819FF00D43
:1073D000211D331D919F200D311DCF019A938A935A
:1073E000C90112CE06FF696E76657274D639F83916
:1073F0008095909509CE02FF322FF239FF3995958D
:10740000879502CE02FF322AFB39063A880F991F70
:10741000FBCD03FF616E6400023A0E3A09911991A7
:1074200080239123F1CD02FF6F72093A173A099137
:107430001991802B912BE8CD03FF786F7200133ADE
:10744000213A0991199180279127DECD02FF312B36
:107450001C3A2A3A0196D8CD02FF312D263A303A0D
:107460000197D2CD06FF6C73686966742C3A383A7E
:10747000FC018991999131971AF0880F991FFBCFE0
:10748000C3CD06FF727368696674323A473AFC01ED
:107490008991999131971AF096958795FBCFB4CD44
:1074A00002FF2B21413A543AFC01899199912081A4
:1074B0003181820F931F8083918389919991A4CD0B
:1074C00003FF72704000503A653A9A938A938DB7E1
:1074D0009EB79ACD03FF72702100603A6F3A2FB7C2
:1074E000F8948DBF9EBF2FBF899199918DCD03FFD9
:1074F000737040006A3A7C3A9A938A93CE0184CDA5
:1075000003FF73702100773A853AEC0189919991D4
:107510007BCD8A3A29913991E0E83E0F821B930B8B
:107520003F932F939F938F93899199916DCD01FFF5
:107530006900803A9B3A9A938A938F919F91EF9139
:10754000FF91FF93EF939F938F938E0F9F1F5CCDBF
:10755000A93AEF91FF91E80FF91F899199911BF0DA
:10756000FF93EF9377CD0F911F9111964DCDB83AC0
:10757000EF91FF913196BBF3F3CF06FF756E6C6F01
:107580006F70973AC33A1F910F911F910F913CCDA5
:1075900006FF636D6F76653EBD3ACE3ABF93AF93FB
:1075A000E991F991A991B991092F082B41F0E80FC0
:1075B000F91FA80FB91F1E9112930197E1F7AF9120
:1075C000BF918991999120CD02FF3E3CC83AE83A9B
:1075D000092F982F802F18CD03FF75704000E43AD3
:1075E000F13A9A938A93C2010FCD03FF757021007F
:1075F000EC3AFA3A2C018991999106CD03FF316D4D
:107600007300F53A033BE0EAFFE03197F1F7FCCC79
:1076100003FF323E7200FE3A0D3BFC0189919991C5
:107620009F938F93FF93EF9389919991EDCC03FFF3
:1076300032723E00083B1C3B9A938A93EF91FF9174
:107640008F919F919A938A93CF01DECC02FF21659F
:10765000173B2A3BFC01899199912FB7F89428D0C8
:1076600000B5081709F00BD0319622D000B50917E4
:1076700011F0892F04D02FBF89919991C5CCF99928
:10768000FECF07B700FDFDCFF2BDE1BD80BDFA9A88
:10769000F99A089502FF4065263B4E3B2FB7F894B8
:1076A000FC0106D080B5319603D090B52FBFACCC8D
:1076B000F999FECFF2BDE1BDF89A089502FF216964
:1076C0004A3BD83D60007A3D843D09FF2821692D61
:1076D0006E72777729005E3B6D3B1FB71F93F8945E
:1076E0009C0189919991AF93BF93CF93DF9309D078
:1076F000DF91CF91BF91AF91899199911F911FBF58
:1077000083CC11D0E094F0948E219F21982B21F00E
:10771000B394F90102E020D0F90104E01DD0F90191
:1077200000E11AD00895F901E07CFF7FEF01A0E4A9
:10773000B0E0FE01EE0FFF1F45915591FE01E217EB
:10774000F30711F00A0102C07A010C01002704D0EE
:107750002196119771F70895F999FECF17B710FD8B
:10776000FDCFEE0FFF1F016007BFE895089502FFF0
:107770004069653BBB3BFC01EE0FFF1F8591959176
:1077800043CC03FF6E3E7200B73BC63BFC01082FA3
:10779000899199919F938F930A95D1F7EF93FF93D6
:1077A0008991999131CC03FF6E723E00C13BD83B69
:1077B0009A938A93FF91EF910E2F8F919F919A93B5
:1077C0008A930A95D1F7CF011FCC03FF64322A00B8
:1077D000D33BEA3B09911991000F111F881F991F94
:1077E0001A930A9311CC03FF64322F00E53BF83B58
:1077F0000991199195958795179507951A930A936D
:1078000003CC02FF642BF33B053C29913991E990AD
:10781000F99049915991240F351F8E1D9F1D3A9360
:107820002A93F2CB02FF642D013C163C2991399139
:10783000E990F99049915991421B530BE80AF90AD2
:107840005A934A93C701E0CB07FF64696E7665726D
:107850007400123C2B3C09911991809590950095EC
:1078600010951A930A93D0CB04FF2F6D6F64243CBC
:10787000393C9C0109911991412F432717FF04C0FE
:10788000109500950F5F1F4F37FF04C0309520956E
:107890002F5F3F4FEE24FF1851E1001F111F5A9533
:1078A00039F447FF04C0109500950F5F1F4F0BC0C0
:1078B000EE1CFF1CE21AF30A20F4E20EF31E889479
:1078C000ECCF0894EACFFA92EA92C8019DCB03FF6D
:1078D00061627300343C6C3C99231AF48095909556
:1078E000019692CB04FF7069636B673C0038293ABC
:1078F000A53E7B3A973973381A3805FF63656C6C7F
:107900002B00723C833C02967FCB04FF2B696E7484
:107910007D3C8A3C789478CB04FF2D696E74853C5D
:10792000913CF89471CB04FF696E74218C3C003853
:10793000373800009739293B1A3804FF696E7440C4
:10794000933C00383738000097394D3B1A3808FF10
:10795000696E742D747261709D3CAE3C809316010B
:1079600089919991689450CB003837381601923834
:107970003738000097394D3B2438BF3C1A38C03C9B
:1079800001D042CB189500388F030300206F6B00A5
:10799000C2031A3800388F0302003E20893FC20319
:1079A0001A3800388F030400203F3F20C2039E3E58
:1079B0007338F938293F4403C33E73384403F03821
:1079C0009E3E7B381A3804FF71756974A73C0038F5
:1079D00016081D087B388B05843A98056E3AB8085E
:1079E000983E733814393038F63CCA3C9804303825
:1079F000F03C3738DB054A3DB3383038083DAB380A
:107A00003738FEFF68393038063DD13C2938E83C2C
:107A1000C33C2938F03C1A3805FF70617573650066
:107A2000E33CD83D7B018E3D983D04FF636F6C6461
:107A30000C3D1A3DA4B62224332424BEEDE7F1E028
:107A40002F010FEF0DBF04831AE01EBF1583CFEA8D
:107A5000C683DAE0D783A3E3BDE3D6CA04FF776128
:107A6000726D153D0038610237385F013738113DBE
:107A7000B93DB808443FE73C1A3807FF68616E64B7
:107A80006C6572002E3D52380A0005FF6361746315
:107A900068003D3D00387B3AF938433D7338F9388A
:107AA000643A433D7B382438F038433D7B38F03826
:107AB000D3384E391A3805FF7468726F7700453D28
:107AC0000038AB3814393038673DD3381A38433D65
:107AD00073386E3AF038433D7B38F038BE38F938A9
:107AE000843AD338F0381A3807FF45646566657202
:107AF00040005B3D0038BA3B4D3B1A3807FF4564F8
:107B0000656665722100743D0038BA3B293B1A381E
:107B100007FF52646566657240007E3D0038BA3BDF
:107B200073381A3807FF5264656665722100883D14
:107B30000038BA3B7B381A3807FF556465666572B2
:107B40004000923D0038BA3BF03A973973381A3802
:107B500007FF55646566657221009C3D0038BA3B9D
:107B6000F03A97397B381A3806FF646566657221EA
:107B7000A83D0038293AAB38823CBA3B24381A3841
:107B800006FF646566657240B43D0038293AAB383B
:107B9000293ABA3B24381A3807FF286465666572AB
:107BA0002900C03D0038E90653080F07D83D1A38B0
:107BB0000E947708AB38293ABA3B243824381A385F
:107BC00002FF643DCC3D0038153C163A14391A3892
:107BD00002FF752EE03D00384E394C031A3803FF82
:107BE000752E7200E83D00384E39BE3855031A38FC
:107BF00005FF752F6D6F6400EF3D0038F9384E3981
:107C0000F038BC391A3806FF6E6567617465F83D57
:107C10000038F739293A1A3801FF2F00033E00389F
:107C2000383CEA381A3803FF6D6F64000C3E0038A8
:107C3000383CD3381A3803FF6D696E00133E0038A4
:107C4000AA3E72393038253EBE38D3381A3803FF81
:107C50006D6178001B3E0038AA3E68393038313EED
:107C6000BE38D3381A3806FF77697468696E273EC4
:107C70000038C9388D39F9388D39F03856391A3805
:107C80000DFF73686F772D776F72646C6973740082
:107C9000333E003837384F3EBE3897061A38003822
:107CA000B206C203963F45391A3805FF776F7264F2
:107CB0007300403E003837386C004D3B493E1A385F
:107CC00002002E22553E00386B3E0F07C2031A38C1
:107CD00002007322603E0038373822004305983E88
:107CE00073383038743E41071A3804FF66696C6C8B
:107CF000683E0038DB38DB38B3383038863E813FA9
:107D0000893AAB389A3A8738B73A813ED3381A382D
:107D100005FF665F63707500753E003837380024D4
:107D20003738F4001A3805FF737461746500883EB3
:107D30004238A30104FF62617365933E52380C0020
:107D400005FF63656C6C73009A3E063A04FF32646B
:107D50007570A03E0038C938C9381A3805FF32643A
:107D6000726F7000A63E0038D338D3381A3804FF3B
:107D70007475636BAE3E0038BE38C9381A3803FFDD
:107D80003E696E00B73E5238180004FF23746962E2
:107D9000BF3E4238A50103FF70616400C53E003854
:107DA0000A3F3738640097391A3804FF656D6974E3
:107DB000CB3ED83D0E00A23DAE3D05FF656D69741A
:107DC0003F00D53ED83D1000A23DAE3D03FF6B65A0
:107DD0007900DD3ED83D1200A23DAE3D04FF6B654B
:107DE000793FE63ED83D1400A23DAE3D02FF6470EF
:107DF000EE3E693858007A3D843D05FF656865723E
:107E00006500F63E69385C007A3D843D04FF686594
:107E10007265FD3E69385A007A3D843D05FF616C0C
:107E20006C6F7400063F00380A3F97397A010B3FA8
:107E30001A3803FF62696E000E3F003837380200BF
:107E40009E3E7B381A3807FF646563696D616C007C
:107E5000193F003837380A009E3E7B381A3803FF36
:107E600068657800233F0038373810009E3E7B3825
:107E70001A3802FF626C2F3F4238200007FF7475EA
:107E8000726E6B657900393FD83D5E007A3D843D66
:107E900007FF746F7570706572003E3F0038AB3835
:107EA0003738610037387B00383E30385A3F373832
:107EB000DF000D3A1A3807FF746F6C6F7765720038
:107EC000483F0038AB383738410037385B00383E20
:107ED00030386D3F37382000163A1A3806FF3F73A6
:107EE0007461636B5B3F0038A3051B3930387B3FFF
:107EF0003738FCFF603D1A3806FF626F756E647399
:107F00006E3F0038C9389739BE381A3802FF63729D
:107F10007C3F003837380D00D93E37380A00D93E4B
:107F20001A3805FF737061636500863F00383C3F77
:107F3000D93E1A3806FF737061636573913F00384C
:107F40004E392B3EAB383038A93F963F2F3A29386F
:107F5000A23FD3381A3803FF733E64009A3F0038BB
:107F6000AB381B391A380800326C69746572616C61
:107F7000AB3F0038BE380F0737381A070F073738BE
:107F80001A071A3801FF3D00B33F00388D39143904
:107F90001A3801FF3100C23F4238010001FF3200B0
:107FA000C93F4238020002FF2D31CE3F4238FFFF69
:00000001FF
