:020000020000FC
:0200040052D1D7
:0200080050D1D5
:02000C004ED1D3
:020010004CD1D1
:020014004AD1CF
:0200180048D1CD
:02001C0046D1CB
:0200200044D1C9
:0200240042D1C7
:0200280040D1C5
:02002C003ED1C3
:020030003CD1C1
:020034003AD1BF
:0200380038D1BD
:02003C0036D1BB
:0200400034D1B9
:0200440032D1B7
:0200480030D1B5
:02004C002ED1B3
:020050002CD1B1
:020054002AD1AF
:0200580028D1AD
:02005C0026D1AB
:0200600024D1A9
:0200640022D1A7
:0200680020D1A5
:02006C001ED1A3
:020070001CD1A1
:020074001AD19F
:0200780018D19D
:02007C0016D19B
:0200800014D199
:0200840012D197
:0200880010D195
:02008C000ED193
:020090000CD191
:020094000AD18F
:0200980008D18D
:02009C0006D18B
:0200A00004D189
:0200A40002D187
:0200A80000D185
:0200AC00FED084
:0200B000FCD082
:0200B400FAD080
:0200B800F8D07E
:0200BC00F6D07C
:0200C000F4D07A
:0200C400F2D078
:0200C800F0D076
:0200CC00EED074
:0200D000ECD072
:0200D400EAD070
:0200D800E8D06E
:0200DC00E6D06C
:1000E000E4D000200010FFFF39000A0041546D6584
:1000F000676131323830AF93AFB7AF93BF93EF93AF
:10010000FF93B091C600A0911202E0E0F2E0EA0F86
:10011000F31DB083A395AF70A0931202FF91EF91EE
:0A012000BF91AF91AFBFAF911895EA
:0200640048C092
:10012A0000F060F140F0120299F060F140F0140220
:10013A0099F020F006FF72782D697372000000F0C2
:10014A00BE0039F0A50040F01402A4F0BDF03BF265
:10015A0040F00F001FF240F0140299F040F0000244
:10016A00A9F1A4F020F007FF72783F2D697372009D
:10017A009F0000F054FA40F01402A4F040F012027A
:10018A00A4F01FF120F007FF74782D706F6C6C00DB
:10019A00B80000F0DC0039F0CF0040F0C60099F05A
:1001AA0020F008FF74783F2D706F6C6CC80000F067
:1001BA0054FA40F0C000A4F040F020001FF220F0F2
:1001CA0004FF75627272D6007BF0C400AFFBB9FB04
:1001DA0006FF2B7573617274E50000F040F0980019
:1001EA0040F0C10099F040F0060040F0C20099F0DA
:1001FA00E900BDF0F9F240F0C50099F040F0C40002
:10020A0099F0950020F008FF31772E7265736574B6
:10021A00ED000F019A938A9399276C9A7498E0E8F3
:10022A00F7E03197F1F71FB7F894749A6C98E0E009
:10023A00F1E03197F1F78CB184FF9FEF1FBF6C9803
:10024A007498E0E8F6E03197F1F7892F0C9404F0FE
:10025A0007FF31772E736C6F7400080134016C9AB2
:10026A0074981FB7F894E8E1F0E03197F1F78894B1
:10027A00879510F46C98749AE4E2F0E03197F1F7FC
:10028A000CB104FD8068ECECF0E03197F1F76C9862
:10029A00749AE8E0F0E03197F1F71FBF0C9404F08C
:040000000C945DFA05
:1002AA000A920FB60A920F900F900A9400921602C1
:1002BA0009900FBE09906894089502FF6D2B2D01D5
:1002CA0000F06EFD1FF420F003FF75642A0062013E
:1002DA0000F0BDF00BF1ECF1E5F0D0F002F1ECF139
:1002EA00EDF0A9F120F004FF756D6178690100F065
:1002FA007FF568F139F08201D0F0E5F020F004FFD3
:10030A00756D696E780100F07FF573F139F08E0131
:10031A00D0F0E5F020F000F040F000801FF226F166
:10032A0039F09A0140F0010020F057F120F00AFF5D
:10033A006E616D653E666C616773840100F0D2F38D
:10034A0040F000FF1FF220F008FF28637265617415
:10035A0065299C0100F0CFF91003BDF00BF1F502FD
:10036A0002F140F019028DF040F017028DF020F0F2
:10037A0001005C00A90100F0B6F9FCF098F58DF0D7
:10038A0020F001002800BD0100F040F02900A1F989
:10039A0088F520F007FF636F6D70696C6500C60110
:1003AA0000F002F1BDF03BF20BF1D2F3E00120F0D4
:1003BA0001FF2C00CF0100F0CEF573F3CEF53BF22E
:1003CA009DFBCFF520F003005B275D00DD0100F007
:1003DA00D50140F02EF8E00120F007006C69746541
:1003EA0072616C00E80100F065F585F039F00002F1
:1003FA00D50140F0E00120F00800736C6974657261
:10040A00616CF20100F0D50191F79FF720F000F03E
:10041A00CEF5D501FFFF20F000F05AFBCEF5D0F063
:10042A0073F320F000F0CEF520F000F05AFBE00163
:10043A0020F00500616865616400010200F0D501E1
:10044A002FF00C0220F0020069661E0200F0D501AE
:10045A0039F00C0220F00400656C7365280200F084
:10046A00D5012FF00C02D0F0110220F004007468BC
:10047A00656E300200F0110220F0050062656769BE
:10048A006E003B0200F0170220F005007768696CE5
:10049A006500420200F02B02D0F020F006007265DF
:1004AA00706561744A0200F06C023F0220F0050098
:1004BA00756E74696C00530200F040F039F0E00187
:1004CA001A0220F00500616761696E005C0200F0A3
:1004DA00D5012FF01A0220F00200646F670200F0C3
:1004EA00D5019BF2170260F1CF0220F004006C6F75
:1004FA006F70710200F0D501C9F2B60220F0050052
:10050A002B6C6F6F70007B0200F0D501BAF2B60255
:10051A0020F005006C6561766500840200F0D50163
:10052A00D4F22302CF0220F003003F646F008E0250
:10053A0000F0D501A5022B027402D0F0CF0220F000
:10054A0000F07FF584FDBDF00BF139F0AD0288F5BE
:10055A0002F109F220F007FF656E646C6F6F70009C
:10056A00990200F01A02C302C5F039F0BF023F0235
:10057A002FF0B80220F002FF6C3EB00200F0E30256
:10058A0085F085F040F0FEFFE30265F220F002FFFD
:10059A003E6CC00200F040F00200E30265F2E302A2
:1005AA0085F08DF020F003FF6C703000CC027BF0F8
:1005BA00A400AFFBB9FB02FF6C70D8024EF01B021D
:1005CA0006FF637265617465E00200F0AF0119030A
:1005DA00D5015BF020F006FF686561646572E5028B
:1005EA0000F0CEF50BF10BF1BDF034F139F0070351
:1005FA00BDF040F000FF28F2A3F702F15FF3E0013B
:10060A0002F120F040F0F0FF5BF807FF776C7363AC
:10061A006F706500F0020DFCA200AFFBB9FB06FF8C
:10062A0072657665616C0A0300F040F0170285F086
:10063A00C5F039F0280340F0190285F03BF360F168
:10064A0040F017028DF020F006FF6C617465737438
:10065A0014034EF01D020500646F65733E00290302
:10066A0000F0D5014803D5010E94D5013D0320F0D1
:10067A009A938A93CB0101967F916F91BF93AF931F
:10068A00DB010C9404F000F002F140F0190285F04D
:10069A005FF396043BF273F320F001FF3A00300354
:1006AA0000F0AF016003E5F020F007FF3A6E6F6ECD
:1006BA00616D6500520300F0CEF5BDF02E038DF09A
:1006CA00D50100F0750320F001003B005A0300F049
:1006DA00D50120F07E03190320F001FF5D006903B4
:1006EA0000F040F0010065F58DF020F001005B009C
:1006FA00720300F060F165F58DF020F008FF766175
:10070A00726961626C657B0300F0DFF5960340F065
:10071A000200E8F520F008FF636F6E7374616E746F
:10072A00830300F0AF011903D5014EF0E00120F078
:10073A0004FF75736572900300F0AF011903D501C8
:10074A0061F0E00120F0070072656375727365005D
:10075A009D0300F02E0385F0E00120F009FF696D8A
:10076A006D65646961746500A80300F057045FF35E
:10077A00BDF0D2F340F0FF7F1FF2D0F073F320F008
:10078A0006005B636861725DB30300F0D50140F057
:10079A00FEF8E00120F0060061626F727422C50360
:1007AA0000F0DBF4D501E80320F005FF61626F7207
:1007BA007400D00300F040F0FFFF5BF806FF3F61D2
:1007CA00626F7274DA0300F0EDF039F0EE03C4F7E9
:1007DA00DF0388F520F009FF6765742D7374616380
:1007EA006B00E30300F0BDF078F5D0F05FF3BDF0E5
:1007FA000BF160F1D0F0A50239F00E049BF2ACF2D5
:10080A0041F272F5DBF0A9F15FF3D0F057F1BAF2D9
:10081A00040488F502F120F009FF7365742D7374DE
:10082A0061636B00F00300F07FF53BF3D0F060F1F9
:10083A00A50239F026049BF278F590F53BF3C9F24C
:10084A002104E5F020F009FF6D61702D7374616376
:10085A006B00110400F0BDF078F5D0F05FF372F58B
:10086A0065FDA50239F04C049BF2ACF25FF3D0F0BF
:10087A000BF114F12AF0C5F039F0470402F1E5F062
:10088A00D4F220F002F140F00200BAF23A04E5F0A4
:10089A0060F120F00BFF6765742D63757272656EE7
:1008AA007400280400F040F082005FF320F009FF92
:1008BA006765742D6F72646572004F0400F040F032
:1008CA008600F70320F007FF636F6D7061726500A1
:1008DA005C046F04BF93AF938C0189919991DC01F9
:1008EA00899199919C0189919991FC01ED90F190DE
:1008FA00EF1451F40A9519F02A95C1F701C02A9507
:10090A00022B11F4882702C08FEF00C0982FAF91F5
:10091A00BF910C9404F007FF6E66613E6C6661003D
:10092A00680400F06CFC3BF210F2A9F120F00BFF16
:10093A007365742D63757272656E7400900400F0AD
:10094A0040F082003BF320F008FF776F72646C6915
:10095A0073749C0400F0D7F560F1DBF03BF3BDF053
:10096A0078F59DFBD8F520F004FF6F6E6C79A90429
:10097A0000F040F0840040F00100D80420F00EFF9F
:10098A00666F7274682D776F72646C697374B904D8
:10099A007BF08000AFFBB9FB09FF7365742D6F72A2
:1009AA0064657200C40400F040F08600180420F068
:1009BA000FFF7365742D7265636F676E697A65726E
:1009CA007300D10400F040F09800180420F00FFFE3
:1009DA006765742D7265636F676E697A65727300F5
:1009EA00DD0400F040F09800F70320F004FF636F85
:1009FA006465EC0400F0AF011903CEF53005E0019F
:100A0A0020F008FF656E642D636F6465FB0400F0D7
:100A1A00D5010C94D50104F020F008FF286D61720D
:100A2A006B65722906057BF0A600AFFBB9FB0800CF
:100A3A00706F7374706F6E65120500F0CFF9C6FAA5
:100A4A0030053005D2F32AF020F007FF692D6365DF
:100A5A006C6C2B001C0500F03BF220F00BFF617060
:100A6A00706C7475726E6B6579002A0500F0F2007D
:100A7A008BF467FB06F891F70A00466F7274686494
:080A8A0075696E6FC4F720F0DE
:020000021000EC
:10E00000BF93AF93DB0111969EF0FD015527EE0FF4
:10E01000FF1F551F5BBF679177911196FB01552735
:10E02000EE0FFF1F551F5BBF07911791F801099471
:10E03000E89466EB74EFF2CF04FF657869743305FA
:10E0400021F0AF91BF91E0CF07FF657865637574EC
:10E0500065001CF02BF0BC0189919991DFCF30F065
:10E06000FD015527EE0FFF1F551F5BBFA791B7910D
:10E07000CBCF3AF0982B8991999191F31196C4CF17
:10E0800041F09A938A93FD015527EE0FFF1F551F0C
:10E090005BBF879197911196B7CF4EF09A938A9371
:10E0A000FB0131965527EE0FFF1F551F5BBF879170
:10E0B0009791AACF5BF09A938A93CB010196A4CF54
:10E0C00061F09A938A93FB0131965527EE0FFF1F5B
:10E0D000551F5BBF87919791840D951D95CF07FFC5
:10E0E0002876616C7565290024F000F0AF011903F2
:10E0F000D5017BF020F00E943D03BDF03BF2D2F34E
:10E100002AF020F001FF40006FF086F0FC018191C1
:10E1100091917ACF01FF210082F08EF0FC0189916C
:10E12000999191838083899199916ECF02FF6321A8
:10E130008AF09AF0FC018991999180838991999153
:10E1400063CF02FF634096F0A5F0FC019927808120
:10E150005BCF02FF4075A1F000F002F3A9F185F05A
:10E1600020F002FF2175A9F000F002F3A9F18DF073
:10E1700020F003FF64757000B1F0BEF09A938A93AB
:10E1800043CF04FF3F647570B9F0C6F0082F092B28
:10E1900011F09A938A9338CF04FF73776170C1F0BE
:10E1A000D1F08C01899199911A930A932DCF04FF94
:10E1B0006F766572CCF0DCF09A938A938A819B81AA
:10E1C00023CF04FF64726F70D7F0E6F089919991C4
:10E1D0001BCF03FF726F7400E1F0EEF08C01299108
:10E1E0003991899199913A932A931A930A930CCF72
:10E1F00003FF6E697000E9F0FDF0229605CF02FF83
:10E20000723EF8F003F19A938A938F919F91FCCE1E
:10E2100002FF3E72FFF00CF19F938F9389919991C9
:10E22000F3CE02FF724008F115F19A938A938F9111
:10E230009F919F938F93E8CE02FF3C3E11F100F037
:10E2400084FD26F120F002FF303D1CF127F1982BD0
:10E25000D1F530C002FF303C23F12EF197FD2AC0EA
:10E2600032C002FF303E2AF135F1821593055CF190
:10E2700051F120C003FF64303E0031F13FF18215BF
:10E2800093058991999182059305ECF0E1F012C014
:10E2900003FF64303C003AF14DF1229697FD0C9457
:10E2A0005AF10C9463F104FF7472756548F158F1EA
:10E2B0009A938A938FEF9FEFA7CE01FF300053F11F
:10E2C00061F19A938A93C1019FCE02FF753C5DF183
:10E2D00069F12991399182179307A8F3A1F3EACF45
:10E2E00002FF753E65F100F0D0F068F120F001FF0B
:10E2F0003C0070F17BF129913991281739071CF7FF
:10E30000D9CF01FF3E0077F185F129913991281786
:10E310003907CCF2C1F2CECF04FF6C6F673281F1C6
:10E3200091F1FC01992780E18A9522F0EE0FFF1F01
:10E33000D8F76ACE9A9568CE01FF2D008CF1A0F136
:10E3400009911991081B190BC8015ECE01FF2B0022
:10E350009CF1AAF109911991800F911F55CE02FFEE
:10E360006D2AA6F1B3F18C01899199919C0131023A
:10E370007001209FC0013003F308900DE11CF31CD5
:10E380001203F308900DE11CF31C9A938A93C701C2
:10E390003BCE06FF756D2F6D6F64AFF1CFF17C0141
:10E3A000299139910991199140E15527000F111FC9
:10E3B000221F331F551F2E153F05520518F00395D8
:10E3C0002E193F094A9589F73A932A93C8011CCE22
:10E3D00003FF756D2A00C9F1EDF18C0189919991C6
:10E3E000809FF00122273327909FF00D211D331DC0
:10E3F000819FF00D211D331D919F200D311DCF01F7
:10E400009A938A93C90100CE06FF696E766572748D
:10E41000E8F10AF280959095F7CD02FF322F04F2D1
:10E4200011F295958795F0CD02FF322A0DF218F280
:10E43000880F991FE9CD03FF616E640014F220F28A
:10E440000991199180239123DFCD02FF6F721BF296
:10E4500029F209911991802B912BD6CD03FF786F6A
:10E46000720025F233F20991199180279127CCCDC2
:10E4700002FF312B2EF23CF20196C6CD02FF312D68
:10E4800038F242F20197C0CD06FF6C73686966747A
:10E490003EF24AF2FC018991999131971AF0880F66
:10E4A000991FFBCFB1CD06FF72736869667444F2A1
:10E4B00059F2FC018991999131971AF096958795B7
:10E4C000FBCFA2CD02FF2B2153F266F2FC01899112
:10E4D000999120813181820F931F8083918389914B
:10E4E000999192CD03FF7270400062F277F29A9395
:10E4F0008A938DB79EB788CD03FF7270210072F2A8
:10E5000081F22FB7F8948DBF9EBF2FBF899199914B
:10E510007BCD03FF737040007CF28EF29A938A9356
:10E52000CE0172CD03FF7370210089F297F2EC01E6
:10E530008991999169CD9CF229913991E0E83E0F3A
:10E54000821B930B3F932F939F938F938991999164
:10E550005BCD01FF690092F2ADF29A938A938F919D
:10E560009F91EF91FF91FF93EF939F938F938E0F66
:10E570009F1F4ACDBBF2EF91FF91E80FF91F8991E0
:10E5800099911BF0FF93EF936BCD0F911F91119613
:10E590003BCDCAF2EF91FF913196BBF3F3CF06FF6B
:10E5A000756E6C6F6F70A9F2D5F21F910F911F916C
:10E5B0000F912ACD06FF636D6F76653ECFF2E0F2D4
:10E5C000BF93AF93E991F991A991B991092F082BC4
:10E5D00041F0E80FF91FA80FB91F1E911293019780
:10E5E000E1F7AF91BF91899199910ECD02FF3E3C29
:10E5F000DAF2FAF2092F982F802F06CD03FF7570FB
:10E600004000F6F203F39A938A93C201FDCC03FF14
:10E6100075702100FEF20CF32C0189919991F4CCD4
:10E6200003FF316D730007F315F3E0EAFFE0319764
:10E63000F1F7EACC03FF323E720010F31FF3FC0146
:10E64000899199919F938F93FF93EF9389919991DA
:10E65000DBCC03FF32723E001AF32EF39A938A93B7
:10E66000EF91FF918F919F919A938A93CF01CCCC98
:10E6700002FF216529F33CF3FC01899199912FB7A1
:10E68000F89428D000B5081709F00BD0319622D0A5
:10E6900000B5091711F0892F04D02FBF89919991E6
:10E6A000B3CCF999FECF07B700FDFDCFF2BDE1BDB8
:10E6B00080BDFA9AF99A089502FF406538F360F335
:10E6C0002FB7F894FC0106D080B5319603D090B5F1
:10E6D0002FBF9ACCF999FECFF2BDE1BDF89A08950B
:10E6E00002FF21695CF30DFC7C00AFFBB9FB09FF65
:10E6F0002821692D6E727777290070F37FF31FB799
:10E700001F93F8949C0189919991AF93BF93CF93F4
:10E71000DF9309D0DF91CF91BF91AF91899199910A
:10E720001F911FBF71CC11D0E094F0948E219F21D6
:10E73000982B21F0B394F90102E023D0F90104E011
:10E7400020D0F90100E11DD00895F901E078FF7FA4
:10E75000EF01A0E8B0E0FE015527EE0FFF1F551FA7
:10E760005BBF47915791FE01E217F30711F00A01D1
:10E7700002C07A010C01002704D02196119759F7A5
:10E780000895F999FECF17B710FDFDCF5527EE0F6D
:10E79000FF1F551F5BBF016007BFE895089502FF8B
:10E7A000406977F3D3F3FC015527EE0FFF1F551F88
:10E7B0005BBF8791979128CC03FF6E3E7200CFF329
:10E7C000E1F3FC01082F899199919F938F930A950A
:10E7D000D1F7EF93FF938991999116CC03FF6E7255
:10E7E0003E00DCF3F3F39A938A93FF91EF910E2F9F
:10E7F0008F919F919A938A930A95D1F7CF0104CC78
:10E8000003FF64322A00EEF305F409911991000F19
:10E81000111F881F991F1A930A93F6CB03FF6432C6
:10E820002F0000F413F40991199195958795179588
:10E8300007951A930A93E8CB02FF642B0EF420F499
:10E8400029913991E990F99049915991240F351FF7
:10E850008E1D9F1D3A932A93D7CB02FF642D1CF483
:10E8600031F429913991E990F99049915991421BDC
:10E87000530BE80AF90A5A934A93C701C5CB07FF1D
:10E8800064696E76657274002DF446F409911991ED
:10E8900080959095009510951A930A93B5CB02FF39
:10E8A000643D3FF400F030F428F226F120F002FF3E
:10E8B000752E4FF400F060F14EF720F003FF752E37
:10E8C000720057F400F060F1D0F057F720F00DFF20
:10E8D00073686F772D776F72646C697374005EF480
:10E8E00000F040F076F4D0F051FC20F000F06CFC29
:10E8F000C4F706F857F120F005FF776F72647300D4
:10E9000067F400F040F088005FF370F420F004FF3B
:10E910002B696E747CF48CF4789476CB04FF2D69AB
:10E920006E7487F493F4F8946FCB04FF696E7421CE
:10E930008EF400F040F00000A9F13BF320F004FF5A
:10E94000696E744095F400F040F00000A9F15FF3A7
:10E9500020F008FF696E742D747261709FF4B0F43A
:10E96000809316028991999168944ECB00F040F003
:10E970001602A4F040F00000A9F15FF32AF0C1F400
:10E9800020F0C2F401D040CB189504FF7069636B8E
:10E99000A9F400F03BF272F58DF2A9F185F020F0B8
:10E9A00002002E22C5F400F0DBF4D501C4F720F0FC
:10E9B00002007322D0F400F040F02200A1F965F5C6
:10E9C00085F039F0E4F4070220F004FF66696C6C0E
:10E9D000D8F400F0EDF0EDF0C5F039F0F6F465FD97
:10E9E0009BF2BDF0ACF299F0C9F2F1F4E5F020F041
:10E9F0000BFF656E7669726F6E6D656E7400E5F47F
:10EA00004EF07E0009FF776F72646C697374730057
:10EA1000000000F040F0080020F004FF2F70616457
:10EA200002F500F08DF2A4F59FF120F005FF2F68AC
:10EA30006F6C64000DF500F0A4F5DFF59FF120F098
:10EA40000AFF666F7274682D6E616D6516F500F0D1
:10EA500091F70700616D666F7274680020F007FF20
:10EA600076657273696F6E0020F500F040F03A0031
:10EA700020F003FF637075002FF500F040F0750083
:10EA8000F0F720F008FF6D63752D696E666F39F53C
:10EA900000F040F0710020F005FF2F7573657200E3
:10EAA00042F500F040F0260020F005FF665F63703D
:10EAB0007500F8F400F040F0002440F0F40020F07D
:10EAC00005FF73746174650055F54EF01F0204FF75
:10EAD0006261736560F561F00C0005FF63656C6C45
:10EAE000730067F518F205FF63656C6C2B006DF51C
:10EAF00079F5029689CA04FF3264757073F500F0E7
:10EB0000DBF0DBF020F005FF3264726F70007BF504
:10EB100000F0E5F0E5F020F004FF7475636B83F519
:10EB200000F0D0F0DBF020F003FF3E696E008CF5C2
:10EB300061F0180004FF2374696294F54EF021021D
:10EB400003FF706164009AF500F0DFF540F06400A7
:10EB5000A9F120F004FF656D6974A0F50DFC0E00AD
:10EB6000D7FBE3FB05FF656D69743F00AAF50DFC5B
:10EB70001000D7FBE3FB03FF6B657900B2F50DFCDA
:10EB80001200D7FBE3FB04FF6B65793FBBF50DFC7F
:10EB90001400D7FBE3FB02FF6470C3F57BF0740045
:10EBA000AFFBB9FB05FF656865726500CBF57BF0CF
:10EBB0007800AFFBB9FB04FF68657265D2F57BF0A6
:10EBC0007600AFFBB9FB05FF616C6C6F7400DBF581
:10EBD00000F0DFF5A9F19DFBE0F520F003FF62698D
:10EBE0006E00E3F500F040F002006BF58DF020F0D0
:10EBF00007FF646563696D616C00EEF500F040F03D
:10EC00000A006BF58DF020F003FF68657800F8F5D9
:10EC100000F040F010006BF58DF020F002FF626C08
:10EC200004F64EF0200007FF7475726E6B65790074
:10EC30000EF60DFC7A00AFFBB9FB04FF2F6D6F647D
:10EC400013F622F69C0109911991412F432717FFD2
:10EC500004C0109500950F5F1F4F37FF04C030951B
:10EC600020952F5F3F4FEE24FF1851E1001F111F29
:10EC70005A9539F447FF04C0109500950F5F1F4F58
:10EC80000BC0EE1CFF1CE21AF30A20F4E20EF31E86
:10EC90008894ECCF0894EACFFA92EA92C801B4C9FA
:10ECA00005FF752F6D6F64001DF600F00BF160F12C
:10ECB00002F1CEF120F006FF6E656761746550F6D3
:10ECC00000F009F23BF220F001FF2F005BF600F0AC
:10ECD00021F6FCF020F003FF6D6F640064F600F095
:10ECE00021F6E5F020F003FF616273006BF678F621
:10ECF00099231AF480959095019686C903FF6D6952
:10ED00006E0073F600F07FF584F139F088F6D0F0EC
:10ED1000E5F020F003FF6D6178007EF600F07FF5EE
:10ED20007AF139F094F6D0F0E5F020F006FF77693B
:10ED30007468696E8AF600F0DBF09FF10BF19FF1C9
:10ED400002F168F120F007FF746F75707065720052
:10ED500096F600F0BDF040F0610040F07B009BF6BD
:10ED600039F0B5F640F0DF001FF220F007FF746FB6
:10ED70006C6F77657200A3F600F0BDF040F04100C3
:10ED800040F05B009BF639F0C8F640F0200028F216
:10ED900020F003FF686C6400B6F64EF0230204FF17
:10EDA000686F6C64C9F600F0CDF6BDF085F041F2F5
:10EDB000BDF00BF1D0F08DF002F199F020F002FFE0
:10EDC0003C23CFF600F0A4F5CDF68DF020F001FF46
:10EDD0002300DFF600F06BF585F067F7EDF040F00B
:10EDE0000900DBF07AF139F0F8F640F00700A9F1FC
:10EDF00040F03000A9F1D3F620F002FF2373E7F6CC
:10EE000000F0EAF67FF528F226F139F001F720F05C
:10EE100002FF233EFDF600F088F5CDF685F0A4F55F
:10EE2000DBF09FF120F004FF7369676E08F700F0D4
:10EE30002DF139F01EF740F02D00D3F620F003FF3E
:10EE4000642E720013F700F00BF190F5DFFCE2F690
:10EE500000F7EDF017F70BF702F1DBF09FF10FF879
:10EE60001FF820F002FF2E721FF700F00BF16EFD6D
:10EE700002F123F720F002FF642E32F700F060F178
:10EE800023F706F820F001FF2E003BF700F06EFD9F
:10EE90003EF720F003FF75642E0043F700F060F1A9
:10EEA00057F706F820F004FF75642E724AF700F059
:10EEB0000BF1E2F600F70BF702F1DBF09FF10FF830
:10EEC0001FF820F006FF75642F6D6F6453F700F094
:10EED0000BF160F114F1CEF102F1D0F00BF1CEF1B3
:10EEE00002F120F006FF64696769743F62F700F081
:10EEF000A9F6BDF040F0390084F140F000011FF2A6
:10EF0000A9F1BDF040F0400184F140F007011FF28B
:10EF10009FF140F030009FF1BDF06BF585F068F196
:10EF200020F000F014F1F0F702F1DBF03BF210F208
:10EF3000A9F13BF20BF120F002FF732C72F700F005
:10EF4000BDF0A3F720F000F0E001BDF010F290F565
:10EF500017F29FF10BF160F1A50239F0B6F79BF2C1
:10EF6000BDF085F0E00178F5C9F2B0F702F134F1B7
:10EF700039F0BDF7BDF0A4F0E001E5F020F005FFA9
:10EF80006974797065009CF700F0BDF010F290F59F
:10EF900017F29FF10BF160F1A50239F0D8F79BF25F
:10EFA000BDF0D2F3BDF0E5F7E1F73BF2C9F2D0F7DF
:10EFB00002F134F139F0DFF7BDF0D2F3E5F7E5F017
:10EFC00020F000F0F9F2E5F720F000F040F0FF004B
:10EFD0001FF2AEF520F006FF69636F756E74BFF720
:10EFE00000F0BDF03BF2D0F0D2F320F002FF6372EC
:10EFF000EBF700F040F00D00AEF540F00A00AEF582
:10F0000020F005FF737061636500F6F700F011F6FC
:10F01000AEF520F006FF73706163657301F800F0D0
:10F0200060F18EF6BDF039F019F806F841F22FF0D4
:10F0300012F8E5F020F004FF747970650AF800F02A
:10F0400065FDA50239F02AF89BF2ACF2A4F0AEF50A
:10F05000C9F225F820F001FF27001BF800F0CFF9D6
:10F06000ECF926F139F037F840F0F3FF5BF820F0C7
:10F0700007FF68616E646C6572002BF861F00A002E
:10F0800005FF63617463680038F800F08DF20BF1DE
:10F090003EF885F00BF176F23EF88DF02AF002F1A1
:10F0A0003EF88DF002F1E5F060F120F005FF7468A4
:10F0B000726F770040F800F0BDF026F139F062F889
:10F0C000E5F020F03EF885F080F202F13EF88DF098
:10F0D00002F1D0F00BF196F2E5F002F120F005FF1D
:10F0E00063736B69700056F800F00BF1BDF039F0F6
:10F0F00084F8DBF0A4F014F184FD39F084F840F0DA
:10F100000100C0F92FF076F802F1E5F020F005FFDC
:10F11000637363616E006FF800F00BF1DBF0BDF01C
:10F12000A4F014F184FD26F139F0A1F8D0F041F2F9
:10F13000D0F0DBF02DF126F139F0A1F83BF22FF001
:10F140008FF8FCF0DBF09FF102F1E5F020F006FF14
:10F1500061636365707487F800F0DBF0A9F141F238
:10F16000DBF0BFF5BDF0E6F826F139F0D8F8BDF0D8
:10F1700040F0080084FD39F0CFF8E5F0EDF07FF5C0
:10F1800084F10BF1EDF0EDF002F139F0CDF8DEF89D
:10F1900041F20BF1DBF002F17C012FF0D6F8BDF06B
:10F1A000AEF5DBF099F03BF2DBF088012FF0B1F81F
:10F1B000E5F0FCF0D0F09FF1F9F720F000F040F01E
:10F1C0000800BDF0AEF506F8AEF520F000F0BDF099
:10F1D00040F00D0084FDD0F040F00A0084FD28F2DC
:10F1E00020F006FF726566696C6CA7F80DFC1A00CA
:10F1F000D7FBE3FB04FF63686172F1F800F0CFF91D
:10F20000E5F0A4F020F006FF6E756D626572FAF805
:10F2100000F06BF585F00BF14FF90BF163F94FF945
:10F2200002F128F20BF1BDF026F139F01FF988F553
:10F2300002F1E5F002F16BF58DF060F120F01EF3C4
:10F2400060F160F12DF382F9C5F039F043F940F037
:10F25000010084FD39F03AF9A4F040F02E0084FD5D
:10F2600039F03BF902F139F036F9ECFC40F00200DC
:10F270002FF04AF9E5F088F502F1E5F002F16BF5BF
:10F280008DF060F120F088F502F139F048F960F670
:10F2900040F0010002F16BF58DF057F120F000F025
:10F2A000DBF0A4F040F02D0084FDBDF00BF139F04F
:10F2B0005CF940F00100C0F902F120F05BF00A00B7
:10F2C000100002000A0000F0DBF0A4F040F0230080
:10F2D0009FF1BDF060F140F004009BF639F07AF93F
:10F2E0005EF9A9F1D2F36BF58DF040F00100C0F9A1
:10F2F0002FF07BF9E5F020F007FF3E6E756D62653B
:10F30000720003F900F0BDF039F09BF9DBF0A4F0D6
:10F3100077F726F139F08EF9E5F020F00BF111FDC9
:10F320006BF585F06D0102F1650111FD40F0010002
:10F33000C0F92FF083F920F005FF7061727365004A
:10F340007CF900F00BF1B6F998F585F0C0F902F1FF
:10F350008CF8BDF03BF298F565F240F00100C0F981
:10F3600020F006FF736F757263659CF90DFC160043
:10F37000D7FBE3FB07FF2F737472696E6700B1F967
:10F3800000F0EDF0DBF0A9F1EDF0EDF09FF120F0F1
:10F390000AFF70617273652D6E616D65BAF900F0D8
:10F3A00011F6D3F920F000F00BF1B6F998F585F0DD
:10F3B000C0F914F174F802F18CF87FF5A9F1B6F9EF
:10F3C000E5F09FF198F58DF020F009FF66696E6415
:10F3D0002D6E616D6500C8F900F040F0F8F940F05D
:10F3E00086002F0426F139F0F7F988F560F120F056
:10F3F00000F00BF17FF502F11FFCBDF039F005FACA
:10F400000BF1FCF0FCF002F157F120F000F091F765
:10F410000300206F6B00C4F720F000F091F70200AA
:10F420003E20F9F7C4F720F000F091F70400203FE8
:10F430003F20C4F76BF585F00BF1FEF546F798F524
:10F4400085F046F702F16BF58DF020F004FF717541
:10F450006974E5F900F0DC02E3028DF085FA96F2BA
:10F4600092FA80F27E0365F585F026F139F039FADB
:10F470000DFAF6F839F033FA40F0ABFA45F8C5F07A
:10F4800039F04BFABDF040F0FEFF7AF139F049FA5D
:10F4900014FA2FF02BFA06FA2FF033FA20F005FFBA
:10F4A00070617573650026FA0DFC2502C3FBCDFB68
:10F4B00004FF636F6C644FFA5DFAA4B62224332410
:10F4C00024BEE7E2F2E02F010FEF0DBF048311E24B
:10F4D0001EBF1583CFEAC683D1E2D783A7E7BAEF71
:10F4E0000C9404F004FF7761726D58FA00F057FD38
:10F4F00040F082FB40F054FAEEFB7E0319F62AFA44
:10F5000020F003FF7370300072FA7BF00600D7FB27
:10F51000E3FB02FF737081FA61F0080003FF727071
:10F52000300089FA00F096FA85F020F061F00400CE
:10F5300005FF6465707468008EFA00F085FA8DF23C
:10F540009FF110F241F220F009FF696E746572704C
:10F550007265740098FA00F0CFF9C5F039F0BBFA83
:10F56000C6FA65F585F039F0B6FA3BF2D2F32AF027
:10F570005AFB2FF0ACFAE5F020F00DFF646F2D720E
:10F5800065636F676E697A657200A4FA00F040F0F7
:10F59000D2FA40F098002F0426F139F0D1FA88F51C
:10F5A0004DFB20F000F0EDF0EDF07FF51EF3EDF0F7
:10F5B0002AF02DF3EDF0BDF04DFB84FD39F0E3FAB8
:10F5C000E5F060F120F0FCF0FCF057F120F005FFD1
:10F5D000723A6E756D00BDFA5BF082FBF801F9FAC4
:10F5E00006FF723A646E756DE7FA5BF082FB78FD98
:10F5F000FFFA00F046F740F0D0FF5BF820F000F093
:10F600003EF740F0D0FF5BF820F007FF7265633AE9
:10F610006E756D00F0FA00F008F939F018FB40F053
:10F62000010084FD39F016FBECFA20F0F5FA20F029
:10F630004DFB20F008FF7265633A776F726405FB3B
:10F6400000F0ECF9BDF026F139F029FBE5F04DFBB7
:10F6500020F030FB20F006FF723A776F72641AFBDD
:10F660005BF034FB38FB40FB00F0E5F02AF020F0C3
:10F6700000F02DF139F03EFBE00120F02AF020F0FF
:10F6800000F02DF139F046FBD501D501E00120F065
:10F6900006FF723A6661696C2BFB5BF051FB51FB14
:10F6A00051FB00F040F0F3FF5BF806FF3F7374611D
:10F6B000636B48FB00F09DFA2DF139F062FB40F0DE
:10F6C000FCFF5BF820F003FF7665720055FB00F04D
:10F6D00027F5C4F706F86BF585F035F5FEF56EFDF8
:10F6E000E2F6EAF640F02E00D3F600F70BF71FF82B
:10F6F0006BF58DF006F83DF5C4F720F004FF6E6F52
:10F700006F7063FB83FB0C9404F006FF756E7573DA
:10F7100065647EFB00F08DF2DFF59FF120F00200C2
:10F72000746F85FB00F02EF8300565F585F039F033
:10F73000A3FBD5019DFBE00120F000F002F1BDF03C
:10F7400030050BF1D2F3BDF030053005D2F32AF0CD
:10F7500020F007FF45646566657240008FFB00F08E
:10F76000D2F35FF320F007FF456465666572210000
:10F77000A9FB00F0D2F33BF320F007FF526465666B
:10F7800065724000B3FB00F0D2F385F020F007FF74
:10F790005264656665722100BDFB00F0D2F38DF006
:10F7A00020F007FF5564656665724000C7FB00F0F6
:10F7B000D2F302F3A9F185F020F007FF55646566E6
:10F7C00065722100D1FB00F0D2F302F3A9F18DF0B4
:10F7D00020F006FF646566657221DDFB00F03BF2F8
:10F7E000BDF078F5D2F32AF020F006FF6465666577
:10F7F0007240E9FB00F03BF2BDF03BF2D2F32AF09D
:10F8000020F007FF2864656665722900F5FB00F0AB
:10F81000AF011903D5010DFC20F00E943D03BDF09E
:10F820003BF2D2F32AF02AF020F00FFF73656172E9
:10F8300063682D776F72646C6973740001FC00F06B
:10F840000BF160F140F034FC02F151FCBDF026F107
:10F8500039F02EFC88F5E5F060F120F0BDF078FC81
:10F86000D0F0A301900120F000F00BF1E5F07FF55E
:10F8700014F16CFC82FC39F042FC02F1E5F060F11D
:10F8800057F120F088F502F160F120F011FF747259
:10F890006176657273652D776F72646C697374003D
:10F8A00015FC00F05FF3BDF039F062FC7FF51EF34C
:10F8B000D0F02AF02DF3EDF039F062FC9604D2F38B
:10F8C0002FF053FC88F520F00BFF6E616D653E73E1
:10F8D0007472696E670046FC00F0F0F740F0FF00BC
:10F8E0001FF220F007FF6E66613E6366610064FCF4
:10F8F00000F096043BF220F008FF69636F6D7061C1
:10F90000726572FC00F00BF1DBF002F11FF139F0CF
:10F910008DFC88F5E5F057F120F0D0F060F1A502FC
:10F9200039F0B2FC9BF2DBF085F0B5FCDBF0D2F3F2
:10F93000B5FCBDF040F0000168F139F0A3FCD0F057
:10F9400040F0FF001FF21FF139F0AAFC88F557F1D3
:10F95000D4F220F03BF2D0F078F5D0F040F0020085
:10F96000BAF293FC88F560F120F000F0BDF040F0B1
:10F97000FF001FF2BCF6D0F0F9F240F0FF001FF2DA
:10F98000BCF6F9F228F220F001FF2A007CFC00F01E
:10F99000B2F1E5F020F001FF6A00C4FC00F076F25D
:10F9A00040F00700A9F185F076F240F00900A9F1D6
:10F9B00085F0A9F120F004FF64616273CBFC00F0D4
:10F9C000BDF02DF139F0E5FCECFC20F007FF646E92
:10F9D000656761746500DBFC00F045F440F00100F0
:10F9E00060F11FF420F005FF636D6F766500E6FCA3
:10F9F000F9FCBF93AF93E991F991A991B991092FBE
:10FA0000082B21F01D9111930197E1F7AF91BF9160
:10FA1000899199910C9404F005FF3273776170001D
:10FA2000F3FC00F0EDF00BF1EDF002F120F003FF3C
:10FA3000746962000CFD4EF04D020AFF7265666942
:10FA40006C6C2D74696217FD00F01BFD40F05A00CC
:10FA5000ACF89EF58DF060F198F58DF057F120F03F
:10FA60000AFF736F757263652D7469621DFD00F086
:10FA70001BFD9EF585F020F006FF65653E72616D09
:10FA800030FD00F060F19BF2DBF05FF3DBF08DF016
:10FA900078F5D0F078F5D0F0C9F244FD88F520F083
:10FAA00009FF696E69742D75736572003CFD00F085
:10FAB00040F0A80002F340F01C0010F241FD20F0DD
:10FAC00006FF626F756E647350FD00F0DBF0A9F104
:10FAD000D0F020F003FF733E640060FD00F0BDF045
:10FAE0002DF120F00800326C69746572616C6AFD5A
:10FAF00000F0D0F0D50140F0E001D50140F0E00188
:10FB000020F001FF3D0072FD00F09FF126F120F092
:10FB100001FF310081FD4EF0010001FF320088FD40
:0EFB20004EF0020002FF2D318DFD4EF0FFFF72
:00000001FF
