:020000040000FA
:060000000201070228C105
:03002B00022CDFC5
:03003B00022D058E
:03004300022CB9D3
:0300530002293748
:10008300022717E5C754F84401F5C7790122000098
:100093000080FB120086B900030200F1E4792178A5
:1000A30008B800028004F709D8FCE479297802B87B
:1000B30000028004F709D8FCE49002817803791ADE
:1000C3008002F0A3D8FCD9FA7A837B1B900137789E
:1000D3003179028015E493A3AD82AE838A828B8348
:1000E300F0A3AA82AB838D828E83D8E9D9E7758288
:1000F300497583EB74041201197582917583007439
:100103000012011975D00075813F751881751902A8
:10011300759F00020096C09FF59FE473D09F22D085
:1001230083D082C09FE493C0E0740193C0E0740263
:1001330093F59F22590465049B049504FF0000B4C2
:10014300000028002800283075A000A000A000A00F
:100153000000080008E001F000100010001000107B
:10016300001000100050005000500010001000D08C
:10017300070000000000000F0001000500307507B4
:10018300001000010081FF00000000FFFFFFF705E2
:100193001506FD055706FF02020208025000A000E3
:1001A3000000E803025091010000439102589101BD
:1001B3000000E61B025691010000C802025891019B
:1001C3000000E71B024A91010000DE020258910180
:1001D3000000E81B029290010000E0020258910126
:1001E3000000E91B02AE90080000E10202589101F1
:1001F3000000EA1B024691010000EB1BFFFF010018
:10020300FF2002509101000040910258910100002B
:10021300501C0248910000000000025A91030000A4
:1002230011031700611161116111611161116111F4
:100233006111611161116111611161116111E313A7
:100243000114DD13271539152115544920424C4556
:1002530020416C6C00000000000000000000001151
:1002630000FFFF0012012283CB0412012296CB046C
:10027300120122F0CB0412012211CC041201227CC0
:10028300CC04120122BDCC04120122DECC041201E3
:1002930022FFCC041201224FCD0412012290CD047F
:1002A30012012228CE0412012270CE041201229BD5
:1002B300CE04120122C9C004120122DCC0041201BF
:1002C300220DC10412012247C104120122A0C1045C
:1002D300120122E7C1041201222FC2041201225E7D
:1002E300C2041201228DC204120122C4C2041201EB
:1002F300220BC30412012224C30412012279C30472
:1003030012012292C304120122E0C3041201221A31
:10031300C4041201226FB20312012272B303120149
:10032300229FB303120122E4B303120122F0B303A9
:1003330012012213B40312012215B4031201224A3B
:10034300B4031201224DB4031201228BB403120130
:1003530022C1B40312012258B503120122C4B5030A
:100363001201228CB603120122A8B603120122DF66
:10037300B60312012219B703120122B0B703120107
:100383002202B80312012233B80312012236B80342
:1003930012012267B80312012274B8031201228CDE
:1003A300B803120122F6B803120122F9B8031201AD
:1003B3002206B90312012209B90312012260B9030B
:1003C30012012263B90312012286B9031201229991
:1003D300B903120122D2B903120122D5B9031201C2
:1003E30022EAB903120122EDB9031201224FBA0323
:1003F30012012252BA03120122A6BA03120122A940
:10040300BA031201223CBB031201224CBB031201AB
:10041300227FBB031201228CBB031201228FBB0379
:10042300120122F7BB0312012204BC0312012206AC
:10043300BD03120122AABD0312012213BE0312013E
:100443002251BE031201221FE80312012217E903FE
:100453001201224BE903120122E1E9031201222CCA
:10046300EA0312012290EA031201221AEB0312019A
:1004730022D3EB03120122F5EE0312012272F003E1
:1004830012012295F0031201226EB4041201221309
:10049300B60412012233B60412012254B704120126
:1004A30022A7B704120122378D041201225F8D04A3
:1004B3001201228C8D04120122C48D041201222206
:1004C3008E04120122808F04120122CC8F041201A8
:1004D30022339004120122739004120122B090047B
:1004E300120122DE90041201228891041201229249
:1004F30091041201229F9104120122D2910412014C
:1005030022DE9104120122F69104120122009204C8
:10051300120122FCE8041201220AE9041201222238
:10052300E9041201223AE90412012251E9041201F9
:100533002275A8021201221FA90212012232AA0265
:10054300120122AEAA02120122CCAB02120122082E
:10055300AC021201229DAC0212012238AD0212013B
:10056300221CAE02120122DFAE0212012257AF0299
:10057300120122E5B00212012256B1021201221029
:10058300B20212012202B30212012242B302120189
:1005930022F6B30212012228B4021201221EB6026D
:1005A30012012265B60212012283B602120122E968
:1005B300B602120122B8B7021201227CB80212015C
:1005C300229BBA02120122A5BA0212012287C90391
:1005D30012012271CA031201221CCB0312012266EB
:1005E300CB0312012203CC031201221CCC03120100
:1005F3002236CC03120122E6CC0312012257CD038B
:100603001201223CCE0312012270CE031201226991
:10061300CF03120122A6CF0312012267D0031201D6
:1006230022CBD00312012235D10312012267D10359
:10063300120122CFD10312012259D30312012298AE
:10064300D303120122B4D303120122D5DE04120113
:100653002259DF0412012284DF041201229EE004E6
:10066300120122D7BC04120122EDBC041201220B99
:10067300BD041201221CBE0412012226BE04120173
:100683002251BF0412012248C004120122B5C00442
:10069300120122BFC0041201228E9204120122BE53
:1006A3009304120122F593041201223F94041201D0
:1006B3002202960412012231DC01120122E2DC0142
:1006C300120122F2DC011201224EDD01120122E4A9
:1006D300DD01120122A5DE01120122DADE0112017F
:1006E300220FDF0112012226DF011201229FDF0107
:1006F300120122A9DF01120122BBDF01120122EF45
:10070300DF011201224CE0011201229FE0011201DC
:1007130022F4E001120122FFE0011201220AE101A9
:1007230012012225E20112012228E2011201222BE9
:10073300E2011201222EE20112012231E201120131
:100743002207E301120122E4E30112012241E40141
:100753001201229EE40112012219E501120122274E
:10076300E601120122DEE601120122ECE901120187
:1007730022DBEB011201228DEC0112012256ED0165
:100783001201229BF00112012245F1011201226E96
:10079300F2011201222AF401120122CAF401120108
:1007A300221DF5011201225CF5011201222FF6012F
:1007B30012012263F601120122F0F601120122AFA7
:1007C300BA021201223BBB021201229FBC02120198
:1007D30022ABBC02120122E6BC021201225DBD0261
:1007E30012012266BE021201222DBF021201228AC9
:1007F300C002120122A8C002120122C5C0021201C6
:100803002272C102120122EFC10212012217C20297
:10081300120122E1C402120122E6C402120122FFE4
:10082300C6021201224DC702120122BDC7021201E4
:1008330022FBC702120122D7C80212012297C90262
:10084300120122E3C902120122E6C9021201222A7D
:10085300CA0212012272CA02120122B1CA02120191
:1008630022D3CA0212012207CB021201226ACB024F
:100873001201220FA20412012218A204120122263D
:10088300A20412012279A20412012298A2041201E5
:1008930022DDA20412012221A404120122BCA40419
:1008A30012012200A5041201222AA5041201229991
:1008B300A504120122DFA50412012256A604120187
:1008C3002207A70412012249600012012259600085
:1008D300120122FA60001201225661001201221352
:1008E30062001201222F63001201226163001201D0
:1008F300229063001201223D6500120122B46700B9
:10090300120122246A00120122166B001201220F27
:100913006C00120122166E001201220A71001201EC
:10092300223972001201223D74001201224D75001A
:10093300120122DC7600120122CD77001201221B64
:1009430078001201228A7800120122AE7800120187
:1009530022FF7800120122A07D00120122AF7E0047
:10096300120122757F0012012242CC021201224C95
:10097300CC0212012291CC02120122A5CC02120157
:1009830022DDCC0212012226CD0212012267CD0202
:10099300120122AACD02120122D4CD021201225D3C
:1009A300CE0212012208CF0212012237CF02120116
:1009B3002270CF02120122ABCF02120122E0CF023A
:1009C3001201220AD00212012233D0021201228123
:1009D300D00212012296D002120122ABD0021201E0
:1009E30022C0D002120122E8D0021201222BD1022E
:1009F30012012240D102120122ABD102120122BF05
:100A0300D102120122DED102120122F2D10212011D
:100A13002207D2021201221CD20212012230D20278
:100A230012012274D202120122CAD202120122043A
:100A3300D30212012228D30212012254D30212013B
:100A43002282D302120122ACD302120122C1D302A9
:100A5300120122D6D30212012206D402120122501D
:100A6300D402120122B2D402120122EDD4021201E5
:100A73002218D50212012243D502120122AED50259
:100A8300120122EBD50212012216D60212012246CE
:100A9300D6021201227DD602120122A7D60212012A
:100AA30022DFD60212012209D70212012246D702FF
:100AB30012012270D702120122A0D702120122CA08
:100AC300D702120122F4D7021201221FD802120107
:100AD3002248D80212012299D802120122DFD80239
:100AE3001201220AD9021201226AD90212012295A5
:100AF300D902120122C5D90212012208DA02120117
:100B03002232DA0212012257DA02120122DEDA025B
:100B1300120122FAEB04120122EEE504120122373C
:100B23008D031201221A8E03120122958E031201E4
:100B330022D08E03120122219003120122AA9003D4
:100B4300120122C2920312012254950312012206BA
:100B530096031201221297031201228598031201B0
:100B630022DE9803120122879903120122D19704EE
:100B73001201221498041201229898041201226B84
:100B83009904120122429C04120122B0AB04120107
:100B9300225DAC0412012291AC04120122A7AC0421
:100BA3001201229AAD04120122ECAD041201222398
:100BB300AE0412012262AE04120122BCAE04120181
:100BC30022E9AE0412012225AF0412012277AF04F9
:100BD300120122B8AF04120122E9AF04120122B6B6
:100BE300DA0412012219DB04120122B6DB0412011A
:100BF30022D7DB0412012219DC0412012249DC048E
:100C03001201226ADC04120122A5DC04120122C5AE
:100C1300DC0412012231FB03120122BDFB0312018A
:100C2300227CFC0312012294FD03120122AEFF0376
:100C330012012238A6031201225DA6031201222A01
:100C4300A703120122FEA7031201226BA8031201BC
:100C530022C1A8031201225DA90312012291AA0352
:100C63001201226CAB03120122CBAB0312012257F8
:100C7300AC03120122C5AC0312012251AD031201D0
:100C83002254AD0312012270AD0312012273AD038E
:100C930012012295AD0312012234AE03120122A6E2
:100CA300AE0312012238AF03120122D9AF0312019E
:100CB30022F9AF0312012241B0031201228AB003C9
:100CC300120122A6B003120122CCB0031201224664
:100CD300B10312012254B103120122E3B103120141
:100CE300224CB20312012222B004120122A7B00443
:100CF300120122E9B004120122CDB1041201223AF9
:100D0300B2041201227EB204120122C2B204120101
:100D130022EFB20412012217B3041201224FB304CB
:100D23001201228DB304120122B4B3041201222E44
:100D3300B4041201225D91011201225693011201A2
:100D430022429601120122969601120122C19601B6
:100D53001201229B9701120122DA9701120122212B
:100D6300980112012234980112012275980112018F
:100D730022B79801120122C69801120122F39801A9
:100D83001201224199011201227A9901120122D9F9
:100D93009901120122F99901120122329A011201D9
:100DA30022559A01120122EB9A01120122239B017F
:100DB300120122809B01120122D39B0112012262A4
:100DC3009C01120122389F0112012265A001120128
:100DD30022D2A0011201224AA10112012265A3011C
:100DE300120122A3A30112012213A5011201224021
:100DF300A50112012285A50112012279A601120182
:100E0300225DA801120122BFA80112012210A9012B
:100E13001201222BAE011201227AAE01120122C06D
:100E2300AE0112012292B0011201228DB101120111
:100E3300222EB30112012264B30112012266B3010F
:100E430012012268B3011201226DB3011201226F54
:100E5300B3011201221AB401120122F4B4011201E6
:100E6300221CB50112012247B50112012272B501FC
:100E7300120122A7B501120122CCB501120122EB06
:100E8300B50112012218B6011201228EB601120118
:100E9300220DB70112012255B70112012277B701C2
:100EA30012012295B80112012259B9011201228AB5
:100EB300B901120122E9B9011201220EBA0112018C
:100EC30022FABA0112012217BB01120122BEBB0191
:100ED3001201224EBC0112012283BC01120122CA5B
:100EE300BC0112012203BD0112012225BD01120121
:100EF3002252BD0112012282BE0112012294BE01BF
:100F03001201226BD504120122DDD5041201223312
:100F1300D60412012277D60412012297D6041201B5
:100F230022E4D6041201222CD7041201227FD70413
:100F3300120122D0D7041201226DDE03120122EC2A
:100F4300DE03120122E5E403120122EBE5031201A1
:100F5300225EE703120122F5E703120122B7BE0165
:100F630012012200BF011201222DBF011201225FD3
:100F7300BF011201226BBF0112012277BF011201CF
:100F8300228EBF0112012269C001120122C7C001D2
:100F9300120122FCC00112012230C101120122619F
:100FA300C201120122AEC201120122F4C2011201D6
:100FB3002260C30112012204C401120122BAC40136
:100FC30012012219C5011201228AC501120122E868
:100FD300C5011201221AC70112012282C80112019E
:100FE300224CC90112012259C9011201229BC901D4
:100FF300120122ABC901120122CFC901120122D26F
:10100300C901120122BECA011201225ACB011201E7
:1010130022F3CB011201228ACC01120122B7CC01A7
:1010230012012215CD011201225CCD01120122AC65
:10103300CD01120122FCCD011201226ECE0112015B
:101043002217CF01120122C2CF0112012261D00166
:10105300120122DFD00112012226D1011201228ABC
:10106300D101120122B9D10112012247D201120189
:101073002298D201120122A5D401120122E9D4013E
:1010830012012234D501120122BAD50112012244E0
:10109300D6011201225DD701120122E3D701120109
:1010A3002208D8011201225FD80112012274D8014B
:1010B300120122BCD8011201222FD901120122747C
:1010C300D9011201227DDA011201222EDB01120164
:1010D300228CDB01120122E8DB0112012201DC0177
:1010E300120122B8F1031201220CF2031201221899
:1010F300F203120122E2F2031201220FF30312019F
:10110300223DF303120122A9F303120122DFF303A9
:101113001201220FF40312012248F4031201226088
:10112300F403120122B5F403120122CEF4031201D7
:101133002213F50312012226F50312012240F503BF
:1011430012012256F50312012274F6031201229FA3
:10115300F70312012289F80312012278F90312011D
:1011630022EAFF02120122F49C0412012277A00456
:10117300120122C4A104120122BF99031201228F7A
:101183009C03120122959C03120122259F03120145
:101193002288A10312012219A704120122B0A70475
:1011A3001201226EA80412012298A80412012272CD
:1011B300AA0412012277AB04120122008002120159
:1011C300223280021201224F8C02120122A08D02D0
:1011D300120122A98E021201222890021201220179
:1011E30091021201225091021201226A910212010C
:1011F30022AC9102120122B7910212012200920243
:10120300120122099202120122B592021201228EC8
:101213009302120122D593021201223D940212017C
:10122300227F9402120122AD9402120122E8940259
:101233001201221C96021201229F9902120122A579
:101243009902120122FA9F0212012244A4021201FE
:10125300222AA8021201221EC80412012294C804E1
:10126300120122AAC8041201223AC90412012277E8
:10127300C904120122B1C904120122EBC9041201EB
:10128300225ECA041201229FCA04120122A8CA04C0
:10129300120122B4CA04120122D3CA04120122FD8C
:1012A300CA0412012212CB0412012255CB041201EB
:1012B30022E6F701120122F9F70112012213F801C4
:1012C30012012240F80112012286F801120122B90B
:1012D300F801120122F7F8011201225CF90112014F
:1012E3002271F9011201227CF90112012289F9010B
:1012F300120122A0F901120122AEF901120122BD4D
:10130300F901120122D2F901120122E7F9011201B6
:1013130022F2F901120122FEF9011201220BFA0154
:101323001201221EFA0112012229FA011201224E90
:10133300FA0112012253FA01120122EAFA011201FF
:101343002252FB0112012262FB0112012277FB01EF
:101353001201228CFB01120122A6FB01120122C3FE
:10136300FB01120122E0FB01120122EBFB0112013E
:101373002297FC0112012278FD0112012294FD0142
:10138300120122ABFD01120122B6FD01120122CB93
:10139300FD01120122DFFD0112012240FE011201B3
:1013A3002246FE011201224CFE0112012252FE01CD
:1013B30012012266FE011201228DFE01120122C8D2
:1013C300FE01120122E1FE0112012223FF0112019B
:1013D3002256FF0112012215D40312012237D4032E
:1013E300120122FFD403120122B9D703120122CF23
:1013F300D803120122F0D903120122CADA0312011F
:101403002279DB03120122A2E90212012239EA0244
:10141300120122D1EA02120122C1EB02120122F8C7
:10142300EB021201220BEC0212012279EC021201EF
:101433002214EE021201223BEE02120122DDEE0221
:1014430012012212EF0212012223EF021201229C47
:10145300EF02120122BDEF02120122D5EF021201A7
:10146300222DF10212012236F30212012286F50225
:1014730012012289F602120122D8F6021201220673
:10148300DB0212012203DC02120122EEDC02120152
:1014930022F8DC0212012202DD0212012224DD0203
:1014A30012012230DD0212012282DE02120122B178
:1014B300DE02120122E1DF0212012223E002120105
:1014C300224FE10212012225E20212012277E202F7
:1014D300120122D6E2021201220DE3021201224876
:1014E300E302120122E3E602120122FCE6021201E8
:1014F300227EE7021201228CE702120122E1E702B7
:10150300120122EFE7021201225CE802120122CE4D
:10151300E80212012214E90212012277BE0312012A
:101523002299BE0312012283C00312012228C4039D
:101533001201226BC50312012245C6031201229A2E
:10154300E204120122BFE20412012230E304120179
:101553002225F7021201222EF70212012237F70287
:1015630012012268F80212012287FA02120122BD37
:10157300FA02120122F7FA021201222DFB021201D2
:101583002267FB021201229BFB02120122C7FB020C
:1015930012012210FC021201224AFC0212012292C1
:1015A300FC02120122E8FC021201221DFD021201BB
:1015B3002278FD02120122B2FD0212012203FE0271
:1015C30012012239FE0212012273FE02120122A12C
:1015D300FE02120122C4FE02120122008003120144
:1015E30022338003120122768003120122818003B9
:1015F3001201228C8003120122978003120122A27E
:1016030080031201220C8403120122EB84031201D2
:1016130022648503120122DB8503120122E885037C
:10162300120122F58503120122FF8503120122090B
:10163300860312012213860312012220860312015C
:10164300223086031201227686031201229A860330
:10165300120122A78603120122B78603120122C1B7
:101663008603120122CB8603120122D586031201BF
:1016730022E28603120122EC8603120122F686037C
:101683001201220087031201220A87031201225248
:1016930087031201226F87031201228C8703120131
:1016A300229C8703120122A68703120122018803C9
:1016B3001201220E8803120122D08803120122DABA
:1016C3008803120122E48803120122EE8803120127
:1016D300220B89031201222889031201229F890305
:1016E300120122A98903120122B68903120122C31E
:1016F3008903120122E48903120122ED89031201F5
:1017030022328A03120122408A03120122628A03CF
:101713001201226B8A031201227A8A031201229296
:101723008A031201229B8A03120122298B031201CD
:1017330022418B03120122518B03120122618B037D
:101743001201226B8B031201227B8B031201228B6A
:101753008B03120122AA8B03120122B78B031201FE
:1017630022C48B03120122D48B03120122E18B03C7
:10177300120122FE8B031201220E8C031201221E80
:101783008C031201222E8C031201225F8C0312019F
:1017930022698C03120122798C03120122898C03A2
:1017A300120122968C03120122BB8C03120122C860
:1017B3008C03120122D88C03120122E28C03120142
:1017C30022EF8C03120122F98C03120122098D03EB
:1017D300120122138D031201221D8D031201222DEA
:1017E3008D031201225BEA04120122CDE0041201EF
:1017F3002231E104120122E0E104120122FFE1049B
:1018030012012253E204120122EBFF011201224EC4
:10181300EC041201228DEC04120122D8FF01120103
:1018230022E1E904120122F1E90412012209EA0486
:1018330012012252EA0412012202E7041201228653
:10184300E704120122ECE704120122FCFF0112015A
:101853002211D80412012226D8041201222AD90403
:101863001201229ED904120122B8D904120122CFF7
:10187300D904120122E2D904120122FAD904120175
:10188300220FDA0412012230DA0412012281DA046F
:1018930012012282C40412012299C40412012212E9
:1018A300C504120122E7C504120122B9C7041201BB
:1018B300223FD204120122CFD2041201224DD304BB
:1018C300120122CDD3041201225FD404120122B1EA
:1018D300D404120122BBD404120122CAD40412017B
:1018E30022E0D404120122F3D40412012254D504B9
:1018F30012012268D504120122782D001201220E52
:101903002E00120122C92E00120122E92E0012011B
:1019130022243000120122773100120122273200E3
:101923001201222F3C001201222744001201226BD4
:101933004D00120122D54E001201227659001201E8
:1019430022155A001201227B5B00120122ED5E0078
:10195300120122AB5F00120122E65F001201220294
:101963006000120122A2EB0412012252FF021201B3
:1019730022BDFF02120122C8FF02120122D8FF0278
:10198300120122E3FF0212012297EC04120122C08A
:10199300EC041201228887041201229287041201A7
:1019A30022D287041201221B8804120122558804C3
:1019B300120122AB8804120122CA8804120122D325
:1019C30088041201222489041201224D8904120180
:1019D300226289041201226B8904120122DB890429
:1019E300120122698A04120122AD8A04120122D54E
:1019F3008A04120122548B04120122978B041201D0
:101A030022D48B04120122F38B04120122FC8B04D7
:101A1300120122C18C041201220B8D0412012250E7
:101A2300E404120122A1E4041201222AE5041201B2
:101A33002290E504120122E4CE041201220ECF0407
:101A430012012208D0041201222DD004120122CE49
:101A5300D00412012254D10412012205E804120118
:101A630022A5EB04120122D3DC0412012209DD04B6
:101A730012012242DD041201229BDE04120122D351
:101A8300EA04120122E9EA04120122F3EA04120130
:101A930022008004120122BD8004120122F8800476
:101AA300120122208104120122828104120122CE1A
:101AB30081041201222E8204120122BF8204120128
:101AC30022BB8304120122488504120122CB850420
:101AD3001201222F86041201224686041201223C9F
:101AE3008704120122B4B804120122C9B8041201F6
:101AF300227CB904120122BCB904120122D5B90413
:101B030012012208BA0412012255BA0412012289D1
:101B1300BA04120122CBBA04120122CABC04120174
:101B230022C3EC04120122E17F00E066701008A3D7
:101B3300E066700A08A3E066700408A3E06622C3A7
:101B4300E7960809E7960809E7960809E79622C386
:101B5300E09608A3E09608A3E09608A3E09622C0C7
:101B630008C3E096F50808A3E096420808A3E096A8
:101B7300420808A3E09645087001D3D0082208085C
:101B830008EAC0E0EBC0E086F0E7A4FA180986F0A3
:101B9300E7A42AFA180986F0E7A42AFA180986F0B6
:101BA300E7A42AFA1986F0E7A4FBE5F02AFA190854
:101BB30086F0E7A42BFBE5F03AFA190886F0E7A4D0
:101BC3002BFBE5F03AFA18180986F0E7A4C5F02BC9
:101BD300FBE43AFA1908E7C5F0C6A426F6E5F03B9C
:101BE300FBE43AFA1886F0E7A4F6E5F00826F6E4F3
:101BF3003B08F6E43A08F6D0E0FBD0E0FA22E4CF63
:101C0300C0E0E4CEC0E0E4CDC0E0E4CCC0E075F0D9
:101C130020E626F608E633F608E633F608E633F65A
:101C2300181818EC33FCED33FDEE33FEEF33FFC32E
:101C3300EC9709ED9709EE9709EF97191919400FDA
:101C4300FFEC97FC09ED97FD09EE97FE191906D5F0
:101C5300F0BFECF709EDF709EEF709EFF7191919DA
:101C6300D0E0FCD0E0FDD0E0FED0E0FF226016081B
:101C73000808C6C313C618C613C618C613C618C6A3
:101C830013C6D5E0EA22700908080822601618185E
:101C930018C6C333C608C633C608C633C608C63318
:101CA300C6D5E0EA22E627F60809E637F60809E68C
:101CB30037F60809E637F622E026F608A3E036F6FB
:101CC30008A3E036F608A3E036F622E026F008A3E0
:101CD300E036F008A3E036F008A3E036F022C3E6CE
:101CE30097F60809E697F60809E697F60809E697CE
:101CF300F622C3E096F008A3E096F008A3E096F07E
:101D030008A3E096F022E657F60809E657F6080915
:101D1300E657F60809E657F622E056F608A3E0561A
:101D2300F608A3E056F608A3E056F622E056F008BC
:101D3300A3E056F008A3E056F008A3E056F022E033
:101D430046F608A3E046F608A3E046F608A3E046F5
:101D5300F622E066F608A3E066F608A3E066F60856
:101D6300A3E066F622E0F608A3E0F608A3E0F6088F
:101D7300A3E0F622E6F008A3E6F008A3E6F008A342
:101D8300E6F022E0FAA3E0FBA3E0FCA3E0FD22EAF5
:101D9300F0A3EBF0A3ECF0A3EDF022E0F8A3E0F95D
:101DA300A3E0FAA3E0FB22E8F0A3E9F0A3EAF0A39F
:101DB300EBF022CAC0E0E6F0A308DAFAD0E0FA2298
:101DC300CAC0E0E0A3C582CCC582C583CDC583F07C
:101DD300A3C582CCC582C583CDC583DAE6D0E0CA6C
:101DE30022C3E498F8E499F9121E258026C3E49AE5
:101DF300FAE49BFBE920E7E9121E25E498F8E4994D
:101E0300F922C3E498F8E499F9121E25E498F8E45A
:101E130099F9C3E49AFAE49BFB22EB20E7CFE9208C
:101E2300E7E0B90010BB0008E88AF084F8AAF022C2
:101E3300E4FBC8FA22EB70227B10C833C8C933C94C
:101E4300335007C39AC3DBF280069A50012ADBEAB8
:101E5300C833F4C8C933F4C9FA2275F008E4C833A7
:101E6300C8C933C933C99AC99B5004C92AC93BD5C8
:101E7300F0ECFBC833F4C8E4C9FA22600D08C6A22B
:101E8300E713C618C613C6D5E0F322600C08C6C311
:101E930013C618C613C6D5E0F422700422600D18C9
:101EA300C6C333C608C633C6D5E0F41822251810B6
:101EB300AF08F518400C15198008F51840021519DC
:101EC300D2AF2200C0D0251810AF08F518500C056A
:101ED300198008F51850020519D2AFD0D022251861
:101EE300F58210AF08F518400C15198008F5184055
:101EF300021519D2AF851983222518F582E4351905
:101F0300F583222518F8E43519F9222518FAE43562
:101F130019FB222518FCE43519FD22E4732518C5A5
:101F230082C0E0E51934FFC583C0E0E518C395829C
:101F330024F810AF088583198582188008858319D2
:101F4300858218D2AFCEF0A3E520F0A37808E60887
:101F5300F0A3DEFAEFF0A3E58124FAF8E608F0A394
:101F6300E608F0A3E608F0A30808E608F0A3E608ED
:101F7300F0A315811581D0E0FED0E0F8158115811D
:101F83001581E8C0E0EEC0E0222518C582C0E0E577
:101F93001934FFC583C0E0E518C3958224F910AF57
:101FA300088583198582188008858319858218D24C
:101FB300AFCEF0A3E520F0A37808E608F0A3DEFA9D
:101FC300EFF0A3E58124FBF8E608F0A3E608F0A30D
:101FD3000808E608F0A3E608F0A315811581D0E010
:101FE300FED0E0F815811581E8C0E0EEC0E022855F
:101FF3001983851882E0A3FEE0A3F5207808E0A307
:10200300F608DFFAE0A3FFE0A3C0E0E0A3C0E0E04E
:10201300A3C0E0E0A3C0E0E0A3C0E010AF08858266
:10202300188583198008858218858319D2AFD083D8
:10203300D08202011F851983851882E0A3FEE0A3E5
:10204300F5207808E0A3F608DFFAE0A3FFE0A3C0D9
:10205300E0E0A3C0E0E0A3C0E0E0A3C0E010AF086D
:102063008582188583198008858218858319D2AFE4
:10207300D083D08222C0D02518C582C0E0E51934B0
:10208300FFC583C0E0E518C3958224F310AF08852C
:1020930083198582188008858319858218D2AFC871
:1020A300F0A3E9F0A3EAF0A3EBF0A37908E709F0C2
:1020B300A3D8FAECF0A3EDF0A3EEF0A3EFF0A3D0D6
:1020C300E0F0A3D0E0F0A3D0E0F0A3E520F0A3E597
:1020D300F0F0A322851983851882E0C0E0A3E0F91C
:1020E300A3E0FAA3E0FBA37808E0F608A3DFFAE095
:1020F300FCA3E0FDA3E0FEA3E0FFA3E0C0E0A3E0B8
:10210300C0E0A3E0F5D0A3E0F520A3E0A3F5F01031
:10211300AF088583198582188008858319858218FD
:10212300D2AFD082D083D0E0F8D0E03274048006FE
:10213300740280027401C0E0F404121EE1D0E012C4
:102143001DB6227404800474028000CCC0E0EDC08C
:10215300E0E518C39CCCAD1950011D10AF068C18D7
:102163008D1980068C188D19D2AF121DC3D0E0FDD6
:10217300D0E0FC22D083D082C5F0E493A3C5F0C3A2
:1021830095F0F5F0E493A3C395F04005E5F00480E2
:1021930001E475F002A42582F582E5F03583F58329
:1021A300E493A3C0E0E493C0E022D083D082E9C0EB
:1021B300E0E493A3C386F0C5F095F0F908E493A394
:1021C30086F0C5F095F0700BE493A3C3994005E93D
:1021D300048002A3E475F002A42582F582E5F035BC
:1021E30083F583D0E0F9E493A3C0E0E493C0E02255
:1021F300D083D082CCC0E0E493A3600612221D14E6
:1022030070FAE493A3600612223C1470FAD0E0FC47
:10221300E493A3C0E0E493C0E022C0E0E493A3D33B
:102223009C5010E493A3C39C400AD0E0D0E0D0E0DC
:10223300022210A3A3A3D0E022C0E0E493A36C7016
:1022430009D0E0D0E0D0E0022210A3A3D0E022D056
:1022530083D082ECC0E0EDC0E0E493A3FCE493A35D
:10226300FDED4C600D12229EEC24FFFCED34FFFDCE
:1022730080EFE493A3FCE493A3FDED4C600D1222E5
:10228300DDEC24FFFCED34FFFD80EFD0E0FDD0E07A
:10229300FCE493A3C0E0E493C0E022C0E0C3E49372
:1022A30096087401939618400FE4936670080874B7
:1022B3000193661870007019A3A3C3E4939608747E
:1022C30001939618A3A3400DD0E0D0E0D0E0022202
:1022D3008EA3A3A3A3A3A3D0E022C0E0C0F088F001
:1022E300E4936670080874019366187000A8F0A35D
:1022F300A3700BD0F0D0E0D0E0D0E002228EA3A3F5
:10230300D0F0D0E02274F6121F8CEAFEEBFF8C08AB
:102313008D09EE2434F8E43FF9E8FCE9FD12243B8F
:10232300E0FAEE2437F582E43FF583E0F88508F020
:10233300A4C885F00A8509F0A4250AF9EA28F8E477
:1023430039F97A257B00121E25EA8C828D83F0FAF7
:10235300131313541FF8EE28F8E43FF9E8245DF54E
:1023630082E439F583E0C0E074075AF8D0E0B8009E
:10237300028004C313D8FCA2E05003EA8020EE24B9
:1023830036F582E43FF583E0F5F0EA84A8F0EE2821
:10239300F8E43FF9E82438F582E439F583E0F97F7E
:1023A3000302203874F5121F8CEAFEEBFFEE24348F
:1023B300F582E43FF583E0C0E012243BD0E0F08EE9
:1023C300828F83A3A3A3A3A3E0FAA3E0FB8E828F50
:1023D30083A3A3A3A3A3A3A3E0FCA3E0FDECC39A5D
:1023E300F50AED9BF50BEE247FF508E43FF509852F
:1023F3000882F583E06401702AEE2480F582E43FCD
:10240300F58312214A1224457402121EC6E9601391
:102413007CD57D06EEFAEFFB1210658508828509EF
:1024230083E4F0AC0AAD0BEEFAEFFB122308E9F9F3
:10243300122CAB7F04022038EE2435F582E43FF5FD
:102443008322C082C083851882851983E0F8A3E0C4
:10245300F9C3EA9CEB9D5010C3EC98ED99401BC364
:10246300EA98EB995014800EC3EA98EB994007C39E
:10247300EC98ED994004790180027900D083D082F1
:1024830022EAC39CFAEB9DFB2274ED121F8C90038E
:1024930081E064086005E06407702C9061C8E06027
:1024A300269003AFE0F874FF68601CE875F00CA495
:1024B300C8AAF02AF974B128FE740339FF8E828FFB
:1024C30083A3A3A3E07005790002262EEE2468F50A
:1024D3000EE43FF50F906060E0850E82850F83F078
:1024E30075106F751107750800750900E5D914F5A6
:1024F3000AE5D95403F50B601FEE2482F50CE43F83
:10250300F50D7403650B6059E50A6017EE2467F552
:1025130082E43FF583E0700B793DEEFAEFFB121096
:102523009B80A490076AE064016023850C82850D7B
:1025330083E060047A0480027A00E50AC39AFA957C
:10254300E0FB120D478A088B09EA4509700612134E
:10255300A10224CA850C82850D83E070048A108B46
:10256300117A008014E5D9C0E0EAF8E51028F58275
:10257300E43511F583D0E0F00AEAC3950A40E68515
:102583000C82850D83E0602874FC250AF50A781017
:10259300122133AC0AA90BEEFAEFFB12115B7402A2
:1025A300121EC6E9700AAA08AB09121A2502251BD6
:1025B3007403650B6054850A0C750D00780C1221A9
:1025C30033AC10AD11AA08AB0912111F7402121E0D
:1025D300C6850E82850F83E0F87480687005750CDC
:1025E3007F8002880CE50CF50D780D122137780BEE
:1025F300122137A90AAC08AD099003AFE0FA7B00BA
:10260300120B197402121EC6801C900381E0640829
:10261300AC10AD117009EEFAEFFB12118B8007EECF
:10262300FAEFFB1212451213AD79017F0C02203829
:1026330074F3121F8C74FC121EB0EAFEEBFF8909BF
:10264300A2AFE433F508C2AFEE2463F50AE43FF525
:102653000B8010AA0AAB0B1210D1121A259006DCBC
:10266300E004F0850A82850B83E0F8A3E0F9E849EA
:10267300602DE82402FAE439FBEA2402F50CE43B7A
:10268300F50D780C1221338A828B83E0FCA3E0F9E9
:10269300EEFAEFFB1210C57402121EC6E960B49085
:1026A30006DCE0604D9006DDE0F89006DCE0C398C0
:1026B300500C74026509703A9006DEE060348E8235
:1026C3008F83A3A3A3A3E08518828519831227050B
:1026D3007402121EFCE81227059006DBE028F07452
:1026E30002121F16AA18AB197901120B7F9006DC90
:1026F300E4F0E508A2E092AF7404121EC67F06025E
:102703002038F0A3E4F09006DCE0F822008521876E
:102713008522C622C0E074EB122078A2AFE433F521
:1027230008C2AF759B00906182E0A2E05030E59152
:10273300A2E0502A7591FE7401652170211228AA26
:1027430012129F122898122146122A557404121E3F
:10275300C6E96401700579011212ED12248C9061AF
:1027630082E0A2E5505DE591A2E550577591DF90B7
:102773000381E064076005E06408702F1228AA74DF
:10278300016521703E12129F122898122146122AC7
:10279300557404121EC6E96401700579011212ED25
:1027A3007901EEFAEFFB1226338018E0640D701303
:1027B3009003A3E004F064287002E4F07A00E0F9E7
:1027C3001213CB906182E0A2E6400302286DE591EB
:1027D300A2E6400302286D7591BF900381E0640572
:1027E3007008121287121293800312128D75210042
:1027F30012130BE9900382F079001212ED120F818C
:102803007A017B00900380E0F91219F5907803E0D8
:102813006442705690076EE014F0704EC2AF1228F7
:102823002400782AD0E0F618D0E0F6E59F5407F8A4
:102833007005750DFF8003750D7FC4C0E07829E630
:10284300F50A08E6550DF50B740B780A121E8ED0A7
:10285300E0250AF8906270E0A2E740F8E8C33390FD
:102863006272F0906270E0D2E0F0906181E0A2E3E6
:102873005009E5E9A2E3500375E9F7A3E0A2E750A5
:1028830009E591A2E7500375917FE508A2E092AFB5
:102893007F080220D78E828F83E0F8A3E0C8241636
:1028A300F582E438F583229003AFE0F875F00CA4C9
:1028B300C8AAF02AF974B128FE740339FF22C0E0D4
:1028C300C0D0C082C083906183E0A2E05009E5BF1D
:1028D300A2E0500375BFFEE0A2E15009E5BFA2E10B
:1028E300500375BFFDE0A2E25009E5BFA2E2500329
:1028F30075BFFBE0A2E35009E5BFA2E3500375BF38
:10290300F7E0A2E45009E5BFA2E4500375BFEFE08E
:10291300A2E55009E5BFA2E5500375BFDFE0A2E6DB
:102923005009E5BFA2E6500375BFBFD083D082D064
:10293300D0D0E032C0E074F2122078E5A7A2E450D0
:102943000FE5A1A2E4500953A7EF75A1EF12298B5C
:10295300E5A7A2E5500CE5A1A2E5500653A7DF7554
:10296300A1DFE5A7A2E15009E5A1A2E1500375A10A
:10297300FDE5A7A2E2500CE5A1A2E2500653A7FB96
:1029830075A1FB7F010220D774F8121F8C752101FA
:10299300900381E0640670077A007B0012126FA235
:1029A300AFE433FED2AF900387E0640170187A205E
:1029B3007B00900380E0F9121B097A207B009003CF
:1029C30080E0F91219FB906182E0D2E6F090076B88
:1029D300E0602185C6228016900386E064017008BA
:1029E300E5C654F84405F5C653BEFC12271074011E
:1029F300652160E4EEA2E092AF7F0102203800007F
:102A0300008E238F24858228858327851882851944
:102A130083E0CEA3E0CF852882852783EBC9EAC86C
:102A2300EDCBECCA75F010C3E833C8E933C9EA3318
:102A3300CAEB33CBC3EA9EF526EB9FF525B35004CF
:102A4300AB25AA26EC33CCED33CDD5F0DAAE23AFEC
:102A5300242274F1121F8C8A088B098C0A8D0B9027
:102A6300912C7808121D1C740F121EFC780C121D79
:102A73006890912C780C121D1C7808790C121B425B
:102A830090910050107808790C121CE17808121B01
:102A9300624014800E780C7908121CE1780C121B2A
:102AA3006250047901800279007F0802203874EDB6
:102AB300121F8C8A088B098C0A8D0B90912C780835
:102AC300121D1C7413121EFC780C121D6890912C9D
:102AD300780C121D1C780C7908121B4240117808DF
:102AE300790C121CE1AA08AB09AC0AAD0B80227564
:102AF30010007511007512007513017810790C120E
:102B03001CE178107908121CA8AA10AB11AC12AD05
:102B1300137F0C02203890912C7808121D688A824A
:102B23008B837808121D2F7F0402203874F5121F3F
:102B33008C8C828D837808121D688A828B83780837
:102B4300121CF5122B83C3E098F0A3E099122B75A6
:102B5300401E9090CC7808121D688A828B83780877
:102B6300121CCE8E828F83E02420F0A3E0344EF03B
:102B730080A4F08E828F83C3E09420A3E0944E223E
:102B8300EA2404F8E43BF9E8FEE9FF8C828D83A391
:102B9300A3A3A3E0F8A3E0F98E828F832274F51236
:102BA3001F8CE9FE9006F7E0FAA3E0FBEE29F8E4B8
:102BB30033F9743B28F582749039F583E02AF508DC
:102BC300A3E03BF5097808122133909120121D866A
:102BD300122A047402121EC68A088B098C0A8D0BF2
:102BE30074107808121C70AA08AB097F04022038FD
:102BF30074F1121F8C8A0C8B0D8C0E8D0F741112B5
:102C03001EFC12214A7411121EFCE02401F508A3D4
:102C1300E03400F509E4F50AF50B780C7908121B8A
:102C23008190910C7808121D68780C7908121B8129
:102C3300AA0CAB0DAC0EAD0F122A047402121EC601
:102C43008B09EA450960047A0180027A00EC2AFCC8
:102C5300E43DFD7413121EFCE0F8A3E0F9E8FEE97D
:102C6300FFECF8EDF97A717B02121E2588088909B9
:102C7300E4F50AF50B8E828F837808121D77ECF842
:102C8300EDF97A717B02121E258A088B0974057887
:102C930008121E9D8E828F83A3A3A3A3E508F0A32E
:102CA300E509F07F08022038C082C083E990600004
:102CB300F0D083D08222C0E074F2122078A2AFE475
:102CC30033FED2AFC2C0E5D1A2E4500675D10F12D4
:102CD30018F3EEA2E092AF7F010220D7C0E0C0D08C
:102CE300E8C0E0E9C0E0A9A8D2AFC2C7E9A2E7E41F
:102CF30033F8E9A2E792AFD0E0F9D0E0F8D0D0D032
:102D0300E032C0E0C0D0E8C0E0E9C0E0EAC0E0C023
:102D130082C083A2AFE433FAD2AF900EDAE0F8A315
:102D2300E0687008539AFBA374018022C2E9900EF5
:102D3300DAE0F8740128F0745A28F582E4340EF5C9
:102D430083E0F5C1900EDAE0C394804002E4F0EA38
:102D5300A2E092AFD083D082D0E0FAD0E0F9D0E005
:0C2D6300F8D0D0D0E032C2AF0200002255
:102D7000FFFFFFFFFFFFFFFF74F6121F20E9900E19
:102D8000DFF01215F9900EDFE0F91206631206B7B4
:102D9000900EDFE0F91206BD900EDFE0F91208C7D1
:102DA0009090CC121D8612069F9090CC121D861218
:102DB00008E57A997B1C1219957C997D1C79001283
:102DC00006997CAE7D1C7A02790112069979017A06
:102DD000697B9012185779027A5B7B9012185779A9
:102DE000037A767B901218577C487D0F7A1079020F
:102DF000121ADF7C587D0F7A107903121ADF7CE0FB
:102E00007D0E7A047904121ADF7F02021FF274F435
:102E1000121F208A088B09EB54807003022EA990A0
:102E20000EDFE0F91219DD8A0A8B0BAE0AAF0BEE4A
:102E30004F606E8E828F83E0246F600924FE705491
:102E400012190B8052A3E0F8740E6870208E828FE6
:102E500083A3A3A3A3A312214AEE24FDF582EF349A
:102E6000FFF583E024F9125B4E790E801D74FF6834
:102E700070288E828F83A3A3A3A3A312214A8E82DC
:102E80008F83A3A3E0125B4E79FF120B3174021201
:102E90001EC6800612192FE96007EEFAEFFB121921
:102EA000C5AA08E50964808016EB544060147CE0F4
:102EB0007D0E7A047904121AD9AA08E5096440FB48
:102EC00080047A007B00024ED0E9790024FE60087D
:102ED000146005146009800C74106A700780077410
:102EE000046A6002790202011F74F4121F2074F94F
:102EF000121EB0EAFEEBFF851882851983E4124D9D
:102F000016123213C0E07401121EFCD0E0125B7482
:102F1000A882A983E0FCA3E0FBECFA7402121EFC79
:102F2000EAF0A3EBF0E82402F850010988828983D3
:102F3000E0C0E07404121EFCD0E0125B7408A983A8
:102F40007405121EFC124D107402121EFCE0F508EE
:102F5000A3E085080AF50B7407780A121E8E780A1A
:102F60001221AD010004D02F722F852F942FA72F8F
:102F7000BA2FAC18AD197401121F0EE508547FF971
:102F800012191780467401121F0EE508547FF912BA
:102F9000191D8037AC18AD197401121F0EE50854C5
:102FA0007FF91219238024AC18AD197401121F0E79
:102FB000E508547FF91219298011AC18AD19740174
:102FC000121F0EE508547FF9121911E9F508800364
:102FD000750801EEFAEFFB1219C5900F10747FF01F
:102FE000A37406F0E508A3F07402121EFCE0900F33
:102FF00013F07402121EFCA3E044FC900F14F08541
:103000001882851983E0900F15F07C107D0F8518CC
:1030100082851983E02406FA79FF120B3779007450
:1030200007024ECD74EB121F208A828B83ECFEEDDB
:10303000FFA312314F8E828F83E4F0850A82850BC5
:1030400083A3858208858309E914600C14605114F8
:10305000700302313F023146850A82850B83E0F519
:103060000A850882850983E0F50BC3943240030288
:103070003142AA0BA90A121905E960030231427C08
:10308000167D0FAA0BA90A121ADFE9FA60030231B2
:1030900048850882850983E08E828F83F00231485B
:1030A000850A82850B83E0F50C850882850983E01B
:1030B000F508FAA90C121905E96003023142E50A84
:1030C0002402FEE4350BFFEEFCEFFDAA08A90C126A
:1030D0001AD9E9FA7404650C706E8E828F83E0F55C
:1030E0000CE4F50DF50EF50F850A82850B83A3A37D
:1030F000123167121C89780C7910121CA8850A827B
:10310000850B83A3A312315A121C89780C791012F3
:103110001CA8850A82850B83A3A3A3A3A3E0F508BB
:10312000E4F509F50AF50B74187808121C89780C77
:103130007908121CA8900EE0780C121D77800912F5
:10314000198F7A0280027A01EAF97F0D021FF2A339
:10315000A3A3E0F50AA3E0F50B22A3A3E0F510E496
:10316000F5117410781022A3E0F510E4F511F512B2
:10317000F513740878102274F4121F2074EA121EDA
:10318000B089088A828B83123210FEA3E0FCE4CC63
:10319000FDEE2CE43DFFE82402FCE439FDE50824C3
:1031A000F6602324F870401231FC122133740212AD
:1031B0001F0E120C757402121EC6E9F9702B123123
:1031C000EE120BF7801D1231FC1221337402121F14
:1031D0000E120C8D7402121EC6E9F9700C1231EE3B
:1031E000120BF1E9F9800279017416024ECD900EAE
:1031F000DFE0F9AC18AD19EEFAEFFB228A828B837F
:10320000A3A3A3E024FEF50AE434FFF50B780A2219
:10321000A3A3A3123221F988828983E022A3A3A366
:10322000A3A3E0F8A3E02274EC121F2074EB121E9B
:10323000B0890BEAF8EBF97E007F00750A40E824BC
:1032400003F50EE439F50F850E82F583E0FAC39499
:10325000025005794002365588828983123210F572
:1032600008A3E0FDE5082EE43DF50975125075133D
:1032700091E82403F510E439F511E82402F50CE493
:1032800039F50DE50B122177011DC33BC832F4322D
:10329000263352339633D7337434B5347D35C6353F
:1032A000F5355F369036E93636378A37163857386F
:1032B000F838C33BC33B2039D3391E3AC53AC33B28
:1032C000ED3AC33B3D3B9B3BA818A919880E890FDB
:1032D000780E122133123BE61203217402121EC62D
:1032E000E96003023650AC18AD19AA08AB09120206
:1032F000BB02368BA818A919880E890F780E1221E7
:1033000033123BDF122133AC0CAD0D7A0079001281
:10331000032D7404121EC6E96003023650123C21CC
:103320001206C302368BA818A919880E890F780EC9
:10333000122133123BE61203397402121EC6E960F1
:1033400003023650AC18AD19AA08AB091202C1022B
:10335000368BA818A919880E890F780E12213312FE
:103360003BDF122133AC0CAD0D7A0079001203451E
:103370007404121EC6E960030236507402121EFC69
:1033800012214A900EDFE0F97402121EFC12441D55
:103390001206E702356C123BE612195F8A0C8B0DA0
:1033A000AE0CAF0DEE4F7003023650A818A9198865
:1033B0000C890D780C122133123C0E120351740249
:1033C000121EC6E96003023649AC18AD19AA08AB53
:1033D000091202C70235BBA818A919880E890F78EF
:1033E0000E122133123BDF122133AC0CAD0D7A00EB
:1033F000790012035D7404121EC6E96003023650A0
:103400007404121EFC123C061221337407121EFCB7
:1034100085820C85830D780C1221337C027D00AAF5
:1034200012AB1312042F7404121EC6E97003023A81
:10343000BF851882851983E064017002A3E06003F0
:10344000023ABF7402121EFCE0F47003A3E0F460C1
:1034500003023ABF1243E21221377408121EFCE045
:10346000F97409121EFC12441D1206CF7401121EBB
:10347000C602368B123BE612195F8A0C8B0DAE0C1E
:10348000AF0DEE4F7003023650A818A919880C89A9
:103490000D780C122133123C0E1203697402121EB5
:1034A000C6E96003023649AC18AD19AA08AB091287
:1034B00002CD0235BBA818A919880E890F780E1203
:1034C0002133123BDF122133AC0CAD0D7A007900B1
:1034D0001203757404121EC6E960030236507404A8
:1034E000121EFC123C061221337407121EFC858248
:1034F0000C85830D780C1221337C027D007A4C7B85
:103500009112042F7404121EC6E9601A7402121E6E
:10351000FC12214A900EDFE0F97402121EFC1244E4
:103520001D1206D580467404121EFC123C061221A0
:10353000337407121EFC85820C85830D780C1221D2
:10354000337C027D007A587B9112042F7404121E82
:10355000C6E960207402121EFC12214A900EDFE0C0
:10356000F97402121EFC12441D1206DB7402121EB4
:10357000C602368B123C211206F302368B123BE652
:1035800012195F8A0C8B0DAE0CAF0DEE4F7003025B
:103590003650A818A919880C890D780C12213312FD
:1035A0003C0E1203817402121EC6E9600302364902
:1035B000AC18AD19AA08AB091202D3E9F50A6003E9
:1035C000023649023650A818A919880E890F780EBC
:1035D000122133123BDF122133AC0CAD0D7A00798E
:1035E0000012038D7404121EC6E97064123C21128D
:1035F00006ED02368BEAC39403400E123BE6121925
:103600005F8A0C8B0DAE0CAF0D850E82850F83E0AB
:10361000FA74026A6004EE4F6036A818A919880C83
:10362000890D780C122133123BD6120399740212C1
:103630001EC6E97010AC18AD19AA08AB091202D960
:10364000E9F50A600BEE4F6007EEFAEFFB121A2560
:10365000A90A1219597415121EC67F0C021FF2A86E
:1036600018A919880E890F780E122133123BDF1228
:103670002133AC0CAD0D7A0079001203B77404123B
:103680001EC6E970CB123C211206F9E9F50A80C08A
:10369000EAC39403400E123BE612195F8A0C8B0DAD
:1036A000AE0CAF0D850E82850F83E0FA74026A605E
:1036B00004EE4F609BA818A919880C890D780C128C
:1036C0002133123BD61203C37402121EC6E96003F3
:1036D000023645AC18AD19AA08AB091202DFE9F5AC
:1036E0000A6003023645023650123BE612195F8A21
:1036F0000C8B0DAE0CAF0DEE4F7003023650A818B8
:10370000A919880C890D780C122133850E82850F3A
:1037100083124408122133EEFCEFFD7A0079001287
:1037200003CF7404121EC6E96003023649123C211D
:103730001206FF0235BBEAC39403400E123BE612A9
:10374000195F8A0C8B0DAE0CAF0D850E82850F8331
:10375000E0FA74026A6007EE4F7003023650A81850
:10376000A919880C890D780C122133123BD612034B
:10377000DB7402121EC6E96003023645AC18AD19AF
:10378000AA08AB091202E50236DEA818A919880EAC
:10379000890F780E122133123BDF122133AC0CADAE
:1037A0000D7A0079001203757404121EC6E96003D5
:1037B0000236507404121EFC123C061221337407A8
:1037C000121EFC85820C85830D780C1221337C023D
:1037D0007D00AA12AB1312042F7404121EC6E970E6
:1037E00003023ABF851882851983E064017002A341
:1037F000E06003023ABF7402121EFCE0F47003A3FF
:10380000E0F46003023ABF900EDFE0F9AA08AB09CA
:103810001206C902368B123BE612195F8A0C8B0D19
:10382000AE0CAF0DEE4F7003023650A818A91988E0
:103830000C890D780C122133123C0E1203E774022E
:10384000121EC6E96003023649AC18AD19AA08ABCE
:10385000091202EB0235BBEA24FCFCE434FFFDE86C
:103860002404FAE439FB12195F8A128B13AE12AFEB
:1038700013EE4F7003023650A818A9198812891345
:103880007812122133850E82850F83E024FC123BCF
:10389000FC122133EEFCEFFD851082851183E0FAE6
:1038A000850C82850D83E0F912039F7404121EC6F5
:1038B000E960030236497406121EFCE07008123CEF
:1038C0002112071180187405121EFCE0AC18AD1906
:1038D000AA08AB097005120705800312070BE9F56A
:1038E0000AE50A60030236497403121EFC1243FB08
:1038F0007003023649023650A818A919880E890F9C
:10390000780E122133123BE61203AB7402121EC66C
:10391000E96003023650AA08AB091202F102368BA5
:10392000123BE612195F8A088B09AE08AF09EE4F09
:103930007003023650A818A9198808890978081256
:103940002133850E82850F83E024FEF508E434FFE1
:10395000F5097808122133EEFCEFFD7A00790012A8
:1039600003F37404121EC6E96003023649900F691E
:103970001243FB700F7A237B00121A73900F69EACF
:10398000F0A3EBF0900F691243FB6041900F68E0E9
:10399000C394054003023ABF1243EE29F0750807AD
:1039A00075090078081221337402121F16E975F0A8
:1039B00007A4F8A9F0900F69E028FAA3E039FB12F8
:1039C000199B7402121EC6750A00023650750A133E
:1039D000023649123BE612195F8A0C8B0DAE0CAF12
:1039E0000DEE4F7003023650A818A919880C890DE6
:1039F000780C122133123C0E1203FF7402121EC601
:103A0000E96003023649AC18AD19AA08AB091202E5
:103A1000F7E9F50A600302364974050238EAA81886
:103A2000A919880E890F780E122133123BDF12215B
:103A300033AC0CAD0D7A00790012040B7404121E25
:103A4000C6E96003023650900F691243FB607012A2
:103A500043E21221377401121EFC1243E512213792
:103A6000900F68E0F9900F6912441D12071D74024F
:103A7000121EC6E9F50A60397E008022EE75F00755
:103A8000A4F8A9F0900F69E028FAA3E0398A82F53A
:103A900083A3A3125B53EA4B6003121A250E900F07
:103AA00068E0F8EEC39840D4900F69125B56121A82
:103AB00079900F69E4F0A3F0900F68F0023650752A
:103AC0000A02023645A818A919880E890F780E1225
:103AD0002133123BE61204117402121EC6E9600380
:103AE000023650AA08AB091202FD02368B123BC9FE
:103AF00012195F8A108B11AE10AF11EE4F700302D6
:103B00003650A818A919881089117810122133127B
:103B10003BEF122133EEFCEFFD7A00790012041D19
:103B20007404121EC6E96003023649850C82850DB5
:103B300083123C24120801E9F50A0238E3123BC95A
:103B400012195F8A108B11AE10AF11EE4F70030285
:103B50003650A818A919881089117810122133122B
:103B60003BEF122133EEFCEFFD7A00790012041DC9
:103B70007404121EC6E960030236491243E21221A0
:103B800037850C82850D831243EE121F16AA08ABEF
:103B9000091207FB7401121EC6809CA818A9198877
:103BA0000E890F780E122133123BE61204237402A1
:103BB000121EC6E96003023650AA08AB091202AF12
:103BC00002368B750A01023650EA24FDFCE434FF0C
:103BD000FDAA10AB1122EA123C19EEFAEFFB22EA21
:103BE00024FE123BFC22EA123C19AA0CAB0D2285E2
:103BF0000E82850F83E024FD123BFC22F50EE43497
:103C0000FFF50F780E22E0F50C8E0D780C22850E54
:103C100082850F83E0123C192224FEFCE434FFFD70
:103C200022900EDFE0F9AC18AD19AA08AB09227496
:103C3000E8121F2074EA121EB0E9851882851983E4
:103C4000F0750E00750F00750A40EA2403F510E4C4
:103C50003BF511851082F583E0F9C3940250057994
:103C6000400242218A828B83A3A3A3A3E0FEA3E0A8
:103C7000FF8E828F83E0FCA3E0FAE4CAFBEC2AF516
:103C800008E43BF509EE2402F50CE43FF50DEE24C3
:103C900003F512E43FF513851882851983E012219C
:103CA000F3001602E73C04F53D062F3D08BA3D0A35
:103CB000403E0CB63E0EF13E10223D12DD3F163264
:103CC000401B03431D5F4330483D32483D347B3E3B
:103CD00036463F38923F3AB3403C30423E6A42401B
:103CE000A142423240BC437401121F0E8A0E8B0F58
:103CF000780E122133E9123BE0122133AC0CAD0DEA
:103D00007A00790012032D7404121EC6E9600302C2
:103D1000421C1243EB121F16AA08AB091206C3027B
:103D20004265900EDFE0F9AA081206C90242651248
:103D300043E21221371919AC0CAD0DAA081206CFB7
:103D40007401121EC6024265E924FEF8E434FFF94C
:103D500074046849600302421C850C82850D83E06F
:103D6000FA851282851383E0F8E4C8F9EA28FCE4B6
:103D700039FD8E828F83A3A3A3A3E0FA8E828F8363
:103D8000A3A3A3A3A3E0F9EAF50AE439F50B851888
:103D900082851983E06430780A7010122133900E06
:103DA000DFE0F9AA081206D5023E38122133900E40
:103DB000DFE0F9AA081206DB807E7401121F0E8A6A
:103DC0000E8B0F780E122133E9123BE0122133AC37
:103DD0000CAD0D7A0079001203757404121EC6E949
:103DE000600302421C1243EB121F16AA08AB091211
:103DF00006E10242657401121F0E8A0E8B0F780EC7
:103E0000122133E9123BE0122133AC0CAD0D7A00E4
:103E100079001203457404121EC6E9600302421CB5
:103E20007403121EFC12214A900EDFE0F974031293
:103E30001EFC12441D1206E77402121EC6024265E1
:103E40007401121F0E8A0E8B0F780E122133E912A5
:103E50003BE0122133AC0CAD0D7A00790012038DDA
:103E60007404121EC6E9600302421C1243EB121FC7
:103E700016AA08AB091206ED0242657401121F0E64
:103E80008A0E8B0F780E122133E9123BE012213398
:103E9000AC0CAD0D7A0079001203757404121EC6C5
:103EA000E9600302421C1243EB121F16AA08AB0979
:103EB0001206F30242657401121F0E8A0E8B0F78F0
:103EC0000E122133E9123BE0122133AC0CAD0D7A16
:103ED0000079001203B77404121EC6E9600302429F
:103EE0001C1243EB121F16AA08AB091206F9024274
:103EF00065E9123BE712195F8A0E8B0FEA450F70D6
:103F00000302421C7401121F06880C890D780C12E2
:103F10002133124402122133AC0EAD0F7A00790026
:103F20001203CF7404121EC6E96003024215124345
:103F3000EB121F16AA08AB091206FFE9F50A600387
:103F400002421502421CE9123BE712195F8A0E8BEE
:103F50000FEA450F700302421C7401121F06880C01
:103F6000890D780C122133124402122133AC0EADAC
:103F70000F7A01790012039F7404121EC6E96003D0
:103F80000242157401121F16AA08AB091207050296
:103F90004027E9123BE712195F8A0E8B0FEA450FA3
:103FA000700302421C7401121F06880C890D780CE4
:103FB000122133124402122133AC0EAD0F7A017973
:103FC0000112039F7404121EC6E9600302421574B5
:103FD00001121F16AA08AB0912070B804AE9123B0F
:103FE000E712195F8A0E8B0FEA450F700302421C1D
:103FF0007401121F06880C890D780C1221331244AB
:1040000002122133AC0EAD0F7A00790012039F74B7
:1040100004121EC6E960030242151243EB121F167A
:10402000AA08AB09120711E9F50A6003024215025A
:1040300042F3E9123BE712195F8A0E8B0FEA450F34
:10404000700302421C7401121F06880C890D780C43
:10405000122133124402122133AC0EAD0F7A0079D3
:10406000001203F37404121EC6E9600302421585B0
:104070001882851983E06416900EDF700F1243EEEC
:10408000121F16AA08AB09120717800D1243EE1271
:104090001F16AA08AB09120735E9F50AE50A6003FD
:1040A0000242157406121EFC1243FB7003024215F5
:1040B00002421CE924FEF8E434FFF9C3E89401E964
:1040C0009400A2D265D033500302421C850C828535
:1040D0000D83E0F510700302422BC39406400302E7
:1040E000422BE51075F007A4FEAFF0FAEFFB121AB1
:1040F000738A148B15EA45157003024226EEFCEF15
:10410000FD79001219B3AE12AF13750B008034E8BD
:10411000FEE9FF85160C85170D780C122133750CFE
:1041200004750D00780C122133EEFCEFFD7A007956
:10413000001203F37404121EC6A811EE28FEE43F19
:10414000FF050BE50BC395105066751104E50B7563
:10415000F007A4F8A9F0E51428F516E51539F517C8
:104160008E828F83A3A882A9838E828F83E0FA60D8
:104170009E74042AF511E8FEE9FF85110C750D0007
:10418000AC0CAD0DEEFAEFFB12195F8A0E8B0FEA45
:10419000450F7005750A138042851612851713782E
:1041A00012122133780C122133AC0EAD0F02412DC7
:1041B000E510650B70251243E2122137750A01786C
:1041C0000A122137A910AC14AD15AA08AB091207C1
:1041D0001D7402121EC6E9F50A6034750B008021B9
:1041E000E50B75F007A4F8A9F0E51428F582E515AC
:1041F00039F583A3A3125B53EA4B6003121A25051A
:104200000BE50BC3951040D8AA14AB15121A79E52B
:104210000E450F6007AA0EAB0F121A25A90A121934
:10422000597416025EE5750A1380F1750A0280EC76
:104230007401121F0E8A0E8B0F780E122133E912B1
:104240003BE0122133AC0CAD0D7A00790012038DE6
:104250007404121EC6E970C41243EB121F16AA089A
:10426000AB09120723E9F50A80B27401121F0E8A06
:104270000E8B0F780E122133E9123BE0122133AC82
:104280000CAD0D7A0079001203B77404121EC6E952
:10429000708A1243EB121F16AA08AB091207298075
:1042A000C4E9123BE712195F8A0E8B0FEA450F70C3
:1042B0000302421C7401121F06880C890D780C122F
:1042C0002133124402122133AC0EAD0F7A00790073
:1042D00012039F7404121EC6E960030242151243C2
:1042E000EB121F16AA08AB0912072FE9F50A6003A3
:1042F0000242157404121EFC1243FB700302420FAB
:1043000002421C1243C212195F8A0E8B0FEA450F3C
:10431000700302421C7401121F068812891378125E
:104320001221331243CF122133AC0EAD0F7A007934
:104330000012041D7404121EC6E9600302421585B2
:104340000C82850D831243EE121F16AA08AB0912C8
:104350000801E9F50A600302421574040240A5123F
:1043600043C212195F8A0E8B0FEA450F7003024297
:104370001C7401121F06881289137812122133123D
:1043800043CF122133AC0EAD0F7A00790012041D19
:104390007404121EC6E960030242151243E21221A0
:1043A00037850C82850D83E0F97402121F16AA0866
:1043B000AB091207FB7401121EC68096750A010232
:1043C000421CE924FDFCE434FFFDAA12AB13228554
:1043D0001082851183E024FDF510E434FFF5117897
:1043E0001022900EDFE0F50A780A22900EDFE0F945
:1043F000740122A3A3A3A3A3A3A3A3123222F9E8C7
:104400004922851082851183E024FEF50CE434FFF7
:10441000F50D780C22A3A3A3A3A3A3A3A3E0FCA35D
:10442000E0FDAA08AB092274EA121F2074A5121E2F
:10443000B08C0C8D0D8A828B83A3A3A3A3E0FEA373
:10444000E0FF750E00EE2402F50AE43FF50B8E82C4
:104450008F83A3858208858309E970030244F424CD
:10446000FD70030245FB14700302464414700302FE
:1044700046831470030246E2147003024746147028
:104480000302475D14700302468E147003024768EE
:104490001470030247CF147003024B3514700302EB
:1044A0004BCF147003024AB6147003024A381470DA
:1044B00003024A2F14700302478124E17003024B68
:1044C00057147003024B8A147003024B4614700396
:1044D000024BD8147003024C49147003024C5B1455
:1044E0007003024C6E147003024C63147003024C90
:1044F0006E024C738E828F83E0F5147C107900AAD3
:104500000AAB0B121A19E9701B750C10750D0078A7
:104510000C122133AC0AAD0B7A487B0F12199B7435
:1045200002121EC6EE2412F50AE43FF50B7C107948
:1045300000AA0AFB121A19E9701B750C10750D0000
:10454000780C122133AC0AAD0B7A587B0F12199BF1
:104550007402121EC6EE2422125716F50CE4F50D55
:10456000F50FEE2423F582E43FF583123168121C27
:1045700089780C7910121CA8EE2424F582E43FF50A
:104580008312315C121C89780C7910121CA8EE245D
:1045900025F582E43FF583124C96121C89780C793C
:1045A00010121CA8E50C450D450E450F6008900E35
:1045B000E0780C121D77750AE0750B0E780A12214F
:1045C00033750A58750B0F780A1221337C487D0F1A
:1045D000850882850983E0FBAA14900EDFE0F912BA
:1045E00017E57404121EC6E9F50E900EDFE0FC7D9F
:1045F000007A267B001204A7024C76750A00750B20
:10460000009090B4740A121F167406121DC3750C24
:1046100006F50D780C122133740C121F16AA08AB84
:10462000091219AD7402121EC6E9640160068508FC
:104630000A85090BAA0AAB0B8E828F83E0F912045C
:10464000BF024C5E900EDFE0C0E07410121EFCD082
:10465000E0124D23E0C0E07411121EFCD0E0124DB8
:104660003EC0E07412121EFCD0E0124D16E0C0E015
:104670007413121EFCD0E0F07410121F0E120447C7
:10468000024C5E900EDFE0F912044D024C5E900E7B
:10469000DFE0851882851983124D23E0C0E07401A4
:1046A000121EFCD0E0124D3EC0E07402121EFCD07F
:1046B000E0124D5FC0E07403121EFCD0E0124D49C1
:1046C000122133EEFCEFFD7406121EFCAA82AB83AE
:1046D00012199B7402121EC6AA18AB191204890281
:1046E0004C5E8E828F83E0851882851983124D3E41
:1046F000C0E07401121EFCD0E0124D49122133EECD
:10470000FCEFFD7404121EFCAA82AB8312199B7489
:1047100002121EC6EE2406FE50010F8E828F83E029
:10472000C0E07408121EFCD0E0124D16E0C0E07428
:1047300009121EFCD0E0F0AA18AB19900EDFE0F9C8
:104740001205CD024C5EAC0AAD0BE0FB8E828F836E
:10475000E0FA900EDFE0F91205D3024C5E900EDF16
:10476000E0F91205D9024C5E850A82850B83E0FCD4
:10477000124CB3E439FB900EDFE0F9120531024C24
:104780005E124CA1851882851983124D30FAA3E080
:10479000F9EAF87402121EFC124D5550010F124C2A
:1047A000A77404121EFC124D5550010F124CA77431
:1047B00006121EFC124D5550010F124CA774081220
:1047C0001EFC124D10AA18AB19120537024C5E756B
:1047D0000C00750D007C187D0079007414121F0EFA
:1047E0001219B3124CA1F87414121EFCE8124D30C9
:1047F000C0E07416121EFCD0E0124D16AE82AF83DC
:10480000E0C0E07417121EFCD0E0124D160EAF830C
:104810007508107509007808122133EEFCEFFD745D
:104820001A121EFCAA82AB8312199B7402121EC6B6
:10483000EE2410FE50010F8E828F83E0C0E07428BA
:10484000121EFCD0E0124D5FC0E0742B121EFCD093
:10485000E0124D29A30E0EAF83A2E0E433F510E57C
:104860000EA2E15004D2F08002C2F0A2F0E433F8CC
:10487000E50EA2E25004D2F08002C2F0A2F0E433CE
:10488000F50A750B00E50EA2E35004D2F08002C2D7
:10489000F0A2F0E433FCE50EA2E45004D2F0800272
:1048A000C2F0A2F0E433FAE50EA2E55004D2F080A3
:1048B00002C2F0A2F0E433F508E50EA2E65004D2FD
:1048C000F08002C2F0751100E828F8E51048F510F4
:1048D0007402780A121E9DE510450AF50A8C1074C0
:1048E000037810121E9DE50A4510F8EAFBE8FA74F9
:1048F000097808121E9DEB4509FBA2F0E433F50888
:10490000750900740A7808121E9D124C82121E9DB1
:10491000EAF8EB4509F97429121EFC124D108E823B
:104920008F83E0F50EA30EAF837003024A20E0C030
:10493000E0740A121EFCD0E0124D5FC0E0740B124E
:104940001EFCD0E0124D5FC0E0740C121EFCD0E0E3
:10495000124D5FC0E0740D121EFCD0E0124D29A272
:10496000E0E433FCE50EA2E15004D2F08002C2F094
:10497000A2F0E433F8E50EA2E25004D2F08002C2C5
:10498000F0A2F0E433F508750900E50EA2E3500447
:10499000D2F08002C2F0A2F0E433F50AE50EA2E400
:1049A0005004D2F08002C2F0A2F0E433FAE50EA285
:1049B000E55004D2F08002C2F0A2F0E433F50CE539
:1049C0000EA2E65004D2F08002C2F0E828F8EC48CB
:1049D000FC74027808121E9DEC4508FC7403780AEA
:1049E000121E9DEC450AF8EAFBE8FA7409780C12ED
:1049F0001E9DEB450DFBA2F0E433F508740A780820
:104A0000121E9D124C82121E9DEAF8EB4509F974A4
:104A10000E121EFC124D10740A121F06880C890D0E
:104A2000AC0CAD0D7414121F0E120543024C5E1235
:104A30004CCF120549024C5E124CE8122133EEFCB9
:104A4000EFFD7442121F0E12199B7402121EC6EE65
:104A50002410FE50010F124CA77450121EFC124D70
:104A60005550010F750C08780C122133EEFCEFFD48
:104A70007454121EFCAA82AB8312199B7402121E7C
:104A8000C68E828F83A3A3A3A3A3A3A3A3E0C0E0A6
:104A9000745A121EFCD0E0F0750B01780B1221370E
:104AA0007441121F16A90AAA08AB0912055B74010A
:104AB000121EC6024C5E124CE8122133EEFCEFFDD2
:104AC000742E121F0E12199B7402121EC6EE2410B1
:104AD000FE50010F8E828F83E0F50CE4F50F12314A
:104AE00067121C89780C7910121CA88E828F831291
:104AF000315A121C89780C7910121CA88E828F836F
:104B0000A3A3A3124C96121C89780C7910121CA82E
:104B1000743C121EFCE50CF0A3E50DF0A3E50EF0CD
:104B2000A3E50FF0742C121F16A90AAA08AB0912EC
:104B3000053D024C5E124CB3FCE439FDAA0AAB0BF6
:104B400012054F024C5EEE2410FCE43FFDEEFAEF3E
:104B5000FB120513024C5E8E828F83E0FA7B008588
:104B60000882850983E0FC850A82850B83E0F9ECE5
:104B70002BE439FDEA64267003024C6EEA94274068
:104B800003024C6E1204A7024C5E78FF79FF8E82FE
:104B90008F83E0FA7B00F46020EA6426601BEAC39E
:104BA000942750151204AD8A088B09A808A9097426
:104BB000FF68700374FF697003750E02850C8285AF
:104BC0000D837402F0E8900F16F0E9A3024C6B120B
:104BD0004CCF12064B024C5EE0F50CF50E750F0043
:104BE0002404FAE43400FB121A738A088B09EA459C
:104BF0000960518E828F83E08A828B83F0A3E50C5B
:104C0000F0EA2402E435090A0AFBE5082404F8E482
:104C10003509F98A828B83124D10780E122133AC3C
:104C20000AAD0B8A828B83125B5612199B74021297
:104C30001EC6AA08AB091205DFE9F50E6038AA08FE
:104C4000AB098012750E13802D8E828F83E0F912CE
:104C500005E5EA4B6018121A79801B1205EBE9F59D
:104C60000E8013750E028C828D83E4F08008750E21
:104C7000028003750E01A90E745B121EC67F0E0220
:104C80001FF2EB4509FBE50EA2E7E433F5087509D1
:104C900000740B780822E0F510E4F512741878100F
:104CA00022124CC1F9EA228E828F83E0FAA3E0F946
:104CB000EAF822124CB722124CC1F8E4C8F9EA28EB
:104CC000228E828F83E0FA850882850983E022851F
:104CD0000A82850B83E0F98E828F83E0FC8508824F
:104CE000850983E0FBECFA22124CB7F508E439F5AC
:104CF000090E0EAF0B8E828F83E0F50AA3AE82AF52
:104D000083750C10880D780C22F98518828519831B
:104D1000E8F0A3E9F022124D1A22124D1E22124D84
:104D200023A322F08E828F8322124D1AE0F50E22E9
:104D3000F0A3E9F00E0EAF0B8E828F83E022F0AE6F
:104D400008AF098E828F83E022124D6475080675C4
:104D50000900780822E8F0A3E9F0EE2402FE22120E
:104D60004D64E022124D1E0EAF832274F4121F20F8
:104D700074FD121EB0EAFEEBFF851882851983E4EC
:104D8000F0F508F50904121EFCE4F07402121EFC92
:104D90007401F07C2C7D0079007AE47B0E1219B34B
:104DA0008E828F83E02460606F24FE605124F27055
:104DB00003024E41147003024E6F24E16003024E61
:104DC000907402121F06880889097808122133742A
:104DD00003121F0688088909780812213374041207
:104DE0001F068808890978081221337CE47D0EEEBD
:104DF000FAEFFB1219357406121EC6024E8CA81863
:104E0000A9198808890978081221337CE47D0EEEFF
:104E1000FAEFFB12193B806F7401121F0688088994
:104E20000978081221337402121F0688088909784C
:104E3000081221337CE47D0EEEFAEFFB121941805B
:104E4000277401121F068808890978081221337413
:104E500002121F068808890978081221337CE47D34
:104E60000EEEFAEFFB1219477404121EC6801DA83D
:104E700018A9198808890978081221337CE47D0E65
:104E8000EEFAEFFB12194D7402121EC68A088B0946
:104E90007402121EFCE06007EEFAEFFB1219C585E2
:104EA0001882851983E0600AAC08AD09FA79FF120F
:104EB0000B37E508450960117401121EFCE064011E
:104EC0007007AA08AB09121A7979007403121EC67A
:104ED0007F04021FF274E8121F2074FE121EB0EA53
:104EE000FEEBFF8C088D09751000750A00750B002C
:104EF000741E121EFC125EDEEC2406F8E43509F97D
:104F0000EC240BF50CE43509F50DEC2405FAE43539
:104F100009FB8C828D83A3858214858315EE24037F
:104F2000F50EE43FF50F8E828F83A3858212858371
:104F3000138E828F83A3A3E0605D14700302502759
:104F400014700302512514700302513D14700302C2
:104F5000514814700302516214700302521C147001
:104F60000302524214700302529E1470030252BE96
:104F700014700302536E147003025337147003024B
:104F8000561D14700302565214700302555D1470BE
:104F9000030255700256D98C828D83E41258861212
:104FA0002133AC0EAD0FE5082403FAE43509FB12FA
:104FB000199B7402121EC61258E3750A10780A1261
:104FC00021337C487D0FE508240CFAE43509FB12F7
:104FD000199B7402121EC6780A1221337C587D0F69
:104FE000E508241CFAE43509FB12199B7402121E11
:104FF000C6851282851383E070217C487D0F7A106C
:105000007902121AD97C587D0F7A107903121AD9B5
:105010007CE07D0E7A047904121AD985080A850984
:105020000B75102C0256D9851282851383E060031C
:105030000250F7850E82850F83E0700302510C3316
:10504000333354F82404F510FA7B00121A738A0AD9
:105050008B0BEA450B70030250EE8A828B8374013E
:10506000F0A3740612586385128285138312585C6C
:10507000850E82850F8312585C8E828F8312321EBA
:10508000124D097E00804E125B5C12585C125B5C14
:10509000A312585C75160675170078161221337422
:1050A00002121EFCE02402FCA3E03400FDAA0CABBB
:1050B0000D12199B7402121EC6E50C2406F50C5045
:1050C00002050D0E851882851983E02408F8A3E0F7
:1050D0003400124D09850E82850F83E0F8EEC398E7
:1050E00040A5741C121EFC125B62740180088512BC
:1050F000828513837413F0851282851383E0700C0C
:10510000850E82850F83E060030256D9850882856B
:10511000098374011257F312572F125FA2A3A3E45D
:1051200012585480128C828D837402125798740620
:105130001258948C0A8D0B7510040256D98C828DEE
:105140008374031257F3800E8C828D83740412577C
:10515000A08E828F83A312574212578175100302CB
:1051600056D98C828D8374051257980412592712D0
:10517000213312571E12199B7402121EC68E828F83
:1051800083A31258D2A3125818850C82850D83F080
:10519000125713C0E0125707D0E0125789E0C0E061
:1051A0001256FBD0E0125789A3E0C0E0E508240EB8
:1051B0001256FFD0E0F0EE240FF8E43FF988828920
:1051C00083E0C0E0E508240F1256FFD0E0125B6FC9
:1051D000C0E0E50824101256FFD0E0F0EE2411F8EC
:1051E000E43FF988828983E0C0E0E5082411125683
:1051F000FFD0E0125B6FC0E0E50824121256FFD02A
:10520000E0F0EE2413125716C0E0E50824131256FE
:10521000FFD0E01258547510140256D98C828D8339
:105220007406125798125894850E82850F83125770
:1052300041A31257A58A828B8312578375100602E9
:1052400056D98C828D837407125798141257FE1208
:105250005742A3A3124D16A3A31257411257A58C70
:10526000828D83A3A3A3A31257C98A828B8312576B
:10527000DA8882898312586C1257ED8C828D83A351
:10528000A3A3A3A3A3A3A31257E91257421258182A
:105290008C828D83A312577A75100B0256D98C829B
:1052A0008D83740812592412213312571E12199B30
:1052B0007402121EC685080A85090B0256178C82D5
:1052C0008D83740912592412213312571E12199B0F
:1052D0007402121EC68E828F83A3A3A3A3A3A3A3CB
:1052E000A3A3A37810121D68850882850983A3A350
:1052F000A3A3A3A3A3A3A3A3E5101257E9781012B5
:105300001D68E511850C82850D83125812121D68E7
:105310007410780C121C70125707E50C12581212F8
:105320001D687418780C121C701256FBE50C12588C
:105330005475100E0256D98C828D83740B125886C8
:10534000122133AC0EAD0FE5082403FAE43509FB56
:1053500012199B7402121EC61258E3125713C0E0B2
:10536000125707D0E012585475100D0256D9751017
:105370006A7A6A7B00121A738A0A8B0BEA450B70F1
:1053800003025536741C121EFC125EDE7C6A7D0020
:1053900079001219B3850A82850B83740A12590A9F
:1053A000850E82850F83A312580612584AF9E849E0
:1053B00060471257B11258B61221338E828F831272
:1053C000441712199B7402121EC6E5082410F50832
:1053D000500205098E828F8312575E12584A125767
:1053E000CE1221338E828F8312574812199B74027A
:1053F000121EC6E50824088004E508241CF50850A0
:105400000205098E828F83A3A31243F360561257BD
:10541000B1A3A3A3A31258B61221338E828F83A304
:10542000A312441512199B7402121EC6E50824101B
:10543000F508500205098E828F83A3A312575C12D0
:10544000580612321D1257CE1221338E828F83A33B
:10545000A3A3A312574812199B7402121EC6E50893
:1054600024088004E508241CF5085002050912569A
:10547000ED1243FB6044850882850983740112584C
:10548000C61221331256ED12441D12199B740212DA
:105490001EC6E5082410F50850020509750C0678AB
:1054A0000C122133125713241012575112199B74E6
:1054B00002121EC6E50824068004E5082417F50834
:1054C000500205098E828F831243F370030256D96E
:1054D00085088285098374011258C61221338E8291
:1054E0008F8312441512199B7402121EC6E50824FC
:1054F00010F508500205098E828F8312575C780CD4
:10550000121D6812593E121D68E50D850882850935
:1055100083125946121D687410780C121C701259AF
:105520003E121D687418780C121C7085088285095B
:1055300083E50C0256D8850882850983740A1257C0
:10554000A0850882850983A3A374131258AE12574D
:105550002F1258ADA3125B3B125854800D8C828DD4
:1055600083740E1259598C0A8D0B7510050256D989
:105570008C828D83740F1259598E828F83A3A3A3BB
:10558000A3A3E08A828B831257C98882898312572A
:10559000DA8C828D83A3A3A3A3A3A3A312586CA325
:1055A0001257EDF8A3E0F9E8A2E0E433F50AE85475
:1055B0000260047A0280027A00EA420AE854046037
:1055C000047A0480027A00EA420AE8540860047A05
:1055D0000880027A00EA420AE9540160047A1080E5
:1055E000027A00EA420AE9540260047A2080027AD0
:1055F00000EA420AE9540460047A4080027A00EA30
:10560000420AE954086004788080027800E8450A7C
:105610008C828D8312577A75100A0256D98C828D2E
:1056200083740C125959750A06780A122133EE2434
:1056300005FCE43FFD12199B7402121EC6EE240BFA
:10564000125716850C82850D8312585475100C0262
:1056500056D9125713240DF510FA7B00121A738ACB
:105660000A8B0BEA450B60688A828B83740D125992
:105670000A8E828F83A3A3A3125835750C06750D6D
:1056800000780C122133EE2405FCE43FFDAA08ABA0
:105690000912199B7402121EC6E5082406F508506B
:1056A000020509EE240B12571612582D12582DF52B
:1056B0000C780C12213312578E12441D12199B7450
:1056C00002121EC6741C121EFC125B62740180085A
:1056D0008512828513837413F0741A121EFC125BF8
:1056E00062E510F0AA0AAB0B7402025EE51256F1F5
:1056F00022EE240CF582E43FF58322E508240DF523
:1057000082E43509F58322E508240CF582E43509A5
:10571000F58322EE240CF582E43FF583E022EE24AB
:1057200004FCE43FFDE50824041AE43509FB2212D9
:1057300057332212573722E0850882850983A3A3B5
:1057400022A3E08C828D8322A3A3A3A3A3A3E0249E
:1057500012FCA3E03400FDAA08AB0922A3A3A3A373
:10576000A3A312576622A3A3E0F8A3E01257702266
:10577000C82410F582E438F58322A3A3A3A3A3A32E
:10578000A3A3A3F08C0A8D0B22F012578E22EE24D5
:105790000DF582E43FF58322F0851482851583227E
:1057A000125930F022A3A3A3124D1AA3A3A3A3E07E
:1057B0002285088285098374011257BD221257C1C0
:1057C000221258418E828F83221257E0E022125714
:1057D00070125835750C08780C221257E0A3E0229D
:1057E000124D1EA3A3A3A3A3221258272212587658
:1057F000A3E0221257F7221259341257FE22F085E5
:105800001282851383221258DB1257BDA3A3A3A3D0
:10581000A322125827780C2212581EA3E022A3A319
:10582000A3A3A3A3A3A3A312587AA3A32212583716
:105830001256F1E022A3E0850882850983125841BF
:1058400022F0A3858208858309221258DB12594F62
:1058500012322222F085080A85090B22E0850C828B
:10586000850D83F0A385820C85830D221258761254
:10587000596BA3A3A32212587A22124D23A3A3A3E8
:10588000A3A3A3A3A3221257F71258A6A3F0750A45
:1058900006780A22125898221257FE1258A6125859
:1058A000AD125970F022E08C828D83A322A3F08583
:1058B0000E82850F8322A312321DC8241AF582E4BA
:1058C00038F5831258DB12583D750C10750D0078B1
:1058D0000C22A3A3A3A3A3A3A3A3A3E0850882856B
:1058E0000983228E828F831258D212581E125B4572
:1058F000A3A3A3F0EE240BF582E43FF58312590134
:1059000022E0850C82850D83F022F0A374061258E4
:105910003D851282851383125836850E82850F834A
:1059200012583622125930125898750A06780A22EF
:1059300012593422F0851482851583740622850855
:1059400082850983E50C12594F125766780C221292
:1059500057C1A3A3A3A3A3A3221259301258988519
:105960000E82850F83A312596BF022125970A32265
:105970001258A6A3A32274F1121F20EAFEEBFF8C9B
:10598000088D09EE2405F50CE43FF50D8E828F831A
:10599000A385820A85830B8E828F83A3A312214A5B
:1059A000850A82850B83E0F9850C82850D83E044AE
:1059B00080FC7D04AA08AB091219537402121EC69A
:1059C000E9F50E850A82850B83E07035E50829FA32
:1059D000E43509FBEE2406FCE43FFD850C82850DD1
:1059E00083E014600A24F6601024F8600780121225
:1059F0000C638008120C7B8003120C93EA250EF5D1
:105A00000E740F121EFC125B62E50EF0AA08AB09C1
:105A10007F07021FF274EA121F208A0E8B0F8C126E
:105A20008D138A828B83A3E0F50A7418121EFCE0A2
:105A3000F510A3E0F511851082F583E4F0EA24085F
:105A4000F50CE4350FF50D850C82F583E02409FE95
:105A5000A3E03400FFC3EE942DEF94004032EEFA41
:105A6000EFFB121A738A088B09EA4509600B85104F
:105A7000828511837401F0801B85120885130985C6
:105A80000C82850D83E0F8C3EE98FE750A1380043E
:105A90008C088D09850E82850F83A3A312214AA944
:105AA0000A7CF07D04AA08AB091219537402121E75
:105AB000C6E50E2404F8E4350FF988828983125B69
:105AC0003BA3125B6F850882850983A3A3A3A3A3CD
:105AD000A3F0850C82850D83125B41F0850C8285D5
:105AE0000D83A3125B41A3F0E50E2406F50E5002D0
:105AF000050FF582850F83E0FCA3E0FDEC4D602AE5
:105B0000E50A701A850C82850D8312214AE5082466
:105B100009FAE43509FB12199B7402121EC6850EA0
:105B200082850F83125B56121A257416121EFC1200
:105B30005B62EEF0AA08AB09024C7D125733A3A3B7
