:020000040000FA
:0600000002011A0221C1F9
:03002B0002271F8A
:03003300022701A0
:030053000222374F
:03006B000226D892
:10008300022017E5C754F84401F5C779012200009F
:100093000080FB120086B90003020104E4791B7897
:1000A30002B800028004F709D8FCE4791D7802B88D
:1000B30000028004F709D8FCE490028178057919DD
:1000C3008002F0A3D8FCD9FA781A90014A7A01BACF
:1000D30000028007E493A3F608DAF97A857B1A9085
:1000E300014B78DB79018015E493A3AD82AE838A5B
:1000F300828B83F0A3AA82AB838D828E83D8E9D9C6
:10010300E77582AA7583D6740312012C75829175E3
:100113008300740012012C75D00075813F7518811E
:10012300751902759F00020096C09FF59FE473D076
:100133009F22D083D082C09FE493C0E0740193C018
:10014300E0740293F59F2201C903D5030B04050450
:10015300FF0000B4000028002800283075A000A08C
:1001630000A000A00000080008E001F0001000104B
:10017300001000100010001000500050005000103C
:10018300001000D0070000000000000F0001000570
:1001930000307507001000010081FF00000000FF20
:1001A300FFFF020202FC82010000E88202048301D5
:1001B3000000DF1A02F282010000B8020204830188
:1001C3000000E01A02F082010000CE02FFFF0100EE
:1001D300FF2002FC82010000EB8202048301000085
:1001E3000E1B02EE82000000000002F482030000F6
:1001F300FA021700090C090C090C090C090C090C6B
:10020300090C090C090C090C090C090C090C010E49
:100213001F0EFB0D01E803057710020AFFFFFF0025
:10022300FEFF12013520BF0312013533BF03120154
:100233003554BF03120135BFBF0312013500C0039C
:1002430012013521C00312013542C0031201358367
:10025300C0031201351BC10312013563C10312012F
:100263003507B0031201351AB0031201354BB00341
:1002730012013585B003120135DEB00312013525B5
:10028300B1031201356DB1031201359CB1031201A3
:1002930035CBB10312013502B20312013549B20362
:1002A30012013562B203120135B7B203120135E50B
:1002B300B2031201351FB3031201352DAF02120130
:1002C3003530B0021201355DB002120135AEB00215
:1002D300120135D1B002120135E3B002120135E645
:1002E300B00212013524B10212013598B102120194
:1002F3003504B202120135CCB202120135E8B20262
:100303001201351FB30212013559B302120135F040
:10031300B30212013542B40212013573B402120161
:100323003576B402120135A7B402120135B4B40212
:10033300120135CCB40212013536B502120135393A
:10034300B50212013546B50212013549B502120153
:1003530035A0B502120135B1B502120135EAB50275
:10036300120135EDB50212013521B6021201352411
:10037300B60212013578B602120135C1B602120176
:1003830035D1B60212013504B70212013511B70295
:1003930012013514B7021201357CB7021201357E02
:1003A300B80212013522B9021201358BB9021201CA
:1003B30035C9B90212013547C4021201353FC502DE
:1003C30012013573C50212013509C60212013554F3
:1003D300C602120135B8C60212013542C702120124
:1003E30035FBC7021201351DCB021201359ACC022F
:1003F300120135BDCC021201352F9C03120135D4F5
:100403009D03120135F49D03120135159F0312015B
:1004130035689F0312013577A4031201359FA403A6
:10042300120135CCA40312013504A5031201356270
:10043300A503120135AEA50312013515A60312015A
:100443003555A60312013592A603120135C0A60342
:100453001201356AA70312013574A703120135810E
:10046300A703120135B4A703120135C0A703120174
:1004730035D8A703120135E2A7031201357ED20353
:100483001201358CD203120135A4D203120135BCFB
:10049300D203120135D3D2031201355ED701120103
:1004A3003508D80112013584D801120135A2D901CA
:1004B300120135DED90112013579DA011201355DF8
:1004C300DB0112013520DC0112013598DC01120138
:1004D3003526DE0112013597DE0112013551DF01A8
:1004E30012013543E00112013583E0011201353772
:1004F300E10112013569E1011201355FE3011201E6
:1005030035A1E301120135BFE30112013544E401D2
:1005130012013508E50112013527E7011201357093
:10052300A80312013586A803120135A4A8031201FA
:1005330035B5A903120135BFA903120135EAAA0390
:10054300120135E1AB031201354EAC0312013570D4
:100553008E03120135148F031201354B8F031201E1
:1005630035958F0312013554910312013508830128
:10057300120135B98301120135D583011201359E6C
:100583008401120135A88401120135C284011201CC
:1005930035CD8401120135A3850112013580860111
:1005A300120135DD86011201356D870112013524F3
:1005B3008801120135328B01120135218D0112019F
:1005C30035D38D011201359C8E01120135E1910164
:1005D3001201358B9201120135B49301120135706A
:1005E30095011201351096011201355E9601120133
:1005F300359D9601120135709701120135A49701BB
:1006030012013531980112013529C501120135B5A1
:10061300C50112013519C70112013525C7011201A0
:100623003560C701120135CFC701120135D8C801A2
:10063300120135E1C901120135A8CA0112013505BC
:10064300CC0112013523CC0112013540CC0112013A
:10065300350BCD0112013533CD01120135FDCF012B
:1006630012013502D0011201351BD2011201356985
:10067300D201120135D9D20112013517D30112016A
:1006830035F3D301120135B3D401120135FFD4017F
:1006930012013502D50112013546D5011201358EFD
:1006A300D501120135CDD501120135EFD501120166
:1006B3003523D60112013586D60112013500800398
:1006C3001201350980031201351780031201356ABF
:1006D3008003120135898003120135CE8003120194
:1006E30035128203120135AD8203120135F1820303
:1006F3001201351B83031201358A8303120135D09E
:100703008303120135478403120135F88403120170
:1007130035582700120135682700120135092800D2
:100723001201356528001201352229001201353ED8
:100733002A00120135702A001201359F2A00120186
:10074300354C2C00120135C32E0012013533310014
:100753001201352532001201351E330012013525F1
:1007630035001201351938001201354839001201DC
:10077300354C3B001201355C3C00120135EB3D006A
:10078300120135DC3E001201352A3F001201359972
:100793003F00120135BD3F001201350E400012012A
:1007A30035AF4400120135B0450012013511460042
:1007B3001201353C46001201350247001201350E85
:1007C300FC0212013518FC021201355DFC02120114
:1007D3003571FC0212013501FD0212013529FD02BA
:1007E30012013564FD021201358DFD02120135C17E
:1007F300FD02120135D6FD0212013541FE0212013E
:100803003562FE0212013576FE021201358BFE02BD
:10081300120135C5FE021201352AFF021201356DA0
:10082300FF0212013597FF02120135D3FF021201B5
:100833003570CF031201356D9902120135509A02BA
:10084300120135CB9A02120135069B02120135576C
:100853009C02120135E09C02120135F89E0212013E
:10086300358AA1021201353CA2021201355BA302B3
:10087300120135B4A302120135EBF6021201352E33
:10088300F702120135B2F70212013585F80212019F
:10089300355CFB0212013511BA03120135BEBA03EE
:1008A300120135CBBB031201350ABC0312013564B7
:1008B300BC0312013537C7031201359AC70312016E
:1008C3003537C80312013565C80312013586C803DD
:1008D300120135C1C803120135E1C8031201350AFB
:1008E30085031201359685031201355586031201DE
:1008F300356D8703120135878903120135F77500BA
:100903001201351C7600120135F076001201355DB7
:100913007700120135B377001201354F78001201C9
:10092300358379001201355E7A00120135BD7A00F4
:100933001201358E7B001201351A7C001201351D20
:100943007C00120135677C00120135D97C0012014D
:1009530035847D00120135A47D00120135EC7D0044
:10096300120135087E00120135827E001201359096
:100973007E001201351F7F00120135887F001201AE
:10098300350B9303120135909303120135D2930370
:10099300120135B69403120135239503120135670D
:1009A3009503120135AB9503120135D89503120156
:1009B30035009603120135389603120135769603F6
:1009C3001201359D96031201351797031201356104
:1009D3009703120135B55F001201358261001201E0
:1009E30035706300120135C46300120135EF6300F3
:1009F3001201359D6400120135CD6400120135FCEE
:100A030064001201350F65001201355065001201B3
:100A1300357C6500120135CA650012013501660097
:100A23001201354D6600120135AC66001201353FE7
:100A33006700120135296800120135186900120197
:100A430035C36A00120135E26F001201353B7000B5
:100A5300120135247200120135F37300120135754A
:100A63007400120135C37500120135D475001201EB
:100A730035AFBC031201359ABD03120135DDBD0349
:100A83001201352CBE031201357DBE03120135CE92
:100A9300BE031201356E4700120135EF4700120104
:100AA300351C4800120135654800120135664900BE
:100AB300120135B54900120135314B00120135B32E
:100AC3004B00120135104C00120135634C0012012A
:100AD30035524D00120135E74E00120135B14F007A
:100AE300120135C14F00120135EB4F00120135EEF3
:100AF3004F00120135D15000120135BC51001201D3
:100B030035695200120135C652001201351F5300D8
:100B13001201358353001201352B5400120135C7DE
:100B23005400120135545500120135C95500120104
:100B330035255600120135845600120135AB560097
:100B43001201357057001201355C5900120135A5A9
:100B53005900120135D55900120135485A001201C6
:100B630035CE5B001201357E5C00120135A35C00BB
:100B7300120135E25C00120135F75C001201353ACF
:100B83005D00120135AA5D00120135F45D0012010A
:100B930035FE5E001201357F5F00120135C1F5019C
:100BA3001201350CF60112013518F601120135EC6C
:100BB300F60112013503F70112013540F701120165
:100BC3003571F701120135A9F701120135FFF7015C
:100BD30012013515F80112013551F801120135647E
:100BE300F8011201358BF801120135BFF80112012A
:100BF30035E5F9011201352FFB011201352BFC01FB
:100C030012013541FD01120135F47F00120135BE99
:100C1300F1021201356CF502120135A0F602120140
:100C230035888D0212013541900212013547900239
:100C3300120135F89202120135529502120135BEA6
:100C43008903120135558A03120135138B031201EF
:100C5300353D8B03120135738D031201352799013D
:100C6300120135629901120135B6A3011201352231
:100C7300A5011201351FA601120135A4A901120114
:100C83003599AA01120135E5AA01120135FFAA011E
:100C930012013540AB0112013549AB01120135FB9D
:100CA300AB01120135CBAC0112013512AD011201BA
:100CB3003578AD01120135EAAD0112013558AC03A7
:100CC300120135EEAC0312013504AD031201355D9B
:100CD300AD03120135A1AD03120135DBAD031201E2
:100CE3003573AE03120135E2AE03120135EBAE03E9
:100CF300120135F7AE0312013511AF031201353B73
:100D0300AF0312013550AF03120135B2AF03120125
:100D130035D9AF03120135BDE502120135CAE5022B
:100D2300120135E4E50212013517E60212013555C9
:100D3300E602120135BAE602120135CFE6021201CC
:100D430035E6E602120135F4E60212013503E70245
:100D530012013518E7021201352DE7021201353869
:100D6300E70212013544E70212013551E70212018D
:100D73003560E7021201356BE70212013590E70295
:100D830012013534E80212013549E8021201355ED9
:100D9300E80212013578E80212013595E8021201E2
:100DA30035B2E802120135BDE80212013569E902E4
:100DB3001201354AEA021201356FEA021201357A4D
:100DC300EA021201358FEA02120135A3EA02120187
:100DD3003504EB021201350AEB0212013510EB0266
:100DE30012013516EB021201352EEB0212013561A9
:100DF300EB02120135EFB90212013511BA021201E9
:100E030035D9BA0212013593BD02120135A9BE02CA
:100E1300120135CABF02120135A4C00212013553B3
:100E2300C1021201350580021201359C80021201B4
:100E3300353481021201352482021201355B8202AC
:100E43001201356E8202120135DC820212013577FE
:100E530084021201359E840212013540850212017B
:100E630035758502120135868502120135FF85022B
:100E7300120135208602120135388602120135909F
:100E83008702120135998902120135E98B02120199
:100E930035EC8C021201353B8D0212013534E7012A
:100EA30012013531E8011201351CE9011201352621
:100EB300E90112013548E90112013554E901120132
:100EC30035A6EA01120135D5EA0112013505EC0117
:100ED30012013547EC0112013573ED011201354959
:100EE300EE011201359BEE01120135FAEE011201FA
:100EF3003531EF011201356CEF0112013507F301B2
:100F030012013520F301120135A2F301120135B0AC
:100F1300F30112013505F40112013513F401120135
:100F23003580F401120135F2F40112013538F5016F
:100F3300120135EFC80312013514C90312013585B7
:100F4300C903120135E0CD02120135E9CD021201C8
:100F530035F2CD0212013523CF0212013542D102FF
:100F630012013578D102120135B2D102120135E8EE
:100F7300D10212013522D20212013556D2021201D8
:100F83003582D202120135CBD20212013505D302CA
:100F93001201354DD302120135A3D302120135D804
:100FA300D30212013533D4021201356DD40212017A
:100FB30035BED402120135F4D4021201352ED50206
:100FC30012013551D502120135F9D4031201352529
:100FD300D50312013580D5031201358AD5031201D9
:100FE300359AD503120135E3EB0212013522EC02E7
:100FF300120135ABEC02120135C0EC021201350BC4
:10100300ED021201353FED021201357EED021201B0
:10101300358DED0212013542EE021201359BEE02CF
:10102300120135EAEE0212013543EF021201355087
:10103300F00212013549F10212013586F102120163
:10104300355EFF0112013536AF01120135B6B1012C
:101053001201352AB30112013587B301120135306C
:10106300B4011201352DB501120135B5B5011201D7
:10107300353AB6011201355FB601120135AFB6013B
:1010830012013568B901120135D9B901120135C50B
:10109300BA01120135FFBA011201353FBB0112013A
:1010A30035E5BC0112013516BD011201356BBD01D9
:1010B300120135B8BD0112013529BE011201354DAA
:1010C300BE0112013567BE011201357DBF01120158
:1010D300358DBF011201350BC1011201352BC10141
:1010E30012013561C10112013518C3011201359195
:1010F300C301120135D0C301120135FBC401120132
:10110300356AC503120135CEC5031201357DC60309
:101113001201359CC603120135F0C6031201354591
:10112300D40312013556D403120135AB7F001201EB
:1011330035EA7F0012013575D70312013563D303F6
:1011430012013573D3031201358BD3031201353FDB
:10115300D40312013584D00312013508D1031201DF
:10116300356ED103120135A5CA03120135CECA0368
:1011730012013534CB0312013553CB03120135A7CA
:10118300CB0312013500CC031201353BCC03120112
:10119300353ECC03120135E2B603120135F7B6032F
:1011A3001201351BB80312013585B803120135F955
:1011B300B80312013513B9031201352AB903120119
:1011C300353DB90312013555B9031201356AB90327
:1011D3001201358BB903120135DCB90312013575E0
:1011E300A0031201358CA00312013505A1031201DE
:1011F30035DAA103120135ACA30312013511A4039F
:1012030012013564A403120135F87F0012013590F1
:10121300C30312013506C50312013567C503120165
:1012230035E6CD031201350FCE0312013538CE0357
:10123300120135D1CE03120135E9CE031201352B4C
:10124300CF03120135DFD502120135E9D5021201B0
:101253003529D60212013572D602120135ACD602F7
:1012630012013502D70212013521D702120135A628
:10127300D902120135AFD90212013500DA02120187
:101283003529DA021201353EDA02120135AEDA02ED
:101293001201353CDB0212013580DB02120135A855
:1012A300DB0212013527DC021201356ADC0212016E
:1012B30035A7DC02120135B9DC02120135D8DC0294
:1012C300120135E1DC02120135ABDD0212013548B2
:1012D300CC0312013599CC0312013522CD0312013F
:1012E3003588CD0312013587B303120135B1B3033A
:1012F300120135ABB403120135D0B40312013571B9
:10130300B503120135F7B50312013587D103120175
:10131300358EC103120135C4C103120135FDC1036A
:1013230012013556C303120135A4D503120135BA90
:10133300D503120135C4D5031201351AD6031201A0
:10134300354BD603120135D7DD0212013594DE0287
:10135300120135CFDE02120135F7DE0212013559D3
:10136300DF02120135A5DF0212013505E002120189
:101373003596E00212013592E1021201351FE302B4
:10138300120135A2E30212013506E4021201351DF2
:10139300E40212013513E5021201355FE502120181
:1013A30035A19703120135B69703120135669803E9
:1013B300120135A69803120135BF9803120135F2C5
:1013C30098031201353F99031201357399031201F2
:1013D30035B59903120135BC9B03120135229C03D9
:1013E3001201355DA40212013552A5021201351A0C
:1013F300A60212013597A80212013583A902120130
:1014030035A6A902120135E7AB0212013539AC0248
:10141300120135CCAC0212013518AE02120135B3FC
:10142300AE0212013502D703120135BEFF011201CC
:10143300352ED70312013557D703E066701008A382
:10144300E066700A08A3E066700408A3E06622C39E
:10145300E7960809E7960809E7960809E79622C37D
:10146300E09608A3E09608A3E09608A3E09622C0BE
:1014730008C3E096F50808A3E096420808A3E0969F
:10148300420808A3E09645087001D3D00822080853
:1014930008EAC0E0EBC0E086F0E7A4FA180986F09A
:1014A300E7A42AFA180986F0E7A42AFA180986F0AD
:1014B300E7A42AFA1986F0E7A4FBE5F02AFA19084B
:1014C30086F0E7A42BFBE5F03AFA190886F0E7A4C7
:1014D3002BFBE5F03AFA18180986F0E7A4C5F02BC0
:1014E300FBE43AFA1908E7C5F0C6A426F6E5F03B93
:1014F300FBE43AFA1886F0E7A4F6E5F00826F6E4EA
:101503003B08F6E43A08F6D0E0FBD0E0FA22E4CF59
:10151300C0E0E4CEC0E0E4CDC0E0E4CCC0E075F0D0
:1015230020E626F608E633F608E633F608E633F651
:10153300181818EC33FCED33FDEE33FEEF33FFC325
:10154300EC9709ED9709EE9709EF97191919400FD1
:10155300FFEC97FC09ED97FD09EE97FE191906D5E7
:10156300F0BFECF709EDF709EEF709EFF7191919D1
:10157300D0E0FCD0E0FDD0E0FED0E0FF2260160812
:101583000808C6C313C618C613C618C613C618C69A
:1015930013C6D5E0EA227009080808226016181855
:1015A30018C6C333C608C633C608C633C608C6330F
:1015B300C6D5E0EA22E627F60809E637F60809E683
:1015C30037F60809E637F622E026F608A3E036F6F2
:1015D30008A3E036F608A3E036F622E026F008A3D7
:1015E300E036F008A3E036F008A3E036F022C3E6C5
:1015F30097F60809E697F60809E697F60809E697C5
:10160300F622C3E096F008A3E096F008A3E096F074
:1016130008A3E096F022E657F60809E657F608090C
:10162300E657F60809E657F622E056F608A3E05611
:10163300F608A3E056F608A3E056F622E056F008B3
:10164300A3E056F008A3E056F008A3E056F022E02A
:1016530066F608A3E066F608A3E066F608A3E0666C
:10166300F622E0F608A3E0F608A3E0F608A3E0F606
:1016730022E6F008A3E6F008A3E6F008A3E6F022CA
:10168300E0FAA3E0FBA3E0FCA3E0FD22EAF0A3EB76
:10169300F0A3ECF0A3EDF022E0F8A3E0F9A3E0FA65
:1016A300A3E0FB22E8F0A3E9F0A3EAF0A3EBF02226
:1016B300CAC0E0E6F0A308DAFAD0E0FA22CAC0E032
:1016C300E0A3C582CCC582C583CDC583F0A3C58203
:1016D300CCC582C583CDC583DAE6D0E0CA22C3E494
:1016E30098F8E499F91217228026C3E49AFAE49B46
:1016F300FBE920E7E9121722E498F8E499F922C3F9
:10170300E498F8E499F9121722E498F8E499F9C3F4
:10171300E49AFAE49BFB22EB20E7CFE920E7E0B968
:101723000010BB0008E88AF084F8AAF022E4FBC8A2
:10173300FA22EB70227B10C833C8C933C933500770
:10174300C39AC3DBF280069A50012ADBEAC833F45A
:10175300C8C933F4C9FA2275F008E4C833C8C933D9
:10176300C933C99AC99B5004C92AC93BD5F0ECFBBC
:10177300C833F4C8E4C9FA22600D08C6A2E713C649
:1017830018C613C6D5E0F322600C08C6C313C618E7
:10179300C613C6D5E0F422700422600D18C6C33305
:1017A300C608C633C6D5E0F41822251810AF08F5CD
:1017B30018400C15198008F51840021519D2AF22EC
:1017C30000C0D0251810AF08F518500C0519800873
:1017D300F51850020519D2AFD0D0222518F5821082
:1017E300AF08F518400C15198008F51840021519B3
:1017F300D2AF851983222518F582E43519F58322A2
:101803002518F8E43519F9222518FAE43519FB22CD
:101813002518FCE43519FD22E4732518C582C0E0C0
:10182300E51934FFC583C0E0E518C3958224F81099
:10183300AF088583198582188008858319858218E6
:10184300D2AFCEF0A3E520F0A37808E608F0A3DE3C
:10185300FAEFF0A3E58124FAF8E608F0A3E608F02E
:10186300A3E608F0A30808E608F0A3E608F0A3152A
:10187300811581D0E0FED0E0F8158115811581E84E
:10188300C0E0EEC0E0222518C582C0E0E51934FFB0
:10189300C583C0E0E518C3958224F910AF0885839A
:1018A300198582188008858319858218D2AFCEF0F6
:1018B300A3E520F0A37808E608F0A3DEFAEFF0A38F
:1018C300E58124FBF8E608F0A3E608F0A30808E6A0
:1018D30008F0A3E608F0A315811581D0E0FED0E05F
:1018E300F815811581E8C0E0EEC0E02285198385F3
:1018F3001882E0A3FEE0A3F5207808E0A3F608DF52
:10190300FAE0A3FFE0A3C0E0E0A3C0E0E0A3C0E0EF
:10191300E0A3C0E0E0A3C0E010AF08858218858390
:10192300198008858218858319D2AFD083D08202AB
:101933000132851983851882E0A3FEE0A3F52078A0
:1019430008E0A3F608DFFAE0A3FFE0A3C0E0E0A30A
:10195300C0E0E0A3C0E0E0A3C0E010AF08858218B8
:101963008583198008858218858319D2AFD083D0E7
:101973008222C0D02518C582C0E0E51934FFC58393
:10198300C0E0E518C3958224F310AF088583198559
:1019930082188008858319858218D2AFC8F0A3E91D
:1019A300F0A3EAF0A3EBF0A37908E709F0A3D8FAD0
:1019B300ECF0A3EDF0A3EEF0A3EFF0A3D0E0F0A3DF
:1019C300D0E0F0A3D0E0F0A3E520F0A3E5F0F0A38E
:1019D30022851983851882E0C0E0A3E0F9A3E0FA29
:1019E300A3E0FBA37808E0F608A3DFFAE0FCA3E09A
:1019F300FDA3E0FEA3E0FFA3E0C0E0A3E0C0E0A3FB
:101A0300E0F5D0A3E0F520A3E0A3F5F010AF08853F
:101A130083198582188008858319858218D2AFD0EF
:101A230082D083D0E0F8D0E0327404800674028060
:101A3300027401C0E0F4041217DED0E01216B322E0
:101A43007404800474028000CCC0E0EDC0E0E518AB
:101A5300C39CCCAD1950011D10AF068C188D198095
:101A6300068C188D19D2AF1216C0D0E0FDD0E0FC61
:101A730022D083D082E9C0E0E493A3C386F0C5F00B
:101A830095F0F908E493A386F0C5F095F0700BE4A4
:101A930093A3C3994005E9048002A3E475F002A46B
:101AA3002582F582E5F03583F583D0E0F9E493A34D
:101AB300C0E0E493C0E022D083D082ECC0E0EDC06C
:101AC300E0E493A3FCE493A3FDED4C600D121B062D
:101AD300EC24FFFCED34FFFD80EFE493A3FCE493DF
:101AE300A3FDED4C600D121B45EC24FFFCED34FF10
:101AF300FD80EFD0E0FDD0E0FCE493A3C0E0E493ED
:101B0300C0E022C0E0C3E4939608740193961840A2
:101B13000FE49366700808740193661870007019D7
:101B2300A3A3C3E49396087401939618A3A3400D4B
:101B3300D0E0D0E0D0E0021AF6A3A3A3A3A3A3D0DE
:101B4300E022C0E0C0F088F0E493667008087401F6
:101B53009366187000A8F0A3A3700BD0F0D0E0D068
:101B6300E0D0E0021AF6A3A3D0F0D0E02274F6127C
:101B73001889EAFEEBFF8C088D09EE2434F8E43F64
:101B8300F9E8FCE9FDEE2435121E65FAEE2437125E
:101B93001E65F88508F0A4C885F00A8509F0A42518
:101BA3000AF9EA28F8E439F97A257B00121722EAC0
:101BB3008C828D83F0FA131313541FF8EE28F8E484
:101BC3003FF9E8245DF582E439F583E0C0E074076A
:101BD3005AF8D0E0B800028004C313D8FCA2E0EEA8
:101BE30050082434F582E43F80182436121E65F52C
:101BF300F0EA84A8F0EE28F8E43FF9E82438F58207
:101C0300E439F583E0F97F0302193574F712188973
:101C1300EAFEEBFFEE2434121E65C0E0EE2435F538
:101C230082E43FF583D0E0F08E828F83A3A3A3A346
:101C3300A3A3A3C082C0838E828F83A3A3A3A3A3E2
:101C4300121CD6D083D082E0C398F508A3E099F59F
:101C530009EE247F121E656401705DEE2480121C60
:101C6300D08E828F83A3A3A3A3A3A3A31220088E42
:101C7300828F83A3A3A3A3A3E0FAA3E0FBC3EA9CFD
:101C8300EB9D5010C3EC98ED99402DC3EA98EB9966
:101C93005026800EC3EA98EB994007C3EC98ED9960
:101CA30040167CBD7D06EEFAEFFB120B3DEE247F62
:101CB300F582E43FF583E4F0AC08AD09EEFAEFFBFF
:101CC300121B70E9F91226CA7F02021935F582E464
:101CD3003FF583E0F8A3E0F92274EF12188990032B
:101CE30069E064086005E06407702A9061C8E060F9
:101CF30024900397E0F4601DE0F875F00CA4C8AAE3
:101D0300F02AF9749928FE740339FF8E828F83A316
:101D1300A3A3E07003021DEA906060E0C0E0EE243C
:101D230068F582E43FF583D0E0F0750CF9750D0694
:101D3300750800750900E5D914F50AE5D95403F5CA
:101D43000E60127403650E6043E50A600AEE2467B1
:101D5300121E65700280759006F4E06401601F1224
:101D63001E6260047A0480027A00E50AC39AFA9537
:101D7300E0FB1209E78A088B09EA45097005120D91
:101D8300D78064121E6270048A0C8B0DE50A601200
:101D9300850C82850D83F50BE5D9F0A3150BE50BB7
:101DA30070F6121E62604474FC250AF50A780C1260
:101DB3001A30AC0AA90EEEFAEFFB120C03740212EE
:101DC30017C3E97026AA08AB091212D5793D8E8292
:101DD3008F83A3A3A3A3E0FA7B00120861EEFAEFBB
:101DE300FB120B61120C637900806F7403650E6044
:101DF30051850A107511007810121A30AC0CAD0D14
:101E0300AA08AB09120BC774021217C3EE24681297
:101E13001E6564807004747F8001E0F50C780C12F9
:101E23001A34E50EF50C780C121A34A90AAC08AD75
:101E330009900397E0FA7B0012083174021217C36A
:101E43008013900369E06408700BAC0CAD0DEEFADF
:101E5300EFFB120C33120DE379017F0A021935EE01
:101E63002482F582E43FF583E02274F21218897428
:101E7300FC1217ADEAFEEBFF8909A2AFE433F508C4
:101E8300C2AF021F29E0601B780C121A30AC0BA9F9
:101E93000EEEFAEFFB120BFD74021217C374042546
:101EA3000BF50B7401250BF5D9850ED9E50B6018DD
:101EB300F50A850C82850D83E0F5D9A385820C850F
:101EC300830D150AE50A70EA75E195EE2463F8E4DB
:101ED3003FF97A007B00A2AFE433F50BC2AF1220C7
:101EE30004EC4D603288828983E0FAA3E0FB8A82A6
:101EF3008B8312200888828983ECF0A3EDF08A8219
:101F03008B83E4F0A3F0122004EC4D700A888289DD
:101F130083A3A3E4F0A3F0E50BA2E092AF1212D5E2
:101F23009006C4E004F0EE2463121CD0E849606418
:101F3300EE2463121E652402F8A3E03400F98882BC
:101F43008983E5822402F50CE43583F50DE0F50B76
:101F5300A3E0F50EEE2462121E65640170369061F3
:101F6300D0E0F8121E6260047C0480027C0074805E
:101F7300C398FA95E0FBE50B2CF8E43400F9E82468
:101F830002F8500109C3EA98EB99A2D265D0334015
:101F930003021E889006C4E0604D9006C5E0F890E9
:101FA30006C4E0C398500C74026509703A9006C6E3
:101FB300E060348E828F83A3A3A3A3E08518828578
:101FC3001983121FFA74021217F9E8121FFA900606
:101FD300C3E028F07402121813AA18AB197901127E
:101FE300088B9006C4E4F0E508A2E092AF740412F3
:101FF30017C37F07021935F0A3E4F09006C4E0F895
:102003002288828983E0FCA3E0FD220000851B87F0
:10201300851CC622C0E074EB121975A2AFE433F538
:1020230008C2AF759B00906182E0A2E05030E59159
:10203300A2E0502A7591FE7401651B70211221AA3A
:10204300120CFF122198121A431226067404121757
:10205300C3E9640170057901120D3B121CDC906128
:1020630082E0A2E5505DE591A2E550577591DF90BE
:102073000369E064076005E06408702F1221AA7405
:1020830001651B703E120CFF122198121A4312268F
:102093000674041217C3E9640170057901120D3B3C
:1020A3007901EEFAEFFB121E6D8018E0640D7013D8
:1020B30090038BE004F064287002E4F07A00E0F906
:1020C300120DE9906182E0A2E6400302216DE591E1
:1020D300A2E6400302216D7591BF900369E0640598
:1020E3007008120CE7120CF38003120CED751B0041
:1020F300120D59E990036AF07900120D3B120AA7F9
:102103007A017B00900368E0F91212A5907803E04E
:10211300644270569006F8E014F0704EC2AF12217C
:102123002400781ED0E0F618D0E0F6E59F5407F8B7
:102133007005750DFF8003750D7FC4C0E0781DE643
:10214300F50A08E6550DF50B740B780A12178BD0B8
:10215300E0250AF8906270E0A2E740F8E8C3339004
:102163006272F0906270E0D2E0F0906181E0A2E3ED
:102173005009E5E9A2E3500375E9F7A3E0A2E750AC
:1021830009E591A2E7500375917FE508A2E092AFBC
:102193007F080219D48E828F83E0F8A3E0C8241647
:1021A300F582E438F58322900397E0F875F00CA4E8
:1021B300C8AAF02AF9749928FE740339FF22C0E0F3
:1021C300C0D0C082C083906183E0A2E05009E5BF24
:1021D300A2E0500375BFFEE0A2E15009E5BFA2E112
:1021E300500375BFFDE0A2E25009E5BFA2E2500330
:1021F30075BFFBE0A2E35009E5BFA2E3500375BF3F
:10220300F7E0A2E45009E5BFA2E4500375BFEFE095
:10221300A2E55009E5BFA2E5500375BFDFE0A2E6E2
:102223005009E5BFA2E6500375BFBFD083D082D06B
:10223300D0D0E032C0E074F2121975E5A7A2E650DF
:102243000FE5A1A2E6500953A7BF75A1BF12228BC8
:10225300E5A7A2E5500CE5A1A2E5500653A7DF755B
:10226300A1DFE5A7A2E15009E5A1A2E1500375A111
:10227300FDE5A7A2E2500CE5A1A2E2500653A7FB9D
:1022830075A1FB7F010219D474F7121889751B011C
:10229300900369E064067015120C878A828B83A30E
:1022A300A3A3A3A3A3E0FAA3E0FB120CD5A2AFE47C
:1022B30033FED2AF90036FE0640170187A207B0085
:1022C300900368E0F91213C57A207B00900368E05D
:1022D300F91212AB906182E0D2E6F09006F5E0606D
:1022E3002185C61C801690036EE064017008E5C664
:1022F30054F84405F5C653BEFC1220107401651B47
:1023030060E4EEA2E092AF7F0202193574E912187D
:102313008974FA1217ADEAFEEBFF8C0A8D0B120DCE
:102323000BEAF8EBF9ECFAEDFB8E828F831216A71A
:10233300900369E024F7C394055006751401022441
:1023430076120C878A088B09EA4509700302247305
:10235300EEFCEFFDAA18AB19120D0585088285095D
:1023630083A3A3780C1216659082C4780C12162CE2
:1023730085188285198378101216659082C47810A7
:1023830012162C780C7910121452501F780C7910F5
:102393001215F1908258780C1214724047850C1470
:1023A300850D15850E16850F17804590825885106B
:1023B300148511158512168513177814790C1215C7
:1023C300F17814121472501C7514007515007516EB
:1023D30000751701781479101215F17814790C121D
:1023E30015B8800C75140175150075160075170066
:1023F30074097814121599908264780C1216657812
:1024030014790C121511850882850983A3A3A3A34C
:10241300A3A3122494121722880C890DE4F50EF558
:102423000F7814790C1215B874041217F912249446
:10243300121722E8FA8A0CE4F50D7814790C1214B9
:102443005250077814790C1215F1900369E064086F
:10245300600AE064066005E06405702090825078AD
:1024630014121472501690824C78141215CB800CEF
:10247300751400751500751600751700850A828599
:102483000B83781412167474061217C37F10021983
:1024930035E0F8A3E0F97AD07B032274F7121889A8
:1024A300120D1D9006F3E064017010906245E4F094
:1024B300A3F053F4F343FE0C5390F3120CC3E5C69D
:1024C30054B84441F5C6E59E5447644170F89061A1
:1024D30085740FF09006F1E0F47002A3E0604E9073
:1024E30006F2E0600814601B14602E80407508013A
:1024F3007509009006F1E0780812179AE508F4527E
:1025030080802A7508017509009006F1E0780812A9
:10251300179AE508F4529080147508017509009024
:1025230006F1E0780812179AE508F452A079007FC3
:102533000202193574F7121889E9FEEAFF120D1D1C
:1025430074016E700C7A807B00900368E0F91212BC
:10255300A5902750E493F46008E493F9120A9B8052
:102563000953C6B8E59E544770FA120CC99006F396
:10257300E064017003120AB99006F1E0F47002A35B
:10258300E0604B9006F2E0600814601A14602C803F
:102593003D7508017509009006F1E0780812179A55
:1025A300E508428080287508017509009006F1E06E
:1025B300780812179AE50842908013750801750987
:1025C300009006F1E0780812179AE50842A0120C71
:1025D300878A088B09A808A909E8496014E5E1700E
:1025E300FCE82414F582E439F583E0F46003E0F5B4
:1025F300E174016F700A7A01900368E0F9121335F0
:1026030002253274F11218898A088B098C0A8D0B02
:102613009082C4780812162C740F1217F9780C12D2
:1026230016659082C4780C12162C7808790C121453
:102633005290825850107808790C1215F1780812CC
:1026430014724014800E780C79081215F1780C126C
:10265300147250047901800279007F0802193574DD
:10266300ED1218898A088B098C0A8D0B9082C47825
:102673000812162C74131217F9780C12166590822F
:10268300C4780C12162C780C790812145240117865
:1026930008790C1215F1AA08AB09AC0AAD0B80221C
:1026A3007510007511007512007513017810790CFF
:1026B3001215F1781079081215B8AA10AB11AC12E3
:1026C300AD137F0C021935C082C083E9906000F01E
:1026D300D083D08222C0E074F2121975A2AFE43322
:1026E300FED2AFE589A2E15003121185758900C2BC
:1026F300C5751A00EEA2E092AF7F010219D4C0E0C3
:1027030074F2121975A2AFE433FED2AFE58BA2E0E7
:102713005003121185758B00C2E880D5C0E0C0D08C
:10272300E8C0E0E9C0E0A9A8D2AFC2C7751A00E9C2
:10273300A2E7E433F8E9A2E792AFD0E0F9D0E0F8FA
:0B274300D0D0D0E032C2AF0200002274
:10275000FFFFFFFFFFFFFFFFC082C083E9901B0D5B
:10276000F0D083D08202013274F612181DE9900273
:10277000DCF090033BE0F50875090074027808125C
:10278000179AAA08AB0912131D9002DD12311B9093
:1027900002DD123508606F90033BE075F003A4FA88
:1027A000ABF012131D9002FA12311B9002FA12358F
:1027B00008700B9002DD1234D91213238048900266
:1027C000FA12446D7AFF7BFF1211017A0080198A98
:1027D000087509007402780812179A123F1574FFE1
:1027E00012291BE4F0A3F00A90033BE0F8EAC39837
:1027F00040DD79051207299002DCE0F91206157A0E
:10280000B37B07120987023FB874F412181D8A08B7
:102810008B09EB548060479002DCE0F912128D8A3C
:102820000A8B0BAE0AAF0BEE4F602A8E828F83E0CD
:1028300064B0701A12073BE960148E828F83A3A3E1
:10284000A3A3E0F9EE2405FAE43FFB12070BEEFA2E
:10285000EFFB12127BAA08E5096480FB80047A0072
:102860007B00022A6B74F212181D74FB1217ADEA7A
:10287000FEEBFFEE4F604574031217F9EEF0A3EF85
:10288000F0851882851983ECF0A3EDF0740212171D
:10289000F9E9F0AA18AB1912060FE9F5087075747A
:1028A000131217F9E0F50AA3E0F50BE50A450B60F2
:1028B000638E828F83122EA4EE4F700575080280FE
:1028C000537A067B0012131D8A0C8B0DA80CA90DE0
:1028D000E8497005750813803B88828983E41229D2
:1028E0001BEEF0A3EF122A37E50AF0A3E50BF090F8
:1028F00002E0122A309002E06017E0FCA3E08003BF
:10290000EAFCEBFD8C828D83122A3070F38C828D71
:1029100083123B30A90874050246EDF0A312444F20
:10292000A32274F212181D8908890C750D00740316
:10293000780C12179A850C0A850D0B9002DFF09027
:1029400002DD12393B122A2E602E121323790080E9
:102950001D890C750D007402780C12179A9002DD17
:10296000123DD48882F583A3A3E4F0A3F009900379
:102970003BE0F8E9C39840D990033BE0FA850AF0C0
:10298000A4CAA8F0850BF0A428FB12131D8A0C8B97
:102990000DAE0CAF0DEE4F7003022A2490033BE006
:1029A000FC850AF0A4CCA8F0850BF0A428FD7900E2
:1029B0001212637C0080318D0C750D007403780C4D
:1029C00012179A8A828B83122A2988828983E4F0DB
:1029D000122A36A3A3F0A3F00DEDC3950840D8EE5C
:1029E000250AFEEF350BFF0C90033BE0F8ECC39893
:1029F00050288C0C750D007402780C12179A9002F6
:102A0000DD122A29E82402500109FAE9FB8A828BA7
:102A100083EEF0A3EFF07D0080BFE5089002DFF0C9
:102A20007900800279130246F0123DD8F922A3A35F
:102A30001234DDEA4B22A312444FA3A3A32274F461
:102A400012181D7900EAA2E0501F75082E75098240
:102A50007808121A3079107C047D007A0F7B1B12E3
:102A6000072374021217C3E9F980007F040218EFEC
:102A7000C082C0839002E0123508601C888289837E
:102A8000A3A3E06A7003A3E06B8882898370E8A344
:102A9000A3A3A31234D980047A007B0002276174B7
:102AA000F212181D74FD1217ADEAFEEBFF851882B5
:102AB000851983E4F0A3F074021217F97401F0127F
:102AC000350570141208D912131D9002E312311B40
:102AD0001235057003022C3112321BEE2404F50A64
:102AE000E43FF50B850A82F583E024FE603C24FC7C
:102AF000607424FE607E24FE7003022B8124FE702D
:102B000003022B8E24FE7003022B9B24FE70030213
:102B10002BA824FE7003022BB524FC7003022BD6D5
:102B200024FE7003022BEE022C2A1208D99002E533
:102B3000EAF0A3EB122C3D12026DE96003022C2A8D
:102B40009002E5121A478E828F83A3A3A3A3A31238
:102B5000446D8508828509831234D91206F3740204
:102B60001217C3022C2AAC18AD19EEFAEFFB1207AC
:102B700041022BF9AC18AD19EEFAEFFB12074780B2
:102B800078AC18AD19EEFAEFFB12074D806BAC185C
:102B9000AD19EEFAEFFB120753805EAC18AD19EEDB
:102BA000FAEFFB1207598051AC18AD19EEFAEFFBA2
:102BB00012075F80447402121803880C890D780C88
:102BC000121A307402121813EEFAEFFB1207657432
:102BD000021217C38023AC18AD19EEFAEFFB1207EF
:102BE0006BE9F8701674021217F9E4F0803CAC1827
:102BF000AD19EEFAEFFB120771E9F8E8602C8E824E
:102C00008F83A3E064146022850A82850B83E090A1
:102C100002E5F08518828519831234D99002E612F4
:102C2000311BE8A3122C3D120267EEFAEFFB1206ED
:102C3000C974021217F9E0F974030246EDF07CE55D
:102C40007D028508828509831234DD2274E812181A
:102C50001D74FA1217AD74041217F9ECF0A3EDF01D
:102C60008A128B13EA2405F50EE43513F50FEA24D6
:102C700002F510E43513F511851082F5831234D96D
:102C80001203B18A0A8B0B7508007C037D00790062
:102C90007AE57B02121263E50E2402F516E4350F85
:102CA000F5177402121803880C890D780C121A306B
:102CB000850E82850F83A3A3A3A3E0F50C750D00F9
:102CC000780C121A30E50E2405F50CE4350FF50DDD
:102CD000780C121A308516828517831237E0120697
:102CE0002D74061217C38A0C8B0DE50C450D70036D
:102CF000022E6D8020851882851983E08882898361
:102D0000F00508851882851983A3E0C0E0122EAE75
:102D1000D0E0F00508E50A24FBFAE50B34FFFBC31D
:102D2000E5089AE49B4003022E6D7E007F00851229
:102D300082851383A3A3A3A3E0F5097809121A34AB
:102D4000E4F514F5157814121A307514E2751502AD
:102D50007814121A309002E3121A4774091217F904
:102D6000121A47E50A24F9F9AC0CAD0D85108285DD
:102D700011831234D912079B74091217C3E9600337
:102D8000022E0E850E82850F83A3A3A3A3A3A3A364
:102D9000E0F89002E2E0687075E0F5148E157814A2
:102DA000121A3012446A850E82850F83A3A3A3A34F
:102DB000A3A3A3A31234D912125D74021217C3E99C
:102DC000604C9002E6123508703BE4F5147814125A
:102DD0001A307CFF7DFF79078510828511831234BC
:102DE000D912070574021217C312350E7017850E1B
:102DF00082850F8312460774041217F9123EC81217
:102E00003811022EA1850C82850D83122EA4A818DC
:102E1000A919881489157814121A3074041217F934
:102E2000121A4785168285178312311112063974DA
:102E3000041217C38A0C8B0DEE4F7003022CEA129A
:102E40002EAEEE122EB91237C7EF122EB9F8A3E04C
:102E50003400F9E50C450D6003022CF58882898366
:102E600074FFF00508122EAE74FFF00508E5086047
:102E70001A1313543F123121120279E960099002AA
:102E8000E61234D91212D579008016850E82850F8C
:102E90008312460774041217F9123EC8123B3079A8
:102EA0000A02379AA3A3A3A3E0FEA3E0FF22A80887
:102EB0009002E6E0281237C722F00508089002E6E3
:102EC000E0282274E812181D74FA1217AD74021269
:102ED00017F912311B74041217F9ECF0A3EDF0741A
:102EE000021217F9E024051237B0E0F50CA3E0F563
:102EF0000D74021217F9E02402F510A3E03400F576
:102F000011851082F5831234D91203B1750800754A
:102F10000900EA24FCFEEB34FFFF8008050CE50CF9
:102F20007002050DA808C3EE98EF9400500302301C
:102F3000CDA818A919880E890F780E121A30851499
:102F400082851583A3A3A3A3124471121A30E5143A
:102F50002405F50EE43515F50F780E121A30851498
:102F60008285158312310F12062D74061217C38A3B
:102F70000E8B0FEA450F70030230CDEA2404F516DC
:102F8000E4350FF517851682F583E0F50CA3E0F51F
:102F90000D85188285198312446D8A828B83A3A3C1
:102FA000A3E0F98510828511831234D912061BE93A
:102FB000F50960030230CD74021217F91237D7F504
:102FC000097809121A34E4F512F5137812121A303E
:102FD0007512E27513027812121A309002E3121A77
:102FE0004774071217F9121A47EEF9AC0EAD0F85A8
:102FF00010828511831234D912079B74091217C3EA
:10300000E9F50960030230CDE508703FE4F50EF5FF
:103010000F780E121A307CFF7DFF790985108285AA
:1030200011831234D912070574021217C31237FD27
:10303000700D74041217F9123104791102310190E4
:1030400002E2E024029002E6F080149002E6E0FA48
:103050009002E2E0790024025001096A497072A8E6
:10306000089002E2E0FAE82AFAE43400FBEE9AEF74
:103070009B405A851682851783E0C0E09002E712D4
:103080002EB3D0E0F00508851682851783A3E0C033
:10309000E0089002E7122EB3D0E0F005089002E2BB
:1030A000124471121A3012446AA8081237A412127C
:1030B0004B74021217C39002E2E02508F50874FF72
:1030C000650C700474FF650D6003022F1CE5086039
:1030D0001F9002E6E0F5F0E5088412312112027F2C
:1030E000E960099002E71234D91212D579008011F3
:1030F000E509700375090A74041217F9123104A95D
:103100000902379A12393FE50CF0A3E50DF022A32E
:10311000A31246FCAA0CAB0D22A3A3EAF0A3EBF08A
:10312000229002E5F07CE57D0285108285118312F4
:1031300034DD2274EC12181D74FC1217AD123C40E1
:1031400074021218131234D31206338A0C8B0DEA50
:10315000450D700302320B12321BA818A9198810F2
:1031600089117810121A307CFF7DFF790B85088257
:103170008509831234D912070574021217C312335A
:1031800011700C850A82850B8312380E0232188E5C
:10319000828F83A3A3A3A3E0F5127812121A34E45A
:1031A000F512F5137812121A307512E575130278BC
:1031B00012121A307810121A3074091217F9121AF2
:1031C0004774091217F9E0F9AC0CAD0D850882853A
:1031D00009831234D912079B74091217C3E9FE70D0
:1031E000157CE57D028508828509831234D9120297
:1031F00085E97009802074166E70027E009002E6E8
:103200001234D91212D5EE7004800B7E01850A8229
:10321000850B83123B2DEEF9023B42EE2402F508AA
:10322000E43FF5092274EC12181D74FC1217ADEA84
:10323000FEEBFF8C0E8D0FEE2405F508E43FF5093B
:1032400074021218138508828509831234D9120674
:10325000338A0C8B0DEA450D7003023301EE240214
:10326000F50AE43FF50BA818A91988108911781000
:10327000121A307CFF7DFF790D1234D312070574CA
:10328000021217C3123311700B850882850983124D
:10329000380E807A8E828F83A3A3A3A3E0F51278E1
:1032A00012121A34850882850983A3A3121A47755E
:1032B00012E57513027812121A307810121A30744F
:1032C000091217F9121A4774091217F9E0F91234A2
:1032D000CF12079B74091217C3E9FE700F7CE57DBE
:1032E000021234D312028BE97009802074166E70BA
:1032F000027E009002E61234D91212D5EE700480DC
:103300000B7E01850882850983123B2DEEF9023B75
:1033100042123518F510A3E0F511EA45112274E8C0
:1033200012181D74FE1217AD8A168B178C148D158A
:10333000EA2405F50CE43517F50DEA2402F50EE450
:103340003517F50F850E82F5831234D91203B18A31
:10335000088B09750B007C037D0079007AE57B0200
:10336000121263750A00E50814F5100424FFF5082D
:10337000E50934FFF50980549002E5E0FA9002E295
:10338000E0F8EA28F8E43400F9E50898E5099950EE
:103390000D9002E5E0F8E510C3989002E2F0E0F548
:1033A000127513007812121A3012446A9002E6E085
:1033B0002AFAA3E03400FB12124B74021217C390D6
:1033C00002E2E0F89002E5E028F0050A850C82852B
:1033D0000D83A3A3123DE440030234B49002E5E060
:1033E000C39508E4950940030234B4AE0AEE2EFEFC
:1033F000E433FF1234F3AC18AD19124485E439FB01
:103400001206338A128B13AC12AD13EC4D701B7580
:103410000B011234E3123B319002E6122A306003B2
:103420001212D5A90B740202379C85168285178368
:10343000A3A3A3A3E0F50B780B121A34E4F512F55D
:10344000137812121A307512E27513027812121ADA
:10345000309002E3121A4774071217F9121A47A99B
:1034600010850E82850F831234D912079B740912BE
:1034700017C3E9F50B709B9002E612350860030252
:103480003378E4F512F5137812121A307CFF7DFFC1
:10349000790F850E82850F831234D91207057402C5
:1034A0001217C312350E60030233781234E3123858
:1034B000120234257CE57D02850E82850F8312344D
:1034C000D9120291E960030234187900023425AC64
:1034D0000CAD0D850A82850B831234DD22E0FAA340
:1034E000E0FB221234F3E0FAA3E0F9EA85148285C6
:1034F000158322850C82850D83E02EF8A3E03FF929
:1035000088828983229002E312460BE84922123511
:1035100018F8A3E0F9E849229002E6EAF0A3EBF0FC
:103520009002E6E02274E812181D74FA1217AD74C6
:10353000041217F912311B8C168D1774041217F927
:10354000E02405F50EA3E03400F50F74041217F91A
:10355000E024021237B01234D91203B18A0A8B0B5D
:103560007F007E00A818A919880889097808121A0E
:1035700030850E82850F83A3A3A3A3E0F5088E09EF
:103580007808121A30E50E2405F508E4350FF50920
:103590007808121A30850E82850F83A3A31237E0B4
:1035A00012062D74061217C38A0C8B0D8029123750
:1035B000D1F00F1237D1F00F9002E2123B1C121A19
:1035C0003012446AEFF81237A412124B7402121729
:1035D000C39002E2E02FFFE50C450D700302366058
:1035E000851882851983123C52A3A3A3E0F98514A0
:1035F000828515831234D912061BE9FEE50C2404DA
:10360000F510E4350DF511EE705074041217F9122F
:1036100037D7F5087808121A34E4F508F509780860
:10362000121A307508E27509027808121A309002F1
:10363000E3121A4774071217F9121A47E50A24FA17
:10364000F9AC0CAD0D8514828515831234D912079F
:103650009B74091217C3E9FE60391237ED123B3033
:10366000EF70030237879002E6E0F5F0EF849002F6
:10367000E5F07CE57D028514828515831234D9122C
:103680000297E960099002E71234D91212D5790045
:1036900002379A8F08EF703BE4F512F51378121297
:1036A0001A307CFF7DFF79118514828515831234D1
:1036B000D912070574021217C31237FD70091237A9
:1036C000ED12381102379A9002E2E024049002E6EB
:1036D000F080359002E2E0F89002E6E0FAE8240497
:1036E000FCE43400FDEC6A4D6003023666E50A2412
:1036F000FAFAE50B34FFFBE50828F8E43400F9EAB0
:1037000098EB995003023666851082851183E0C0DC
:10371000E09002E7E02FF8A3E034008882F583D040
:10372000E0F00F851082851183A3E0C0E01237BE60
:10373000D0E0F00F74021218038808890978081283
:103740001A3074021217F9121A47850E82850F83F8
:1037500012310F12063974041217C38A0C8B0DEA4A
:10376000450D70030235AE74021217F9E0C0E01285
:1037700037BED0E0F00F74021217F9A3E0C0E012D8
:1037800037BED0E00235B6EE70027E0A850E828525
:103790000F831237F3123B30EEF974061217C37F12
:1037A000100218EF9002E7E028FAA3E03400FB22B1
:1037B000F514A3E03400F515851482F58322123741
:1037C000C2229002E7E02FFAA3E034008A82F58358
:1037D000221237C274FF2212393FA3A3A3A3E0220F
:1037E0001246FC850E82850F831234DD22851082FD
:1037F00085118312460B851682851783229002E776
:10380000EAF0A3EBF09002E712460BE84922123BE4
:1038100036E8F0A3E9F079112274EA12181D74FE5B
:103820001217AD8A088B098C128D13EA2405FEE469
:103830003509FFAC18AD198E828F831234D9120668
:10384000338A0C8B0DEE2406F50EE43FF50FEA45A6
:103850000D7003023911E5082402F50AE43509F573
:103860000B8A828B83A3A3A3E0A2E550288518824C
:103870008519831234D912078F8A108B11EA4511EA
:10388000602079121234CF85108285118312181BA3
:10389000E9F50C707F850E82850F83E0600979520F
:1038A0008011750C0E806D850882850983A3A3A302
:1038B000A3E0F9E4F508F5097808121A308E828F32
:1038C00083A3A3E0F5087808121A308E828F83A3B1
:1038D000A3A3121A478E828F8312446D1234D3121F
:1038E00007A174061217C3E9F50C7011850E8285C5
:1038F0000F83E0702D1234D312029D80257416655B
:103900000C7011750C0074181217F912393BE48011
:1039100010750C01124603851282851383E8F0A30B
:10392000E9F0850E82850F83E0600479008002A9AA
:103930000C74021217C37F0E0218EF12393F22E0F7
:10394000F8A3E0F58388822274EC12181D74F71234
:1039500017AD8A0A8B0B8C108D11EA2405FEE43515
:103960000BFF750C00AC18AD198E828F831234D901
:103970001206338A088B09EA45097003023B07E502
:103980000A2402F50A5002050B8A828B83A3A3A3A3
:10399000E0A2E5502F8518828519831234D91207C9
:1039A0008F8A0C8B0DEA450D604F7912AC08AD097A
:1039B0001234D3850C82850D8312181BE9F50C6037
:1039C00003023B0A850A82850B83E0F508A3E0F534
:1039D00009AA08FB120783EA4B70197AFF7BFF12D2
:1039E0000783EA4B7003023AFD8A828B83E508F075
:1039F000A3E509F07508008008750C0E023B0A0566
:103A0000089002DFE0F8E508C3984003023AFD851C
:103A1000080E750F007403780E12179A8A828B8332
:103A2000A3A3E0250EF8A3E0350F123ED170D08E8F
:103A3000828F83123B2512311B8E828F83A3A312A8
:103A40003B25123119EE2404F508E43FF5098508F9
:103A500082F583E088828983A3A3A3A3F0A3E4F083
:103A6000EE2405F50EE43FF50F850E82F583123B3B
:103A700025A3A3A3A3123119751207751300781299
:103A8000121A30EEFCEFFD740412180B12124B7474
:103A9000021217C3E4F5127812121A3085088285D3
:103AA0000983E0FC7D0079171234D31207057402F4
:103AB0001217C374071217F912311B74071217F982
:103AC000E0FA4B603D850882850983123B1C121A7F
:103AD00030850E82850F8312446D12124B740212D0
:103AE00017C374021218131234D31202A3E960260A
:103AF00074071217F91234D91212D58019750C09EE
:103B00008008750C118003750C0112460385108224
:103B1000851183123B30A90C74098028E0F50875E3
:103B200009007808221234DD8882898322123B360C
:103B3000E8F0A3E9F022E0F8A3E0F9850E82850F12
:103B4000832274041217C37F0C0218EF74EC12184E
:103B50001D123C40751000EE2402F50CE43FF50DFB
:103B6000850C82F5831234D91207838A088B09EAFF
:103B700045097003023C24850A82850B83E06401B9
:103B80006003023C19AC08AD09AA0AAB0B12077717
:103B9000E9606E850882850983122EA6EE2406F55B
:103BA0000AE43FF50B8E828F83A3A3121A478E82FD
:103BB0008F83A3A3A3A3121A47850A82850B8312BE
:103BC0001A4779188E828F83123C521234D9120709
:103BD000A174061217C3E9F8741668700B850A827F
:103BE000850B83E4F0A38014E860128E828F831229
:103BF00034D9850E82850F83EAF0A3EBF08810801C
:103C000018780E121A30AC08AD09EEFAEFFB120765
:103C10007D74021217C3E9F510AA08AB09120789CF
:103C2000E510700E850C82850D831234D91202A91D
:103C30008009741665107003751000A910023B47C7
:103C4000EAFEEBFF8C0E8D0FEE2405F50AE43FF53E
:103C50000B221246FC850C82850D832274EA121811
:103C60001D7508007509007E007F00750A00EC24B0
:103C700002F510E43DF5118035EC65087003ED6543
:103C8000096003023D1188828983A3A3E06A70035F
:103C9000A3E06B707C88828983A3A3A3A312460749
:103CA000EE28FEEF39FFEA28FAEB39FB050A123D50
:103CB000E1503A850A0C750D007403780C12179ABE
:103CC000851082851183123DD4123ED1601FE50814
:103CD000450970A58C088D0988828983122EA488D5
:103CE000828983A3A3E02EFAA3E03F80BEE50AC346
:103CF00094025003023DCF750800750900EE4F6035
:103D000010EEFAEFFB1212CF8A0E8B0FEA450F70FE
:103D1000057900023DD1750B00023DA4850B0C75A1
:103D20000D007403780C12179A851082851183E0B8
:103D3000250CF50CA3E0350DF50DE50C2406F51466
:103D4000E4350DF515851482F583123ED66042E503
:103D50000C2404F512E4350DF513851282F5831257
:103D60001A47E50E2508FAE50F3509FB12124B74C8
:103D7000021217C3851282851383E02508F508A374
:103D8000E03509F5098514828515831234D912129C
:103D9000D5E50B600D7C087D007900AA0CAB0D12F7
:103DA0001263050BE50BC3950A5003023D1C8510F9
:103DB0008285118312460788828983A3A3A3A3A3C4
:103DC000A3E50EF0A3E50F122A37EEF0A3EFF0798A
:103DD00001023936123DD822E0250CF8A3E0350D5A
:103DE000229002DFE0F8E50AC3982274F012181D51
:103DF0008A0E8B0F8C0A8D0B750D00750C00805090
:103E00007916EE2406F508E43FF5098E828F83A328
:103E1000A3121A478E828F83A3A3A3A3121A4785E6
:103E20000882850983121A47850E82850F83A3A312
:103E30001234D91207A174061217C3E9F50D7416CE
:103E4000650D706C850882850983E4F0A3F0050C8C
:103E50009002DFE0F8E50CC3985066AA0C8A08755A
:103E600009007403780812179A850A82850B83A3C8
:103E7000A3123F20E8FEE9FF8E828F83123ED660B8
:103E800040EA2401F508E43400F5099002DFE0651A
:103E9000087002E509601488828983A3A3A3A3A301
:103EA000A3A3A31235086003023E007918023E0264
:103EB000E9609B12460374101217F9123EC8123BB8
:103EC00030A90D7F080218EFE0FAA3E0F5838A829B
:103ED00022F9888289831246FCEC4D2274F612186E
:103EE0001D7C0080010C90033BE0F8ECC398501E51
:103EF0008C087509007402780812179A123F15E0B1
:103F00006A7003A3E06B70DDE8FAE9FB80047A00D5
:103F10007B00023FB89002DD123F20888289832215
:103F2000E02508F8A3E03509F92274F212181D8A79
:103F3000088B09750A0080278E828F83A3A3A3A311
:103F4000122A2E60031212D57C087D007900EEFA49
:103F5000EFFB1212638E828F83E4F0A3F0050A1246
:103F60003DE15027850A0C750D007403780C12177B
:103F70009A850882850983A3A3E0250CFEA3E0357A
:103F80000DFF8E828F8312350870AD8508828509FA
:103F90008374FFF0A3F00246F074F612181D1207A6
:103FA000358A828B83E582458370067A007B0080A8
:103FB00007A3A3A3A31234D97F020218EF74F4124B
:103FC000181D89088C828D83E06402703C1245A61E
:103FD000FEA3E0F9EEF87402687003742969702991
:103FE000750A02750B00780A121A3074101217F94C
:103FF000121A4774101217F9121A47A9081211075A
:1040000074061217C3E9F980027901022A6B74E879
:1040100012181D74FB1217ADE9851882851983F0FB
:104020008A168B17ECFEEDFF7510008E828F83A32E
:10403000A3A3E0A2E4502D741D1217F91234D91273
:10404000078F8A828B83E58245837003024445791A
:104050000AEEFCEFFDAA16AB1712181BE9F510606B
:1040600003024448741F1217F9E0F508A3E0F509AC
:1040700074211217F9E0F50AA3E0F50B7423121767
:10408000F9E0F50EA3E0F50F8E828F83E064026005
:10409000030243E6A3124607850882850983A385A8
:1040A0008212858313EE2406F50CE43FF50D888219
:1040B0008983124485F514E439F5157814121ABA77
:1040C000010000280128E84007000228AD4103282C
:1040D0001B410029DC42012907430229A842032988
:1040E000DC4204298043E643E50E450F60030243AA
:1040F000E1850C82850D83124607E8FAE9FB8A8286
:104100008B83E0850A82850B83124490121A308AD1
:10411000828B83A3E0FCA3E002436AE50E450F60B7
:10412000030243E1850A82850B837401F012447A0D
:10413000850882850983F07C007D008E828F83A3B1
:10414000A3A3A3E02401FAA3E03400FB120633EAA0
:104150004B60408A828B83E02402F8850A82850BBB
:1041600083E028F0EA2404F8E43BF988828983E0BC
:1041700085128285138312449E124490121A308A4B
:10418000828B83A312446DE5082403FAE43509FB0E
:1041900002436F850A82850B83E02404F07C047D52
:1041A000007900AA12AB13121263024448E50E45CF
:1041B0000F60030243E112447AFEA3E0FF850A8206
:1041C000850B837404F0EE850882850983F0EF8502
:1041D0001282851383F07403121813EEFAEFFB12A8
:1041E00006338A0C8B0DEA450D700302428B8A82DE
:1041F0008B83A3A3122EA47401121803880E890FB7
:10420000780E121A3074051217F9121A477CFF7DC6
:10421000FF12063974041217C38B0FEA450F70336F
:10422000850C82850D83124471121A30850C8285AB
:104230000D83A3121A477C027D007AFA7B82120357
:104240009F74041217C3E9700A74011217F974FFFE
:10425000F0A3F08E828F83E064027039750C0275D2
:104260000D00780C121A308E828F83A312446DE5F4
:10427000082404FAE43509FB12124B74021217C326
:10428000850A82850B83E02402800974011217F9E4
:10429000EEF0A3EFF074011217F912445F740112EB
:1042A00017F91244560243DBE50E450F6003024343
:1042B000E1850C82850D831246F5AA16AB17121103
:1042C0000D850A82850B837402F085088285098337
:1042D000EAF0851282851383EB0243DEE50E450F7B
:1042E00060030243E112447AF8A3E0F9850A82856B
:1042F0000B837402F0E8850882850983F0E9851252
:10430000828513830243DE850C82850D831234D9A6
:10431000121245EAFAF8C3950EE4950F405CE86581
:104320000E450F70047A008021851882851983E07C
:10433000FCE50E2CFCE4350FFDC3EC98ED94005029
:1043400003E08005E50ECAC39AFAEA850A82850B66
:1043500083F08A0A750B00780A121A30850C828560
:104360000D83E0250EFCA3E0350FFDAA08AB091272
:10437000124B74021217C3024448751007024448D6
:10438000E50E450F705B850C82850D83124607850F
:104390000A82850B837407F088828983124457123E
:1043A000444FE0851282851383F0E82402FAE43951
:1043B000FB8A828B8312445F8A828B83124456A3CA
:1043C000A3122A36124464F0E82405F85001098843
:1043D000828983124464A312449EA3A3A3A3F08002
:1043E0006775100B8062741D1217F91234D9120709
:1043F000358A828B83E5824583604A124607880CA2
:10440000890DE8450D603E74251217F9E0F5107826
:1044100010121A34780E121A30780A121A307808EC
:10442000121A3074071217F9E0F9EEFCEFFDAA1624
:10443000AB17850C82850D8312181B74071217C3E6
:10444000E9F510800375100EA910740502379CF071
:1044500088828983A322A3E08508828509832212AA
:1044600044A5F0221244A5A3A3229002E31246FC25
:1044700022E0F50E750F00780E22850C82850D83E3
:1044800012393FE022E0FAA3E0F8E4C8F9EA282272
:10449000F08A828B83E0F50A750B00780A221244B9
:1044A0004F1244A522E0850882850983A3A32274C4
:1044B000EE12181D74FE1217AD8A088B09ECFEED82
:1044C000FF890AAC18AD19EEFAEFFB1206338A0C1D
:1044D0008B0DEA450D700302459785188285198377
:1044E0001234D91207358A828B83E58245837003A3
:1044F000024592A3A3124607880E890FE8450F7064
:104500000302459274141217F9E0F510A3E0F511B7
:10451000E50AF50B780B121A3474191217F9121AEE
:10452000477810121A30741B1217F9E0F9AC0CAD71
:104530000DAA08AB09850E82850F8312181B74051E
:104540001217C3E9F50B705274FE650A604C850CB6
:1045500082850D83E0640270411245A6FAA3E0F95A
:10456000EAF87402687003742969702E85108285D8
:104570001183124485F50CE439F50D780C121A30CC
:10458000EEFCEFFDAA08AB091207B974021217C3BB
:104590008008750B0E8003750B01A90B74021217AE
:1045A000C37F0A0218EFA312460B88828983E02298
:1045B00074F612181D74FE1217AD740C1217F9124E
:1045C0004607E8851882851983F074011217F9E906
:1045D000F0E4F508F5097808121A30750802780831
:1045E000121A307404121803880889097808121AFC
:1045F0003079FE1207A174061217C374021217C392
:10460000023FB88E828F8312460B22E0F8A3E0F9B6
:104610002274F712181DEAFEEBFF89089002FA12C5
:10462000446D12110DEA5402600BA908EEFAEFFB7B
:10463000120627800279017F010218EF74F2121826
:104640001D74FE1217ADEAFEEBFF890A7401650ABC
:1046500060147402650A60030246EB79011209A531
:10466000E960030246EBEEFAEFFB120783EA4B60C8
:1046700003120789A818A919880889097808121A45
:10468000307508027509007808121A307508F4753B
:1046900009827808121A307CFF7DFF7A017B0012B4
:1046A000062D74061217C38038850882850983A3F6
:1046B000A3A3A3A3A31246F5EEFAEFFB121101E4A4
:1046C000F50CF50D780C121A3074021217F9121A43
:1046D000477CFF7DFFAA08AB091206397404121744
:1046E000C38A088B09E508450970BE74021217C316
:1046F0007F060218EF12393F1246FC22E0FCA3E0CD
:10470000FD2274F412181D8A088B09ECFEEDFF904F
:104710001B0DE0F4604B7A097B00121275EA4B60C6
:10472000408A828B8374B1F0A3E4124764F08A82DA
:104730008B83A3A3E508F0A3E509124764A3EEF079
:10474000A3EFF0740C1217F91246078A828B83A329
:10475000A3A3A3A3A3A3123B30901B0DE0F9121255
:1047600081022A6BF08A828B83A3A3A3A322C08237
:10477000C0839061907404F0A37448F0A37402F0B5
:104780009061807440F09061BC7403F09061877414
:1047900019F0906265741BF0906249E0C394139025
:1047A000619C40107409F09060667401F090619F04
:1047B0007428800D740BF0906066E4F090619F7433
:1047C0002CF01249597009C29190036D74678005ED
:1047D00090036D7461F01249AB902750E493F4603C
:1047E00006E493F9120A9B7905120DCB024BEDC03A
:1047F00082C083E9540FF9906185E0696012E5C6D3
:1048000054B84441F5C6E59E5447644170F8E9F058
:1048100053C6B8E59E544770FA024BEDC082C08380
:10482000A8A853A87E906181E4F0A3F0A3F0C2BAD7
:10483000539AFEC289759B00C2C275E9007591004A
:1048400075BF0075A91175B905906181F0A374C099
:10485000F0A3E4F0D2BA439A0174805842A8024B04
:10486000EDF0024BEDC082C08374F81217AD9003D7
:104870006B125F6D700302495190036BE05440600E
:10488000177908AA18AB19120BA9AA18AB191208A4
:104890001990036BE054BFF0E054806010790C7AFB
:1048A000197B07120BA990036BE0547FF0E0A2E0A4
:1048B000501E1249597009C29190036D74678005AA
:1048C00090036D7461F012081F90036BE054FEF0CA
:1048D000E05402601E12499E7009D29190036D74DB
:1048E00071800590036D746AF012081F90036BE0ED
:1048F00054FDF0E0540460109027541249AE1208A1
:104900002590036BE054FBF0E054086010902755AD
:104910001249AE12082590036BE054F7F0E05410F2
:10492000600D1249AB12082590036BE054EFF0E0E4
:104930005420600A12082590036BE054DFF0A3E0D6
:104940005401600D120AB912082B90036CE054FE5A
:10495000F074081217C3024BED90619A124BA090AD
:1049600006F3E0640122C082C083E9600514601789
:1049700080291249597009C29190036D7467801A99
:1049800090036D7461801312499E7009D291900357
:104990006D7471800590036D746AF0024BED906147
:1049A0009A124B929006F3E0640122902756E4930A
:1049B000906186F02274EA12181D74F41217AD90FB
:1049C00082D8AC18AD1974041216C090275493F411
:1049D0006003024B27907808E0C394025003024B17
:1049E0000B90821F740412181374081216C0A818B2
:1049F000A91988148915740412180388088909AE46
:104A000008AF097510FF7511FF750EFF7C00750C5E
:104A100048750D78801274086C7003024AA17409FD
:104A20006C607E740A6C6079850C82850D837808D1
:104A30001216658E828F83A909E50AC9F888127457
:104A4000187808121580E5124508F8C3E098A3E02D
:104A500099850C82850D83780812166540188E8220
:104A60008F8374187808121580E5124508F8E0C3A2
:104A700098F8A3E0801A74187808121580E512459A
:104A800008FAE9FB8E828F831252C2EAC398F8EBD0
:104A900099F9C3E89510E995115006881089118C91
:104AA0000E0CE50C2404F50C5002050DECC3941318
:104AB0005003024A1674FF6510700474FF6511609C
:104AC00024850E087402780812179A74482508F590
:104AD0008274783509F58378081216658514828505
:104AE0001583E508F0EE2402FE50010F851482853F
:104AF0001583A3858214858315740C1217F9E5823A
:104B00006E7003E5836F6003024A0375080175093F
:104B1000007808121A3074021218137AD57B091221
:104B2000115B74021217C3740C1217C37F0E0218A4
:104B3000EFC082C0839061AE7468F0A3746AF09095
:104B4000624574FBF0A304F053F4FD43FE029006AB
:104B5000F37401F09061A0E0643A90619A701912C8
:104B60004BA0740164017009C29190036D74678059
:104B70001E90036D74618017124B92740164017072
:104B800009D29190036D7471800590036D746A026F
:104B90004861743FF0A3745AF09061A0747FF022D2
:104BA0007433F0A37455F09061A0743AF0227F043E
:104BB0000218EFC082C0839006D1E06401701190AA
:104BC00006D7E064016019E07006A3E0640160109C
:104BD0009006E8E06401700C9006EEE06401700459
:104BE000790C800279008005E0F91226CAD083D0C2
:104BF00082020132E0C4333354C022888289831296
:104C00005183A882A983222414F582E438F58322F3
:104C1000C082C0839006DB7425F09006D97401F041
:104C2000A3E4F07A01FB120D47124C5C241AF582C2
:104C3000E438F58374DDF0A3740AF09006D8E064DC
:104C40000170169006D7E070107901120DA7120DB1
:104C500077120DA17900120DB3024BED9006C71229
:104C60004FE52274F612181D74FA1217AD9006D093
:104C7000E064017008120AC59006D0E4F075E1F115
:104C8000124C5C2415F582E438F5837401F090062B
:104C9000D2E06401704B90823AAC18AD19740612E0
:104CA00016C075D90D9006C9124BF44403F5D97599
:104CB00082CA75830612517FE58264D07004E58351
:104CC000640670F1A818A919124BFB74061217F9A3
:104CD000E582687003E5836970EE75E1957901807E
:104CE000027900120D4D901B31124D497445F0A30D
:104CF000740CF0A3124D49124D49124EB7744BF08B
:104D0000A3740C124ECC9006C9E0F97ACA7B061245
:104D10000D299006DBE0F91226CA7901120D539095
:104D200082DC121683120D6B9082C0121683120D54
:104D3000357900120DBF124C5C124C077416F090BE
:104D400003697405F0040253E4743FF0A3740CF09B
:104D5000A32274F712181D8908A808E875F00CA49E
:104D6000C8AAF02AF9749928FE740339FF9006E066
:104D7000E0F97AE17B06120D299006EEE0702579C4
:104D800000120D89EE240BF582EF3401F583E070FB
:104D900004790080027901EE2405FAEF3401FB1258
:104DA0000D2F80057901120D8975E1F175D92390D8
:104DB00006E0124BF44405F5D97582E175830612BD
:104DC000517FE58264E77004E583640670F175D96C
:104DD0000075D90075D90075D90075D90075D9004D
:104DE000EE24221252381252577003E9658370F68E
:104DF000EE24261252432403F8E43583F912525765
:104E00007003E9658370F6EE242B12524C242C12A9
:104E1000524C242D12524C242E12524C242F12523A
:104E20004C243012524C243112524C243212524C27
:104E3000243312524C245D1252432405F8E4358386
:104E4000F91252577003E9658370F6EE2437125D4C
:104E5000EC541FF8EE242A125DECC43354E048F5FC
:104E6000D975E195901B31740FF0A3740CF0A37405
:104E700015F0A3740C124EAE741BF0A3740C124EFA
:104E8000CC9006EDE0F91226CA9082DC121683124D
:104E90000D6B9082C0121683120D3590600DE4F0F8
:104EA0007901120DBF9003697406F0025620F0A339
:104EB000124EB7124EB722124EBB227409F0A374E1
:104EC0000CF0A37409F0A3740CF0A322124ED022AC
:104ED000F0901B3F124EDCA3124EDC22124EBB742C
:104EE00009F0A3740CF02274EC12181D9006DE1267
:104EF0005A4278101216659006EFE0FAF875F00C39
:104F0000A4C8ACF02C125BBEFFEE2EFEEF33FF8E7A
:104F10000CF50D750E00750F0085100885110985BB
:104F2000120A85130B9082CC78081215CB780812E0
:104F30001A2C85100885110985120A85130B78082B
:104F4000790C1215B87810790C121511E4F50EF5DC
:104F50000F7808790C1215F18A0C750D007403781E
:104F60000C12179A7808790C1215B89082C4780838
:104F700012162CAA08AB09AC0AAD0B1226627404F7
:104F80001217C38A088B09A808A909C3EE98EF99DC
:104F90005006E82EF8E93FF9E890600EF0E9A3F03A
:104FA000EEA3F0EFA3F090600D74C1F07F0C021837
:104FB000EFC082C0839006C7124FD19006DB024B30
:104FC000E8C082C0839006DE124FD19006ED024BFE
:104FD000E8124FE5124FDBF0A3F0222406F582E43D
:104FE00038F583E422E0F8A3E0C82202013274F627
:104FF00012181D1251886004780480027800E82499
:105000000EF8ECC39850030250BC7C0C9006F9E4F7
:10501000F0EA2476F582E43BF583E09006FAF0EAC4
:1050200024771250C19006FB1250CB9006FCF0EA98
:1050300024791250C19006FD1250CB9006FEF0EA82
:10504000247B1250C19006FF1250CB900700F0EA6B
:10505000247D1250C19007011250CB900702F0EA54
:105060002474F8E43BF98A828B83A3A3A3A3A3E06F
:10507000FEA3E0FF88828983E02EF0A3E03F125771
:10508000659007031250CB9007041251AC6017755E
:1050900008F97509067808121A307903120BFD74A5
:1050A000021217C37C101253F2ECFE12517FDEFB8A
:1050B00075E1957904120D7179018002790002532E
:1050C000E7F8E43BF988828983E02212576AA3E07B
:1050D0002274F612181D1251886004780480027838
:1050E00000E8240AF8ECC398500302517A7E089035
:1050F00006F97401F07CBD7D0678FA79067F051209
:105100005196A882A983DFF7EA2480FCE43BFD8A5C
:10511000828B83A3A3A3A3A3E0F508A3E0F5098CE6
:10512000828D83E02508F0A3E03509F0125196083E
:10513000A9838C828D83E0888289831251AC6019A7
:105140007508F97509067808121A307C0879031277
:105150000BFD74021217C37E0C74012EF5D975D99C
:10516000037582F9758306EEFF12517FDFFB75E14F
:10517000957904120D717901800279000253E712CA
:10518000518322E0F5D9A3229061D0E0F87480C366
:1051900098FC1251B12212519A228C828D83E088A0
:1051A000828983125FAA88828983A322F01251B177
:1051B00022EA2482F582E43BF583E02274F7121898
:1051C0001DEAFEEBFF9061D0E0706875D91875D9C3
:1051D0000375D903EE249B12525E1252577003E9F5
:1051E000658370F6EE24A312524C24A412524C2470
:1051F0009312525E1252577003E9658370F6EE24E3
:10520000871252381252577003E9658370F675E1C0
:10521000957908EE2493FAE43FFB120B9D7904EE96
:105220002487FAE43FFB120B9D7904120D7112538F
:105230006C800279000256201252432404F8E435AF
:1052400083F922F582E43FF583E58222F582E43F8B
:10525000F583E0F5D9EE22125183E86582221252DD
:10526000432408F8E43583F92274F612181DEAFE87
:10527000EBFF9006F97406125315121A307C01796F
:1052800003120BFD74021217C375D90675D9037585
:1052900082F975830612530D7004E583640670F578
:1052A00075E195900369E064087010EE246FF58253
:1052B000E43F1252C0EE2471125D7B79010253E784
:1052C000F583125F792274F612181DEAFEEBFF9047
:1052D00061D0E070339006F9740A125315121A3037
:1052E0007C017903120BFD74021217C375D9067580
:1052F000D9037582F975830612530D7004E5836432
:105300000670F5125369800279000253E712518347
:10531000E58264FE22F07508F975090678082274A2
:10532000F612181DEAFEEBFF9061D0E070367801AE
:105330009006F9740BF0900369E064077019750822
:10534000F97509067808121A307C017903120BFDF1
:1053500074021217C378051255B412517FDAFB128A
:105360005369800279000253E775E195EE246F12CC
:105370005F73EE2471F582E43FF583E8F0A3E9F072
:1053800079012274F612181D1254B5600478048055
:10539000027800E8240BF8EAC39840447C099006A0
:1053A000F97408125401125410DDFB125DE9601B00
:1053B0007508F97509067808121A307903EEFAEFC4
:1053C000FB120BFD74021217C37C0D1253EC125426
:1053D000AD70FB75E1957904120D7112536C80026A
:1053E000790080031217C37F020218EF1253F28C68
:1053F000082274012CF5D975D9037582F9758306D5
:1054000022F0EE24E4F8E43FF97AFA7B067D0822E4
:1054100088828983E08A828B8312576AA3A882A933
:10542000838A828B83A3AA82AB832274F612181D0F
:105430001254B56004780480027800E82408F8EA81
:10544000C398406478069006F9740CF0900386E0E7
:105450009006FAF0900387E09006FBF0900388E056
:105460009006FCF0900389E09006FDF090038AE03E
:105470009006FE125544601B7508F97509067808F8
:10548000121A307C067903EEFA120BFD7402121721
:10549000C3780A12553E1254AD70FB75E19579043C
:1054A000120D7112536C800279000253E71251837E
:1054B0001508E50822EAFEEBFF9061D0E0F8748061
:1054C000C398FA1255492274F612181D1254B56089
:1054D00004780480027800E82404F8EAC39840596C
:1054E00078029006F9E8F0EE24F6125DEC9006FAE8
:1054F000125544601B7508F97509067808121A30B0
:105500007C027903EEFA120BFD74021217C37806BF
:1055100012553E1254AD70FB75E195EE247312578F
:1055200056EE247F125756125753A3F07904120DEA
:1055300071EE240D12536F800279000253E7125569
:10554000BA880822F012554922EE2482F582E43FFF
:10555000F583E02274F612181D1251886004780455
:1055600080027800E82404F8ECC398404278029066
:1055700006F97407F0EA24F7F582E43BF583E0903E
:1055800006FA1251AC60197508F975090678081207
:105590001A307C027903120BFD74021217C37806CD
:1055A0001255B412517FDAFB75E1957901800279C9
:1055B000000253E71255BAE8FA22740128F5D975AA
:1055C000D9037582F97583062274F712181DE9FF55
:1055D000A2AFE433FEC2AF7C0080010C12567150C2
:1055E00010ECF8EA28F8E43BF9125CD76F70EC8015
:1055F00016EA246EF8E43BF9E0FCEA2CFAE43BFB03
:1056000012560EEF12575FEEA2E092AF8012EA241C
:105610006AF582E43BF58322F0EEA2E092AF7900D6
:105620007F010218EFC082C083A2AFE433FDC2AF96
:1056300012567914F07C00801DECF8EA28F8E43B5F
:10564000F9E8246B125CDAC0E0E8246AF582E439F8
:10565000F583D0E0F00C12567140DEEA246DF5823D
:10566000E43BF58374FF12569EEDA2E092AF024B2D
:10567000ED125679F8ECC39822EA246EF582E43BE9
:10568000F583E022C082C083A8A8C2AF12560EE9FB
:1056900012569EE8A2E7E433FAE8A2E780CEF0EAE9
:1056A0002469F582E43BF583E4F02274F312181DBB
:1056B000EAFEEBFFECFAEDFB8A828B83A3A3A3A3A4
:1056C000E0541FF0EE2436125756750A00EE245DA2
:1056D000FCE43FFD8A828B83E08C828D83F0750B26
:1056E00000E50A33333354F8F50C8A828B83E0F5F6
:1056F00008750900E50B780812177BE508A2E05051
:1057000027EE2436F8E43FF988828983E0F508EE35
:105710002508F508E43FF509E5082438F582E43565
:1057200009F583E50C12575F050B050CE50BC394D7
:105730000840B7050A8A828B83A3AA82AB838C8236
:105740008D83A3AC82AD83E50AC3940540867F05B3
:105750000218EFEE241DF582E43FF583E4F02212F7
:10576000576504F02212576AE022F088828983226A
:1057700074F712181D900395E06403700302590832
:105780007C0075829B758303E060030258F2ECF89D
:1057900075F00CA4C8AAF02AF9749928FA74033990
:1057A000FB8A828B83A3A3740112592AE4F0EC8A4A
:1057B000828B83A3A3A3A3F0125EF47401F0EA2406
:1057C00067F582E43BF5837401125924E4F0A312D7
:1057D0005924A3A312593A240FF582E43BF58374AC
:1057E00001F0EA243512590F241812593F241C12D3
:1057F000590F241D125933247F12590F2473125943
:105800000F2468F582E43BF583748012569EEA24E7
:105810006E12590F24EC12590F24ED12590F24EE79
:1058200012590F24EF12590F24F012593324F21297
:10583000593324F512590F248212590F24D21259C8
:105840000F24D312590F24D412593F24D812593F90
:1058500024DE12590F24E012590F24DC12590F24B0
:10586000E112590F24E212590F24F812593324FA85
:1058700012593324FC12593324FE125933240B12CB
:1058800059192405125919240612591924071259B5
:105890001924081259192409125919240A125919DC
:1058A00012560F74FF7804F0A3D8FCEA245DF8E4E4
:1058B0003BF97CBD7D0612595364C27003ED64064A
:1058C00070F4EA24E4F8E43BF97C7D7D031259533B
:1058D00064857003ED640370F4900395E004F06454
:1058E0000170298A828B83A3A3A3A3E0900397F07E
:1058F000801A0CE582240CF582E5833401F583ECF3
:10590000C3940350030257887A007B00025620F5A7
:1059100082E43BF583E4F0EA22F582EB3401F5837F
:10592000E4F0EA2212592AA3A322F08A828B83A3ED
:10593000A3A322F582E43BF583E4F0A3F0EA22F589
:1059400082E43BF58312594AEA22E4F0A3F0A3F083
:10595000A3F02212519AA882A983EC22C082C083AC
:105960008A828B83A3A3A3E0600F8A828B83A3A385
:10597000A3E4F0900396E014F0900395E014F07027
:105980000690039774FFF08A828B83A3A3E4F090C0
:1059900006C2E0700D900396E06401700579001274
:1059A0000D3B024BEDC082C083789B7903888289CE
:1059B00083A3E412576AF0125BA8E864BF7003E99E
:1059C000640670E9900395E4F0A3F0A374FFF0750A
:1059D000E1F1024BED74F512181D75080075090010
:1059E000750A007E997F038E828F83A3A3A3E06054
:1059F0002BE5084509601D850882850983125A42F6
:105A0000121A43125A3E12168312260674041217F3
:105A1000C3E97008EEF8EFF988088909050AEE2451
:105A20000CFEEF3401FFE50AC3940340BA850882F7
:105A3000850983A3A3A3A3E0F97F030218EF8E8255
:105A40008F83125F17A3A32274EE12181D8A0A8B8C
:105A50000B8C08890C900396E0F8E9C39850627AA1
:105A6000FF7BFF7C007899790388828983A3A3A3B5
:105A7000E0603F74FF6A700374FF6B700CE824737E
:105A8000125CDA640170218012E82473125CDA641B
:105A900001700DE82479125BB15017E82479800B6E
:105AA000E8242E125BB1500AE8242E125CDAFAA325
:105AB000E0FB0C125BA8ECC3940340ADEAFEEB8064
:105AC00018E96010A3E0F875F00CA4C8AAF02A1237
:105AD0005BBE8005EA2AFEEB33FF8E0E8F0F740348
:105AE000780E12178B900396E0F8C3E50E98E50F39
:105AF00094005003025B94E50A25E0F50AE50B33B8
:105B0000F50BE50825E0F508ED33F509AC0AAD0B1A
:105B10008007EC2402FCE43DFDC3E5089CE5099DFB
:105B20004060C3EC9EED9F403FECF8EDF9EEFAEFDC
:105B3000FB1217228B0FEA450F60068E0E8F0F8027
