:020000040000FA
:0600000002010702291DA8
:03002B00022D475C
:03003B00022D6D26
:03004300022D216A
:03005300022993EC
:10008300022773E5C754F84401F5C779012200003C
:100093000080FB120086B900030200F1E4792178A5
:1000A30008B800028004F709D8FCE479297802B87B
:1000B30000028004F709D8FCE49002817803791ADE
:1000C3008002F0A3D8FCD9FA7A837B1B900137789E
:1000D3003179028015E493A3AD82AE838A828B8348
:1000E300F0A3AA82AB838D828E83D8E9D9E7758288
:1000F300B47583DD740412011975829175830074DC
:100103000012011975D00075813F751881751902A8
:10011300759F00020096C09FF59FE473D09F22D085
:1001230083D082C09FE493C0E0740193C0E0740263
:1001330093F59F22590465049B049504FF0000B4C2
:10014300000028002800283075A000A000A000A00F
:100153000000080008E001F000100010001000107B
:10016300001000100050005000500010001000D08C
:10017300070000000000000F0001000500307507B4
:10018300001000010081FF00000000FFFFFFF705E2
:100193001506FD055706FF02020208025000A000E3
:1001A3000000E8030252830100004183025A8301E5
:1001B3000000E61B025C83010000C802025A8301AF
:1001C3000000E71B025883010000DE02025A83018C
:1001D3000000E81B024C83010000E002025A830185
:1001E3000000E91B024483080000E102025A830174
:1001F3000000EA1B024683010000EB1BFFFF010026
:10020300FF200252830100003E83025A8301000053
:10021300501C0248830000000000024A83030000D0
:1002230011031700191119111911191119111911A4
:100233001911191119111911191119111911591329
:10024300771353139D14AF149714544920424C450C
:1002530020416C6C00000000000000000000001151
:1002630000FFFF00120122C8BF04120122DBBF04FA
:1002730012012235C00412012256C004120122C108
:10028300C00412012202C10412012223C10412017B
:100293002244C10412012294C104120122D5C104D3
:1002A3001201226DC204120122B5C204120122E01E
:1002B300C20412012273B80412012286B804120187
:1002C30022B7B804120122F1B8041201224AB90478
:1002D30012012291B904120122D9B9041201220890
:1002E300BA0412012237BA041201226EBA041201AF
:1002F30022B5BA04120122CEBA0412012223BB048E
:100303001201223CBB041201228ABB04120122C443
:10031300BB04120122378C031201223A8D0312010E
:1003230022678D03120122AC8D03120122B88D03C3
:10033300120122DB8D03120122DD8D031201221231
:100343008E03120122158E03120122538E03120112
:1003530022898E03120122208F031201228C8F0324
:10036300120122549003120122709003120122A75A
:100373009003120122E190031201227891031201EA
:1003830022CA9103120122FB9103120122FE91035F
:100393001201222F92031201223C920312012254D2
:1003A3009203120122BE9203120122C1920312018F
:1003B30022CE9203120122D1920312012228930327
:1003C3001201222B93031201224E93031201226185
:1003D30093031201229A93031201229D93031201A4
:1003E30022B29303120122B593031201221794033D
:1003F3001201221A94031201226E94031201227134
:10040300940312012204950312012214950312018D
:100413002247950312012254950312012257950393
:10042300120122BF9503120122CC9503120122CEA1
:100433009603120122729703120122DB9703120122
:100443002219980312012287D7031201227FD803AE
:10045300120122B3D80312012249D90312012294B3
:10046300D903120122F8D90312012282DA031201FD
:10047300223BDB031201225DDE03120122DADF03DA
:10048300120122FDDF0312012218AC04120122BD66
:10049300AD04120122DDAD04120122FEAE041201ED
:1004A3002251AF0412012200800412012228800489
:1004B3001201225580041201228D8004120122EBC5
:1004C300800412012249820412012295820412013E
:1004D30022FC82041201223C830412012279830448
:1004E300120122A783041201225184041201225B08
:1004F30084041201226884041201229B84041201E1
:1005030022A78404120122BF8404120122C9840495
:10051300120122CFDA04120122DDDA04120122F5DC
:10052300DA041201220DDB0412012224DB0412017E
:100533002204EC01120122AEEC01120122C1ED01F1
:100543001201223DEE011201225BEF0112012297FB
:10055300EF011201222CF001120122C7F001120156
:1005630022ABF1011201226EF201120122E6F20125
:1005730012012274F401120122E5F4011201229FF7
:10058300F50112012291F601120122D1F6011201A5
:100593002285F701120122B7F701120122ADF901F9
:1005A300120122F4F90112012212FA011201227836
:1005B300FA0112012247FB011201220BFC01120175
:1005C300222AFE0112012234FE0112012234AF035A
:1005D3001201221EB003120122C9B0031201221319
:1005E300B103120122B0B103120122C9B1031201F6
:1005F30022E3B10312012293B20312012204B303D3
:10060300120122E9B3031201221DB40312012216BF
:10061300B50312012253B50312012214B6031201CA
:100623002278B603120122E2B60312012214B703A1
:100633001201227CB70312012206B90312012245DB
:10064300B90312012261B903120122FCD30412017E
:100653002280D404120122ABD404120122C5D50492
:1006630012012281B40412012297B404120122B5AB
:10067300B404120122C6B504120122D0B50412013A
:1006830022FBB604120122F2B7041201225FB8045E
:1006930012012269B804120122578504120122872C
:1006A3008604120122BE8604120122088704120165
:1006B30022CB88041201224FD00112012200D10162
:1006C30012012210D1011201226CD1011201220266
:1006D300D201120122C3D201120122F8D201120166
:1006E300222DD30112012244D301120122BDD301D1
:1006F300120122C7D301120122D9D3011201220D03
:10070300D4011201226AD401120122BDD4011201C3
:100713002212D5011201221DD50112012228D50171
:1007230012012243D60112012246D60112012249A7
:10073300D6011201224CD6011201224FD601120119
:100743002225D70112012202D8011201225FD8010A
:10075300120122BCD80112012237D901120122450C
:10076300DA01120122FCDA011201220ADE0112016E
:1007730022F9DF01120122ABE00112012274E1012F
:10078300120122B9E40112012263E5011201228C54
:10079300E60112012248E801120122E8E8011201F0
:1007A300223BE9011201227AE9011201224DEA01F9
:1007B30012012281EA011201220EEB0112012232FF
:1007C3009802120122BE9802120122229A021201F9
:1007D300222E9A02120122699A02120122E09A023F
:1007E300120122E99B02120122B09C021201220D86
:1007F3009E021201222B9E02120122489E02120126
:1008030022F59E02120122729F021201229A9F0276
:1008130012012264A20212012269A202120122829F
:10082300A402120122D0A40212012240A502120145
:10083300227EA5021201225AA6021201221AA7023F
:1008430012012266A70212012269A702120122AD38
:10085300A702120122F5A70212012234A8021201F3
:100863002256A8021201228AA802120122EDA8022E
:10087300120122EA9404120122F3940412012201C8
:100883009504120122549504120122739504120156
:1008930022B89504120122FC9604120122979704B0
:1008A300120122DB9704120122059804120122741B
:1008B3009804120122BA98041201223199041201F8
:1008C30022E29904120122B7B001120122C7B0013A
:1008D30012012268B101120122C4B1011201228165
:1008E300B2011201229DB301120122CFB301120101
:1008F30022FEB301120122ABB50112012222B8017B
:1009030012012292BA0112012284BB011201227D3B
:10091300BC0112012284BE0112012278C10112011D
:1009230022A7C201120122ABC401120122BBC501DD
:100933001201224AC7011201223BC8011201228976
:10094300C801120122F8C8011201221CC9011201B7
:10095300226DC9011201220ECE011201221DCF0107
:10096300120122E3CF0112012245BB021201224FE1
:10097300BB0212012294BB02120122A8BB02120184
:1009830022E0BB0212012229BC021201226ABC022C
:10099300120122ADBC02120122D7BC021201226055
:1009A300BD021201220BBE021201223ABE02120143
:1009B3002273BE02120122AEBE02120122E3BE0264
:1009C3001201220DBF0212012236BF02120122843C
:1009D300BF0212012299BF02120122AEBF0212010D
:1009E30022C3BF02120122EBBF021201222EC00258
:1009F30012012243C002120122AEC002120122C21E
:100A0300C002120122E1C002120122F5C00212014A
:100A1300220AC1021201221FC10212012233C102A2
:100A230012012277C102120122CDC1021201220753
:100A3300C2021201222BC20212012257C202120168
:100A43002285C202120122AFC202120122C4C202D3
:100A5300120122D9C20212012209C3021201225336
:100A6300C302120122B5C302120122F0C302120112
:100A7300221BC40212012246C402120122B1C40283
:100A8300120122EEC40212012219C50212012249E7
:100A9300C50212012280C502120122AAC502120157
:100AA30022E2C5021201220CC60212012249C60229
:100AB30012012273C602120122A3C602120122CD21
:100AC300C602120122F7C60212012222C702120134
:100AD300224BC7021201229CC702120122E2C70263
:100AE3001201220DC8021201226DC80212012298BE
:100AF300C802120122C8C8021201220BC902120144
:100B03002235C9021201225AC902120122E1C90285
:100B130012012265DE04120122C1D7041201225FF1
:100B2300F30212012242F402120122BDF402120165
:100B330022F8F40212012249F602120122D2F6022D
:100B4300120122EAF8021201227CFB021201222E78
:100B5300FC021201223AFD02120122ADFE02120131
:100B63002206FF02120122AFFF02120122C78F04E5
:100B73001201220A90041201228E900412012261B2
:100B830091041201223894041201225AA30412017F
:100B93002207A4041201223BA40412012251A4043B
:100BA30012012244A50412012296A504120122CDAA
:100BB300A5041201220CA60412012266A604120146
:100BC3002293A604120122CFA60412012221A70414
:100BD30012012262A70412012293A704120122DF49
:100BE300D10412012242D204120122DFD2041201E3
:100BF3002200D30412012242D30412012272D3042D
:100C030012012293D304120122CED304120122EE45
:100C1300D304120122F49904120122809A041201CE
:100C2300223F9B04120122579C04120122719E044D
:100C3300120122008003120122258003120122F2F5
:100C43008003120122C6810312012233820312019F
:100C5300228982031201222583031201225984036C
:100C63001201223485031201229385031201221FEC
:100C730086031201228D86031201221987031201B2
:100C8300221C87031201223887031201223B8703A8
:100C93001201225D8703120122FC87031201226ED7
:100CA3008803120122008903120122A18903120180
:100CB30022C18903120122098A03120122528A03E3
:100CC3001201226E8A03120122948A031201220E58
:100CD3008B031201221C8B03120122AB8B03120123
:100CE30022148C03120122CCA70412012251A8045E
:100CF30012012293A80412012277A904120122E40B
:100D0300A90412012228AA041201226CAA041201C6
:100D13002299AA04120122C1AA04120122F9AA04E7
:100D230012012237AB041201225EAB04120122D856
:100D3300AB041201225F83011201225885011201C3
:100D430022458801120122998801120122C48801D7
:100D53001201229D8901120122D889011201220860
:100D63008A011201221B8A011201225C8A011201EB
:100D7300229E8A01120122AD8A01120122DA8A011E
:100D8300120122288B01120122578B01120122C763
:100D93008B01120122F58B01120122278C01120112
:100DA300224A8C01120122E98C01120122208D01B9
:100DB300120122A38D01120122028E011201228748
:100DC3008E011201221E910112012254920112017D
:100DD30022C19201120122399301120122219501AC
:100DE3001201225D9501120122DB9601120122FC00
:100DF30096011201224197011201224A9801120120
:100E030022FF9901120122829A01120122F19A0111
:100E13001201222DA00112012285A0011201225BE1
:100E2300A20112012258A3011201221DA5011201E0
:100E3300225BA5011201225DA5011201225FA5011A
:100E430012012264A50112012266A50112012211D9
:100E5300A601120122DFA60112012207A701120136
:100E63002232A7011201225DA7011201228AA701E2
:100E7300120122AFA701120122CEA701120122FB08
:100E8300A70112012271A801120122EBA80112018C
:100E93002233A90112012255A90112012260AA01DC
:100EA30012012226AB0112012257AB01120122B615
:100EB300AB01120122D6AB01120122E3AC011201F4
:100EC300220CAD01120122B2AD011201223CAE018E
:100ED30012012267AE01120122ADAE01120122E618
:100EE300AE0112012208AF0112012235AF01120136
:100EF3002283B00112012294B0011201226ECF04A9
:100F030012012259D0041201229CD004120122EBB7
:100F1300D0041201223CD1041201228DD10412010A
:100F230022E8CD0312012261CE031201221BD40356
:100F330012012226D503120122CFD6031201225D0C
:100F4300D703120122B160001201223261001201A3
:100F5300225F6100120122A46100120122B6610026
:100F6300120122B76200120122FC62001201222840
:100F73006300120122596300120122D56400120199
:100F830022576500120122A6650012012211660094
:100F9300120122C56600120122626700120122DDDE
:100FA3006700120122676800120122BA6800120169
:100FB30022026A00120122816B001201224C6C0092
:100FC300120122596C00120122A96C00120122B9EC
:100FD3006C00120122DD6C00120122E06C00120190
:100FE30022C96D00120122AB6E001201224D6F0067
:100FF300120122E86F001201220F70001201226C0D
:101003007000120122C3700012012211710012013B
:10101300225F7100120122C871001201226A72005C
:101023001201220673001201229373001201220897
:101033007400120122587400120122B774001201C5
:1010430022DE74001201229F7500120122E2750054
:10105300120122CE770012012217780012012249D1
:101063007800120122C078001201224A7A0012018C
:1010730022FE7A00120122237B00120122627B00EE
:10108300120122777B00120122BA7B001201222A6D
:101093007C001201226B7C00120122807D00120170
:1010A30022017E001201221AC40312012265C40325
:1010B30012012271C40312012245C5031201225CED
:1010C300C50312012299C503120122CAC5031201E5
:1010D30022FBC50312012233C60312012289C60370
:1010E3001201229FC603120122DBC603120122EE64
:1010F300C60312012215C70312012249C7031201B5
:10110300226FC803120122B9C903120122B5CA030F
:10111300120122CBCB03120122FDFF011201229AFD
:101123008A04120122488E041201227C8F041201C8
:10113300223F9803120122F89A03120122FE9A0316
:10114300120122AF9D0312012209A003120122A85A
:101153009E041201223F9F04120122FD9F041201EB
:101163002227A0041201225DA204120122008002A0
:101173001201223B8002120122808C02120122EC16
:101183008D02120122E98E021201226E92021201D5
:1011930022679302120122B39302120122CD93021A
:1011A3001201220A94021201221594021201221E34
:1011B3009402120122D09402120122A0950212017C
:1011C30022E795021201224D9602120122BF9602D6
:1011D300120122C5A90212012208AD021201220E38
:1011E300AD02120122CAB302120122EAB7021201AE
:1011F30022B0C9041201228DCA04120122D1CA04E9
:101203001201220BCB04120122A3CB0412012212DE
:10121300CC041201221BCC0412012227CC0412019C
:101223002241CC041201226BCC041201229BCC0478
:10123300120122D5F003120122E2F003120122FC73
:10124300F0031201222FF1031201226DF1031201A7
:1012530022D2F103120122E7F103120122F2F10378
:10126300120122FFF10312012216F20312012224BA
:10127300F20312012233F20312012248F203120194
:10128300225DF20312012268F20312012274F203B7
:1012930012012281F20312012290F2031201229B16
:1012A300F203120122C0F203120122C5F20312015A
:1012B300225CF303120122C4F303120122D4F303C9
:1012C300120122E9F303120122FEF3031201221891
:1012D300F40312012235F40312012252F403120122
:1012E300225DF40312012209F503120122EAF50338
:1012F30012012206F6031201221DF603120122280F
:10130300F6031201223DF60312012251F6031201E4
:1013130022B2F603120122B8F603120122BEF6032B
:10132300120122C4F603120122D8F603120122FF8E
:10133300F6031201223AF70312012253F7031201B3
:101343002295F703120122C8F703120122C2B9033F
:10135300120122E4B903120122ACBA03120122667C
:10136300BD031201227CBE031201229DBF031201A1
:101373002277C00312012226C103120122A5D8023B
:101383001201223CD902120122D4D902120122C431
:10139300DA02120122FBDA021201220EDB0212012F
:1013A300227CDB0212012217DD021201223EDD0242
:1013B300120122E0DD0212012215DE0212012226B1
:1013C300DE021201229FDE02120122C0DE0212019E
:1013D30022D8DE0212012230E00212012239E20297
:1013E30012012289E4021201228CE502120122DB9E
:1013F300E50212012209CA0212012206CB021201DE
:1014030022F1CB02120122FBCB0212012205CC02F4
:1014130012012227CC0212012233CC0212012285AF
:10142300CD02120122B4CD02120122E4CE02120136
:101433002226CF0212012252D00212012228D10207
:101443001201227AD102120122D9D10212012210F1
:10145300D2021201224BD202120122E6D50212015C
:1014630022FFD50212012281D6021201228FD60257
:10147300120122E4D602120122F2D6021201225FE5
:10148300D702120122D1D70212012217D802120168
:101493002224A40312012246A40312012230A6032C
:1014A300120122D5A90312012218AB03120122F261
:1014B300AB03120122377E001201225C7E0012016F
:1014C30022CD7E0012012220E10312012229E10331
:1014D30012012232E10312012263E203120122828A
:1014E300E403120122B8E403120122F2E40312011D
:1014F3002228E50312012262E50312012296E50385
:10150300120122C2E5031201220BE6031201224556
:10151300E6031201228DE603120122E3E603120120
:101523002218E70312012273E703120122ADE70336
:10153300120122FEE70312012234E8031201226E94
:10154300E8031201229CE803120122BFE8031201FF
:101553002228E6021201225BE6021201229EE60223
:10156300120122A9E602120122B4E602120122BFED
:10157300E602120122CAE60212012234EA02120131
:101583002213EB021201228CEB0212012203EC0262
:1015930012012210EC021201221DEC021201222779
:1015A300EC0212012231EC021201223BEC02120185
:1015B3002248EC0212012258EC021201229EEC0294
:1015C300120122C2EC02120122CFEC02120122DF2D
:1015D300EC02120122E9EC02120122F3EC021201E5
:1015E30022FDEC021201220AED0212012214ED0285
:1015F3001201221EED0212012228ED0212012232F3
:10160300ED021201227AED0212012297ED0212017C
:1016130022B4ED02120122C4ED02120122CEED0228
:1016230012012229EE0212012236EE02120122F8E1
:10163300EE0212012202EF021201220CEF0212014A
:101643002216EF0212012233EF0212012250EF029F
:10165300120122C7EF02120122D1EF02120122DE90
:10166300EF02120122EBEF021201220CF00212012F
:101673002215F0021201225AF00212012268F0022E
:101683001201228AF00212012293F002120122A215
:10169300F002120122BAF002120122C3F002120177
:1016A3002251F10212012269F10212012279F1029F
:1016B30012012289F10212012293F102120122A3E3
:1016C300F102120122B3F102120122D2F10212013C
:1016D30022DFF102120122ECF102120122FCF102DB
:1016E30012012209F20212012226F202120122360B
:1016F300F20212012246F20212012256F2021201F2
:101703002287F20212012291F202120122A1F202B5
:10171300120122B1F202120122BEF202120122E3ED
:10172300F202120122F0F20212012200F30212016C
:10173300220AF30212012217F30212012221F302F9
:1017430012012231F3021201223BF302120122455C
:10175300F30212012255F302120122C6DC04120124
:1017630022F4D50412012258D60412012207D70409
:1017730012012226D7041201227AD704120122E78A
:10178300FF02120122B9DE04120122F8DE04120163
:1017930022ED7F001201224CDC041201225CDC04E6
:1017A30012012274DC04120122BDDC04120122D5D1
:1017B300D80412012259D904120122BFD9041201FB
:1017C30022FAFF01120122C9CC04120122DECC0449
:1017D300120122E2CD0412012256CE04120122701C
:1017E300CE0412012287CE041201229ACE041201E2
:1017F30022B2CE04120122C7CE04120122E8CE0483
:1018030012012239CF041201222CBC0412012243FB
:10181300BC04120122BCBC0412012291BD041201BA
:101823002263BF0412012284C60412012214C704D6
:1018330012012292C70412012212C804120122A427
:10184300C804120122F6C80412012200C9041201BD
:10185300220FC90412012225C90412012238C90426
:1018630012012299C904120122ADC904120122E016
:101873002D00120122762E00120122312F001201B7
:1018830022512F001201228C3000120122DF31007D
:101893001201228F3200120122973C001201228F83
:1018A3004400120122D34D001201223D4F001201C8
:1018B30022DE59001201227D5A00120122E35B004D
:1018C300120122555F001201221360001201224E01
:1018D30060001201226A60001201220DDE0412016F
:1018E30022B4DB041201221FDC041201222ADC04CD
:1018F3001201223ADC0412012245DC041201220205
:10190300DF041201222BDF041201224AF803120121
:101913002254F80312012294F803120122DDF80382
:1019230012012217F9031201226DF9031201228C0D
:10193300F90312012295F903120122E6F9031201B8
:10194300220FFA0312012224FA031201222DFA03B1
:101953001201229DFA031201222BFB031201226FB3
:10196300FB0312012297FB0312012216FC0312014F
:101973002259FC0312012296FC03120122B5FC0337
:10198300120122BEFC0312012283FD03120122CDA8
:10199300FD031201223EFE011201228FFE011201FC
:1019A3002218FF011201227EFF0112012229C30422
:1019B30012012253C3041201224DC40412012272E4
:1019C300C40412012213C50412012299C504120191
:1019D30022D8D90412012210DE04120122F9FD03D8
:1019E3001201222FFE0312012268FE03120122C1FB
:1019F300FF031201223EDD0412012254DD04120111
:101A0300225EDD041201224DE9031201220AEA03D8
:101A130012012245EA031201226DEA03120122CFC9
:101A2300EA031201221BEB031201227BEB031201D7
:101A3300220CEC0312012208ED0312012295EE039E
:101A430012012218EF031201227CEF0312012293E9
:101A5300EF0312012289F0031201225EB004120186
:101A63002273B00412012226B10412012266B104CA
:101A73001201227FB104120122B2B104120122FF2A
:101A8300B10412012233B20412012275B20412010D
:101A93002274B4041201222EDF04120122DCFF019E
:101AA300E066701008A3E066700A08A3E06670049D
:101AB30008A3E06622C3E7960809E7960809E796B4
:101AC3000809E79622C3E09608A3E09608A3E096E8
:101AD30008A3E09622C008C3E096F50808A3E096A1
:101AE300420808A3E096420808A3E096450870015F
:101AF300D3D00822080808EAC0E0EBC0E086F0E78C
:101B0300A4FA180986F0E7A42AFA180986F0E7A4CC
:101B13002AFA180986F0E7A42AFA1986F0E7A4FB43
:101B2300E5F02AFA190886F0E7A42BFBE5F03AFA68
:101B3300190886F0E7A42BFBE5F03AFA1818098692
:101B4300F0E7A4C5F02BFBE43AFA1908E7C5F0C6A1
:101B5300A426F6E5F03BFBE43AFA1886F0E7A4F690
:101B6300E5F00826F6E43B08F6E43A08F6D0E0FB95
:101B7300D0E0FA22E4CFC0E0E4CEC0E0E4CDC0E0A0
:101B8300E4CCC0E075F020E626F608E633F608E676
:101B930033F608E633F6181818EC33FCED33FDEE94
:101BA30033FEEF33FFC3EC9709ED9709EE9709EF87
:101BB30097191919400FFFEC97FC09ED97FD09EEF2
:101BC30097FE191906D5F0BFECF709EDF709EEF703
:101BD30009EFF7191919D0E0FCD0E0FDD0E0FED0F1
:101BE300E0FF226016080808C6C313C618C613C64A
:101BF30018C613C618C613C6D5E0EA22700908082A
:101C030008226016181818C6C333C608C633C60898
:101C1300C633C608C633C6D5E0EA22E627F6080966
:101C2300E637F60809E637F60809E637F622E0262E
:101C3300F608A3E036F608A3E036F608A3E036F686
:101C430022E026F008A3E036F008A3E036F008A36C
:101C5300E036F022C3E697F60809E697F60809E6A8
:101C630097F60809E697F622C3E096F008A3E096F4
:101C7300F008A3E096F008A3E096F022E657F608F2
:101C830009E657F60809E657F60809E657F622E08B
:101C930056F608A3E056F608A3E056F608A3E05666
:101CA300F622E056F008A3E056F008A3E056F00849
:101CB300A3E056F022E046F608A3E046F608A3E0C8
:101CC30046F608A3E046F622E066F608A3E066F6C9
:101CD30008A3E066F608A3E066F622E0F608A3E0B0
:101CE300F608A3E0F608A3E0F622E6F008A3E6F080
:101CF30008A3E6F008A3E6F022E0FAA3E0FBA3E0E2
:101D0300FCA3E0FD22EAF0A3EBF0A3ECF0A3EDF0DB
:101D130022E0F8A3E0F9A3E0FAA3E0FB22E8F0A3B2
:101D2300E9F0A3EAF0A3EBF022CAC0E0E6F0A308CF
:101D3300DAFAD0E0FA22CAC0E0E0A3C582CCC582B9
:101D4300C583CDC583F0A3C582CCC582C583CDC56C
:101D530083DAE6D0E0CA22C3E498F8E499F9121DC5
:101D63009B8026C3E49AFAE49BFBE920E7E9121D72
:101D73009BE498F8E499F922C3E498F8E499F912FA
:101D83001D9BE498F8E499F9C3E49AFAE49BFB22D7
:101D9300EB20E7CFE920E7E0B90010BB0008E88AB1
:101DA300F084F8AAF022E4FBC8FA22EB70227B103D
:101DB300C833C8C933C9335007C39AC3DBF280069B
:101DC3009A50012ADBEAC833F4C8C933F4C9FA22AA
:101DD30075F008E4C833C8C933C933C99AC99B50DD
:101DE30004C92AC93BD5F0ECFBC833F4C8E4C9FAEB
:101DF30022600D08C6A2E713C618C613C6D5E0F3C2
:101E030022600C08C6C313C618C613C6D5E0F42255
:101E1300700422600D18C6C333C608C633C6D5E0A6
:101E2300F41822251810AF08F518400C151980086E
:101E3300F51840021519D2AF2200C0D0251810AFF3
:101E430008F518500C05198008F51850020519D229
:101E5300AFD0D0222518F58210AF08F518400C1525
:101E6300198008F51840021519D2AF851983222568
:101E730018F582E43519F583222518F8E43519F9A4
:101E8300222518FAE43519FB222518FCE43519FD3F
:101E930022E4732518C582C0E0E51934FFC583C069
:101EA300E0E518C3958224F810AF0885831985826D
:101EB300188008858319858218D2AFCEF0A3E52058
:101EC300F0A37808E608F0A3DEFAEFF0A3E5812497
:101ED300FAF8E608F0A3E608F0A3E608F0A308087A
:101EE300E608F0A3E608F0A315811581D0E0FED043
:101EF300E0F8158115811581E8C0E0EEC0E02225E8
:101F030018C582C0E0E51934FFC583C0E0E518C3F6
:101F1300958224F910AF0885831985821880088576
:101F23008319858218D2AFCEF0A3E520F0A37808F9
:101F3300E608F0A3DEFAEFF0A3E58124FBF8E60858
:101F4300F0A3E608F0A30808E608F0A3E608F0A368
:101F530015811581D0E0FED0E0F815811581E8C028
:101F6300E0EEC0E022851983851882E0A3FEE0A39A
:101F7300F5207808E0A3F608DFFAE0A3FFE0A3C0AA
:101F8300E0E0A3C0E0E0A3C0E0E0A3C0E0E0A3C0C2
:101F9300E010AF088582188583198008858218852B
:101FA3008319D2AFD083D08202011F85198385188C
:101FB30082E0A3FEE0A3F5207808E0A3F608DFFAA9
:101FC300E0A3FFE0A3C0E0E0A3C0E0E0A3C0E0E043
:101FD300A3C0E010AF088582188583198008858225
:101FE30018858319D2AFD083D08222C0D02518C5DB
:101FF30082C0E0E51934FFC583C0E0E518C39582CC
:1020030024F310AF08858319858218800885831906
:10201300858218D2AFC8F0A3E9F0A3EAF0A3EBF0EE
:10202300A37908E709F0A3D8FAECF0A3EDF0A3EE47
:10203300F0A3EFF0A3D0E0F0A3D0E0F0A3D0E0F062
:10204300A3E520F0A3E5F0F0A32285198385188288
:10205300E0C0E0A3E0F9A3E0FAA3E0FBA37808E083
:10206300F608A3DFFAE0FCA3E0FDA3E0FEA3E0FF94
:10207300A3E0C0E0A3E0C0E0A3E0F5D0A3E0F52037
:10208300A3E0A3F5F010AF088583198582188008B3
:10209300858319858218D2AFD082D083D0E0F8D05F
:1020A300E03274048006740280027401C0E0F40418
:1020B300121E57D0E0121D2C227404800474028077
:1020C30000CCC0E0EDC0E0E518C39CCCAD195001D5
:1020D3001D10AF068C188D1980068C188D19D2AF80
:1020E300121D39D0E0FDD0E0FC22D083D082C5F0B0
:1020F300E493A3C5F0C395F0F5F0E493A3C395F07F
:102103004005E5F0048001E475F002A42582F58220
:10211300E5F03583F583E493A3C0E0E493C0E022C4
:10212300D083D082E9C0E0E493A3C386F0C5F095E1
:10213300F0F908E493A386F0C5F095F0700BE493EF
:10214300A3C3994005E9048002A3E475F002A42522
:1021530082F582E5F03583F583D0E0F9E493A3C0FB
:10216300E0E493C0E022D083D082CCC0E0E493A328
:1021730060061221931470FAE493A360061221B24D
:102183001470FAD0E0FCE493A3C0E0E493C0E0222F
:10219300C0E0E493A3D39C5010E493A3C39C400AF0
:1021A300D0E0D0E0D0E0022186A3A3A3D0E022C0F8
:1021B300E0E493A36C7009D0E0D0E0D0E002218684
:1021C300A3A3D0E022D083D082ECC0E0EDC0E0E452
:1021D30093A3FCE493A3FDED4C600D122214EC24B5
:1021E300FFFCED34FFFD80EFE493A3FCE493A3FD38
:1021F300ED4C600D122253EC24FFFCED34FFFD8007
:10220300EFD0E0FDD0E0FCE493A3C0E0E493C0E0B2
:1022130022C0E0C3E49396087401939618400FE438
:102223009366700808740193661870007019A3A36D
:10223300C3E49396087401939618A3A3400DD0E0CA
:10224300D0E0D0E0022204A3A3A3A3A3A3D0E0225F
:10225300C0E0C0F088F0E4936670080874019366E8
:10226300187000A8F0A3A3700BD0F0D0E0D0E0D09A
:0B227300E0022204A3A3D0F0D0E02280
:1022800074F6121F02EAFEEBFF8C088D09EE24346F
:10229000F8E43FF9E8FCE9FDEE24351225C3FAEE37
:1022A00024371225C3F88508F0A4C885F00A8509EB
:1022B000F0A4250AF9EA28F8E439F97A257B001216
:1022C0001D9BEA8C828D83F0FA131313541FF8EED2
:1022D00028F8E43FF9E8245DF582E439F583E0C0AD
:1022E000E074075AF8D0E0B800028004C313D8FCA9
:1022F000A2E0EE50082434F582E43F801824361220
:1023000025C3F5F0EA84A8F0EE28F8E43FF9E824C4
:1023100038F582E439F583E0F97F03021FAE74F7E4
:10232000121F02EAFEEBFFEE24341225C3C0E0EEDA
:102330002435F582E43FF583D0E0F08E828F83A3CD
:10234000A3A3A3A3A3A3C082C0838E828F83A3A3CE
:10235000A3A3A3122423D083D082E0C398F508A3BB
:10236000E099F509EE247F1225C36401705DEE2427
:102370008012241D8E828F83A3A3A3A3A3A3A312E1
:1023800027668E828F83A3A3A3A3A3E0FAA3E0FB17
:10239000C3EA9CEB9D5010C3EC98ED99402DC3EA25
:1023A00098EB995026800EC3EA98EB994007C3EC4E
:1023B00098ED9940167CD57D06EEFAEFFB121041A0
:1023C000EE247FF582E43FF583E4F0AC08AD09EE3E
:1023D000FAEFFB122280E9F9122D137F02021FAEE1
:1023E000C082C083851882851983122423C3EA9C86
:1023F000EB9D5010C3EC98ED99401BC3EA98EB9904
:102400005014800EC3EA98EB994007C3EC98ED99FD
:102410004004790180027900D083D08222F582E4E1
:102420003FF583E0F8A3E0F922EAC39CFAEB9DFBB9
:102430002274EF121F02900381E064086005E064DB
:1024400007702A9061C8E060249003AFE0F4601D3B
:10245000E0F875F00CA4C8AAF02AF974B128FE744B
:102460000339FF8E828F83A3A3A3E0700302253F6D
:10247000906060E0C0E0EE2468F582E43FF583D030
:10248000E0F0750C6F750D07750800750900E5D94A
:1024900014F50AE5D95403F50E60127403650E6055
:1024A00043E50A600AEE24671225C3700280759026
:1024B000076AE06401601F1225C060047A0480028C
:1024C0007A00E50AC39AFA95E0FB120D478A088B59
:1024D00009EA4509700512131780641225C07004BB
:1024E0008A0C8B0DE50A6012850C82850D83F50B35
:1024F000E5D9F0A3150BE50B70F61225C060447406
:10250000FC250AF50A780C1220A9AC0AA90EEEFAED
:10251000EFFB1211137402121E3CE97026AA08ABDD
:102520000912199B793D8E828F83A3A3A3A3E0FA9E
:102530007B00120B49EEFAEFFB12106B121173794C
:102540000080787403650E6051850A10751100785B
:10255000101220A9AC0CAD0DAA08AB091210D7744B
:1025600002121E3CEE24681225C364807004747F3E
:102570008001E0F50C780C1220ADE50EF50C780C1E
:102580001220ADA90AAC08AD099003AFE0FA7B00B8
:10259000120B197402121E3C801C900381E0640827
:1025A000AC0CAD0D7009EEFAEFFB1211438007EE93
:1025B000FAEFFB1211E512132379017F0A021FAE15
:1025C000EE2482F582E43FF583E02274F2121F02CA
:1025D00074FC121E26EAFEEBFF8909A2AFE433F574
:1025E00008C2AF022687E0601B780C1220A9AC0B52
:1025F000A90EEEFAEFFB12110D7402121E3C7404C8
:10260000250BF50B7401250BF5D9850ED9E50B606B
:1026100018F50A850C82850D83E0F5D9A385820C17
:1026200085830D150AE50A70EA75E195EE2463F8D5
:10263000E43FF97A007B00A2AFE433F50BC2AF129E
:102640002762EC4D603288828983E0FAA3E0FB8A3E
:10265000828B8312276688828983ECF0A3EDF08A4F
:10266000828B83E4F0A3F0122762EC4D700A88821B
:102670008983A3A3E4F0A3F0E50BA2E092AF1219C3
:102680009B9006DCE004F0EE246312241DE8496010
:1026900064EE24631225C32402F8A3E03400F98811
:1026A000828983E5822402F50CE43583F50DE0F59B
:1026B0000BA3E0F50EEE24621225C3640170369080
:1026C00061D0E0F81225C060047C0480027C0074B4
:1026D00080C398FA95E0FBE50B2CF8E43400F9E8A8
:1026E0002402F8500109C3EA98EB99A2D265D033CD
:1026F00040030225E69006DCE0604D9006DDE0F840
:102700009006DCE0C398500C74026509703A90069C
:10271000DEE060348E828F83A3A3A3A3E0851882BA
:102720008519831227587402121E72E812275890D6
:1027300006DBE028F07402121E8CAA18AB1979018E
:10274000120B7F9006DCE4F0E508A2E092AF74047F
:10275000121E3C7F07021FAEF0A3E4F09006DCE0FF
:10276000F82288828983E0FCA3E0FD228521878509
:1027700022C622C0E074EB121FEEA2AFE433F508CC
:10278000C2AF759B00906182E0A2E05030E591A25B
:10279000E0502A7591FE74016521702112290612FC
:1027A00012271228F41220BC122ABD7404121E3CF7
:1027B000E96401700579011212631224319061827B
:1027C000E0A2E5505DE591A2E550577591DF9003D9
:1027D00081E064076005E06408702F122906740127
:1027E0006521703E1212271228F41220BC122ABD55
:1027F0007404121E3CE964017005790112126379B8
:1028000001EEFAEFFB1225CB8018E0640D701390F7
:1028100003A3E004F064287002E4F07A00E0F91207
:102820001341906182E0A2E640030228C9E591A22B
:10283000E640030228C97591BF900381E0640570EA
:102840000812120F12121B800312121575210012AA
:102850001281E9900382F07900121263120F5D7AFF
:10286000017B00900380E0F912196B907803E0641B
:1028700042705690076EE014F0704EC2AF1228807E
:1028800000782AD0E0F618D0E0F6E59F5407F870FB
:1028900005750DFF8003750D7FC4C0E07829E6F54E
:1028A0000A08E6550DF50B740B780A121E04D0E0E9
:1028B000250AF8906270E0A2E740F8E8C33390621E
:1028C00072F0906270E0D2E0F0906181E0A2E3509B
:1028D00009E5E9A2E3500375E9F7A3E0A2E750098F
:1028E000E591A2E7500375917FE508A2E092AF7FE2
:1028F0000802204D8E828F83E0F8A3E0C82416F5ED
:1029000082E438F583229003AFE0F875F00CA4C898
:10291000AAF02AF974B128FE740339FF22C0E0C07E
:10292000D0C082C083906183E0A2E05009E5BFA2DD
:10293000E0500375BFFEE0A2E15009E5BFA2E150FF
:102940000375BFFDE0A2E25009E5BFA2E2500375A6
:10295000BFFBE0A2E35009E5BFA2E3500375BFF758
:10296000E0A2E45009E5BFA2E4500375BFEFE0A286
:10297000E55009E5BFA2E5500375BFDFE0A2E650D0
:1029800009E5BFA2E6500375BFBFD083D082D0D087
:10299000D0E032C0E074F2121FEEE5A7A2E6500FBD
:1029A000E5A1A2E6500953A7BF75A1BF1229E7E52B
:1029B000A7A2E5500CE5A1A2E5500653A7DF75A13B
:1029C000DFE5A7A2E15009E5A1A2E1500375A1FD51
:1029D000E5A7A2E2500CE5A1A2E2500653A7FB75C1
:1029E000A1FB7F0102204D74F7121F027521019097
:1029F0000381E0640670151211978A828B83A3A36A
:102A0000A3A3A3A3E0FAA3E0FB1211FDA2AFE4335A
:102A1000FED2AF900387E0640170187A207B0090AB
:102A20000380E0F9121A7F7A207B00900380E0F99E
:102A3000121971906182E0D2E6F090076BE060219C
:102A400085C6228016900386E064017008E5C654AE
:102A5000F84405F5C653BEFC12276C74016521606D
:102A6000E4EEA2E092AF7F02021FAE008E238F241D
:102A7000858228858327851882851983E0CEA3E087
:102A8000CF852882852783EBC9EAC8EDCBECCA75D0
:102A9000F010C3E833C8E933C9EA33CAEB33CBC318
:102AA000EA9EF526EB9FF525B35004AB25AA26EC4C
:102AB00033CCED33CDD5F0DAAE23AF242274F1124E
:102AC0001F028A088B098C0A8D0B908322780812CA
:102AD0001C92740F121E72780C121CDE90832278E6
:102AE0000C121C927808790C121AB89082FE5010C1
:102AF0007808790C121C577808121AD84014800EE6
:102B0000780C7908121C57780C121AD850047901E5
:102B1000800279007F08021FAE74ED121F028A083E
:102B20008B098C0A8D0B9083227808121C927413E7
:102B3000121E72780C121CDE908322780C121C92EA
:102B4000780C7908121AB840117808790C121C57C1
:102B5000AA08AB09AC0AAD0B8022751000751100F4
:102B60007512007513017810790C121C57781079C2
:102B700008121C1EAA10AB11AC12AD137F0C021F61
:102B8000AE9083227808121CDE8A828B837808122A
:102B90001CA57F04021FAE74F5121F028C828D8368
:102BA0007808121CDE8A828B837808121C6B122B29
:102BB000EFC3E09CF0A3E09D122BE1402290832A1A
:102BC0007808121CDE8A828B837808121C448A8261
:102BD0008B83A3A3A3A3E02420F0A3E0344EF080D2
:102BE000A0F088828983C3E09420A3E0944E22EA77
:102BF0002404F8E43BF98C828D83A3A3A3A3E0FC17
:102C0000A3E0FD888289832274F5121F02E9FE90F9
:102C100006F7E0FAA3E0FBEE29F8E433F9743D2867
:102C2000F582748239F583E02AF508A3E03BF509C3
:102C300078081220A990831A121CFC122A6C7402C4
:102C4000121E3C8A088B098C0A8D0B7410780812AE
:102C50001BE6AA08AB097F04021FAE74F1121F0223
:102C60008A0C8B0D8C0E8D0F7411121E721220C0E7
:102C70007411121E72E02401F508A3E03400F50976
:102C8000E4F50AF50B780C7908121AF790830A78A4
:102C900008121CDE780C7908121AF7AA0CAB0DACDE
:102CA0000EAD0F122A6C7402121E3C8B09EA450904
:102CB00060047A0180027A00EC2AFCE43DFD741382
:102CC000121E72E0F8A3E0F9E8FEE9FFECF8EDF976
:102CD0007A717B02121D9B88088909E4F50AF50BBD
:102CE0008E828F837808121CEDECF8EDF97A717BF7
:102CF00002121D9B8A088B0974057808121E138E18
:102D0000828F83A3A3A3A3E508F0A3E509F07F08BE
:102D1000021FAEC082C083E9906000F0D083D082F1
:102D200022C0E074F2121FEEA2AFE433FED2AFC2B3
:102D3000C0E5D1A2E4500675D10F121869EEA2E0E9
:102D400092AF7F0102204DC0E0C0D0E8C0E0E9C0F2
:102D5000E0A9A8D2AFC2C7E9A2E7E433F8E9A2E745
:102D600092AFD0E0F9D0E0F8D0D0D0E032C0E0C0EF
:102D7000D0E8C0E0E9C0E0EAC0E0C082C083A2AF12
:102D8000E433FAD2AF900EDAE0F8A3E068700853AB
:102D90009AFBA374018022C2E9900EDAE0F8740174
:102DA00028F0745A28F582E4340EF583E0F5C190DA
:102DB0000EDAE0C394804002E4F0EAA2E092AFD0E1
:102DC00083D082D0E0FAD0E0F9D0E0F8D0D0D0E0E3
:072DD00032C2AF0200002235
:102DD800FFFFFFFFFFFFFFFF74F6121E96E9900E3C
:102DE800DFF012156F900EDFE0F91206631206B7D6
:102DF800900EDFE0F91206BD900EDFE0F91208C769
:102E080090832A121CFC12069F90832A121CFC1223
:102E180008E57A997B1C12190B7C997D1C790012A4
:102E280006997CAE7D1C7A02790112069979017A9D
:102E38006B7B821217CD79027A5D7B821217CD796E
:102E4800037A787B821217CD7C487D0F7A1079023D
:102E5800121A557C587D0F7A107903121A557CE0A6
:102E68007D0E7A047904121A557F02021F6874F4E1
:102E7800121E968A088B09EB54807003022F11905A
:102E88000EDFE0F91219538A0A8B0BAE0AAF0BEE6C
:102E98004F606E8E828F83E0246F600924FE705429
:102EA8001218818052A3E0F8740E6870208E828F09
:102EB80083A3A3A3A3A31220C0EE24FDF582EF34BD
:102EC800FFF583E024F9125BB6790E801D74FF6864
:102ED80070288E828F83A3A3A3A3A31220C08E82FF
:102EE8008F83A3A3E0125BB679FF120B3174021231
:102EF8001E3C80061218A5E96007EEFAEFFB1219CE
:102F08003BAA08E50964808016EB544060147CE015
:102F18007D0E7A047904121A4FAA08E5096440FB69
:102F280080047A007B00024F38E9790024FE6008AB
:102F3800146005146009800C74106A7007800774A7
:102F4800046A6002790202011F74F4121E9674F971
:102F5800121E26EAFEEBFF851882851983E4124DBE
:102F68007E12327BC0E07401121E72D0E0125BDC6C
:102F7800A882A983E0FCA3E0FBECFA7402121E729B
:102F8800EAF0A3EBF0E82402F8500109888289836B
:102F9800E0C0E07404121E72D0E0125BDC08A98362
:102FA8007405121E72124D787402121E72E0F50832
:102FB800A3E085080AF50B7407780A121E04780A3C
:102FC8001221230100043830DA2FED2FFC2F0F30A7
:102FD8002230AC18AD197401121E84E508547FF92B
:102FE80012188D80467401121E84E508547FF91268
:102FF80018938037AC18AD197401121E84E5085473
:103008007FF91218998024AC18AD197401121E8426
:10301800E508547FF912189F8011AC18AD19740196
:10302800121E84E508547FF9121887E9F508800311
:10303800750801EEFAEFFB12193B900F10747FF040
:10304800A37406F0E508A3F07402121E72E0900F54
:1030580013F07402121E72A3E044FC900F14F08562
:103068001882851983E0900F15F07C107D0F851864
:1030780082851983E02406FA79FF120B37790074E8
:1030880007024F3574EB121E968A828B83ECFEED95
:10309800FFA31231B78E828F83E4F0850A82850BF5
:1030A80083A3858208858309E914600C1460511490
:1030B80070030231A70231AE850A82850B83E0F5E1
:1030C8000A850882850983E0F50BC3943240030220
:1030D80031AAAA0BA90A12187BE960030231AA7C5B
:1030E800167D0FAA0BA90A121A55E9FA60030231D4
:1030F800B0850882850983E08E828F83F00231B023
:10310800850A82850B83E0F50C850882850983E0B2
:10311800F508FAA90C12187BE960030231AAE50A3E
:103128002402FEE4350BFFEEFCEFFDAA08A90C1201
:103138001A4FE9FA7404650C706E8E828F83E0F57D
:103148000CE4F50DF50EF50F850A82850B83A3A314
:103158001231CF121BFF780C7910121C1E850A82BF
:10316800850B83A3A31231C2121BFF780C791012AE
:103178001C1E850A82850B83A3A3A3A3A3E0F508DD
:10318800E4F509F50AF50B74187808121BFF780C9A
:103198007908121C1E900EE0780C121CED800912A2
:1031A80019057A0280027A01EAF97F0D021F68A3E5
:1031B800A3A3E0F50AA3E0F50B22A3A3E0F510E42E
:1031C800F5117410781022A3E0F510E4F511F5124A
:1031D800F513740878102274F4121E9674EA121EFD
:1031E8002689088A828B83123278FEA3E0FCE4CC1D
:1031F800FDEE2CE43DFFE82402FCE439FDE508245B
:10320800F6602324F870401232641220A974021266
:103218001E84120C757402121E3CE9F9702B1232CE
:1032280056120BF7801D1232641220A97402121E66
:1032380084120C8D7402121E3CE9F9700C1232567D
:10324800120BF1E9F9800279017416024F35900EDC
:10325800DFE0F9AC18AD19EEFAEFFB228A828B8316
:10326800A3A3A3E024FEF50AE434FFF50B780A22B1
:10327800A3A3A3123289F988828983E022A3A3A396
:10328800A3A3E0F8A3E02274EC121E9674EB121EBE
:1032980026890BEAF8EBF97E007F00750A40E824DE
:1032A80003F50EE439F50F850E82F583E0FAC39431
:1032B80002500579400236BD88828983123278F53A
:1032C80008A3E0FDE5082EE43DF5097512527513D3
:1032D80083E82403F510E439F511E82402F50CE439
:1032E80039F50DE50B1220ED011D2B3C30335C3315
:1032F8008E33BA33FE333F34DC341D35E5352E3694
:103308005D36C736F83651379E37F2377E38BF38C4
:1033180060392B3C2B3C88393B3A863A2D3B2B3C79
:10332800553B2B3CA53B033CA818A919880E890FCF
:10333800780E1220A9123C4E1203217402121E3C70
:10334800E960030236B8AC18AD19AA08AB09120235
:10335800BB0236F3A818A919880E890F780E122017
:10336800A9123C471220A9AC0CAD0D7A00790012C5
:10337800032D7404121E3CE960030236B8123C891E
:103388001206C30236F3A818A919880E890F780EF9
:103398001220A9123C4E1203397402121E3CE96035
:1033A800030236B8AC18AD19AA08AB091202C1025B
:1033B80036F3A818A919880E890F780E1220A912B9
:1033C8003C471220A9AC0CAD0D7A007900120345D8
:1033D8007404121E3CE960030236B87402121E72AD
:1033E8001220C0900EDFE0F97402121E721244859A
:1033F8001206E70235D4123C4E1218D58A0C8B0DF2
:10340800AE0CAF0DEE4F70030236B8A818A9198894
:103418000C890D780C1220A9123C76120351740203
:10342800121E3CE960030236B1AC18AD19AA08AB0C
:10343800091202C7023623A818A919880E890F781D
:103448000E1220A9123C471220A9AC0CAD0D7A002F
:10345800790012035D7404121E3CE960030236B859
:103468007404121E72123C6E1220A97407121E7286
:1034780085820C85830D780C1220A97C027D00AA18
:1034880012AB1312042F7404121E3CE97003023BA2
:1034980027851882851983E064017002A3E0600320
:1034A800023B277402121E72E0F47003A3E0F4607A
:1034B80003023B2712444A1220AD7408121E72E020
:1034C800F97409121E721244851206CF7401121E75
:1034D8003C0236F3123C4E1218D58A0C8B0DAE0CFA
:1034E800AF0DEE4F70030236B8A818A919880C89D9
:1034F8000D780C1220A9123C761203697402121E70
:103508003CE960030236B1AC18AD19AA08AB091240
:1035180002CD023623A818A919880E890F780E1231
:1035280020A9123C471220A9AC0CAD0D7A007900F5
:103538001203757404121E3CE960030236B8740461
:10354800121E72123C6E1220A97407121E72858216
:103558000C85830D780C1220A97C027D007A4E7BA5
:103568008312042F7404121E3CE9601A7402121E9E
:10357800721220C0900EDFE0F97402121E7212441B
:10358800851206D580467404121E72123C6E1220F3
:10359800A97407121E7285820C85830D780C12207F
:1035A800A97C027D007A5A7B8312042F7404121EB0
:1035B8003CE960207402121E721220C0900EDFE0F7
:1035C800F97402121E721244851206DB7402121E6E
:1035D8003C0236F3123C891206F30236F3123C4ED3
:1035E8001218D58A0C8B0DAE0CAF0DEE4F7003027E
:1035F80036B8A818A919880C890D780C1220A912B8
:103608003C761203817402121E3CE960030236B153
:10361800AC18AD19AA08AB091202D3E9F50A600380
:103628000236B10236B8A818A919880E890F780E83
:103638001220A9123C471220A9AC0CAD0D7A0079D2
:103648000012038D7404121E3CE97064123C891246
:1036580006ED0236F3EAC39403400E123C4E1218EC
:10366800D58A0C8B0DAE0CAF0D850E82850F83E0CD
:10367800FA74026A6004EE4F6036A818A919880C1B
:10368800890D780C1220A9123C3E1203997402127B
:103698001E3CE97010AC18AD19AA08AB091202D982
:1036A800E9F50A600BEE4F6007EEFAEFFB12199B83
:1036B800A90A1218CF7415121E3C7F0C021F68A8A5
:1036C80018A919880E890F780E1220A9123C4712E2
:1036D80020A9AC0CAD0D7A0079001203B77404125E
:1036E8001E3CE970CB123C891206F9E9F50A80C044
:1036F800EAC39403400E123C4E1218D58A0C8B0D67
:10370800AE0CAF0D850E82850F83E0FA74026A60F5
:1037180004EE4F609BA818A919880C890D780C1223
:1037280020A9123C3E1203C37402121E3CE9600336
:103738000236ADAC18AD19AA08AB091202DFE9F5DB
:103748000A60030236AD0236B8123C4E1218D58A0A
:103758000C8B0DAE0CAF0DEE4F70030236B8A818E7
:10376800A919880C890D780C1220A9850E82850F5D
:10377800831244701220A9EEFCEFFD7A0079001242
:1037880003CF7404121E3CE960030236B1123C896F
:103798001206FF023623EAC39403400E123C4E126F
:1037A80018D58A0C8B0DAE0CAF0D850E82850F8354
:1037B800E0FA74026A6007EE4F70030236B8A81880
:1037C800A919880C890D780C1220A9123C3E120305
:1037D800DB7402121E3CE960030236ADAC18AD1969
:1037E800AA08AB091202E5023746A818A919880EDB
:1037F800890F780E1220A9123C471220A9AC0CADF3
:103808000D7A0079001203757404121E3CE96003F6
:103818000236B87404121E72123C6E1220A9740784
:10382800121E7285820C85830D780C1220A97C02E9
:103838007D00AA12AB1312042F7404121E3CE97007
:1038480003023B27851882851983E064017002A36F
:10385800E06003023B277402121E72E0F47003A3B7
:10386800E0F46003023B27900EDFE0F9AA08AB09F9
:103878001206C90236F3123C4E1218D58A0C8B0D6B
:10388800AE0CAF0DEE4F70030236B8A818A9198810
:103898000C890D780C1220A9123C761203E77402E9
:1038A800121E3CE960030236B1AC18AD19AA08AB88
:1038B800091202EB023623EA24FCFCE434FFFDE89B
:1038C8002404FAE439FB1218D58A128B13AE12AF0E
:1038D80013EE4F70030236B8A818A9198812891375
:1038E80078121220A9850E82850F83E024FC123CF1
:1038F800641220A9EEFCEFFD851082851183E0FAA1
:10390800850C82850D83E0F912039F7404121E3C16
:10391800E960030236B17406121E72E07008123CA8
:103928008912071180187405121E72E0AC18AD19BF
:10393800AA08AB097005120705800312070BE9F501
:103948000AE50A60030236B17403121E7212446358
:1039580070030236B10236B8A818A919880E890F63
:10396800780E1220A9123C4E1203AB7402121E3CB0
:10397800E960030236B8AA08AB091202F10236F36D
:10398800123C4E1218D58A088B09AE08AF09EE4FC3
:1039980070030236B8A818A9198808890978081286
:1039A80020A9850E82850F83E024FEF508E434FF04
:1039B800F50978081220A9EEFCEFFD7A00790012CB
:1039C80003F37404121E3CE960030236B1900F69D8
:1039D800124463700F7A237B001219E9900F69EA89
:1039E800F0A3EBF0900F691244636041900F68E018
:1039F800C394054003023B2712445629F075080773
:103A080075090078081220A97402121E8CE975F055
:103A180007A4F8A9F0900F69E028FAA3E039FB128F
:103A280019117402121E3C750A000236B8750A1381
:103A38000236B1123C4E1218D58A0C8B0DAE0CAF63
:103A48000DEE4F70030236B8A818A919880C890D15
:103A5800780C1220A9123C761203FF7402121E3C45
:103A6800E960030236B1AC18AD19AA08AB09120215
:103A7800F7E9F50A60030236B17405023952A8184D
:103A8800A919880E890F780E1220A9123C47122016
:103A9800A9AC0CAD0D7A00790012040B7404121E47
:103AA8003CE960030236B8900F69124463607012F3
:103AB800444A1220AD7401121E7212444D1220ADF8
:103AC800900F68E0F9900F6912448512071D74027F
:103AD800121E3CE9F50A60397E008022EE75F00777
:103AE800A4F8A9F0900F69E028FAA3E0398A82F5D2
:103AF80083A3A3125BBBEA4B600312199B0E900FC2
:103B080068E0F8EEC39840D4900F69125BBE1219B2
:103B1800EF900F69E4F0A3F0900F68F00236B875E3
:103B28000A020236ADA818A919880E890F780E1254
:103B380020A9123C4E1204117402121E3CE96003C3
:103B48000236B8AA08AB091202FD0236F3123C315C
:103B58001218D58A108B11AE10AF11EE4F700302F8
:103B680036B8A818A9198810891178101220A91236
:103B78003C571220A9EEFCEFFD7A00790012041DD3
:103B88007404121E3CE960030236B1850C82850D6F
:103B980083123C8C120801E9F50A02394B123C31B8
:103BA8001218D58A108B11AE10AF11EE4F700302A8
:103BB80036B8A818A9198810891178101220A912E6
:103BC8003C571220A9EEFCEFFD7A00790012041D83
:103BD8007404121E3CE960030236B112444A1220F2
:103BE800AD850C82850D83124456121E8CAA08AB33
:103BF800091207FB7401121E3C809CA818A9198899
:103C08000E890F780E1220A9123C4E12042374025A
:103C1800121E3CE960030236B8AA08AB091202AFCB
:103C28000236F3750A010236B8EA24FDFCE434FFD3
:103C3800FDAA10AB1122EA123C81EEFAEFFB22EA50
:103C480024FE123C6422EA123C81AA0CAB0D2285A8
:103C58000E82850F83E024FD123C6422F50EE434C5
:103C6800FFF50F780E22E0F50C8E0D780C22850EEC
:103C780082850F83E0123C812224FEFCE434FFFDA0
:103C880022900EDFE0F9AC18AD19AA08AB0922742E
:103C9800E8121E9674EA121E26E985188285198391
:103CA800F0750E00750F00750A40EA2403F510E45C
:103CB8003BF511851082F583E0F9C394025005792C
:103CC800400242898A828B83A3A3A3A3E0FEA3E0D8
:103CD800FF8E828F83E0FCA3E0FAE4CAFBEC2AF5AE
:103CE80008E43BF509EE2402F50CE43FF50DEE245B
:103CF80003F512E43FF513851882851983E0122134
:103D0800690016024F3D045D3E06973D08223E0AB3
:103D1800A83E0C1E3F0E593F108A3D124540169A88
:103D2800401B6B431DC74330B03D32B03D34E33ECA
:103D380036AE3F38FA3F3A1B413C98423ED24240A9
:103D48000943429A4024447401121E848A0E8B0F40
:103D5800780E1220A9E9123C481220A9AC0CAD0D2E
:103D68007A00790012032D7404121E3CE9600302E4
:103D78004284124453121E8CAA08AB091206C302CD
:103D880042CD900EDFE0F9AA081206C90242CD1210
:103D9800444A1220AD1919AC0CAD0DAA081206CF71
:103DA8007401121E3C0242CDE924FEF8E434FFF906
:103DB800740468496003024284850C82850D83E09F
:103DC800FA851282851383E0F8E4C8F9EA28FCE44E
:103DD80039FD8E828F83A3A3A3A3E0FA8E828F83FB
:103DE800A3A3A3A3A3E0F9EAF50AE439F50B851820
:103DF80082851983E06430780A70101220A9900E29
:103E0800DFE0F9AA081206D5023EA01220A9900EFA
:103E1800DFE0F9AA081206DB807E7401121E848A8C
:103E28000E8B0F780E1220A9E9123C481220A9AC7B
:103E38000CAD0D7A0079001203757404121E3CE96A
:103E48006003024284124453121E8CAA08AB091262
:103E580006E10242CD7401121E848A0E8B0F780E81
:103E68001220A9E9123C481220A9AC0CAD0D7A0029
:103E780079001203457404121E3CE960030242846F
:103E88007403121E721220C0900EDFE0F974031240
:103E98001E721244851206E77402121E3C0242CDBD
:103EA8007401121E848A0E8B0F780E1220A9E91253
:103EB8003C481220A9AC0CAD0D7A00790012038D94
:103EC8007404121E3CE96003024284124453121E19
:103ED8008CAA08AB091206ED0242CD7401121E84A9
:103EE8008A0E8B0F780E1220A9E9123C481220A9DD
:103EF800AC0CAD0D7A0079001203757404121E3CE7
:103F0800E96003024284124453121E8CAA08AB09CA
:103F18001206F30242CD7401121E848A0E8B0F78AA
:103F28000E1220A9E9123C481220A9AC0CAD0D7A5A
:103F38000079001203B77404121E3CE960030242C0
:103F480084124453121E8CAA08AB091206F90242C5
:103F5800CDE9123C4F1218D58A0E8B0FEA450F7027
:103F6800030242847401121E7C880C890D780C129D
:103F780020A912446A1220A9AC0EAD0F7A0079006C
:103F88001203CF7404121E3CE9600302427D1244FE
:103F980053121E8CAA08AB091206FFE9F50A600342
:103FA80002427D024284E9123C4F1218D58A0E8BD8
:103FB8000FEA450F70030242847401121E7C880CBC
:103FC800890D780C1220A912446A1220A9AC0EADF2
:103FD8000F7A01790012039F7404121E3CE96003F2
:103FE80002427D7401121E8CAA08AB091207050251
:103FF800408FE9123C4F1218D58A0E8B0FEA450FF5
:1040080070030242847401121E7C880C890D780C9E
:104018001220A912446A1220A9AC0EAD0F7A0179B8
:104028000112039F7404121E3CE9600302427D746E
:1040380001121E8CAA08AB0912070B804AE9123C30
:104048004F1218D58A0E8B0FEA450F70030242846F
:104058007401121E7C880C890D780C1220A9124458
:104068006A1220A9AC0EAD0F7A00790012039F7472
:1040780004121E3CE9600302427D124453121E8C56
:10408800AA08AB09120711E9F50A600302427D028A
:10409800435BE9123C4F1218D58A0E8B0FEA450F85
:1040A80070030242847401121E7C880C890D780CFE
:1040B8001220A912446A1220A9AC0EAD0F7A007919
:1040C800001203F37404121E3CE9600302427D856A
:1040D8001882851983E06416900EDF700F1244561B
:1040E800121E8CAA08AB09120717800D124456122B
:1040F8001E8CAA08AB09120735E9F50AE50A600320
:1041080002427D7406121E72124463700302427DDD
:10411800024284E924FEF8E434FFF9C3E89401E993
:104128009400A2D265D0335003024284850C828564
:104138000D83E0F5107003024293C3940640030216
:104148004293E51075F007A4FEAFF0FAEFFB1219E1
:10415800E98A148B15EA4515700302428EEEFCEFCE
:10416800FD7900121929AE12AF13750B008034E8DF
:10417800FEE9FF85160C85170D780C1220A9750C21
:1041880004750D00780C1220A9EEFCEFFD7A007979
:10419800001203F37404121E3CA811EE28FEE43F3B
:1041A800FF050BE50BC395105066751104E50B75FB
:1041B800F007A4F8A9F0E51428F516E51539F51760
:1041C8008E828F83A3A882A9838E828F83E0FA6070
:1041D8009E74042AF511E8FEE9FF85110C750D009F
:1041E800AC0CAD0DEEFAEFFB1218D58A0E8B0FEA68
:1041F800450F7005750A13804285161285171378C6
:10420800121220A9780C1220A9AC0EAD0F0241950C
:10421800E510650B702512444A1220AD750A017825
:104228000A1220ADA910AC14AD15AA08AB091207E3
:104238001D7402121E3CE9F50A6034750B008021DA
:10424800E50B75F007A4F8A9F0E51428F582E51543
:1042580039F583A3A3125BBBEA4B600312199B05D4
:104268000BE50BC3951040D8AA14AB151219EFE54E
:104278000E450F6007AA0EAB0F12199BA90A121858
:10428800CF7416025F4D750A1380F1750A0280EC2F
:104298007401121E848A0E8B0F780E1220A9E9125F
:1042A8003C481220A9AC0CAD0D7A00790012038DA0
:1042B8007404121E3CE970C4124453121E8CAA08DE
:1042C800AB09120723E9F50A80B27401121E848A29
:1042D8000E8B0F780E1220A9E9123C481220A9ACC7
:1042E8000CAD0D7A0079001203B77404121E3CE974
:1042F800708A124453121E8CAA08AB09120729802F
:10430800C4E9123C4F1218D58A0E8B0FEA450F707C
:10431800030242847401121E7C880C890D780C12E9
:1043280020A912446A1220A9AC0EAD0F7A007900B8
:1043380012039F7404121E3CE9600302427D12447A
:1043480053121E8CAA08AB0912072FE9F50A60035D
:1043580002427D7404121E72124463700302427793
:1043680002428412442A1218D58A0E8B0FEA450F8E
:1043780070030242847401121E7C88128913781219
:104388001220A91244371220A9AC0EAD0F7A007979
:104398000012041D7404121E3CE9600302427D856C
:1043A8000C82850D83124456121E8CAA08AB091282
:1043B8000801E9F50A600302427D740402410D1206
:1043C800442A1218D58A0E8B0FEA450F7003024251
:1043D800847401121E7C8812891378121220A91283
:1043E80044371220A9AC0EAD0F7A00790012041DD3
:1043F8007404121E3CE9600302427D12444A1220F2
:10440800AD850C82850D83E0F97402121E8CAA0812
:10441800AB091207FB7401121E3C8096750A010253
:104428004284E924FDFCE434FFFDAA12AB13228583
:104438001082851183E024FDF510E434FFF511782E
:104448001022900EDFE0F50A780A22900EDFE0F9DC
:10445800740122A3A3A3A3A3A3A3A312328AF9E8F6
:104468004922851082851183E024FEF50CE434FF8F
:10447800F50D780C22A3A3A3A3A3A3A3A3E0FCA3F5
:10448800E0FDAA08AB092274EA121E9674A5121E52
:10449800268C0C8D0D8A828B83A3A3A3A3E0FEA395
:1044A800E0FF750E00EE2402F50AE43FF50B8E825C
:1044B8008F83A3858208858309E9700302455C24FC
:1044C800FD70030246631470030246AC14700302C5
:1044D80046EB14700302474A1470030247AE147087
:1044E800030247C51470030246F61470030247D04E
:1044F800147003024837147003024B9D14700302B2
:104508004C37147003024B1E147003024AA0147037
:1045180003024A971470030247E924E17003024B2F
:10452800BF147003024BF2147003024BAE147003F5
:10453800024C40147003024CB1147003024CC314B3
:104548007003024CD6147003024CCB147003024C57
:10455800D6024CDB8E828F83E0F5147C107900AA9A
:104568000AAB0B12198FE9701B750C10750D0078CA
:104578000C1220A9AC0AAD0B7A487B0F12191174E2
:1045880002121E3CEE2412F50AE43FF50B7C10796A
:1045980000AA0AFB12198FE9701B750C10750D0023
:1045A800780C1220A9AC0AAD0B7A587B0F1219119E
:1045B8007402121E3CEE242212577EF50CE4F50D0F
:1045C800F50FEE2423F582E43FF5831231D0121B58
:1045D800FF780C7910121C1EEE2424F582E43FF5B6
:1045E800831231C4121BFF780C7910121C1EEE24A2
:1045F80025F582E43FF583124CFE121BFF780C79F7
:1046080010121C1EE50C450D450E450F6008900E56
:10461800E0780C121CED750AE0750B0E780A122072
:10462800A9750A58750B0F780A1220A97C487D0FC6
:10463800850882850983E0FBAA14900EDFE0F91251
:10464800175B7404121E3CE9F50E900EDFE0FC7D4A
:10465800007A267B001204A7024CDE750A00750B4F
:10466800009082AC740A121E8C7406121D39750CE7
:1046780006F50D780C1220A9740C121E8CAA08AB32
:10468800091219237402121E3CE9640160068508A8
:104698000A85090BAA0AAB0B8E828F83E0F91204F4
:1046A800BF024CC6900EDFE0C0E07410121E72D03C
:1046B800E0124D8BE0C0E07411121E72D0E0124D72
:1046C800A6C0E07412121E72D0E0124D7EE0C0E067
:1046D8007413121E72D0E0F07410121E8412044774
:1046E800024CC6900EDFE0F912044D024CC6900E43
:1046F800DFE0851882851983124D8BE0C0E07401D4
:10470800121E72D0E0124DA6C0E07402121E72D0C2
:10471800E0124DC7C0E07403121E72D0E0124DB112
:104728001220A9EEFCEFFD7406121E72AA82AB835A
:104738001219117402121E3CAA18AB19120489022C
:104748004CC68E828F83E0851882851983124DA608
:10475800C0E07401121E72D0E0124DB11220A9EE11
:10476800FCEFFD7404121E72AA82AB831219117435
:1047780002121E3CEE2406FE50010F8E828F83E04B
:10478800C0E07408121E72D0E0124D7EE0C0E074E2
:1047980009121E72D0E0F0AA18AB19900EDFE0F9EA
:1047A8001205CD024CC6AC0AAD0BE0FB8E828F839E
:1047B800E0FA900EDFE0F91205D3024CC6900EDF46
:1047C800E0F91205D9024CC6850A82850B83E0FC04
:1047D800124D1BE439FB900EDFE0F9120531024C53
:1047E800C6124D09851882851983124D98FAA3E0DF
:1047F800F9EAF87402121E72124DBD50010F124DE3
:104808000F7404121E72124DBD50010F124D0F7419
:1048180006121E72124DBD50010F124D0F74081270
:104828001E72124D78AA18AB19120537024CC675BC
:104838000C00750D007C187D0079007414121E841C
:10484800121929124D09F87414121E72E8124D98A3
:10485800C0E07416121E72D0E0124D7EAE82AF8395
:10486800E0C0E07417121E72D0E0124D7E0EAF83C6
:1048780075081075090078081220A9EEFCEFFD7480
:104888001A121E72AA82AB831219117402121E3CEC
:10489800EE2410FE50010F8E828F83E0C0E0742852
:1048A800121E72D0E0124DC7C0E0742B121E72D0D7
:1048B800E0124D91A30E0EAF83A2E0E433F510E5AC
:1048C8000EA2E15004D2F08002C2F0A2F0E433F864
:1048D800E50EA2E25004D2F08002C2F0A2F0E43366
:1048E800F50A750B00E50EA2E35004D2F08002C26F
:1048F800F0A2F0E433FCE50EA2E45004D2F080020A
:10490800C2F0A2F0E433FAE50EA2E55004D2F0803A
:1049180002C2F0A2F0E433F508E50EA2E65004D294
:10492800F08002C2F0751100E828F8E51048F5108B
:104938007402780A121E13E510450AF50A8C1074E1
:10494800037810121E13E50A4510F8EAFBE8FA741A
:10495800097808121E13EB4509FBA2F0E433F508A9
:10496800750900740A7808121E13124CEA121E13F5
:10497800EAF8EB4509F97429121E72124D788E82F5
:104988008F83E0F50EA30EAF837003024A88E0C060
:10499800E0740A121E72D0E0124DC7C0E0740B1208
:1049A8001E72D0E0124DC7C0E0740C121E72D0E027
:1049B800124DC7C0E0740D121E72D0E0124D91A2C4
:1049C800E0E433FCE50EA2E15004D2F08002C2F02C
:1049D800A2F0E433F8E50EA2E25004D2F08002C25D
:1049E800F0A2F0E433F508750900E50EA2E35004DF
:1049F800D2F08002C2F0A2F0E433F50AE50EA2E498
:104A08005004D2F08002C2F0A2F0E433FAE50EA21C
:104A1800E55004D2F08002C2F0A2F0E433F50CE5D0
:104A28000EA2E65004D2F08002C2F0E828F8EC4862
:104A3800FC74027808121E13EC4508FC7403780A0B
:104A4800121E13EC450AF8EAFBE8FA7409780C120E
:104A58001E13EB450DFBA2F0E433F508740A780841
:104A6800121E13124CEA121E13EAF8EB4509F974E8
:104A78000E121E72124D78740A121E7C880C890D53
:104A8800AC0CAD0D7414121E84120543024CC612F0
:104A98004D37120549024CC6124D501220A9EEFCA2
:104AA800EFFD7442121E841219117402121E3CEE9C
:104AB8002410FE50010F124D0F7450121E72124D29
:104AC800BD50010F750C08780C1220A9EEFCEFFD03
:104AD8007454121E72AA82AB831219117402121E28
:104AE8003C8E828F83A3A3A3A3A3A3A3A3E0C0E0C8
:104AF800745A121E72D0E0F0750B01780B1220ADBB
:104B08007441121E8CA90AAA08AB0912055B74012C
:104B1800121E3C024CC6124D501220A9EEFCEFFDAD
:104B2800742E121E841219117402121E3CEE2410E7
:104B3800FE50010F8E828F83E0F50CE4F50F1231E1
:104B4800CF121BFF780C7910121C1E8E828F8312D5
:104B580031C2121BFF780C7910121C1E8E828F83B3
:104B6800A3A3A3124CFE121BFF780C7910121C1E73
:104B7800743C121E72E50CF0A3E50DF0A3E50EF0EF
:104B8800A3E50FF0742C121E8CA90AAA08AB09120F
:104B9800053D024CC6124D1BFCE439FDAA0AAB0BBD
:104BA80012054F024CC6EE2410FCE43FFDEEFAEF6E
:104BB800FB120513024CC68E828F83E0FA7B0085B8
:104BC8000882850983E0FC850A82850B83E0F9EC7D
:104BD8002BE439FDEA64267003024CD6EA94274098
:104BE80003024CD61204A7024CC678FF79FF8E82C6
:104BF8008F83E0FA7B00F46020EA6426601BEAC336
:104C0800942750151204AD8A088B09A808A90974BD
:104C1800FF68700374FF697003750E02850C828546
:104C28000D837402F0E8900F16F0E9A3024CD3123A
:104C38004D3712064B024CC6E0F50CF50E750F0009
:104C48002404FAE43400FB1219E98A088B09EA45BE
:104C58000960518E828F83E08A828B83F0A3E50CF2
:104C6800F0EA2402E435090A0AFBE5082404F8E41A
:104C78003509F98A828B83124D78780E1220A9ACF7
:104C88000AAD0B8A828B83125BBE12191174021251
:104C98001E3CAA08AB091205DFE9F50E6038AA0820
:104CA800AB098012750E13802D8E828F83E0F91266
:104CB80005E5EA4B60181219EF801B1205EBE9F5C0
:104CC8000E8013750E028C828D83E4F08008750EB9
:104CD800028003750E01A90E745B121E3C7F0E0242
:104CE8001F68EB4509FBE50EA2E7E433F5087509F3
:104CF80000740B780822E0F510E4F51274187810A7
:104D080022124D29F9EA228E828F83E0FAA3E0F974
:104D1800EAF822124D1F22124D29F8E4C8F9EA28B0
:104D2800228E828F83E0FA850882850983E02285B6
:104D38000A82850B83E0F98E828F83E0FC850882E6
:104D4800850983E0FBECFA22124D1FF508E439F5DA
:104D5800090E0EAF0B8E828F83E0F50AA3AE82AFE9
:104D680083750C10880D780C22F9851882851983B3
:104D7800E8F0A3E9F022124D8222124D8622124D4C
:104D88008BA322F08E828F8322124D82E0F50E22B1
:104D9800F0A3E9F00E0EAF0B8E828F83E022F0AE07
:104DA80008AF098E828F83E022124DCC75080675F4
:104DB8000900780822E8F0A3E9F0EE2402FE2212A6
:104DC8004DCCE022124D860EAF832274F4121E964B
:104DD80074FD121E26EAFEEBFF851882851983E40E
:104DE800F0F508F50904121E72E4F07402121E723E
:104DF8007401F07C2C7D0079007AE47B0E1219296D
:104E08008E828F83E02460606F24FE605124F270EC
:104E180003024EA9147003024ED724E16003024E28
:104E2800F87402121E7C8808890978081220A9746F
:104E380003121E7C8808890978081220A9740412B4
:104E48001E7C8808890978081220A97CE47D0EEE6A
:104E5800FAEFFB1218AB7406121E3C024EF4A818A7
:104E6800A9198808890978081220A97CE47D0EEE22
:104E7800FAEFFB1218B1806F7401121E7C88088942
:104E88000978081220A97402121E7C8808890978FA
:104E9800081220A97CE47D0EEEFAEFFB1218B78009
:104EA800277401121E7C8808890978081220A974C1
:104EB80002121E7C8808890978081220A97CE47DE2
:104EC8000EEEFAEFFB1218BD7404121E3C801DA8EA
:104ED80018A9198808890978081220A97CE47D0E88
:104EE800EEFAEFFB1218C37402121E3C8A088B09F3
:104EF8007402121E72E06007EEFAEFFB12193B858E
:104F08001882851983E0600AAC08AD09FA79FF12A6
:104F18000B37E508450960117401121E72E064013F
:104F28007007AA08AB091219EF79007403121E3C26
:104F38007F04021F6874E8121E9674FE121E26EA89
:104F4800FEEBFF8C088D09751000750A00750B00C3
:104F5800741E121E72125F46EC2406F8E43509F935
:104F6800EC240BF50CE43509F50DEC2405FAE435D1
:104F780009FB8C828D83A3858214858315EE240317
:104F8800F50EE43FF50F8E828F83A3858212858309
:104F9800138E828F83A3A3E0605D14700302508F89
:104FA80014700302518D1470030251A5147003028A
:104FB80051B01470030251CA147003025284147061
:104FC800030252AA147003025306147003025326F4
:104FD8001470030253D614700302539F1470030213
:104FE80056851470030256BA1470030255C514701E
:104FF800030255D80257418C828D83E41258EE1271
:1050080020A9AC0EAD0FE5082403FAE43509FB121C
:1050180019117402121E3C12594B750A10780A12A3
:1050280020A97C487D0FE508240CFAE43509FB1219
:1050380019117402121E3C780A1220A97C587D0F9F
:10504800E508241CFAE43509FB1219117402121E32
:105058003C851282851383E070217C487D0F7A108D
:105068007902121A4F7C587D0F7A107903121A4F61
:105078007CE07D0E7A047904121A4F85080A8509A6
:105088000B75102C025741851282851383E060034B
:1050980002515F850E82850F83E0700302517433DD
:1050A800333354F82404F510FA7B001219E98A0AFC
:1050B8008B0BEA450B70030251568A828B8374016D
:1050C800F0A374061258CB8512828513831258C434
:1050D800850E82850F831258C48E828F8312328682
:1050E800124D717E00804E125BC41258C4125BC40C
:1050F800A31258C475160675170078161220A974DD
:1051080002121E72E02402FCA3E03400FDAA0CABDC
:105118000D1219117402121E3CE50C2406F50C50F0
:1051280002050D0E851882851983E02408F8A3E08E
:105138003400124D71850E82850F83E0F8EEC39816
:1051480040A5741C121E72125BCA74018008851275
:10515800828513837413F0851282851383E0700CA3
:10516800850E82850F83E06003025741850882859A
:105178000983740112585B12579712600AA3A3E4BB
:105188001258BC80128C828D8374021258007406E7
:105198001258FC8C0A8D0B7510040257418C828DB5
:1051A80083740312585B800E8C828D8374041258AA
:1051B800088E828F83A31257AA1257E9751003022B
:1051C80057418C828D8374051258000412598F122E
:1051D80020A91257861219117402121E3C8E828F52
:1051E80083A312593AA3125880850C82850D83F047
:1051F80012577BC0E012576FD0E01257F1E0C0E0C1
:10520800125763D0E01257F1A3E0C0E0E508240E7E
:10521800125767D0E0F0EE240FF8E43FF98882894E
:1052280083E0C0E0E508240F125767D0E0125BD78F
:10523800C0E0E5082410125767D0E0F0EE2411F81A
:10524800E43FF988828983E0C0E0E5082411125719
:1052580067D0E0125BD7C0E0E5082412125767D088
:10526800E0F0EE241312577EC0E0E508241312572D
:1052780067D0E01258BC7510140257418C828D8398
:1052880074061258001258FC850E82850F83125737
:10529800A9A312580D8A828B831257EB7510060248
:1052A80057418C828D837407125800141258661265
:1052B80057AAA3A3124D7EA3A31257A912580D8C67
:1052C800828D83A3A3A3A31258318A828B83125899
:1052D80042888289831258D41258558C828D83A3B0
:1052E800A3A3A3A3A3A3A31258511257AA12588089
:1052F8008C828D83A31257E275100B0257418C8262
:105308008D83740812598C1220A91257861219110C
:105318007402121E3C85080A85090B02567F8C828E
:105328008D83740912598C1220A9125786121911EB
:105338007402121E3C8E828F83A3A3A3A3A3A3A3EC
:10534800A3A3A37810121CDE850882850983A3A372
:10535800A3A3A3A3A3A3A3A3E510125851781012E3
:105368001CDEE511850C82850D8312587A121CDE2D
:105378007410780C121BE612576FE50C12587A124B
:105388001CDE7418780C121BE6125763E50C1258D1
:10539800BC75100E0257418C828D83740B1258EE27
:1053A8001220A9AC0EAD0FE5082403FAE43509FB79
:1053B8001219117402121E3C12594B12577BC0E08D
:1053C80012576FD0E01258BC75100D025741751076
:1053D8006A7A6A7B001219E98A0A8B0BEA450B7014
:1053E8000302559E741C121E72125F467C6A7D0071
:1053F8007900121929850A82850B83740A12597259
:10540800850E82850F83A312586E1258B2F9E849A7
:10541800604712581912591E1220A98E828F8312C2
:10542800447F1219117402121E3CE5082410F50875
:10543800500205098E828F831257C61258B212582D
:10544800361220A98E828F831257B0121911740256
:10545800121E3CE50824088004E508241CF50850C1
:105468000205098E828F83A3A312445B60561258EB
:1054780019A3A3A3A312591E1220A98E828F83A356
:10548800A312447D1219117402121E3CE50824105F
:10549800F508500205098E828F83A3A31257C41200
:1054A800586E1232851258361220A98E828F83A325
:1054B800A3A3A31257B01219117402121E3CE508D7
:1054C80024088004E508241CF50850020509125731
:1054D8005512446360448508828509837401125912
:1054E8002E1220A91257551244851219117402124E
:1054F8001E3CE5082410F50850020509750C0678CD
:105508000C1220A912577B24101257B912191174C2
:1055180002121E3CE50824068004E5082417F50855
:10552800500205098E828F8312445B700302574133
:10553800850882850983740112592E1220A98E824A
:105548008F8312447D1219117402121E3CE508243F
:1055580010F508500205098E828F831257C4780C03
:10556800121CDE1259A6121CDEE50D85088285097B
:10557800831259AE121CDE7410780C121BE61259F5
:10558800A6121CDE7418780C121BE68508828509A1
:1055980083E50C025740850882850983740A1258EE
:1055A80008850882850983A3A37413125916125714
:1055B80097125915A3125BA31258BC800D8C828DCB
:1055C80083740E1259C18C0A8D0B75100502574150
:1055D8008C828D83740F1259C18E828F83A3A3A3EB
:1055E800A3A3E08A828B8312583188828983125858
:1055F800428C828D83A3A3A3A3A3A3A31258D4A3ED
:10560800125855F8A3E0F9E8A2E0E433F50AE854A3
:105618000260047A0280027A00EA420AE8540460CE
:10562800047A0480027A00EA420AE8540860047A9C
:105638000880027A00EA420AE9540160047A10807C
:10564800027A00EA420AE9540260047A2080027A67
:1056580000EA420AE9540460047A4080027A00EAC7
:10566800420AE954086004788080027800E8450A14
:105678008C828D831257E275100A0257418C828DF5
:1056880083740C1259C1750A06780A1220A9EE24EF
:1056980005FCE43FFD1219117402121E3CEE240BA6
:1056A80012577E850C82850D831258BC75100C022A
:1056B800574112577B240DF510FA7B001219E98A1D
:1056C8000A8B0BEA450B60688A828B83740D12592A
:1056D800728E828F83A3A3A312589D750C06750D35
:1056E80000780C1220A9EE2405FCE43FFDAA08ABC3
:1056F800091219117402121E3CE5082406F5085017
:10570800020509EE240B12577E125895125895F58A
:105718000C780C1220A91257F6124485121911742C
:1057280002121E3C741C121E72125BCA740180089D
:105738008512828513837413F0741A121E72125B19
:10574800CAE510F0AA0AAB0B7402025F4D12575952
:1057580022EE240CF582E43FF58322E508240DF5BA
:1057680082E43509F58322E508240CF582E435093D
:10577800F58322EE240CF582E43FF583E022EE2443
:1057880004FCE43FFDE50824041AE43509FB221271
:10579800579B2212579F22E0850882850983A3A37D
:1057A80022A3E08C828D8322A3A3A3A3A3A3E02436
:1057B80012FCA3E03400FDAA08AB0922A3A3A3A30B
:1057C800A3A31257CE22A3A3E0F8A3E01257D8222E
:1057D800C82410F582E438F58322A3A3A3A3A3A3C6
:1057E800A3A3A3F08C0A8D0B22F01257F622EE2405
:1057F8000DF582E43FF58322F08514828515832216
:10580800125998F022A3A3A3124D82A3A3A3A3E045
:105818002285088285098374011258252212582985
:10582800221258A98E828F8322125848E0221257DA
:10583800D812589D750C08780C22125848A3E022FB
:10584800124D86A3A3A3A3A32212588F221258DEB7
:10585800A3E02212585F2212599C12586622F08542
:10586800128285138322125943125825A3A3A3A396
:10587800A32212588F780C22125886A3E022A3A3E1
:10588800A3A3A3A3A3A3A31258E2A3A32212589FDE
:10589800125759E022A3E08508828509831258A986
:1058A80022F0A3858208858309221259431259B729
:1058B80012328A22F085080A85090B22E0850C82BB
:1058C800850D83F0A385820C85830D221258DE1284
:1058D80059D3A3A3A3221258E222124D8BA3A3A348
:1058E800A3A3A3A3A32212585F12590EA3F0750A0B
:1058F80006780A221259002212586612590E1259B5
:10590800151259D8F022E08C828D83A322A3F0854A
:105918000E82850F8322A3123285C8241AF582E4E9
:1059280038F5831259431258A5750C10750D007877
:105938000C22A3A3A3A3A3A3A3A3A3E08508828502
:105948000983228E828F8312593A125886125BADD0
:10595800A3A3A3F0EE240BF582E43FF58312596963
:1059680022E0850C82850D83F022F0A3740612587C
:10597800A585128285138312589E850E82850F8312
:1059880012589E22125998125900750A06780A224E
:1059980012599C22F0851482851583740622850885
:1059A80082850983E50C1259B71257CE780C22125A
:1059B8005829A3A3A3A3A3A3221259981259008577
:1059C8000E82850F83A31259D3F0221259D8A3222D
:1059D80012590EA3A32274F1121E96EAFEEBFF8C55
:1059E800088D09EE2405F50CE43FF50D8E828F83B2
:1059F800A385820A85830B8E828F83A3A31220C07E
:105A0800850A82850B83E0F9850C82850D83E04445
:105A180080FC7D04AA08AB091218C97402121E3C46
:105A2800E9F50E850A82850B83E07035E50829FAC9
:105A3800E43509FBEE2406FCE43FFD850C82850D68
:105A480083E014600A24F6601024F86007801212BC
:105A58000C638008120C7B8003120C93EA250EF568
:105A68000E740F121E72125BCAE50EF0AA08AB097B
:105A78007F07021F6874EA121E968A0E8B0F8C121B
:105A88008D138A828B83A3E0F50A7418121E72E0C4
:105A9800F510A3E0F511851082F583E4F0EA2408F7
:105AA800F50CE4350FF50D850C82F583E02409FE2D
:105AB800A3E03400FFC3EE942DEF94004032EEFAD9
:105AC800EFFB1219E98A088B09EA4509600B851072
:105AD800828511837401F0801B851208851309855E
:105AE8000C82850D83E0F8C3EE98FE750A138004D6
:105AF8008C088D09850E82850F83A3A31220C0A967
:105B08000A7CF07D04AA08AB091218C97402121E97
:105B18003CE50E2404F8E4350FF988828983125B8A
:105B2800A3A3125BD7850882850983A3A3A3A3A394
