:020000040000FA
:0600000002011A02226554
:03002B0002299215
:030053000222DBAB
:03006B0002296007
:100083000220BBE5C754F84401F5C77901220000FB
:100093000080FB120086B90003020104E479217891
:1000A30008B800028004F709D8FCE479297802B87B
:1000B30000028004F709D8FCE490028178A3791345
:1000C3008002F0A3D8FCD9FA781A90014A7A01BACF
:1000D30000028007E493A3F608DAF97A237B1590EC
:1000E300014B784179048015E493A3AD82AE838AF2
:1000F300828B83F0A3AA82AB838D828E83D8E9D9C6
:10010300E77582E77583AE740312012C75829175CE
:100113008300740012012C75D00075813F7518811E
:10012300751902759F00020096C09FF59FE473D076
:100133009F22D083D082C09FE493C0E0740193C018
:10014300E0740293F59F2201FF0000B40000280031
:100153002800283075A000A000A000A0000008001F
:1001630008E001F000100010001000100010001053
:100173000050005000500010001000D00700000095
:100183000000000F0001000500307507001000019A
:100193000081FF00000000FFFFFFAD06CB06B306A2
:1001A300EF06FF02020208025000A0000000E8036D
:1001B300023082010000F0810204820100007E15FA
:1001C300022A81010000BF020204820100007F15A0
:1001D30002F681010000D5020204820100008015AD
:1001E30002F881010000D702020482010000811598
:1001F30002FA81080000D80202048201000082157D
:1002030002FC810100008315FF0100FF2002308200
:10021300010000ED81020482010000E71502128251
:10022300000000000002FE81030000060317005BCC
:100233000D5B0D5B0D5B0D5B0D5B0D5B0D5B0D5B7B
:100243000D5B0D5B0D5B0D5B0D131025100D100287
:100253000202020202020202010D0000001001026A
:100263003082010000EA810204820100002A1602A2
:100273001A8201000023070204820100002B1602E8
:10028300188201000015810204820100002C16026D
:10029300168201000007810204820100002D16026C
:1002A300148201000093800204820100002E1602D2
:1002B300108201000081800204820100002F1602D7
:1002C3000E82010000A580020482010000301602A4
:1002D3000C82010000B78002048201000031160283
:1002E3000A82010000F98002048201000032160232
:1002F3000882010000331601E8030577100AFFFFA7
:10030300FF00013075030201060000000000000039
:1003130000000000000000000000000000000000DA
:100323000000000000FFFF0600800CE803140953DF
:10033300696D706C65424C45506572697068657291
:10034300616C051250002003020A0002010503023A
:10035300F0FF53696D706C6520424C452050657207
:100363006970686572616C751400007B140A4368D8
:100373006172616374657269737469632031000229
:10038300436861726163746572697374696320326F
:1003930000084368617261637465726973746963A9
:1003A300203300104368617261637465726973740A
:1003B3006963203400024368617261637465726922
:1003C30073746963203500023082010000E7810203
:1003D30004820100004817021E8203000015150263
:1003E300028201000049170204820100005A170229
:1003F300208201000016150202820100005B170231
:1004030004820100006C1702228202000017150209
:1004130002820100006D170204820100007E1702B0
:100423002482000000181502FE8103000019150242
:1004330002820100007F170204820100009017026C
:1004430026820400001B150202820100009117108E
:100453004B65792050726573732053746174650022
:10046300023082010000F3810204820100002A1895
:10047300022E82000000201502FE810300002115D8
:100483000202820100002B18120135E08B031201D6
:1004930035F38B03120135248C031201355E8C0373
:1004A300120135B78C03120135FE8C031201354658
:1004B3008D03120135758D03120135A48D031201CD
:1004C30035DB8D03120135228E031201353B8E037A
:1004D300120135908E03120135A98E03120135F7EF
:1004E3008E03120135318F0312013501AB02120164
:1004F3003504AC021201353DAC0212013560AC0289
:1005030012013572AC02120135B0AC021201352C66
:10051300AD02120135F4AD0212013516AE0212011D
:1005230035ADAE02120135FFAE0212013530AF0216
:100533001201353DAF02120135A7AF02120135FE9C
:10054300AF0212013501B0021201353AB0021201B5
:10055300353DB00212013547B0021201359BB0029E
:10056300120135DCB0021201350FB1021201354C14
:10057300B1021201354EB202120135F2B20212017A
:10058300355BB30212013599B302120135FF8303C0
:100593001201352784031201355484031201358C6B
:1005A3008403120135EA84031201353685031201EF
:1005B300359D8503120135DD85031201351A860346
:1005C300120135488603120135F28603120135FC08
:1005D30086031201350987031201353C8703120193
:1005E300354887031201356087031201356A870393
:1005F300120135C8AC03120135D6AC03120135EE36
:10060300AC0312013505AD0312013547A6011201F2
:1006130035F1A60112013504A80112013580A801A4
:100623001201359EA901120135DAA90112013575AE
:10063300AA0112013559AB0112013525AC01120192
:1006430035B3AD0112013524AE01120135DEAE0121
:10065300120135D0AF0112013510B001120135C4BA
:10066300B001120135F6B001120135ECB2011201ED
:10067300352EB3011201354CB301120135B2B3016A
:1006830012013581B40112013545B50112013564FA
:10069300B701120135D2C302120135BCC4021201E3
:1006A3003567C502120135B8C50212013568C602A5
:1006B300120135D9C602120135BEC702120135F245
:1006C300C702120135EBC80212013528C902120113
:1006D3003504CA0212013543CA021201355FCA0248
:1006E300120135E09E03120135649F031201358F19
:1006F3009F03120135A9A003120135F887031201E4
:10070300350E88031201352C88031201353D890308
:10071300120135478903120135728A0312013569C3
:100723008B03120135D68B0312013533D00212012C
:100733003563D1021201359AD102120135E4D10297
:10074300120135A7D302120135338201120135BFDD
:1007530082011201352384011201352F8401120114
:10076300356A8401120135D98401120135E285010C
:10077300120135EB8601120135B287011201350FE3
:1007830089011201352D89011201354A89011201AE
:1007930035F78901120135748A011201359C8A01EA
:1007A300120135668D011201356B8D0112013584FD
:1007B3008F01120135D28F011201354290011201CE
:1007C300358090011201355C91011201351C9201B3
:1007D3001201356892011201356B9201120135AF96
:1007E3009201120135F7920112013536930112017C
:1007F300355893011201358C9301120135EF9301A2
:1008030012013576D50212013584D502120135D78E
:10081300D502120135F6D5021201353BD60212017B
:10082300357FD7021201351AD8021201355ED8027C
:1008330012013588D802120135F7D8021201353D6D
:10084300D902120135B4D90212013565DA02120157
:1008530035CC2900120135DC29001201357D2A002F
:10086300120135D92A00120135962B00120135B237
:100873002C00120135E42C00120135132D00120156
:1008830035C02E00120135373100120135A7330070
:100893001201359934001201359235001201359950
:1008A30037001201358D3A00120135BC3B001201AD
:1008B30035C03D00120135D03E001201355F4000C6
:1008C3001201355041001201359E41001201350DD0
:1008D30042001201353142001201358242001201F9
:1008E300352347001201352448001201358548009D
:1008F300120135B04800120135764900120135BEA8
:10090300F902120135C8F9021201350DFA0212017A
:100913003521FA02120135B1FA02120135EAFA025F
:1009230012013525FB021201354EFB02120135A2DD
:10093300FB02120135B7FB02120135D9FB0212018A
:1009430035EEFB0212013502FC0212013517FC02DF
:1009530012013551FC021201357DFC02120135C62C
:10096300FC0212013538FD021201357BFD02120132
:1009730035A5FD02120135D0FD02120135EAA703A8
:10098300120135888D021201356B8E02120135E694
:100993008E02120135218F0212013572900212016B
:1009A30035009102120135929302120135449402EB
:1009B300120135509502120135C396021201351CFE
:1009C30097021201352CF1021201356FF102120167
:1009D30035F3F102120135CAF4021201356E9C039C
:1009E300120135209D031201351C9E031201355B54
:1009F3009E03120135B59E03120135B2A203120103
:100A03003515A303120135B2A303120135E7A3037E
:100A130012013517A40312013552A40312013572D2
:100A2300A40312013577DA0212013503DB02120146
:100A330035C2DB02120135DADC02120135F4DE02C3
:100A4300120135C77200120135EC7200120135B97B
:100A530073001201358D7400120135FA740012010E
:100A6300353A7500120135D675001201350A770043
:100A7300120135E57700120135447800120135D0B3
:100A830078001201353E7900120135CA790012014E
:100A930035107A00120135827A00120135147B0079
:100AA300120135B57B00120135D57B001201351DCE
:100AB3007C00120135667C00120135827C00120134
:100AC30035A87C00120135227D00120135307D00EE
:100AD300120135BF7D00120135287E001201352B2E
:100AE300DF02120135B0DF02120135F2DF0212011B
:100AF30035D6E00212013543E10212013587E102E6
:100B0300120135CBE102120135F8E1021201352061
:100B1300E20212013558E20212013596E202120195
:100B230035BDE20212013537E30212013581E302DA
:100B330012013571B70112013510B901120135489F
:100B4300BB011201359CBB01120135C7BB01120168
:100B530035A3BC01120135D3BC0112013502BD011D
:100B630012013515BD0112013556BD011201358340
:100B7300BD01120135D1BD011201350DBE011201B6
:100B83003552BE011201359FBE0112013519BF0155
:100B93001201355AC10112013544C30112013580D6
:100BA300C3011201350FC50112013554C5011201EC
:100BB30035C7C5011201351CC60112013521C60115
:100BC300120135ABC601120135CAC701120135DB6B
:100BD300C701120135C597021201353E9802120171
:100BE30035F89D02120135039F02120135ACA002B4
:100BF3001201353AA102120135AF5E001201353000
:100C03005F001201355D5F00120135A65F0012011E
:100C130035A760001201350061001201357C6200C6
:100C2300120135FE62001201351963001201358A83
:100C330063001201354764001201350A6500120191
:100C4300359865001201354F660012013562660062
:100C5300120135FB6600120135926700120135B9A6
:100C630067001201352268001201356C6800120119
:100C730035BA6800120135616900120135FF690058
:100C83001201358C6A00120135FD6A0012013544E8
:100C93006B001201359C6B00120135CE6B00120103
:100CA300358F6C00120135926D00120135DB6D003A
:100CB300120135F86D00120135176E001201354A25
:100CC3006F00120135017000120135267000120108
:100CD300353B7000120135AB7000120135EC70002A
:100CE3001201351072001201359172001201356440
:100CF300A102120135AFA102120135BBA1021201FB
:100D0300358FA202120135A6A202120135E3A20217
:100D130012013514A3021201354CA302120135A2AC
:100D2300A302120135B8A302120135F4A302120182
:100D33003507A4021201352EA40212013562A40262
:100D430012013588A502120135D2A602120135CE51
:100D5300A702120135E4A802120135C129001201CC
:100D6300358BD601120135BAD6011201350CDA01E1
:100D730012013563DB0112013522DC0112013589D1
:100D8300DF0112013575E001120135C7E0011201DF
:100D930035E1E00112013513E1011201351EE101D4
:100DA30012013527E101120135D9E101120135A9FB
:100DB300E201120135F0E20112013556E30112019D
:100DC30035C8E301120135C79401120135079801B3
:100DD3001201350D9801120135CC9E01120135F136
:100DE300A201120135998F031201352F90031201CD
:100DF300354590031201359E9003120135E29003AD
:100E03001201351C9103120135B4910312013523EC
:100E130092031201352C9203120135389203120109
:100E2300355292031201357C9203120135919203DC
:100E3300120135F392031201351A93031201357C23
:100E4300F50212013589F502120135A3F5021201EB
:100E530035D6F50212013514F60212013579F60280
:100E63001201358EF60212013599F602120135A6EA
:100E7300F602120135BDF602120135CBF60212015C
:100E830035D6F602120135E2F602120135F1F60209
:100E9300120135FCF6021201351FF702120135C3A8
:100EA300F702120135D3F702120135EDF7021201F1
:100EB300350AF80212013525F8021201354AF80203
:100EC30012013555F8021201356AF8021201357E16
:100ED300F802120135DFF802120135E5F8021201BA
:100EE30035EBF802120135F1F80212013509F90266
:100EF3001201353CF9021201350580021201359CBD
:100F0300800212013534810212013524820212015A
:100F1300355B82021201356E8202120135DC8202D8
:100F23001201357784021201359E84021201354085
:100F3300850212013575850212013586850212017B
:100F430035FF8502120135208602120135388602EB
:100F5300120135908702120135998902120135E990
:100F63008B02120135EC8C021201353B8D0212010A
:100F730035FEC701120135FBC801120135E6C9016F
:100F8300120135F0C90112013512CA011201351ED1
:100F9300CA0112013570CB011201359FCB01120139
:100FA30035CFCC0112013511CD011201353DCE01F2
:100FB30012013513CF0112013565CF01120135C47A
:100FC300CF01120135FBCF0112013536D0011201D9
:100FD30035D1D301120135EAD3011201356CD401A5
:100FE3001201357AD401120135CFD401120135DD56
:100FF300D4011201354AD501120135BCD5011201C4
:101003003502D60112013552F30112013574F30191
:101013001201355EF50112013503F901120135465E
:10102300FA0112013520FB0112013580A4031201DC
:1010330035A5A40312013516A503120135BFB3026A
:10104300120135C8B302120135D1B30212013502C0
:10105300B50212013521B70212013557B702120149
:101063003591B702120135C7B70212013501B80233
:1010730012013535B80212013561B802120135AAE1
:10108300B802120135E4B8021201352CB90212017B
:101093003582B902120135B7B90212013512BA020B
:1010A3001201354CBA021201359DBA02120135D331
:1010B300BA021201350DBB021201353BBB0212010C
:1010C300355EBB0212013595AD03120135C1AD0387
:1010D3001201351CAE0312013526AE03120135365B
:1010E300AE03120135DC9603120135039703120197
:1010F300352D97031201353FAF03120135E2490045
:101103001201354A4C00120135FD4D001201355ACA
:101113004E00120135574F00120135E74F001201FF
:10112300356C50001201359150001201358953007E
:10113300120135FF5300120135F054001201352A14
:1011430055001201356A550012013510570012017E
:1011530035655700120135B257001201352058008A
:1011630012013547580012013561580012013577D5
:101173005900120135875900120135135B00120122
:1011830035355B001201356B5B00120135195D00CB
:10119300120135585D001201358A5E001201354F88
:1011A300E802120135A7E802120135EFE902120144
:1011B300355EEA021201350DEB021201352CEB020A
:1011C30012013580EB02120135BEEB0212013562CA
:1011D300B00312013589AF03120135C8AF03120101
:1011E30035EEFF01120135E9AB03120135F9AB030B
:1011F3001201350EAC03120135C2AC03120135FEE8
:10120300A80312013582A903120135E8A9031201CB
:101213003562FE0112013589FE01120135DFFE013F
:10122300120135F2FE0112013544FF01120135832B
:10123300FF0112013586FF011201350080031201FF
:10124300351480031201358D800312013562810349
:10125300120135348303120135998303120135ECEE
:101263008303120135F87F00120135D8A003120160
:10127300354EA203120135AFA203120135F8AA03BA
:1012830012013521AB031201354AAB03120135625A
:10129300AB03120135A4AB03120135C0CA0212011C
:1012A30035CACA021201350ACB0212013553CB02E9
:1012B3001201358DCB02120135E3CB021201350247
:1012C300CC021201350BCC021201355CCC021201A7
:1012D3003585CC021201359ACC021201350ACD02B2
:1012E30012013598CD02120135DCCD02120135040D
:1012F300CE0212013583CE02120135C6CE0212018F
:101303003503CF0212013515CF0212013534CF0256
:101313001201353DCF0212013507D0021201354BC0
:101323007E001201359C7E00120135257F001201DB
:10133300358B7F00120135AA9903120135D4990325
:10134300120135CE9A03120135FD9A03120135833A
:101353009B0312013501AA03120135F8FD021201A4
:10136300352EFE0212013567FE02120135C0FF025F
:1013730012013540AE0312013556AE03120135603A
:10138300AE03120135B6AE031201358FFF01120110
:1013930035ECBB02120135A9BC02120135E4BC02D3
:1013A3001201350CBD021201356EBD02120135BAB0
:1013B300BD021201351ABE02120135ABBE02120183
:1013C30035A7BF0212013534C102120135B7C1027C
:1013D3001201351BC20212013532C2021201352835
:1013E300C30212013574C302120135C1E3021201B3
:1013F30035D6E30212013586E402120135C6E40252
:10140300120135DFE40212013512E5021201355FE4
:10141300E50212013593E502120135D5E502120109
:1014230035DCE70212013542E80212013517E50106
:10143300120135CEE80112013560EA01120135B718
:10144300EA01120135D6EA0112013554EB0112010A
:1014530035E6EC01120135CAED01120135DBF1016C
:10146300120135AFF201120135D9EC021201353503
:10147300EF0212013563F00212013503F10212018A
:1014830035489303120135B09303120135CD93030D
:10149300120135989403120135EB9403120135CEF2
:1014A300950312013536A6031201359DA6031201D9
:1014B3003502A70312013589A703120135D2AF0301
:1014C30012013518B00312013544B003E066701001
:1014D30008A3E066700A08A3E066700408A3E06648
:1014E30022C3E7960809E7960809E7960809E796ED
:1014F30022C3E09608A3E09608A3E09608A3E0962B
:1015030022C008C3E096F50808A3E096420808A3A2
:10151300E096420808A3E09645087001D3D008225C
:10152300080808EAC0E0EBC0E086F0E7A4FA18096F
:1015330086F0E7A42AFA180986F0E7A42AFA18091C
:1015430086F0E7A42AFA1986F0E7A4FBE5F02AFA65
:10155300190886F0E7A42BFBE5F03AFA190886F0A0
:10156300E7A42BFBE5F03AFA18180986F0E7A4C5BF
:10157300F02BFBE43AFA1908E7C5F0C6A426F6E512
:10158300F03BFBE43AFA1886F0E7A4F6E5F0082608
:10159300F6E43B08F6E43A08F6D0E0FBD0E0FA22A2
:1015A300E4CFC0E0E4CEC0E0E4CDC0E0E4CCC0E0F2
:1015B30075F020E626F608E633F608E633F608E685
:1015C30033F6181818EC33FCED33FDEE33FEEF332E
:1015D300FFC3EC9709ED9709EE9709EF97191919CE
:1015E300400FFFEC97FC09ED97FD09EE97FE1919E3
:1015F30006D5F0BFECF709EDF709EEF709EFF71998
:101603001919D0E0FCD0E0FDD0E0FED0E0FF22606D
:1016130016080808C6C313C618C613C618C613C6C9
:1016230018C613C6D5E0EA22700908080822601616
:10163300181818C6C333C608C633C608C633C60847
:10164300C633C6D5E0EA22E627F60809E637F608E8
:1016530009E637F60809E637F622E026F608A3E09E
:1016630036F608A3E036F608A3E036F622E026F0C5
:1016730008A3E036F008A3E036F008A3E036F02232
:10168300C3E697F60809E697F60809E697F6080908
:10169300E697F622C3E096F008A3E096F008A3E0ED
:1016A30096F008A3E096F022E056F608A3E056F67B
:1016B30008A3E056F608A3E056F622E056F008A386
:1016C300E056F008A3E056F008A3E056F022E0F657
:1016D30008A3E0F608A3E0F608A3E0F622E6F00884
:1016E300A3E6F008A3E6F008A3E6F022E0FAA3E0FD
:1016F300FBA3E0FCA3E0FD22E0F8A3E0F9A3E0FAFA
:10170300A3E0FB22E8F0A3E9F0A3EAF0A3EBF022C5
:10171300CAC0E0E6F0A308DAFAD0E0FA22CAC0E0D1
:10172300E0A3C582CCC582C583CDC583F0A3C582A2
:10173300CCC582C583CDC583DAE6D0E0CA22C3E433
:1017430098F8E499F91217828026C3E49AFAE49B85
:10175300FBE920E7E9121782E498F8E499F922C338
:10176300E498F8E499F9121782E498F8E499F9C334
:10177300E49AFAE49BFB22EB20E7CFE920E7E0B908
:101783000010BB0008E88AF084F8AAF022E4FBC842
:10179300FA22EB70227B10C833C8C933C933500710
:1017A300C39AC3DBF280069A50012ADBEAC833F4FA
:1017B300C8C933F4C9FA2275F008E4C833C8C93379
:1017C300C933C99AC99B5004C92AC93BD5F0ECFB5C
:1017D300C833F4C8E4C9FA22600D08C6A2E713C6E9
:1017E30018C613C6D5E0F322600C08C6C313C61887
:1017F300C613C6D5E0F422700422600D18C6C333A5
:10180300C608C633C6D5E0F41822251810AF08F56C
:1018130018400C15198008F51840021519D2AF228B
:1018230000C0D0251810AF08F518500C0519800812
:10183300F51850020519D2AFD0D0222518F5821021
:10184300AF08F518400C15198008F5184002151952
:10185300D2AF851983222518F582E43519F5832241
:101863002518F8E43519F9222518FAE43519FB226D
:101873002518FCE43519FD22E4732518C582C0E060
:10188300E51934FFC583C0E0E518C3958224F81039
:10189300AF08858319858218800885831985821886
:1018A300D2AFCEF0A3E520F0A37808E608F0A3DEDC
:1018B300FAEFF0A3E58124FAF8E608F0A3E608F0CE
:1018C300A3E608F0A30808E608F0A3E608F0A315CA
:1018D300811581D0E0FED0E0F8158115811581E8EE
:1018E300C0E0EEC0E0222518C582C0E0E51934FF50
:1018F300C583C0E0E518C3958224F910AF0885833A
:10190300198582188008858319858218D2AFCEF095
:10191300A3E520F0A37808E608F0A3DEFAEFF0A32E
:10192300E58124FBF8E608F0A3E608F0A30808E63F
:1019330008F0A3E608F0A315811581D0E0FED0E0FE
:10194300F815811581E8C0E0EEC0E0228519838592
:101953001882E0A3FEE0A3F5207808E0A3F608DFF1
:10196300FAE0A3FFE0A3C0E0E0A3C0E0E0A3C0E08F
:10197300E0A3C0E0E0A3C0E010AF08858218858330
:10198300198008858218858319D2AFD083D082024B
:101993000132851983851882E0A3FEE0A3F5207840
:1019A30008E0A3F608DFFAE0A3FFE0A3C0E0E0A3AA
:1019B300C0E0E0A3C0E0E0A3C0E010AF0885821858
:1019C3008583198008858218858319D2AFD083D087
:1019D3008222C0D02518C582C0E0E51934FFC58333
:1019E300C0E0E518C3958224F310AF0885831985F9
:1019F30082188008858319858218D2AFC8F0A3E9BD
:101A0300F0A3EAF0A3EBF0A37908E709F0A3D8FA6F
:101A1300ECF0A3EDF0A3EEF0A3EFF0A3D0E0F0A37E
:101A2300D0E0F0A3D0E0F0A3E520F0A3E5F0F0A32D
:101A330022851983851882E0C0E0A3E0F9A3E0FAC8
:101A4300A3E0FBA37808E0F608A3DFFAE0FCA3E039
:101A5300FDA3E0FEA3E0FFA3E0C0E0A3E0C0E0A39A
:101A6300E0F5D0A3E0F520A3E0A3F5F010AF0885DF
:101A730083198582188008858319858218D2AFD08F
:101A830082D083D0E0F8D0E0327404800674028000
:101A9300027401C0E0F40412183ED0E012171322BE
:101AA3007404800474028000CCC0E0EDC0E0E5184B
:101AB300C39CCCAD1950011D10AF068C188D198035
:101AC300068C188D19D2AF121720D0E0FDD0E0FCA0
:101AD30022D083D082E9C0E0E493A3C386F0C5F0AB
:101AE30095F0F908E493A386F0C5F095F0700BE444
:101AF30093A3C3994005E9048002A3E475F002A40B
:101B03002582F582E5F03583F583D0E0F9E493A3EC
:101B1300C0E0E493C0E022D083D082ECC0E0EDC00B
:101B2300E0E493A3FCE493A3FDED4C600D121B666C
:101B3300EC24FFFCED34FFFD80EFE493A3FCE4937E
:101B4300A3FDED4C600D121BA5EC24FFFCED34FF4F
:101B5300FD80EFD0E0FDD0E0FCE493A3C0E0E4938C
:101B6300C0E022C0E0C3E493960874019396184042
:101B73000FE4936670080874019366187000701977
:101B8300A3A3C3E49396087401939618A3A3400DEB
:101B9300D0E0D0E0D0E0021B56A3A3A3A3A3A3D01D
:101BA300E022C0E0C0F088F0E49366700808740196
:101BB3009366187000A8F0A3A3700BD0F0D0E0D008
:101BC300E0D0E0021B56A3A3D0F0D0E02274F612BB
:101BD30018E9EAFEEBFF8C088D09EE2434F8E43FA4
:101BE300F9E8FCE9FDEE2435121F0AFAEE24371258
:101BF3001F0AF88508F0A4C885F00A8509F0A42512
:101C03000AF9EA28F8E439F97A257B00121782EAFF
:101C13008C828D83F0FA131313541FF8EE28F8E423
:101C23003FF9E8245DF582E439F583E0C0E0740709
:101C33005AF8D0E0B800028004C313D8FCA2E0EE47
:101C430050082434F582E43F80182436121F0AF525
:101C5300F0EA84A8F0EE28F8E43FF9E82438F582A6
:101C6300E439F583E0F97F0302199574F71218E953
:101C7300EAFEEBFFEE2434121F0AC0E0EE2435F532
:101C830082E43FF583D0E0F08E828F83A3A3A3A3E6
:101C9300A3A3A3C082C0838E828F83A3A3A3A3A382
:101CA300121D73D083D082E0C398F508A3E099F5A1
:101CB30009EE247F121F0A6401705DEE2480121D59
:101CC3006D8E828F83A3A3A3A3A3A3A31220AD8EA0
:101CD300828F83A3A3A3A3A3E0FAA3E0FBC3EA9C9D
:101CE300EB9D5010C3EC98ED99402DC3EA98EB9906
:101CF3005026800EC3EA98EB994007C3EC98ED9900
:101D030040167CB07D04EEFAEFFB120C9BEE247FB1
:101D1300F582E43FF583E4F0AC08AD09EEFAEFFB9E
:101D2300121BD0E9F91229527F02021995C082C011
:101D330083851882851983121D73C3EA9CEB9D501A
:101D430010C3EC98ED99401BC3EA98EB99501480AB
:101D53000EC3EA98EB994007C3EC98ED99400479D8
:101D63000180027900D083D08222F582E43FF5839B
:101D7300E0F8A3E0F922EAC39CFAEB9DFB2274EF9F
:101D83001218E9900376E064086005E06407702A9E
:101D93009061C8E060249003A4E0F4601DE0F8754E
:101DA300F00AA4C8AAF02AF974A628FE740339FF1E
:101DB3008E828F83A3A3A3E07003021E8F906060C3
:101DC300E0C0E0EE2468F582E43FF583D0E0F075EF
:101DD3000C20750D05750800750900E5D914F50A81
:101DE300E5D95403F50E60127403650E6043E50AEA
:101DF300600AEE2467121F0A7002807590051BE0CB
:101E03006401601F121F0760047A0480027A00E5F0
:101E13000AC39AFA95E0FB120B458A088B09EA4537
:101E2300097005120EDB8064121F0770048A0C8B85
:101E33000DE50A6012850C82850D83F50BE5D9F05B
:101E4300A3150BE50B70F6121F07604474FC250AFB
:101E5300F50A780C121A90AC0AA90EEEFAEFFB12EF
:101E63000D557402121823E97026AA08AB09121340
:101E730025793D8E828F83A3A3A3A3E0FA7B00126F
:101E830009A7EEFAEFFB120CBF120D677900806F02
:101E93007403650E6051850A107511007810121ACB
:101EA30090AC0CAD0DAA08AB09120D1974021218EF
:101EB30023EE2468121F0A64807004747F8001E09B
:101EC300F50C780C121A94E50EF50C780C121A9492
:101ED300A90AAC08AD099003A4E0FA7B0012097DBE
:101EE30074021218238013900376E06408600BAC2D
:101EF3000CAD0DEEFAEFFB120DD9120EE779017F4F
:101F03000A021995EE2482F582E43FF583E02274F8
:101F1300F21218E974FC12180DEAFEEBFF8909A20C
:101F2300AFE433F508C2AF021FCEE0601B780C129A
:101F33001A90AC0BA90EEEFAEFFB120D4F740212BE
:101F430018237404250BF50B7401250BF5D9850EA5
:101F5300D9E50B6018F50A850C82850D83E0F5D968
:101F6300A385820C85830D150AE50A70EA75E19550
:101F7300EE2463F8E43FF97A007B00A2AFE433F583
:101F83000BC2AF1220A9EC4D603288828983E0FA3C
:101F9300A3E0FB8A828B831220AD88828983ECF0D5
:101FA300A3EDF08A828B83E4F0A3F01220A9EC4D19
:101FB300700A88828983A3A3E4F0A3F0E50BA2E06F
:101FC30092AF1213259004B7E004F0EE2463121DC0
:101FD3006DE8496064EE2463121F0A2402F8A3E04B
:101FE3003400F988828983E5822402F50CE4358381
:101FF300F50DE0F50BA3E0F50EEE2462121F0A6463
:102003000170369061D0E0F8121F0760047C0480F1
:10201300027C007480C398FA95E0FBE50B2CF8E48E
:102023003400F9E82402F8500109C3EA98EB99A2B5
:10203300D265D0334003021F2D9004B7E0604D906A
:1020430004B8E0F89004B7E0C398500C7402650933
:10205300703A9004B9E060348E828F83A3A3A3A364
:10206300E085188285198312209F7402121859E89B
:1020730012209F9004B6E028F07402121873AA1875
:10208300AB1979011209D19004B7E4F0E508A2E095
:1020930092AF74041218237F07021995F0A3E4F09A
:1020A3009004B7E0F82288828983E0FCA3E0FD2254
:1020B300008521878522C622C0E074EB1219D5A2C0
:1020C300AFE433F508C2AF759B00906182E0A2E0F4
:1020D3005030E591A2E0502A7591FE74016521709C
:1020E3002112224E120E2712223C121AA31226FC90
:1020F3007404121823E9640170057901120E6F123A
:102103001D81906182E0A2E5505DE591A2E5505703
:102113007591DF900376E064076005E06408702F33
:1021230012224E74016521703E120E2712223C12B8
:102133001AA31226FC7404121823E96401700579AA
:1021430001120E6F7901EEFAEFFB121F128018E0F5
:10215300640D7013900398E004F064287002E4F0B7
:102163007A00E0F9120EED906182E0A2E6400302EC
:102173002211E591A2E640030222117591BF90035B
:1021830076E064057008120E0F120E1B8003120E08
:1021930015752100120E7BE9900377F07900120E7A
:1021A3006F120C0B7A017B00900375E0F91212F5A4
:1021B300907803E06442705690051FE014F0704E6F
:1021C300C2AF1221C800782AD0E0F618D0E0F6E5B5
:1021D3009F5407F87005750DFF8003750D7FC4C00C
:1021E300E07829E6F50A08E6550DF50B740B780A35
:1021F3001217EBD0E0250AF8906270E0A2E740F8EE
:10220300E8C333906272F0906270E0D2E0F09061C4
:1022130081E0A2E35009E5E9A2E3500375E9F7A3DE
:10222300E0A2E75009E591A2E7500375917FE50825
:10223300A2E092AF7F08021A348E828F83E0F8A364
:10224300E0C82416F582E438F583229003A4E0F86D
:1022530075F00AA4C8AAF02AF974A628FE740339F3
:10226300FF22C0E0C0D0C082C083906183E0A2E0BF
:102273005009E5BFA2E0500375BFFEE0A2E150099B
:10228300E5BFA2E1500375BFFDE0A2E25009E5BF3F
:10229300A2E2500375BFFBE0A2E35009E5BFA2E34E
:1022A300500375BFF7E0A2E45009E5BFA2E4500371
:1022B30075BFEFE0A2E55009E5BFA2E5500375BF86
:1022C300DFE0A2E65009E5BFA2E6500375BFBFD029
:1022D30083D082D0D0D0E032C0E074F21219D5E5B9
:1022E300A7A2E6500FE5A1A2E6500953A7BF75A127
:1022F300BF12232FE5A7A2E5500CE5A1A2E55006E6
:1023030053A7DF75A1DFE5A7A2E15009E5A1A2E18B
:10231300500375A1FDE5A7A2E2500CE5A1A2E2508E
:102323000653A7FB75A1FB7F01021A3474F7121839
:10233300E9752101900376E064067015120D8B8A0E
:10234300828B83A3A3A3A3A3A3E0FAA3E0FB120DB1
:10235300FDA2AFE433FED2AF90037CE064017018BA
:102363007A207B00900375E0F912140F7A207B002A
:10237300900375E0F91212FB906182E0D2E6F090CF
:10238300051CE0602185C622801690037BE0640172
:102393007008E5C654F84405F5C653BEFC1220B4D4
:1023A3007401652160E4EEA2E092AF7F0202199509
:1023B300008E238F2485822885832785188285199B
:1023C30083E0CEA3E0CF852882852783EBC9EAC8C3
:1023D300EDCBECCA75F010C3E833C8E933C9EA336F
:1023E300CAEB33CBC3EA9EF526EB9FF525B3500426
:1023F300AB25AA26EC33CCED33CDD5F0DAAE23AF43
:10240300242274E91218E974FA12180DEAFEEBFF9C
:102413008C0A8D0B120E33EAF8EBF9ECFAEDFB8E16
:10242300828F83121707900376E024F7C394055035
:102433000675140102256C120D8B8A088B09EA4577
:10244300097003022569EEFCEFFDAA18AB19120E01
:102453002D850882850983A3A3780C1216D1908158
:1024630077780C1216AB85188285198378101216AB
:10247300D190817778101216AB780C79101214E48E
:10248300501F780C791012168390816B780C1215FB
:10249300044047850C14850D15850E16850F17808E
:1024A3004590816B851014851115851216851317B8
:1024B3007814790C1216837814121504501C7514B1
:1024C300007515007516007517017814791012162A
:1024D300837814790C12164A800C75140175150053
:1024E3007516007517007409781412162B9081C3A2
:1024F300780C1216D17814790C1215A385088285ED
:102503000983A3A3A3A3A3A312258A121782880C6A
:10251300890DE4F50EF50F7814790C12164A74043C
:1025230012185912258A121782E8FA8A0CE4F50D5B
:102533007814790C1214E450077814790C1216836A
:10254300900376E06408600AE064066005E06405D1
:10255300702090816F78141215045016908173784F
:102563001412165D800C7514007515007516007530
:102573001700850A82850B8378141216E0740612FD
:1025830018237F10021995E0F8A3E0F97AD07B03B2
:102593002274F71218E9120E4590051AE0640170CF
:1025A30010906245E4F0A3F053F4F343FE0C539010
:1025B300F3120DEBE5C654B84441F5C6E59E544706
:1025C300644170F8906185740FF0900518E0F47021
:1025D30002A3E0604E900519E0600814601B1460CC
:1025E3002E8040750801750900900518E0780812DF
:1025F30017FAE508F45280802A75080175090090DE
:102603000518E078081217FAE508F452908014755B
:102613000801750900900518E078081217FAE50813
:10262300F452A079007F0202199574F71218E9E9B0
:10263300FEEAFF120E4574016E700C7A807B0090E7
:102643000375E0F91212F59029C4E493F46008E4E9
:1026530093F9120BFF800953C6B8E59E544770FAED
:10266300120DF190051AE064017003120C1D900520
:1026730018E0F47002A3E0604B900519E0600814C1
:10268300601A14602C803D750801750900900518C7
:10269300E078081217FAE50842808028750801756A
:1026A3000900900518E078081217FAE508429080AF
:1026B30013750801750900900518E078081217FAD8
:1026C300E50842A0120D8B8A088B09A808A909E81E
:1026D300496014E5E170FCE82414F582E439F583DC
:1026E300E0F46003E0F5E174016F700A7A0190038E
:1026F30075E0F912137F02262874F11218E98A088B
:102703008B098C0A8D0B90817778081216AB740FA6
:10271300121859780C1216D1908177780C1216ABD7
:102723007808790C1214E490816B50107808790CB6
:1027330012168378081215044014800E780C790859
:10274300121683780C121504500479018002790063
:102753007F0802199574ED1218E98A088B098C0A0F
:102763008D0B90817778081216AB74131218597871
:102773000C1216D1908177780C1216AB780C79086D
:102783001214E440117808790C121683AA08AB09D5
:10279300AC0AAD0B8022751000751100751200751F
:1027A30013017810790C1216837810790812164ADF
:1027B300AA10AB11AC12AD137F0C0219959081775F
:1027C30078081216D18A828B8378081216BE7F048A
:1027D30002199574F51218E98C828D837808121604
:1027E300D18A828B83780812169712282EC3E09C15
:1027F300F0A3E09D122820402290819778081216BA
:10280300D18A828B8378081216708A828B83A3A362
:10281300A3A3E02420F0A3E0344EF080A0F088824C
:102823008983C3E09420A3E0944E22EA2404F8E4CD
:102833003BF98C828D83A3A3A3A3E0FCA3E0FD88D3
:102843008289832274F51218E9E9FE9004D2E0FA32
:10285300A3E0FBEE29F8E433F974C928F582748008
:1028630039F583E02AF508A3E03BF5097808121A45
:10287300909081DB1216EF1223B474021218238A8C
:10288300088B098C0A8D0B74107808121612AA088B
:10289300AB097F0402199574F11218E98A0C8B0DA8
:1028A3008C0E8D0F7411121859121AA77411121865
:1028B30059E02401F508A3E03400F509E4F50AF52D
:1028C3000B780C790812152390817F78081216D1A2
:1028D300780C7908121523AA0CAB0DAC0EAD0F12B0
:1028E30023B474021218238B09EA450960047A01A0
:1028F30080027A00EC2AFCE43DFD7413121859E0BF
:10290300F8A3E0F9E8FEE9FFECF8EDF97A717B0250
:1029130012178288088909E4F50AF50B8E828F83E2
:1029230078081216E0ECF8EDF97A717B021217823F
:102933008A088B09740578081217FA8E828F83A38D
:10294300A3A3A3E508F0A3E509F07F08021995C046
:1029530082C083E9906000F0D083D08222C0E0740B
:10296300F21219D5A2AFE433FED2AFE589A2E0405B
:1029730006E589A2E15003121229758900758900C1
:10298300C2C5751A00EEA2E092AF7F01021A34C0ED
:10299300E0C0D0E8C0E0E9C0E0A9A8D2AFC2C775E3
:1029A3001A00E9A2E7E433F8E9A2E792AFD0E0F92D
:1029B300D0E0F8D0D0D0E032C2AF02000022020152
:1029C30032FFFFFFFFFFFFFFFFC082C083E99015C7
:1029D300E6F0D083D08202013274F612187DE990BA
:1029E30002E8F0900348E0F50875090074027808DE
:1029F3001217FAAA08AB091213679002E912338F70
:102A03009002E912377C606F900348E075F003A4ED
:102A1300FAABF012136790030612338F900306127A
:102A2300377C700B9002E912374D12136D8048907A
:102A330003061246E17AFF7BFF12119F7A00801989
:102A43008A08750900740278081217FA124189740A
:102A5300FF122B8FE4F0A3F00A900348E0F8EAC3D7
:102A63009840DD79051208699002E8E0F9120755EC
:102A73007AF37B08120AE502422C74F412187D8A59
:102A8300088B09EB548060479002E8E0F91212DDED
:102A93008A0A8B0BAE0AAF0BEE4F602A8E828F83AE
:102AA300E064B0701A12087BE960148E828F83A3EE
:102AB300A3A3A3E0F9EE2405FAE43FFB12084BEECF
:102AC300FAEFFB1212CBAA08E5096480FB80047AB3
:102AD300007B00022CDF74F212187D74FB12180DB8
:102AE300EAFEEBFFEE4F60457403121859EEF0A3B4
:102AF300EFF0851882851983ECF0A3EDF0740212D0
:102B03001859E9F0AA18AB1912074FE9F5087075BF
:102B13007413121859E0F50AA3E0F50BE50A450B07
:102B230060638E828F83123118EE4F700575080231
:102B330080537A067B001213678A0C8B0DA80CA9AD
:102B43000DE8497005750813803B88828983E41278
:102B53002B8FEEF0A3EF122CABE50AF0A3E50BF0FD
:102B63009002EC122CA49002EC6017E0FCA3E0802E
:102B730003EAFCEBFD8C828D83122CA470F38C8210
:102B83008D83123DA4A9087405024961F0A312467E
:102B9300C3A32274F212187D8908890C750D007481
:102BA30003780C1217FA850C0A850D0B9002EBF0D3
:102BB3009002E9123BAF122CA2602E12136D790022
:102BC300801D890C750D007402780C1217FA90029F
:102BD300E91240488882F583A3A3E4F0A3F00990A7
:102BE3000348E0F8E9C39840D9900348E0FA850A1E
:102BF300F0A4CAA8F0850BF0A428FB1213678A0C73
:102C03008B0DAE0CAF0DEE4F7003022C9890034862
:102C1300E0FC850AF0A4CCA8F0850BF0A428FD798C
:102C2300001212B97C0080318D0C750D007403788D
:102C33000C1217FA8A828B83122C9D88828983E473
:102C4300F0122CAAA3A3F0A3F00DEDC3950840D86E
:102C5300EE250AFEEF350BFF0C900348E0F8ECC3BA
:102C63009850288C0C750D007402780C1217FA908A
:102C730002E9122C9DE82402500109FAE9FB8A8239
:102C83008B83EEF0A3EFF07D0080BFE5089002EBAD
:102C9300F079008002791302496412404CF922A3AF
:102CA300A3123751EA4B22A31246C3A3A3A3227450
:102CB300F412187D7900EAA2E0501F75084A7509DD
:102CC300817808121A9079107C047D007AE87B15CC
:102CD3001208637402121823E9F980007F040219B1
:102CE3004FC082C0839002EC12377C601C888289BB
:102CF30083A3A3E06A7003A3E06B8882898370E8EF
:102D0300A3A3A3A312374D80047A007B000229D525
:102D130074F212187D74FD12180DEAFEEBFF85188C
:102D230082851983E4F0A3F074021218597401F038
:102D33001237797014120A1F1213679002EF1233BD
:102D43008F1237797003022EA512348FEE2404F507
:102D53000AE43FF50B850A82F583E024FE603C24F8
:102D6300FC607424FE607E24FE7003022DF524FEB5
:102D73007003022E0224FE7003022E0F24FE700342
:102D8300022E1C24FE7003022E2924FC7003022E43
:102D93004A24FE7003022E62022E9E120A1F900224
:102DA300F1EAF0A3EB122EB1120497E96003022EAD
:102DB3009E9002F1121AA78E828F83A3A3A3A3A3CB
:102DC3001246E185088285098312374D1208337450
:102DD30002121823022E9EAC18AD19EEFAEFFB1265
:102DE3000881022E6DAC18AD19EEFAEFFB120887BD
:102DF3008078AC18AD19EEFAEFFB12088D806BAC3E
:102E030018AD19EEFAEFFB120893805EAC18AD19FA
:102E1300EEFAEFFB1208998051AC18AD19EEFAEFF8
:102E2300FB12089F80447402121863880C890D7882
:102E33000C121A907402121873EEFAEFFB1208A523
:102E430074021218238023AC18AD19EEFAEFFB12AB
:102E530008ABE9F870167402121859E4F0803CAC20
:102E630018AD19EEFAEFFB1208B1E9F8E8602C8E01
:102E7300828F83A3E064146022850A82850B83E03A
:102E83009002F1F085188285198312374D9002F272
:102E930012338FE8A3122EB1120491EEFAEFFB1254
:102EA30008097402121859E0F97403024961F07CAD
:102EB300F17D028508828509831237512274E81255
:102EC300187D74FA12180D7404121859ECF0A3ED5E
:102ED300F08A128B13EA2405F50EE43513F50FEA95
:102EE3002402F510E43513F511851082F5831237AA
:102EF3004D1205878A0A8B0B7508007C037D0079C8
:102F0300007AF17B021212B9E50E2402F516E435BC
:102F13000FF5177402121863880C890D780C121AB6
:102F230090850E82850F83A3A3A3A3E0F50C750DF3
:102F330000780C121A90E50E2405F50CE4350FF514
:102F43000D780C121A90851682851783123A541243
:102F5300076D74061218238A0C8B0DE50C450D7052
:102F6300030230E18020851882851983E0888289F5
:102F730083F00508851882851983A3E0C0E0123128
:102F830022D0E0F00508E50A24FBFAE50B34FFFB49
:102F9300C3E5089AE49B40030230E17E007F00858D
:102FA3001282851383A3A3A3A3E0F5097809121A58
:102FB30094E4F514F5157814121A907514EE75153A
:102FC300027814121A909002EF121AA774091218B9
:102FD30059121AA7E50A24F9F9AC0CAD0D85108234
:102FE30085118312374D1208DB7409121823E96027
:102FF30003023082850E82850F83A3A3A3A3A3A319
:10300300A3E0F89002EEE0687075E0F5148E157891
:1030130014121A901246DE850E82850F83A3A3A392
:10302300A3A3A3A3A312374D1212B374021218233E
:10303300E9604C9002F212377C703BE4F51478148B
:10304300121A907CFF7DFF79078510828511831208
:10305300374D1208457402121823123782701785F0
:103063000E82850F8312487B740412185912413C57
:10307300123A85023115850C82850D83123118A809
:1030830018A919881489157814121A90740412183F
:1030930059121AA785168285178312338512077969
:1030A30074041218238A0C8B0DEE4F7003022F5EEB
:1030B300123122EE12312D123A3BEF12312DF8A3C9
:1030C300E03400F9E50C450D6003022F698882891D
:1030D3008374FFF0050812312274FFF00508E50838
:1030E300601A1313543F1233951204A3E960099035
:1030F30002F212374D12132579008016850E828550
:103103000F8312487B740412185912413C123DA4D8
:10311300790A023A0EA3A3A3A3E0FEA3E0FF22A829
:10312300089002F2E028123A3B22F00508089002C8
:10313300F2E0282274E812187D74FA12180D740252
:1031430012185912338F7404121859ECF0A3EDF0CE
:103153007402121859E02405123A24E0F50CA3E096
:10316300F50D7402121859E02402F510A3E034009F
:10317300F511851082F58312374D12058775080006
:10318300750900EA24FCFEEB34FFFF8008050CE51B
:103193000C7002050DA808C3EE98EF9400500302CB
:1031A3003341A818A919880E890F780E121A908531
:1031B3001482851583A3A3A3A31246E5121A90E5EF
:1031C300142405F50EE43515F50F780E121A9085C3
:1031D300148285158312338312076D740612182324
:1031E3008A0E8B0FEA450F7003023341EA2404F57C
:1031F30016E4350FF517851682F583E0F50CA3E089
:10320300F50D8518828519831246E18A828B83A383
:10321300A3A3E0F985108285118312374D12075B52
:10322300E9F50960030233417402121859123A4B4B
:10323300F5097809121A94E4F512F5137812121AA3
:10324300907512EE7513027812121A909002EF1213
:103253001AA77407121859121AA7EEF9AC0EAD0F7C
:1032630085108285118312374D1208DB74091218F9
:1032730023E9F5096003023341E508703FE4F50EE5
:10328300F50F780E121A907CFF7DFF790985108265
:1032930085118312374D1208457402121823123A0E
:1032A30071700D7404121859123378791102337541
:1032B3009002EEE024029002F2F080149002F2E019
:1032C300FA9002EEE0790024025001096A49707213
:1032D300A8089002EEE0FAE82AFAE43400FBEE9A3A
:1032E300EF9B405A851682851783E0C0E09002F376
:1032F300123127D0E0F00508851682851783A3E0F5
:10330300C0E0089002F3123127D0E0F005089002E4
:10331300EE1246E5121A901246DEA808123A181267
:1033230012A174021218239002EEE02508F5087426
:10333300FF650C700474FF650D6003023190E508AE
:10334300601F9002F2E0F5F0E50884123395120451
:10335300A9E960099002F312374D12132579008011
:1033630011E509700375090A7404121859123378A8
:10337300A909023A0E123BB3E50CF0A3E50DF022C6
:10338300A3A3124970AA0CAB0D22A3A3EAF0A3EBEB
:10339300F0229002F1F07CF17D0285108285118389
:1033A3001237512274EC12187D74FC12180D123E60
:1033B300B474021218731237471207738A0C8B0DF9
:1033C300EA450D700302347F12348FA818A91988B7
:1033D3001089117810121A907CFF7DFF790B8508F4
:1033E3008285098312374D1208457402121823127D
:1033F3003585700C850A82850B83123A8202348CE0
:103403008E828F83A3A3A3A3E0F5127812121A94DA
:10341300E4F512F5137812121A907512F17513026E
:103423007812121A907810121A90740912185912FD
:103433001AA77409121859E0F9AC0CAD0D8508826E
:1034430085098312374D1208DB7409121823E9FE2C
:1034530070157CF17D0285088285098312374D1230
:1034630004AFE97009802074166E70027E0090022A
:10347300F212374D121325EE7004800B7E01850A7C
:1034830082850B83123DA1EEF9023DB6EE2402F5CF
:1034930008E43FF5092274EC12187D74FC12180D30
:1034A300EAFEEBFF8C0E8D0FEE2405F508E43FF5E5
:1034B30009740212187385088285098312374D1225
:1034C30007738A0C8B0DEA450D7003023575EE24E4
:1034D30002F50AE43FF50BA818A919881089117899
:1034E30010121A907CFF7DFF790D123747120845A1
:1034F3007402121823123585700B8508828509839F
:10350300123A82807A8E828F83A3A3A3A3E0F5125B
:103513007812121A94850882850983A3A3121AA725
:103523007512F17513027812121A907810121A900C
:103533007409121859121AA77409121859E0F912CA
:1035430037431208DB7409121823E9FE700F7CF16C
:103553007D021237471204B5E97009802074166E94
:1035630070027E009002F212374D121325EE7004A2
:10357300800B7E01850882850983123DA1EEF90245
:103583003DB612378CF510A3E0F511EA451122740C
:10359300E812187D74FE12180D8A168B178C148D81
:1035A30015EA2405F50CE43517F50DEA2402F50EAA
:1035B300E43517F50F850E82F58312374D12058713
:1035C3008A088B09750B007C037D0079007AF17BF7
:1035D300021212B9750A00E50814F5100424FFF568
:1035E30008E50934FFF50980549002F1E0FA9002EE
:1035F300EEE0F8EA28F8E43400F9E50898E50999DB
:10360300500D9002F1E0F8E510C3989002EEF0E05F
:10361300F5127513007812121A901246DE9002F218
:10362300E02AFAA3E03400FB1212A1740212182359
:103633009002EEE0F89002F1E028F0050A850C8292
:10364300850D83A3A312405840030237289002F14B
:10365300E0C39508E495094003023728AE0AEE2E2D
:10366300FEE433FF123767AC18AD191246F9E4399B
:10367300FB1207738A128B13AC12AD13EC4D701B44
:10368300750B01123757123DA59002F2122CA4605C
:1036930003121325A90B7402023A108516828517AB
:1036A30083A3A3A3A3E0F50B780B121A94E4F512FA
:1036B300F5137812121A907512EE7513027812121E
:1036C3001A909002EF121AA77407121859121AA728
:1036D300A910850E82850F8312374D1208DB7409FA
:1036E300121823E9F50B709B9002F212377C6003EA
:1036F3000235ECE4F512F5137812121A907CFF7D73
:10370300FF790F850E82850F8312374D120845749A
:103713000212182312378260030235EC1237571254
:103723003A860236997CF17D02850E82850F8312DB
:10373300374D1204BBE9600302368C7900023699D7
:10374300AC0CAD0D850A82850B8312375122E0FA4A
:10375300A3E0FB22123767E0FAA3E0F9EA851482BB
:1037630085158322850C82850D83E02EF8A3E03F27
:10377300F988828983229002EF12487FE849221256
:10378300378CF8A3E0F9E849229002F2EAF0A3EBC0
:10379300F09002F2E02274E812187D74FA12180D08
:1037A300740412185912338F8C168D17740412185F
:1037B30059E02405F50EA3E03400F50F7404121844
:1037C30059E02402123A2412374D1205878A0A8BD4
:1037D3000B7F007E00A818A91988088909780812A8
:1037E3001A90850E82850F83A3A3A3A3E0F5088E09
:1037F300097808121A90E50E2405F508E4350FF54B
:10380300097808121A90850E82850F83A3A3123AB2
:103813005412076D74061218238A0C8B0D8029121B
:103823003A45F00F123A45F00F9002EE123D901216
:103833001A901246DEEFF8123A181212A17402120D
:1038430018239002EEE02FFFE50C450D70030238BC
:10385300D4851882851983123EC6A3A3A3E0F985F4
:10386300148285158312374D12075BE9FEE50C249C
:1038730004F510E4350DF511EE7050740412185967
:10388300123A4BF5087808121A94E4F508F509780A
:1038930008121A907508EE7509027808121A9090AA
:1038A30002EF121AA77407121859121AA7E50A246D
:1038B300FAF9AC0CAD0D85148285158312374D12C0
:1038C30008DB7409121823E9FE6039123A61123DCC
:1038D300A4EF70030239FB9002F2E0F5F0EF84905D
:1038E30002F1F07CF17D0285148285158312374D38
:1038F3001204C1E960099002F312374D12132579BE
:1039030000023A0E8F08EF703BE4F512F5137812BC
:10391300121A907CFF7DFF7911851482851583121D
:10392300374D1208457402121823123A71700912A6
:103933003A61123A85023A0E9002EEE024049002B4
:10394300F2F080359002EEE0F89002F2E0FAE8241B
:1039530004FCE43400FDEC6A4D60030238DAE50A46
:1039630024FAFAE50B34FFFBE50828F8E43400F900
:10397300EA98EB9950030238DA851082851183E0C7
:10398300C0E09002F3E02FF8A3E034008882F583CF
:10399300D0E0F00F851082851183A3E0C0E0123AD6
:1039A30032D0E0F00F74021218638808890978088E
:1039B300121A907402121859121AA7850E82850FD3
:1039C3008312338312077974041218238A0C8B0D24
:1039D300EA450D70030238227402121859E0C0E060
:1039E300123A32D0E0F00F7402121859A3E0C0E08B
:1039F300123A32D0E002382AEE70027E0A850E8235
:103A0300850F83123A67123DA4EEF9740612182348
:103A13007F1002194F9002F3E028FAA3E03400FB71
:103A230022F514A3E03400F515851482F5832212E0
:103A33003A36229002F3E02FFAA3E034008A82F5AB
:103A43008322123A3674FF22123BB3A3A3A3A3E04B
:103A530022124970850E82850F83123751228510F9
:103A63008285118312487F851682851783229002EF
:103A7300F3EAF0A3EBF09002F312487FE849221235
:103A83003DAAE8F0A3E9F079112274EA12187D74D3
:103A9300FE12180D8A088B098C128D13EA2405FE79
:103AA300E43509FFAC18AD198E828F8312374D129E
:103AB30007738A0C8B0DEE2406F50EE43FF50FEA2F
:103AC300450D7003023B85E5082402F50AE4350938
:103AD300F50B8A828B83A3A3A3E0A2E55028851864
:103AE3008285198312374D1208CF8A108B11EA454C
:103AF30011602079121237438510828511831218C1
:103B03007BE9F50C707F850E82850F83E060097970
:103B1300528011750C0E806D850882850983A3A3DD
:103B2300A3A3E0F9E4F508F5097808121A908E8248
:103B33008F83A3A3E0F5087808121A908E828F83EF
:103B4300A3A3A3121AA78E828F831246E1123747CB
:103B53001208E17406121823E9F50C7011850E8220
:103B6300850F83E0702D1237471204C78025741622
:103B7300650C7011750C007418121859123BAFE4E0
:103B83008010750C01124877851282851383E8F043
:103B9300A3E9F0850E82850F83E06004790080023B
:103BA300A90C74021218237F0E02194F123BB32281
:103BB300E0F8A3E0F58388822274EC12187D74F791
:103BC30012180D8A0A8B0B8C108D11EA2405FEE462
:103BD300350BFF750C00AC18AD198E828F8312372D
:103BE3004D1207738A088B09EA45097003023D7B6E
:103BF300E50A2402F50A5002050B8A828B83A3A3EC
:103C0300A3E0A2E5502F85188285198312374D1240
:103C130008CF8A0C8B0DEA450D604F7912AC08ADC5
:103C230009123747850C82850D8312187BE9F50C41
:103C33006003023D7E850A82850B83E0F508A3E0DD
:103C4300F509AA08FB1208C3EA4B70197AFF7BFF38
:103C53001208C3EA4B7003023D718A828B83E50825
:103C6300F0A3E509F07508008008750C0E023D7E8F
:103C730005089002EBE0F8E508C3984003023D71A4
:103C830085080E750F007403780E1217FA8A828B5B
:103C930083A3A3E0250EF8A3E0350F12414570D0AE
:103CA3008E828F83123D9912338F8E828F83A3A3CB
:103CB300123D9912338DEE2404F508E43FF509858E
:103CC3000882F583E088828983A3A3A3A3F0A3E4F6
:103CD300F0EE2405F50EE43FF50F850E82F5831211
:103CE3003D99A3A3A3A312338D751207751300780F
:103CF30012121A90EEFCEFFD740412186B1212A14B
:103D03007402121823E4F5127812121A90850882AD
:103D1300850983E0FC7D0079171237471208457443
:103D230002121823740712185912338F74071218CA
:103D330059E0FA4B603D850882850983123D901254
:103D43001A90850E82850F831246E11212A1740226
:103D530012182374021218731237471204CDE96044
:103D630026740712185912374D1213258019750C32
:103D7300098008750C118003750C011248778510B2
:103D830082851183123DA4A90C74098028E0F508EB
:103D93007509007808221237518882898322123DDF
:103DA300AAE8F0A3E9F022E0F8A3E0F9850E828502
:103DB3000F832274041218237F0C02194F74EC1220
:103DC300187D123EB4751000EE2402F50CE43FF5A5
:103DD3000D850C82F58312374D1208C38A088B09AF
:103DE300EA45097003023E98850A82850B83E064E5
:103DF300016003023E8DAC08AD09AA0AAB0B1208A1
:103E0300B7E9606E85088285098312311AEE2406AC
:103E1300F50AE43FF50B8E828F83A3A3121AA78EB4
:103E2300828F83A3A3A3A3121AA7850A82850B8378
:103E3300121AA779188E828F83123EC612374D123B
:103E430008E17406121823E9F8741668700B850AE2
:103E530082850B83E4F0A38014E860128E828F8343
:103E630012374D850E82850F83EAF0A3EBF088109D
:103E73008018780E121A90AC08AD09EEFAEFFB1217
:103E830008BD7402121823E9F510AA08AB09120839
:103E9300C9E510700E850C82850D8312374D12040F
:103EA300D38009741665107003751000A910023DC4
:103EB300BBEAFEEBFF8C0E8D0FEE2405F50AE43F03
:103EC300F50B22124970850C82850D832274EA1248
:103ED300187D7508007509007E007F00750A00ECE7
:103EE3002402F510E43DF5118035EC65087003ED0F
:103EF30065096003023F8588828983A3A3E06A7012
:103F030003A3E06B707C88828983A3A3A3A31248D5
:103F13007BEE28FEEF39FFEA28FAEB39FB050A129C
:103F23004055503A850A0C750D007403780C12172E
:103F3300FA851082851183124048124145601FE5BE
:103F430008450970A58C088D098882898312311868
:103F530088828983A3A3E02EFAA3E03F80BEE50A0B
:103F6300C394025003024043750800750900EE4FE5
:103F73006010EEFAEFFB12131F8A0E8B0FEA450F48
:103F830070057900024045750B00024018850B0C43
:103F9300750D007403780C1217FA8510828511834E
:103FA300E0250CF50CA3E0350DF50DE50C2406F525
:103FB30014E4350DF515851482F58312414A6042E8
:103FC300E50C2404F512E4350DF513851282F5830F
:103FD300121AA7E50E2508FAE50F3509FB1212A1FF
:103FE3007402121823851282851383E02508F508CD
:103FF300A3E03509F50985148285158312374D121F
:104003001325E50B600D7C087D007900AA0CAB0D30
:104013001212B9050BE50BC3950A5003023F9085B5
:10402300108285118312487B88828983A3A3A3A36B
:10403300A3A3E50EF0A3E50F122CABEEF0A3EFF074
:104043007901023BAA12404C22E0250CF8A3E0358B
:104053000D229002EBE0F8E50AC3982274F01218DF
:104063007D8A0E8B0F8C0A8D0B750D00750C0080ED
:10407300507916EE2406F508E43FF5098E828F8306
:10408300A3A3121AA78E828F83A3A3A3A3121AA793
:10409300850882850983121AA7850E82850F83A35B
:1040A300A312374D1208E17406121823E9F50D74B3
:1040B30016650D706C850882850983E4F0A3F0050D
:1040C3000C9002EBE0F8E50CC3985066AA0C8A0842
:1040D300750900740378081217FA850A82850B8321
:1040E300A3A3124194E8FEE9FF8E828F8312414A13
:1040F3006040EA2401F508E43400F5099002EBE09E
:1041030065087002E509601488828983A3A3A3A3C9
:10411300A3A3A3A312377C6003024074791802405F
:1041230076E9609B124877741012185912413C12B9
:104133003DA4A90D7F0802194FE0FAA3E0F5838A95
:104143008222F988828983124970EC4D2274F61217
:10415300187D7C0080010C900348E0F8ECC3985074
:104163001E8C08750900740278081217FA12418927
:10417300E06A7003A3E06B70DDE8FAE9FB80047A80
:10418300007B0002422C9002E912419488828983C9
:1041930022E02508F8A3E03509F92274F212187D0C
:1041A3008A088B09750A0080278E828F83A3A3A3B5
:1041B300A3122CA260031213257C087D007900EE64
:1041C300FAEFFB1212B98E828F83E4F0A3F0050A93
:1041D3001240555027850A0C750D007403780C1294
:1041E30017FA850882850983A3A3E0250CFEA3E0C3
:1041F300350DFF8E828F8312377C70AD85088285E3
:10420300098374FFF0A3F002496474F612187D1257
:1042130008758A828B83E582458370067A007B006A
:104223008007A3A3A3A312374D7F0202194F74F48F
:1042330012187D89088C828D83E06402703C1248D9
:104243001AFEA3E0F9EEF87402687003742969702A
:1042530029750A02750B00780A121A907410121845
:1042630059121AA77410121859121AA7A908121171
:10427300B17406121823E9F980027901022CDF7464
:10428300E812187D74FB12180DE9851882851983CD
:10429300F08A168B17ECFEEDFF7510008E828F836C
:1042A300A3A3A3E0A2E4502D741D12185912374D95
:1042B3001208CF8A828B83E582458370030246B955
:1042C300790AEEFCEFFDAA16AB1712187BE9F5107D
:1042D30060030246BC741F121859E0F508A3E0F509
:1042E300097421121859E0F50AA3E0F50B7423129F
:1042F3001859E0F50EA3E0F50F8E828F83E0640278
:10430300600302465AA312487B850882850983A36A
:10431300858212858313EE2406F50CE43FF50D88A0
:104323008289831246F9F514E439F5157814121BC2
:104333001A0100002801285C4307000228214403D6
:10434300288F430029504501297B4502291C450339
:104353002950450429F4455A46E50E450F600302EA
:104363004655850C82850D8312487BE8FAE9FB8A62
:10437300828B83E0850A82850B83124704121A908D
:104383008A828B83A3E0FCA3E00245DEE50E450FA2
:104393006003024655850A82850B837401F0124639
:1043A300EE850882850983F07C007D008E828F83F1
:1043B300A3A3A3A3E02401FAA3E03400FB12077331
:1043C300EA4B60408A828B83E02402F8850A828567
:1043D3000B83E028F0EA2404F8E43BF9888289831C
:1043E300E0851282851383124712124704121A9032
:1043F3008A828B83A31246E1E5082403FAE4350994
:10440300FB0245E3850A82850B83E02404F07C04E8
:104413007D007900AA12AB131212B90246BCE50E55
:10442300450F60030246551246EEFEA3E0FF850AE0
:1044330082850B837404F0EE850882850983F0EF8F
:10444300851282851383F07403121873EEFAEFFB5F
:104453001207738A0C8B0DEA450D70030244FF8A21
:10446300828B83A3A31231187401121863880E89F7
:104473000F780E121A907405121859121AA77CFF9E
:104483007DFF12077974041218238B0FEA450F700E
:1044930033850C82850D831246E5121A90850C82B2
:1044A300850D83A3121AA77C027D007A067B8212F4
:1044B30005757404121823E9700A740112185974EB
:1044C300FFF0A3F08E828F83E064027039750C02D3
:1044D300750D00780C121A908E828F83A31246E119
:1044E300E5082404FAE43509FB1212A17402121838
:1044F30023850A82850B83E0240280097401121844
:1045030059EEF0A3EFF074011218591246D3740157
:104513001218591246CA02464FE50E450F600302B0
:104523004655850C82850D83124969AA16AB17126D
:1045330011B7850A82850B837402F0850882850989
:1045430083EAF0851282851383EB024652E50E451A
:104553000F60030246551246EEF8A3E0F9850A827E
:10456300850B837402F0E8850882850983F0E98569
:104573001282851383024652850C82850D8312377E
:104583004D12129BEAFAF8C3950EE4950F405CE8CE
:10459300650E450F70047A00802185188285198382
:1045A300E0FCE50E2CFCE4350FFDC3EC98ED940024
:1045B3005003E08005E50ECAC39AFAEA850A8285AC
:1045C3000B83F08A0A750B00780A121A90850C8205
:1045D300850D83E0250EFCA3E0350FFDAA08AB098A
:1045E3001212A174021218230246BC751007024668
:1045F300BCE50E450F705B850C82850D8312487BED
:10460300850A82850B837407F0888289831246CBDF
:104613001246C3E0851282851383F0E82402FAE48C
:1046230039FB8A828B831246D38A828B831246CAD2
:10463300A3A3122CAA1246D8F0E82405F8500109C6
:10464300888289831246D8A3124712A3A3A3A3F097
:10465300806775100B8062741D12185912374D1242
:1046630008758A828B83E5824583604A12487B887A
:104673000C890DE8450D603E7425121859E0F510BC
:104683007810121A94780E121A90780A121A9078E7
:1046930008121A907407121859E0F9EEFCEFFDAAFC
:1046A30016AB17850C82850D8312187B74071218BD
:1046B30023E9F510800375100EA9107405023A1052
:1046C300F088828983A322A3E08508828509832257
:1046D300124719F022124719A3A3229002EF12499D
:1046E3007022E0F50E750F00780E22850C82850D81
:1046F30083123BB3E022E0FAA3E0F8E4C8F9EA2826
:1047030022F08A828B83E0F50A750B00780A221265
:1047130046C312471922E0850882850983A3A32291
:1047230074EE12187D74FE12180D8A088B09ECFEC4
:10473300EDFF890AAC18AD19EEFAEFFB1207738A85
:104743000C8B0DEA450D700302480B851882851901
:104753008312374D1208758A828B83E582458370F5
:1047630003024806A3A312487B880E890FE8450F6E
:1047730070030248067414121859E0F510A3E0F50B
:1047830011E50AF50B780B121A94741912185912C1
:104793001AA77810121A90741B121859E0F9AC0C6E
:1047A300AD0DAA08AB09850E82850F8312187B74A1
:1047B30005121823E9F50B705274FE650A604C85E7
:1047C3000C82850D83E06402704112481AFAA3E05B
:1047D300F9EAF87402687003742969702E851082EF
:1047E3008511831246F9F50CE439F50D780C121A8C
:1047F30090EEFCEFFDAA08AB091208F97402121837
:10480300238008750B0E8003750B01A90B7402122C
:1048130018237F0A02194FA312487F88828983E0F5
:104823002274F612187D74FE12180D740C121859A6
:1048330012487BE8851882851983F0740112185990
:10484300E9F0E4F508F5097808121A90750802787A
:1048530008121A90740412186388088909780812D8
:104863001A9079FE1208E1740612182374021218C2
:104873002302422C8E828F8312487F22E0F8A3E02A
:10488300F92274F712187DEAFEEBFF8908900306FC
:104893001246E11211B7EA5402600BA908EEFAEFCF
:1048A300FB120767800279017F0102194F74F2122C
:1048B300187D74FE12180DEAFEEBFF890A74016578
:1048C3000A60147402650A600302495F7901120BDE
:1048D30003E9600302495FEEFAEFFB1208C3EA4BF8
:1048E30060031208C9A818A9198808890978081249
:1048F3001A907508027509007808121A907508FE57
:104903007509817808121A907CFF7DFF7A017B007C
:1049130012076D740612182380388508828509836F
:10492300A3A3A3A3A3A3124969EEFAEFFB12119F5A
:10493300E4F50CF50D780C121A9074021218591242
:104943001AA77CFF7DFFAA08AB091207797404122A
:1049530018238A088B09E508450970BE74021218EA
:10496300237F0602194F123BB312497022E0FCA3C6
:10497300E0FD2274F412187D8A088B09ECFEEDFF2A
:104983009015E6E0F4604B7A097B001212C5EA4BFE
:1049930060408A828B8374B1F0A3E41249D8F08A11
:1049A300828B83A3A3E508F0A3E5091249D8A3EEFC
:1049B300F0A3EFF0740C12185912487B8A828B8390
:1049C300A3A3A3A3A3A3A3123DA49015E6E0F91206
:1049D30012D1022CDFF08A828B83A3A3A3A32274B8
:1049E300F012187D74FA12180D8909ECFEEDFF75AB
:1049F30008008A0A8B0B780A121AD4000410084C98
:104A0300254A434A5D4A754A934AAB4ACE4AE64A27
:104A1300FA4A244B9F4BB04BC74BE24B084C084C14
:104A23003A4B740165096003024C038E828F83E065
:104A3300F8C394034003024C03E89016D2024BDF01
:104A4300740265096003024C038E828F83124C4407
:104A53009016D3E8F0A3E9024BDF74016509600304
:104A6300024C03124C354003024C03E890072C021E
:104A73004BDF740165096003024C038E828F83E070
:104A8300F8C394054003024C03E890072D024BDF63
:104A9300740165096003024C03124C354003024C58
:104AA30003E890072E024BDF741065096003024C84
:104AB30003750A10750B00780A121A907A2F7B0778
:104AC3001212A17402121823024C297401650960A1
:104AD30003024C03124C354003024C03E890073F9A
:104AE300024BDF740165096003024C038E828F83DE
:104AF300E09016D6024BDF740465096003024C0391
:104B03008E828F83780C1216D19081DB780C12156C
:104B1300045003024C03900741780C1216E0024C38
:104B230029E96003024C0312070DE97005121163B2
:104B330080559007D48061740765096003024C03B4
:104B4300750A06750B00780A121A908E828F83A35A
:104B5300AC82AD83740212186B1212A7740212187E
:104B6300237C007D00AA18AB198E828F83E0F91293
:104B7300110FE9FEC3940A4003024C2612070DE904
:104B8300700CEEF912116979501213E5806D74D52A
:104B93002EF582E43407F5837401804074016509BE
:104BA300705E124C355059E8900740802F740165B0
:104BB30009704D8E828F83E0F8C3940A5042E890C7
:104BC30016D580187401650970368E828F83E0F8DC
:104BD30074F928C3940A5028E89016D7F0804774D4
:104BE300016509701B9007D3E0F88E828F83E090F4
:104BF30007D3F0E87030E06401702B121157802660
:104C03007508188021C3EA9427EB940050157402A9
:104C13006509700F8E828F8312570A12058DE9F58D
:104C2300088003750802A90874061218237F080276
:104C3300194F8E828F83E0F8C3940222A908024F92
:104C4300E2E0F8A3E0F92274F012187D74B11218AF
:104C53000D8C0C8D0D9081507420121873740612F4
:104C63001720742012187312110FE9F508745F12DC
:104C73001859E0F50AE9C3940A4003024DC875F0D8
:104C830006E9A4F50974411218737A0E74202509F4
:104C9300F91213DFE97009744D121859E0FF80020D
:104CA3007F009016D2E064027005750E01800375D3
:104CB3000E007408650A70047422800274212509A9
:104CC300F50F7C1B7D007900742612186B1212B944
:104CD300EFA2E0E433FE74261218737A1BA90F12B5
:104CE30013DFE970257440121859E024F9C3940ABC
:104CF3005018780E121A947427121873EEF9AA0C2E
:104D0300AB0D12062F74011218237C147D00790059
:104D1300740C12186B1212B9740C1218737A107483
:104D2300242509F91213DFE970307C1079FF740C24
:104D330012186B121319E97021741C121859AC82E2
:104D4300AD837A0474252509F91213DF740C121844
:104D530073EEF9AA0CAB0D120617AC18AD197A0C49
:104D630074702508F91213DFE97049AA18AB1912F8
:104D7300113F7E00EE75F003A4F8A9F08518828533
:104D83001983E58228F8E583125523125704601D21
:104D930088828983A3A3E0F5087509007808121AAD
:104DA30090AA0CAB0D1208E774021218230EEEC37F
:104DB300940440C0EFA2E1500C90072BE0F9AA0C39
:104DC300AB0D1208ED7404650A70289016D2E064E6
:104DD3000270207A0090073FE060027A0190072C6E
:104DE300E06004780480027800E84AF9AA0CAB0D6D
:104DF3001206E37900744F024C2D74F712187D12DA
:104E0300070DE9704F9007D4E06401701512116328
:104E13009007D4E4F07C0AFDF97AD57B071212B926
:104E2300802A750800A80874D528FEE43407FF8E8D
:104E3300828F83E06401700BA9081211698E828F3F
:104E430083E4F00508E508C3940A40D979501213A6
:104E5300E512115702584274F012187D74F01218BB
:104E63000DEAFEEBFF8C088D09750A0AE9600C1444
:104E7300600914603B14607D024F50121151E9F533
:104E83000AC3940A4003024F50E508450970030220
:104E93004F50750C06750D00780C121A90EEFCEF4E
:104EA300FDAA08AB091212A17402121823024F5073
:104EB300750C00750E06750F00780E121A90EEFC35
:104EC300EFFDE50C75F00EA4F8A9F0744D28FA7403
:104ED3000739FB1212B37402121823E9700B050C85
:104EE300E50CC3940A506680CA850C0AE50AC3948C
:104EF3000A505A8049750C00AC18AD197A1075F038
:104F030006E50CA42423F91213DFE9701C7C107945
:104F1300FFAA18AB19121319E9700EEEFCEFFDAAE4
:104F230018AB191205F3E9600B050CE50CC3940AE1
:104F3300501B80C4850C0AE50AC3940A500FE50888
:104F430045096009AA08AB09A90A12114BA90A74F9
:104F530010024C2D74F412187D890975081574FF1D
:104F63006A700374FF6B70277E00AC097A027B00C2
:104F7300EEF912112DE960037508000EEEC3940AD1
:104F830040E8E50960537A7B7B11120B27804A12B4
:104F93000AF78A0A8B0BAE0AAF0BEE4F60387C0020
:104FA3007D00EE2405FAE43FFB8E828F83A3A3A347
:104FB300A3E0F912110FE9F9C3940A500CAC097A72
:104FC300027B0012112D750800E509600CEEFAEF63
:104FD300FB12117B8003750814024C3F1218237FC8
:104FE3000402194F74F212187DECFEEDFF750815DB
:104FF300740E121859E0F50AA3E0F50B74FF6A70FA
:105003000374FF6B7021750900AC0AAD0BEEFAEF68
:10501300FBA909121133E960037508000509E509C5
:10502300C3940A503F80E2120AF78A828B83E58297
:105033004583602D7C007D00E5822405FAE43583F9
:10504300FBA3A3A3A3E0F912110FE9F9C3940A5038
:1050530013AC0AAD0BEEFAEFFB12113375080080A7
:1050630003750814A9080254EBC082C08390074556
:10507300EAF0A3EBF090072BE0FC7D007A267B009F
:1050830012058D90072BE0F9120851025B6474EF4F
:1050930012187D74EC12180DEAFEEBFFEE240CF5EA
:1050A3000CE43FF50DEE2405F50EE43FF50FEE2479
:1050B30009F50AE43FF50BEE2403F508E43FF5098F
:1050C3008E828F83A3A3E024FA700302536724FD27
:1050D300700302528914700302516714601024FD97
:1050E300700302525D1470030252C002536D125ECC
:1050F3007F6049E0F5838882124C44880E890FE86B
:10510300450F6038850C82850D83E0F50C780C1211
:105113001A94EE240BF582E43FF583E0F9850A82C5
:10512300850B8312570A0A0A0AAB09850E82850F7B
:105133008312187B740112182302536D850A82852A
:105143000B83121AA79007411216EF120629740255
:10515300121823E9700302536D7901850A82850BC6
:10516300830253377510008E828F83A385820A854D
:10517300830BE0600302522A850E82850F83E0A22F
:10518300E0400302522A9007DF125E82600302525C
:105193002A7C0E7D007900AA18AB191212B9850C6E
:1051A30082850D83125B2FEA4B6010750C06750D1B
:1051B30000780C121A90EA2410801B125B29120A41
:1051C300F7EA4B700302536D750C06750D00780CEE
:1051D300121A90EA2405FCE43BFD740212186B12C8
:1051E30012A17402121823850E82850F83E0A2E2B6
:1051F3005004D2F08002C2F0A2F0E433F8740C122F
:105203001859E048F0EEFCEFFDAA18AB191211454E
:10521300E970117A027B0090072BE0F91212F579FD
:105223000002536F751015125E7F700302536D12E7
:105233005AF3700302536D850A82850B83E0FC7970
:105243000112537912187BE510700302536DFC7938
:1052530003125B29125AD9025362125E7F70030252
:10526300536D125B06124C44890BE8450B70030225
:10527300536D8E828F83A3E0FC7902125B298882AF
:10528300850B830253627C007D00EE2404FAE43F25
:10529300FB850882850983E0F912110FE9F8C394AD
:1052A3000A400302536DEE240AFCE43FFD7A0475C1
:1052B300F006E8A42425F91213D902536D125B29D1
:1052C300900740E060079016D5E0F9806A9016D207
:1052D300E0700479058060120AF78A0C8B0DA80C24
:1052E300A90DE849700302536DE82404F50CE43971
:1052F300F50D8E828F83A3A3A3A3A3A3A3E0A2E0B0
:10530300503A850C82850D83E0FE6030850A8285E4
:105313000B83A3E054027024740E121873E824055F
:10532300FAE439FBEEF912110FE9701079038508DD
:1053330082850983125B2F120623802EAC0EAD0FDC
:10534300850C82850D83E0F9125B29121187125EA9
:105353007F6017125AF360127C007900125379129E
:10536300187B8006125B2912110979017414121833
:10537300237F0902194F850882850983E0FAA3E098
:10538300FB8E828F832274F512187D74F212180D2E
:10539300EAFE8C0A75F006E9A42420F508AC18ADE2
:1053A300197A0EF91213DFE970467C0679FFAA1801
:1053B300AB19121319E97038740C121859125B2FB8
:1053C300EAF8E50A6005EEC8488004EEF4C858F828
:1053D300EA687001EB6015740C121859E8F0A3E445
:1053E300F0AC18AD197A0EA9081213D9790180020D
:1053F3007900740E1218237F0302194F74F21218E6
:105403007D74E612180D890A8A088B09ECFEEDFFFC
:10541300740C1218737A0E75F006E9A42420F9129D
:1054230013DFE960030254E47C0679FF740C12185D
:105433006B121319E960030254E47470250AF50B27
:10544300AC18AD197A0CF91213DFE960030254E0CA
:10545300AA18AB1912113FE5084509701D7C0C7998
:1054630000AA18AB19121319E970727C0C7D00792C
:1054730000AA18AB191212B98051AC18AD19AA08B9
:10548300AB091211398A0C8B0DA80CA90DE84970D0
:1054930022EE4F604CAC18AD197A007B0012113923
:1054A300EAF8EBF9EA4B603988828983E508F0A3CF
:1054B300E509F012555FFAEE6A7001EF601FEEF036
:1054C3004F700888828983E4F0A3F0AA18AB1912FD
:1054D300113FAC18AD197A0CA90B1213D9790180BD
:1054E300027900741A1218237F0602194F74F712F7
:1054F300187D7E00EE75F003A4F8A9F0EC28F8ED12
:10550300125523E06A7003A3E06B7006E8FAE9FB27
:10551300800B0EEEC3940440DB7A007B00025842FA
:1055230039F9888289832274F712187D7C00EC751F
:10553300F003A4F8A9F0EA28F8EB125523E0F4FEEF
:10554300A3E0F4FF88828983EEF0A3EFF012555FA6
:10555300F4F00CECC3940440D5025842E82402F55D
:1055630082E439F583E02274F412187D74F412187E
:105573000DEAFEEBFF8C088D099007DF125E827047
:105583004FEE4F70030256E3EC450970030256E3F6
:10559300121151E99016D8F0C3940A4033750B00E9
:1055A3007C0679FFE50B75F00EA4FAABF074472A7D
:1055B300FA74073BFB121319E96003025644050B07
:1055C300E50BC3940A40D9750A0AE50A9016D8F088
:1055D3009016D8E0C3940A40030256E375F006E040
:1055E300A4FB9007DF125E82705CEEFCEFFD7A0E87
:1055F30074202BF91213D97C0C7D0079FFAA18AB08
:10560300191212B9AC18AD197A0C9016D8E024709F
:10561300F91213D9750A0E750B00780A121A90EE57
:10562300FCEFFD9016D8E01257A21212A1740212D9
:1056330018239007DFE508F0A3E509F07900025687
:10564300E5850B0A8084E0C824061256FE60197AA9
:105653001B74212BF91213D91256EA2406F582E49E
:1056630038F583E4F0A380D31256EA240A1256FED7
:1056730060107A1B74222BF91213D91256EA240AEA
:1056830080DB1256EA240C1256FE60107A10742343
:105693002BF91213D91256EA240C80C11256F312B5
:1056A30056FE60307A1074242BF91213D91256F374
:1056B300F582E438F583E02410FCA3E03400FD7A9E
:1056C3000475F0069016D8E0A42425F91213D91214
:1056D30056F380899007D3E0600312118D12118174
:1056E3007901740C024FDF9007DFE0F8A3E0C822D2
:1056F3009007DFE0F8A3E0C8240822F582E438F538
:105703008312570AEC4D22E0FCA3E0FD2274F4124D
:10571300187D74F212180DEAFEEBFFE9C3940A50E8
:1057230004EE4F700479028034AC18AD197A0E750B
:10573300F006E9A42420F91213DFE9F508701C75BB
:105743000A06750B00780A121A907402121873EE87
:10575300FAEFFB1212A17402121823A908740E02A5
:105763004FDF74F412187DEAFEEBFF750800750A2B
:1057730006750B00780A121A90EEFCEFFDE508128D
:1057830057A21212B37402121823E96004A9088005
:105793000B0508E508C3940A40D4790A024FE27561
:1057A300F00EA4F8A9F0744728FA740739FB2274A1
:1057B300F712187D750800E50875F00EA4F8A9F036
:1057C300744728FE740739FFEEFCEFFD7A0E75F07F
:1057D30006E508A42420F91213DFE960297C067D7D
:1057E3000079FFEEFAEFFB1212B97C067D0079FF18
:1057F300EE2CFAE43FFB1212B9EE240CF582E43FDF
:10580300F583E4F0A3F00508E508C3940A40A890E3
:1058130007D3E0600312118D121181802274F712F5
:10582300187D7E007F007C06EF1257A274FFF912E9
:105833001319E970010E0FEFC3940A40E9EEF97FE3
:105843000102194F74F712187D7E00EEF9121169E7
:10585300E9F90EEEC3940A5003E960EF80E174F3B3
:1058630012187D74CB12180D89089016D8E06508BC
:10587300701B7A017B0090072BE0F91212FB7A026E
:105883007B0090072BE0F91212FB12119975F006B9
:10589300E508A4FF74202FFE74271218737A0EEE06
:1058A300F91213DFE960030259697C0679FF742753
:1058B30012186B121319E960030259697C0E7D00FB
:1058C30079FF742712186B1212B97C1B7D0079FFC4
:1058D300740C12186B1212B97C0C7D0079FFAA1894
:1058E300AB191212B974271218737A0EEEF9121348
:1058F300D9E9FE740C1218737A1B74212FF9121351
:10590300D9E9F509740C1218737A1B74222FF91252
:1059130013D9E9F50A740C1218737A1074232FF94A
:105923001213D9E9F50B740C1218737A1074242F1F
:10593300F91213D9E9F50C740C1218737A0474254F
:105943002FF91213D9E9FFAC18AD197A0C7470252D
:1059530008F91213D9E9F8E509450A450B450C4F37
:1059630048CE4EFE80027E00EEF974351218237F76
:105973000502194F74F712187DE990072BF01211E5
:105983005702584274F412187DEAFEEBFF548070FC
:1059930003025A4A90072BE0F91212DD8A088B0999
:1059A300EA45097003025A437A01E5082404F8E43E
:1059B3003509F9880A890B8508828B83E0245060B6
:1059C3004014600624E16067806C88828983E070FC
:1059D300688508828B83A3A3A3A3A3A3A3121AA7F7
:1059E3008508828B83A3A3A3A3A312570A850882E6
:1059F3008B83A3A3125B2F12111B74021218238033
:105A03003888828983E0641E700F79008508828B51
:105A130083A3A3125B2F121115850A82850B83E0E2
:105A2300F9E5082405FAE43509FB12084B800AAAB4
:105A330008121127E9FAEA6007AA08AB091212CB88
:105A4300EEFAEF6480802AEE54026028EE6402FED0
:105A53007C007D007A007B00121145E960047A0125
:105A630080027A027B0090072BE0F91212F5EEFA1E
:105A7300EFFB805FEEA2E0504C6401F508EFF509FF
:105A8300125AE7121193E9602A125E7F6020125ABC
:105A9300F3601B7C007901125AE78E828F83121800
:105AA3007B7C007903125AE7125AD912187B121120
:105AB30099800C7A017B0090072BE0F91212F5AA6A
:105AC30008AB09800E54046006EE6404FA80047A7D
:105AD300007B00024FE2900745E0F8A3125AFEF55F
:105AE300838882229007DF125E6FE0FAA3E0FB2235
:105AF300125AFEF9E8FEE9FFEE4F22125B06E0F8C8
:105B0300A3E022E0F5838882A3A3227F0202194F38
:105B1300C082C08390072BE0F98A828B83A3125B38
:105B23002F1208ED803B850882850983E0FAA3E004
:105B3300FB22C082C08374FF12180D12115DE9C3EA
