:020000020000FC
:02000400DAD050
:02000800D8D04E
:02000C00D6D04C
:02001000D4D04A
:02001400D2D048
:02001800D0D046
:02001C00CED044
:02002000CCD042
:02002400CAD040
:02002800C8D03E
:02002C00C6D03C
:02003000C4D03A
:02003400C2D038
:02003800C0D036
:02003C00BED034
:02004000BCD032
:02004400BAD030
:02004800B8D02E
:02004C00B6D02C
:02005000B4D02A
:02005400B2D028
:02005800B0D026
:02005C00AED024
:02006000ACD022
:02006400AAD020
:02006800A8D01E
:02006C00A6D01C
:02007000A4D01A
:02007400A2D018
:02007800A0D016
:02007C009ED014
:020080009CD012
:020084009AD010
:1000880098D000400010FFFF23000B0041546D651D
:100098006761313238345000AF93AFB7AF93BF9335
:1000A800EF93FF93B091C600A0911201E0E0F1E058
:1000B800EA0FF31DB083A395AF70A0931201FF91CF
:0C00C800EF91BF91AF91AFBFAF911895C1
:0200500027C0C7
:1000D40000F060F140F0120199F060F140F0140179
:1000E40099F020F006FF72782D697372000000F019
:1000F400930039F07A0040F01401A4F0BDF03BF213
:1001040040F00F001FF240F0140199F040F000019C
:10011400A9F1A4F020F007FF72783F2D69737200F3
:10012400740000F056FA40F01401A4F040F01201FB
:10013400A4F01FF120F007FF74782D706F6C6C0031
:100144008D0000F0B10039F0A40040F0C60099F031
:1001540020F008FF74783F2D706F6C6C9D0000F0E8
:1001640056FA40F0C000A4F040F020001FF220F046
:1001740004FF75627272AB007BF09800C1FBCBFB8D
:1001840006FF2B7573617274BA0000F040F098009A
:1001940040F0C10099F040F0060040F0C20099F030
:1001A400BE00BDF0F9F240F0C50099F040F0C40083
:0601B40099F06A0020F042
:040000000C945FFA03
:1001BA000A920FB60A920F900F900A9400921601B3
:1001CA0009900FBE09906894089502FF6D2BC20032
:1001DA0000F081FD1FF420F003FF75642A00EA0095
:1001EA0000F0BDF00BF1ECF1E5F0D0F002F1ECF12A
:1001FA00EDF0A9F120F004FF756D6178F10000F0CF
:10020A007FF568F139F00A01D0F0E5F020F004FF3B
:10021A00756D696E000100F07FF573F139F0160112
:10022A00D0F0E5F020F000F040F000801FF226F157
:10023A0039F0220140F0010020F057F120F00AFFC6
:10024A006E616D653E666C6167730C0100F0D2F3F6
:10025A0040F000FF1FF220F00EFF6E616D653E69EF
:10026A006E74657270726574240100F08BFC20F064
:10027A000CFF6E616D653E636F6D70696C6531016F
:10028A0000F0BDF08BFCD0F02B01180139F05001C1
:10029A0040F08A0120F040F02AF020F008FF28639D
:1002AA007265617465293D0100F0D1F9B402BDF0AF
:1002BA000BF1990202F140F019018DF040F017019B
:1002CA008DF020F001005C00530100F0B8F9FCF059
:1002DA0098F58DF020F001002800670100F040F049
:1002EA002900A3F988F520F007FF636F6D70696C28
:1002FA006500700100F002F1BDF0B8FB0BF1D2F31A
:10030A008A0120F001FF2C00790100F0CEF573F389
:10031A00CEF53BF2A6FBCFF520F003005B275D008C
:10032A00870100F02EF8A00120F007006C697465BF
:10033A0072616C00920100F07F0140F08A0120F0A6
:10034A000800736C69746572616C9A0100F07F0130
:10035A0091F79FF720F000F0CEF57F01FFFF20F024
:10036A0000F063FBCEF5D0F073F320F000F0CEF589
:10037A0020F000F063FB8A0120F0050061686561E6
:10038A006400A50100F07F012FF0B00120F0020007
:10039A006966C20100F07F0139F0B00120F0040063
:1003AA00656C7365CC0100F07F012FF0B001D0F0CD
:1003BA00B50120F004007468656ED40100F0B5013F
:1003CA0020F00500626567696E00DF0100F0BB017D
:1003DA0020F005007768696C6500E60100F0CF013E
:1003EA00D0F020F00600726570656174EE0100F0CD
:1003FA001002E30120F00500756E74696C00F701C4
:10040A0000F040F039F08A01BE0120F00500616772
:10041A0061696E00000200F07F012FF0BE0120F03A
:10042A000200646F0B0200F07F019BF2BB0160F1D6
:10043A00730220F004006C6F6F70150200F07F01E8
:10044A00C9F25A0220F005002B6C6F6F70001F0270
:10045A0000F07F01BAF25A0220F005006C6561765D
:10046A006500280200F07F01D4F2C701730220F070
:10047A0003003F646F00320200F07F014902CF019E
:10048A001802D0F0730220F000F07FF59DFDBDF058
:10049A000BF139F0510288F502F109F220F007FF59
:1004AA00656E646C6F6F70003D0200F0BE016702FA
:1004BA00C5F039F06302E3012FF05C0220F002FF7D
:1004CA006C3E540200F0870285F085F040F0FEFF92
:1004DA00870265F220F002FF3E6C640200F040F0F1
:1004EA000200870265F2870285F08DF020F003FF93
:1004FA006C70300070027BF07800C1FBCBFB02FF0E
:10050A006C707C024EF01B0106FF637265617465B4
:10051A00840200F05901BD027F015BF020F006FF62
:10052A00686561646572890200F0CEF50BF10BF122
:10053A00BDF034F139F0AB02BDF040F000FF28F213
:10054A00A3F702F15FF38A0102F120F040F0F0FF15
:10055A005DF807FF776C73636F706500940220FC87
:10056A007600C1FBCBFB06FF72657665616CAE0255
:10057A0000F040F0170185F0C5F039F0CC0240F0E8
:10058A00190185F03BF360F140F017018DF020F07E
:10059A0006FF6C6174657374B8024EF01D010500A4
:1005AA00646F65733E00CD0200F07F01EC027F01AB
:1005BA000E947F01E10220F09A938A93CB0101966F
:1005CA007F916F91BF93AF93DB010C9404F000F01D
:1005DA0002F140F0190185F05FF33A043BF273F33C
:1005EA0020F001FF3A00D40200F059010403E5F0BB
:1005FA0020F007FF3A6E6F6E616D6500F60200F03B
:10060A00CEF5BDF0D2028DF07F0100F0190320F083
:10061A0001003B00FE0200F07F0120F02203BD0230
:10062A0020F001FF5D000D0300F040F0010065F5C8
:10063A008DF020F001005B00160300F060F165F513
:10064A008DF020F008FF7661726961626C651F03A4
:10065A0000F0DFF53A0340F00200E8F520F008FF69
:10066A00636F6E7374616E74270300F05901BD02E3
:10067A007F014EF08A0120F004FF7573657234031E
:10068A0000F05901BD027F0161F08A0120F00700E4
:10069A007265637572736500410300F0D20285F0DA
:1006AA008A0120F009FF696D6D65646961746500EE
:1006BA004C0300F0FB035FF3BDF0D2F340F0FF7F81
:1006CA001FF2D0F073F320F006005B636861725D7D
:1006DA00570300F07F0140F000F98A0120F006007C
:1006EA0061626F727422690300F0DBF47F018C038C
:1006FA0020F005FF61626F727400740300F040F02D
:10070A00FFFF5DF806FF3F61626F72747E0300F0BF
:10071A00EDF039F09203C4F7830388F520F009FF5E
:10072A006765742D737461636B00870300F0BDF015
:10073A0078F5D0F05FF3BDF00BF160F1D0F049022B
:10074A0039F0B2039BF2ACF241F272F5DBF0A9F197
:10075A005FF3D0F057F1BAF2A80388F502F120F05E
:10076A0009FF7365742D737461636B00940300F061
:10077A007FF53BF3D0F060F1490239F0CA039BF2EE
:10078A0078F590F53BF3C9F2C503E5F020F009FFCF
:10079A006D61702D737461636B00B50300F0BDF079
:1007AA0078F5D0F05FF372F578FD490239F0F0037D
:1007BA009BF2ACF25FF3D0F00BF114F12AF0C5F022
:1007CA0039F0EB0302F1E5F0D4F220F002F140F047
:1007DA000200BAF2DE03E5F060F120F00BFF676574
:1007EA00742D63757272656E7400CC0300F040F06C
:1007FA0056005FF320F009FF6765742D6F72646518
:10080A007200F30300F040F05A009B0320F007FF48
:10081A00636F6D706172650000041304BF93AF9338
:10082A008C0189919991DC01899199919C01899115
:10083A009991FC01ED90F190EF1451F40A9519F099
:10084A002A95C1F701C02A95022B11F4882702C004
:10085A008FEF00C0982FAF91BF910C9404F007FF5F
:10086A006E66613E6C6661000C0400F07FFC3BF230
:10087A0010F2A9F120F00BFF7365742D6375727283
:10088A00656E7400340400F040F056003BF320F02B
:10089A0008FF776F72646C697374400400F0D7F5CF
:1008AA0060F1DBF03BF3BDF078F5A6FBD8F520F05C
:1008BA0004FF6F6E6C794D0400F040F0580040F070
:1008CA0001007C0420F00EFF666F7274682D776F4A
:1008DA0072646C6973745D047BF05400C1FBCBFBDA
:1008EA0009FF7365742D6F7264657200680400F005
:1008FA0040F05A00BC0320F00FFF7365742D726537
:10090A00636F676E697A65727300750400F040F070
:10091A006C00BC0320F00FFF6765742D7265636F6E
:10092A00676E697A65727300810400F040F06C00AA
:10093A009B0320F004FF636F6465900400F0590183
:10094A00BD02CEF5B8FB8A0120F008FF656E642D62
:10095A00636F64659F0400F07F010C947F0104F0CB
:10096A0020F008FF286D61726B657229AA047BF07A
:10097A007A00C1FBCBFB0800706F7374706F6E65F1
:10098A00B60400F0D1F9CFFAB8FBB8FBD2F32AF0DB
:10099A0020F00BFF6170706C7475726E6B65790074
:1009AA00C00400F0C7008BF470FB20F002FF2E7326
:1009BA00CE0400F0A6FA5AF406F8A6FA60F1490243
:1009CA0039F0ED049BF2ACF2C9F45AF4C9F2E80426
:1009DA0020F00AFF6275696C642D696E666FDB042C
:1009EA0000F091F715004A756C2031302C20323016
:1009FA0031352031383A34333A313500C4F720F0F2
:100A0A0005FF706C61636500EE0400F07FF599F0F4
:100A1A003BF2D0F00BFD20F004FF776F72640505FE
:0C0A2A0000F0D5F9DFF50A05DFF520F03B
:020000021000EC
:10E00000BF93AF93DB0111969EF0FD015527EE0FF4
:10E01000FF1F551F5BBF679177911196FB01552735
:10E02000EE0FFF1F551F5BBF07911791F801099471
:10E03000E89466EB74EFF2CF04FF6578697411051C
:10E0400021F0AF91BF91E0CF07FF657865637574EC
:10E0500065001CF02BF0BC0189919991DFCF30F065
:10E06000FD015527EE0FFF1F551F5BBFA791B7910D
:10E07000CBCF3AF0982B8991999191F31196C4CF17
:10E0800041F09A938A93FD015527EE0FFF1F551F0C
:10E090005BBF879197911196B7CF4EF09A938A9371
:10E0A000FB0131965527EE0FFF1F551F5BBF879170
:10E0B0009791AACF5BF09A938A93CB010196A4CF54
:10E0C00061F09A938A93FB0131965527EE0FFF1F5B
:10E0D000551F5BBF87919791840D951D95CF07FFC5
:10E0E0002876616C7565290024F000F05901BD02A5
:10E0F0007F017BF020F00E94E102BDF0B8FBD2F37B
:10E100002AF020F001FF40006FF086F0FC018191C1
:10E1100091917ACF01FF210082F08EF0FC0189916C
:10E12000999191838083899199916ECF02FF6321A8
:10E130008AF09AF0FC018991999180838991999153
:10E1400063CF02FF634096F0A5F0FC019927808120
:10E150005BCF02FF4075A1F000F002F3A9F185F05A
:10E1600020F002FF2175A9F000F002F3A9F18DF073
:10E1700020F003FF64757000B1F0BEF09A938A93AB
:10E1800043CF04FF3F647570B9F0C6F0082F092B28
:10E1900011F09A938A9338CF04FF73776170C1F0BE
:10E1A000D1F08C01899199911A930A932DCF04FF94
:10E1B0006F766572CCF0DCF09A938A938A819B81AA
:10E1C00023CF04FF64726F70D7F0E6F089919991C4
:10E1D0001BCF03FF726F7400E1F0EEF08C01299108
:10E1E0003991899199913A932A931A930A930CCF72
:10E1F00003FF6E697000E9F0FDF0229605CF02FF83
:10E20000723EF8F003F19A938A938F919F91FCCE1E
:10E2100002FF3E72FFF00CF19F938F9389919991C9
:10E22000F3CE02FF724008F115F19A938A938F9111
:10E230009F919F938F93E8CE02FF3C3E11F100F037
:10E240009DFD26F120F002FF303D1CF127F1982BB7
:10E25000D1F530C002FF303C23F12EF197FD2AC0EA
:10E2600032C002FF303E2AF135F1821593055CF190
:10E2700051F120C003FF64303E0031F13FF18215BF
:10E2800093058991999182059305ECF0E1F012C014
:10E2900003FF64303C003AF14DF1229697FD0C9457
:10E2A0005AF10C9463F104FF7472756548F158F1EA
:10E2B0009A938A938FEF9FEFA7CE01FF300053F11F
:10E2C00061F19A938A93C1019FCE02FF753C5DF183
:10E2D00069F12991399182179307A8F3A1F3EACF45
:10E2E00002FF753E65F100F0D0F068F120F001FF0B
:10E2F0003C0070F17BF129913991281739071CF7FF
:10E30000D9CF01FF3E0077F185F129913991281786
:10E310003907CCF2C1F2CECF04FF6C6F673281F1C6
:10E3200091F1FC01992780E18A9522F0EE0FFF1F01
:10E33000D8F76ACE9A9568CE01FF2D008CF1A0F136
:10E3400009911991081B190BC8015ECE01FF2B0022
:10E350009CF1AAF109911991800F911F55CE02FFEE
:10E360006D2AA6F1B3F18C01899199919C0131023A
:10E370007001209FC0013003F308900DE11CF31CD5
:10E380001203F308900DE11CF31C9A938A93C701C2
:10E390003BCE06FF756D2F6D6F64AFF1CFF17C0141
:10E3A000299139910991199140E15527000F111FC9
:10E3B000221F331F551F2E153F05520518F00395D8
:10E3C0002E193F094A9589F73A932A93C8011CCE22
:10E3D00003FF756D2A00C9F1EDF18C0189919991C6
:10E3E000809FF00122273327909FF00D211D331DC0
:10E3F000819FF00D211D331D919F200D311DCF01F7
:10E400009A938A93C90100CE06FF696E766572748D
:10E41000E8F10AF280959095F7CD02FF322F04F2D1
:10E4200011F295958795F0CD02FF322A0DF218F280
:10E43000880F991FE9CD03FF616E640014F220F28A
:10E440000991199180239123DFCD02FF6F721BF296
:10E4500029F209911991802B912BD6CD03FF786F6A
:10E46000720025F233F20991199180279127CCCDC2
:10E4700002FF312B2EF23CF20196C6CD02FF312D68
:10E4800038F242F20197C0CD06FF6C73686966747A
:10E490003EF24AF2FC018991999131971AF0880F66
:10E4A000991FFBCFB1CD06FF72736869667444F2A1
:10E4B00059F2FC018991999131971AF096958795B7
:10E4C000FBCFA2CD02FF2B2153F266F2FC01899112
:10E4D000999120813181820F931F8083918389914B
:10E4E000999192CD03FF7270400062F277F29A9395
:10E4F0008A938DB79EB788CD03FF7270210072F2A8
:10E5000081F22FB7F8948DBF9EBF2FBF899199914B
:10E510007BCD03FF737040007CF28EF29A938A9356
:10E52000CE0172CD03FF7370210089F297F2EC01E6
:10E530008991999169CD9CF229913991E0E83E0F3A
:10E54000821B930B3F932F939F938F938991999164
:10E550005BCD01FF690092F2ADF29A938A938F919D
:10E560009F91EF91FF91FF93EF939F938F938E0F66
:10E570009F1F4ACDBBF2EF91FF91E80FF91F8991E0
:10E5800099911BF0FF93EF936BCD0F911F91119613
:10E590003BCDCAF2EF91FF913196BBF3F3CF06FF6B
:10E5A000756E6C6F6F70A9F2D5F21F910F911F916C
:10E5B0000F912ACD06FF636D6F76653ECFF2E0F2D4
:10E5C000BF93AF93E991F991A991B991092F082BC4
:10E5D00041F0E80FF91FA80FB91F1E911293019780
:10E5E000E1F7AF91BF91899199910ECD02FF3E3C29
:10E5F000DAF2FAF2092F982F802F06CD03FF7570FB
:10E600004000F6F203F39A938A93C201FDCC03FF14
:10E6100075702100FEF20CF32C0189919991F4CCD4
:10E6200003FF316D730007F315F3E0EDF7E0319769
:10E63000F1F7EACC03FF323E720010F31FF3FC0146
:10E64000899199919F938F93FF93EF9389919991DA
:10E65000DBCC03FF32723E001AF32EF39A938A93B7
:10E66000EF91FF918F919F919A938A93CF01CCCC98
:10E6700002FF216529F33CF3FC01899199912FB7A1
:10E68000F89428D000B5081709F00BD0319622D0A5
:10E6900000B5091711F0892F04D02FBF89919991E6
:10E6A000B3CCF999FECF07B700FDFDCFF2BDE1BDB8
:10E6B00080BDFA9AF99A089502FF406538F360F335
:10E6C0002FB7F894FC0106D080B5319603D090B5F1
:10E6D0002FBF9ACCF999FECFF2BDE1BDF89A08950B
:10E6E00002FF21695CF320FC5000C1FBCBFB09FF5A
:10E6F0002821692D6E727777290070F37FF31FB799
:10E700001F93F8949C0189919991AF93BF93CF93F4
:10E71000DF9309D0DF91CF91BF91AF91899199910A
:10E720001F911FBF71CC11D0E094F0948E219F21D6
:10E73000982B21F0B394F90102E023D0F90104E011
:10E7400020D0F90100E11DD00895F901E078FF7FA4
:10E75000EF01A0E8B0E0FE015527EE0FFF1F551FA7
:10E760005BBF47915791FE01E217F30711F00A01D1
:10E7700002C07A010C01002704D02196119759F7A5
:10E780000895F999FECF17B710FDFDCF5527EE0F6D
:10E79000FF1F551F5BBF016007BFE895089502FF8B
:10E7A000406977F3D3F3FC015527EE0FFF1F551F88
:10E7B0005BBF8791979128CC03FF6E3E7200CFF329
:10E7C000E1F3FC01082F899199919F938F930A950A
:10E7D000D1F7EF93FF938991999116CC03FF6E7255
:10E7E0003E00DCF3F3F39A938A93FF91EF910E2F9F
:10E7F0008F919F919A938A930A95D1F7CF0104CC78
:10E8000003FF64322A00EEF305F409911991000F19
:10E81000111F881F991F1A930A93F6CB03FF6432C6
:10E820002F0000F413F40991199195958795179588
:10E8300007951A930A93E8CB02FF642B0EF420F499
:10E8400029913991E990F99049915991240F351FF7
:10E850008E1D9F1D3A932A93D7CB02FF642D1CF483
:10E8600031F429913991E990F99049915991421BDC
:10E87000530BE80AF90A5A934A93C701C5CB07FF1D
:10E8800064696E76657274002DF446F409911991ED
:10E8900080959095009510951A930A93B5CB02FF39
:10E8A000643D3FF400F030F428F226F120F002FF3E
:10E8B000752E4FF400F060F14EF720F003FF752E37
:10E8C000720057F400F060F1D0F057F720F00DFF20
:10E8D00073686F772D776F72646C697374005EF480
:10E8E00000F040F076F4D0F064FC20F000F07FFC03
:10E8F000C4F706F857F120F005FF776F72647300D4
:10E9000067F400F040F05C005FF370F420F004FF67
:10E910002B696E747CF48CF4789476CB04FF2D69AB
:10E920006E7487F493F4F8946FCB04FF696E7421CE
:10E930008EF400F040F00000A9F13BF320F004FF5A
:10E94000696E744095F400F040F00000A9F15FF3A7
:10E9500020F008FF696E742D747261709FF4B0F43A
:10E96000809316018991999168944ECB00F040F004
:10E970001601A4F040F00000A9F15FF32AF0C1F401
:10E9800020F0C2F401D040CB189504FF7069636B8E
:10E99000A9F400F03BF272F58DF2A9F185F020F0B8
:10E9A00002002E22C5F400F0DBF47F01C4F720F052
:10E9B00002007322D0F400F040F02200A3F965F5C4
:10E9C00085F039F0E4F4AB0120F004FF66696C6C6B
:10E9D000D8F400F0EDF0EDF0C5F039F0F6F478FD84
:10E9E0009BF2BDF0ACF299F0C9F2F1F4E5F020F041
:10E9F0000BFF656E7669726F6E6D656E7400E5F47F
:10EA00004EF0520009FF776F72646C697374730083
:10EA1000000000F040F0080020F004FF2F70616457
:10EA200002F500F08DF2A4F59FF120F005FF2F68AC
:10EA30006F6C64000DF500F0A4F5DFF59FF120F098
:10EA40000AFF666F7274682D6E616D6516F500F0D1
:10EA500091F70700616D666F7274680020F007FF20
:10EA600076657273696F6E0020F500F040F03B0030
:10EA700020F003FF637075002FF500F040F04900AF
:10EA8000F0F720F008FF6D63752D696E666F39F53C
:10EA900000F040F0450020F005FF2F75736572000F
:10EAA00042F500F040F0260020F005FF665F63703D
:10EAB0007500F8F400F040F0001240F07A0020F009
:10EAC00005FF73746174650055F54EF01F0104FF76
:10EAD0006261736560F561F00C0005FF63656C6C45
:10EAE000730067F518F205FF63656C6C2B006DF51C
:10EAF00079F5029689CA04FF3264757073F500F0E7
:10EB0000DBF0DBF020F005FF3264726F70007BF504
:10EB100000F0E5F0E5F020F004FF7475636B83F519
:10EB200000F0D0F0DBF020F003FF3E696E008CF5C2
:10EB300061F0180004FF2374696294F54EF021011E
:10EB400003FF706164009AF500F0DFF540F06400A7
:10EB5000A9F120F004FF656D6974A0F520FC0E009A
:10EB6000E9FBF5FB05FF656D69743F00AAF520FC24
:10EB70001000E9FBF5FB03FF6B657900B2F520FCA3
:10EB80001200E9FBF5FB04FF6B65793FBBF520FC48
:10EB90001400E9FBF5FB02FF6470C3F57BF048004D
:10EBA000C1FBCBFB05FF656865726500CBF57BF0AB
:10EBB0004C00C1FBCBFB04FF68657265D2F57BF0AE
:10EBC0004A00C1FBCBFB05FF616C6C6F7400DBF589
:10EBD00000F0DFF5A9F1A6FBE0F520F003FF626984
:10EBE0006E00E3F500F040F002006BF58DF020F0D0
:10EBF00007FF646563696D616C00EEF500F040F03D
:10EC00000A006BF58DF020F003FF68657800F8F5D9
:10EC100000F040F010006BF58DF020F002FF626C08
:10EC200004F64EF0200007FF7475726E6B65790074
:10EC30000EF620FC4E00C1FBCBFB04FF2F6D6F6472
:10EC400013F622F69C0109911991412F432717FFD2
:10EC500004C0109500950F5F1F4F37FF04C030951B
:10EC600020952F5F3F4FEE24FF1851E1001F111F29
:10EC70005A9539F447FF04C0109500950F5F1F4F58
:10EC80000BC0EE1CFF1CE21AF30A20F4E20EF31E86
:10EC90008894ECCF0894EACFFA92EA92C801B4C9FA
:10ECA00005FF752F6D6F64001DF600F00BF160F12C
:10ECB00002F1CEF120F006FF6E656761746550F6D3
:10ECC00000F009F23BF220F001FF2F005BF600F0AC
:10ECD00021F6FCF020F003FF6D6F640064F600F095
:10ECE00021F6E5F020F003FF616273006BF678F621
:10ECF00099231AF480959095019686C903FF6D6952
:10ED00006E0073F600F07FF584F139F088F6D0F0EC
:10ED1000E5F020F003FF6D6178007EF600F07FF5EE
:10ED20007AF139F094F6D0F0E5F020F006FF77693B
:10ED30007468696E8AF600F0DBF09FF10BF19FF1C9
:10ED400002F168F120F007FF746F75707065720052
:10ED500096F600F0BDF040F0610040F07B009BF6BD
:10ED600039F0B5F640F0DF001FF220F007FF746FB6
:10ED70006C6F77657200A3F600F0BDF040F04100C3
:10ED800040F05B009BF639F0C8F640F0200028F216
:10ED900020F003FF686C6400B6F64EF0230104FF18
:10EDA000686F6C64C9F600F0CDF6BDF085F041F2F5
:10EDB000BDF00BF1D0F08DF002F199F020F002FFE0
:10EDC0003C23CFF600F0A4F5CDF68DF020F001FF46
:10EDD0002300DFF600F06BF585F067F7EDF040F00B
:10EDE0000900DBF07AF139F0F8F640F00700A9F1FC
:10EDF00040F03000A9F1D3F620F002FF2373E7F6CC
:10EE000000F0EAF67FF528F226F139F001F720F05C
:10EE100002FF233EFDF600F088F5CDF685F0A4F55F
:10EE2000DBF09FF120F004FF7369676E08F700F0D4
:10EE30002DF139F01EF740F02D00D3F620F003FF3E
:10EE4000642E720013F700F00BF190F5F2FCE2F67D
:10EE500000F7EDF017F70BF702F1DBF09FF10FF879
:10EE60001FF820F002FF2E721FF700F00BF181FD5A
:10EE700002F123F720F002FF642E32F700F060F178
:10EE800023F706F820F001FF2E003BF700F081FD8C
:10EE90003EF720F003FF75642E0043F700F060F1A9
:10EEA00057F706F820F004FF75642E724AF700F059
:10EEB0000BF1E2F600F70BF702F1DBF09FF10FF830
:10EEC0001FF820F006FF75642F6D6F6453F700F094
:10EED0000BF160F114F1CEF102F1D0F00BF1CEF1B3
:10EEE00002F120F006FF64696769743F62F700F081
:10EEF000A9F6BDF040F0390084F140F000011FF2A6
:10EF0000A9F1BDF040F0400184F140F007011FF28B
:10EF10009FF140F030009FF1BDF06BF585F068F196
:10EF200020F000F014F1F0F702F1DBF03BF210F208
:10EF3000A9F13BF20BF120F002FF732C72F700F005
:10EF4000BDF0A3F720F000F08A01BDF010F290F5BB
:10EF500017F29FF10BF160F1490239F0B6F79BF21D
:10EF6000BDF085F08A0178F5C9F2B0F702F134F10D
:10EF700039F0BDF7BDF0A4F08A01E5F020F005FFFF
:10EF80006974797065009CF700F0BDF010F290F59F
:10EF900017F29FF10BF160F1490239F0D8F79BF2BB
:10EFA000BDF0D2F3BDF0E5F7E1F73BF2C9F2D0F7DF
:10EFB00002F134F139F0DFF7BDF0D2F3E5F7E5F017
:10EFC00020F000F0F9F2E5F720F000F040F0FF004B
:10EFD0001FF2AEF520F006FF69636F756E74BFF720
:10EFE00000F0BDF03BF2D0F0D2F320F002FF6372EC
:10EFF000EBF700F040F00D00AEF540F00A00AEF582
:10F0000020F005FF737061636500F6F700F011F6FC
:10F01000AEF520F006FF73706163657301F800F0D0
:10F0200060F18EF6BDF039F019F806F841F22FF0D4
:10F0300012F8E5F020F004FF747970650AF800F02A
:10F0400078FD490239F02AF89BF2ACF2A4F0AEF553
:10F05000C9F225F820F001FF27001BF800F0D1F9D4
:10F06000CFFA39FB9DFD39F037F8E5F020F040F09C
:10F07000F3FF5DF807FF68616E646C6572002BF842
:10F0800061F00A0005FF6361746368003AF800F0FC
:10F090008DF20BF140F885F00BF176F240F88DF02F
:10F0A0002AF002F140F88DF002F1E5F060F120F075
:10F0B00005FF7468726F770042F800F0BDF026F12A
:10F0C00039F064F8E5F020F040F885F080F202F1C4
:10F0D00040F88DF002F1D0F00BF196F2E5F002F17C
:10F0E00020F005FF63736B69700058F800F00BF1B6
:10F0F000BDF039F086F8DBF0A4F014F19DFD39F095
:10F1000086F840F00100C2F92FF078F802F1E5F03E
:10F1100020F005FF637363616E0071F800F00BF17E
:10F12000DBF0BDF0A4F014F19DFD26F139F0A3F859
:10F13000D0F041F2D0F0DBF02DF126F139F0A3F858
:10F140003BF22FF091F8FCF0DBF09FF102F1E5F0DB
:10F1500020F006FF61636365707489F800F0DBF0EE
:10F16000A9F141F2DBF0BFF5BDF0E8F826F139F086
:10F17000DAF8BDF040F008009DFD39F0D1F8E5F077
:10F18000EDF07FF584F10BF1EDF0EDF002F139F0E7
:10F19000CFF8E0F841F20BF1DBF002F104012FF0BF
:10F1A000D8F8BDF0AEF5DBF099F03BF2DBF01001E2
:10F1B0002FF0B3F8E5F0FCF0D0F09FF1F9F720F074
:10F1C00000F040F00800BDF0AEF506F8AEF520F016
:10F1D00000F0BDF040F00D009DFDD0F040F00A00C1
:10F1E0009DFD28F220F006FF726566696C6CA9F837
:10F1F00020FC1A00E9FBF5FB04FF63686172F3F879
:10F2000000F0D1F9E5F0A4F020F006FF6E756D6214
:10F210006572FCF800F06BF585F00BF151F90BF11C
:10F2200065F951F902F128F20BF1BDF026F139F040
:10F2300021F988F502F1E5F002F16BF58DF060F14E
:10F2400020F01EF360F160F12DF384F9C5F039F080
:10F2500045F940F001009DFD39F03CF9A4F040F083
:10F260002E009DFD39F03DF902F139F038F9FFFC2F
:10F2700040F002002FF04CF9E5F088F502F1E5F0DE
:10F2800002F16BF58DF060F120F088F502F139F0B4
:10F290004AF960F640F0010002F16BF58DF057F18C
:10F2A00020F000F0DBF0A4F040F02D009DFDBDF05B
:10F2B0000BF139F05EF940F00100C2F902F120F0E3
:10F2C0005BF00A00100002000A0000F0DBF0A4F07E
:10F2D00040F023009FF1BDF060F140F004009BF688
:10F2E00039F07CF960F9A9F1D2F36BF58DF040F0BB
:10F2F0000100C2F92FF07DF9E5F020F007FF3E6E26
:10F30000756D6265720005F900F0BDF039F09DF988
:10F31000DBF0A4F077F726F139F090F9E5F020F072
:10F320000BF124FD6BF585F0F50002F1ED0024FDF5
:10F3300040F00100C2F92FF085F920F005FF70615F
:10F34000727365007EF900F00BF1B8F998F585F05D
:10F35000C2F902F18EF8BDF03BF298F565F240F08B
:10F360000100C2F920F006FF736F757263659EF9A4
:10F3700020FC1600E9FBF5FB07FF2F737472696E22
:10F380006700B3F900F0EDF0DBF0A9F1EDF0EDF07E
:10F390009FF120F00AFF70617273652D6E616D65DB
:10F3A000BCF900F011F6D5F920F000F00BF1B8F936
:10F3B00098F585F0C2F914F176F802F18EF87FF530
:10F3C000A9F1B8F9E5F09FF198F58DF020F009FF6B
:10F3D00066696E642D6E616D6500CAF900F040F0DB
:10F3E000FAF940F05A00D30326F139F0F9F988F51B
:10F3F00060F120F000F00BF17FF502F132FCBDF07E
:10F4000039F007FA0BF1FCF0FCF002F157F120F0B3
:10F4100000F091F70300206F6B00C4F720F000F0BC
:10F4200091F702003E20F9F7C4F720F000F091F7C1
:10F430000400203F3F20C4F76BF585F00BF1FEF58B
:10F4400046F798F585F046F702F16BF58DF020F060
:10F4500004FF71756974E7F900F0800287028DF08E
:10F460008EFA96F29BFA80F2220365F585F026F17A
:10F4700039F03BFA0FFAF8F839F035FA40F0B4FAFF
:10F4800047F8C5F039F04DFABDF040F0FEFF7AF1D3
:10F4900039F04BFA16FA2FF02DFA08FA2FF035FA58
:10F4A00020F005FF70617573650028FA20FC2501C6
:10F4B000D5FBDFFB04FF636F6C6451FA5FFAA4B6FF
:10F4C0002224332424BEE0E0F1E02192E030E9F789
:10F4D000F134D9F7E7E2F1E02F010FEF0DBF04831C
:10F4E00010E41EBF1583CFEAC683D0E4D783A0E81B
:10F4F000BAEF0C9404F004FF7761726D5AFA00F0D1
:10F500006AFD40F08BFB40F056FA00FC220319F62E
:10F510002CFA20F003FF737030007BFA7BF00600BA
:10F52000E9FBF5FB02FF73708AFA61F0080003FF44
:10F530007270300092FA00F09FFA85F020F061F0CE
:10F54000040005FF64657074680097FA00F08EFA95
:10F550008DF29FF110F241F220F009FF696E74659F
:10F56000727072657400A1FA00F0D1F9BDF039F043
:10F57000C4FACFFA65F585F039F0BFFAB8FBD2F3DB
:10F580002AF063FB2FF0B5FA88F520F00DFF646FC9
:10F590002D7265636F676E697A657200ADFA00F06F
:10F5A00040F0DBFA40F06C00D30326F139F0DAFAD0
:10F5B00088F556FB20F000F0EDF0EDF07FF51EF33E
:10F5C000EDF02AF02DF3EDF0BDF056FB9DFD39F086
:10F5D000ECFAE5F060F120F0FCF0FCF057F120F0DF
:10F5E00005FF723A6E756D00C6FA5BF08BFBA001E9
:10F5F00002FB06FF723A646E756DF0FA5BF08BFBEE
:10F6000091FD08FB00F046F740F0D0FF5DF820F0D8
:10F6100000F03EF740F0D0FF5DF820F007FF726584
:10F62000633A6E756D00F9FA00F00AF939F021FBC2
:10F6300040F001009DFD39F01FFBF5FA20F0FEFAC5
:10F6400020F056FB20F008FF7265633A776F726412
:10F650000EFB00F0EEF9BDF026F139F032FBE5F0DB
:10F6600056FB20F039FB20F006FF723A776F726488
:10F6700023FB5BF03DFB41FB49FB00F0E5F02AF08A
:10F6800020F000F02DF139F047FB8A0120F02AF03C
:10F6900020F000F02DF139F04FFB7F017F018A014E
:10F6A00020F006FF723A6661696C34FB5BF05AFB2E
:10F6B0005AFB5AFB00F040F0F3FF5DF806FF3F7382
:10F6C0007461636B51FB00F0A6FA2DF139F06BFB0E
:10F6D00040F0FCFF5DF820F003FF766572005EFBF2
:10F6E00000F027F5C4F706F86BF585F035F5FEF563
:10F6F00081FDE2F6EAF640F02E00D3F600F70BF7B4
:10F700001FF86BF58DF006F83DF5C4F720F004FF07
:10F710006E6F6F706CFB8CFB0C9404F006FF756EC3
:10F720007573656487FB00F08DF2DFF59FF120F0C3
:10F730000200746F8EFB00F02EF88AFD65F585F0EF
:10F7400039F0ACFB7F01A6FB8A0120F000F002F14A
:10F75000BDF0B8FB0BF1D2F3BDF0B8FBB8FBD2F3B0
:10F760002AF020F007FF692D63656C6C2B0098FB75
:10F7700000F03BF220F007FF4564656665724000CB
:10F78000B2FB00F0D2F35FF320F007FF456465663B
:10F7900065722100BBFB00F0D2F33BF320F007FFC2
:10F7A0005264656665724000C5FB00F0D2F385F0D7
:10F7B00020F007FF5264656665722100CFFB00F000
:10F7C000D2F38DF020F007FF556465666572400046
:10F7D000D9FB00F0D2F302F3A9F185F020F007FF86
:10F7E0005564656665722100E3FB00F0D2F302F315
:10F7F000A9F18DF020F006FF646566657221EFFBCC
:10F8000000F08AFDBDF0B8FBB8FBD2F32AF020F07F
:10F8100006FF646566657240FBFB00F08AFDBDF083
:10F82000B8FBD2F32AF020F007FF28646566657202
:10F83000290008FC00F05901BD027F0120FC20F0E6
:10F840000E94E102BDF0B8FBD2F32AF02AF020F0CA
:10F850000FFF7365617263682D776F72646C6973F3
:10F86000740014FC00F00BF160F140F047FC02F171
:10F8700064FCBDF026F139F041FC88F5E5F060F15B
:10F8800020F0BDF08BFCD0F02B01180120F000F02F
:10F890000BF1E5F07FF514F17FFC95FC39F055FC98
:10F8A00002F1E5F060F157F120F088F502F160F126
:10F8B00020F011FF74726176657273652D776F7237
:10F8C000646C6973740028FC00F05FF3BDF039F0DC
:10F8D00075FC7FF51EF3D0F02AF02DF3EDF039F032
:10F8E00075FC3A04D2F32FF066FC88F520F00BFF8C
:10F8F0006E616D653E737472696E670059FC00F04D
:10F90000F0F740F0FF001FF220F007FF6E66613E47
:10F910006366610077FC00F03A043BF220F008FFD8
:10F9200069636F6D7061726585FC00F00BF1DBF04F
:10F9300002F11FF139F0A0FC88F5E5F057F120F055
:10F94000D0F060F1490239F0C5FC9BF2DBF085F0A4
:10F95000C8FCDBF0D2F3C8FCBDF040F0000168F158
:10F9600039F0B6FCD0F040F0FF001FF21FF139F083
:10F97000BDFC88F557F1D4F220F03BF2D0F078F5D9
:10F98000D0F040F00200BAF2A6FC88F560F120F059
:10F9900000F0BDF040F0FF001FF2BCF6D0F0F9F22D
:10F9A00040F0FF001FF2BCF6F9F228F220F001FF50
:10F9B0002A008FFC00F0B2F1E5F020F001FF6A00B0
:10F9C000D7FC00F076F240F00700A9F185F076F25E
:10F9D00040F00900A9F185F0A9F120F004FF64616D
:10F9E0006273DEFC00F0BDF02DF139F0F8FCFFFC95
:10F9F00020F007FF646E656761746500EEFC00F03F
:10FA000045F440F0010060F11FF420F005FF636D44
:10FA10006F766500F9FC0CFDBF93AF93E991F99106
:10FA2000A991B991092F082B21F01D9111930197EC
:10FA3000E1F7AF91BF91899199910C9404F005FF82
:10FA400032737761700006FD00F0EDF00BF1EDF020
:10FA500002F120F003FF746962001FFD4EF04D01BA
:10FA60000AFF726566696C6C2D7469622AFD00F08C
:10FA70002EFD40F05A00AEF89EF58DF060F198F53D
:10FA80008DF057F120F00AFF736F757263652D7466
:10FA9000696230FD00F02EFD9EF585F020F006FF36
:10FAA00065653E72616D43FD00F060F19BF2DBF035
:10FAB0005FF3DBF08DF078F5D0F078F5D0F0C9F297
:10FAC00057FD88F520F009FF696E69742D7573651F
:10FAD00072004FFD00F040F07C0002F340F01C008B
:10FAE00010F254FD20F006FF626F756E647363FDC3
:10FAF00000F0DBF0A9F1D0F020F003FF733E6400CA
:10FB000073FD00F0BDF02DF120F005FF3E626F6443
:10FB100079007DFD3CF20800326C69746572616C9D
:10FB200085FD00F0D0F07F0140F08A017F0140F0B8
:10FB30008A0120F001FF3D008BFD00F09FF126F1CE
:10FB400020F001FF31009AFD4EF0010001FF32006C
:10FB5000A1FD4EF0020002FF2D31A6FD4EF0FFFF89
:00000001FF
