:020000020000FC
:0200040027D102
:0200080025D100
:02000C0023D1FE
:0200100021D1FC
:020014001FD1FA
:020018001DD1F8
:02001C001BD1F6
:0200200019D1F4
:0200240017D1F2
:0200280015D1F0
:02002C0013D1EE
:0200300011D1EC
:020034000FD1EA
:020038000DD1E8
:02003C000BD1E6
:0200400009D1E4
:0200440007D1E2
:0200480005D1E0
:02004C0003D1DE
:0200500001D1DC
:02005400FFD0DB
:02005800FDD0D9
:02005C00FBD0D7
:02006000F9D0D5
:02006400F7D0D3
:02006800F5D0D1
:02006C00F3D0CF
:02007000F1D0CD
:02007400EFD0CB
:02007800EDD0C9
:02007C00EBD0C7
:02008000E9D0C5
:02008400E7D0C3
:10008800E5D000400010FFFF23000B0041546D65D0
:100098006761313238345000AF93AFB7AF93BF9335
:1000A800EF93FF93B091C600A0911201E0E0F1E058
:1000B800EA0FF31DB083A395AF70A0931201FF91CF
:0C00C800EF91BF91AF91AFBFAF911895C1
:0200500027C0C7
:1000D40001F061F141F012019AF061F141F0140173
:1000E4009AF021F006FF72782D697372000001F016
:1000F40093003AF07A0041F01401A5F0BEF03CF20E
:1001040041F00F0020F241F014019AF041F0000197
:10011400AAF1A5F021F007FF72783F2D69737200F0
:10012400740001F057FA41F01401A5F041F01201F6
:10013400A5F020F121F007FF74782D706F6C6C002E
:100144008D0001F0B1003AF0A40041F0C6009AF02D
:1001540021F008FF74783F2D706F6C6C9D0001F0E6
:1001640057FA41F0C000A5F041F0200020F221F040
:1001740004FF75627272AB007CF09800C2FBCCFB8A
:1001840006FF2B7573617274BA0001F041F0980098
:1001940041F0C1009AF041F0060041F0C2009AF02B
:1001A400BE00BEF0FAF241F0C5009AF041F0C4007E
:1001B4009AF06A0021F008FF31772E726573657436
:1001C400C200E4009A938A939927249A2C98E0E831
:1001D400F7E03197F1F71FB7F8942C9A2498E0E0F0
:1001E400F1E03197F1F783B184FF9FEF1FBF2498AB
:1001F4002C98E0E8F6E03197F1F7892F0C9405F09C
:1002040007FF31772E736C6F7400DD000901249AA7
:100214002C981FB7F894E8E1F0E03197F1F788944F
:10022400879510F424982C9AE4E2F0E03197F1F7E2
:1002340003B104FD8068ECECF0E03197F1F7249809
:100244002C9AE8E0F0E03197F1F71FBF0C9405F029
:040000000C9460FA02
:100254000A920FB60A920F900F900A940092160118
:1002640009900FBE09906894089502FF6D2B020156
:1002740001F071FD20F421F003FF75642A003701B9
:1002840001F0BEF00CF1EDF1E6F0D1F003F1EDF187
:10029400EEF0AAF121F004FF756D61783E0101F0E2
:1002A40080F569F13AF05701D1F0E6F021F004FF4E
:1002B400756D696E4D0101F080F574F13AF06301DA
:1002C400D1F0E6F021F001F041F0008020F227F1B6
:1002D4003AF06F0141F0010021F058F121F00AFFDA
:1002E4006E616D653E666C616773590101F0D3F30D
:1002F40041F000FF20F221F00EFF6E616D653E6952
:100304006E74657270726574710101F08CFC21F079
:100314000CFF6E616D653E636F6D70696C657E0187
:1003240001F0BEF08CFCD1F0780165013AF09D013A
:1003340041F0D70121F041F02BF021F008FF2863B0
:100344007265617465298A0101F0D2F90103BEF076
:100354000CF1E60203F141F019018EF041F01701AE
:100364008EF021F001005C00A00101F0B9F9FDF06C
:1003740099F58EF021F001002800B40101F041F05C
:100384002900A4F989F521F007FF636F6D70696C8A
:100394006500BD0101F003F1BEF0B9FB0CF1D3F32C
:1003A400D70121F001FF2C00C60101F0CFF574F351
:1003B400CFF53CF2A7FBD0F521F003005B275D00ED
:1003C400D40101F02FF8ED0121F007006C69746588
:1003D40072616C00DF0101F0CC0141F0D70121F022
:1003E4000800736C69746572616CE70101F0CC01FB
:1003F40092F7A0F721F001F0CFF5CC01FFFF21F037
:1004040001F064FBCFF5D1F074F321F001F0CFF5E6
:1004140021F001F064FBD70121F0050061686561FA
:100424006400F20101F0CC0130F0FD0121F0020082
:1004340069660F0201F0CC013AF0FD0121F00400DD
:10044400656C7365190201F0CC0130F0FD01D1F047
:10045400020221F004007468656E210201F00202B8
:1004640021F00500626567696E002C0201F0080244
:1004740021F005007768696C6500330201F01C0205
:10048400D1F021F006007265706561743B0201F0E1
:100494005D02300221F00500756E74696C0044023F
:1004A40001F041F03AF0D7010B0221F00500616739
:1004B40061696E004D0201F0CC0130F00B0221F0B5
:1004C4000200646F580201F0CC019CF2080261F151
:1004D400C00221F004006C6F6F70620201F0CC0165
:1004E400CAF2A70221F005002B6C6F6F70006C023A
:1004F40001F0CC01BBF2A70221F005006C65617626
:100504006500750201F0CC01D5F21402C00221F09D
:1005140003003F646F007F0201F0CC0196021C02CD
:100524006502D1F0C00221F001F080F58DFDBEF02E
:100534000CF13AF09E0289F503F10AF221F007FF6B
:10054400656E646C6F6F70008A0201F00B02B40276
:10055400C6F03AF0B002300230F0A90221F002FFF6
:100564006C3EA10201F0D40286F086F041F0FEFF59
:10057400D40266F221F002FF3E6CB10201F041F0B8
:100584000200D40266F2D40286F08EF021F003FF5A
:100594006C703000BD027CF07800C2FBCCFB02FF23
:1005A4006C70C9024FF01B0106FF637265617465CC
:1005B400D10201F0A6010A03CC015CF021F006FF90
:1005C400686561646572D60201F0CFF50CF10CF137
:1005D400BEF035F13AF0F802BEF041F000FF29F226
:1005E400A4F703F160F3D70103F121F041F0F0FF28
:1005F4005EF807FF776C73636F706500E10221FC9E
:100604007600C2FBCCFB06FF72657665616CFB026B
:1006140001F041F0170186F0C6F03AF0190341F0F9
:10062400190186F03CF361F141F017018EF021F0DD
:1006340006FF6C617465737405034FF01D010500BA
:10064400646F65733E001A0301F0CC013903CC01D9
:100654000E94CC012E0321F09A938A93CB01019638
:100664007F916F91BF93AF93DB010C9405F001F080
:1006740003F141F0190186F060F387043CF274F34E
:1006840021F001FF3A00210301F0A6015103E6F035
:1006940021F007FF3A6E6F6E616D6500430301F050
:1006A400CFF5BEF01F038EF0CC0101F0660321F0FC
:1006B40001003B004B0301F0CC0121F06F030A035E
:1006C40021F001FF5D005A0301F041F0010066F5DD
:1006D4008EF021F001005B00630301F061F166F527
:1006E4008EF021F008FF7661726961626C656C03BB
:1006F40001F0E0F5870341F00200E9F521F008FF7D
:10070400636F6E7374616E74740301F0A6010A035F
:10071400CC014FF0D70121F004FF7573657281039A
:1007240001F0A6010A03CC0162F0D70121F0070011
:1007340072656375727365008E0301F01F0386F0A2
:10074400D70121F009FF696D6D6564696174650005
:10075400990301F0480460F3BEF0D3F341F0FF7F46
:1007640020F2D1F074F321F006005B636861725DDE
:10077400A40301F0CC0141F001F9D70121F00600F6
:1007840061626F727422B60301F0DCF4CC01D90308
:1007940021F005FF61626F727400C10301F041F042
:1007A400FFFF5EF806FF3F61626F7274CB0301F0D6
:1007B400EEF03AF0DF03C5F7D00389F521F009FF25
:1007C4006765742D737461636B00D40301F0BEF02C
:1007D40079F5D1F060F3BEF00CF161F1D1F096023D
:1007E4003AF0FF039CF2ADF242F273F5DCF0AAF1A9
:1007F40060F3D1F058F1BBF2F50389F503F121F070
:1008040009FF7365742D737461636B00E10301F078
:1008140080F53CF3D1F061F196023AF017049CF2B2
:1008240079F591F53CF3CAF21204E6F021F009FFE0
:100834006D61702D737461636B00020401F0BEF08E
:1008440079F5D1F060F373F568FD96023AF03D0452
:100854009CF2ADF260F3D1F00CF115F12BF0C6F07F
:100864003AF0380403F1E6F0D5F221F003F141F057
:100874000200BBF22B04E6F061F121F00BFF676587
:10088400742D63757272656E7400190401F041F081
:10089400560060F321F009FF6765742D6F7264657B
:1008A4007200400401F041F05A00E80321F007FF10
:1008B400636F6D70617265004D046004BF93AF9304
:1008C4008C0189919991DC01899199919C0189917B
:1008D4009991FC01ED90F190EF1451F40A9519F0FF
:1008E4002A95C1F701C02A95022B11F4882702C06A
:1008F4008FEF00C0982FAF91BF910C9405F007FFC4
:100904006E66613E6C666100590401F080FC3CF245
:1009140011F2AAF121F002FF2E73810401F0A7FA6B
:100924005BF407F8A7FA61F196023AF09F049CF28F
:10093400ADF2CAF45BF4CAF29A0421F006FF632113
:10094400407370698D04A60403D099270C9405F0B4
:100954008EBD0DB5087F0DBD0DB507FFFACF8EB561
:10096400089505FF6E4073706900A004B9048C01FA
:1009740089919991FC01C8012EBC2DB527FFFDCFAB
:100984002EB521930197C1F7899199910C9405F0A3
:1009940005FF6E2173706900B304D0048C01899142
:1009A4009991FC01C80121912EBD2DB527FFFDCFE2
:1009B4002EB50197C1F7899199910C9405F00BFF1D
:1009C4006170706C7475726E6B657900CA0401F0A5
:1009D400C7008CF471FB07F85BF541F0E803CFF135
:1009E400D1F0E6F0FFF547F792F704006B487A2060
:1009F400C5F721F00BFF7365742D63757272656E14
:100A04007400E10401F041F056003CF321F008FFCA
:100A1400776F72646C697374FC0401F0D8F561F14A
:100A2400DCF03CF3BEF079F5A7FBD9F521F004FF27
:100A34006F6E6C79090501F041F0580041F0010036
:100A4400380521F00EFF666F7274682D776F72643B
:100A54006C69737419057CF05400C2FBCCFB09FF6C
:100A64007365742D6F7264657200240501F041F0A2
:100A74005A00090421F00FFF7365742D7265636FCA
:100A8400676E697A65727300310501F041F06C009C
:100A9400090421F00FFF6765742D7265636F676E3B
:100AA400697A657273003D0501F041F06C00E8035A
:100AB40021F004FF636F64654C0501F0A6010A038D
:100AC400CFF5B9FBD70121F008FF656E642D636F84
:100AD40064655B0501F0CC010C94CC0105F021F0B8
:100AE40008FF286D61726B65722966057CF07A00D7
:100AF400C2FBCCFB0800706F7374706F6E65720577
:100B040001F0D2F9D0FAB9FBB9FBD3F32BF021F001
:100B140003FF327240007C058F059A938A93EF910C
:100B2400FF918F919F919F938F93FF93EF939A934C
:080B34008A93CF010C9405F037
:020000021000EC
:10E00200BF93AF93DB0111969EF0FD015527EE0FF2
:10E01200FF1F551F5BBF679177911196FB01552733
:10E02200EE0FFF1F551F5BBF07911791F80109946F
:10E03200E89467EB74EFF2CF04FF657869748A05A0
:10E0420022F0AF91BF91E0CF07FF657865637574E9
:10E0520065001DF02CF0BC0189919991DFCF31F060
:10E06200FD015527EE0FFF1F551F5BBFA791B7910B
:10E07200CBCF3BF0982B8991999191F31196C4CF14
:10E0820042F09A938A93FD015527EE0FFF1F551F09
:10E092005BBF879197911196B7CF4FF09A938A936E
:10E0A200FB0131965527EE0FFF1F551F5BBF87916E
:10E0B2009791AACF5CF09A938A93CB010196A4CF51
:10E0C20062F09A938A93FB0131965527EE0FFF1F58
:10E0D200551F5BBF87919791840D951D95CF07FFC3
:10E0E2002876616C7565290025F001F0A6010A0306
:10E0F200CC017CF021F00E942E03BEF0B9FBD3F3D9
:10E102002BF021F001FF400070F087F0FC018191BB
:10E1120091917ACF01FF210083F08FF0FC01899168
:10E12200999191838083899199916ECF02FF6321A6
:10E132008BF09BF0FC01899199918083899199914F
:10E1420063CF02FF634097F0A6F0FC01992780811C
:10E152005BCF02FF4075A2F001F003F3AAF186F053
:10E1620021F002FF2175AAF001F003F3AAF18EF06B
:10E1720021F003FF64757000B2F0BFF09A938A93A6
:10E1820043CF04FF3F647570BAF0C7F0082F092B24
:10E1920011F09A938A9338CF04FF73776170C2F0BB
:10E1A200D2F08C01899199911A930A932DCF04FF91
:10E1B2006F766572CDF0DDF09A938A938A819B81A6
:10E1C20023CF04FF64726F70D8F0E7F089919991C0
:10E1D2001BCF03FF726F7400E2F0EFF08C01299104
:10E1E2003991899199913A932A931A930A930CCF70
:10E1F20003FF6E697000EAF0FEF0229605CF02FF7F
:10E20200723EF9F004F19A938A938F919F91FCCE1A
:10E2120002FF3E7200F10DF19F938F9389919991C4
:10E22200F3CE02FF724009F116F19A938A938F910D
:10E232009F919F938F93E8CE02FF3C3E12F101F033
:10E242008DFD27F121F002FF303D1DF128F1982BC1
:10E25200D1F530C002FF303C24F12FF197FD2AC0E6
:10E2620032C002FF303E2BF136F1821593055CF18C
:10E2720051F120C003FF64303E0032F140F18215BB
:10E2820093058991999182059305ECF0E1F012C012
:10E2920003FF64303C003BF14EF1229697FD0C9453
:10E2A2005BF10C9464F104FF7472756549F159F1E4
:10E2B2009A938A938FEF9FEFA7CE01FF300054F11C
:10E2C20062F19A938A93C1019FCE02FF753C5EF17F
:10E2D2006AF12991399182179307A8F3A1F3EACF42
:10E2E20002FF753E66F101F0D1F069F121F001FF04
:10E2F2003C0071F17CF129913991281739071CF7FB
:10E30200D9CF01FF3E0078F186F129913991281782
:10E312003907CCF2C1F2CECF04FF6C6F673282F1C3
:10E3220092F1FC01992780E18A9522F0EE0FFF1FFE
:10E33200D8F76ACE9A9568CE01FF2D008DF1A1F132
:10E3420009911991081B190BC8015ECE01FF2B0020
:10E352009DF1ABF109911991800F911F55CE02FFEA
:10E362006D2AA7F1B4F18C01899199919C01310236
:10E372007001209FC0013003F308900DE11CF31CD3
:10E382001203F308900DE11CF31C9A938A93C701C0
:10E392003BCE06FF756D2F6D6F64B0F1D0F17C013D
:10E3A200299139910991199140E15527000F111FC7
:10E3B200221F331F551F2E153F05520518F00395D6
:10E3C2002E193F094A9589F73A932A93C8011CCE20
:10E3D20003FF756D2A00CAF1EEF18C0189919991C2
:10E3E200809FF00122273327909FF00D211D331DBE
:10E3F200819FF00D211D331D919F200D311DCF01F5
:10E402009A938A93C90100CE06FF696E766572748B
:10E41200E9F10BF280959095F7CD02FF322F05F2CC
:10E4220012F295958795F0CD02FF322A0EF219F27B
:10E43200880F991FE9CD03FF616E640015F221F286
:10E442000991199180239123DFCD02FF6F721CF293
:10E452002AF209911991802B912BD6CD03FF786F67
:10E46200720026F234F20991199180279127CCCDBE
:10E4720002FF312B2FF23DF20196C6CD02FF312D64
:10E4820039F243F20197C0CD06FF6C736869667476
:10E492003FF24BF2FC018991999131971AF0880F62
:10E4A200991FFBCFB1CD06FF72736869667445F29E
:10E4B2005AF2FC018991999131971AF096958795B4
:10E4C200FBCFA2CD02FF2B2154F267F2FC0189910E
:10E4D200999120813181820F931F80839183899149
:10E4E200999192CD03FF7270400063F278F29A9391
:10E4F2008A938DB79EB788CD03FF7270210073F2A5
:10E5020082F22FB7F8948DBF9EBF2FBF8991999148
:10E512007BCD03FF737040007DF28FF29A938A9352
:10E52200CE0172CD03FF737021008AF298F2EC01E2
:10E532008991999169CD9DF229913991E0E83E0F37
:10E54200821B930B3F932F939F938F938991999162
:10E552005BCD01FF690093F2AEF29A938A938F9199
:10E562009F91EF91FF91FF93EF939F938F938E0F64
:10E572009F1F4ACDBCF2EF91FF91E80FF91F8991DD
:10E5820099911BF0FF93EF936BCD0F911F91119611
:10E592003BCDCBF2EF91FF913196BBF3F3CF06FF68
:10E5A200756E6C6F6F70AAF2D6F21F910F911F9168
:10E5B2000F912ACD06FF636D6F76653ED0F2E1F2D0
:10E5C200BF93AF93E991F991A991B991092F082BC2
:10E5D20041F0E80FF91FA80FB91F1E91129301977E
:10E5E200E1F7AF91BF91899199910ECD02FF3E3C27
:10E5F200DBF2FBF2092F982F802F06CD03FF7570F7
:10E602004000F7F204F39A938A93C201FDCC03FF10
:10E6120075702100FFF20DF32C0189919991F4CCD0
:10E6220003FF316D730008F316F3E0EAFFE0319760
:10E63200F1F7EACC03FF323E720011F320F3FC0142
:10E64200899199919F938F93FF93EF9389919991D8
:10E65200DBCC03FF32723E001BF32FF39A938A93B3
:10E66200EF91FF918F919F919A938A93CF01CCCC96
:10E6720002FF21652AF33DF3FC01899199912FB79D
:10E68200F89428D000B5081709F00BD0319622D0A3
:10E6920000B5091711F0892F04D02FBF89919991E4
:10E6A200B3CCF999FECF07B700FDFDCFF2BDE1BDB6
:10E6B20080BDFA9AF99A089502FF406539F361F331
:10E6C2002FB7F894FC0106D080B5319603D090B5EF
:10E6D2002FBF9ACCF999FECFF2BDE1BDF89A089509
:10E6E20002FF21695DF321FC5000C2FBCCFB09FF54
:10E6F2002821692D6E727777290071F380F31FB795
:10E702001F93F8949C0189919991AF93BF93CF93F2
:10E71200DF9309D0DF91CF91BF91AF918991999108
:10E722001F911FBF71CC11D0E094F0948E219F21D4
:10E73200982B21F0B394F90102E023D0F90104E00F
:10E7420020D0F90100E11DD00895F901E078FF7FA2
:10E75200EF01A0E8B0E0FE015527EE0FFF1F551FA5
:10E762005BBF47915791FE01E217F30711F00A01CF
:10E7720002C07A010C01002704D02196119759F7A3
:10E782000895F999FECF17B710FDFDCF5527EE0F6B
:10E79200FF1F551F5BBF016007BFE895089502FF89
:10E7A200406978F3D4F3FC015527EE0FFF1F551F84
:10E7B2005BBF8791979128CC03FF6E3E7200D0F326
:10E7C200E2F3FC01082F899199919F938F930A9507
:10E7D200D1F7EF93FF938991999116CC03FF6E7253
:10E7E2003E00DDF3F4F39A938A93FF91EF910E2F9B
:10E7F2008F919F919A938A930A95D1F7CF0104CC76
:10E8020003FF64322A00EFF306F409911991000F15
:10E81200111F881F991F1A930A93F6CB03FF6432C4
:10E822002F0001F414F40991199195958795179584
:10E8320007951A930A93E8CB02FF642B0FF421F495
:10E8420029913991E990F99049915991240F351FF5
:10E852008E1D9F1D3A932A93D7CB02FF642D1DF480
:10E8620032F429913991E990F99049915991421BD9
:10E87200530BE80AF90A5A934A93C701C5CB07FF1B
:10E8820064696E76657274002EF447F409911991E9
:10E8920080959095009510951A930A93B5CB02FF37
:10E8A200643D40F401F031F429F227F121F002FF36
:10E8B200752E50F401F061F14FF721F003FF752E30
:10E8C200720058F401F061F1D1F058F721F00DFF18
:10E8D20073686F772D776F72646C697374005FF47D
:10E8E20001F041F077F4D1F065FC21F001F080FCF9
:10E8F200C5F707F858F121F005FF776F72647300CE
:10E9020068F401F041F05C0060F371F421F004FF5F
:10E912002B696E747DF48DF4789476CB04FF2D69A7
:10E922006E7488F494F4F8946FCB04FF696E7421CA
:10E932008FF401F041F00000AAF13CF321F004FF52
:10E94200696E744096F401F041F00000AAF160F3A0
:10E9520021F008FF696E742D74726170A0F4B1F435
:10E96200809316018991999168944ECB01F041F000
:10E972001601A5F041F00000AAF160F32BF0C2F4F9
:10E9820021F0C3F401D040CB189504FF7069636B8A
:10E99200AAF401F03CF273F58EF2AAF186F021F0AE
:10E9A20002002E22C6F401F0DCF4CC01C5F721F0FE
:10E9B20002007322D1F401F041F02200A4F966F5BD
:10E9C20086F03AF0E5F4F80121F004FF66696C6C18
:10E9D200D9F401F0EEF0EEF0C6F03AF0F7F468FD8B
:10E9E2009CF2BEF0ADF29AF0CAF2F2F4E6F021F037
:10E9F2000BFF656E7669726F6E6D656E7400E6F47C
:10EA02004FF0520009FF776F72646C697374730080
:10EA1200000001F041F0080021F004FF2F70616452
:10EA220003F501F08EF2A5F5A0F121F005FF2F68A4
:10EA32006F6C64000EF501F0A5F5E0F5A0F121F090
:10EA42000AFF666F7274682D6E616D6517F501F0CD
:10EA520092F70700616D666F7274680021F007FF1C
:10EA620076657273696F6E0021F501F041F03B002B
:10EA720021F003FF6370750030F501F041F04900A9
:10EA8200F1F721F008FF6D63752D696E666F3AF537
:10EA920001F041F0450021F005FF2F75736572000A
:10EAA20043F501F041F0260021F005FF665F637037
:10EAB2007500F9F401F041F0002441F0F40021F076
:10EAC20005FF73746174650056F54FF01F0104FF72
:10EAD2006261736561F562F00C0005FF63656C6C41
:10EAE200730068F519F205FF63656C6C2B006EF517
:10EAF2007AF5029689CA04FF3264757074F501F0E2
:10EB0200DCF0DCF021F005FF3264726F70007CF5FE
:10EB120001F0E6F0E6F021F004FF7475636B84F512
:10EB220001F0D1F0DCF021F003FF3E696E008DF5BB
:10EB320062F0180004FF2374696295F54FF0210119
:10EB420003FF706164009BF501F0E0F541F06400A1
:10EB5200AAF121F004FF656D6974A1F521FC0E0094
:10EB6200EAFBF6FB05FF656D69743F00ABF521FC1E
:10EB72001000EAFBF6FB03FF6B657900B3F521FC9D
:10EB82001200EAFBF6FB04FF6B65793FBCF521FC42
:10EB92001400EAFBF6FB02FF6470C4F57CF0480047
:10EBA200C2FBCCFB05FF656865726500CCF57CF0A5
:10EBB2004C00C2FBCCFB04FF68657265D3F57CF0A8
:10EBC2004A00C2FBCCFB05FF616C6C6F7400DCF584
:10EBD20001F0E0F5AAF1A7FBE1F521F003FF62697C
:10EBE2006E00E4F501F041F002006CF58EF021F0C8
:10EBF20007FF646563696D616C00EFF501F041F038
:10EC02000A006CF58EF021F003FF68657800F9F5D3
:10EC120001F041F010006CF58EF021F002FF626C01
:10EC220005F64FF0200007FF7475726E6B65790070
:10EC32000FF621FC4E00C2FBCCFB04FF2F6D6F646C
:10EC420014F623F69C0109911991412F432717FFCE
:10EC520004C0109500950F5F1F4F37FF04C0309519
:10EC620020952F5F3F4FEE24FF1851E1001F111F27
:10EC72005A9539F447FF04C0109500950F5F1F4F56
:10EC82000BC0EE1CFF1CE21AF30A20F4E20EF31E84
:10EC92008894ECCF0894EACFFA92EA92C801B4C9F8
:10ECA20005FF752F6D6F64001EF601F00CF161F126
:10ECB20003F1CFF121F006FF6E656761746551F6CD
:10ECC20001F00AF23CF221F001FF2F005CF601F0A4
:10ECD20022F6FDF021F003FF6D6F640065F601F08E
:10ECE20022F6E6F021F003FF616273006CF679F61A
:10ECF20099231AF480959095019686C903FF6D6950
:10ED02006E0074F601F080F585F13AF089F6D1F0E3
:10ED1200E6F021F003FF6D6178007FF601F080F5E7
:10ED22007BF13AF095F6D1F0E6F021F006FF776933
:10ED32007468696E8BF601F0DCF0A0F10CF1A0F1C1
:10ED420003F169F121F007FF746F7570706572004D
:10ED520097F601F0BEF041F0610041F07B009CF6B5
:10ED62003AF0B6F641F0DF0020F221F007FF746FAF
:10ED72006C6F77657200A4F601F0BEF041F04100BD
:10ED820041F05B009CF63AF0C9F641F0200029F20E
:10ED920021F003FF686C6400B7F64FF0230104FF13
:10EDA200686F6C64CAF601F0CEF6BEF086F042F2ED
:10EDB200BEF00CF1D1F08EF003F19AF021F002FFD7
:10EDC2003C23D0F601F0A5F5CEF68EF021F001FF3E
:10EDD2002300E0F601F06CF586F068F7EEF041F002
:10EDE2000900DCF07BF13AF0F9F641F00700AAF1F4
:10EDF20041F03000AAF1D4F621F002FF2373E8F6C5
:10EE020001F0EBF680F529F227F13AF002F721F052
:10EE120002FF233EFEF601F089F5CEF686F0A5F557
:10EE2200DCF0A0F121F004FF7369676E09F701F0CD
:10EE32002EF13AF01FF741F02D00D4F621F003FF36
:10EE4200642E720014F701F00CF191F5E2FCE3F686
:10EE520001F7EEF018F70CF703F1DCF0A0F110F86F
:10EE620020F821F002FF2E7220F701F00CF171FD63
:10EE720003F124F721F002FF642E33F701F061F170
:10EE820024F707F821F001FF2E003CF701F071FD95
:10EE92003FF721F003FF75642E0044F701F061F1A2
:10EEA20058F707F821F004FF75642E724BF701F052
:10EEB2000CF1E3F601F70CF703F1DCF0A0F110F826
:10EEC20020F821F006FF75642F6D6F6454F701F08E
:10EED2000CF161F115F1CFF103F1D1F00CF1CFF1A9
:10EEE20003F121F006FF64696769743F63F701F07B
:10EEF200AAF6BEF041F0390085F141F0000120F29E
:10EF0200AAF1BEF041F0400185F141F0070120F283
:10EF1200A0F141F03000A0F1BEF06CF586F069F18D
:10EF220021F001F015F1F1F703F1DCF03CF211F2FE
:10EF3200AAF13CF20CF121F002FF732C73F701F0FD
:10EF4200BEF0A4F721F001F0D701BEF011F291F565
:10EF520018F2A0F10CF161F196023AF0B7F79CF2C7
:10EF6200BEF086F0D70179F5CAF2B1F703F135F1B7
:10EF72003AF0BEF7BEF0A5F0D701E6F021F005FFAA
:10EF82006974797065009DF701F0BEF011F291F598
:10EF920018F2A0F10CF161F196023AF0D9F79CF265
:10EFA200BEF0D3F3BEF0E6F7E2F73CF2CAF2D1F7D5
:10EFB20003F135F13AF0E0F7BEF0D3F3E6F7E6F00D
:10EFC20021F001F0FAF2E6F721F001F041F0FF0042
:10EFD20020F2AFF521F006FF69636F756E74C0F71A
:10EFE20001F0BEF03CF2D1F0D3F321F002FF6372E4
:10EFF200ECF701F041F00D00AFF541F00A00AFF57A
:10F0020021F005FF737061636500F7F701F012F6F6
:10F01200AFF521F006FF73706163657302F801F0CA
:10F0220061F18FF6BEF03AF01AF807F842F230F0CA
:10F0320013F8E6F021F004FF747970650BF801F023
:10F0420068FD96023AF02BF89CF2ADF2A5F0AFF50E
:10F05200CAF226F821F001FF27001CF801F0D2F9CC
:10F06200D0FA3AFB8DFD3AF038F8E6F021F041F0A3
:10F07200F3FF5EF807FF68616E646C6572002CF83E
:10F0820062F00A0005FF6361746368003BF801F0F7
:10F092008EF20CF141F886F00CF177F241F88EF025
:10F0A2002BF003F141F88EF003F1E6F061F121F06B
:10F0B20005FF7468726F770043F801F0BEF027F124
:10F0C2003AF065F8E6F021F041F886F081F203F1BA
:10F0D20041F88EF003F1D1F00CF197F2E6F003F172
:10F0E20021F005FF63736B69700059F801F00CF1B0
:10F0F200BEF03AF087F8DCF0A5F015F18DFD3AF09C
:10F1020087F841F00100C3F930F079F803F1E6F035
:10F1120021F005FF637363616E0072F801F00CF178
:10F12200DCF0BEF0A5F015F18DFD27F13AF0A4F860
:10F13200D1F042F2D1F0DCF02EF127F13AF0A4F84E
:10F142003CF230F092F8FDF0DCF0A0F103F1E6F0D1
:10F1520021F006FF6163636570748AF801F0DCF0E8
:10F16200AAF142F2DCF0C0F5BEF0E9F827F13AF07C
:10F17200DBF8BEF041F008008DFD3AF0D2F8E6F07F
:10F18200EEF080F585F10CF1EEF0EEF003F13AF0DD
:10F19200D0F8E1F842F20CF1DCF003F1510130F069
:10F1A200D9F8BEF0AFF5DCF09AF03CF2DCF05D018C
:10F1B20030F0B4F8E6F0FDF0D1F0A0F1FAF721F06A
:10F1C20001F041F00800BEF0AFF507F8AFF521F00D
:10F1D20001F0BEF041F00D008DFDD1F041F00A00CA
:10F1E2008DFD29F221F006FF726566696C6CAAF842
:10F1F20021FC1A00EAFBF6FB04FF63686172F4F873
:10F2020001F0D2F9E6F0A5F021F006FF6E756D620D
:10F212006572FDF801F06CF586F00CF152F90CF113
:10F2220066F952F903F129F20CF1BEF027F13AF036
:10F2320022F989F503F1E6F003F16CF58EF061F144
:10F2420021F01FF361F161F12EF385F9C6F03AF076
:10F2520046F941F001008DFD3AF03DF9A5F041F08B
:10F262002E008DFD3AF03EF903F13AF039F9EFFC48
:10F2720041F0020030F04DF9E6F089F503F1E6F0D5
:10F2820003F16CF58EF061F121F089F503F13AF0AA
:10F292004BF961F641F0010003F16CF58EF058F183
:10F2A20021F001F0DCF0A5F041F02D008DFDBEF063
:10F2B2000CF13AF05FF941F00100C3F903F121F0DA
:10F2C2005CF00A00100002000A0001F0DCF0A5F078
:10F2D20041F02300A0F1BEF061F141F004009CF680
:10F2E2003AF07DF961F9AAF1D3F36CF58EF041F0B1
:10F2F2000100C3F930F07EF9E6F021F007FF3E6E1F
:10F30200756D6265720006F901F0BEF03AF09EF981
:10F31200DCF0A5F078F727F13AF091F9E6F021F068
:10F322000CF114FD6CF586F0420103F13A0114FD73
:10F3320041F00100C3F930F086F921F005FF706158
:10F34200727365007FF901F00CF1B9F999F586F055
:10F35200C3F903F18FF8BEF03CF299F566F241F081
:10F362000100C3F921F006FF736F757263659FF99F
:10F3720021FC1600EAFBF6FB07FF2F737472696E1D
:10F382006700B4F901F0EEF0DCF0AAF1EEF0EEF075
:10F39200A0F121F00AFF70617273652D6E616D65D7
:10F3A200BDF901F012F6D6F921F001F00CF1B9F92C
:10F3B20099F586F0C3F915F177F803F18FF880F526
:10F3C200AAF1B9F9E6F0A0F199F58EF021F009FF62
:10F3D20066696E642D6E616D6500CBF901F041F0D6
:10F3E200FBF941F05A00200427F13AF0FAF989F5C5
:10F3F20061F121F001F00CF180F503F133FCBEF074
:10F402003AF008FA0CF1FDF0FDF003F158F121F0A9
:10F4120001F092F70300206F6B00C5F721F001F0B5
:10F4220092F702003E20FAF7C5F721F001F092F7B9
:10F432000400203F3F20C5F76CF586F00CF1FFF584
:10F4420047F799F586F047F703F16CF58EF021F056
:10F4520004FF71756974E8F901F0CD02D4028EF0EF
:10F462008FFA97F29CFA81F26F0366F586F027F124
:10F472003AF03CFA10FAF9F83AF036FA41F0B5FAF5
:10F4820048F8C6F03AF04EFABEF041F0FEFF7BF1CA
:10F492003AF04CFA17FA30F02EFA09FA30F036FA4E
:10F4A20021F005FF70617573650029FA21FC2501C1
:10F4B200D6FBE0FB04FF636F6C6452FA60FAA4B6F9
:10F4C2002224332424BEE0E0F1E02192E030E9F787
:10F4D200F134D9F7E7E2F1E02F010FEF0DBF04831A
:10F4E20010E41EBF1583CFEAC683D0E4D783A1E818
:10F4F200BAEF0C9405F004FF7761726D5BFA01F0CC
:10F502005AFD41F08CFB41F057FA01FC6F031AF6E9
:10F512002DFA21F003FF737030007CFA7CF00600B4
:10F52200EAFBF6FB02FF73708BFA62F0080003FF3E
:10F532007270300093FA01F0A0FA86F021F062F0C6
:10F54200040005FF64657074680098FA01F08FFA90
:10F552008EF2A0F111F242F221F009FF696E746598
:10F56200727072657400A2FA01F0D2F9BEF03AF03C
:10F57200C5FAD0FA66F586F03AF0C0FAB9FBD3F3D1
:10F582002BF064FB30F0B6FA89F521F00DFF646FC1
:10F592002D7265636F676E697A657200AEFA01F06B
:10F5A20041F0DCFA41F06C00200427F13AF0DBFA7A
:10F5B20089F557FB21F001F0EEF0EEF080F51FF334
:10F5C200EEF02BF02EF3EEF0BEF057FB8DFD3AF08D
:10F5D200EDFAE6F061F121F0FDF0FDF058F121F0D5
:10F5E20005FF723A6E756D00C7FA5CF08CFBED0197
:10F5F20003FB06FF723A646E756DF1FA5CF08CFBE8
:10F6020081FD09FB01F047F741F0D0FF5EF821F0E0
:10F6120001F03FF741F0D0FF5EF821F007FF72657D
:10F62200633A6E756D00FAFA01F00BF93AF022FBBB
:10F6320041F001008DFD3AF020FBF6FA21F0FFFACD
:10F6420021F057FB21F008FF7265633A776F72640D
:10F652000FFB01F0EFF9BEF027F13AF033FBE6F0D1
:10F6620057FB21F03AFB21F006FF723A776F726482
:10F6720024FB5CF03EFB42FB4AFB01F0E6F02BF080
:10F6820021F001F02EF13AF048FBD70121F02BF0E6
:10F6920021F001F02EF13AF050FBCC01CC01D70160
:10F6A20021F006FF723A6661696C35FB5CF05BFB28
:10F6B2005BFB5BFB01F041F0F3FF5EF806FF3F737B
:10F6C2007461636B52FB01F0A7FA2EF13AF06CFB06
:10F6D20041F0FCFF5EF821F003FF766572005FFBEC
:10F6E20001F028F5C5F707F86CF586F036F5FFF559
:10F6F20071FDE3F6EBF641F02E00D4F601F70CF7BC
:10F7020020F86CF58EF007F83EF5C5F721F004FFFE
:10F712006E6F6F706DFB8DFB0C9405F006FF756EBE
:10F722007573656488FB01F08EF2E0F5A0F121F0BB
:10F732000200746F8FFB01F02FF87AFD66F586F0F8
:10F742003AF0ADFBCC01A7FBD70121F001F003F1A8
:10F75200BEF0B9FB0CF1D3F3BEF0B9FBB9FBD3F3A6
:10F762002BF021F007FF692D63656C6C2B0099FB70
:10F7720001F03CF221F007FF4564656665724000C6
:10F78200B3FB01F0D3F360F321F007FF4564656634
:10F7920065722100BCFB01F0D3F33CF321F007FFBB
:10F7A2005264656665724000C6FB01F0D3F386F0D1
:10F7B20021F007FF5264656665722100D0FB01F0FB
:10F7C200D3F38EF021F007FF556465666572400041
:10F7D200DAFB01F0D3F303F3AAF186F021F007FF7D
:10F7E2005564656665722100E4FB01F0D3F303F30F
:10F7F200AAF18EF021F006FF646566657221F0FBC6
:10F8020001F07AFDBEF0B9FBB9FBD3F32BF021F086
:10F8120006FF646566657240FCFB01F07AFDBEF08E
:10F82200B9FBD3F32BF021F007FF286465666572FC
:10F83200290009FC01F0A6010A03CC0121FC21F0F8
:10F842000E942E03BEF0B9FBD3F32BF02BF021F074
:10F852000FFF7365617263682D776F72646C6973F1
:10F86200740015FC01F00CF161F141F048FC03F168
:10F8720065FCBEF027F13AF042FC89F5E6F061F151
:10F8820021F0BEF08CFCD1F07801650121F001F08D
:10F892000CF1E6F080F515F180FC96FC3AF056FC8E
:10F8A20003F1E6F061F158F121F089F503F161F11C
:10F8B20021F011FF74726176657273652D776F7234
:10F8C200646C6973740029FC01F060F3BEF03AF0D5
:10F8D20076FC80F51FF3D1F02BF02EF3EEF03AF028
:10F8E20076FC8704D3F330F067FC89F521F00BFF37
:10F8F2006E616D653E737472696E67005AFC01F049
:10F90200F1F741F0FF0020F221F007FF6E66613E41
:10F912006366610078FC01F087043CF221F008FF85
:10F9220069636F6D7061726586FC01F00CF1DCF049
:10F9320003F120F13AF0A1FC89F5E6F058F121F04B
:10F94200D1F061F196023AF0C4FC9CF2DCF086F050
:10F95200DCF0D3F3BEF041F0000169F13AF0B5FCFE
:10F96200D1F041F0FF0020F220F13AF0BCFC89F521
:10F9720058F1D5F221F03CF2D1F079F5D1F041F015
:10F982000200BBF2A7FC89F561F121F001FF2A0018
:10F9920090FC01F0B3F1E6F021F001FF6A00C7FC30
:10F9A20001F077F241F00700AAF186F077F241F018
:10F9B2000900AAF186F0AAF121F004FF64616273E2
:10F9C200CEFC01F0BEF02EF13AF0E8FCEFFC21F0A3
:10F9D20007FF646E656761746500DEFC01F046F442
:10F9E20041F0010061F120F421F005FF636D6F76B3
:10F9F2006500E9FCFCFCBF93AF93E991F991A991F1
:10FA0200B991092F082B21F01D9111930197E1F76C
:10FA1200AF91BF91899199910C9405F005FF3273D2
:10FA220077617000F6FC01F0EEF00CF1EEF003F1FC
:10FA320021F003FF746962000FFD4FF04D010AFFD0
:10FA4200726566696C6C2D7469621AFD01F01EFDA7
:10FA520041F05A00AFF89FF58EF061F199F58EF002
:10FA620058F121F00AFF736F757263652D74696234
:10FA720020FD01F01EFD9FF586F021F006FF656571
:10FA82003E72616D33FD01F061F19CF2DCF060F3D6
:10FA9200DCF08EF079F5D1F079F5D1F0CAF247FDBC
:10FAA20089F521F009FF696E69742D75736572001D
:10FAB2003FFD01F041F07C0003F341F01C0011F224
:10FAC20044FD21F006FF626F756E647353FD01F011
:10FAD200DCF0AAF1D1F021F003FF733E640063FD74
:10FAE20001F0BEF02EF121F005FF3E626F64790055
:10FAF2006DFD3DF20800326C69746572616C75FDD2
:10FB020001F0D1F0CC0141F0D701CC0141F0D70195
:10FB120021F001FF3D007BFD01F0A0F127F121F072
:10FB220001FF31008AFD4FF0010001FF320091FD1B
:0EFB32004FF0020002FF2D3196FD4FF0FFFF55
:00000001FF
