:020000020000FC
:0200040009D120
:0200080007D11E
:02000C0005D11C
:0200100003D11A
:0200140001D118
:02001800FFD017
:02001C00FDD015
:02002000FBD013
:02002400F9D011
:02002800F7D00F
:02002C00F5D00D
:02003000F3D00B
:02003400F1D009
:02003800EFD007
:02003C00EDD005
:02004000EBD003
:02004400E9D001
:02004800E7D0FF
:02004C00E5D0FD
:10005000E3D00004000200381500080041546D652B
:1000600067613136AF93AFB7AF93BF93EF93FF9311
:10007000B0912C00A0917200E0E6F0E0EA0FF31DD1
:10008000B083A395AF70A0937200FF91EF91BF91E1
:08009000AF91AFBFAF911895CD
:02002C001BC0F7
:10009800011C4F1D381C7200881C4F1D381C740031
:1000A800881C1B1C06FF72782D6973720000011CE6
:1000B8007500311C5C00381C7400931CAC1C2A1E93
:1000C800381C0F000E1E381C7400881C381C600079
:1000D800981D931C1B1C07FF72783F2D69737200D3
:1000E8005600011CD10A381C7400931C381C72007D
:1000F800931C0E1D1B1C07FF74782D706F6C6C0011
:100108006F00011C9300311C8600381C2C00881CD1
:100118001B1C08FF74783F2D706F6C6C7F00011CEE
:10012800D10A381C2B00931C381C20000E1E1B1CE7
:1001380004FF756272728D006A1C7C003C0C460CD0
:1001480006FF2B75736172749C00011C381C9800A3
:10015800381C2A00881C381C0600381CC000881C63
:10016800A000AC1CE81E381C4000881C381C290064
:10017800881C4C001B1C08FF31772E726573657450
:10018800A400C6009A938A939927BC9AC498E0EC75
:10019800F3E03197F1F71FB7F894C49ABC98E0E8F8
:1001A800F0E03197F1F786B384FF9FEF1FBFBC984B
:1001B800C498E0E4F3E03197F1F7892F0C94051C1B
:1001C80007FF31772E736C6F7400BF00EB00BC9A89
:1001D800C4981FB7F894ECE0F0E03197F1F78894F1
:1001E800879510F4BC98C49AE2E1F0E03197F1F7F2
:1001F80006B304FD8068E6E6F0E03197F1F7BC98B5
:10020800C49AE4E0F0E03197F1F71FBF0C94051CA5
:040000000C94DA0A78
:100218000A920FB60A920F900F900A9400927600F5
:1002280009900FBE09906894089502FF6D2BE400B1
:10023800011CEB0DA3011B1C03FF75642A001901A7
:10024800011CAC1CFA1CDB1DD41CBF1CF11CDB1DE3
:10025800DC1C981D1B1C04FF756D61782001011CB6
:10026800F805571D311C3901BF1CD41C1B1C04FF89
:10027800756D696E2F01011CF805621D311C450161
:10028800BF1CD41C1B1C011C381C00800E1E151D15
:10029800311C5101381C01001B1C461D1B1C0AFF88
:1002A8006E616D653E666C6167733B01011CBB1F27
:1002B800381C00FF0E1E1B1C0EFF6E616D653E692B
:1002C8006E746572707265745301011C060D1B1CF7
:1002D8000CFF6E616D653E636F6D70696C656001E2
:1002E800011CAC1C060DBF1C5A014701311C7F01C3
:1002F800381CBA021B1C381C251C1B1C03FF64324B
:100308002A006C01870109911991000F111F881F9C
:10031800991F1A930A930C94051C03FF64322F004B
:1003280082019601099119919595879517950795D9
:100338001A930A930C94051C02FF642B9101A401E3
:1003480029913991E990F99049915991240F351FD4
:100358008E1D9F1D3A932A930C94051C02FF642D51
:10036800A001B60129913991E990F99049915991E3
:10037800421B530BE80AF90A5A934A93C7010C9493
:10038800051C07FF64696E7665727400B201CC01C2
:100398000991199180959095009510951A930A9353
:1003A8000C94051C02FF643DC501011CB501171E14
:1003B800151D1B1C02FF752ED601011C4F1DC907F8
:1003C8001B1C03FF752E7200DE01011C4F1DBF1C94
:1003D800D2071B1C0DFF73686F772D776F72646CE3
:1003E80069737400E501011C381CFD01BF1CDF0C9A
:1003F8001B1C011CFA0C3F088108461D1B1C05FF2D
:10040800776F72647300EE01011C381C40004E1FA8
:10041800F7011B1C04FF2B696E7403021302789406
:100428000C94051C04FF2D696E740E021B02F894CF
:100438000C94051C04FF696E74211602011C381CFB
:100448000000981D2A1F1B1C04FF696E74401E02C1
:10045800011C381C0000981D4E1F1B1C08FF696EEC
:10046800742D747261702802390280937600899124
:10047800999168940C94051C011C381C7600931CF7
:10048800381C0000981D4E1F251C4B021B1C4C02DB
:1004980002D00C94051C189504FF7069636B320236
:1004A800011C2A1EEA057C1E981D741C1B1C0200D8
:1004B8002E225002011C6602AF023F081B1C0200DC
:1004C80073225B02011C381C22001E0ADD05741C05
:1004D800311C6F02DB021B1C04FF66696C6C630233
:1004E800011CDC1CDC1CB41C311C8102E20D8A1EC0
:1004F800AC1C9B1E881CB81E7C02D41C1B1C08FF4D
:1005080028637265617465297002011C4C0AE40352
:10051800AC1CFA1CC903F11C381C79007C1C381C63
:1005280077007C1C1B1C01005C008302011C330A41
:10053800EB1C11067C1C1B1C010028009702011CE7
:10054800381C29001E0A01061B1C07FF636F6D700B
:10055800696C6500A002011CF11CAC1C330CFA1C70
:10056800BB1FBA021B1C01FF2C00A902011C470675
:10057800621F47062A1E210C48061B1C03005B2726
:100588005D00B702011CA908D0021B1C07006C699A
:10059800746572616C00C202011CAF02381CBA0299
:1005A8001B1C0800736C69746572616CCA02011CBB
:1005B800AF020C081A081B1C011C4706AF02FFFFFC
:1005C8001B1C011CDE0B4706BF1C621F1B1C011CE9
:1005D80047061B1C011CDE0BBA021B1C05006168C8
:1005E80065616400D502011CAF022A1CE0021B1CD5
:1005F80002006966F202011CAF02311CE0021B1CFA
:100608000400656C7365FC02011CAF022A1CE00241
:10061800BF1CE5021B1C04007468656E0403011C02
:10062800E5021B1C0500626567696E000F03011C6B
:10063800EB021B1C05007768696C65001603011C3A
:10064800FF02BF1C1B1C06007265706561741E03E7
:10065800011C400313031B1C0500756E74696C00B4
:100668002703011C381C311CBA02EE021B1C0500B2
:10067800616761696E003003011CAF022A1CEE023B
:100688001B1C0200646F3B03011CAF028A1EEB02B5
:100698004F1DA3031B1C04006C6F6F704503011CE6
:1006A800AF02B81E8A031B1C05002B6C6F6F70000D
:1006B8004F03011CAF02A91E8A031B1C05006C65B1
:1006C800617665005803011CAF02C31EF702A3033D
:1006D8001B1C03003F646F006203011CAF02790317
:1006E800FF024803BF1CA3031B1C011CF805D41FF1
:1006F800AC1CFA1C311C81030106F11CF81D1B1CE3
:1007080007FF656E646C6F6F70006D03011CEE026D
:100718009703B41C311C930313032A1C8C031B1C62
:1007280002FF6C3E8403011CB703741C741C381C44
:10073800FEFFB703541E1B1C02FF3E6C9403011CF2
:10074800381C0200B703541EB703741C7C1C1B1C06
:1007580003FF6C703000A0036A1C5C003C0C460C64
:1007680002FF6C70AC03431C7B0006FF637265617B
:100778007465B403011C8902ED03AF024D1C1B1CF8
:1007880006FF686561646572B903011C4706FA1CB7
:10079800FA1CAC1C231D311CDB03AC1C381C00FFED
:1007A800171E1E08F11C4E1FBA02F11C1B1C381C18
:1007B800F0FFD80807FF776C73636F706500C40398
:1007C8009B0C5A003C0C460C06FF72657665616C02
:1007D800DE03011C381C7700741CB41C311CFC039C
:1007E800381C7900741C2A1F4F1D381C77007C1C8C
:1007F8001B1C06FF6C6174657374E803431C7D0061
:100808000500646F65733E00FD03011CAF021C0404
:10081800AF020E94AF0211041B1C9A938A93CB016A
:1008280001967F916F91BF93AF93DB010C94051CE8
:10083800011CF11C381C7900741C4E1F6A052A1E05
:10084800621F1B1C01FF3A000404011C89023404C6
:10085800D41C1B1C07FF3A6E6F6E616D6500260481
:10086800011C4706AC1C02047C1CAF02011C490495
:100878001B1C01003B002E04011CAF021B1C520470
:10088800ED031B1C01FF5D003D04011C381C010029
:10089800DD057C1C1B1C01005B004604011C4F1D70
:1008A800DD057C1C1B1C08FF7661726961626C6542
:1008B8004F04011C58066A04381C020061061B1C00
:1008C80008FF636F6E7374616E745704011C8902AC
:1008D800ED03AF02431CBA021B1C04FF757365725B
:1008E8006404011C8902ED03AF02531CBA021B1CED
:1008F800070072656375727365007104011C020458
:10090800741CBA021B1C09FF696D6D65646961740A
:1009180065007C04011C2B054E1FAC1CBB1F381C3A
:10092800FF7F0E1EBF1C621F1B1C06005B636861F5
:10093800725D8704011CAF02381C7B09BA021B1CBC
:10094800060061626F7274229904011C6602AF028C
:10095800BC041B1C05FF61626F727400A404011CB7
:10096800381CFFFFD80806FF3F61626F7274AE043F
:10097800011CDC1C311CC2043F08B30401061B1C0B
:1009880009FF6765742D737461636B00B704011CFC
:10099800AC1CF005BF1C4E1FAC1CFA1C4F1DBF1C25
:1009A8007903311CE2048A1E9B1E301EEA05CA1C0C
:1009B800981D4E1FBF1C461DA91ED8040106F11C18
:1009C8001B1C09FF7365742D737461636B00C40489
:1009D800011CF8052A1FBF1C4F1D7903311CFA049E
:1009E8008A1EF00509062A1FB81EF504D41C1B1C14
:1009F80009FF6D61702D737461636B00E504011C60
:100A0800AC1CF005BF1C4E1FEA05E20D7903311C32
:100A180020058A1E9B1E4E1FBF1CFA1C031D251C89
:100A2800B41C311C1B05F11CD41CC31E1B1CF11C5F
:100A3800381C0200A91E0E05D41C4F1D1B1C0BFFE1
:100A48006765742D63757272656E7400FC04011C11
:100A5800381C3A004E1F1B1C09FF6765742D6F7206
:100A6800646572002305011C381C3E00CB041B1C66
:100A780007FF636F6D706172650030054305BF93B2
:100A8800AF938C0189919991DC01899199919C018D
:100A980089919991FC01ED90F190EF1451F40A9528
:100AA80019F02A95C1F701C02A95022B11F488275D
:100AB80002C08FEF00C0982FAF91BF910C94051C16
:100AC80007FF6E66613E6C6661003C05011CFA0C0E
:100AD8002A1EFF1D981D1B1C0BFF656E7669726F21
:100AE8006E6D656E74006405431C360009FF776FF0
:100AF80072646C69737473000000011C381C080070
:100B08001B1C04FF2F7061647A05011C7C1E1D06E6
:100B18008E1D1B1C05FF2F686F6C64008505011C6A
:100B28001D0658068E1D1B1C0AFF666F7274682D01
:100B38006E616D658E05011C0C080700616D666F9E
:100B4800727468001B1C07FF76657273696F6E000C
:100B58009805011C381C3B001B1C03FF63707500C3
:100B6800A705011C381C2D006B081B1C08FF6D63B2
:100B7800752D696E666FB105011C381C29001B1C98
:100B880005FF2F7573657200BA05011C381C260015
:100B98001B1C05FF665F637075007005011C381C1F
:100BA8000012381C7A001B1C05FF73746174650001
:100BB800CD05431C7F0004FF62617365D805531C93
:100BC8000C0005FF63656C6C7300DF05071E05FFED
:100BD80063656C6C2B00E505F10502960C94051C09
:100BE80004FF32647570EB05011CCA1CCA1C1B1C6F
:100BF80005FF3264726F7000F405011CD41CD41C0C
:100C08001B1C04FF7475636BFC05011CBF1CCA1C0C
:100C18001B1C03FF3E696E000506531C180004FFE9
:100C2800237469620D06431C810003FF7061640030
:100C38001306011C5806381C6400981D1B1C04FF71
:100C4800656D697419069B0C0E00640C700C05FF29
:100C5800656D69743F0023069B0C1000640C700CD2
:100C680003FF6B6579002B069B0C1200640C700C5B
:100C780004FF6B65793F34069B0C1400640C700C00
:100C880002FF64703C066A1C2C003C0C460C05FFF5
:100C980065686572650044066A1C30003C0C460CA9
:100CA80004FF686572654B066A1C2E003C0C460CF6
:100CB80005FF616C6C6F74005406011C5806981D82
:100CC800210C59061B1C03FF62696E005C06011C9F
:100CD800381C0200E3057C1C1B1C07FF6465636964
:100CE8006D616C006706011C381C0A00E3057C1C5A
:100CF8001B1C03FF686578007106011C381C100076
:100D0800E3057C1C1B1C02FF626C7D06431C200053
:100D180007FF7475726E6B65790087069B0C32004D
:100D28003C0C460C04FF2F6D6F648C069B069C01DF
:100D380009911991412F432717FF04C01095009579
:100D48000F5F1F4F37FF04C0309520952F5F3F4F2F
:100D5800EE24FF1851E1001F111F5A9539F447FF7F
:100D680004C0109500950F5F1F4F0BC0EE1CFF1CB1
:100D7800E21AF30A20F4E20EF31E8894ECCF0894EA
:100D8800EACFFA92EA92C8010C94051C05FF752F68
:100D98006D6F64009606011CFA1C4F1DF11CBD1DE9
:100DA8001B1C06FF6E6567617465CA06011CF81D89
:100DB8002A1E1B1C01FF2F00D506011C9A06EB1CDE
:100DC8001B1C03FF6D6F6400DE06011C9A06D41C11
:100DD8001B1C03FF61627300E506F20699231AF4EF
:100DE8008095909501960C94051C03FF6D696E0023
:100DF800ED06011CF805731D311C0307BF1CD41C2C
:100E08001B1C03FF6D617800F906011CF805691DBC
:100E1800311C0F07BF1CD41C1B1C06FF77697468A4
:100E2800696E0507011CCA1C8E1DFA1C8E1DF11C5B
:100E3800571D1B1C07FF746F7570706572001107D2
:100E4800011CAC1C381C6100381C7B001607311CC7
:100E58003007381CDF000E1E1B1C07FF746F6C6FF9
:100E6800776572001E07011CAC1C381C4100381C39
:100E78005B001607311C4307381C2000171E1B1C7B
:100E880003FF686C64003107431C830004FF686F2C
:100E98006C644407011C4807AC1C741C301EAC1C55
:100EA800FA1CBF1C7C1CF11C881C1B1C02FF3C2369
:100EB8004A07011C1D0648077C1C1B1C01FF230058
:100EC8005A07011CE305741CE207DC1C381C0900E6
:100ED800CA1C691D311C7307381C0700981D381C73
:100EE8003000981D4E071B1C02FF23736207011C6C
:100EF8006507F805171E151D311C7C071B1C02FF12
:100F0800233E7807011C01064807741C1D06CA1CED
:100F18008E1D1B1C04FF7369676E8307011C1C1D53
:100F2800311C9907381C2D004E071B1C03FF642E2B
:100F380072008E07011CFA1C09065C0D5D077B0711
:100F4800DC1C92078607F11CCA1C8E1D8A089A08A9
:100F58001B1C02FF2E729A07011CFA1CEB0DF11CD8
:100F68009E071B1C02FF642EAD07011C4F1D9E0728
:100F780081081B1C01FF2E00B607011CEB0DB907E9
:100F88001B1C03FF75642E00BE07011C4F1DD207F2
:100F980081081B1C04FF75642E72C507011CFA1C0E
:100FA8005D077B078607F11CCA1C8E1D8A089A08F4
:100FB8001B1C06FF75642F6D6F64CE07011CFA1C9D
:100FC8004F1D031DBD1DF11CBF1CFA1CBD1DF11CCE
:100FD8001B1C06FF64696769743FDD07011C240751
:100FE800AC1C381C3900731D381C00010E1E981DDE
:100FF800AC1C381C4001731D381C07010E1E8E1DC9
:10100800381C30008E1DAC1CE305741C571D1B1CBE
:10101800011C031D6B08F11CCA1C2A1EFF1D981D0C
:101028002A1EFA1C1B1C02FF732CED07011CAC1CAA
:101038001E081B1C011CBA02AC1CFF1D0906061E5B
:101048008E1DFA1C4F1D7903311C31088A1EAC1CF9
:10105800741CBA02F005B81E2B08F11C231D311CA4
:101068003808AC1C931CBA02D41C1B1C05FF6974FD
:10107800797065001708011CAC1CFF1D0906061EC7
:101088008E1DFA1C4F1D7903311C53088A1EAC1C97
:10109800BB1FAC1C60085C082A1EB81E4B08F11C5C
:1010A800231D311C5A08AC1CBB1F6008D41C1B1C18
:1010B800011CE81E60081B1C011C381CFF000E1ECA
:1010C80027061B1C06FF69636F756E743A08011CBE
:1010D800AC1C2A1EBF1CBB1F1B1C02FF63726608C8
:1010E800011C381C0D002706381C0A0027061B1C8B
:1010F80005FF7370616365007108011C8A06270685
:101108001B1C06FF7370616365737C08011C4F1D0F
:101118000907AC1C311C94088108301E2A1C8D0854
:10112800D41C1B1C04FF747970658508011CE20D32
:101138007903311CA5088A1E9B1E931C2706B81E1E
:10114800A0081B1C01FF27009608011C4C0A310B44
:10115800B40BD41F311CB208D41C1B1C381CF3FF61
:10116800D80807FF68616E646C657200A608531C96
:101178000A0005FF636174636800B508011C7C1EE2
:10118800FA1CBB08741CFA1C651EBB087C1C251CB9
:10119800F11CBB087C1CF11CD41C4F1D1B1C05FF3B
:1011A8007468726F7700BD08011CAC1C151D311CDA
:1011B800DF08D41C1B1CBB08741C6F1EF11CBB0869
:1011C8007C1CF11CBF1CFA1C851ED41CF11C1B1CAA
:1011D80005FF63736B697000D308011CFA1CAC1C13
:1011E800311C0109CA1C931C031DD41F311C0109A1
:1011F800381C01003D0A2A1CF308F11CD41C1B1CD6
:1012080005FF637363616E00EC08011CFA1CCA1CBD
:10121800AC1C931C031DD41F151D311C1E09BF1CBB
:10122800301EBF1CCA1C1C1D151D311C1E092A1E80
:101238002A1C0C09EB1CCA1C8E1DF11CD41C1B1C7F
:1012480006FF6163636570740409011CCA1C981D5C
:10125800301ECA1C3806AC1C6309151D311C550903
:10126800AC1C381C0800D41F311C4C09D41CDC1CD5
:10127800F805731DFA1CDC1CDC1CF11C311C4A0926
:101288005B09301EFA1CCA1CF11C33012A1C5309C5
:10129800AC1C2706CA1C881C2A1ECA1C3F012A1C13
:1012A8002E09D41CEB1CBF1C8E1D74081B1C011CB2
:1012B800381C0800AC1C2706810827061B1C011CCB
:1012C800AC1C381C0D00D41FBF1C381C0A00D41FCE
:1012D800171E1B1C06FF726566696C6C24099B0C43
:1012E8001A00640C700C04FF636861726E09011CBB
:1012F8004C0AD41C931C1B1C06FF6E756D6265722C
:101308007709011CE305741CFA1CCC09FA1CE009D6
:10131800CC09F11C171EFA1CAC1C151D311C9C09AC
:101328000106F11CD41CF11CE3057C1C4F1D1B1C81
:101338000D1F4F1D4F1D1C1FFF09B41C311CC00978
:10134800381C0100D41F311CB709931C381C2E000F
:10135800D41F311CB809F11C311CB309690D381CA4
:1013680002002A1CC709D41C0106F11CD41CF11C5C
:10137800E3057C1C4F1D1B1C0106F11C311CC50913
:10138800DA06381C0100F11CE3057C1C461D1B1CF9
:10139800011CCA1C931C381C2D00D41FAC1CFA1C41
:1013A800311CD909381C01003D0AF11C1B1C4D1CBD
:1013B8000A00100002000A00011CCA1C931C381CF9
:1013C80023008E1DAC1C4F1D381C04001607311C51
:1013D800F709DB09981DBB1FE3057C1C381C0100BD
:1013E8003D0A2A1CF809D41C1B1C07FF3E6E756DAC
:1013F800626572008009011CAC1C311C180ACA1CE9
:10140800931CF207151D311C0B0AD41C1B1CFA1C5B
:101418008E0DE305741C2401F11C1C018E0D381C73
:1014280001003D0A2A1C000A1B1C05FF706172732B
:101438006500F909011CFA1C330A1106741C3D0ADF
:10144800F11C0909AC1C2A1E1106541E381C010087
:101458003D0A1B1C06FF736F75726365190A9B0CA6
:101468001600640C700C07FF2F737472696E6700A6
:101478002E0A011CDC1CCA1C981DDC1CDC1C8E1DE1
:101488001B1C0AFF70617273652D6E616D65370AEA
:10149800011C8A06500A1B1C011CFA1C330A11067F
:1014A800741C3D0A031DF108F11C0909F805981D73
:1014B800330AD41C8E1D11067C1C1B1C09FF66698F
:1014C8006E642D6E616D6500450A011C381C750A35
:1014D800381C3E000305151D311C740A01064F1DFA
:1014E8001B1C011CFA1CF805F11CAD0CAC1C311CB2
:1014F800820AFA1CEB1CEB1CF11C461D1B1C04FF8A
:1015080071756974620A011CB003B7037C1C090B6E
:10151800851E160B6F1E5204DD05741C151D311C2B
:10152800960AB30A7309311C900A381C590BC20871
:10153800B41C311CA80AAC1C381CFEFF691D311CE8
:10154800A60ABA0A2A1C880AAC0A2A1C900A1B1C7A
:10155800011C0C080300206F6B003F081B1C011CBA
:101568000C0802003E2074083F081B1C011C0C08D4
:101578000400203F3F203F08E305741CFA1C77064F
:10158800C1071106741CC107F11CE3057C1C1B1C58
:1015980005FF706175736500830A9B0C8500500C0C
:1015A8005A0C04FF636F6C64CC0ADA0AA4B62224CE
:1015B800332424BEE0E6F0E02192E036E9F7F43087
:1015C800D9F7E7E8F0E02F010FE50DBF048314E039
:1015D8001EBF1583CFE0C683D4E0D783ABEFBAE054
:1015E8000C94051C04FF7761726DD50A011CD40D9B
:1015F800381C060C381CD10A7B0C52049206870A48
:101608001B1C03FF73703000F60A6A1C0600640C8A
:10161800700C02FF7370050B531C080003FF7270F7
:1016280030000D0B011C1A0B741C1B1C531C0400EE
:1016380005FF646570746800120B011C090B7C1EA1
:101648008E1DFF1D301E1B1C0DFF646F2D72656300
:101658006F676E697A6572001C0B011C381C3D0BA4
:10166800381C50000305151D311C3C0B0106D10B1D
:101678001B1C011CDC1CDC1CF8050D1FDC1C251CBC
:101688001C1FDC1CAC1CD10BD41F311C4E0BD41CF2
:101698004F1D1B1CEB1CEB1C461D1B1C09FF696E18
:1016A8007465727072657400280B011C4C0AAC1CBE
:1016B800311C690B310BDD05741C311C640B330CB8
:1016C800BB1F251CDE0B2A1C5A0B01061B1C05FF21
:1016D800723A6E756D00520B4D1C060CD0027D0BD4
:1016E80006FF723A646E756D6B0B4D1C060CC81FB5
:1016F800830B011CC107381CD0FFD8081B1C011C18
:10170800B907381CD0FFD8081B1C07FF7265633A5D
:101718006E756D00740B011C8509311C9C0B381CFF
:101728000100D41F311C9A0B700B1B1C790B1B1C5E
:10173800D10B1B1C08FF7265633A776F7264890BC3
:10174800011C690AAC1C151D311CAD0BD41CD10B36
:101758001B1CB40B1B1C06FF723A776F72649E0B3E
:101768004D1CB80BBC0BC40B011CD41C251C1B1C2A
:10177800011C1C1D311CC20BBA021B1C251C1B1C86
:10178800011C1C1D311CCA0BAF02AF02BA021B1C84
:1017980006FF723A6661696CAF0B4D1CD50BD50B11
:1017A800D50B011C381CF3FFD80806FF3F73746182
:1017B800636BCC0B011C210B1C1D311CE60B381C68
:1017C800FCFFD8081B1C03FF76657200D90B011CAF
:1017D8009F053F088108E305741CAD057706EB0DEE
:1017E8005D076507381C2E004E077B0786079A0899
:1017F800E3057C1C8108B5053F081B1C04FF6E6FC0
:101808006F70E70B070C0C94051C06FF756E75735B
:101818006564020C011C7C1E58068E1D1B1C0200F0
:10182800746F090C011CA908F40DDD05741C311C2A
:10183800270CAF02210CBA021B1C011CF11CAC1CAA
:10184800330CFA1CBB1FAC1C330C330CBB1F251C00
:101858001B1C07FF692D63656C6C2B00130C011CA6
:101868002A1E1B1C07FF45646566657240002D0C27
:10187800011CBB1F4E1F1B1C07FF45646566657274
:101888002100360C011CBB1F2A1F1B1C07FF5264BA
:10189800656665724000400C011CBB1F741C1B1C54
:1018A80007FF52646566657221004A0C011CBB1F64
:1018B8007C1C1B1C07FF5564656665724000540C50
:1018C800011CBB1FF11E981D741C1B1C07FF5564CF
:1018D8006566657221005E0C011CBB1FF11E981D18
:1018E8007C1C1B1C06FF6465666572216A0C011C62
:1018F800F40DAC1C330C330CBB1F251C1B1C06FF42
:10190800646566657240760C011CF40DAC1C330CE2
:10191800BB1F251C1B1C07FF286465666572290010
:10192800830C011C8902ED03AF029B0C1B1C0E9457
:101938001104AC1C330CBB1F251C251C1B1C0FFFE2
:101948007365617263682D776F72646C6973740074
:101958008F0C011CFA1C4F1D381CC20CF11CDF0C2B
:10196800AC1C151D311CBC0C0106D41C4F1D1B1CC6
:10197800AC1C060DBF1C5A0147011B1C011CFA1C9C
:10198800D41CF805031DFA0C100D311CD00CF11CE9
:10199800D41C4F1D461D1B1C0106F11C4F1D1B1C92
:1019A80011FF74726176657273652D776F72646C5E
:1019B80069737400A30C011C4E1FAC1C311CF00C85
:1019C800F8050D1FBF1C251C1C1FDC1C311CF00C4E
:1019D8006A05BB1F2A1CE10C01061B1C0BFF6E616C
:1019E8006D653E737472696E6700D40C011C6B08D8
:1019F800381CFF000E1E1B1C07FF6E66613E6366E7
:101A08006100F20C011C6A052A1E1B1C08FF696391
:101A18006F6D70617265000D011CFA1CCA1CF11C07
:101A28000E1D311C1B0D0106D41C461D1B1CBF1CA2
:101A38004F1D7903311C3E0D8A1ECA1C741CCA1C1A
:101A4800BB1FAC1C381C0001571D311C2F0DBF1CBF
:101A5800381CFF000E1E0E1D311C360D0106461DDA
:101A6800C31E1B1C2A1EBF1CF005BF1C381C02000D
:101A7800A91E210D01064F1D1B1C01FF2A000A0D7E
:101A8800011CA11DD41C1B1C01FF6A00410D011C77
:101A9800651E381C0700981D741C651E381C09003B
:101AA800981D741C981D1B1C04FF64616273480D0B
:101AB800011CAC1C1C1D311C620D690D1B1C07FF91
:101AC800646E656761746500580D011CCB01381C94
:101AD80001004F1DA3011B1C05FF636D6F76650098
:101AE800630D760DBF93AF93E991F991A991B991DF
:101AF800092F082B21F01D9111930197E1F7AF9160
:101B0800BF91899199910C94051C05FF32737761F7
:101B18007000700D011CDC1CFA1CDC1CF11C1B1C69
:101B280003FF74696200890D431CAD000AFF7265EA
:101B380066696C6C2D746962940D011C980D381CD3
:101B48005A00290917067C1C4F1D11067C1C461DCE
:101B58001B1C0AFF736F757263652D7469629A0D99
:101B6800011C980D1706741C1B1C06FF65653E7248
:101B7800616DAD0D011C4F1D8A1ECA1C4E1FCA1C6B
:101B88007C1CF005BF1CF005BF1CB81EC10D01066A
:101B98001B1C09FF696E69742D7573657200B90D98
:101BA800011C381C6000F11E381C1C00FF1DBE0DF6
:101BB8001B1C06FF626F756E6473CD0D011CCA1C79
:101BC800981DBF1C1B1C03FF733E6400DD0D011C28
:101BD800AC1C1C1D1B1C05FF3E626F647900E70DE1
:101BE8002B1E02FF2E73EF0D011C210BE101810852
:101BF800210B4F1D7903311C070E8A1E9B1E5402B0
:101C0800E101B81E020E1B1C06FF632140737069B8
:101C1800F50D0E0E03D099270C94051C8FB90EB143
:101C2800087F0EB90EB107FFFACF8FB1089505FFEF
:101C38006E4073706900080E210E8C01899199918C
:101C4800FC01C8012FB82EB127FFFDCF2FB121937A
:101C58000197C1F7899199910C94051C05FF6E2194
:101C6800737069001B0E380E8C0189919991FC01E3
:101C7800C80121912FB92EB127FFFDCF2FB10197B0
:101C8800C1F7899199910C94051C0BFF6170706CD8
:101C98007475726E6B657900320E011CA900120210
:101CA800EB0B8108D205381CE803BD1DBF1CD41CF2
:101CB8007706C1070C0804006B487A203F081B1CF4
:101CC8000BFF7365742D63757272656E7400490E2F
:101CD800011C381C3A002A1F1B1C08FF776F72640E
:101CE8006C697374640E011C50064F1DCA1C2A1FB0
:101CF800AC1CF005210C51061B1C04FF6F6E6C799F
:101D0800710E011C381C3C00381C0100A00E1B1C65
:101D18000EFF666F7274682D776F72646C697374E6
:101D2800810E6A1C38003C0C460C09FF7365742D43
:101D38006F72646572008C0E011C381C3E00EC0446
:101D48001B1C0FFF7365742D7265636F676E697A6C
:101D580065727300990E011C381C5000EC041B1CA2
:101D68000FFF6765742D7265636F676E697A6572B8
:101D78007300A50E011C381C5000CB041B1C04FF6B
:101D8800636F6465B40E011C8902ED034706330CCA
:101D9800BA021B1C08FF656E642D636F6465C30E71
:101DA800011CAF020C94AF02051C1B1C08FF286D18
:101DB80061726B657229CE0E6A1C5E003C0C460C83
:101DC8000800706F7374706F6E65DA0E011C4C0A30
:101DD800310B330C330CBB1F251C1B1C03FF327249
:101DE8004000E40EF70E9A938A93EF91FF918F913A
:101DF8009F919F938F93FF93EF939A938A93CF0129
:041E08000C94051C15
:10380200BF93AF93DB0111966EF0FD01EE0FFF1F28
:10381200659175911196FB01EE0FFF1F05911591B0
:10382200F8010994E89460E472E0F5CF04FF65784A
:103832006974F20E1C1CAF91BF91E6CF07FF657849
:10384200656375746500171C261CBC0189919991EA
:10385200E2CF2B1CFD01EE0FFF1FA591B591D4CF36
:10386200321C982B89919991A9F31196CDCF391CCD
:103872009A938A93FD01EE0FFF1F85919591119600
:10388200C3CF431C9A938A93FB013196EE0FFF1F1D
:1038920085919591B9CF4D1C9A938A93CB0101964C
:1038A200B3CF531C9A938A93FB013196EE0FFF1FFD
:1038B20085919591840D951DA7CF07FF2876616CA0
:1038C200756529001F1C011C8902ED03AF026A1CE9
:1038D2001B1C0E941104AC1C330CBB1F251C1B1C9F
:1038E20001FF40005E1C751CFC01819191918CCFFF
:1038F20001FF2100711C7D1CFC018991999191832A
:1039020080838991999180CF02FF6321791C891C60
:10391200FC018991999180838991999175CF02FFD8
:103922006340851C941CFC01992780816DCF02FFA6
:103932004075901C011CF11E981D741C1B1C02FF7B
:103942002175981C011CF11E981D7C1C1B1C03FF79
:1039520064757000A01CAD1C9A938A9355CF04FF26
:103962003F647570A81CB51C082F092B11F09A939F
:103972008A934ACF04FF73776170B01CC01C8C011C
:10398200899199911A930A933FCF04FF6F766572DA
:10399200BB1CCB1C9A938A938A819B8135CF04FFEF
:1039A20064726F70C61CD51C899199912DCF03FF4B
:1039B200726F7400D01CDD1C8C01299139918991A0
:1039C20099913A932A931A930A931ECF03FF6E6931
:1039D2007000D81CEC1C229617CF02FF723EE71C27
:1039E200F21C9A938A938F919F910ECF02FF3E729F
:1039F200EE1CFB1C9F938F938991999105CF02FF37
:103A02007240F71C041D9A938A938F919F919F9302
:103A12008F93FACE02FF3C3E001D011CD41F151DE0
:103A22001B1C02FF303D0B1D161D982BD1F530C01B
:103A320002FF303C121D1D1D97FD2AC032C002FF3D
:103A4200303E191D241D821593055CF151F120C0F1
:103A520003FF64303E00201D2E1D821593058991BF
:103A6200999182059305ECF0E1F012C003FF6430F6
:103A72003C00291D3C1D229697FD0C94491D0C9477
:103A8200521D04FF74727565371D471D9A938A9300
:103A92008FEF9FEFB9CE01FF3000421D501D9A9368
:103AA2008A93C101B1CE02FF753C4C1D581D29916C
:103AB200399182179307A8F3A1F3EACF02FF753E6B
:103AC200541D011CBF1C571D1B1C01FF3C005F1D28
:103AD2006A1D29913991281739071CF7D9CF01FF9F
:103AE2003E00661D741D2991399128173907CCF2C1
:103AF200C1F2CECF04FF6C6F6732701D801DFC01D6
:103B0200992780E18A9522F0EE0FFF1FD8F77CCE2D
:103B12009A957ACE01FF2D007B1D8F1D0991199177
:103B2200081B190BC80170CE01FF2B008B1D991DBC
:103B320009911991800F911F67CE02FF6D2A951D81
:103B4200A21D8C01899199919C0131027001209FE3
:103B5200C0013003F308900DE11CF31C1203F308BB
:103B6200900DE11CF31C9A938A93C7014DCE06FF78
:103B7200756D2F6D6F649E1DBE1D7C01299139915B
:103B82000991199140E15527000F111F221F331F80
:103B9200551F2E153F05520518F003952E193F09A2
:103BA2004A9589F73A932A93C8012ECE03FF756D81
:103BB2002A00B81DDC1D8C0189919991809FF0012A
:103BC20022273327909FF00D211D331D819FF00D79
:103BD200211D331D919F200D311DCF019A938A9390
:103BE200C90112CE06FF696E76657274D71DF91D82
:103BF2008095909509CE02FF322FF31D001E9595F8
:103C0200879502CE02FF322AFC1D071E880F991FDC
:103C1200FBCD03FF616E6400031E0F1E0991199113
:103C220080239123F1CD02FF6F720A1E181E0991A3
:103C32001991802B912BE8CD03FF786F7200141E2F
:103C4200221E0991199180279127DECD02FF312B87
:103C52001D1E2B1E0196D8CD02FF312D271E311EAF
:103C62000197D2CD06FF6C73686966742D1E391EEA
:103C7200FC018991999131971AF0880F991FFBCF16
:103C8200C3CD06FF727368696674331E481EFC0159
:103C92008991999131971AF096958795FBCFB4CD7A
:103CA20002FF2B21421E551EFC0189919991208110
:103CB2003181820F931F8083918389919991A4CD41
:103CC20003FF72704000511E661E9A938A938DB74D
:103CD2009EB79ACD03FF72702100611E701E2FB72E
:103CE200F8948DBF9EBF2FBF899199918DCD03FF0F
:103CF200737040006B1E7D1E9A938A93CE0184CD11
:103D020003FF73702100781E861EEC018991999140
:103D12007BCD8B1E29913991E0E83E0F821B930BDC
:103D22003F932F939F938F93899199916DCD01FF2B
:103D32006900811E9C1E9A938A938F919F91EF91A5
:103D4200FF91FF93EF939F938F938E0F9F1F5CCDF5
:103D5200AA1EEF91FF91E80FF91F899199911BF02B
:103D6200FF93EF9377CD0F911F9111964DCDB91E11
:103D7200EF91FF913196BBF3F3CF06FF756E6C6F37
:103D82006F70981EC41E1F910F911F910F913CCD11
:103D920006FF636D6F76653EBE1ECF1EBF93AF9367
:103DA200E991F991A991B991092F082B41F0E80FF6
:103DB200F91FA80FB91F1E9112930197E1F7AF9156
:103DC200BF918991999120CD02FF3E3CC91EE91E07
:103DD200092F982F802F18CD03FF75704000E51E24
:103DE200F21E9A938A93C2010FCD03FF75702100D0
:103DF200ED1EFB1E2C018991999106CD03FF316DB9
:103E02007300F61E041FE0EDF7E03197F1F7FCCCEA
:103E120003FF323E7200FF1E0E1FFC018991999131
:103E22009F938F93FF93EF9389919991EDCC03FF29
:103E320032723E00091F1D1F9A938A93EF91FF91E0
:103E42008F919F919A938A93CF01DECC02FF2165D5
:103E5200181F2B1FFC01899199912FB7F89428D034
:103E62000DB3081709F00BD0319622D00DB3091704
:103E720011F0892F04D02FBF89919991C5CCE19976
:103E8200FECF07B700FDFDCFFFBBEEBB8DBBE29AB5
:103E9200E19A089502FF4065271F4F1F2FB7F8943C
:103EA200FC0106D08DB3319603D09DB32FBFACCCAD
:103EB200E199FECFFFBBEEBBE09A089502FF2169B4
:103EC2004B1F9B0C34003C0C460C09FF2821692D2A
:103ED2006E72777729005F1F6E1F1FB71F93F894CA
:103EE2009C0189919991AF93BF93CF93DF9309D0AE
:103EF200DF91CF91BF91AF91899199911F911FBF8E
:103F020083CC11D0E094F0948E219F21982B21F044
:103F1200B394F90102E020D0F90104E01DD0F901C7
:103F220000E11AD00895F901E07CFF7FEF01A0E4DF
:103F3200B0E0FE01EE0FFF1F45915591FE01E21721
:103F4200F30711F00A0102C07A010C01002704D024
:103F52002196119771F70895E199FECF17B710FDD9
:103F6200FDCFEE0FFF1F016007BFE895089502FF26
:103F72004069661FBC1FFC01EE0FFF1F85919591E2
:103F820043CC0800326C69746572616CB81F011C05
:103F9200BF1CAF02381CBA02AF02381CBA021B1C8B
:103FA20001FF3D00C21F011C8E1D151D1B1C01FFC0
:103FB2003100D11F431C010001FF3200D81F431CF6
:0C3FC200020002FF2D31DD1F431CFFFF39
:00000001FF
