:020000020000FC
:0200040009D120
:0200080007D11E
:02000C0005D11C
:0200100003D11A
:0200140001D118
:02001800FFD017
:02001C00FDD015
:02002000FBD013
:02002400F9D011
:02002800F7D00F
:02002C00F5D00D
:02003000F3D00B
:02003400F1D009
:02003800EFD007
:02003C00EDD005
:02004000EBD003
:02004400E9D001
:02004800E7D0FF
:02004C00E5D0FD
:10005000E3D00008000400701500080041546D65ED
:1000600067613332AF93AFB7AF93BF93EF93FF9313
:10007000B0912C00A0917200E0E6F0E0EA0FF31DD1
:10008000B083A395AF70A0937200FF91EF91BF91E1
:08009000AF91AFBFAF911895CD
:0200340017C0F3
:1000980001384F393838720088384F393838740089
:1000A80088381B3806FF72782D6973720000013892
:1000B800750031385C00383874009338AC382A3A07
:1000C80038380F000E3A38387400883838386000ED
:1000D800983993381B3807FF72783F2D697372007F
:1000E80056000138123D3838740093383838720099
:1000F80093380E391B3807FF74782D706F6C6C00BD
:100108006F00013893003138860038382C00883861
:100118001B3808FF74783F2D706F6C6C7F000138B6
:10012800123D38382B009338383820000E3A1B38E7
:1001380004FF756272728D006A387C00823D8C3DC6
:1001480006FF2B75736172749C000138383898006B
:1001580038382A008838383806003838C0008838D7
:10016800A000AC38E83A38384000883838382900D8
:1001780088384C001B3808FF31772E726573657418
:10018800A400C6009A938A939927BC9AC498E0EC75
:10019800F3E03197F1F71FB7F894C49ABC98E0E8F8
:1001A800F0E03197F1F786B384FF9FEF1FBFBC984B
:1001B800C498E0E4F3E03197F1F7892F0C940538FF
:1001C80007FF31772E736C6F7400BF00EB00BC9A89
:1001D800C4981FB7F894ECE0F0E03197F1F78894F1
:1001E800879510F4BC98C49AE2E1F0E03197F1F7F2
:1001F80006B304FD8068E6E6F0E03197F1F7BC98B5
:10020800C49AE4E0F0E03197F1F71FBF0C94053889
:040000000C941B3D04
:100218000A920FB60A920F900F900A9400927600F5
:1002280009900FBE09906894089502FF6D2BE400B1
:100238000138B83F053C1B3803FF75642A001901D3
:100248000138AC38FA38DB39D438BF38F138DB3903
:10025800DC3898391B3804FF756D61782001013846
:10026800B33E573931383901BF38D4381B3804FF09
:10027800756D696E2F010138B33E62393138450119
:10028800BF38D4381B380138383800800E3A153951
:1002980031385101383801001B3846391B380AFFFC
:1002A8006E616D653E666C6167733B010138BB3BEF
:1002B800383800FF0E3A1B380EFF6E616D653E69D7
:1002C8006E7465727072657453010138FA061B38D2
:1002D8000CFF6E616D653E636F6D70696C656001E2
:1002E8000138AC38FA06BF385A01470131387F0166
:1002F800383856071B38383825381B3803FF7665D9
:1003080072006C010138D302FC039F3FA73E74388A
:10031800E102323FB83F1A03220338382E000B039C
:10032800380343033204A73E7C389F3FE902FC03AD
:100338001B3804FF6E6F6F708201A2010C940538A0
:1003480006FF756E757365649D0101387C3A133F2D
:100358008E391B380200746FA40101384104C13F73
:10036800A13E74383138C2014B07BC0156071B380F
:100378000138F138AC38CE01FA38BB3BAC38CE0185
:10038800CE01BB3B25381B3807FF692D63656C6CB4
:100398002B00AE0101382A3A1B3808FF69636F6DDC
:1003A80070617265C8010138FA38CA38F1380E39F7
:1003B8003138E201BC3ED43846391B38BF384F3992
:1003C8001508313805028A3ACA387438CA38BB3B2E
:1003D800AC383838000157393138F601BF38383869
:1003E800FF000E3A0E393138FD01BC3E4639C33A9A
:1003F8001B382A3ABF38833CBF3838380200A93A3C
:10040800E801BC3E4F391B3801FF2A00D1010138F1
:10041800A139D4381B3801FF6A0008020138653A4F
:100428003838070098397438653A383809009839E7
:10043800743898391B3804FF646162730F020138FD
:10044800AC381C393138290230021B3807FF646E7A
:100458006567617465001F0201382B3C383801005C
:100468004F39053C1B3805FF636D6F7665002A021E
:100478003D02BF93AF93E991F991A991B991092FE1
:10048800082B21F01D9111930197E1F7AF91BF91CE
:10049800899199910C94053805FF32737761700042
:1004A80037020138DC38FA38DC38F1381B3803FFFA
:1004B800746962005002433877000AFF7265666902
:1004C8006C6C2D7469625B0201385F0238385A001F
:1004D8008A04D23E7C384F39CC3E7C3846391B38AA
:1004E8000AFF736F757263652D7469626102013862
:1004F8005F02D23E74381B3806FF65653E72616D37
:10050800740201384F398A3ACA384E3BCA387C38A7
:10051800833CBF38833CBF38B83A8802BC3E1B389E
:1005280009FF696E69742D75736572008002013860
:1005380038386000F13A38381C00FF3985021B381A
:100548000BFF656E7669726F6E6D656E740094024E
:100558004338360009FF776F72646C6973747300EF
:1005680000000138383808001B3804FF2F70616418
:10057800AE0201387C3AD83E8E391B3805FF2F6809
:100588006F6C6400B9020138D83E133F8E391B38AE
:100598000AFF666F7274682D6E616D65C20201385C
:1005A800C9030700616D666F727468001B3807FF26
:1005B80076657273696F6E00CC02013838383B007B
:1005C8001B3803FF63707500DB02013838382D00D3
:1005D80028041B3808FF6D63752D696E666FE50288
:1005E8000138383829001B3805FF2F7573657200EC
:1005F800EE020138383826001B3803FF686C6400A7
:10060800A4024338D10004FF686F6C640103013809
:100618000503AC387438303AAC38FA38BF387C380F
:10062800F13888381B3802FF3C2307030138D83ECD
:1006380005037C381B3801FF230017030138A73E48
:1006480074389F03DC3838380900CA3869393138BA
:1006580030033838070098393838300098390B0398
:100668001B3802FF23731F0301382203B33E173AD6
:100678001539313839031B3802FF233E3503013859
:10068800BC3E05037438D83ECA388E391B3804FF7F
:100698007369676E400301381C393138560338389E
:1006A8002D000B031B3803FF642E72004B03013827
:1006B800FA38C43E23021A033803DC384F034303D5
:1006C800F138CA388E39A83F32041B3802FF2E721F
:1006D80057030138FA38B83FF1385B031B3802FF7B
:1006E800642E6A0301384F395B039F3F1B3801FFB3
:1006F8002E0073030138B83F76031B3803FF756477
:100708002E007B0301384F398F039F3F1B3804FFAE
:1007180075642E7282030138FA381A0338034303CA
:10072800F138CA388E39A83F32041B3806FF756481
:100738002F6D6F648B030138FA384F390339BD398F
:10074800F138BF38FA38BD39F1381B3806FF64690B
:100758006769743F9A030138573FAC383838390015
:100768007339383800010E3A9839AC3838384001B6
:100778007339383807010E3A8E39383830008E39D7
:10078800AC38A73E743857391B3801380339280468
:10079800F138CA382A3AFF3998392A3AFA381B38D0
:1007A80002FF732CAA030138AC38DB031B3801386D
:1007B8005607AC38FF39C43E063A8E39FA384F39F5
:1007C80015083138EE038A3AAC3874385607833C3A
:1007D800B83AE803F13823393138F503AC3893389F
:1007E8005607D4381B3805FF697479706500D4033F
:1007F8000138AC38FF39C43E063A8E39FA384F39D9
:100808001508313810048A3AAC38BB3BAC381D04A3
:1008180019042A3AB83A0804F13823393138170448
:10082800AC38BB3B1D04D4381B380138E83A1D04EA
:100838001B3801383838FF000E3AE23E1B3806FFF5
:1008480069636F756E74F7030138AC382A3ABF389C
:10085800BB3B1B3804FF74797065230401388A3F59
:10086800150831383D048A3A9B3A9338E23EB83A43
:1008780038041B3801FF27002E040138AD05EF05A9
:100888007206D43F31384A04D4381B383838F3FF5D
:10089800683D05FF63736B6970003E040138FA38E0
:1008A800AC3831386204CA3893380339D43F313808
:1008B8006204383801009E052A385404F138D438C7
:1008C8001B3805FF637363616E004D040138FA3805
:1008D800CA38AC3893380339D43F153931387F04D6
:1008E800BF38303ABF38CA381C39153931387F0417
:1008F8002A3A2A386D04EB38CA388E39F138D43898
:100908001B3806FF61636365707465040138CA3873
:100918009839303ACA38F33EAC38C40415393138FE
:10092800B604AC3838380800D43F3138AD04D43870
:10093800DC38B33E7339FA38DC38DC38F138313812
:10094800AB04BC04303AFA38CA38F13833012A38D3
:10095800B404AC38E23ECA3888382A3ACA383F016B
:100968002A388F04D438EB38BF388E39923F1B3879
:10097800013838380800AC38E23E9F3FE23E1B3869
:100988000138AC3838380D00D43FBF3838380A0041
:10099800D43F173A1B3806FF726566696C6C85048C
:1009A800E13D1A00AA3DB63D04FF63686172CF04B9
:1009B8000138AD05D43893381B3806FF6E756D6263
:1009C8006572D8040138A73E7438FA382D05FA380C
:1009D80041052D05F138173AFA38AC381539313850
:1009E800FD04BC3EF138D438F138A73E7C384F3985
:1009F8001B380D3B4F394F391C3B6005B438313833
:100A0800210538380100D43F313818059338383873
:100A18002E00D43F31381905F13831381405300229
:100A2800383802002A382805D438BC3EF138D43882
:100A3800F138A73E7C384F391B38BC3EF138313885
:100A48002605113E38380100F138A73E7C38463972
:100A58001B380138CA38933838382D00D43FAC38A1
:100A6800FA3831383A05383801009E05F1381B3814
:100A78004D380A00100002000A000138CA389338BD
:100A8800383823008E39AC384F3938380400413EA5
:100A9800313858053C059839BB3BA73E7C38383877
:100AA80001009E052A385905D4381B3807FF3E6EC9
:100AB800756D62657200E1040138AC38313879052A
:100AC800CA389338AF03153931386C05D4381B3818
:100AD800FA385502A73E74382401F1381C01550232
:100AE800383801009E052A3861051B3805FF7061FA
:100AF800727365005A050138FA389405CC3E74388B
:100B08009E05F1386A04AC382A3ACC3E543A383853
:100B180001009E051B3806FF736F757263657A05C1
:100B2800E13D1600AA3DB63D07FF2F737472696E4A
:100B380067008F050138DC38CA389839DC38DC386A
:100B48008E391B380AFF70617273652D6E616D6591
:100B580098050138453FB1051B380138FA38940526
:100B6800CC3E74389E0503395204F1386A04B33E0A
:100B780098399405D4388E39CC3E7C381B3803FF1D
:100B880073703000A6056A380600AA3DB63D02FF1C
:100B98007370C3055338080003FF72703000CB052B
:100BA8000138D80574381B385338040005FF6465CC
:100BB80070746800D0050138C7057C3A8E39FF3952
:100BC800303A1B380DFF646F2D7265636F676E696D
:100BD8007A657200DA0501383838FB053838500074
:100BE8009F0915393138FA05BC3E8F061B38013884
:100BF800DC38DC38B33E0D3BDC3825381C3BDC38B0
:100C0800AC388F06D43F31380C06D4384F391B38EE
:100C1800EB38EB3846391B3809FF696E746572701A
:100C280072657400E6050138AD05AC383138270621
:100C3800EF05A13E743831382206CE01BB3B25387A
:100C48007C3F2A381806BC3E1B3805FF723A6E7581
:100C58006D0010064D38A1016C073B0606FF723A7D
:100C6800646E756D29064D38A101C83F41060138EB
:100C78007E033838D0FF683D1B3801387603383892
:100C8800D0FF683D1B3807FF7265633A6E756D00CB
:100C980032060138E60431385A0638380100D43FA4
:100CA800313858062E061B3837061B388F061B3876
:100CB80008FF7265633A776F726447060138050763
:100CC800AC38153931386B06D4388F061B387206A4
:100CD8001B3806FF723A776F72645C064D387606E9
:100CE8007A0682060138D43825381B3801381C3971
:100CF8003138800656071B3825381B3801381C390F
:100D0800313888064B074B0756071B3806FF723ADF
:100D18006661696C6D064D38930693069306013833
:100D28003838F3FF683D0FFF7365617263682D778C
:100D38006F72646C697374008A060138FA384F3927
:100D48003838B606F138D306AC3815393138B0061C
:100D5800BC3ED4384F391B38AC38FA06BF385A0174
:100D680047011B380138FA38D438B33E0339EE0648
:100D7800D7013138C406F138D4384F3946391B38D1
:100D8800BC3EF1384F391B3811FF747261766572B9
:100D980073652D776F72646C6973740097060138F8
:100DA8004E3BAC383138E406B33E0D3BBF382538EE
:100DB8001C3BDC383138E406060ABB3B2A38D5062A
:100DC800BC3E1B380BFF6E616D653E737472696EB5
:100DD8006700C806013828043838FF000E3A1B3867
:100DE80007FF6E66613E63666100E6060138060A23
:100DF8002A3A1B3809FF66696E642D6E616D6500BD
:100E0800F40601383838110738383E009F0915397B
:100E180031381007BC3E4F391B380138FA38B33E19
:100E2800F138A106AC3831381E07FA38EB38EB3800
:100E3800F13846391B3808FF2863726561746529E3
:100E4800FE060138AD058008AC38FA386508F13877
:100E58003838D5007C383838D3007C381B38010046
:100E68005C001F0701389405EB38CC3E7C381B38F2
:100E78000100280033070138383829007F05BC3EB7
:100E88001B3807FF636F6D70696C65003C0701389C
:100E9800F138AC38CE01FA38BB3B56071B3801FF96
:100EA8002C0045070138023F623B023F2A3ABC0149
:100EB800033F1B3803005B275D00530701384104DB
:100EC8006C071B3807006C69746572616C005E07FB
:100ED80001384B07383856071B380800736C69749B
:100EE8006572616C660701384B07C903D7031B3865
:100EF8000138023F4B07FFFF1B3801387C3F023F98
:100F0800BF38623B1B380138023F1B3801387C3F31
:100F180056071B3805006168656164007107013870
:100F28004B072A387C071B38020069668E07013890
:100F38004B0731387C071B380400656C73659807CC
:100F480001384B072A387C07BF3881071B38040053
:100F58007468656EA007013881071B380500626553
:100F680067696E00AB07013887071B38050077688B
:100F7800696C6500B20701389B07BF381B3806004B
:100F8800726570656174BA070138DC07AF071B38F2
:100F98000500756E74696C00C3070138383831383C
:100FA80056078A071B380500616761696E00CC0720
:100FB80001384B072A388A071B380200646FD707A5
:100FC80001384B078A3A87074F393F081B38040016
:100FD8006C6F6F70E10701384B07B83A26081B3869
:100FE80005002B6C6F6F7000EB0701384B07A93AAF
:100FF80026081B3805006C6561766500F407013822
:101008004B07C33A93073F081B3803003F646F0040
:10101800FE0701384B0715089B07E407BF383F0850
:101028001B380138B33ED43FAC38FA3831381D0884
:10103800BC3EF138F8391B3807FF656E646C6F6F7A
:101048007000090801388A073308B43831382F0886
:10105800AF072A3828081B3802FF6C3E20080138E1
:101068005308743874383838FEFF5308543A1B381C
:1010780002FF3E6C30080138383802005308543AF1
:10108800530874387C381B3803FF6C7030003C08F8
:101098006A385C00823D8C3D02FF6C70480843381A
:1010A800D70006FF6372656174655008013825072B
:1010B80089084B074D381B3806FF686561646572FF
:1010C80055080138023FFA38FA38AC382339313834
:1010D8007708AC38383800FF173ADB03F1384E3B55
:1010E8005607F1381B383838F0FF683D07FF776C32
:1010F80073636F7065006008E13D5A00823D8C3D66
:1011080006FF72657665616C7A0801383838D30055
:101118007438B438313898083838D50074382A3BD0
:101128004F393838D3007C381B3806FF6C6174653A
:10113800737484084338D9000500646F65733E00F2
:10114800990801384B07B8084B070E944B07AD08B0
:101158001B389A938A93CB0101967F916F91BF9325
:10116800AF93DB010C9405380138F1383838D500D5
:1011780074384E3B060A2A3A623B1B3801FF3A0094
:10118800A00801382507D008D4381B3807FF3A6E65
:101198006F6E616D6500C2080138023FAC389E0869
:1011A8007C384B070138E5081B3801003B00CA08AA
:1011B80001384B071B38EE0889081B3801FF5D0012
:1011C800D908013838380100A13E7C381B380100A5
:1011D8005B00E20801384F39A13E7C381B3808FF14
:1011E8007661726961626C65EB080138133F060924
:1011F800383802001C3F1B3808FF636F6E73746138
:101208006E74F3080138250789084B0743385607D9
:101218001B3804FF757365720009013825078908B2
:101228004B07533856071B3807007265637572738E
:1012380065000D0901389E08743856071B3809FFE8
:10124800696D6D6564696174650018090138C709BD
:101258004E3BAC38BB3B3838FF7F0E3ABF38623B59
:101268001B3806005B636861725D230901384B0710
:101278003838DC0456071B38060061626F72742226
:1012880035090138743E4B0758091B3805FF616260
:101298006F727400400901383838FFFF683D06FF57
:1012A8003F61626F72744A090138DC3831385E096F
:1012B800FC034F09BC3E1B3809FF6765742D737426
:1012C80061636B0053090138AC38833CBF384E3B2F
:1012D800AC38FA384F39BF38150831387E098A3AA0
:1012E8009B3A303AAE3ECA3898394E3BBF384639F9
:1012F800A93A7409BC3EF1381B3809FF7365742D8F
:10130800737461636B0060090138B33E2A3BBF38D0
:101318004F391508313896098A3A833CC43E2A3B2E
:10132800B83A9109D4381B3809FF6D61702D737470
:1013380061636B0081090138AC38833CBF384E3B90
:10134800AE3E8A3F15083138BC098A3A9B3A4E3B73
:10135800BF38FA3803392538B4383138B709F13885
:10136800D438C33A1B38F13838380200A93AAA09E8
:10137800D4384F391B380BFF6765742D637572724B
:10138800656E74009809013838383A004E3B1B38AE
:1013980009FF6765742D6F7264657200BF090138B3
:1013A80038383E0067091B3807FF636F6D7061723C
:1013B8006500CC09DF09BF93AF938C01899199919E
:1013C800DC01899199919C0189919991FC01ED9099
:1013D800F190EF1451F40A9519F02A95C1F701C05C
:1013E8002A95022B11F4882702C08FEF00C0982F8E
:1013F800AF91BF910C94053807FF6E66613E6C662D
:101408006100D8090138EE062A3AFF3998391B38A5
:1014180002FF2E73000A0138DF05F43D9F3FDF0508
:101428004F39150831381E0A8A3A9B3A773CF43D01
:10143800B83A190A1B3806FF6321407370690C0A11
:10144800250A03D099270C9405388FB90EB1087F67
:101458000EB90EB107FFFACF8FB1089505FF6E40A0
:10146800737069001F0A380A8C0189919991FC01EF
:10147800C8012FB82EB127FFFDCF2FB121930197B7
:10148800C1F7899199910C94053805FF6E21737005
:101498006900320A4F0A8C0189919991FC01C801AF
:1014A80021912FB92EB127FFFDCF2FB10197C1F799
:1014B800899199910C9405380BFF6170706C747563
:1014C800726E6B657900490A0138A9008A3C860169
:1014D8009F3F963E3838E803BD39BF38D438323F8D
:1014E8007E03C90304006B487A20FC031B380BFFFA
:1014F8007365742D63757272656E7400600A0138C5
:1015080038383A002A3B1B3808FF776F72646C69D9
:1015180073747B0A01380B3F4F39CA382A3BAC3801
:10152800833CBC010C3F1B3804FF6F6E6C79880A42
:10153800013838383C0038380100B70A1B380EFF2C
:10154800666F7274682D776F72646C697374980A29
:101558006A383800823D8C3D09FF7365742D6F72BF
:1015680064657200A30A013838383E0088091B38C0
:101578000FFF7365742D7265636F676E697A6572A4
:101588007300B00A01383838500088091B380FFF3B
:101598006765742D7265636F676E697A657273002B
:1015A800BC0A01383838500067091B3804FF636FDC
:1015B8006465CB0A013825078908023FCE01560722
:1015C8001B3808FF656E642D636F6465DA0A01389D
:1015D8004B070C944B0705381B3808FF286D6172C0
:1015E8006B657229E50A6A385E00823D8C3D080009
:1015F800706F7374706F6E65F10A0138AD05EF0591
:10160800CE01CE01BB3B25381B3803FF32724000A8
:10161800FB0A0E0B9A938A93EF91FF918F919F91FA
:101628009F938F93FF93EF939A938A93CF010C9490
:02163800053873
:10700200BF93AF93DB0111966EF0FD01EE0FFF1FF0
:10701200659175911196FB01EE0FFF1F0591159178
:10702200F8010994E89465EB7CE3F5CF04FF6578F9
:107032006974090B1C38AF91BF91E6CF07FF6578E1
:1070420065637574650017382638BC01899199917A
:10705200E2CF2B38FD01EE0FFF1FA591B591D4CFE2
:107062003238982B89919991A9F31196CDCF39385D
:107072009A938A93FD01EE0FFF1F859195911196C8
:10708200C3CF43389A938A93FB013196EE0FFF1FC9
:1070920085919591B9CF4D389A938A93CB010196F8
:1070A200B3CF53389A938A93FB013196EE0FFF1FA9
:1070B20085919591840D951DA7CF07FF2876616C68
:1070C200756529001F380138250789084B076A387A
:1070D2001B380E94AD08AC38CE01BB3B25381B38AB
:1070E20001FF40005E387538FC01819191918CCF8F
:1070F20001FF210071387D38FC01899199919183BA
:1071020080838991999180CF02FF632179388938F0
:10711200FC018991999180838991999175CF02FFA0
:10712200634085389438FC01992780816DCF02FF36
:10713200407590380138F13A983974381B3802FF9B
:10714200217598380138F13A98397C381B3803FF99
:1071520064757000A038AD389A938A9355CF04FFB6
:107162003F647570A838B538082F092B11F09A932F
:107172008A934ACF04FF73776170B038C0388C01AC
:10718200899199911A930A933FCF04FF6F766572A2
:10719200BB38CB389A938A938A819B8135CF04FF7F
:1071A20064726F70C638D538899199912DCF03FFDB
:1071B200726F7400D038DD388C0129913991899130
:1071C20099913A932A931A930A931ECF03FF6E69F9
:1071D2007000D838EC38229617CF02FF723EE7389B
:1071E200F2389A938A938F919F910ECF02FF3E724B
:1071F200EE38FB389F938F938991999105CF02FFC7
:107202007240F73804399A938A938F919F919F9392
:107212008F93FACE02FF3C3E00390138D43F153934
:107222001B3802FF303D0B391639982BD1F530C08F
:1072320002FF303C12391D3997FD2AC032C002FFCD
:10724200303E19392439821593055CF151F120C081
:1072520003FF64303E0020392E398215930589914F
:10726200999182059305ECF0E1F012C003FF6430BE
:107272003C0029393C39229697FD0C9449390C94EB
:10728200523904FF74727565373947399A938A9374
:107292008FEF9FEFB9CE01FF3000423950399A93F8
:1072A2008A93C101B1CE02FF753C4C3958392991FC
:1072B200399182179307A8F3A1F3EACF02FF753E33
:1072C20054390138BF3857391B3801FF3C005F3948
:1072D2006A3929913991281739071CF7D9CF01FF4B
:1072E2003E00663974392991399128173907CCF251
:1072F200C1F2CECF04FF6C6F673270398039FC0166
:10730200992780E18A9522F0EE0FFF1FD8F77CCEF5
:107312009A957ACE01FF2D007B398F390991199107
:10732200081B190BC80170CE01FF2B008B3999394C
:1073320009911991800F911F67CE02FF6D2A95392D
:10734200A2398C01899199919C0131027001209F8F
:10735200C0013003F308900DE11CF31C1203F30883
:10736200900DE11CF31C9A938A93C7014DCE06FF40
:10737200756D2F6D6F649E39BE397C0129913991EB
:107382000991199140E15527000F111F221F331F48
:10739200551F2E153F05520518F003952E193F096A
:1073A2004A9589F73A932A93C8012ECE03FF756D49
:1073B2002A00B839DC398C0189919991809FF001BA
:1073C20022273327909FF00D211D331D819FF00D41
:1073D200211D331D919F200D311DCF019A938A9358
:1073E200C90112CE06FF696E76657274D739F93912
:1073F2008095909509CE02FF322FF339003A959588
:10740200879502CE02FF322AFC39073A880F991F6C
:10741200FBCD03FF616E6400033A0F3A09911991A3
:1074220080239123F1CD02FF6F720A3A183A099133
:107432001991802B912BE8CD03FF786F7200143ADB
:10744200223A0991199180279127DECD02FF312B33
:107452001D3A2B3A0196D8CD02FF312D273A313A07
:107462000197D2CD06FF6C73686966742D3A393A7A
:10747200FC018991999131971AF0880F991FFBCFDE
:10748200C3CD06FF727368696674333A483AFC01E9
:107492008991999131971AF096958795FBCFB4CD42
:1074A20002FF2B21423A553AFC01899199912081A0
:1074B2003181820F931F8083918389919991A4CD09
:1074C20003FF72704000513A663A9A938A938DB7DD
:1074D2009EB79ACD03FF72702100613A703A2FB7BE
:1074E200F8948DBF9EBF2FBF899199918DCD03FFD7
:1074F200737040006B3A7D3A9A938A93CE0184CDA1
:1075020003FF73702100783A863AEC0189919991D0
:107512007BCD8B3A29913991E0E83E0F821B930B88
:107522003F932F939F938F93899199916DCD01FFF3
:107532006900813A9C3A9A938A938F919F91EF9135
:10754200FF91FF93EF939F938F938E0F9F1F5CCDBD
:10755200AA3AEF91FF91E80FF91F899199911BF0D7
:10756200FF93EF9377CD0F911F9111964DCDB93ABD
:10757200EF91FF913196BBF3F3CF06FF756E6C6FFF
:107582006F70983AC43A1F910F911F910F913CCDA1
:1075920006FF636D6F76653EBE3ACF3ABF93AF93F7
:1075A200E991F991A991B991092F082B41F0E80FBE
:1075B200F91FA80FB91F1E9112930197E1F7AF911E
:1075C200BF918991999120CD02FF3E3CC93AE93A97
:1075D200092F982F802F18CD03FF75704000E53AD0
:1075E200F23A9A938A93C2010FCD03FF757021007C
:1075F200ED3AFB3A2C018991999106CD03FF316D49
:107602007300F63A043BE0EDF7E03197F1F7FCCC7A
:1076120003FF323E7200FF3A0E3BFC0189919991C1
:107622009F938F93FF93EF9389919991EDCC03FFF1
:1076320032723E00093B1D3B9A938A93EF91FF9170
:107642008F919F919A938A93CF01DECC02FF21659D
:10765200183B2B3BFC01899199912FB7F89428D0C4
:107662000DB3081709F00BD0319622D00DB30917CC
:1076720011F0892F04D02FBF89919991C5CCE1993E
:10768200FECF07B700FDFDCFFFBBEEBB8DBBE29A7D
:10769200E19A089502FF4065273B4F3B2FB7F894CC
:1076A200FC0106D08DB3319603D09DB32FBFACCC75
:1076B200E199FECFFFBBEEBBE09A089502FF21697C
:1076C2004B3BE13D3400823D8C3D09FF2821692D71
:1076D2006E72777729005F3B6E3B1FB71F93F8945A
:1076E2009C0189919991AF93BF93CF93DF9309D076
:1076F200DF91CF91BF91AF91899199911F911FBF56
:1077020083CC11D0E094F0948E219F21982B21F00C
:10771200B394F90102E020D0F90104E01DD0F9018F
:1077220000E11AD00895F901E07CFF7FEF01A0E4A7
:10773200B0E0FE01EE0FFF1F45915591FE01E217E9
:10774200F30711F00A0102C07A010C01002704D0EC
:107752002196119771F70895E199FECF17B710FDA1
:10776200FDCFEE0FFF1F016007BFE895089502FFEE
:107772004069663BBC3BFC01EE0FFF1F8591959172
:1077820043CC03FF6E3E7200B83BC73BFC01082F9F
:10779200899199919F938F930A95D1F7EF93FF93D4
:1077A2008991999131CC03FF6E723E00C23BD93B65
:1077B2009A938A93FF91EF910E2F8F919F919A93B3
:1077C2008A930A95D1F7CF011FCC03FF64322A00B6
:1077D200D43BEB3B09911991000F111F881F991F90
:1077E2001A930A9311CC03FF64322F00E63BF93B54
:1077F2000991199195958795179507951A930A936B
:1078020003CC02FF642BF43B063C29913991E990A9
:10781200F99049915991240F351F8E1D9F1D3A935E
:107822002A93F2CB02FF642D023C173C2991399135
:10783200E990F99049915991421B530BE80AF90AD0
:107842005A934A93C701E0CB07FF64696E7665726B
:107852007400133C2C3C09911991809590950095E8
:1078620010951A930A93D0CB04FF2F6D6F64253CB9
:107872003A3C9C0109911991412F432717FF04C0FB
:10788200109500950F5F1F4F37FF04C0309520956C
:107892002F5F3F4FEE24FF1851E1001F111F5A9531
:1078A20039F447FF04C0109500950F5F1F4F0BC0BE
:1078B200EE1CFF1CE21AF30A20F4E20EF31E889477
:1078C200ECCF0894EACFFA92EA92C8019DCB03FF6B
:1078D20061627300353C6D3C99231AF48095909552
:1078E200019692CB04FF7069636B683C01382A3AB7
:1078F200AE3E7C3A983974381B3805FF63656C6C70
:107902002B00733C843C02967FCB04FF2B696E7480
:107912007E3C8B3C789478CB04FF2D696E74863C58
:10792200923CF89471CB04FF696E74218D3C01384E
:107932003838000098392A3B1B3804FF696E7440BE
:10794200943C01383838000098394E3B1B3808FF08
:10795200696E742D747261709E3CAF3C80937600A8
:1079620089919991689450CB0138383876009338D0
:107972003838000098394E3B2538C03C1B38C13C92
:1079820001D042CB18950138C9030300206F6B0068
:10799200FC031B380138C90302003E20923FFC035E
:1079A2001B380138C9030400203F3F20FC03A73ED7
:1079B2007438FA38323F7E03CC3E74387E03F13895
:1079C200A73E7C381B3804FF71756974A83C0138E6
:1079D2004C0853087C38C705853AD4056F3AEE083F
:1079E200A13E743815393138F73CCB3CD4043138D8
:1079F200F13C38381706523DB4383138093DAC38BD
:107A02003838FEFF69393138073DD23C2A38E93C23
:107A1200C43C2A38F13C1B3805FF70617573650060
:107A2200E43CE13DDB00963DA03D04FF636F6C64E6
:107A32000D3D1B3DA4B62224332424BEE0E6F0E033
:107A42002192E036E9F7F830D9F7EDEDF0E02F01B9
:107A52000FE50DBF048318E01EBF1583CFE0C68378
:107A6200D8E0D783ABE3BDE3CFCA04FF7761726D81
:107A7200163D01389B023838A1013838123DC13D0C
:107A8200EE084D3FE83C1B3807FF68616E646C6589
:107A92007200363D53380A0005FF63617463680063
:107AA200453D01387C3AFA384B3D7438FA38653A2C
:107AB2004B3D7C382538F1384B3D7C38F138D43891
:107AC2004F391B3805FF7468726F77004D3D0138DE
:107AD200AC38153931386F3DD4381B384B3D7438CA
:107AE2006F3AF1384B3D7C38F138BF38FA38853A75
:107AF200D438F1381B3807FF45646566657240006B
:107B0200633D0138BB3B4E3B1B3807FF456465664E
:107B1200657221007C3D0138BB3B2A3B1B3807FFC5
:107B22005264656665724000863D0138BB3B74381D
:107B32001B3807FF5264656665722100903D01386B
:107B4200BB3B7C381B3807FF556465666572400095
:107B52009A3D0138BB3BF13A983974381B3807FF1C
:107B62005564656665722100A43D0138BB3BF13A5C
:107B720098397C381B3806FF646566657221B03D12
:107B82000138C13FAC38CE01CE01BB3B25381B3892
:107B920006FF646566657240BC3D0138C13FAC3882
:107BA200CE01BB3B25381B3807FF2864656665722A
:107BB2002900C93D0138250789084B07E13D1B38DB
:107BC2000E94AD08AC38CE01BB3B253825381B38A6
:107BD20002FF643DD53D0138163C173A15391B3872
:107BE20002FF752EE93D01384F3986031B3803FF2A
:107BF200752E7200F13D01384F39BF388F031B38A3
:107C020005FF752F6D6F6400F83D0138FA384F3962
:107C1200F138BD391B3806FF6E6567617465013E38
:107C22000138F8392A3A1B3801FF2F000C3E01387F
:107C3200393CEB381B3803FF6D6F6400153E013889
:107C4200393CD4381B3803FF6D696E001C3E013885
:107C5200B33E733931382E3EBF38D4381B3803FF58
:107C62006D617800243E0138B33E693931383A3EBD
:107C7200BF38D4381B3806FF77697468696E303EA6
:107C82000138CA388E39FA388E39F13857391B38EB
:107C92000DFF73686F772D776F72646C6973740070
:107CA2003C3E01383838583EBF38D3061B380138BD
:107CB200EE06FC039F3F46391B3805FF776F72645F
:107CC2007300493E0138383840004E3B523E1B3863
:107CD20002002E225E3E0138743E4B07FC031B3825
:107CE20002007322693E0138383822007F05A13E26
:107CF200743831387D3E77071B3804FF66696C6C37
:107D0200713E0138DC38DC38B43831388F3E8A3F76
:107D12008A3AAC389B3A8838B83A8A3ED4381B380B
:107D220005FF665F637075007E3E013838380012C9
:107D320038387A001B3805FF737461746500913E10
:107D42004338030104FF626173659C3E53380C00A3
:107D520005FF63656C6C7300A33E073A04FF32644F
:107D62007570A93E0138CA38CA381B3805FF32641B
:107D7200726F7000AF3E0138D438D4381B3804FF1C
:107D82007475636BB73E0138BF38CA381B3803FFBE
:107D92003E696E00C03E5338180004FF23746962C6
:107DA200C83E4338050103FF70616400CE3E0138CE
:107DB200133F3838640098391B3804FF656D6974C5
:107DC200D43EE13D0E00AA3DB63D05FF656D6974E6
:107DD2003F00DE3EE13D1000AA3DB63D03FF6B656C
:107DE2007900E63EE13D1200AA3DB63D04FF6B6517
:107DF200793FEF3EE13D1400AA3DB63D02FF6470BB
:107E0200F73E6A382C00823D8C3D05FF656865723D
:107E12006500FF3E6A383000823D8C3D04FF686594
:107E22007265063F6A382E00823D8C3D05FF616C0B
:107E32006C6F74000F3F0138133F9839BC01143F37
:107E42001B3803FF62696E00173F013838380200A1
:107E5200A73E7C381B3807FF646563696D616C005F
:107E6200223F013838380A00A73E7C381B3803FF0E
:107E7200686578002C3F013838381000A73E7C38FE
:107E82001B3802FF626C383F4338200007FF7475CD
:107E9200726E6B657900423FE13D3200823D8C3D5E
:107EA20007FF746F757070657200473F0138AC3818
:107EB2003838610038387B00413E3138633F38380A
:107EC200DF000E3A1B3807FF746F6C6F7765720024
:107ED200513F0138AC383838410038385B00413EF8
:107EE2003138763F38382000173A1B3806FF3F7387
:107EF2007461636B643F0138DF051C393138843F9C
:107F02003838FCFF683D1B3806FF626F756E64737C
:107F1200773F0138CA389839BF381B3802FF63727D
:107F2200853F013838380D00E23E38380A00E23E1B
:107F32001B3805FF7370616365008F3F0138453F51
:107F4200E23E1B3806FF7370616365739A3F013826
:107F52004F39343EAC383138B23F9F3F303A2A383D
:107F6200AB3FD4381B3803FF733E6400A33F013894
:107F7200AC381C391B3805FF3E626F647900B43F90
:107F82002B3A0800326C69746572616CBC3F01382F
:107F9200BF384B07383856074B07383856071B3857
:107FA20001FF3D00C23F01388E3915391B3801FFF0
:107FB2003100D13F4338010001FF3200D83F43383E
:0C7FC200020002FF2D31DD3F4338FFFFBD
:00000001FF
