:020000020000FC
:0200040018D111
:0200080016D10F
:02000C0014D10D
:0200100012D10B
:0200140010D109
:020018000ED107
:02001C000CD105
:020020000AD103
:0200240008D101
:0200280006D1FF
:02002C0004D1FD
:0200300002D1FB
:0200340000D1F9
:02003800FED0F8
:02003C00FCD0F6
:02004000FAD0F4
:02004400F8D0F2
:02004800F6D0F0
:02004C00F4D0EE
:02005000F2D0EC
:02005400F0D0EA
:02005800EED0E8
:02005C00ECD0E6
:02006000EAD0E4
:02006400E8D0E2
:02006800E6D0E0
:10006C00E4D00010000800E01C00090041546D654C
:10007C00676136343400AF93AFB7AF93BF93EF9350
:10008C00FF93B091C600A0911201E0E0F1E0EA0FFD
:10009C00F31DB083A395AF70A0931201FF91EF9164
:0A00AC00BF91AF91AFBFAF9118955F
:0200500018C0D6
:1000B60001704F713870120188704F7138701401D9
:1000C60088701B7006FF72782D69737200000170CC
:1000D600840031706B00387014019370AC702A7212
:1000E60038700F000E723870140188703870000175
:1000F600987193701B7007FF72783F2D69737200B9
:10010600650001703C7A38701401937038701201E2
:1001160093700E711B7007FF74782D706F6C6C00F6
:100126007E000170A200317095003870C60088709C
:100136001B7008FF74783F2D706F6C6C8E00017019
:100146003C7A3870C0009370387020000E721B70B5
:1001560004FF756272729C006A708A00A77BB17B8D
:1001660006FF2B7573617274AB00017038709800CE
:100176003870C1008870387006003870C200887008
:10018600AF00AC70E8723870C50088703870C40073
:1001960088705B001B7008FF31772E72657365747B
:1001A600B300D5009A938A939927249A2C98E0E86D
:1001B600F7E03197F1F71FB7F8942C9A2498E0E00E
:1001C600F1E03197F1F783B184FF9FEF1FBF2498C9
:1001D6002C98E0E8F6E03197F1F7892F0C9405703A
:1001E60007FF31772E736C6F7400CE00FA00249AE5
:1001F6002C981FB7F894E8E1F0E03197F1F788946E
:10020600879510F424982C9AE4E2F0E03197F1F700
:1002160003B104FD8068ECECF0E03197F1F7249827
:100226002C9AE8E0F0E03197F1F71FBF0C940570C7
:040000000C94457A9D
:100236000A920FB60A920F900F900A940092160136
:1002460009900FBE09906894089502FF6D2BF30084
:100256000170567D05741B7003FF75642A00280122
:100266000170AC70FA70DB71D470BF70F170DB7125
:10027600DC7098711B7004FF756D61782F01017039
:100286006575577131704801BF70D4701B7004FFDB
:10029600756D696E3E01017065756271317054014C
:1002A600BF70D4701B700170387000800E721571AB
:1002B60031706001387001001B7046711B700AFFB7
:1002C6006E616D653E666C6167734A010170BB7352
:1002D600387000FF0E721B700EFF6E616D653E6911
:1002E6006E7465727072657462010170717C1B7048
:1002F6000CFF6E616D653E636F6D70696C656F01B5
:100306000170AC70717CBF706901560131708E014D
:100316003870C8011B70387025701B7008FF286381
:100326007265617465297B010170B779F202AC7060
:10033600FA70D702F170387019017C7038701701A5
:100346007C701B7001005C00910101709E79EB705E
:100356007E757C701B7001002800A5010170387045
:10036600290089796E751B7007FF636F6D70696C64
:100376006500AE010170F170AC709E7BFA70BB73C4
:10038600C8011B7001FF2C00B7010170B4756273C0
:10039600B4752A728C7BB5751B7003005B275D00F4
:1003A600C50101701478DE011B7007006C69746565
:1003B60072616C00D0010170BD013870C8011B70FC
:1003C6000800736C69746572616CD8010170BD01B7
:1003D600777785771B700170B475BD01FFFF1B70C1
:1003E6000170497BB475BF7062731B700170B47580
:1003F6001B700170497BC8011B700500616865614F
:100406006400E3010170BD012A70EE011B70020059
:10041600696600020170BD013170EE011B700400B7
:10042600656C73650A020170BD012A70EE01BF702A
:10043600F3011B7004007468656E12020170F3010B
:100446001B700500626567696E001D020170F90187
:100456001B7005007768696C6500240201700D0247
:10046600BF701B7006007265706561742C020170A6
:100476004E0221021B700500756E74696C00350210
:10048600017038703170C801FC011B70050061678E
:1004960061696E003E020170BD012A70FC011B708D
:1004A6000200646F49020170BD018A72F9014F7141
:1004B600B1021B7004006C6F6F7053020170BD01B6
:1004C600B87298021B7005002B6C6F6F70005D028E
:1004D6000170BD01A97298021B7005006C656176FA
:1004E600650066020170BD01C3720502B1021B7090
:1004F60003003F646F0070020170BD0187020D02A8
:100506005602BF70B1021B7001706575727DAC70CA
:10051600FA7031708F026E75F170F8711B7007FFFB
:10052600656E646C6F6F70007B020170FC01A50242
:10053600B4703170A10221022A709A021B7002FF68
:100546006C3E92020170C502747074703870FEFFC2
:10055600C50254721B7002FF3E6CA2020170387015
:100566000200C5025472C50274707C701B7003FFD2
:100576006C703000AE026A706A00A77BB17B02FF26
:100586006C70BA0243701B0106FF63726561746585
:10059600C20201709701FB02BD014D701B7006FF80
:1005A600686561646572C7020170B475FA70FA70A5
:1005B600AC7023713170E902AC70387000FF1772AD
:1005C6008977F1704E73C801F1701B703870F0FFB7
:1005D600437807FF776C73636F706500D202067C01
:1005E6006800A77BB17B06FF72657665616CEC02DD
:1005F6000170387017017470B47031700A03387066
:10060600190174702A734F71387017017C701B7052
:1006160006FF6C6174657374F60243701D01050074
:10062600646F65733E000B030170BD012A03BD01B3
:100636000E94BD011F031B709A938A93CB010196FA
:100646007F916F91BF93AF93DB010C94057001709E
:10065600F1703870190174704E7378042A726273DF
:100666001B7001FF3A001203017097014203D47018
:100676001B7007FF3A6E6F6E616D65003403017083
:10068600B475AC7010037C70BD01017057031B700C
:1006960001003B003C030170BD011B706003FB02BF
:1006A6001B7001FF5D004B030170387001004B7534
:1006B6007C701B7001005B00540301704F714B7519
:1006C6007C701B7008FF7661726961626C655D0300
:1006D6000170C575780338700200CE751B7008FF6F
:1006E600636F6E7374616E74650301709701FB022C
:1006F600BD014370C8011B7004FF757365727203F8
:1007060001709701FB02BD015370C8011B70070001
:1007160072656375727365007F03017010037470F0
:10072600C8011B7009FF696D6D65646961746500B8
:100736008A03017039044E73AC70BB733870FF7F47
:100746000E72BF7062731B7006005B636861725D38
:1007560095030170BD013870E678C8011B7006006C
:1007660061626F727422A7030170C174BD01CA036E
:100776001B7005FF61626F727400B20301703870FE
:10078600FFFF437806FF3F61626F7274BC0301701E
:10079600DC703170D003AA77C1036E751B7009FF38
:1007A6006765742D737461636B00C5030170AC706B
:1007B6005E75BF704E73AC70FA704F71BF70870272
:1007C6003170F0038A729B7230725875CA709871D4
:1007D6004E73BF704671A972E6036E75F1701B7099
:1007E60009FF7365742D737461636B00D203017026
:1007F60065752A73BF704F718702317008048A725B
:100806005E7576752A73B8720304D4701B7009FF7F
:100816006D61702D737461636B00F3030170AC70CE
:100826005E75BF704E7358754D7D870231702E040C
:100836008A729B724E73BF70FA7003712570B47022
:1008460031702904F170D470C3721B70F170387066
:100856000200A9721C04D4704F711B700BFF6765F0
:10086600742D63757272656E74000A0401703870B7
:1008760048004E731B7009FF6765742D6F726465BF
:1008860072003104017038704C00D9031B7007FFE9
:10089600636F6D70617265003E045104BF93AF9340
:1008A6008C0189919991DC01899199919C01899199
:1008B6009991FC01ED90F190EF1451F40A9519F01D
:1008C6002A95C1F701C02A95022B11F4882702C088
:1008D6008FEF00C0982FAF91BF910C94057007FF62
:1008E6006E66613E6C6661004A040170657C2A7220
:1008F600FF7198711B7002FF2E73720401708C7A5F
:100906004074EC778C7A4F718702317090048A724A
:100916009B72AF744074B8728B041B7006FF632120
:10092600407370697E04970403D099270C94057070
:100936008EBD0DB5087F0DBD0DB507FFFACF8EB57F
:10094600089505FF6E40737069009104AA048C0136
:1009560089919991FC01C8012EBC2DB527FFFDCFC9
:100966002EB521930197C1F7899199910C94057041
:1009760005FF6E2173706900A404C1048C0189917E
:100986009991FC01C80121912EBD2DB527FFFDCF00
:100996002EB50197C1F7899199910C9405700BFFBB
:1009A6006170706C7475726E6B657900BB04017052
:1009B600B8007174567BEC7740753870E803BD71EA
:1009C600BF70D470E4752C77777704006B487A2073
:1009D600AA771B700BFF7365742D63757272656E53
:1009E6007400D2040170387048002A731B7008FF27
:1009F600776F72646C697374ED040170BD754F7125
:100A0600CA702A73AC705E758C7BBE751B7004FF52
:100A16006F6E6C79FA04017038704A003870010004
:100A260029051B700EFF666F7274682D776F7264EE
:100A36006C6973740A056A704600A77BB17B09FF6F
:100A46007365742D6F7264657200150501703870D8
:100A56004C00FA031B700FFF7365742D7265636F8C
:100A6600676E697A657273002205017038705E00E0
:100A7600FA031B700FFF6765742D7265636F676EEF
:100A8600697A657273002E05017038705E00D903AD
:100A96001B7004FF636F64653D0501709701FB02DF
:100AA600B4759E7BC8011B7008FF656E642D636F6D
:100AB60064654C050170BD010C94BD0105701B7089
:100AC60008FF286D61726B65722957056A706C00A4
:100AD600A77BB17B0800706F7374706F6E656305DA
:100AE6000170B779B57A9E7B9E7BBB7325701B70B0
:100AF60003FF327240006D0580059A938A93EF9149
:100B0600FF918F919F919F938F93FF93EF939A936A
:080B16008A93CF010C940570D5
:10E00200BF93AF93DB0111966EF0FD01EE0FFF1F80
:10E01200659175911196FB01EE0FFF1F0591159108
:10E02200F8010994E8946CE974E7F5CF04FF657888
:10E0320069747B051C70AF91BF91E6CF07FF6578CD
:10E0420065637574650017702670BC01899199919A
:10E05200E2CF2B70FD01EE0FFF1FA591B591D4CF3A
:10E062003270982B89919991A9F31196CDCF39707D
:10E072009A938A93FD01EE0FFF1F85919591119658
:10E08200C3CF43709A938A93FB013196EE0FFF1F21
:10E0920085919591B9CF4D709A938A93CB01019650
:10E0A200B3CF53709A938A93FB013196EE0FFF1F01
:10E0B20085919591840D951DA7CF07FF2876616CF8
:10E0C200756529001F7001709701FB02BD016A701E
:10E0D2001B700E941F03AC709E7BBB7325701B706C
:10E0E20001FF40005E707570FC01819191918CCFAF
:10E0F20001FF210071707D70FC01899199919183DA
:10E1020080838991999180CF02FF63217970897010
:10E11200FC018991999180838991999175CF02FF30
:10E12200634085709470FC01992780816DCF02FF56
:10E13200407590700170F172987174701B7002FFDB
:10E14200217598700170F17298717C701B7003FFD9
:10E1520064757000A070AD709A938A9355CF04FFD6
:10E162003F647570A870B570082F092B11F09A934F
:10E172008A934ACF04FF73776170B070C0708C01CC
:10E18200899199911A930A933FCF04FF6F76657232
:10E19200BB70CB709A938A938A819B8135CF04FF9F
:10E1A20064726F70C670D570899199912DCF03FFFB
:10E1B200726F7400D070DD708C0129913991899150
:10E1C20099913A932A931A930A931ECF03FF6E6989
:10E1D2007000D870EC70229617CF02FF723EE77083
:10E1E200F2709A938A938F919F910ECF02FF3E72A3
:10E1F200EE70FB709F938F938991999105CF02FFE7
:10E202007240F77004719A938A938F919F919F93B2
:10E212008F93FACE02FF3C3E00710170727D157140
:10E222001B7002FF303D0B711671982BD1F530C077
:10E2320002FF303C12711D7197FD2AC032C002FFED
:10E24200303E19712471821593055CF151F120C0A1
:10E2520003FF64303E0020712E718215930589916F
:10E26200999182059305ECF0E1F012C003FF64304E
:10E272003C0029713C71229697FD0C9449710C94D3
:10E28200527104FF74727565377147719A938A935C
:10E292008FEF9FEFB9CE01FF3000427150719A9318
:10E2A2008A93C101B1CE02FF753C4C71587129911C
:10E2B200399182179307A8F3A1F3EACF02FF753EC3
:10E2C20054710170BF7057711B7001FF3C005F7188
:10E2D2006A7129913991281739071CF7D9CF01FFA3
:10E2E2003E00667174712991399128173907CCF271
:10E2F200C1F2CECF04FF6C6F673270718071FC0186
:10E30200992780E18A9522F0EE0FFF1FD8F77CCE85
:10E312009A957ACE01FF2D007B718F710991199127
:10E32200081B190BC80170CE01FF2B008B7199716C
:10E3320009911991800F911F67CE02FF6D2A957185
:10E34200A2718C01899199919C0131027001209FE7
:10E35200C0013003F308900DE11CF31C1203F30813
:10E36200900DE11CF31C9A938A93C7014DCE06FFD0
:10E37200756D2F6D6F649E71BE717C01299139910B
:10E382000991199140E15527000F111F221F331FD8
:10E39200551F2E153F05520518F003952E193F09FA
:10E3A2004A9589F73A932A93C8012ECE03FF756DD9
:10E3B2002A00B871DC718C0189919991809FF001DA
:10E3C20022273327909FF00D211D331D819FF00DD1
:10E3D200211D331D919F200D311DCF019A938A93E8
:10E3E200C90112CE06FF696E76657274D771F97132
:10E3F2008095909509CE02FF322FF37100729595A8
:10E40200879502CE02FF322AFC710772880F991F8C
:10E41200FBCD03FF616E640003720F7209911991C3
:10E4220080239123F1CD02FF6F720A721872099153
:10E432001991802B912BE8CD03FF786F7200147233
:10E4420022720991199180279127DECD02FF312B8B
:10E452001D722B720196D8CD02FF312D27723172B7
:10E462000197D2CD06FF6C73686966742D7239729A
:10E47200FC018991999131971AF0880F991FFBCF6E
:10E48200C3CD06FF72736869667433724872FC0109
:10E492008991999131971AF096958795FBCFB4CDD2
:10E4A20002FF2B2142725572FC01899199912081C0
:10E4B2003181820F931F8083918389919991A4CD99
:10E4C20003FF72704000517266729A938A938DB7FD
:10E4D2009EB79ACD03FF72702100617270722FB7DE
:10E4E200F8948DBF9EBF2FBF899199918DCD03FF67
:10E4F200737040006B727D729A938A93CE0184CDC1
:10E5020003FF7370210078728672EC0189919991F0
:10E512007BCD8B7229913991E0E83E0F821B930BE0
:10E522003F932F939F938F93899199916DCD01FF83
:10E53200690081729C729A938A938F919F91EF9155
:10E54200FF91FF93EF939F938F938E0F9F1F5CCD4D
:10E55200AA72EF91FF91E80FF91F899199911BF02F
:10E56200FF93EF9377CD0F911F9111964DCDB97215
:10E57200EF91FF913196BBF3F3CF06FF756E6C6F8F
:10E582006F709872C4721F910F911F910F913CCDC1
:10E5920006FF636D6F76653EBE72CF72BF93AF9317
:10E5A200E991F991A991B991092F082B41F0E80F4E
:10E5B200F91FA80FB91F1E9112930197E1F7AF91AE
:10E5C200BF918991999120CD02FF3E3CC972E972B7
:10E5D200092F982F802F18CD03FF75704000E57228
:10E5E200F2729A938A93C2010FCD03FF75702100D4
:10E5F200ED72FB722C018991999106CD03FF316D69
:10E602007300F6720473E0EAFFE03197F1F7FCCC95
:10E6120003FF323E7200FF720E73FC0189919991E1
:10E622009F938F93FF93EF9389919991EDCC03FF81
:10E6320032723E0009731D739A938A93EF91FF9190
:10E642008F919F919A938A93CF01DECC02FF21652D
:10E6520018732B73FC01899199912FB7F89428D0E4
:10E6620000B5081709F00BD0319622D000B5091772
:10E6720011F0892F04D02FBF89919991C5CCF999B6
:10E68200FECF07B700FDFDCFF2BDE1BD80BDFA9A16
:10E69200F99A089502FF406527734F732FB7F894D4
:10E6A200FC0106D080B5319603D090B52FBFACCC1B
:10E6B200F999FECFF2BDE1BDF89A089502FF2169F2
:10E6C2004B73067C4200A77BB17B09FF2821692D91
:10E6D2006E72777729005F736E731FB71F93F8947A
:10E6E2009C0189919991AF93BF93CF93DF9309D006
:10E6F200DF91CF91BF91AF91899199911F911FBFE6
:10E7020083CC11D0E094F0948E219F21982B21F09C
:10E71200B394F90102E020D0F90104E01DD0F9011F
:10E7220000E11AD00895F901E078FF7FEF01A0E837
:10E73200B0E0FE01EE0FFF1F45915591FE01E21779
:10E74200F30711F00A0102C07A010C01002704D07C
:10E752002196119771F70895F999FECF17B710FD19
:10E76200FDCFEE0FFF1F016007BFE895089502FF7E
:10E7720040696673BC73FC01EE0FFF1F8591959192
:10E7820043CC03FF6E3E7200B873C773FC01082FBF
:10E79200899199919F938F930A95D1F7EF93FF9364
:10E7A2008991999131CC03FF6E723E00C273D97385
:10E7B2009A938A93FF91EF910E2F8F919F919A9343
:10E7C2008A930A95D1F7CF011FCC03FF64322A0046
:10E7D200D473EB7309911991000F111F881F991FB0
:10E7E2001A930A9311CC03FF64322F00E673F97374
:10E7F2000991199195958795179507951A930A93FB
:10E8020003CC02FF642BF473067429913991E990C9
:10E81200F99049915991240F351F8E1D9F1D3A93EE
:10E822002A93F2CB02FF642D027417742991399155
:10E83200E990F99049915991421B530BE80AF90A60
:10E842005A934A93C701E0CB07FF64696E766572FB
:10E85200740013742C740991199180959095009508
:10E8620010951A930A93D0CB02FF643D2574017070
:10E872001674177215711B7002FF752E35740170B4
:10E882004F7134771B7003FF752E72003D74017057
:10E892004F71BF703D771B700DFF73686F772D77D7
:10E8A2006F72646C697374004474017038705C74C4
:10E8B200BF704A7C1B700170657CAA77EC77467149
:10E8C2001B7005FF776F726473004D7401703870AE
:10E8D2004E004E7356741B7004FF2B696E74627483
:10E8E2007274789491CB04FF2D696E746D7479748F
:10E8F200F8948ACB04FF696E7421747401703870C5
:10E90200000098712A731B7004FF696E74407B7457
:10E9120001703870000098714E731B7008FF696EA9
:10E92200742D747261708574967480931601899146
:10E932009991689469CB01703870160193703870A0
:10E94200000098714E732570A7741B70A87401D0D3
:10E952005BCB189504FF7069636B8F7401702A7228
:10E9620058757C72987174701B7002002E22AB7401
:10E972000170C174BD01AA771B7002007322B674C4
:10E9820001703870220089794B7574703170CA74C5
:10E99200E9011B7004FF66696C6CBE740170DC7067
:10E9A200DC70B4703170DC744D7D8A72AC709B7215
:10E9B2008870B872D774D4701B700BFF656E76695D
:10E9C200726F6E6D656E7400CB744370440009FF04
:10E9D200776F72646C697374730000000170387031
:10E9E20008001B7004FF2F706164E87401707C7270
:10E9F2008A758E711B7005FF2F686F6C6400F3744B
:10EA020001708A75C5758E711B700AFF666F72740C
:10EA1200682D6E616D65FC74017077770700616D1A
:10EA2200666F727468001B7007FF76657273696F98
:10EA32006E000675017038703B001B7003FF637037
:10EA420075001575017038703B00D6771B7008FF92
:10EA52006D63752D696E666F1F75017038703700B2
:10EA62001B7005FF2F757365720028750170387071
:10EA720026001B7005FF665F63707500DE7401700F
:10EA8200387000243870F4001B7005FF73746174D1
:10EA920065003B7543701F0104FF62617365467533
:10EAA20053700C0005FF63656C6C73004D75077243
:10EAB20005FF63656C6C2B0053755F750296A4CAE3
:10EAC20004FF3264757059750170CA70CA701B7088
:10EAD20005FF3264726F700061750170D470D4707A
:10EAE2001B7004FF7475636B69750170BF70CA7027
:10EAF2001B7003FF3E696E0072755370180004FFAD
:10EB0200237469627A754370210103FF70616400A6
:10EB120080750170C5753870640098711B7004FFB0
:10EB2200656D69748675067C0E00CF7BDB7B05FF05
:10EB3200656D69743F009075067C1000CF7BDB7BAE
:10EB420003FF6B6579009875067C1200CF7BDB7B37
:10EB520004FF6B65793FA175067C1400CF7BDB7BDC
:10EB620002FF6470A9756A703A00A77BB17B05FF4A
:10EB7200656865726500B1756A703E00A77BB17BFE
:10EB820004FF68657265B8756A703C00A77BB17B4B
:10EB920005FF616C6C6F7400C1750170C575987169
:10EBA2008C7BC6751B7003FF62696E00C9750170AC
:10EBB2003870020051757C701B7007FF64656369D1
:10EBC2006D616C00D475017038700A0051757C70EB
:10EBD2001B7003FF68657800DE75017038701000E5
:10EBE20051757C701B7002FF626CEA7543702000E5
:10EBF20007FF7475726E6B657900F475067C4000D0
:10EC0200A77BB17B04FF2F6D6F64F97508769C01B9
:10EC120009911991412F432717FF04C010950095C0
:10EC22000F5F1F4F37FF04C0309520952F5F3F4F76
:10EC3200EE24FF1851E1001F111F5A9539F447FFC6
:10EC420004C0109500950F5F1F4F0BC0EE1CFF1CF8
:10EC5200E21AF30A20F4E20EF31E8894ECCF089431
:10EC6200EACFFA92EA92C801CFC905FF752F6D6FFC
:10EC7200640003760170FA704F71F170BD711B7000
:10EC820006FF6E656761746536760170F8712A72E7
:10EC92001B7001FF2F00417601700776EB701B702D
:10ECA20003FF6D6F64004A7601700776D4701B70A3
:10ECB20003FF6162730051765E7699231AF48095A0
:10ECC20090950196A1C903FF6D696E005976017096
:10ECD2006575737131706E76BF70D4701B7003FFEF
:10ECE2006D617800647601706575697131707A764C
:10ECF200BF70D4701B7006FF77697468696E707696
:10ED02000170CA708E71FA708E71F17057711B703A
:10ED120007FF746F7570706572007C760170AC705D
:10ED22003870610038707B00817631709B76387064
:10ED3200DF000E721B7007FF746F6C6F77657200D5
:10ED420089760170AC703870410038705B00817652
:10ED52003170AE763870200017721B7003FF686C3A
:10ED620064009C764370230104FF686F6C64AF7685
:10ED72000170B376AC7074703072AC70FA70BF70A0
:10ED82007C70F17088701B7002FF3C23B5760170B5
:10ED92008A75B3767C701B7001FF2300C576017003
:10EDA200517574704D77DC7038700900CA706971E2
:10EDB2003170DE76387007009871387030009871C3
:10EDC200B9761B7002FF2373CD760170D07665751C
:10EDD200177215713170E7761B7002FF233EE376DE
:10EDE20001706E75B37674708A75CA708E711B70FD
:10EDF20004FF7369676EEE7601701C7131700477DF
:10EE020038702D00B9761B7003FF642E7200F976FC
:10EE12000170FA707675C77CC876E676DC70FD768E
:10EE2200F176F170CA708E71F57705781B7002FF6A
:10EE32002E7205770170FA70567DF17009771B709A
:10EE420002FF642E187701704F710977EC771B70FF
:10EE520001FF2E0021770170567D24771B7003FF7E
:10EE620075642E00297701704F713D77EC771B7026
:10EE720004FF75642E7230770170FA70C876E676F8
:10EE8200F176F170CA708E71F57705781B7006FF06
:10EE920075642F6D6F6439770170FA704F71037169
:10EEA200BD71F170BF70FA70BD71F1701B7006FF19
:10EEB20064696769743F487701708F76AC70387007
:10EEC20039007371387000010E729871AC7038702D
:10EED20040017371387007010E728E713870300004
:10EEE2008E71AC705175747057711B700170037123
:10EEF200D677F170CA702A72FF7198712A72FA700D
:10EF02001B7002FF732C58770170AC7089771B70ED
:10EF12000170C801AC70FF71767506728E71FA705D
:10EF22004F71870231709C778A72AC707470C8011D
:10EF32005E75B8729677F17023713170A377AC70F9
:10EF42009370C801D4701B7005FF697479706500F5
:10EF520082770170AC70FF71767506728E71FA70ED
:10EF62004F7187023170BE778A72AC70BB73AC701E
:10EF7200CB77C7772A72B872B677F1702371317086
:10EF8200C577AC70BB73CB77D4701B700170E8721D
:10EF9200CB771B7001703870FF000E7294751B7076
:10EFA20006FF69636F756E74A5770170AC702A7283
:10EFB200BF70BB731B7002FF6372D1770170387030
:10EFC2000D00947538700A0094751B7005FF7370FC
:10EFD20061636500DC770170F77594751B7006FF3D
:10EFE200737061636573E77701704F717476AC700B
:10EFF2003170FF77EC7730722A70F877D4701B701B
:10F0020004FF74797065F07701704D7D870231706D
:10F0120010788A729B7293709475B8720B781B7019
:10F0220001FF270001780170B779B57A1F7B727DE5
:10F0320031701D78D4701B703870F3FF437807FF6E
:10F0420068616E646C657200117853700A0005FF86
:10F05200636174636800207801707C72FA702678AC
:10F062007470FA70657226787C702570F17026785B
:10F072007C70F170D4704F711B7005FF7468726FF1
:10F08200770028780170AC70157131704A78D470AD
:10F092001B70267874706F72F17026787C70F17034
:10F0A200BF70FA708572D470F1701B7005FF6373C4
:10F0B2006B6970003E780170FA70AC7031706C78D8
:10F0C200CA7093700371727D31706C783870010070
:10F0D200A8792A705E78F170D4701B7005FF637393
:10F0E20063616E0057780170FA70CA70AC709370E9
:10F0F2000371727D157131708978BF703072BF7083
:10F10200CA701C711571317089782A722A707778E9
:10F11200EB70CA708E71F170D4701B7006FF616360
:10F12200636570746F780170CA7098713072CA70BA
:10F13200A575AC70CE7815713170C078AC7038702E
:10F142000800727D3170B778D470DC7065757371A8
:10F15200FA70DC70DC70F1703170B578C67830729C
:10F16200FA70CA70F17042012A70BE78AC70947560
:10F17200CA7088702A72CA704E012A709978D47047
:10F18200EB70BF708E71DF771B70017038700800F2
:10F19200AC709475EC7794751B700170AC7038701C
:10F1A2000D00727DBF7038700A00727D17721B707D
:10F1B20006FF726566696C6C8F78067C1A00CF7BDD
:10F1C200DB7B04FF63686172D9780170B779D47010
:10F1D20093701B7006FF6E756D626572E278017046
:10F1E20051757470FA703779FA704B793779F1701A
:10F1F2001772FA70AC701571317007796E75F17013
:10F20200D470F17051757C704F711B700D734F711A
:10F212004F711C736A79B47031702B7938700100A8
:10F22200727D31702279937038702E00727D317048
:10F232002379F17031701E79D47C387002002A7003
:10F242003279D4706E75F170D470F17051757C7032
:10F252004F711B706E75F17031703079467638706F
:10F262000100F17051757C7046711B700170CA709B
:10F27200937038702D00727DAC70FA7031704479E1
:10F2820038700100A879F1701B704D700A001000EF
:10F2920002000A000170CA709370387023008E71E8
:10F2A200AC704F71387004008176317062794679A2
:10F2B2009871BB7351757C7038700100A8792A70FF
:10F2C2006379D4701B7007FF3E6E756D62657200C4
:10F2D200EB780170AC7031708379CA7093705D778E
:10F2E200157131707679D4701B70FA70F97C517592
:10F2F20074703301F1702B01F97C38700100A87928
:10F302002A706B791B7005FF7061727365006479F6
:10F312000170FA709E797E757470A879F1707478B4
:10F32200AC702A727E75547238700100A8791B7015
:10F3320006FF736F757263658479067C1600CF7B56
:10F34200DB7B07FF2F737472696E67009979017016
:10F35200DC70CA709871DC70DC708E711B700AFFF1
:10F3620070617273652D6E616D65A2790170F775BA
:10F37200BB791B700170FA709E797E757470A879E2
:10F3820003715C78F1707478657598719E79D470A8
:10F392008E717E757C701B7009FF66696E642D6EBE
:10F3A200616D6500B07901703870E07938704C0099
:10F3B200110415713170DF796E754F711B70017018
:10F3C200FA706575F170187CAC703170ED79FA7075
:10F3D200EB70EB70F17046711B7001707777030070
:10F3E200206F6B00AA771B700170777702003E20B6
:10F3F200DF77AA771B70017077770400203F3F20E8
:10F40200AA7751757470FA70E4752C777E757470F2
:10F412002C77F17051757C701B7004FF71756974E3
:10F42200CD790170BE02C5027C70747A8572817AD0
:10F432006F7260034B75747015713170217AF579B2
:10F44200DE7831701B7A38709A7A2D78B470317008
:10F45200337AAC703870FEFF69713170317AFC79A1
:10F462002A70137AEE792A701B7A1B7005FF70617D
:10F47200757365000E7A067C2501BB7BC57B04FF94
:10F48200636F6C64377A457AA4B62224332424BE8F
:10F49200E0E0F1E02192E030E9F7F131D9F7E7E27B
:10F4A200F1E02F010FEF0DBF048310E11EBF1583A2
:10F4B200CFEAC683D0E1D783A6E6BAE70C940570FB
:10F4C20004FF7761726D407A01703F7D3870717B05
:10F4D20038703C7AE67B6003FF75127A1B7003FF7B
:10F4E20073703000617A6A700600CF7BDB7B02FFAB
:10F4F2007370707A5370080003FF72703000787A6C
:10F502000170857A74701B705370040005FF646586
:10F51200707468007D7A0170747A7C728E71FF71EA
:10F5220030721B7009FF696E7465727072657400C7
:10F53200877A0170B779AC703170AA7AB57A4B7557
:10F5420074703170A57A9E7BBB732570497B2A70DB
:10F552009B7A6E751B700DFF646F2D7265636F670A
:10F562006E697A657200937A01703870C17A387068
:10F572005E00110415713170C07A6E753C7B1B7090
:10F582000170DC70DC7065750D73DC7025701C73A6
:10F59200DC70AC703C7B727D3170D27AD4704F716A
:10F5A2001B70EB70EB7046711B7005FF723A6E7543
:10F5B2006D00AC7A4D70717BDE01E87A06FF723A1B
:10F5C200646E756DD67A4D70717B667DEE7A0170D0
:10F5D2002C773870D0FF43781B7001702477387015
:10F5E200D0FF43781B7007FF7265633A6E756D003A
:10F5F200DF7A0170F0783170077B38700100727D1C
:10F602003170057BDB7A1B70E47A1B703C7B1B70CC
:10F6120008FF7265633A776F7264F47A0170D47985
:10F62200AC7015713170187BD4703C7B1B701F7BE2
:10F632001B7006FF723A776F7264097B4D70237BF1
:10F64200277B2F7B0170D47025701B7001701C7199
:10F6520031702D7BC8011B7025701B7001701C71ED
:10F662003170357BBD01BD01C8011B7006FF723AC6
:10F672006661696C1A7B4D70407B407B407B0170F8
:10F682003870F3FF437806FF3F737461636B377B17
:10F6920001708C7A1C713170517B3870FCFF437899
:10F6A2001B7003FF76657200447B01700D75AA77AB
:10F6B200EC77517574701B75E475567DC876D076FB
:10F6C20038702E00B976E676F176057851757C7041
:10F6D200EC772375AA771B7004FF6E6F6F70527BF5
:10F6E200727B0C94057006FF756E757365646D7B95
:10F6F20001707C72C5758E711B700200746F747B11
:10F70200017014785F7D4B7574703170927BBD010E
:10F712008C7BC8011B700170F170AC709E7BFA701B
:10F72200BB73AC709E7B9E7BBB7325701B7007FF07
:10F73200692D63656C6C2B007E7B01702A721B70D5
:10F7420007FF4564656665724000987B0170BB7374
:10F752004E731B7007FF4564656665722100A17BCD
:10F762000170BB732A731B7007FF52646566657272
:10F772004000AB7B0170BB7374701B7007FF526457
:10F78200656665722100B57B0170BB737C701B706E
:10F7920007FF5564656665724000BF7B0170BB73ED
:10F7A200F172987174701B7007FF5564656665721B
:10F7B2002100C97B0170BB73F17298717C701B7060
:10F7C20006FF646566657221D57B01705F7DAC7052
:10F7D2009E7B9E7BBB7325701B7006FF646566650E
:10F7E2007240E17B01705F7DAC709E7BBB732570C4
:10F7F2001B7007FF2864656665722900EE7B017045
:10F802009701FB02BD01067C1B700E941F03AC70B6
:10F812009E7BBB73257025701B700FFF7365617231
:10F8220063682D776F72646C69737400FA7B017080
:10F83200FA704F7138702D7CF1704A7CAC70157182
:10F842003170277C6E75D4704F711B70AC70717CF7
:10F85200BF70690156011B700170FA70D470657532
:10F862000371657C7B7C31703B7CF170D4704F718D
:10F8720046711B706E75F1704F711B7011FF7472BF
:10F882006176657273652D776F72646C697374004B
:10F892000E7C01704E73AC7031705B7C65750D73BC
:10F8A200BF7025701C73DC7031705B7C7804BB7395
:10F8B2002A704C7C6E751B700BFF6E616D653E731A
:10F8C2007472696E67003F7C0170D6773870FF00F2
:10F8D2000E721B7007FF6E66613E636661005D7C9F
:10F8E200017078042A721B7008FF69636F6D706182
:10F8F20072656B7C0170FA70CA70F1700E713170B2
:10F90200867C6E75D47046711B70BF704F71870212
:10F912003170A97C8A72CA707470CA70BB73AC7081
:10F9220038700001577131709A7CBF703870FF00D7
:10F932000E720E713170A17C6E754671C3721B70AE
:10F942002A72BF705E75BF7038700200A9728C7C1B
:10F952006E754F711B7001FF2A00757C0170A171D9
:10F96200D4701B7001FF6A00AC7C01706572387044
:10F97200070098717470657238700900987174701C
:10F9820098711B7004FF64616273B37C0170AC7088
:10F992001C713170CD7CD47C1B7007FF646E65676F
:10F9A20061746500C37C01702B74387001004F7163
:10F9B20005741B7005FF636D6F766500CE7CE17C7C
:10F9C200BF93AF93E991F991A991B991092F082BAE
:10F9D20021F01D9111930197E1F7AF91BF918991A8
:10F9E20099910C94057005FF327377617000DB7C8E
:10F9F2000170DC70FA70DC70F1701B7003FF7469C7
:10FA02006200F47C43704D010AFF726566696C6C9A
:10FA12002D746962FF7C0170037D38705A009478FE
:10FA220084757C704F717E757C7046711B700AFF05
:10FA3200736F757263652D746962057D0170037D54
:10FA4200847574701B7006FF65653E72616D187D6A
:10FA520001704F718A72CA704E73CA707C705E7583
:10FA6200BF705E75BF70B8722C7D6E751B7009FF1A
:10FA7200696E69742D7573657200247D017038702A
:10FA82006E00F17238701C00FF71297D1B7006FF39
:10FA9200626F756E6473387D0170CA709871BF7041
:10FAA2001B7003FF733E6400487D0170AC701C71D3
:10FAB2001B7005FF3E626F647900527D2B72080055
:10FAC200326C69746572616C5A7D0170BF70BD01E0
:10FAD2003870C801BD013870C8011B7001FF3D00BC
:10FAE200607D01708E7115711B7001FF31006F7D99
:10FAF2004370010001FF3200767D4370020002FF75
:08FB02002D317B7D4370FFFFF4
:00000001FF
