:020000020000FC
:0200040021D108
:020008001FD106
:02000C001DD104
:020010001BD102
:0200140019D100
:0200180017D1FE
:02001C0015D1FC
:0200200013D1FA
:0200240011D1F8
:020028000FD1F6
:02002C000DD1F4
:020030000BD1F2
:0200340009D1F0
:0200380007D1EE
:02003C0005D1EC
:0200400003D1EA
:0200440001D1E8
:02004800FFD0E7
:02004C00FDD0E5
:02005000FBD0E3
:02005400F9D0E1
:02005800F7D0DF
:02005C00F5D0DD
:02006000F3D0DB
:02006400F1D0D9
:02006800EFD0D7
:02006C00EDD0D5
:02007000EBD0D3
:02007400E9D0D1
:02007800E7D0CF
:02007C00E5D0CD
:02008000E3D0CB
:02008400E1D0C9
:02008800DFD0C7
:02008C00DDD0C5
:02009000DBD0C3
:02009400D9D0C1
:02009800D7D0BF
:02009C00D5D0BD
:0200A000D3D0BB
:0200A400D1D0B9
:0200A800CFD0B7
:0200AC00CDD0B5
:0200B000CBD0B3
:0200B400C9D0B1
:0200B800C7D0AF
:0200BC00C5D0AD
:0200C000C3D0AB
:0200C400C1D0A9
:0200C800BFD0A7
:0200CC00BDD0A5
:0200D000BBD0A3
:0200D400B9D0A1
:0200D800B7D09F
:0200DC00B5D09D
:1000E000B3D000200010FFFF39000A0041546D65B5
:1000F000676132353631AF93AFB7AF93BF93EF93AC
:10010000FF93B091CE00A0911202E0E0F2E0EA0F7E
:10011000F31DB083A395AF70A0931202FF91EF91EE
:0A012000BF91AF91AFBFAF911895EA
:0200900032C07C
:10012A000801E505C60412021E05E505C604140207
:10013A001E05A60406FF72782D6973720000080175
:10014A00BE00BF04A500C604140229054205C00664
:10015A00C6040F00A406C60414021E05C604000243
:10016A002E062905A60407FF72783F2D69737200CF
:10017A009F000801A00EC60414022905C604120233
:10018A002905A405A60407FF74782D706F6C6C000E
:10019A00B8000801DC00BF04CF00C604CE001E056B
:1001AA00A60408FF74783F2D706F6C6CC8000801B4
:1001BA00A00EC604C8002905C6042000A406A60489
:1001CA0004FF75627272D6000105C4000B10151087
:1001DA0006FF2B7573617274E5000801C604980066
:1001EA00C604C9001E05C6040600C604CA001E05C8
:1001FA00E90042057E07C604CD001E05C604CC00F0
:06020A001E059500A6048C
:040000000C94A90EA5
:10021000BF93AF93DB0111969EF0FD015527EE0FC2
:10022000FF1F551F5BBF679177911196FB01552703
:10023000EE0FFF1F551F5BBF07911791F80109943F
:10024000E8946CEF78E0F2CF0A920FB60A920F9022
:100250000F900F900A940092160209900FBE099019
:100260006894089502FF6D2BED000801481265089F
:10027000A60403FF75642A003201080142059005B7
:1002800071066A0555058705710672052E06A604D6
:1002900004FF756D617839010801C709ED05BF04D8
:1002A000520155056A05A60404FF756D696E480183
:1002B0000801C709F805BF045E0155056A05A604D3
:1002C0000801C6040080A406AB05BF046A01C60489
:1002D0000100A604DC05A6040AFF6E616D653E669A
:1002E0006C616773540108011808C60400FFA40676
:1002F000A6040EFF6E616D653E696E746572707264
:1003000065746C010801D510A6040CFF6E616D6563
:100310003E636F6D70696C65790108014205D51007
:10032000550573016001BF049801C604D201A604FB
:10033000C604B004A60408FF2863726561746529C9
:10034000850108011B0EFC0242059005E1028705AC
:10035000C60419021205C60417021205A6040100FC
:100360005C009B010801020E8105E0091205A6044C
:1003700001002800AF010801C6042900ED0DD009D5
:10038000A60407FF636F6D70696C6500B801080112
:1003900087054205021090051808D201A60401FF46
:1003A0002C00C1010801160AF907160AC006F00F51
:1003B000170AA60403005B275D00CF010801780C33
:1003C000E801A60407006C69746572616C00DA01CB
:1003D0000801C701C604D201A6040800736C697441
:1003E0006572616CE2010801C701DB0BE90BA60431
:1003F0000801160AC701FFFFA6040801AD0F160A7F
:100400005505F907A6040801160AA6040801AD0F50
:10041000D201A6040500616865616400ED01080170
:10042000C701B504F801A604020069660A020801C2
:10043000C701BF04F801A6040400656C73651402CB
:100440000801C701B504F8015505FD01A604040023
:100450007468656E1C020801FD01A6040500626552
:1004600067696E00270208010302A6040500776889
:10047000696C65002E02080117025505A6040600E6
:100480007265706561743602080158022B02A60479
:100490000500756E74696C003F020801C604BF0454
:1004A000D2010602A6040500616761696E00480278
:1004B0000801C701B5040602A6040200646F5302D6
:1004C0000801C70120070302E505BB02A6040400DA
:1004D0006C6F6F705D020801C7014E07A202A6048F
:1004E00005002B6C6F6F700067020801C7013F07A2
:1004F000A202A60405006C65617665007002080121
:10050000C70159070F02BB02A60403003F646F0036
:100510007A020801C7019102170260025505BB0269
:10052000A6040801C709641242059005BF04990298
:10053000D00987058E06A60407FF656E646C6F6F91
:100540007000850208010602AF024A05BF04AB0233
:100550002B02B504A402A60402FF6C3E9C02080113
:10056000CF020A050A05C604FEFFCF02EA06A6046A
:1005700002FF3E6CAC020801C6040200CF02EA068C
:10058000CF020A051205A60403FF6C703000B80202
:100590000105A4000B10151002FF6C70C402D404F6
:1005A0001B0206FF637265617465CC020801A1013C
:1005B0000503C701E104A60406FF6865616465726E
:1005C000D1020801160A900590054205B905BF043D
:1005D000F3024205C60400FFAD06ED0B8705E507F3
:1005E000D2018705A604C604F0FFA70C07FF776CAD
:1005F00073636F706500DC026A10A2000B101510A7
:1006000006FF72657665616CF6020801C604170282
:100610000A054A05BF041403C60419020A05C107E6
:10062000E505C60417021205A60406FF6C61746591
:1006300073740003D4041D020500646F65733E00EB
:1006400015030801C7013403C7010E94C70129032C
:10065000A6049A938A93CB0101967F917F916F9123
:10066000BF93AF93DB01D8CD08018705C6041902FB
:100670000A05E5078104C006F907A60401FF3A0050
:100680001C030801A1014C036A05A60407FF3A6E8A
:100690006F6E616D65003E030801160A42051A037C
:1006A0001205C70108016103A60401003B004603CF
:1006B0000801C701A6046A030503A60401FF5D0043
:1006C00055030801C6040100AC091205A604010087
:1006D0005B005E030801E505AC091205A60408FFEE
:1006E0007661726961626C6567030801270A82039B
:1006F000C6040200300AA60408FF636F6E737461BB
:100700006E746F030801A1010503C701D404D2016F
:10071000A60404FF757365727C030801A10105033B
:10072000C701E704D201A6040700726563757273FE
:100730006500890308011A030A05D201A60409FF0E
:10074000696D6D6564696174650094030801430413
:10075000E50742051808C604FF7FA4065505F907FA
:10076000A60406005B636861725D9F030801C70110
:10077000C6044A0DD201A604060061626F7274229B
:10078000B10308012209C701D403A60405FF616271
:100790006F727400BC030801C604FFFFA70C06FFBC
:1007A0003F61626F7274C60308017205BF04DA0309
:1007B0000E0CCB03D009A60409FF6765742D737472
:1007C00061636B00CF0308014205BF095505E507CA
:1007D00042059005E50555059102BF04FA0320077F
:1007E0003107C606B90960052E06E5075505DC0583
:1007F0003F07F003D0098705A60409FF7365742D30
:10080000737461636B00DC030801C709C1075505F8
:10081000E5059102BF0412042007BF09D809C107EA
:100820004E070D046A05A60409FF6D61702D7374EF
:1008300061636B00FD0308014205BF095505E5072B
:10084000B9093F129102BF04380420073107E507B8
:10085000550590059905B0044A05BF043304870582
:100860006A055907A6048705C60402003F07260447
:100870006A05E505A6040BFF6765742D6375727242
:10088000656E740014040801C6048200E507A6041E
:1008900009FF6765742D6F72646572003B0408017F
:1008A000C6048600E303A60407FF636F6D706172E0
:1008B000650048045B04BF93AF938C0189919991C3
:1008C000DC01899199919C0189919991FC01ED90AC
:1008D000F190EF1451F40A9519F02A95C1F701C06F
:1008E0002A95022B11F4882702C08FEF00C0982FA1
:1008F000AF91BF9191CC07FF6E66613E6C6661005F
:1009000054040801C910C00695062E06A6040BFF64
:100910006170706C7475726E6B6579007B04080190
:10092000F200D108BA0F500CA109C604E80353061F
:1009300055056A05460A900BDB0B04006B487A20CC
:100940000E0CA60404FF657869748704A704AF91B0
:10095000BF9162CC07FF6578656375746500A2047A
:10096000B104BC018991999161CCB604FD01552770
:10097000EE0FFF1F551F5BBFA791B7914DCCC00471
:10098000982B8991999191F3119646CCC7049A932B
:100990008A93FD015527EE0FFF1F551F5BBF8791FF
:1009A0009791119639CCD4049A938A93FB0131968E
:1009B0005527EE0FFF1F551F5BBF879197912CCCDA
:1009C000E1049A938A93CB01019626CCE7049A938B
:1009D0008A93FB0131965527EE0FFF1F551F5BBF12
:1009E00087919791840D951D17CC07FF2876616C30
:1009F00075652900AA040801A1010503C7010105C5
:100A0000A60427DE420502101808B004A60401FF60
:100A10004000F5040B05FC0181919191FDCB01FF94
:100A2000210007051305FC01899199919183808329
:100A300089919991F1CB02FF63210F051F05FC01FC
:100A400089919991808389919991E6CB02FF6340C6
:100A50001B052A05FC0199278081DECB02FF40752A
:100A60002605080187072E060A05A60402FF217540
:100A70002E05080187072E061205A60403FF6475DC
:100A80007000360543059A938A93C6CB04FF3F64F2
:100A900075703E054B05082F092B11F09A938A9328
:100AA000BBCB04FF73776170460556058C018991B5
:100AB00099911A930A93B0CB04FF6F766572510532
:100AC00061059A938A938A819B81A6CB04FF647205
:100AD0006F705C056B05899199919ECB03FF726FD6
:100AE0007400660573058C0129913991899199915A
:100AF0003A932A931A930A938FCB03FF6E6970007F
:100B00006E058205229688CB02FF723E7D05880520
:100B10009A938A938F919F917FCB02FF3E728405B7
:100B200091059F938F938991999176CB02FF7240A3
:100B30008D059A059A938A938F919F919F938F9396
:100B40006BCB02FF3C3E960508016412AB05A60480
:100B500002FF303DA105AC05982BD1F530C002FF56
:100B6000303CA805B30597FD2AC032C002FF303ED5
:100B7000AF05BA05821593055CF151F120C003FF62
:100B800064303E00B605C40582159305899199919C
:100B900082059305ECF0E1F012C003FF64303C00E5
:100BA000BF05D205229697FD0C94DF050C94E8054D
:100BB00004FF74727565CD05DD059A938A938FEFF6
:100BC0009FEF2ACB01FF3000D805E6059A938A9360
:100BD000C10122CB02FF753CE205EE052991399156
:100BE00082179307A8F3A1F3EACF02FF753EEA0547
:100BF00008015505ED05A60401FF3C00F5050006BA
:100C000029913991281739071CF7D9CF01FF3E00E8
:100C1000FC050A062991399128173907CCF2C1F24F
:100C2000CECF04FF6C6F673206061606FC019927CB
:100C300080E18A9522F0EE0FFF1FD8F7EDCA9A9552
:100C4000EBCA01FF2D001106250609911991081B19
:100C5000190BC801E1CA01FF2B0021062F060991DB
:100C60001991800F911FD8CA02FF6D2A2B063806F2
:100C70008C01899199919C0131027001209FC001E2
:100C80003003F308900DE11CF31C1203F308900DE0
:100C9000E11CF31C9A938A93C701BECA06FF756DC7
:100CA0002F6D6F64340654067C01299139910991A6
:100CB000199140E15527000F111F221F331F551FA7
:100CC0002E153F05520518F003952E193F094A9538
:100CD00089F73A932A93C8019FCA03FF756D2A00CA
:100CE0004E0672068C0189919991809FF00122270E
:100CF0003327909FF00D211D331D819FF00D211D85
:100D0000331D919F200D311DCF019A938A93C90104
:100D100083CA06FF696E766572746D068F068095CC
:100D200090957ACA02FF322F890696069595879587
:100D300073CA02FF322A92069D06880F991F6CCA59
:100D400003FF616E64009906A5060991199180233D
:100D5000912362CA02FF6F72A006AE060991199133
:100D6000802B912B59CA03FF786F7200AA06B80630
:100D700009911991802791274FCA02FF312BB306A1
:100D8000C106019649CA02FF312DBD06C70601976B
:100D900043CA06FF6C7368696674C306CF06FC011C
:100DA0008991999131971AF0880F991FFBCF34CA16
:100DB00006FF727368696674C906DE06FC018991D4
:100DC000999131971AF096958795FBCF25CA02FF26
:100DD0002B21D806EB06FC01899199912081318164
:100DE000820F931F808391838991999115CA03FF84
:100DF00072704000E706FC069A938A938DB79EB7FF
:100E00000BCA03FF72702100F70606072FB7F8948C
:100E10008DBF9EBF2FBF89919991FEC903FF73704B
:100E20004000010713079A938A93CE01F5C903FF87
:100E3000737021000E071C07EC0189919991ECC990
:100E4000210729913991E0E83E0F821B930B3F93D4
:100E50002F939F938F9389919991DEC901FF690028
:100E6000170732079A938A938F919F91EF91FF9181
:100E7000FF93EF939F938F938E0F9F1FCDC94007D2
:100E8000EF91FF91E80FF91F899199911BF0FF9362
:100E9000EF936CCD0F911F911196BEC94F07EF9143
:100EA000FF913196BBF3F3CF06FF756E6C6F6F70D9
:100EB0002E075A071F910F911F910F91ADC906FF81
:100EC000636D6F76653E54076507BF93AF93E991F5
:100ED000F991A991B991092F082B41F0E80FF91F59
:100EE000A80FB91F1E9112930197E1F7AF91BF911F
:100EF0008991999191C902FF3E3C5F077F07092FB5
:100F0000982F802F89C903FF757040007B078807E1
:100F10009A938A93C20180C903FF757021008307E9
:100F200091072C018991999177C903FF316D730065
:100F30008C079A07E6E6FEE03197F1F700006CC9EE
:100F400003FF323E72009507A507FC018991999134
:100F50009F938F93FF93EF93899199915DC903FFBD
:100F600032723E00A007B4079A938A93EF91FF91E3
:100F70008F919F919A938A93CF014EC902FF216569
:100F8000AF07C207FC01899199912FB7F89428D037
:100F900000B5081709F00BD0319622D000B509171B
:100FA00011F0892F04D02FBF8991999135C9F999F2
:100FB000FECF07B700FDFDCFF2BDE1BD80BDFA9ABF
:100FC000F99A089502FF4065BE07E6072FB7F89427
:100FD000FC0106D080B5319603D090B52FBF1CC957
:100FE000F999FECFF2BDE1BDF89A089502FF21699B
:100FF000E2076A107C000B10151004FF28692129F4
:10100000F60702089C0189919991AF93BF93CF9302
:10101000DF93E1E0EBBFF0EFE0E01995DF91CF91D6
:0A102000BF91AF9189919991F7C833
:020000023000CC
:10E0000010D0E094F0948E219F21982B19F0F90103
:10E0100003E023D0F90105E020D0F90101E11DD092
:10E020000895F901E078FF7FEF01A0E8B0E0FE017C
:10E030005527EE0FFF1F551F5BBF47915791FE01FC
:10E04000E217F30711F00A0102C07A010C0101E0A6
:10E0500004D02196119759F708951FB71F93F8948C
:10E06000F999FECF17B710FDFDCF5527EE0FFF1F13
:0EE07000551F5BBF07BFE8951F911FBF0895A6
:020000020000FC
:10102A0002FF4069FD071908FC015527EE0FFF1F53
:10103A00551F5BBF87919791EAC803FF6E3E720006
:10104A0015082708FC01082F899199919F938F937E
:10105A000A95D1F7EF93FF9389919991D8C803FF25
:10106A006E723E00220839089A938A93FF91EF9193
:10107A000E2F8F919F919A938A930A95D1F7CF0158
:10108A00C6C803FF64322A0034084B080991199133
:10109A00000F111F881F991F1A930A93B8C803FFDC
:1010AA0064322F0046085908099119919595879538
:1010BA00179507951A930A93AAC802FF642B540836
:1010CA00660829913991E990F99049915991240F2B
:1010DA00351F8E1D9F1D3A932A9399C802FF642DCE
:1010EA006208770829913991E990F99049915991C3
:1010FA00421B530BE80AF90A5A934A93C70187C855
:10110A0007FF64696E766572740073088C0809912A
:10111A00199180959095009510951A930A9377C81E
:10112A0002FF643D850808017608AD06AB05A604F2
:10113A0002FF752E95080801E505980BA60403FF22
:10114A00752E72009D080801E5055505A10BA60438
:10115A000DFF73686F772D776F72646C6973740013
:10116A00A4080801C604BC085505AE10A604080167
:10117A00C9100E0C500CDC05A60405FF776F7264CB
:10118A007300AD080801C6048800E507B608A6047E
:10119A0004FF2B696E74C208D208789438C804FF19
:1011AA002D696E74CD08D908F89431C804FF696EA8
:1011BA007421D4080801C60400002E06C107A6043B
:1011CA0004FF696E7440DB080801C60400002E069D
:1011DA00E507A60408FF696E742D74726170E5084C
:1011EA00F6088093160289919991689410C80801AB
:1011FA00C60416022905C60400002E06E507B00437
:10120A000709A604080902D00C940C01189504FFDA
:10121A007069636BEF080801C006B90912072E0648
:10122A000A05A60402002E220C0908012209C70198
:10123A000E0CA6040200732217090801C604220034
:10124A00ED0DAC090A05BF042B09F301A60404FF3E
:10125A0066696C6C1F090801720572054A05BF04AC
:10126A003D093F122007420531071E054E0738097E
:10127A006A05A6040BFF656E7669726F6E6D656E00
:10128A0074002C09D4047E0009FF776F72646C69BC
:10129A007374730000000801C6040800A60404FF62
:1012AA002F706164490908011207EC092406A60493
:1012BA0005FF2F686F6C640054090801EC09270ABE
:1012CA002406A6040AFF666F7274682D6E616D6546
:1012DA005D090801DB0B0700616D666F72746800B7
:1012EA00A60407FF76657273696F6E0067090801C5
:1012FA00C6043B00A60403FF637075007609080163
:10130A00C60475003A0CA60408FF6D63752D696E54
:10131A00666F80090801C6047100A60405FF2F75CF
:10132A007365720089090801C6042600A60405FF30
:10133A00665F637075003F090801C6040000C604B1
:10134A00E100A60405FF7374617465009C09D40466
:10135A001F0204FF62617365A709E7040C0005FF19
:10136A0063656C6C7300AE099D0605FF63656C6C62
:10137A002B00B409C00902960C940C0104FF3264D4
:10138A007570BA09080160056005A60405FF326494
:10139A00726F7000C30908016A056A05A60404FF92
:1013AA007475636BCB09080155056005A60403FF34
:1013BA003E696E00D409E704180004FF23746962C9
:1013CA00DC09D404210203FF70616400E209080108
:1013DA00270AC60464002E06A60404FF656D697414
:1013EA00E8096A100E0033103F1005FF656D697435
:1013FA003F00F2096A10100033103F1003FF6B65BB
:10140A007900FA096A10120033103F1004FF6B6565
:10141A00793F030A6A10140033103F1002FF647008
:10142A000B0A010574000B10151005FF656865723B
:10143A006500130A010578000B10151004FF686592
:10144A0072651A0A010576000B10151005FF616C0A
:10145A006C6F7400230A0801270A2E06F00F280A67
:10146A00A60403FF62696E002B0A0801C604020083
:10147A00B2091205A60407FF646563696D616C0011
:10148A00360A0801C6040A00B2091205A60403FFB7
:10149A0068657800400A0801C6041000B2091205FE
:1014AA00A60402FF626C4C0AD404200007FF74757C
:1014BA00726E6B657900560A6A107A000B10151065
:1014CA0004FF2F6D6F645B0A6A0A9C0109911991E6
:1014DA00412F432717FF04C0109500950F5F1F4F38
:1014EA0037FF04C0309520952F5F3F4FEE24FF1839
:1014FA0051E1001F111F5A9539F447FF04C0109596
:10150A0000950F5F1F4F0BC0EE1CFF1CE21AF30A77
:10151A0020F4E20EF31E8894ECCF0894EACFFA92F4
:10152A00EA92C8010C940C0105FF752F6D6F6400D7
:10153A00650A08019005E50587055306A60406FF16
:10154A006E6567617465990A08018E06C006A6046D
:10155A0001FF2F00A40A0801690A8105A60403FFF6
:10156A006D6F6400AD0A0801690A6A05A60403FFE3
:10157A0061627300B40AC10A99231AF4809590959E
:10158A0001960C940C0103FF6D696E00BC0A0801F8
:10159A00C7090906BF04D20A55056A05A60403FF4E
:1015AA006D617800C80A0801C709FF05BF04DE0A91
:1015BA0055056A05A60406FF77697468696ED40A38
:1015CA00080160052406900524068705ED05A60492
:1015DA0007FF746F757070657200E00A08014205B2
:1015EA00C6046100C6047B00E50ABF04FF0AC604FC
:1015FA00DF00A406A60407FF746F6C6F776572009C
:10160A00ED0A08014205C6044100C6045B00E50A6A
:10161A00BF04120BC6042000AD06A60403FF686CC3
:10162A006400000BD404230204FF686F6C64130B7C
:10163A000801170B42050A05C6064205900555051D
:10164A00120587051E05A60402FF3C23190B080193
:10165A00EC09170B1205A60401FF2300290B080148
:10166A00B2090A05B10B7205C60409006005FF0537
:10167A00BF04420BC60407002E06C60430002E061D
:10168A001D0BA60402FF2373310B0801340BC70993
:10169A00AD06AB05BF044B0BA60402FF233E470B66
:1016AA000801D009170B0A05EC0960052406A604EF
:1016BA0004FF7369676E520B0801B205BF04680B19
:1016CA00C6042D001D0BA60403FF642E72005D0BD9
:1016DA0008019005D8092B112C0B4A0B7205610BD6
:1016EA00550B870560052406590C690CA60402FFF0
:1016FA002E72690B08019005481287056D0BA60426
:10170A0002FF642E7C0B0801E5056D0B500CA60444
:10171A0001FF2E00850B08014812880BA60403FF5F
:10172A0075642E008D0B0801E505A10B500CA6046B
:10173A0004FF75642E72940B080190052C0B4A0B5A
:10174A00550B870560052406590C690CA60406FF8B
:10175A0075642F6D6F649D0B08019005E505990569
:10176A00530687055505900553068705A60406FF07
:10177A0064696769743FAC0B0801F30A4205C60441
:10178A0039000906C6040001A4062E064205C6044D
:10179A0040010906C6040701A4062406C60430004F
:1017AA0024064205B2090A05ED05A60408019905B1
:1017BA003A0C87056005C00695062E06C0069005F8
:1017CA00A60402FF732CBC0B08014205ED0BA6040C
:1017DA000801D20142059506D8099C0624069005FF
:1017EA00E5059102BF04000C200742050A05D20153
:1017FA00BF094E07FA0B8705B905BF04070C420556
:10180A002905D2016A05A60405FF69747970650085
:10181A00E60B080142059506D8099C0624069005A0
:10182A00E5059102BF04220C20074205180842056B
:10183A002F0C2B0CC0064E071A0C8705B905BF04DE
:10184A00290C420518082F0C6A05A60408017E0710
:10185A002F0CA6040801C604FF00A406F609A60474
:10186A0006FF69636F756E74090C08014205C006AC
:10187A0055051808A60402FF6372350C0801C60450
:10188A000D00F609C6040A00F609A60405FF7370DE
:10189A0061636500400C0801590AF609A60406FFAF
:1018AA007370616365734B0C0801E505D80A42053C
:1018BA00BF04630C500CC606B5045C0C6A05A6048A
:1018CA0004FF74797065540C08013F129102BF0439
:1018DA00740C200731072905F6094E076F0CA60478
:1018EA0001FF2700650C08011B0E190F830F6412F4
:1018FA00BF04810C6A05A604C604F3FFA70C07FF00
:10190A0068616E646C657200750CE7040A0005FF75
:10191A00636174636800840C0801120790058A0CDD
:10192A000A059005FB068A0C1205B00487058A0C85
:10193A00120587056A05E505A60405FF7468726F36
:10194A0077008C0C08014205AB05BF04AE0C6A0592
:10195A00A6048A0C0A05050787058A0C120587055D
:10196A00550590051B076A058705A60405FF6373DD
:10197A006B697000A20C080190054205BF04D00CE7
:10198A006005290599056412BF04D00CC60401003C
:10199A000C0EB504C20C87056A05A60405FF63731D
:1019AA0063616E00BB0C08019005600542052905BC
:1019BA0099056412AB05BF04ED0C5505C60655051D
:1019CA006005B205AB05BF04ED0CC006B504DB0C1F
:1019DA0081056005240687056A05A60406FF61637A
:1019EA0063657074D30C080160052E06C60660058F
:1019FA00070A4205320DAB05BF04240D4205C60491
:101A0A0008006412BF041B0D6A057205C70909069E
:101A1A009005720572058705BF04190D2A0DC606C1
:101A2A009005600587054C01B504220D4205F609AB
:101A3A0060051E05C00660055801B504FD0C6A055F
:101A4A00810555052406430CA6040801C6040800AE
:101A5A004205F609500CF609A60408014205C60417
:101A6A000D0064125505C6040A006412AD06A604E8
:101A7A0006FF726566696C6CF30C6A101A00331003
:101A8A003F1004FF636861723D0D08011B0E6A0571
:101A9A002905A60406FF6E756D626572460D08017A
:101AAA00B2090A0590059B0D9005AF0D9B0D8705A0
:101ABA00AD0690054205AB05BF046B0DD00987053D
:101ACA006A058705B2091205E505A604A407E50516
:101ADA00E505B307CE0D4A05BF048F0DC604010004
:101AEA006412BF04860D2905C6042E006412BF04C1
:101AFA00870D8705BF04820D3811C6040200B5049C
:101B0A00960D6A05D00987056A058705B209120587
:101B1A00E505A604D0098705BF04940DA90AC604E1
:101B2A0001008705B2091205DC05A6040801600553
:101B3A002905C6042D00641242059005BF04A80DAC
:101B4A00C60401000C0E8705A604E1040A00100071
:101B5A0002000A00080160052905C60423002406BC
:101B6A004205E505C6040400E50ABF04C60DAA0D30
:101B7A002E061808B2091205C60401000C0EB50497
:101B8A00C70D6A05A60407FF3E6E756D6265720091
:101B9A004F0D08014205BF04E70D60052905C10B79
:101BAA00AB05BF04DA0D6A05A60490055D11B209FA
:101BBA000A053D01870535015D11C60401000C0EB9
:101BCA00B504CF0DA60405FF706172736500C80DD8
:101BDA0008019005020EE0090A050C0E8705D80CCB
:101BEA004205C006E009EA06C60401000C0EA60476
:101BFA0006FF736F75726365E80D6A10160033107D
:101C0A003F1007FF2F737472696E6700FD0D08019C
:101C1A00720560052E06720572052406A6040AFFDF
:101C2A0070617273652D6E616D65060E0801590A41
:101C3A001F0EA60408019005020EE0090A050C0E03
:101C4A009905C00C8705D80CC7092E06020E6A052D
:101C5A002406E0091205A60409FF66696E642D6E62
:101C6A00616D6500140E0801C604440EC6048600A0
:101C7A001B04AB05BF04430ED009E505A604080101
:101C8A009005C70987057C104205BF04510E9005CF
:101C9A00810581058705DC05A6040801DB0B030025
:101CAA00206F6B000E0CA6040801DB0B02003E201D
:101CBA00430C0E0CA6040801DB0B0400203F3F2056
:101CCA000E0CB2090A059005460A900BE0090A05AE
:101CDA00900B8705B2091205A60404FF7175697491
:101CEA00310E0801C802CF021205D80E1B07E50EF5
:101CFA0005076A03AC090A05AB05BF04850E590E30
:101D0A00420DBF047F0EC604FE0E910C4A05BF04A5
:101D1A00970E4205C604FEFFFF05BF04950E600E2E
:101D2A00B504770E520EB5047F0EA60405FF706146
:101D3A0075736500720E6A1025021F10291004FFC0
:101D4A00636F6C649B0EA90EA4B62224332424BEAE
:101D5A00E0E0F2E02192E030E9F7F232D9F7E7E287
:101D6A00F2E02F010FEF0DBF048311E21EBF1583AE
:101D7A00CFEAC683D1E2D783AAECBEE00C940C0169
:101D8A0004FF7761726DA40E0801A311C604D50F72
:101D9A00C604A00E4A106A03610A760EA60403FF5F
:101DAA0073703000C50E0105060033103F1002FFA4
:101DBA007370D40EE704080003FF72703000DC0E63
:101DCA000801E90E0A05A604E704040005FF646594
:101DDA0070746800E10E0801D80E120724069506F1
:101DEA00C606A60409FF696E74657270726574008E
:101DFA00EB0E08011B0E4205BF040E0F190FAC09AA
:101E0A000A05BF04090F02101808B004AD0FB50483
:101E1A00FF0ED009A6040DFF646F2D7265636F670C
:101E2A006E697A657200F70E0801C604250FC604AA
:101E3A0098001B04AB05BF04240FD009A00FA60409
:101E4A00080172057205C709A4077205B004B30731
:101E5A0072054205A00F6412BF04360F6A05E50534
:101E6A00A60481058105DC05A60405FF723A6E7594
:101E7A006D00100FE104D50FE8014C0F06FF723A0E
:101E8A00646E756D3A0FE104D50F5812520F0801AE
:101E9A00900BC604D0FFA70CA6040801880BC60441
:101EAA00D0FFA70CA60407FF7265633A6E756D0032
:101EBA00430F0801540DBF046B0FC60401006412DE
:101ECA00BF04690F3F0FA604480FA604A00FA6047B
:101EDA0008FF7265633A776F7264580F0801380E0B
:101EEA004205AB05BF047C0F6A05A00FA604830F49
:101EFA00A60406FF723A776F72646D0FE104870FCA
:101F0A008B0F930F08016A05B004A6040801B205F5
:101F1A00BF04910FD201A604B004A6040801B205B9
:101F2A00BF04990FC701C701D201A60406FF723A7E
:101F3A006661696C7E0FE104A40FA40FA40F080167
:101F4A00C604F3FFA70C06FF3F737461636B9B0F14
:101F5A000801F00EB205BF04B50FC604FCFFA70CBA
:101F6A00A60403FF76657200A80F08016E090E0C1D
:101F7A00500CB2090A057C09460A48122C0B340B8C
:101F8A00C6042E001D0B4A0B550B690CB20912052B
:101F9A00500C84090E0CA60404FF6E6F6F70B60F06
:101FAA00D60F0C940C0106FF756E75736564D10F1C
:101FBA0008011207270A2406A6040200746FD80F24
:101FCA000801780C5112AC090A05BF04F60FC701C3
:101FDA00F00FD201A60408018705420502109005F8
:101FEA0018084205021002101808B004A60407FFD8
:101FFA00692D63656C6C2B00E20F0801C006A6040C
:10200A0007FF4564656665724000FC0F0801180801
:10201A00E507A60407FF4564656665722100051099
:10202A0008011808C107A60407FF526465666572AD
:10203A0040000F10080118080A05A60407FF526499
:10204A006566657221001910080118081205A604B0
:10205A0007FF556465666572400023100801180879
:10206A0087072E060A05A60407FF5564656665728A
:10207A0021002D100801180887072E061205A6044C
:10208A0006FF64656665722139100801511242051E
:10209A00021002101808B004A60406FF64656665FB
:1020AA007240451008015112420502101808B00486
:1020BA00A60407FF286465666572290052100801A4
:1020CA00A1010503C7016A10A6040E94290342055B
:1020DA0002101808B004B004A6040FFF73656172F9
:1020EA0063682D776F72646C697374005E100801FF
:1020FA009005E505C60491108705AE104205AB05AB
:10210A00BF048B10D0096A05E505A6044205D5105F
:10211A00550573016001A604080190056A05C709FF
:10212A009905C910DF10BF049F1087056A05E505E8
:10213A00DC05A604D0098705E505A60411FF74721B
:10214A006176657273652D776F72646C697374005A
:10215A0072100801E5074205BF04BF10C709A407AA
:10216A005505B004B3077205BF04BF1081041808EF
:10217A00B504B010D009A6040BFF6E616D653E73FD
:10218A007472696E6700A31008013A0CC604FF0056
:10219A00A406A60407FF6E66613E63666100C1106D
:1021AA0008018104C006A60408FF69636F6D7061A7
:1021BA007265CF100801900560058705A405BF0464
:1021CA00EA10D0096A05DC05A6045505E505910261
:1021DA00BF040D11200760050A05600518084205AD
:1021EA00C6040001ED05BF04FE105505C604FF0034
:1021FA00A406A405BF040511D009DC055907A604E5
:10220A00C0065505BF095505C60402003F07F01070
:10221A00D009E505A60401FF2A00D91008013706EE
:10222A006A05A60401FF6A0010110801FB06C6042C
:10223A0007002E060A05FB06C60409002E060A0533
:10224A002E06A60404FF6461627317110801420591
:10225A00B205BF0431113811A60407FF646E656721
:10226A0061746500271108018B08C6040100E505A1
:10227A006508A60405FF636D6F7665003211451186
:10228A00BF93AF93E991F991A991B991092F082BBD
:10229A0021F01D9111930197E1F7AF91BF918991B7
:1022AA0099910C940C0105FF3273776170003F110C
:1022BA0008017205900572058705A60403FF746973
:1022CA0062005811D4044D020AFF726566696C6C8B
:1022DA002D746962631108016711C6045A00F80C6B
:1022EA00E6091205E505E0091205DC05A6040AFF60
:1022FA00736F757263652D746962691108016711DC
:10230A00E6090A05A60406FF65653E72616D7C1141
:10231A000801E50520076005E50760051205BF0904
:10232A005505BF0955054E079011D009A60409FFA6
:10233A00696E69742D757365720088110801C60487
:10234A00A8008707C6041C0095068D11A6040BFF7A
:10235A007365742D63757272656E74009C11080141
:10236A00C6048200C107A60408FF776F72646C690D
:10237A007374AC1108011F0AE5056005C10742051F
:10238A00BF09F00F200AA60404FF6F6E6C79B91119
:10239A000801C6048400C6040100E811A6040EFF61
:1023AA00666F7274682D776F72646C697374C91181
:1023BA00010580000B10151009FF7365742D6F72EB
:1023CA0064657200D4110801C60486000404A604D8
:1023DA000FFF7365742D7265636F676E697A657234
:1023EA007300E1110801C60498000404A6040FFF53
:1023FA006765742D7265636F676E697A65727300BB
:10240A00ED110801C6049800E303A60404FF636FF4
:10241A006465FC110801A1010503160A0210D20124
:10242A00A60408FF656E642D636F64650B120801CC
:10243A00C7010C94C7010C01A60408FF286D61723C
:10244A006B65722916120105A6000B1015100800FB
:10245A00706F7374706F6E65221208011B0E190F6C
:10246A00021002101808B004A60406FF626F756E07
:10247A0064732C12080160052E065505A60403FF95
:10248A00733E64003A1208014205B205A60405FF2C
:10249A003E626F6479004412C1060800326C6974A6
:1024AA006572616C4C1208015505C701C604D20158
:1024BA00C701C604D201A60401FF3D005212080159
:1024CA002406AB05A60401FF31006112D404010001
:1024DA0001FF32006812D404020002FF2D316D128E
:0424EA00D404FFFF18
:00000001FF
