:020000020000FC
:02000400E9D041
:02000800E7D03F
:02000C00E5D03D
:02001000E3D03B
:02001400E1D039
:02001800DFD037
:02001C00DDD035
:02002000DBD033
:02002400D9D031
:02002800D7D02F
:02002C00D5D02D
:02003000D3D02B
:02003400D1D029
:02003800CFD027
:02003C00CDD025
:02004000CBD023
:02004400C9D021
:02004800C7D01F
:02004C00C5D01D
:02005000C3D01B
:02005400C1D019
:02005800BFD017
:02005C00BDD015
:02006000BBD013
:02006400B9D011
:02006800B7D00F
:02006C00B5D00D
:02007000B3D00B
:02007400B1D009
:02007800AFD007
:02007C00ADD005
:02008000ABD003
:02008400A9D001
:02008800A7D0FF
:02008C00A5D0FD
:02009000A3D0FB
:02009400A1D0F9
:020098009FD0F7
:02009C009DD0F5
:0200A0009BD0F3
:0200A40099D0F1
:1000A80097D0000A000400702B000A0041546D65C7
:1000B800676133325534AF93AFB7AF93BF93EF93C4
:1000C800FF93B091CE00A0911201E0E0F1E0EA0FB9
:1000D800F31DB083A395AF70A0931201FF91EF9128
:0A00E800BF91AF91AFBFAF91189523
:020064002CC0AE
:1000F20000384E393738120187384E3937381401F3
:1001020087381A3806FF72782D697372000000383A
:10011200A20030388900373814019238AB38293AB6
:1001220037380F000D3A3738140187383738000155
:10013200973992381A3807FF72783F2D6973720027
:1001420083000038113D37381401923837381201D4
:1001520092380D391A3807FF74782D706F6C6C0065
:100162009C000038C0003038B3003738CE008738E2
:100172001A3808FF74783F2D706F6C6CAC00003831
:10018200113D3738C8009238373820000D3A1A38F6
:1001920004FF75627272BA006938A800813D8B3D16
:1001A20006FF2B7573617274C900003837389800E6
:1001B2003738C9008738373806003738CA008738D9
:1001C200CD00AB38E73A3738CD0087383738CC0026
:0601D200873879001A389D
:040000000C941A3D05
:1001D8000A920FB60A920F900F900A940092160195
:1001E80009900FBE09906894089502FF6D2BD10005
:1001F8000038B73F043C1A3803FF75642A00F90039
:100208000038AB38F938DA39D338BE38F038DA394B
:10021800DB3897391A3804FF756D617800010038AA
:10022800B23E563930381901BE38D3381A3804FF6F
:10023800756D696E0F010038B23E6139303825019D
:10024800BE38D3381A380038373800800D3A143998
:1002580030383101373801001A3845391A380AFF61
:100268006E616D653E666C6167731B010038BA3B51
:10027800373800FF0D3A1A380EFF6E616D653E691A
:100288006E7465727072657433010038EB061A3843
:100298000CFF6E616D653E636F6D70696C65400142
:1002A8000038AB38EB06BE383A01270130385F0119
:1002B800373847071A38373824381A3803FF76652D
:1002C80072004C010038C402ED039E3FA63E73380D
:1002D800D202313FB73F0B03130337382E00FC021D
:1002E800290334032304A63E7B389E3FDA02ED033C
:1002F8001A3804FF6E6F6F70620182010C94043823
:1003080006FF756E757365647D0100387B3A123F90
:100318008D391A380200746F840100383204C03FE6
:10032800A03E73383038A2013C079C0147071A38B1
:100338000038F038AB38AE01F938BA3BAB38AE010B
:10034800AE01BA3B24381A3807FF692D63656C6C17
:100358002B008E010038293A1A3808FF69636F6D3F
:1003680070617265A8010038F938C938F0380D395C
:100378003038C201BB3ED33845391A38BE384E39F9
:1003880006083038E701893AC9387338EA01C938AC
:10039800BA3BEA01AB383738000156393038D80152
:1003A800BE383738FF000D3A0D393038DF01BB3E13
:1003B8004539C23A1A38293ABE38823CBE383738ED
:1003C8000200A83AC801BB3E4E391A380038AB388B
:1003D8003738FF000D3A693FBE38E73A3738FF0033
:1003E8000D3A693FE73A163A1A3801FF2A00B10177
:1003F8000038A039D3381A3801FF6A00F9010038EB
:10040800643A3738070097397338643A373809003F
:100418009739733897391A3804FF64616273000298
:100428000038AB381B3930381A0221021A3807FF56
:10043800646E656761746500100200382A3C3738BD
:1004480001004E39043C1A3805FF636D6F7665006C
:100458001B022E02BF93AF93E991F991A991B9912B
:10046800092F082B21F01D9111930197E1F7AF9106
:10047800BF91899199910C94043805FF3273776183
:10048800700028020038DB38F938DB38F0381A38C1
:1004980003FF746962004102423817010AFF72655E
:1004A80066696C6C2D7469624C02003850023738EA
:1004B8005A007B04D13E7B384E39CB3E7B384539D8
:1004C8001A380AFF736F757263652D746962520278
:1004D80000385002D13E73381A3806FF65653E72FF
:1004E800616D650200384E39893AC9384D3BC938C3
:1004F8007B38823CBE38823CBE38B73A7902BB3E74
:100508001A3809FF696E69742D7573657200710276
:10051800003837388C00F03A37381C00FE3976023C
:100528001A380BFF656E7669726F6E6D656E7400B2
:1005380085024238620009FF776F72646C697374D0
:10054800730000000038373808001A3804FF2F708D
:1005580061649F0200387B3AD73E8D391A3805FF0F
:100568002F686F6C6400AA020038D73E123F8D399D
:100578001A380AFF666F7274682D6E616D65B30272
:100588000038BA030700616D666F727468001A3824
:1005980007FF76657273696F6E00BD0200383738E1
:1005A8003B001A3803FF63707500CC0200383738F7
:1005B800590019041A3808FF6D63752D696E666F46
:1005C800D6020038373855001A3805FF2F7573657D
:1005D8007200DF020038373826001A3803FF686CCB
:1005E800640095024238710104FF686F6C64F2027E
:1005F8000038F602AB3873382F3AAB38F938BE38C2
:100608007B38F03887381A3802FF3C23F802003864
:10061800D73EF6027B381A3801FF2300080300385A
:10062800A63E73389003DB3837380900C938683973
:100638003038210337380700973937383000973971
:10064800FC021A3802FF2373100300381303B23E6A
:10065800163A143930382A031A3802FF233E260383
:100668000038BB3EF6027338D73EC9388D391A3880
:1006780004FF7369676E310300381B39303847034C
:1006880037382D00FC021A3803FF642E72003C0331
:100698000038F938C33E14020B032903DB38400342
:1006A8003403F038C9388D39A73F23041A3802FFBC
:1006B8002E7248030038F938B73FF0384C031A381F
:1006C80002FF642E5B0300384E394C039E3F1A38F4
:1006D80001FF2E0064030038B73F67031A3803FF91
:1006E80075642E006C0300384E3980039E3F1A381B
:1006F80004FF75642E7273030038F9380B0329035D
:100708003403F038C9388D39A73F23041A3806FF57
:1007180075642F6D6F647C030038F9384E390239DF
:10072800BC39F038BE38F938BC39F0381A3806FF09
:1007380064696769743F8B030038563FAB383738B4
:1007480039007239373800010D3A9739AB383738E4
:1007580040017239373807010D3A8D393738300082
:100768008D39AB38A63E733856391A3800380239F5
:100778001904F038C938293AFE399739293AF9382D
:100788001A3802FF732C9B030038AB38CC031A3895
:1007980000384707AB38FE39C33E053A8D39F9387A
:1007A8004E3906083038DF03893AAB3873384707C3
:1007B800823CB73AD903F03822393038E603AB38EF
:1007C80092384707D3381A3805FF6974797065007D
:1007D800C5030038AB38FE39C33E053A8D39F938C0
:1007E8004E39060830380104893AAB38BA3BAB3881
:1007F8000E040A04293AB73AF903F0382239303896
:100808000804AB38BA3B0E04D3381A380038E73A34
:100818000E041A3800383738FF000D3AE13E1A380E
:1008280006FF69636F756E74E8030038AB38293AC0
:10083800BE38BA3B1A3804FF74797065140400385E
:10084800893F060830382E04893A9A3A9238E13EB0
:10085800B73A29041A3801FF27001F0400389E05FB
:10086800E0056306D33F30383B04D3381A383738AD
:10087800F3FF673D05FF63736B6970002F04003851
:10088800F938AB3830385304C93892380239D33F75
:1008980030385304373801008F0529384504F038BB
:1008A800D3381A3805FF637363616E003E0400385D
:1008B800F938C938AB3892380239D33F143930384F
:1008C8007004BE382F3ABE38C9381B39143930384D
:1008D8007004293A29385E04EA38C9388D39F03865
:1008E800D3381A3806FF616363657074560400389C
:1008F800C93897392F3AC938F23EAB38B50414399C
:100908003038A704AB3837380800D33F30389E0456
:10091800D338DB38B23E7239F938DB38DB38F03897
:1009280030389C04AD042F3AF938C938F03813012F
:100938002938A504AB38E13EC9388738293AC9387F
:100948001F0129388004D338EA38BE388D39913FE1
:100958001A38003837380800AB38E13E9E3FE13E90
:100968001A380038AB3837380D00D33FBE3837381F
:100978000A00D33F163A1A3806FF726566696C6C2E
:100988007604E03D1A00A93DB53D04FF6368617235
:10099800C00400389E05D33892381A3806FF6E75A1
:1009A8006D626572C9040038A63E7338F9381E05B1
:1009B800F93832051E05F038163AF938AB381439CB
:1009C8003038EE04BB3EF038D338F038A63E7B38DA
:1009D8004E391A380C3B4E394E391B3B5105B3384A
:1009E8003038120537380100D33F303809059238BE
:1009F80037382E00D33F30380A05F038303805052F
:100A080021023738020029381905D338BB3EF0389F
:100A1800D338F038A63E7B384E391A38BB3EF0380A
:100A280030381705103E37380100F038A63E7B38BD
:100A380045391A380038C938923837382D00D33F2D
:100A4800AB38F93830382B05373801008F05F038C6
:100A58001A384C380A00100002000A000038C93859
:100A68009238373823008D39AB384E39373804007F
:100A7800403E303849052D059739BA3BA63E7B38AC
:100A8800373801008F0529384A05D3381A3807FF47
:100A98003E6E756D62657200D2040038AB3830382E
:100AA8006A05C9389238A003143930385D05D3383F
:100AB8001A38F9384602A63E73380401F038FC00AB
:100AC8004602373801008F05293852051A3805FFC4
:100AD8007061727365004B050038F9388505CB3EA7
:100AE80073388F05F0385B04AB38293ACB3E533A5C
:100AF800373801008F051A3806FF736F7572636502
:100B08006B05E03D1600A93DB53D07FF2F737472D4
:100B1800696E670080050038DB38C9389739DB38DB
:100B2800DB388D391A380AFF70617273652D6E6172
:100B38006D6589050038443FA2051A380038F93830
:100B48008505CB3E73388F0502394304F0385B04C2
:100B5800B23E97398505D3388D39CB3E7B381A3864
:100B680003FF73703000970569380600A93DB53D4D
:100B780002FF7370B4055238080003FF727030002A
:100B8800BC050038C90573381A385238040005FF07
:100B9800646570746800C1050038B8057B3A8D3902
:100BA800FE392F3A1A380DFF646F2D7265636F672F
:100BB8006E697A657200CB0500383738EC0537382E
:100BC8007C00900914393038EB05BB3E80061A3892
:100BD8000038DB38DB38B23E0C3BDB3824381B3BB3
:100BE800DB38AB388006D33F3038FD05D3384E3973
:100BF8001A38EA38EA3845391A3809FF696E7465CF
:100C0800727072657400D70500389E05AB383038AD
:100C18001806E005A03E733830381306AE01BA3B1B
:100C280024387B3F29380906BB3E1A3805FF723A3B
:100C38006E756D0001064C3881015D072C0606FFB4
:100C4800723A646E756D1A064C388101C73F3206D8
:100C580000386F033738D0FF673D1A38003867030C
:100C68003738D0FF673D1A3807FF7265633A6E75EB
:100C78006D0023060038D70430384B06373801009A
:100C8800D33F303849061F061A3828061A38800616
:100C98001A3808FF7265633A776F7264380600384D
:100CA800F606AB38143930385C06D33880061A3863
:100CB80063061A3806FF723A776F72644D064C382D
:100CC80067066B0673060038D33824381A3800389C
:100CD8001B393038710647071A3824381A38003853
:100CE8001B39303879063C073C0747071A3806FF96
:100CF800723A6661696C5E064C388406840684061E
:100D080000383738F3FF673D0FFF7365617263681A
:100D18002D776F72646C697374007B060038F9383C
:100D28004E393738A706F038C406AB38143930388E
:100D3800A106BB3ED3384E391A38AB38EB06BE385D
:100D48003A0127011A380038F938D338B23E023947
:100D5800DF06B7013038B506F038D3384E39453993
:100D68001A38BB3EF0384E391A3811FF7472617662
:100D7800657273652D776F72646C69737400880689
:100D880000384D3BAB383038D506B23E0C3BBE3848
:100D980024381B3BDB383038D506F709BA3B2938ED
:100DA800C606BB3E1A380BFF6E616D653E737472E2
:100DB800696E6700B906003819043738FF000D3A24
:100DC8001A3807FF6E66613E63666100D706003811
:100DD800F709293A1A3809FF66696E642D6E616D44
:100DE8006500E50600383738020737386A00900989
:100DF800143930380107BB3E4E391A380038F938F3
:100E0800B23EF0389206AB3830380F07F938EA3876
:100E1800EA38F03845391A3808FF28637265617472
:100E28006529EF0600389E057108AB38F938560871
:100E3800F038373875017B38373873017B381A3802
:100E480001005C00100700388505EA38CB3E7B3886
:100E58001A3801002800240700383738290070059F
:100E6800BB3E1A3807FF636F6D70696C65002D070C
:100E78000038F038AB38AE01F938BA3B47071A38B2
:100E880001FF2C0036070038013F613B013F293A3A
:100E98009C01023F1A3803005B275D0044070038B5
:100EA80032045D071A3807006C69746572616C005A
:100EB8004F0700383C07373847071A380800736C63
:100EC80069746572616C570700383C07BA03C80338
:100ED8001A380038013F3C07FFFF1A3800387B3FBB
:100EE800013FBE38613B1A380038013F1A380038D4
:100EF8007B3F47071A38050061686561640062072F
:100F080000383C0729386D071A38020069667F07E0
:100F180000383C0730386D071A380400656C736573
:100F2800890700383C0729386D07BE3872071A3818
:100F380004007468656E9107003872071A38050056
:100F4800626567696E009C07003878071A380500E3
:100F58007768696C6500A30700388C07BE381A38B3
:100F68000600726570656174AB070038CD07A0078D
:100F78001A380500756E74696C00B4070038373884
:100F8800303847077B071A380500616761696E00CA
:100F9800BD0700383C0729387B071A380200646F00
:100FA800C80700383C07893A78074E3930081A389C
:100FB80004006C6F6F70D20700383C07B73A170807
:100FC8001A3805002B6C6F6F7000DC0700383C077F
:100FD800A83A17081A3805006C6561766500E507B8
:100FE80000383C07C23A840730081A3803003F64C7
:100FF8006F00EF0700383C0706088C07D507BE3896
:1010080030081A380038B23ED33FAB38F938303898
:101018000E08BB3EF038F7391A3807FF656E646C66
:101028006F6F7000FA0700387B072408B338303830
:101038002008A007293819081A3802FF6C3E110841
:1010480000384408733873383738FEFF4408533A79
:101058001A3802FF3E6C210800383738020044086D
:10106800533A440873387B381A3803FF6C703000E1
:101078002D0869388800813D8B3D02FF6C70390866
:101088004238770106FF637265617465410800386C
:1010980016077A083C074C381A3806FF68656164F9
:1010A800657246080038013FF938F938AB382239FB
:1010B80030386808AB38373800FF163ACC03F038B8
:1010C8004D3B4707F0381A383738F0FF673D07FFC0
:1010D800776C73636F7065005108E03D8600813D51
:1010E8008B3D06FF72657665616C6B080038373892
:1010F80073017338B3383038890837387501733855
:10110800293B4E39373873017B381A3806FF6C6132
:10111800746573747508423879010500646F6573E6
:101128003E008A0800383C07A9083C070E943C0793
:101138009E081A389A938A93CB0101967F916F91F2
:10114800BF93AF93DB010C9404380038F03837387C
:10115800750173384D3BF709293A613B1A3801FF8D
:101168003A00910800381607C108D3381A3807FF23
:101178003A6E6F6E616D6500B3080038013FAB3899
:101188008F087B383C070038D6081A3801003B0026
:10119800BB0800383C071A38DF087A081A3801FFFC
:1011A8005D00CA08003837380100A03E7B381A387D
:1011B80001005B00D30800384E39A03E7B381A384E
:1011C80008FF7661726961626C65DC080038123F5D
:1011D800F708373802001B3F1A3808FF636F6E7331
:1011E80074616E74E408003816077A083C074238C0
:1011F80047071A3804FF75736572F1080038160737
:101208007A083C07523847071A3807007265637531
:1012180072736500FE0800388F08733847071A385C
:1012280009FF696D6D6564696174650009090038B5
:10123800B8094D3BAB38BA3B3738FF7F0D3ABE385B
:10124800613B1A3806005B636861725D14090038F7
:101258003C073738CD0447071A38060061626F72B9
:10126800742226090038733E3C0749091A3805FFDD
:1012780061626F727400310900383738FFFF673DCB
:1012880006FF3F61626F72743B090038DB38303803
:101298004F09ED034009BB3E1A3809FF6765742DF5
:1012A800737461636B0044090038AB38823CBE3804
:1012B8004D3BAB38F9384E39BE38060830386F091F
:1012C800893A9A3A2F3AAD3EC93897394D3BBE38DC
:1012D8004539A83A6509BB3EF0381A3809FF7365E5
:1012E800742D737461636B0051090038B23E293B59
:1012F800BE384E39060830388709893A823CC33EE1
:10130800293BB73A8209D3381A3809FF6D61702D25
:10131800737461636B0072090038AB38823CBE3865
:101328004D3BAD3E893F06083038AD09893A9A3AB7
:101338004D3BBE38F93802392438B3383038A8095B
:10134800F038D338C23A1A38F03837380200A83A99
:101358009B09D3384E391A380BFF6765742D6375AE
:101368007272656E740089090038373866004D3B23
:101378001A3809FF6765742D6F7264657200B009C9
:10138800003837386A0058091A3807FF636F6D70DC
:1013980061726500BD09D009BF93AF938C01899133
:1013A8009991DC01899199919C0189919991FC010C
:1013B800ED90F190EF1451F40A9519F02A95C1F7C0
:1013C80001C02A95022B11F4882702C08FEF00C0B4
:1013D800982FAF91BF910C94043807FF6E66613E59
:1013E8006C666100C9090038DF06293AFE39973969
:1013F8001A380BFF7365742D63757272656E74000D
:10140800F109003837386600293B1A3808FF776F2A
:1014180072646C697374FD0900380A3F4E39C93823
:10142800293BAB38823C9C010B3F1A3804FF6F6E96
:101438006C790A0A00383738680037380100390AE9
:101448001A380EFF666F7274682D776F72646C6954
:1014580073741A0A69386400813D8B3D09FF73650E
:10146800742D6F7264657200250A003837386A0077
:1014780079091A380FFF7365742D7265636F676E8B
:10148800697A65727300320A003837387C00790946
:101498001A380FFF6765742D7265636F676E697A16
:1014A800657273003E0A003837387C0058091A38CC
:1014B80004FF636F64654D0A003816077A08013F18
:1014C800AE0147071A3808FF656E642D636F6465BF
:1014D8005C0A00383C070C943C0704381A3808FFAB
:1014E800286D61726B657229670A69388A00813DC7
:1014F8008B3D0800706F7374706F6E65730A0038E7
:101508009E05E005AE01AE01BA3B24381A380BFF40
:101518006170706C7475726E6B6579007D0A003845
:10152800D600893C66019E3FBA030A00466F727472
:0A153800686475696E6FED031A38E0
:10700000BF93AF93DB0111966EF0FD01EE0FFF1FF2
:10701000659175911196FB01EE0FFF1F059115917A
:10702000F8010994E89464EB7CE3F5CF04FF6578FC
:1070300069748B0A1B38AF91BF91E6CF07FF657863
:1070400065637574650016382538BC01899199917E
:10705000E2CF2A38FD01EE0FFF1FA591B591D4CFE5
:107060003138982B89919991A9F31196CDCF383861
:107070009A938A93FD01EE0FFF1F859195911196CA
:10708000C3CF42389A938A93FB013196EE0FFF1FCC
:1070900085919591B9CF4C389A938A93CB010196FB
:1070A000B3CF52389A938A93FB013196EE0FFF1FAC
:1070B00085919591840D951DA7CF07FF2876616C6A
:1070C000756529001E38003816077A083C076938AC
:1070D0001A380E949E08AB38AE01BA3B24381A38E1
:1070E00001FF40005D387438FC01819191918CCF93
:1070F00001FF210070387C38FC01899199919183BE
:1071000080838991999180CF02FF632178388838F4
:10711000FC018991999180838991999175CF02FFA2
:10712000634084389338FC01992780816DCF02FF3A
:1071300040758F380038F03A973973381A3802FFA3
:10714000217597380038F03A97397B381A3803FFA1
:10715000647570009F38AC389A938A9355CF04FFBA
:107160003F647570A738B438082F092B11F09A9333
:107170008A934ACF04FF73776170AF38BF388C01B0
:10718000899199911A930A933FCF04FF6F766572A4
:10719000BA38CA389A938A938A819B8135CF04FF83
:1071A00064726F70C538D438899199912DCF03FFDF
:1071B000726F7400CF38DC388C0129913991899134
:1071C00099913A932A931A930A931ECF03FF6E69FB
:1071D0007000D738EB38229617CF02FF723EE638A0
:1071E000F1389A938A938F919F910ECF02FF3E724E
:1071F000ED38FA389F938F938991999105CF02FFCB
:107200007240F63803399A938A938F919F919F9396
:107210008F93FACE02FF3C3EFF380038D33F14393B
:107220001A3802FF303D0A391539982BD1F530C094
:1072300002FF303C11391C3997FD2AC032C002FFD1
:10724000303E18392339821593055CF151F120C085
:1072500003FF64303E001F392D3982159305899153
:10726000999182059305ECF0E1F012C003FF6430C0
:107270003C0028393B39229697FD0C9448390C94F0
:10728000513904FF74727565363946399A938A9379
:107290008FEF9FEFB9CE01FF300041394F399A93FC
:1072A0008A93C101B1CE02FF753C4B395739299100
:1072B000399182179307A8F3A1F3EACF02FF753E35
:1072C00053390038BE3856391A3801FF3C005E3950
:1072D000693929913991281739071CF7D9CF01FF4E
:1072E0003E00653973392991399128173907CCF255
:1072F000C1F2CECF04FF6C6F67326F397F39FC016A
:10730000992780E18A9522F0EE0FFF1FD8F77CCEF7
:107310009A957ACE01FF2D007A398E39099119910B
:10732000081B190BC80170CE01FF2B008A39983950
:1073300009911991800F911F67CE02FF6D2A943930
:10734000A1398C01899199919C0131027001209F92
:10735000C0013003F308900DE11CF31C1203F30885
:10736000900DE11CF31C9A938A93C7014DCE06FF42
:10737000756D2F6D6F649D39BD397C0129913991EF
:107380000991199140E15527000F111F221F331F4A
:10739000551F2E153F05520518F003952E193F096C
:1073A0004A9589F73A932A93C8012ECE03FF756D4B
:1073B0002A00B739DB398C0189919991809FF001BE
:1073C00022273327909FF00D211D331D819FF00D43
:1073D000211D331D919F200D311DCF019A938A935A
:1073E000C90112CE06FF696E76657274D639F83916
:1073F0008095909509CE02FF322FF239FF3995958D
:10740000879502CE02FF322AFB39063A880F991F70
:10741000FBCD03FF616E6400023A0E3A09911991A7
:1074200080239123F1CD02FF6F72093A173A099137
:107430001991802B912BE8CD03FF786F7200133ADE
:10744000213A0991199180279127DECD02FF312B36
:107450001C3A2A3A0196D8CD02FF312D263A303A0D
:107460000197D2CD06FF6C73686966742C3A383A7E
:10747000FC018991999131971AF0880F991FFBCFE0
:10748000C3CD06FF727368696674323A473AFC01ED
:107490008991999131971AF096958795FBCFB4CD44
:1074A00002FF2B21413A543AFC01899199912081A4
:1074B0003181820F931F8083918389919991A4CD0B
:1074C00003FF72704000503A653A9A938A938DB7E1
:1074D0009EB79ACD03FF72702100603A6F3A2FB7C2
:1074E000F8948DBF9EBF2FBF899199918DCD03FFD9
:1074F000737040006A3A7C3A9A938A93CE0184CDA5
:1075000003FF73702100773A853AEC0189919991D4
:107510007BCD8A3A29913991E0E83E0F821B930B8B
:107520003F932F939F938F93899199916DCD01FFF5
:107530006900803A9B3A9A938A938F919F91EF9139
:10754000FF91FF93EF939F938F938E0F9F1F5CCDBF
:10755000A93AEF91FF91E80FF91F899199911BF0DA
:10756000FF93EF9377CD0F911F9111964DCDB83AC0
:10757000EF91FF913196BBF3F3CF06FF756E6C6F01
:107580006F70973AC33A1F910F911F910F913CCDA5
:1075900006FF636D6F76653EBD3ACE3ABF93AF93FB
:1075A000E991F991A991B991092F082B41F0E80FC0
:1075B000F91FA80FB91F1E9112930197E1F7AF9120
:1075C000BF918991999120CD02FF3E3CC83AE83A9B
:1075D000092F982F802F18CD03FF75704000E43AD3
:1075E000F13A9A938A93C2010FCD03FF757021007F
:1075F000EC3AFA3A2C018991999106CD03FF316D4D
:107600007300F53A033BE0EAFFE03197F1F7FCCC79
:1076100003FF323E7200FE3A0D3BFC0189919991C5
:107620009F938F93FF93EF9389919991EDCC03FFF3
:1076300032723E00083B1C3B9A938A93EF91FF9174
:107640008F919F919A938A93CF01DECC02FF21659F
:10765000173B2A3BFC01899199912FB7F89428D0C8
:1076600000B5081709F00BD0319622D000B50917E4
:1076700011F0892F04D02FBF89919991C5CCF99928
:10768000FECF07B700FDFDCFF2BDE1BD80BDFA9A88
:10769000F99A089502FF4065263B4E3B2FB7F894B8
:1076A000FC0106D080B5319603D090B52FBFACCC8D
:1076B000F999FECFF2BDE1BDF89A089502FF216964
:1076C0004A3BE03D6000813D8B3D09FF2821692D4B
:1076D0006E72777729005E3B6D3B1FB71F93F8945E
:1076E0009C0189919991AF93BF93CF93DF9309D078
:1076F000DF91CF91BF91AF91899199911F911FBF58
:1077000083CC11D0E094F0948E219F21982B21F00E
:10771000B394F90102E020D0F90104E01DD0F90191
:1077200000E11AD00895F901E07CFF7FEF01A0E4A9
:10773000B0E0FE01EE0FFF1F45915591FE01E217EB
:10774000F30711F00A0102C07A010C01002704D0EE
:107750002196119771F70895F999FECF17B710FD8B
:10776000FDCFEE0FFF1F016007BFE895089502FFF0
:107770004069653BBB3BFC01EE0FFF1F8591959176
:1077800043CC03FF6E3E7200B73BC63BFC01082FA3
:10779000899199919F938F930A95D1F7EF93FF93D6
:1077A0008991999131CC03FF6E723E00C13BD83B69
:1077B0009A938A93FF91EF910E2F8F919F919A93B5
:1077C0008A930A95D1F7CF011FCC03FF64322A00B8
:1077D000D33BEA3B09911991000F111F881F991F94
:1077E0001A930A9311CC03FF64322F00E53BF83B58
:1077F0000991199195958795179507951A930A936D
:1078000003CC02FF642BF33B053C29913991E990AD
:10781000F99049915991240F351F8E1D9F1D3A9360
:107820002A93F2CB02FF642D013C163C2991399139
:10783000E990F99049915991421B530BE80AF90AD2
:107840005A934A93C701E0CB07FF64696E7665726D
:107850007400123C2B3C09911991809590950095EC
:1078600010951A930A93D0CB04FF2F6D6F64243CBC
:10787000393C9C0109911991412F432717FF04C0FE
:10788000109500950F5F1F4F37FF04C0309520956E
:107890002F5F3F4FEE24FF1851E1001F111F5A9533
:1078A00039F447FF04C0109500950F5F1F4F0BC0C0
:1078B000EE1CFF1CE21AF30A20F4E20EF31E889479
:1078C000ECCF0894EACFFA92EA92C8019DCB03FF6D
:1078D00061627300343C6C3C99231AF48095909556
:1078E000019692CB04FF7069636B673C0038293ABC
:1078F000AD3E7B3A973973381A3805FF63656C6C77
:107900002B00723C833C02967FCB04FF2B696E7484
:107910007D3C8A3C789478CB04FF2D696E74853C5D
:10792000913CF89471CB04FF696E74218C3C003853
:10793000373800009739293B1A3804FF696E7440C4
:10794000933C00383738000097394D3B1A3808FF10
:10795000696E742D747261709D3CAE3C809316010B
:1079600089919991689450CB003837381601923834
:107970003738000097394D3B2438BF3C1A38C03C9B
:1079800001D042CB18950038BA030300206F6B007A
:10799000ED031A380038BA0302003E20913FED0390
:1079A0001A380038BA030400203F3F20ED03A63EFA
:1079B0007338F938313F6F03CB3E73386F03F038BB
:1079C000A63E7B381A3804FF71756974A73C0038ED
:1079D0003D0844087B38B805843AC5056E3ADF088F
:1079E000A03E733814393038F63CCA3CC5043038F0
:1079F000F03C37380806513DB3383038083DAB38D5
:107A00003738FEFF68393038063DD13C2938E83C2C
:107A1000C33C2938F03C1A3805FF70617573650066
:107A2000E33CE03D7B01953D9F3D04FF636F6C644B
:107A30000C3D1A3DA4B62224332424BEE0E0F1E03C
:107A40002192E030E9F7FB30D9F7EDE7F1E02F01C3
:107A50000FEF0DBF04831AE01EBF1583CFEAC68364
:107A6000DAE0D783AAE3BDE3CFCA04FF7761726D82
:107A7000153D00388C02373881013738113DC03D43
:107A8000DF084C3FE73C1A3807FF68616E646C659D
:107A90007200353D52380A0005FF63617463680067
:107AA000443D00387B3AF9384A3D7338F938643A36
:107AB0004A3D7B382438F0384A3D7B38F038D3389B
:107AC0004E391A3805FF7468726F77004C3D0038E4
:107AD000AB38143930386E3DD3381A384A3D7338D4
:107AE0006E3AF0384A3D7B38F038BE38F938843A7F
:107AF000D338F0381A3807FF456465666572400070
:107B0000623D0038BA3B4D3B1A3807FF4564656655
:107B1000657221007B3D0038BA3B293B1A3807FFCC
:107B20005264656665724000853D0038BA3B733823
:107B30001A3807FF52646566657221008F3D003870
:107B4000BA3B7B381A3807FF55646566657240009A
:107B5000993D0038BA3BF03A973973381A3807FF25
:107B60005564656665722100A33D0038BA3BF03A62
:107B700097397B381A3806FF646566657221AF3D18
:107B80000038C03FAB38AE01AE01BA3B24381A38DA
:107B900006FF646566657240BB3D0038C03FAB3888
:107BA000AE01BA3B24381A3807FF2864656665724F
:107BB0002900C83D003816077A083C07E03D1A380E
:107BC0000E949E08AB38AE01BA3B243824381A38DC
:107BD00002FF643DD43D0038153C163A14391A387A
:107BE00002FF752EE83D00384E3977031A3803FF3F
:107BF000752E7200F03D00384E39BE3880031A38B9
:107C000005FF752F6D6F6400F73D0038F9384E3968
:107C1000F038BC391A3806FF6E6567617465003E3E
:107C20000038F739293A1A3801FF2F000B3E003887
:107C3000383CEA381A3803FF6D6F6400143E003890
:107C4000383CD3381A3803FF6D696E001B3E00388C
:107C5000B23E723930382D3EBE38D3381A3803FF61
:107C60006D617800233E0038B23E68393038393EC5
:107C7000BE38D3381A3806FF77697468696E2F3EAC
:107C80000038C9388D39F9388D39F03856391A38F5
:107C90000DFF73686F772D776F72646C6973740072
:107CA0003B3E00383738573EBE38C4061A380038D5
:107CB000DF06ED039E3F45391A3805FF776F726482
:107CC0007300483E003837386C004D3B513E1A383F
:107CD00002002E225D3E0038733E3C07ED031A3849
:107CE00002007322683E0038373822007005A03E3B
:107CF000733830387C3E68071A3804FF66696C6C4C
:107D0000703E0038DB38DB38B33830388E3E893F80
:107D1000893AAB389A3A8738B73A893ED3381A3815
:107D200005FF665F637075007D3E003837380024BC
:107D30003738F4001A3805FF737461746500903E9B
:107D40004238A30104FF626173659B3E52380C0008
:107D500005FF63656C6C7300A23E063A04FF326453
:107D60007570A83E0038C938C9381A3805FF326422
:107D7000726F7000AE3E0038D338D3381A3804FF23
:107D80007475636BB63E0038BE38C9381A3803FFC5
:107D90003E696E00BF3E5238180004FF23746962CA
:107DA000C73E4238A50103FF70616400CD3E003834
:107DB000123F3738640097391A3804FF656D6974CB
:107DC000D33EE03D0E00A93DB53D05FF656D6974EC
:107DD0003F00DD3EE03D1000A93DB53D03FF6B6572
:107DE0007900E53EE03D1200A93DB53D04FF6B651D
:107DF000793FEE3EE03D1400A93DB53D02FF6470C1
:107E0000F63E69385800813D8B3D05FF6568657217
:107E10006500FE3E69385C00813D8B3D04FF68656E
:107E20007265053F69385A00813D8B3D05FF616CE5
:107E30006C6F74000E3F0038123F97399C01133F5E
:107E40001A3803FF62696E00163F003837380200A7
:107E5000A63E7B381A3807FF646563696D616C0064
:107E6000213F003837380A00A63E7B381A3803FF16
:107E7000686578002B3F003837381000A63E7B3805
:107E80001A3802FF626C373F4238200007FF7475D2
:107E9000726E6B657900413FE03D5E00813D8B3D38
:107EA00007FF746F757070657200463F0038AB381D
:107EB0003738610037387B00403E3038623F373812
:107EC000DF000D3A1A3807FF746F6C6F7765720028
:107ED000503F0038AB383738410037385B00403E00
:107EE0003038753F37382000163A1A3806FF3F738E
:107EF0007461636B633F0038D0051B393038833FB2
:107F00003738FCFF673D1A3806FF626F756E647381
:107F1000763F0038C9389739BE381A3802FF637285
:107F2000843F003837380D00E13E37380A00E13E23
:107F30001A3805FF7370616365008E3F0038443F57
:107F4000E13E1A3806FF737061636573993F00382C
:107F50004E39333EAB383038B13F9E3F2F3A293847
:107F6000AA3FD3381A3803FF733E6400A23F00389B
:107F7000AB381B391A3805FF3E626F647900B33F96
:107F80002A3A0800326C69746572616CBB3F003834
:107F9000BE383C07373847073C07373847071A3899
:107FA00001FF3D00C13F00388D3914391A3801FFF7
:107FB0003100D03F4238010001FF3200D73F423844
:0C7FC000020002FF2D31DC3F4238FFFFC1
:00000001FF
