:020000040000FA
:0600000002011A02225D5C
:03002B0002299F08
:030033000229811E
:030053000222D3B3
:03006B000229580F
:100083000220B3E5C754F84401F5C7790122000003
:100093000080FB120086B90003020104E479217891
:1000A30008B800028004F709D8FCE479297802B87B
:1000B30000028004F709D8FCE4900281788A79135E
:1000C3008002F0A3D8FCD9FA781A90014A7A01BACF
:1000D30000028007E493A3F608DAF97A0A7B159005
:1000E300014B780879048015E493A3AD82AE838A2B
:1000F300828B83F0A3AA82AB838D828E83D8E9D9C6
:10010300E77582C87583B1740312012C75829175EA
:100113008300740012012C75D00075813F7518811E
:10012300751902759F00020096C09FF59FE473D076
:100133009F22D083D082C09FE493C0E0740193C018
:10014300E0740293F59F2201FF0000B40000280031
:100153002800283075A000A000A000A0000008001F
:1001630008E001F000100010001000100010001053
:100173000050005000500010001000D00700000095
:100183000000000F0001000500307507001000019A
:100193000081FF00000000FFFFFF740692067A064D
:1001A300B606FF02020208025000A0000000E803A6
:1001B30002B882010000A58202B282010000651527
:1001C30002AA82010000BF0202B28201000066158A
:1001D30002A882010000D50202B282010000671565
:1001E30002B682010000D70202B282010000681544
:1001F30002C082080000D80202B282010000691521
:1002030002C8820100006A15FF0100FF2002B882C4
:100213000100009F8202B282010000CE1502CA8251
:10022300000000000002AC82030000060317002256
:100233000D220D220D220D220D220D220D220D2243
:100243000D220D220D220D220DDA0FEC0FD40F0219
:100253000202020202020202010D0000001001026A
:10026300B882010000A28202B282010000111602CC
:10027300E282010000230702B2820100001216028B
:10028300D6820100006A8102B282010000131602C5
:10029300D4820100004F8102B282010000141602D1
:1002A300D282010000978002B2820100001516027B
:1002B300D082010000DF8002B28201000016160224
:1002C300CC82010000CD8002B28201000017160229
:1002D300C682010000BB8002B28201000018160230
:1002E300C482010000418102B2820100001916029A
:1002F300C2820100001A1601E8030577100AFFFF06
:10030300FF00013075030201060000000000000039
:1003130000000000000000000000000000000000DA
:100323000000000000FFFF0600800CE803140953DF
:10033300696D706C65424C45506572697068657291
:10034300616C051250002003020A00020106030239
:10035300F0FF53696D706C6520424C452050657207
:100363006970686572616C781400007E140A4368D2
:100373006172616374657269737469632031000229
:10038300436861726163746572697374696320326F
:1003930000084368617261637465726973746963A9
:1003A300203300104368617261637465726973740A
:1003B3006963203400024368617261637465726922
:1003C3007374696320350002B882010000D1810291
:1003D300B2820100002F1702DA82030000FF140229
:1003E300B082010000301702B282010000411702FF
:1003F300DC82010000001502B082010000421702F6
:10040300B282010000531702DE82020000011502CE
:10041300B082010000541702B28201000065170286
:10042300E082000000021502AC8203000003150203
:10043300B082010000661702B28201000077170242
:10044300CE82040000051502B08201000078171265
:1004530001351B8C031201352E8C031201355F8C81
:1004630003120135998C03120135F28C0312013505
:10047300398D03120135818D03120135B08D0312BD
:100483000135DF8D03120135168E031201355D8EA2
:1004930003120135768E03120135CB8E031201351B
:1004A300E48E03120135328F031201356C8F031270
:1004B300013501AB0212013504AC021201353DAC2A
:1004C3000212013560AC0212013572AC0212013521
:1004D300B0AC021201352CAD02120135F4AD02129B
:1004E300013516AE02120135ADAE02120135FFAE73
:1004F3000212013530AF021201353DAF0212013550
:10050300A7AF02120135FEAF0212013501B002128C
:1005130001353AB0021201353DB00212013547B040
:10052300021201359BB002120135DCB00212013513
:100533000FB1021201354CB1021201354EB2021253
:100543000135F2B2021201355BB30212013599B3E0
:10055300021201353A840312013562840312013514
:100563008F8403120135C7840312013525850312D5
:100573000135718503120135D885031201351886BB
:1005830003120135558603120135838603120135A3
:100593002D87031201353787031201354487031270
:1005A30001357787031201358387031201359B8752
:1005B30003120135A5870312013596AE03120135E7
:1005C300A4AE03120135BCAE03120135D3AE031240
:1005D3000135FAA601120135A4A701120135B7A806
:1005E3000112013533A90112013551AA0112013556
:1005F3008DAA0112013528AB011201350CAC011291
:100603000135D8AC0112013566AE01120135D7AE02
:100613000112013591AF0112013583B00112013589
:10062300C3B00112013577B101120135A9B101122D
:1006330001359FB301120135E1B301120135FFB357
:100643000112013565B40112013534B501120135CA
:10065300F8B50112013517B801120135CACB0212E0
:100663000135B4CC021201355FCD02120135B0CD94
:100673000212013560CE02120135D1CE02120135CC
:10068300B6CF02120135EACF02120135E3D00212CE
:10069300013520D102120135FCD1021201353BD2C2
:1006A3000212013557D2021201351DA10312013581
:1006B300A1A103120135CCA103120135E6A2031255
:1006C30001353388031201354988031201356788E0
:1006D300031201357889031201358289031201352A
:1006E300AD8A03120135A48B03120135118C031259
:1006F3000135B8D202120135E8D3021201351FD4F5
:100703000212013569D4021201352CD602120135C9
:10071300E68201120135728301120135D68401127A
:100723000135E284011201351D85011201358C85E5
:10073300011201359586011201359E87011201359B
:10074300658801120135C28901120135E089011260
:100753000135FD8901120135AA8A01120135278B62
:10076300011201354F8B01120135198E011201352A
:100773001E8E011201353790011201358590011249
:100783000135F590011201353391011201350F92B4
:1007930001120135CF92011201351B93011201356C
:1007A3001E9301120135629301120135AA930112BE
:1007B3000135E993011201350B94011201353F9480
:1007C30001120135A29401120135FBD70212013542
:1007D30009D8021201355CD8021201357BD8021206
:1007E3000135C0D80212013504DA021201359FDA4D
:1007F30002120135E3DA021201350DDB0212013573
:100803007CDB02120135C2DB0212013539DC021234
:100813000135EADC02120135D82900120135E82935
:1008230000120135892A00120135E52A001201352B
:10083300A22B00120135BE2C00120135F02C001240
:1008430001351F2D00120135CC2E00120135433125
:1008530000120135B33300120135A53400120135FE
:100863009E3500120135A53700120135993A001261
:100873000135C83B00120135CC3D00120135DC3E89
:10088300001201356B40001201355C410012013545
:10089300AA41001201351942001201353D420012EE
:1008A30001358E42001201352F47001201353048C1
:1008B30000120135914800120135BC480012013580
:1008C3008249001201350080031201350A800312A8
:1008D30001354F8003120135638003120135F38024
:1008E300031201352C81031201356781031201358F
:1008F300908103120135E48103120135F98103125A
:1009030001351B8203120135308203120135448203
:100913000312013559820312013593820312013503
:10092300BF82031201350883031201357A83031250
:100933000135BD8303120135E783031201351284A8
:100943000312013588AB03120135888D021201357C
:100953006B8E02120135E68E02120135218F0212CF
:100963000135729002120135009102120135929302
:1009730002120135449402120135509502120135D9
:10098300C396021201351C970212013525F4021297
:10099300013568F402120135ECF402120135C3F794
:1009A30002120135A99C031201355B9D0312013527
:1009B300579E03120135969E03120135F09E0312D2
:1009C3000135EFA40312013552A503120135EFA53A
:1009D3000312013524A60312013554A6031201356F
:1009E3008FA603120135AFA603120135D0E102121F
:1009F30001355CE2021201351BE30212013533E4D7
:100A0300021201354DE602120135D372001201358F
:100A1300F87200120135C573001201359974001282
:100A23000135067500120135467500120135E27570
:100A330000120135167700120135F17700120135E6
:100A4300507800120135DC78001201354A79001222
:100A53000135D679001201351C7A001201358E7AE0
:100A630000120135207B00120135C17B00120135D4
:100A7300E17B00120135297C00120135727C0012E2
:100A830001358E7C00120135B47C001201352E7DB8
:100A9300001201353C7D00120135CB7D001201357A
:100AA300347E0012013584E60212013509E7021291
:100AB30001354BE7021201352FE8021201359CE89C
:100AC30002120135E0E80212013524E90212013570
:100AD30051E90212013579E902120135B1E9021235
:100AE3000135EFE90212013516EA0212013590EAE7
:100AF30002120135DAEA0212013524B80112013576
:100B0300C3B901120135FBBB011201354FBC011200
:100B130001357ABC0112013556BD0112013586BD7E
:100B230001120135B5BD01120135C8BD01120135F0
:100B330009BE0112013536BE0112013584BE011210
:100B43000135C0BE0112013505BF0112013552BF87
:100B530001120135CCBF011201350DC2011201355D
:100B6300F7C30112013533C401120135C2C50112A5
:100B7300013507C6011201357AC601120135CFC608
:100B830001120135D4C6011201355EC701120135C8
:100B93007DC8011201358EC801120135C5970212B5
:100BA30001353E9802120135F89D02120135039F6B
:100BB30002120135ACA0021201353AA1021201352D
:100BC300BB5E001201353C5F00120135695F001204
:100BD3000135B25F00120135B360001201350C61BB
:100BE300001201358862001201350A6300120135D3
:100BF3002563001201359663001201355364001218
:100C03000135166500120135A465001201355B66D6
:100C1300001201356E6600120135076700120135B7
:100C23009E6700120135C567001201352E68001258
:100C33000135786800120135C668001201356D6907
:100C4300001201350B6A00120135986A0012013552
:100C5300096B00120135506B00120135A86B0012AD
:100C63000135DA6B001201359B6C001201359E6D64
:100C730000120135E76D00120135046E00120135D3
:100C8300236E00120135566F001201350D700012EC
:100C93000135327000120135477000120135B7700B
:100CA30000120135F870001201351C720012013573
:100CB3009D720012013564A102120135AFA1021227
:100CC3000135BBA1021201358FA202120135A6A282
:100CD30002120135E3A20212013514A302120135F7
:100CE3004CA302120135A2A302120135B8A30212CA
:100CF3000135F4A30212013507A4021201352EA413
:100D03000212013562A40212013588A502120135CF
:100D1300D2A602120135CEA702120135E4A80212AF
:100D23000135F57F001201353ED7011201356DD72C
:100D330001120135BFDA0112013516DC011201354A
:100D4300D5DC011201353CE00112013528E1011225
:100D530001357AE10112013594E101120135C6E151
:100D630001120135D1E101120135DAE10112013538
:100D73008CE2011201355CE301120135A3E3011298
:100D8300013509E4011201357BE4011201357A953D
:100D930001120135BA9801120135C09801120135CB
:100DA3007F9F01120135A4A301120135D48F0312D1
:100DB30001356A9003120135809003120135D990F1
:100DC300031201351D9103120135579103120135A9
:100DD300EF91031201355E920312013567920312FC
:100DE30001357392031201358D9203120135B792C7
:100DF30003120135CC92031201352E9303120135F0
:100E030055930312013575F80212013582F8021267
:100E130001359CF802120135CFF8021201350DF9A4
:100E23000212013572F90212013587F902120135F6
:100E330092F9021201359FF902120135B6F9021235
:100E43000135C4F902120135CFF902120135DBF97C
:100E530002120135EAF902120135F5F902120135E0
:100E630018FA02120135BCFA02120135CCFA021249
:100E73000135E6FA0212013503FB021201351EFBAE
:100E83000212013543FB021201354EFB02120135FA
:100E930063FB0212013577FB02120135D8FB021204
:100EA3000135DEFB02120135E4FB02120135EAFBD8
:100EB3000212013502FC0212013535FC0212013522
:100EC3000580021201359C80021201353481021221
:100ED30001352482021201355B82021201356E82D2
:100EE30002120135DC8202120135778402120135C8
:100EF3009E84021201354085021201357585021266
:100F03000135868502120135FF85021201352086DF
:100F1300021201353886021201359087021201351B
:100F2300998902120135E98B02120135EC8C021208
:100F330001353B8D02120135B1C801120135AEC92D
:100F43000112013599CA01120135A3CA01120135F3
:100F5300C5CA01120135D1CA0112013523CC0112D0
:100F6300013552CC0112013582CD01120135C4CDB8
:100F730001120135F0CE01120135C6CF0112013540
:100F830018D00112013577D001120135AED001120C
:100F93000135E9D00112013584D4011201359DD404
:100FA300011201351FD5011201352DD5011201356D
:100FB30082D50112013590D501120135FDD50112FB
:100FC30001356FD601120135B5D60112013505F48D
:100FD3000112013527F40112013511F60112013511
:100FE300B6F901120135F9FA01120135D3FB0112E9
:100FF3000135BDA603120135E2A60312013553A73D
:1010030003120135BFB302120135C8B30212013511
:10101300D1B30212013502B50212013521B7021212
:10102300013557B70212013591B702120135C7B71F
:101033000212013501B80212013535B80212013529
:1010430061B802120135AAB802120135E4B80212DE
:1010530001352CB90212013582B902120135B7B933
:101063000212013512BA021201354CBA02120135CD
:101073009DBA02120135D3BA021201350DBB021219
:1010830001353BBB021201355EBB0212013517B0BD
:101093000312013543B0031201359EB0031201352B
:1010A300A8B003120135B8B0031201351797031224
:1010B30001353E970312013568970312013520B2BB
:1010C30003120135EE4900120135564C0012013569
:1010D300094E00120135664E00120135634F0012AE
:1010E3000135F34F001201357850001201359D5040
:1010F300001201359553001201350B5400120135CE
:10110300FC54001201353655001201357655001294
:1011130001351C5700120135715700120135BE57B6
:10112300001201352C5800120135535800120135B5
:101133006D5800120135835900120135935900127D
:1011430001351F5B00120135415B00120135775BEE
:1011530000120135255D00120135645D0012013571
:10116300965E001201351AEB0212013572EB021280
:101173000135BAEC0212013529ED02120135D8ED21
:1011830002120135F7ED021201354BEE0212013561
:1011930089EE0212013563AF0312013574AF0312F6
:1011A30001356AB203120135A9B203120135A3B3A3
:1011B3000312013515FF0112013525FF0112013517
:1011C3003AFF01120135ECFF011201359CAC031209
:1011D300013520AD0312013586AD0312013573A825
:1011E300031201359CA80312013502A9031201352C
:1011F30021A90312013575A903120135CEA90312E2
:10120300013509AA031201350CAA03120135B7FCF3
:1012130002120135CCFC02120135F0FD0212013538
:101223005AFE02120135CEFE02120135E8FE021209
:101233000135FFFE0212013512FF021201352AFFAA
:10124300021201353FFF0212013560FF0212013520
:10125300B1FF02120135E6FF02120135F6FF021259
:101263000135F9FF02120135F87F0012013515A38C
:10127300031201358BA403120135ECA403120135CB
:1012830016AA031201353FAA0312013568AA0312F5
:10129300013501AB0312013543AB03120135ECBB3E
:1012A30002120135F6BB0212013536BC02120135BA
:1012B3007FBC02120135B9BC021201350FBD021207
:1012C30001352EBD02120135B3BF02120135BCBF79
:1012D300021201350DC00212013536C0021201356A
:1012E3004BC002120135BBC00212013549C10212C3
:1012F30001358DC102120135B5C10212013534C267
:101303000212013577C202120135B4C2021201354D
:10131300C6C202120135E5C202120135EEC2021243
:101323000135B8C302120135577E00120135A87E7C
:1013330000120135317F00120135977F001201350C
:10134300E599031201350F9A03120135099B031224
:101353000135389B03120135BE9B031201359FAD46
:10136300031201351B9F03120135519F03120135EF
:101373008A9F03120135E3A003120135C2B00312A1
:101383000135D8B003120135E2B00312013538B18B
:101393000312013569B103120135E4C302120135A9
:1013A300A1C402120135DCC40212013504C50212C4
:1013B300013566C502120135B2C50212013512C6E6
:1013C30002120135A3C6021201359FC7021201356D
:1013D3002CC902120135AFC90212013513CA021218
:1013E30001352ACA0212013520CB021201356CCB1A
:1013F30002120135A4EF02120135B9EF02120135D1
:1014030069F002120135A9F002120135C2F002128D
:101413000135F5F00212013542F10212013576F180
:1014230002120135B8F102120135BFF30212013580
:10143300CAE50112013581E90112013513EB0112ED
:1014430001356AEB0112013589EB0112013507EC15
:101453000112013599ED011201357DEE01120135BD
:101463008EF20112013562F301120135FCDC021226
:1014730001352FDF02120135F1DF021201356EE172
:1014830002120135839303120135EB9303120135E5
:10149300089403120135D3940312013526950312E0
:1014A3000135099603120135B3B20312013530B386
:1014B30003120135F9B2031201355CB3031201358E
:1014C30085B303E066701008A3E066700A08A3E022
:1014D30066700408A3E06622C3E7960809E7960846
:1014E30009E7960809E79622C3E09608A3E0960861
:1014F300A3E09608A3E09622C008C3E096F5080887
:10150300A3E096420808A3E096420808A3E09645A4
:10151300087001D3D00822080808EAC0E0EBC0E055
:1015230086F0E7A4FA180986F0E7A42AFA180986D0
:10153300F0E7A42AFA180986F0E7A42AFA1986F034
:10154300E7A4FBE5F02AFA190886F0E7A42BFBE5EC
:10155300F03AFA190886F0E7A42BFBE5F03AFA18FB
:10156300180986F0E7A4C5F02BFBE43AFA1908E75B
:10157300C5F0C6A426F6E5F03BFBE43AFA1886F07C
:10158300E7A4F6E5F00826F6E43B08F6E43A08F6A5
:10159300D0E0FBD0E0FA22E4CFC0E0E4CEC0E0E448
:1015A300CDC0E0E4CCC0E075F020E626F608E633D3
:1015B300F608E633F608E633F6181818EC33FCEDB4
:1015C30033FDEE33FEEF33FFC3EC9709ED9709EEDE
:1015D3009709EF97191919400FFFEC97FC09ED973D
:1015E300FD09EE97FE191906D5F0BFECF709EDF7E3
:1015F30009EEF709EFF7191919D0E0FCD0E0FDD097
:10160300E0FED0E0FF226016080808C6C313C61820
:10161300C613C618C613C618C613C6D5E0EA227089
:1016230009080808226016181818C6C333C608C666
:1016330033C608C633C608C633C6D5E0EA22E62752
:10164300F60809E637F60809E637F60809E637F635
:1016530022E026F608A3E036F608A3E036F608A350
:10166300E036F622E026F008A3E036F008A3E036E1
:10167300F008A3E036F022C3E697F60809E697F6EA
:101683000809E697F60809E697F622C3E096F008FC
:10169300A3E096F008A3E096F008A3E096F022E01A
:1016A30056F608A3E056F608A3E056F608A3E0565C
:1016B300F622E056F008A3E056F008A3E056F0083F
:1016C300A3E056F022E0F608A3E0F608A3E0F6084C
:1016D300A3E0F622E6F008A3E6F008A3E6F008A3E9
:1016E300E6F022E0FAA3E0FBA3E0FCA3E0FD22E0A6
:1016F300F8A3E0F9A3E0FAA3E0FB22E8F0A3E9F002
:10170300A3EAF0A3EBF022CAC0E0E6F0A308DAFAFA
:10171300D0E0FA22CAC0E0E0A3C582CCC582C5836B
:10172300CDC583F0A3C582CCC582C583CDC583DA7D
:10173300E6D0E0CA22C3E498F8E499F91217798055
:1017430026C3E49AFAE49BFBE920E7E9121779E45C
:1017530098F8E499F922C3E498F8E499F91217790F
:10176300E498F8E499F9C3E49AFAE49BFB22EB20AA
:10177300E7CFE920E7E0B90010BB0008E88AF0846E
:10178300F8AAF022E4FBC8FA22EB70227B10C833DC
:10179300C8C933C9335007C39AC3DBF280069A50D2
:1017A300012ADBEAC833F4C8C933F4C9FA2275F055
:1017B30008E4C833C8C933C933C99AC99B5004C99B
:1017C3002AC93BD5F0ECFBC833F4C8E4C9FA22605C
:1017D3000D08C6A2E713C618C613C6D5E0F32260E8
:1017E3000C08C6C313C618C613C6D5E0F42270048A
:1017F30022600D18C6C333C608C633C6D5E0F41835
:1018030022251810AF08F518400C15198008F51893
:1018130040021519D2AF2200C0D0251810AF08F529
:1018230018500C05198008F51850020519D2AFD0CD
:10183300D0222518F58210AF08F518400C15198031
:1018430008F51840021519D2AF851983222518F51A
:1018530082E43519F583222518F8E43519F9222590
:1018630018FAE43519FB222518FCE43519FD22E4A6
:10187300732518C582C0E0E51934FFC583C0E0E5D0
:1018830018C3958224F810AF0885831985821880C0
:1018930008858319858218D2AFCEF0A3E520F0A383
:1018A3007808E608F0A3DEFAEFF0A3E58124FAF85E
:1018B300E608F0A3E608F0A3E608F0A30808E608A4
:1018C300F0A3E608F0A315811581D0E0FED0E0F87F
:1018D300158115811581E8C0E0EEC0E0222518C509
:1018E30082C0E0E51934FFC583C0E0E518C39582E3
:1018F30024F910AF08858319858218800885831918
:10190300858218D2AFCEF0A3E520F0A37808E608CD
:10191300F0A3DEFAEFF0A3E58124FBF8E608F0A3D9
:10192300E608F0A30808E608F0A3E608F0A315818B
:101933001581D0E0FED0E0F815811581E8C0E0EE16
:10194300C0E022851983851882E0A3FEE0A3F52079
:101953007808E0A3F608DFFAE0A3FFE0A3C0E0E025
:10196300A3C0E0E0A3C0E0E0A3C0E0E0A3C0E010B8
:10197300AF088582188583198008858218858319A5
:10198300D2AFD083D082020132851983851882E0D9
:10199300A3FEE0A3F5207808E0A3F608DFFAE0A3AE
:1019A300FFE0A3C0E0E0A3C0E0E0A3C0E0E0A3C089
:1019B300E010AF0885821885831980088582188511
:1019C3008319D2AFD083D08222C0D02518C582C05C
:1019D300E0E51934FFC583C0E0E518C3958224F31D
:1019E30010AF08858319858218800885831985823D
:1019F30018D2AFC8F0A3E9F0A3EAF0A3EBF0A37900
:101A030008E709F0A3D8FAECF0A3EDF0A3EEF0A3F6
:101A1300EFF0A3D0E0F0A3D0E0F0A3D0E0F0A3E593
:101A230020F0A3E5F0F0A322851983851882E0C096
:101A3300E0A3E0F9A3E0FAA3E0FBA37808E0F6084B
:101A4300A3DFFAE0FCA3E0FDA3E0FEA3E0FFA3E035
:101A5300C0E0A3E0C0E0A3E0F5D0A3E0F520A3E05D
:101A6300A3F5F010AF088583198582188008858354
:101A730019858218D2AFD082D083D0E0F8D0E0327B
:101A830074048006740280027401C0E0F404121826
:101A930035D0E012170A227404800474028000CC4B
:101AA300C0E0EDC0E0E518C39CCCAD1950011D109A
:101AB300AF068C188D1980068C188D19D2AF1217AA
:101AC30017D0E0FDD0E0FC22D083D082E9C0E0E46F
:101AD30093A3C386F0C5F095F0F908E493A386F0C9
:101AE300C5F095F0700BE493A3C3994005E9048016
:101AF30002A3E475F002A42582F582E5F03583F5AF
:101B030083D0E0F9E493A3C0E0E493C0E022D08360
:101B1300D082ECC0E0EDC0E0E493A3FCE493A3FD2A
:101B2300ED4C600D121B5DEC24FFFCED34FFFD80DA
:101B3300EFE493A3FCE493A3FDED4C600D121B9C17
:101B4300EC24FFFCED34FFFD80EFD0E0FDD0E0FCA2
:101B5300E493A3C0E0E493C0E022C0E0C3E493961F
:101B6300087401939618400FE49366700808740193
:101B730093661870007019A3A3C3E49396087401C5
:101B8300939618A3A3400DD0E0D0E0D0E0021B4D04
:101B9300A3A3A3A3A3A3D0E022C0E0C0F088F0E4F2
:101BA300936670080874019366187000A8F0A3A3E5
:101BB300700BD0F0D0E0D0E0D0E0021B4DA3A3D057
:041BC300F0D0E0225C
:101BC80074F61218E0EAFEEBFF8C088D09EE243457
:101BD800F8E43FF9E8FCE9FDEE2435121F02FAEEBD
:101BE8002437121F02F88508F0A4C885F00A850971
:101BF800F0A4250AF9EA28F8E439F97A257B0012D5
:101C08001779EA8C828D83F0FA131313541FF8EEB8
:101C180028F8E43FF9E8245DF582E439F583E0C06B
:101C2800E074075AF8D0E0B800028004C313D8FC67
:101C3800A2E0EE50082434F582E43F8018243612DE
:101C48001F02F5F0EA84A8F0EE28F8E43FF9E8244A
:101C580038F582E439F583E0F97F0302198C74F7CB
:101C68001218E0EAFEEBFFEE2434121F02C0E0EE89
:101C78002435F582E43FF583D0E0F08E828F83A38C
:101C8800A3A3A3A3A3A3C082C0838E828F83A3A38D
:101C9800A3A3A3121D6BD083D082E0C398F508A339
:101CA800E099F509EE247F121F026401705DEE24AD
:101CB80080121D658E828F83A3A3A3A3A3A3A3125F
:101CC80020A58E828F83A3A3A3A3A3E0FAA3E0FB9E
:101CD800C3EA9CEB9D5010C3EC98ED99402DC3EAE4
:101CE80098EB995026800EC3EA98EB994007C3EC0D
:101CF80098ED9940167CB07D04EEFAEFFB120C6269
:101D0800EE247FF582E43FF583E4F0AC08AD09EEFC
:101D1800FAEFFB121BC8E9F912294A7F0202198C53
:101D2800C082C083851882851983121D6BC3EA9C03
:101D3800EB9D5010C3EC98ED99401BC3EA98EB99C2
:101D48005014800EC3EA98EB994007C3EC98ED99BC
:101D58004004790180027900D083D08222F582E4A0
:101D68003FF583E0F8A3E0F922EAC39CFAEB9DFB78
:101D78002274EF1218E0900376E064086005E064CE
:101D880007702A9061C8E060249003A4E0F4601D05
:101D9800E0F875F00AA4C8AAF02AF974A628FE7417
:101DA8000339FF8E828F83A3A3A3E07003021E87EB
:101DB800906060E0C0E0EE2468F582E43FF583D0EF
:101DC800E0F0750C20750D05750800750900E5D95A
:101DD80014F50AE5D95403F50E60127403650E6014
:101DE80043E50A600AEE2467121F027002807590AC
:101DF800051BE06401601F121EFF60047A04800264
:101E08007A00E50AC39AFA95E0FB120B0C8A088B54
:101E180009EA45097005120EA28064121EFF7004BB
:101E28008A0C8B0DE50A6012850C82850D83F50BF3
:101E3800E5D9F0A3150BE50B70F6121EFF6044748C
:101E4800FC250AF50A780C121A87AC0AA90EEEFAD4
:101E5800EFFB120D1C740212181AE97026AA08ABBF
:101E68000912132E793D8E828F83A3A3A3A3E0FAD0
:101E78007B0012096EEEFAEFFB120C86120D2E791A
:101E880000806F7403650E6051850A107511007823
:101E980010121A87AC0CAD0DAA08AB09120CE0742D
:101EA8000212181AEE2468121F0264807004747FEC
:101EB8008001E0F50C780C121A8BE50EF50C780C05
:101EC800121A8BA90AAC08AD099003A4E0FA7B00AA
:101ED800120944740212181A8013900376E06408F9
:101EE800600BAC0CAD0DEEFAEFFB120DA0120EAEAE
:101EF80079017F0A02198CEE2482F582E43FF5838A
:101F0800E02274F21218E074FC121804EAFEEBFFE7
:101F18008909A2AFE433F508C2AF021FC6E0601B0F
:101F2800780C121A87AC0BA90EEEFAEFFB120D16FD
:101F3800740212181A7404250BF50B7401250BF59D
:101F4800D9850ED9E50B6018F50A850C82850D83B5
:101F5800E0F5D9A385820C85830D150AE50A70EA98
:101F680075E195EE2463F8E43FF97A007B00A2AFAF
:101F7800E433F50BC2AF1220A1EC4D6032888289A0
:101F880083E0FAA3E0FB8A828B831220A5888289EA
:101F980083ECF0A3EDF08A828B83E4F0A3F01220A7
:101FA800A1EC4D700A88828983A3A3E4F0A3F0E52D
:101FB8000BA2E092AF12132E9004B7E004F0EE24C7
:101FC80063121D65E8496064EE2463121F0224024F
:101FD800F8A3E03400F988828983E5822402F50CAD
:101FE800E43583F50DE0F50BA3E0F50EEE2462125F
:101FF8001F02640170369061D0E0F8121EFF600481
:102008007C0480027C007480C398FA95E0FBE50BA1
:102018002CF8E43400F9E82402F8500109C3EA98DE
:10202800EB99A2D265D0334003021F259004B7E094
:10203800604D9004B8E0F89004B7E0C398500C7471
:10204800026509703A9004B9E060348E828F83A3E8
:10205800A3A3A3E08518828519831220977402121E
:102068001850E81220979004B6E028F0740212186D
:102078006AAA18AB1979011209989004B7E4F0E537
:1020880008A2E092AF740412181A7F0702198CF0A4
:10209800A3E4F09004B7E0F82288828983E0FCA3E7
:1020A800E0FD22008521878522C622C0E074EB125C
:1020B80019CCA2AFE433F508C2AF759B00906182DA
:1020C800E0A2E05030E591A2E0502A7591FE74013B
:1020D80065217021122246120DEE122234121A9A2C
:1020E8001226F4740412181AE964017005790112B1
:1020F8000E36121D79906182E0A2E5505DE591A24D
:10210800E550577591DF900376E064076005E06459
:1021180008702F12224674016521703E120DEE12CE
:102128002234121A9A1226F4740412181AE9640155
:1021380070057901120E367901EEFAEFFB121F0ACB
:102148008018E0640D7013900398E004F064287020
:1021580002E4F07A00E0F9120EB4906182E0A2E69F
:102168004003022209E591A2E64003022209759183
:10217800BF900376E064057008120DD6120DE28058
:1021880003120DDC752100120E42E9900377F079F5
:1021980000120E36120BD27A017B00900375E0F91B
:1021A8001212FE907803E06442705690051FE01406
:1021B800F0704EC2AF1221C000782AD0E0F618D0D5
:1021C800E0F6E59F5407F87005750DFF8003750D5F
:1021D8007FC4C0E07829E6F50A08E6550DF50B74CA
:1021E8000B780A1217E2D0E0250AF8906270E0A294
:1021F800E740F8E8C333906272F0906270E0D2E092
:10220800F0906181E0A2E35009E5E9A2E35003758B
:10221800E9F7A3E0A2E75009E591A2E75003759119
:102228007FE508A2E092AF7F08021A2B8E828F8387
:10223800E0F8A3E0C82416F582E438F58322900379
:10224800A4E0F875F00AA4C8AAF02AF974A628FE32
:10225800740339FF22C0E0C0D0C082C0839061837C
:10226800E0A2E05009E5BFA2E0500375BFFEE0A27E
:10227800E15009E5BFA2E1500375BFFDE0A2E250BD
:1022880009E5BFA2E2500375BFFBE0A2E35009E5F0
:10229800BFA2E3500375BFF7E0A2E45009E5BFA26F
:1022A800E4500375BFEFE0A2E55009E5BFA2E55091
:1022B8000375BFDFE0A2E65009E5BFA2E65003754B
:1022C800BFBFD083D082D0D0D0E032C0E074F21249
:1022D80019CCE5A7A2E6500FE5A1A2E6500953A73D
:1022E800BF75A1BF122327E5A7A2E5500CE5A1A25F
:1022F800E5500653A7DF75A1DFE5A7A2E15009E580
:10230800A1A2E1500375A1FDE5A7A2E2500CE5A149
:10231800A2E2500653A7FB75A1FB7F01021A2B749A
:10232800F71218E0752101900376E0640670151223
:102338000D528A828B83A3A3A3A3A3A3E0FAA3E0ED
:10234800FB120DC4A2AFE433FED2AF90037CE0646D
:102358000170187A207B00900375E0F91214187A3E
:10236800207B00900375E0F9121304906182E0D29B
:10237800E6F090051CE0602185C622801690037B5C
:10238800E064017008E5C654F84405F5C653BEFC80
:102398001220AC7401652160E4EEA2E092AF7F02E6
:1023A80002198C008E238F2485822885832785181F
:1023B80082851983E0CEA3E0CF852882852783EB29
:1023C800C9EAC8EDCBECCA75F010C3E833C8E933E5
:1023D800C9EA33CAEB33CBC3EA9EF526EB9FF52552
:1023E800B35004AB25AA26EC33CCED33CDD5F0DAC7
:1023F800AE23AF242274E91218E074FA121804EA22
:10240800FEEBFF8C0A8D0B120DFAEAF8EBF9ECFAE9
:10241800EDFB8E828F831216FE900376E024F7C3BD
:1024280094055006751401022564120D528A088B12
:1024380009EA45097003022561EEFCEFFDAA18AB15
:1024480019120DF4850882850983A3A3780C121646
:10245800C8908223780C1216A28518828519837871
:10246800101216C890822378101216A2780C7910D0
:102478001214DB501F780C791012167A90823F786C
:102488000C1214FB4047850C14850D15850E168516
:102498000F17804590823F851014851115851216F7
:1024A8008513177814790C12167A78141214FB50C5
:1024B8001C751400751500751600751701781479C8
:1024C8001012167A7814790C121641800C751401C2
:1024D8007515007516007517007409781412162200
:1024E80090828F780C1216C87814790C12159A8578
:1024F8000882850983A3A3A3A3A3A3122582121785
:1025080079880C890DE4F50EF50F7814790C1216FC
:10251800417404121850122582121779E8FA8A0CAD
:10252800E4F50D7814790C1214DB50077814790C43
:1025380012167A900376E06408600AE06406600583
:10254800E06405702090823B78141214FB501690BA
:1025580082377814121654800C751400751500759E
:102568001600751700850A82850B8378141216D712
:10257800740612181A7F1002198CE0F8A3E0F97A91
:10258800D07B032274F71218E0120E0C90051AE0A3
:1025980064017010906245E4F0A3F053F4F343FE35
:1025A8000C5390F3120DB2E5C654B84441F5C6E594
:1025B8009E5447644170F8906185740FF090051837
:1025C800E0F47002A3E0604E900519E06008146022
:1025D8001B14602E8040750801750900900518E0ED
:1025E80078081217F1E508F45280802A75080175F9
:1025F8000900900518E078081217F1E508F45290E0
:102608008014750801750900900518E078081217FC
:10261800F1E508F452A079007F0202198C74F712D0
:1026280018E0E9FEEAFF120E0C74016E700C7A8055
:102638007B00900375E0F91212FE9029D0E493F420
:102648006008E493F9120BC6800953C6B8E59E5496
:102658004770FA120DB890051AE064017003120B66
:10266800E4900518E0F47002A3E0604B900519E0CF
:10267800600814601A14602C803D75080175090003
:10268800900518E078081217F1E50842808028754F
:102698000801750900900518E078081217F1E50897
:1026A80042908013750801750900900518E07808B4
:1026B8001217F1E50842A0120D528A088B09A808E2
:1026C800A909E8496014E5E170FCE82414F582E4FE
:1026D80039F583E0F46003E0F5E174016F700A7A7C
:1026E80001900375E0F912138802262074F112187C
:1026F800E08A088B098C0A8D0B90822378081216C1
:10270800A2740F121850780C1216C8908223780CF5
:102718001216A27808790C1214DB90823F501078B8
:1027280008790C12167A78081214FB4014800E7877
:102738000C790812167A780C1214FB50047901806F
:102748000279007F0802198C74ED1218E08A088B50
:10275800098C0A8D0B90822378081216A274131222
:102768001850780C1216C8908223780C1216A2788A
:102778000C79081214DB40117808790C12167AAA21
:1027880008AB09AC0AAD0B802275100075110075F5
:1027980012007513017810790C12167A78107908DE
:1027A800121641AA10AB11AC12AD137F0C02198C92
:1027B80090822378081216C88A828B8378081216AA
:1027C800B57F0402198C74F51218E08C828D837819
:1027D800081216C88A828B83780812168E12282649
:1027E800C3E09CF0A3E09D122818402290825B78F9
:1027F800081216C88A828B8378081216678A828B19
:1028080083A3A3A3A3E02420F0A3E0344EF080A088
:10281800F088828983C3E09420A3E0944E22EA24BE
:1028280004F8E43BF98C828D83A3A3A3A3E0FCA363
:10283800E0FD888289832274F51218E0E9FE90048D
:10284800D2E0FAA3E0FBEE29F8E433F9740228F5A4
:1028580082748139F583E02AF508A3E03BF509780D
:1028680008121A8790829B1216E61223AC74021281
:10287800181A8A088B098C0A8D0B7410780812169E
:1028880009AA08AB097F0402198C74F11218E08AAE
:102898000C8B0D8C0E8D0F7411121850121A9E7419
:1028A80011121850E02401F508A3E03400F509E4FA
:1028B800F50AF50B780C790812151A908233780806
:1028C8001216C8780C790812151AAA0CAB0DAC0EA2
:1028D800AD0F1223AC740212181A8B09EA4509606D
:1028E800047A0180027A00EC2AFCE43DFD7413129C
:1028F8001850E0F8A3E0F9E8FEE9FFECF8EDF97A02
:10290800717B0212177988088909E4F50AF50B8E9C
:10291800828F8378081216D7ECF8EDF97A717B026A
:102928001217798A088B09740578081217F18E82B4
:102938008F83A3A3A3A3E508F0A3E509F07F08020A
:10294800198CC082C083E9906000F0D083D08222C5
:10295800C0E074F21219CCA2AFE433FED2AFE5891D
:10296800A2E150031211FC758900C2C5751A00EE68
:10297800A2E092AF7F01021A2BC0E074F21219CCC8
:10298800A2AFE433FED2AFE58BA2E050031211FCF4
:10299800758B00C2E880D5C0E0C0D0E8C0E0E9C0CF
:1029A800E0A9A8D2AFC2C7751A00E9A2E7E433F8D4
:1029B800E9A2E792AFD0E0F9D0E0F8D0D0D0E03289
:0629C800C2AF0200002274
:1029D000FFFFFFFFFFFFFFFFC082C083E99015CD1F
:1029E000F0D083D08202013274F6121874E990029A
:1029F000E8F0900348E0F5087509007402780812C1
:102A000017F1AA08AB091213709002E912339B90D8
:102A100002E9123788606F900348E075F003A4FA6A
:102A2000ABF012137090030612339B90030612371B
:102A300088700B9002E91237591213768048900380
:102A4000061246ED7AFF7BFF1211667A0080198A22
:102A500008750900740278081217F112419574FF85
:102A6000122B9BE4F0A3F00A900348E0F8EAC39825
:102A700040DD79051208309002E8E0F912071C7A6F
:102A8000BA7B08120AAC02423874F41218748A082D
:102A90008B09EB548060479002E8E0F91212E68A55
:102AA0000A8B0BAE0AAF0BEE4F602A8E828F83E04B
:102AB00064B0701A120842E960148E828F83A3A357
:102AC000A3A3E0F9EE2405FAE43FFB120812EEFAA4
:102AD000EFFB1212D4AA08E5096480FB80047A0097
:102AE0007B00022CEB74F212187474FB121804EAC7
:102AF000FEEBFFEE4F60457403121850EEF0A3EFAB
:102B0000F0851882851983ECF0A3EDF07402121899
:102B100050E9F0AA18AB19120716E9F50870757498
:102B200013121850E0F50AA3E0F50BE50A450B6017
:102B3000638E828F83123124EE4F700575080280F8
:102B4000537A067B001213708A0C8B0DA80CA90D0A
:102B5000E8497005750813803B88828983E4122B4D
:102B60009BEEF0A3EF122CB7E50AF0A3E50BF09073
:102B700002EC122CB09002EC6017E0FCA3E08003A2
:102B8000EAFCEBFD8C828D83122CB070F38C828D6D
:102B900083123DB0A908740502496DF0A31246CF17
:102BA000A32274F21218748908890C750D0074033D
:102BB000780C1217F1850C0A850D0B9002EBF09042
:102BC00002E9123BBB122CAE602E12137679008004
:102BD0001D890C750D007402780C1217F19002E932
:102BE0001240548882F583A3A3E4F0A3F009900374
:102BF00048E0F8E9C39840D9900348E0FA850AF024
:102C0000A4CAA8F0850BF0A428FB1213708A0C8BC1
:102C10000DAE0CAF0DEE4F7003022CA4900348E0F4
:102C2000FC850AF0A4CCA8F0850BF0A428FD79005F
:102C30001212BC7C0080318D0C750D007403780C71
:102C40001217F18A828B83122CA988828983E4F07F
:102C5000122CB6A3A3F0A3F00DEDC3950840D8EE57
:102C6000250AFEEF350BFF0C900348E0F8ECC39803
:102C700050288C0C750D007402780C1217F190021C
:102C8000E9122CA9E82402500109FAE9FB8A828B97
:102C900083EEF0A3EFF07D0080BFE5089002EBF03B
:102CA000790080027913024970124058F922A3A3D7
:102CB00012375DEA4B22A31246CFA3A3A32274F4DA
:102CC0001218747900EAA2E0501F7508E2750981B4
:102CD0007808121A8779107C047D007ACF7B151250
:102CE000082A740212181AE9F980007F04021946B2
:102CF000C082C0839002EC123788601C888289836E
:102D0000A3A3E06A7003A3E06B8882898370E8A3C1
:102D1000A3A3A312375980047A007B000229E1742F
:102D2000F212187474FD121804EAFEEBFF85188283
:102D3000851983E4F0A3F074021218507401F012A4
:102D4000378570141209E61213709002EF12339B4C
:102D50001237857003022EB112349BEE2404F50A5B
:102D6000E43FF50B850A82F583E024FE603C24FCF9
:102D7000607424FE607E24FE7003022E0124FE7027
:102D800003022E0E24FE7003022E1B24FE7003028B
:102D90002E2824FE7003022E3524FC7003022E56CA
:102DA00024FE7003022E6E022EAA1209E69002F192
:102DB000EAF0A3EB122EBD12045EE96003022EAA14
:102DC0009002F1121A9E8E828F83A3A3A3A3A31253
:102DD00046ED8508828509831237591207FA740275
:102DE00012181A022EAAAC18AD19EEFAEFFB12084F
:102DF00048022E79AC18AD19EEFAEFFB12084E809E
:102E000078AC18AD19EEFAEFFB120854806BAC18D1
:102E1000AD19EEFAEFFB12085A805EAC18AD19EE50
:102E2000FAEFFB1208608051AC18AD19EEFAEFFB17
:102E30001208668044740212185A880C890D780CA6
:102E4000121A87740212186AEEFAEFFB12086C74F9
:102E50000212181A8023AC18AD19EEFAEFFB120813
:102E600072E9F870167402121850E4F0803CAC1845
:102E7000AD19EEFAEFFB120878E9F8E8602C8E82C3
:102E80008F83A3E064146022850A82850B83E0901F
:102E900002F1F08518828519831237599002F212D7
:102EA000339BE8A3122EBD120458EEFAEFFB120773
:102EB000D07402121850E0F9740302496DF07CF1ED
:102EC0007D0285088285098312375D2274E8121815
:102ED0007474FA1218047404121850ECF0A3EDF094
:102EE0008A128B13EA2405F50EE43513F50FEA2454
:102EF00002F510E43513F511851082F58312375968
:102F000012054E8A0A8B0B7508007C037D00790040
:102F10007AF17B021212BCE50E2402F516E4350F9D
:102F2000F517740212185A880C890D780C121A873A
:102F3000850E82850F83A3A3A3A3E0F50C750D0076
:102F4000780C121A87E50E2405F50CE4350FF50D03
:102F5000780C121A87851682851783123A60120739
:102F600034740612181A8A0C8B0DE50C450D70038B
:102F70000230ED8020851882851983E0888289835C
:102F8000F00508851882851983A3E0C0E012312E70
:102F9000D0E0F00508E50A24FBFAE50B34FFFBC39B
:102FA000E5089AE49B40030230ED7E007F00851225
:102FB00082851383A3A3A3A3E0F5097809121A8BD2
:102FC000E4F514F5157814121A877514EE751502C8
:102FD0007814121A879002EF121A9E740912185070
:102FE000121A9EE50A24F9F9AC0CAD0D8510828504
:102FF00011831237591208A2740912181AE96003D2
:1030000002308E850E82850F83A3A3A3A3A3A3A35F
:10301000E0F89002EEE0687075E0F5148E15781413
:10302000121A871246EA850E82850F83A3A3A3A3F3
:10303000A3A3A3A31237591212B6740212181AE9E5
:10304000604C9002F2123788703BE4F51478141249
:103050001A877CFF7DFF79078510828511831237DF
:103060005912080C740212181A12378E7017850E36
:1030700082850F8312488774041218501241481237
:103080003A91023121850C82850D83123124A818D2
:10309000A919881489157814121A87740412185003
:1030A000121A9E8516828517831233911207407477
:1030B0000412181A8A0C8B0DEE4F7003022F6A123D
:1030C000312EEE123139123A47EF123139F8A3E0BE
:1030D0003400F9E50C450D6003022F758882898361
:1030E00074FFF0050812312E74FFF00508E5086042
:1030F0001A1313543F1233A112046AE960099002B3
:10310000F212375912132E79008016850E82850F20
:10311000831248877404121850124148123DB07946
:103120000A023A1AA3A3A3A3E0FEA3E0FF22A80881
:103130009002F2E028123A4722F00508089002F2C5
:10314000E0282274E812187474FA12180474021237
:10315000185012339B7404121850ECF0A3EDF07465
:1031600002121850E02405123A30E0F50CA3E0F505
:103170000D7402121850E02402F510A3E03400F59B
:1031800011851082F58312375912054E75080075A6
:103190000900EA24FCFEEB34FFFF8008050CE50C77
:1031A0007002050DA808C3EE98EF94005003023397
:1031B0004DA818A919880E890F780E121A87851440
:1031C00082851583A3A3A3A31246F1121A87E514DF
:1031D0002405F50EE43515F50F780E121A878514BF
:1031E0008285158312338F120734740612181A8AD7
:1031F0000E8B0FEA450F700302334DEA2404F516D7
:10320000E4350FF517851682F583E0F50CA3E0F59C
:103210000D8518828519831246ED8A828B83A3A3BC
:10322000A3E0F9851082851183123759120722E92C
:10323000F509600302334D7402121850123A57F523
:10324000097809121A8BE4F512F5137812121A870D
:103250007512EE7513027812121A879002EF121A85
:103260009E7407121850121A9EEEF9AC0EAD0F851F
:1032700010828511831237591208A2740912181A84
:10328000E9F509600302334DE508703FE4F50EF5FA
:103290000F780E121A877CFF7DFF790985108285D1
:1032A000118312375912080C740212181A123A7D3F
:1032B000700D740412185012338479110233819006
:1032C00002EEE024029002F2F080149002F2E0FAA2
:1032D0009002EEE0790024025001096A497072A858
:1032E000089002EEE0FAE82AFAE43400FBEE9AEFE6
:1032F0009B405A851682851783E0C0E09002F31246
:103300003133D0E0F00508851682851783A3E0C02D
:10331000E0089002F3123133D0E0F005089002EE9D
:103320001246F1121A871246EAA808123A2412121B
:10333000A4740212181A9002EEE02508F50874FF32
:10334000650C700474FF650D600302319CE5086034
:103350001F9002F2E0F5F0E508841233A112047028
:10336000E960099002F312375912132E7900801187
:10337000E509700375090A7404121850123384A900
:1033800009023A1A123BBFE50CF0A3E50DF022A3A7
:10339000A312497CAA0CAB0D22A3A3EAF0A3EBF085
:1033A000229002F1F07CF17D02851082851183125A
:1033B000375D2274EC12187474FC121804123EC0AB
:1033C000740212186A12375312073A8A0C8B0DEAEC
:1033D000450D700302348B12349BA818A91988106C
:1033E00089117810121A877CFF7DFF790B8508827E
:1033F00085098312375912080C740212181A1235F3
:1034000091700C850A82850B83123A8E0234988E55
:10341000828F83A3A3A3A3E0F5127812121A8BE480
:10342000F512F5137812121A877512F175130278D6
:1034300012121A877810121A877409121850121A69
:103440009E7409121850E0F9AC0CAD0D8508828508
:1034500009831237591208A2740912181AE9FE706A
:10346000157CF17D02850882850983123759120483
:1034700076E97009802074166E70027E009002F268
:1034800012375912132EEE7004800B7E01850A82CA
:10349000850B83123DADEEF9023DC2EE2402F50824
:1034A000E43FF5092274EC12187474FC121804EA53
:1034B000FEEBFF8C0E8D0FEE2405F508E43FF509B9
:1034C000740212186A850882850983123759120717
:1034D0003A8A0C8B0DEA450D7003023581EE240209
:1034E000F50AE43FF50BA818A9198810891178107E
:1034F000121A877CFF7DFF790D12375312080C7466
:103500000212181A123591700B85088285098312F0
:103510003A8E807A8E828F83A3A3A3A3E0F51278DC
:1035200012121A8B850882850983A3A3121A9E752D
:1035300012F17513027812121A877810121A877412
:1035400009121850121A9E7409121850E0F9123715
:103550004F1208A2740912181AE9FE700F7CF17D4F
:103560000212375312047CE97009802074166E70C1
:10357000027E009002F212375912132EEE70048070
:103580000B7E01850882850983123DADEEF9023D6F
:10359000C2123798F510A3E0F511EA45112274E83C
:1035A00012187474FE1218048A168B178C148D1559
:1035B000EA2405F50CE43517F50DEA2402F50EE4CE
:1035C0003517F50F850E82F58312375912054E8A8D
:1035D000088B09750B007C037D0079007AF17B0272
:1035E0001212BC750A00E50814F5100424FFF50852
:1035F000E50934FFF50980549002F1E0FA9002EEFB
:10360000E0F8EA28F8E43400F9E50898E50999506B
:103610000D9002F1E0F8E510C3989002EEF0E0F5AD
:10362000127513007812121A871246EA9002F2E01D
:103630002AFAA3E03400FB1212A4740212181A90A2
:1036400002EEE0F89002F1E028F0050A850C828590
:103650000D83A3A312406440030237349002F1E0CB
:10366000C39508E495094003023734AE0AEE2EFEF6
:10367000E433FF123773AC18AD19124705E439FB78
:1036800012073A8A128B13AC12AD13EC4D701B75F6
:103690000B01123763123DB19002F2122CB060039D
:1036A00012132EA90B7402023A1C85168285178309
:1036B000A3A3A3A3E0F50B780B121A8BE4F512F584
:1036C000137812121A877512EE7513027812121AF5
:1036D000879002EF121A9E7407121850121A9EA9B0
:1036E00010850E82850F831237591208A2740912B1
:1036F000181AE9F50B709B9002F2123788600302EA
:1037000035F8E4F512F5137812121A877CFF7DFF65
:10371000790F850E82850F8312375912080C7402B7
:1037200012181A12378E60030235F8123763123AF4
:10373000920236A57CF17D02850E82850F831237B9
:1037400059120482E9600302369879000236A5AC6A
:103750000CAD0D850A82850B8312375D22E0FAA33A
:10376000E0FB22123773E0FAA3E0F9EA85148285C0
:10377000158322850C82850D83E02EF8A3E03FF9A6
:1037800088828983229002EF12488BE849221237FF
:1037900098F8A3E0F9E849229002F2EAF0A3EBF0EE
:1037A0009002F2E02274E812187474FA1218047489
:1037B0000412185012339B8C168D17740412185073
:1037C000E02405F50EA3E03400F50F740412185040
:1037D000E02402123A3012375912054E8A0A8B0B36
:1037E0007F007E00A818A919880889097808121A8C
:1037F00087850E82850F83A3A3A3A3E0F5088E0916
:103800007808121A87E50E2405F508E4350FF50946
:103810007808121A87850E82850F83A3A3123A6057
:10382000120734740612181A8A0C8B0D8029123A6A
:1038300051F00F123A51F00F9002EE123D9C121A05
:10384000871246EAEFF8123A241212A474021218F0
:103850001A9002EEE02FFFE50C450D70030238E0F0
:10386000851882851983123ED2A3A3A3E0F985149B
:1038700082851583123759120722E9FEE50C2404CC
:10388000F510E4350DF511EE705074041218501255
:103890003A57F5087808121A8BE4F508F509780804
:1038A000121A877508EE7509027808121A879002B5
:1038B000EF121A9E7407121850121A9EE50A24FA83
:1038C000F9AC0CAD0D851482851583123759120899
:1038D000A2740912181AE9FE6039123A6D123DB04D
:1038E000EF7003023A079002F2E0F5F0EF849002E5
:1038F000F1F07CF17D02851482851583123759120F
:103900000488E960099002F312375912132E7900E6
:10391000023A1A8F08EF703BE4F512F51378121291
:103920001A877CFF7DFF79118514828515831237F4
:103930005912080C740212181A123A7D7009123AC0
:103940006D123A91023A1A9002EEE024049002F2CB
:10395000F080359002EEE0F89002F2E0FAE82404FC
:10396000FCE43400FDEC6A4D60030238E6E50A240D
:10397000FAFAE50B34FFFBE50828F8E43400F9EA2D
:1039800098EB9950030238E6851082851183E0C0D8
:10399000E09002F3E02FF8A3E034008882F583D0B2
:1039A000E0F00F851082851183A3E0C0E0123A3E5B
:1039B000D0E0F00F740212185A88088909780812AA
:1039C0001A877402121850121A9E850E82850F8370
:1039D00012338F120740740412181A8A0C8B0DEAE6
:1039E000450D700302382E7402121850E0C0E01228
:1039F0003A3ED0E0F00F7402121850A3E0C0E0127B
:103A00003A3ED0E0023836EE70027E0A850E82859C
:103A10000F83123A73123DB0EEF9740612181A7F32
:103A2000100219469002F3E028FAA3E03400FB22CA
:103A3000F514A3E03400F515851482F58322123ABB
:103A400042229002F3E02FFAA3E034008A82F58349
:103A500022123A4274FF22123BBFA3A3A3A3E02287
:103A600012497C850E82850F8312375D2285108274
:103A700085118312488B851682851783229002F365
:103A8000EAF0A3EBF09002F312488BE84922123DD2
:103A9000B6E8F0A3E9F079112274EA12187474FE02
:103AA0001218048A088B098C128D13EA2405FEE48F
:103AB0003509FFAC18AD198E828F83123759120762
:103AC0003A8A0C8B0DEE2406F50EE43FF50FEA451D
:103AD0000D7003023B91E5082402F50AE43509F56F
:103AE0000B8A828B83A3A3A3E0A2E55028851882CA
:103AF0008519831237591208968A108B11EA4511DD
:103B00006020791212374F85108285118312187246
:103B1000E9F50C707F850E82850F83E0600979528C
:103B20008011750C0E806D850882850983A3A3A37F
:103B3000A3E0F9E4F508F5097808121A878E828F58
:103B400083A3A3E0F5087808121A878E828F83A3D7
:103B5000A3A3121A9E8E828F831246ED1237531240
:103B600008A8740612181AE9F50C7011850E8285E2
:103B70000F83E0702D12375312048E802574166562
:103B80000C7011750C007418121850123BBBE480B5
:103B900010750C01124883851282851383E8F0A307
:103BA000E9F0850E82850F83E0600479008002A928
:103BB0000C740212181A7F0E021946123BBF22E043
:103BC000F8A3E0F58388822274EC12187474F7125B
:103BD00018048A0A8B0B8C108D11EA2405FEE4353B
:103BE0000BFF750C00AC18AD198E828F83123759FC
:103BF00012073A8A088B09EA45097003023D87E5F6
:103C00000A2402F50A5002050B8A828B83A3A3A320
:103C1000E0A2E5502F8518828519831237591208C2
:103C2000968A0C8B0DEA450D604F7912AC08AD09F0
:103C3000123753850C82850D83121872E9F50C60DA
:103C400003023D8A850A82850B83E0F508A3E0F52F
:103C500009AA08FB12088AEA4B70197AFF7BFF1247
:103C6000088AEA4B7003023D7D8A828B83E508F067
:103C7000A3E509F07508008008750C0E023D8A0561
:103C8000089002EBE0F8E508C3984003023D7D850B
:103C9000080E750F007403780E1217F18A828B8359
:103CA000A3A3E0250EF8A3E0350F12415170D08E8A
:103CB000828F83123DA512339B8E828F83A3A31222
:103CC0003DA5123399EE2404F508E43FF509850873
:103CD00082F583E088828983A3A3A3A3F0A3E4F001
:103CE000EE2405F50EE43FF50F850E82F583123DB7
:103CF000A5A3A3A3A3123399751207751300781215
:103D0000121A87EEFCEFFD74041218621212A474EA
:103D10000212181AE4F5127812121A8785088285A1
:103D20000983E0FC7D00791712375312080C7402E6
:103D300012181A740712185012339B740712185075
:103D4000E0FA4B603D850882850983123D9C121A7A
:103D500087850E82850F831246ED1212A47402121B
:103D6000181A740212186A123753120494E9602662
:103D7000740712185012375912132E8019750C0936
:103D80008008750C118003750C0112488385108220
:103D9000851183123DB0A90C74098028E0F50875DF
:103DA000090078082212375D8882898322123DB685
:103DB000E8F0A3E9F022E0F8A3E0F9850E82850F90
:103DC0008322740412181A7F0C02194674EC12181C
:103DD00074123EC0751000EE2402F50CE43FF50DA0
:103DE000850C82F58312375912088A8A088B09EAF2
:103DF00045097003023EA4850A82850B83E06401B5
:103E00006003023E99AC08AD09AA0AAB0B12087E0A
:103E1000E9606E850882850983123126EE2406F555
:103E20000AE43FF50B8E828F83A3A3121A9E8E8223
:103E30008F83A3A3A3A3121A9E850A82850B8312E4
:103E40001A9E79188E828F83123ED2123759120829
:103E5000A8740612181AE9F8741668700B850A829D
:103E6000850B83E4F0A38014E860128E828F8312A6
:103E70003759850E82850F83EAF0A3EBF088108016
:103E800018780E121A87AC08AD09EEFAEFFB12088B
:103E900084740212181AE9F510AA08AB09120890E6
:103EA000E510700E850C82850D8312375912049A25
:103EB0008009741665107003751000A910023DC7C3
:103EC000EAFEEBFF8C0E8D0FEE2405F50AE43FF5BC
:103ED0000B2212497C850C82850D832274EA12180C
:103EE000747508007509007E007F00750A00EC24D7
:103EF00002F510E43DF5118035EC65087003ED65C1
:103F0000096003023F9188828983A3A3E06A70035A
:103F1000A3E06B707C88828983A3A3A3A312488744
:103F2000EE28FEEF39FFEA28FAEB39FB050A1240CA
:103F300061503A850A0C750D007403780C1217F164
:103F4000851082851183124054124151601FE5088B
:103F5000450970A58C088D098882898312312488CF
:103F6000828983A3A3E02EFAA3E03F80BEE50AC3C3
:103F70009402500302404F750800750900EE4F602F
:103F800010EEFAEFFB1213288A0E8B0FEA450F7022
:103F9000057900024051750B00024024850B0C7519
:103FA0000D007403780C1217F1851082851183E0DF
:103FB000250CF50CA3E0350DF50DE50C2406F514E4
:103FC000E4350DF515851482F5831241566042E5FE
:103FD0000C2404F512E4350DF513851282F58312D5
:103FE0001A9EE50E2508FAE50F3509FB1212A47496
:103FF0000212181A851282851383E02508F508A39A
:10400000E03509F509851482851583123759121395
:104010002EE50B600D7C087D007900AA0CAB0D121B
:1040200012BC050BE50BC3950A5003023F9C85109B
:104030008285118312488788828983A3A3A3A3A3BF
:10404000A3E50EF0A3E50F122CB7EEF0A3EFF07985
:1040500001023BB612405822E0250CF8A3E0350DD2
:10406000229002EBE0F8E50AC3982274F01218746B
:104070008A0E8B0F8C0A8D0B750D00750C0080500D
:104080007916EE2406F508E43FF5098E828F83A3A6
:10409000A3121A9E8E828F83A3A3A3A3121A9E85B6
:1040A0000882850983121A9E850E82850F83A3A339
:1040B0001237591208A8740612181AE9F50D741669
:1040C000650D706C850882850983E4F0A3F0050C0A
:1040D0009002EBE0F8E50CC3985066AA0C8A0875CC
:1040E0000900740378081217F1850A82850B83A3EF
:1040F000A31241A0E8FEE9FF8E828F831241566031
:1041000040EA2401F508E43400F5099002EBE0658B
:10411000087002E509601488828983A3A3A3A3A37E
:10412000A3A3A3123788600302408079180240825B
:10413000E9609B1248837410121850124148123DD6
:10414000B0A90D7F08021946E0FAA3E0F5838A8240
:1041500022F98882898312497CEC4D2274F6121868
:10416000747C0080010C900348E0F8ECC398501E6A
:104170008C08750900740278081217F1124195E055
:104180006A7003A3E06B70DDE8FAE9FB80047A0053
:104190007B000242389002E91241A0888289832282
:1041A000E02508F8A3E03509F92274F21218748AA0
:1041B000088B09750A0080278E828F83A3A3A3A38F
:1041C000122CAE600312132E7C087D007900EEFAEB
:1041D000EFFB1212BC8E828F83E4F0A3F0050A126B
:1041E00040615027850A0C750D007403780C121776
:1041F000F1850882850983A3A3E0250CFEA3E035A1
:104200000DFF8E828F8312378870AD8508828509F5
:104210008374FFF0A3F002497074F6121874120848
:104220003C8A828B83E582458370067A007B00801E
:1042300007A3A3A3A31237597F0202194674F412ED
:10424000187489088C828D83E06402703C124826C1
:10425000FEA3E0F9EEF8740268700374296970290E
:10426000750A02750B00780A121A8774101218501A
:10427000121A9E7410121850121A9EA90812117860
:10428000740612181AE9F980027901022CEB74E81D
:1042900012187474FB121804E9851882851983F0CA
:1042A0008A168B17ECFEEDFF7510008E828F83A3AC
:1042B000A3A3E0A2E4502D741D1218501237591216
:1042C00008968A828B83E582458370030246C5790E
:1042D0000AEEFCEFFDAA16AB17121872E9F5106092
:1042E000030246C8741F121850E0F508A3E0F50950
:1042F0007421121850E0F50AA3E0F50B742312188C
:1043000050E0F50EA3E0F50F8E828F83E06402602B
:1043100003024666A3124887850882850983A38520
:104320008212858313EE2406F50CE43FF50D888296
:104330008983124705F514E439F5157814121B1119
:104340000100002801286843070002282D440328A3
:104350009B4300295C4501298745022928450329FB
:104360005C45042900466646E50E450F600302469B
:1043700061850C82850D83124887E8FAE9FB8A8201
:104380008B83E0850A82850B83124710121A878A75
:10439000828B83A3E0FCA3E00245EAE50E450F60B3
:1043A00003024661850A82850B837401F01246FA86
:1043B000850882850983F07C007D008E828F83A32F
:1043C000A3A3A3E02401FAA3E03400FB12073AEA16
:1043D0004B60408A828B83E02402F8850A82850B39
:1043E00083E028F0EA2404F8E43BF988828983E03A
:1043F00085128285138312471E124710121A878A6C
:10440000828B83A31246EDE5082403FAE43509FB09
:104410000245EF850A82850B83E02404F07C047D4D
:10442000007900AA12AB131212BC0246C8E50E4571
:104430000F60030246611246FAFEA3E0FF850A827E
:10444000850B837404F0EE850882850983F0EF857F
:104450001282851383F0740312186AEEFAEFFB12CE
:10446000073A8A0C8B0DEA450D700302450B8A82D0
:104470008B83A3A3123124740112185A880E890F5A
:10448000780E121A877405121850121A9E7CFF7D3E
:10449000FF120740740412181A8B0FEA450F70338D
:1044A000850C82850D831246F1121A87850C828550
:1044B0000D83A3121A9E7C027D007AB47B821205C2
:1044C0003C740412181AE9700A740112185074FF2F
:1044D000F0A3F08E828F83E064027039750C027550
:1044E0000D00780C121A878E828F83A31246EDE599
:1044F000082404FAE43509FB1212A4740212181AF3
:10450000850A82850B83E024028009740112185009
:10451000EEF0A3EFF074011218501246DF7401128E
:1045200018501246D602465BE50E450F6003024660
:1045300061850C82850D83124975AA16AB1712117D
:104540007E850A82850B837402F085088285098343
:10455000EAF0851282851383EB02465EE50E450F75
:1045600060030246611246FAF8A3E0F9850A8285E3
:104570000B837402F0E8850882850983F0E98512CF
:104580008285138302465E850C82850D831237591E
:1045900012129EEAFAF8C3950EE4950F405CE865A6
:1045A0000E450F70047A008021851882851983E0FA
:1045B000FCE50E2CFCE4350FFDC3EC98ED940050A7
:1045C00003E08005E50ECAC39AFAEA850A82850BE4
:1045D00083F08A0A750B00780A121A87850C828587
:1045E0000D83E0250EFCA3E0350FFDAA08AB0912F0
:1045F00012A4740212181A0246C87510070246C89F
:10460000E50E450F705B850C82850D83124887850A
:104610000A82850B837407F0888289831246D71239
:1046200046CFE0851282851383F0E82402FAE4394C
:10463000FB8A828B831246DF8A828B831246D6A343
:10464000A3122CB61246E4F0E82405F850010988BC
:104650008289831246E4A312471EA3A3A3A3F0807A
:104660006775100B8062741D1218501237591208AA
:104670003C8A828B83E5824583604A124887880C96
:10468000890DE8450D603E7425121850E0F510784C
:1046900010121A8B780E121A87780A121A87780865
:1046A000121A877407121850E0F9EEFCEFFDAA16F3
:1046B000AB17850C82850D83121872740712181AB5
:1046C000E9F510800375100EA9107405023A1CF06C
:1046D00088828983A322A3E0850882850983221228
:1046E0004725F022124725A3A3229002EF12497C0E
:1046F00022E0F50E750F00780E22850C82850D8361
:10470000123BBFE022E0FAA3E0F8E4C8F9EA28226D
:10471000F08A828B83E0F50A750B00780A22124634
:10472000CF12472522E0850882850983A3A322743E
:10473000EE12187474FE1218048A088B09ECFEED50
:10474000FF890AAC18AD19EEFAEFFB12073A8A0C92
:104750008B0DEA450D700302481785188285198371
:1047600012375912083C8A828B83E5824583700395
:10477000024812A3A3124887880E890FE8450F70DC
:10478000030248127414121850E0F510A3E0F5115A
:10479000E50AF50B780B121A8B7419121850121ABD
:1047A0009E7810121A87741B121850E0F9AC0CADE9
:1047B0000DAA08AB09850E82850F83121872740545
:1047C00012181AE9F50B705274FE650A604C850CDC
:1047D00082850D83E064027041124826FAA3E0F955
:1047E000EAF87402687003742969702E8510828556
:1047F0001183124705F50CE439F50D780C121A8770
:10480000EEFCEFFDAA08AB091208C0740212181AD8
:104810008008750B0E8003750B01A90B740212182A
:104820001A7F0A021946A312488B88828983E022E4
:1048300074F612187474FE121804740C12185012C4
:104840004887E8851882851983F07401121850E9A9
:10485000F0E4F508F5097808121A87750802780857
:10486000121A87740412185A880889097808121ACB
:104870008779FE1208A8740612181A740212181A00
:104880000242388E828F8312488B22E0F8A3E0F92F
:104890002274F7121874EAFEEBFF890890030612DF
:1048A00046ED12117EEA5402600BA908EEFAEFFB06
:1048B00012072E800279017F0102194674F2121844
:1048C0007474FE121804EAFEEBFF890A7401650A8B
:1048D00060147402650A600302496B7901120ACA06
:1048E000E9600302496BEEFAEFFB12088AEA4B60BB
:1048F00003120890A818A919880889097808121ABB
:10490000877508027509007808121A877508AC7552
:1049100009827808121A877CFF7DFF7A017B0012DA
:104920000734740612181A8038850882850983A313
:10493000A3A3A3A3A3124975EEFAEFFB121166E439
:10494000F50CF50D780C121A877402121850121A11
:104950009E7CFF7DFFAA08AB091207407404121861
:104960001A8A088B09E508450970BE740212181AE4
:104970007F06021946123BBF12497C22E0FCA3E0ED
:10498000FD2274F41218748A088B09ECFEEDFF9076
:1049900015CDE0F4604B7A097B001212CEEA4B6031
:1049A000408A828B8374B1F0A3E41249E4F08A82D6
:1049B0008B83A3A3E508F0A3E5091249E4A3EEF075
:1049C000A3EFF0740C1218501248878A828B83A3CD
:1049D000A3A3A3A3A3A3123DB09015CDE0F9121297
:1049E000DA022CEBF08A828B83A3A3A3A32274F0B8
:1049F00012187474FA1218048909ECFEEDFF750898
:104A0000008A0A8B0B780A121ACB000410144C315E
:104A10004A4F4A694A814A9F4AB74ADA4AF24A06E5
:104A20004B304BAB4BBC4BD34BEE4B144C144C4666
:104A30004B740165096003024C0F8E828F83E0F88E
:104A4000C394034003024C0FE89016B9024BEB7479
:104A50000265096003024C0F8E828F83124C5090C6
:104A600016BAE8F0A3E9024BEB7401650960030292
:104A70004C0F124C414003024C0FE890072C024BA4
:104A8000EB740165096003024C0F8E828F83E0F89E
:104A9000C394054003024C0FE890072D024BEB74C2
:104AA0000165096003024C0F124C414003024C0F98
:104AB000E890072E024BEB741065096003024C0F5F
:104AC000750A10750B00780A121A877A2F7B071265
:104AD00012A4740212181A024C357401650960039D
:104AE000024C0F124C414003024C0FE890073F026A
:104AF0004BEB740165096003024C0F8E828F83E0DB
:104B00009016BD024BEB740465096003024C0F8ED6
:104B1000828F83780C1216C890829B780C1214FB3B
:104B20005003024C0F900741780C1216D7024C35F7
:104B3000E96003024C0F1206D4E9700512112A80B5
:104B4000559007D48061740765096003024C0F75A6
:104B50000A06750B00780A121A878E828F83A3AC1F
:104B600082AD8374021218621212AA740212181A09
:104B70007C007D00AA18AB198E828F83E0F9121099
:104B8000D6E9FEC3940A4003024C321206D4E970FF
:104B90000CEEF912113079501213EE806D74D52E8F
:104BA000F582E43407F5837401804074016509706F
:104BB0005E124C415059E8900740802F74016509FE
:104BC000704D8E828F83E0F8C3940A5042E89016AD
:104BD000BC80187401650970368E828F83E0F8748A
:104BE000F928C3940A5028E89016BEF08047740153
:104BF0006509701B9007D3E0F88E828F83E09007E1
:104C0000D3F0E87030E06401702B12111E8026751D
:104C100008188021C3EA9427EB94005015740265AC
:104C200009700F8E828F83125716120554E9F5080A
:104C30008003750802A908740612181A7F08021961
:104C4000468E828F83E0F8C3940222A908024FEEB9
:104C5000E0F8A3E0F92274F012187474B112180489
:104C60008C0C8D0D9081F4742012186A7406121742
:104C700017742012186A1210D6E9F508745F12181A
:104C800050E0F50AE9C3940A4003024DD475F006DA
:104C9000E9A4F509744112186A7A0E74202509F9FD
:104CA0001213E8E97009744D121850E0FF80027F7A
:104CB000009016B9E064027005750E018003750E50
:104CC000007408650A70047422800274212509F5B5
:104CD0000F7C1B7D00790074261218621212BCEF43
:104CE000A2E0E433FE742612186A7A1BA90F12138D
:104CF000E8E970257440121850E024F9C3940A5072
:104D000018780E121A8B742712186AEEF9AA0CABD7
:104D10000D1205F6740112181A7C147D00790074C6
:104D20000C1218621212BC740C12186A7A107424D5
:104D30002509F91213E8E970307C1079FF740C1220
:104D40001862121322E97021741C121850AC82AD43
:104D5000837A0474252509F91213E8740C12186A71
:104D6000EEF9AA0CAB0D1205DEAC18AD197A0C7475
:104D7000702508F91213E8E97049AA18AB19121145
:104D8000067E00EE75F003A4F8A9F0851882851957
:104D900083E58228F8E58312552F125710601D888D
:104DA000828983A3A3E0F5087509007808121A87A1
:104DB000AA0CAB0D1208AE740212181A0EEEC394B0
:104DC0000440C0EFA2E1500C90072BE0F9AA0CAB15
:104DD0000D1208B47404650A70289016B9E06402D4
:104DE00070207A0090073FE060027A0190072CE083
:104DF0006004780480027800E84AF9AA0CAB0D122E
:104E000006AA7900744F024C3974F712187412060E
:104E1000D4E9704F9007D4E06401701512112A9004
:104E200007D4E4F07C0AFDF97AD57B071212BC8026
:104E30002A750800A80874D528FEE43407FF8E827E
:104E40008F83E06401700BA9081211308E828F836A
:104E5000E4F00508E508C3940A40D979501213EE2E
:104E600012111E02584E74F012187474F0121804C5
:104E7000EAFEEBFF8C088D09750A0AE9600C1460E4
:104E80000914603B14607D024F5C121118E9F50AA9
:104E9000C3940A4003024F5CE50845097003024FC2
:104EA0005C750C06750D00780C121A87EEFCEFFD90
:104EB000AA08AB091212A4740212181A024F5C75E8
:104EC0000C00750E06750F00780E121A87EEFCEFB7
:104ED000FDE50C75F00EA4F8A9F0744D28FA7407DE
:104EE00039FB1212B6740212181AE9700B050CE5A0
:104EF0000CC3940A506680CA850C0AE50AC3940A5A
:104F0000505A8049750C00AC18AD197A1075F0062E
:104F1000E50CA42423F91213E8E9701C7C1079FF36
:104F2000AA18AB19121322E9700EEEFCEFFDAA18B5
:104F3000AB191205BAE9600B050CE50CC3940A50D5
:104F40001B80C4850C0AE50AC3940A500FE5084586
:104F5000096009AA08AB09A90A121112A90A74105A
:104F6000024C3974F4121874890975081574FF6AB3
:104F7000700374FF6B70277E00AC097A027B00EE31
:104F8000F91210F4E960037508000EEEC3940A40AC
:104F9000E8E50960537A427B11120AEE804A120A50
:104FA000BE8A0A8B0BAE0AAF0BEE4F60387C007DD9
:104FB00000EE2405FAE43FFB8E828F83A3A3A3A314
:104FC000E0F91210D6E9F9C3940A500CAC097A0240
:104FD0007B001210F4750800E509600CEEFAEFFB97
:104FE0001211428003750814024C4B12181A7F04E8
:104FF00002194674F2121874ECFEEDFF7508157470
:105000000E121850E0F50AA3E0F50B74FF6A700366
:1050100074FF6B7021750900AC0AAD0BEEFAEFFB63
:10502000A9091210FAE960037508000509E509C32A
:10503000940A503F80E2120ABE8A828B83E5824541
:1050400083602D7C007D00E5822405FAE43583FB36
:10505000A3A3A3A3E0F91210D6E9F9C3940A50134D
:10506000AC0AAD0BEEFAEFFB1210FA7508008003E4
:10507000750814A9080254F7C082C083900745EA56
:10508000F0A3EBF090072BE0FC7D007A267B00126A
:10509000055490072BE0F9120818025B7074EF12A8
:1050A000187474EC121804EAFEEBFFEE240CF50CF5
:1050B000E43FF50DEE2405F50EE43FF50FEE24096F
:1050C000F50AE43FF50BEE2403F508E43FF5098EFD
:1050D000828F83A3A3E024FA700302537324FD702C
:1050E0000302529514700302517314601024FD7072
:1050F000030252691470030252CC025379125E8B80
:105100006049E0F5838882124C50880E890FE8458B
:105110000F6038850C82850D83E0F50C780C121A2F
:105120008BEE240BF582E43FF583E0F9850A828556
:105130000B831257160A0A0AAB09850E82850F8364
:10514000121872740112181A025379850A82850B9B
:1051500083121A9E9007411216E61205F07402128D
:10516000181AE970030253797901850A82850B8345
:105170000253437510008E828F83A385820A858334
:105180000BE06003025236850E82850F83E0A2E0B9
:1051900040030252369007DF125E8E6003025236E1
:1051A0007C0E7D007900AA18AB191212BC850C8206
:1051B000850D83125B3BEA4B6010750C06750D0084
:1051C000780C121A87EA2410801B125B35120ABE73
:1051D000EA4B7003025379750C06750D00780C12BA
:1051E0001A87EA2405FCE43BFD74021218621212CD
:1051F000A4740212181A850E82850F83E0A2E25071
:1052000004D2F08002C2F0A2F0E433F8740C121859
:1052100050E048F0EEFCEFFDAA18AB1912110CE9B2
:1052200070117A027B0090072BE0F91212FE7900D0
:1052300002537B751015125E8B7003025379125A5C
:10524000FF7003025379850A82850B83E0FC7901A4
:10525000125385121872E5107003025379FC79031A
:10526000125B35125AE502536E125E8B70030253C5
:1052700079125B12124C50890BE8450B70030253F4
:10528000798E828F83A3E0FC7902125B3588828558
:105290000B8302536E7C007D00EE2404FAE43FFB96
:1052A000850882850983E0F91210D6E9F8C3940ACB
:1052B0004003025379EE240AFCE43FFD7A0475F0C2
:1052C00006E8A42425F91213E2025379125B359003
:1052D0000740E060079016BCE0F9806A9016B9E0DC
:1052E000700479058060120ABE8A0C8B0DA80CA987
:1052F0000DE8497003025379E82404F50CE439F50C
:105300000D8E828F83A3A3A3A3A3A3A3E0A2E05047
:105310003A850C82850D83E0FE6030850A82850B1C
:1053200083A3E054027024740E12186AE82405FA6C
:10533000E439FBEEF91210D6E97010790385088282
:10534000850983125B3B1205EA802EAC0EAD0F85FA
:105350000C82850D83E0F9125B3512114E125E8BC3
:105360006017125AFF60127C0079001253851218E0
:10537000728006125B351210D07901741412181A5B
:105380007F09021946850882850983E0FAA3E0FBBC
:105390008E828F832274F512187474F2121804EA44
:1053A000FE8C0A75F006E9A42420F508AC18AD19A6
:1053B0007A0EF91213E8E970467C0679FFAA18AB59
:1053C00019121322E97038740C121850125B3BEA60
:1053D000F8E50A6005EEC8488004EEF4C858F8EA1B
:1053E000687001EB6015740C121850E8F0A3E4F03B
:1053F000AC18AD197A0EA9081213E279018002796E
:1054000000740E12181A7F0302194674F2121874EF
:1054100074E6121804890A8A088B09ECFEEDFF7401
:105420000C12186A7A0E75F006E9A42420F91213FA
:10543000E8E960030254F07C0679FF740C121862EC
:10544000121322E960030254F07470250AF50BACC4
:1054500018AD197A0CF91213E8E960030254ECAAAA
:1054600018AB19121106E5084509701D7C0C79006E
:10547000AA18AB19121322E970727C0C7D00790016
:10548000AA18AB191212BC8051AC18AD19AA08ABFE
:10549000091211008A0C8B0DA80CA90DE849702285
:1054A000EE4F604CAC18AD197A007B00121100EA87
:1054B000F8EBF9EA4B603988828983E508F0A3E5C7
:1054C00009F012556BFAEE6A7001EF601FEEF04FB3
:1054D000700888828983E4F0A3F0AA18AB1912112E
:1054E00006AC18AD197A0CA90B1213E279018002EF
:1054F0007900741A12181A7F0602194674F71218E6
:10550000747E00EE75F003A4F8A9F0EC28F8ED1213
:10551000552FE06A7003A3E06B7006E8FAE9FB80A0
:105520000B0EEEC3940440DB7A007B0002584E3928
:10553000F9888289832274F71218747C00EC75F064
:1055400003A4F8A9F0EA28F8EB12552FE0F4FEA323
:10555000E0F4FF88828983EEF0A3EFF012556BF43C
:10556000F00CECC3940440D502584EE82402F582B6
:10557000E439F583E02274F412187474F4121804F8
:10558000EAFEEBFF8C088D099007DF125E8E704FEC
:10559000EE4F70030256EFEC450970030256EF120E
:1055A0001118E99016BFF0C3940A4033750B007CC4
:1055B0000679FFE50B75F00EA4FAABF074472AFAF2
:1055C00074073BFB121322E96003025650050BE5FA
:1055D0000BC3940A40D9750A0AE50A9016BFF090E9
:1055E00016BFE0C3940A40030256EF75F006E0A42C
:1055F000FB9007DF125E8E705CEEFCEFFD7A0E749E
:10560000202BF91213E27C0C7D0079FFAA18AB194C
:105610001212BCAC18AD197A0C9016BFE02470F9C8
:105620001213E2750A0E750B00780A121A87EEFC47
:10563000EFFD9016BFE01257AE1212A474021218BA
:105640001A9007DFE508F0A3E509F079000256F1AA
:10565000850B0A8084E0C8240612570A60197A1B59
:1056600074212BF91213E21256F62406F582E4385F
:10567000F583E4F0A380D31256F6240A12570A6089
:10568000107A1B74222BF91213E21256F6240A80A8
:10569000DB1256F6240C12570A60107A1074232B72
:1056A000F91213E21256F6240C80C11256FF12575B
:1056B0000A60307A1074242BF91213E21256FFF5A7
:1056C00082E438F583E02410FCA3E03400FD7A0482
:1056D00075F0069016BFE0A42425F91213E21256C5
:1056E000FF80899007D3E0600312115412114879AA
:1056F00001740C024FEB9007DFE0F8A3E0C82290A2
:1057000007DFE0F8A3E0C8240822F582E438F58337
:10571000125716EC4D22E0FCA3E0FD2274F412189F
:105720007474F2121804EAFEEBFFE9C3940A500401
:10573000EE4F700479028034AC18AD197A0E75F012
:1057400006E9A42420F91213E8E9F508701C750A8B
:1057500006750B00780A121A87740212186AEEFA9C
:10576000EFFB1212A4740212181AA908740E024F49
:10577000EB74F4121874EAFEEBFF750800750A0664
:10578000750B00780A121A87EEFCEFFDE508125738
:10579000AE1212B6740212181AE96004A908800B3E
:1057A0000508E508C3940A40D4790A024FEE75F063
:1057B0000EA4F8A9F0744728FA740739FB2274F78D
:1057C000121874750800E50875F00EA4F8A9F074B5
:1057D0004728FE740739FFEEFCEFFD7A0E75F006E0
:1057E000E508A42420F91213E8E960297C067D006D
:1057F00079FFEEFAEFFB1212BC7C067D0079FFEE1A
:105800002CFAE43FFB1212BCEE240CF582E43FF5C7
:1058100083E4F0A3F00508E508C3940A40A89007C4
:10582000D3E06003121154121148802274F7121849
:10583000747E007F007C06EF1257AE74FFF91213DE
:1058400022E970010E0FEFC3940A40E9EEF97F01DF
:1058500002194674F71218747E00EEF9121130E93D
:10586000F90EEEC3940A5003E960EF80E174F3127D
:10587000187474CB12180489089016BFE06508707C
:105880001B7A017B0090072BE0F91213047A027B4C
:105890000090072BE0F912130412116075F006E571
:1058A00008A4FF74202FFE742712186A7A0EEEF9EE
:1058B0001213E8E960030259757C0679FF74271218
:1058C0001862121322E960030259757C0E7D00797B
:1058D000FF74271218621212BC7C1B7D0079FF74C2
:1058E0000C1218621212BC7C0C7D0079FFAA18AB56
:1058F000191212BC742712186A7A0EEEF91213E20A
:10590000E9FE740C12186A7A1B74212FF91213E243
:10591000E9F509740C12186A7A1B74222FF9121314
:10592000E2E9F50A740C12186A7A1074232FF9123E
:1059300013E2E9F50B740C12186A7A1074242FF92B
:105940001213E2E9F50C740C12186A7A0474252F0C
:10595000F91213E2E9FFAC18AD197A0C747025083E
:10596000F91213E2E9F8E509450A450B450C4F48E1
:10597000CE4EFE80027E00EEF9743512181A7F05B5
:1059800002194674F7121874E990072BF012111ED1
:1059900002584E74F4121874EAFEEBFF5480700340
:1059A000025A5690072BE0F91212E68A088B09EA90
:1059B00045097003025A4F7A01E5082404F8E435DA
:1059C00009F9880A890B8508828B83E0245060409E
:1059D00014600624E16067806C88828983E07068C7
:1059E0008508828B83A3A3A3A3A3A3A3121A9E85D6
:1059F00008828B83A3A3A3A3A31257168508828BC7
:105A000083A3A3125B3B1210E2740212181A8038AF
:105A100088828983E0641E700F79008508828B83F9
:105A2000A3A3125B3B1210DC850A82850B83E0F98D
:105A3000E5082405FAE43509FB120812800AAA08D1
:105A40001210EEE9FAEA6007AA08AB091212D4EEC6
:105A5000FAEF6480802AEE54026028EE6402FE7C35
:105A6000007D007A007B0012110CE960047A01804D
:105A7000027A027B0090072BE0F91212FEEEFAEF99
:105A8000FB805FEEA2E0504C6401F508EFF50912CF
:105A90005AF312115AE9602A125E8B6020125AFFE3
:105AA000601B7C007901125AF38E828F8312187268
:105AB0007C007903125AF3125AE51218721211601F
:105AC000800C7A017B0090072BE0F91212FEAA08E5
:105AD000AB09800E54046006EE6404FA80047A0078
:105AE0007B00024FEE900745E0F8A3125B0AF583B6
:105AF0008882229007DF125E7BE0FAA3E0FB22128D
:105B00005B0AF9E8FEE9FFEE4F22125B12E0F8A310
:105B1000E022E0F5838882A3A3227F02021946C017
:105B200082C08390072BE0F98A828B83A3125B3BB0
:105B30001208B4803B850882850983E0FAA3E0FB64
