:020000040000FA
:0600000002011A02260DA8
:03002B00022E168C
:03005300022683FF
:03006B00022D76ED
:03007B00022D084B
:10008300022463E5C754F84401F5C779012200004F
:100093000080FB120086B90003020104E479217891
:1000A30008B800028004F709D8FCE479297802B87B
:1000B30000028004F709D8FCE49003C17887791122
:1000C3008002F0A3D8FCD9FA781A90014A7A01BACF
:1000D30000028007E493A3F608DAF97A477B1490C9
:1000E300014B78C379058015E493A3AD82AE838A6F
:1000F300828B83F0A3AA82AB838D828E83D8E9D9C6
:10010300E7758263758381740412012C758291757E
:100113008300740012012C75D00075813F7518C1DE
:10012300751903759F00020096C09FF59FE473D075
:100133009F22D083D082C09FE493C0E0740193C018
:10014300E0740293F59F22011F0000000F000000DE
:1001530040000000AFFFFFFFA30000000400000009
:10016300000100000300000080000000A600000062
:1001730034100000050000000C0000001600000011
:100183000800000000000000360000000D01000020
:100193000A000000EC000000910C0000E0E6FFFF05
:1001A30071F3FFFF20190000BD02000056FFFFFF9F
:1001B30000020000260400003AFEFFFFA90500002C
:1001C300480600008F0C000047060000900C00005A
:1001D300B7F9FFFF020000003F00000068000000C5
:1001E3001000000029000000001000001101990117
:1001F3000F12640400AD270111310401023483019D
:1002030000002683023A83010000F0140278830180
:100213000000F114023C830300009904024E8301A1
:100223000000F914023E83010000F214FF0000B441
:10023300000028002800283075A000A000A000A01E
:100243000000080008E001F000100010001000108A
:10025300001000100050005000500010001000D09B
:10026300070000000000000F0001000500307507C3
:10027300001000010081FF00000000FFFFFFC50820
:10028300E308CB080709FF02020208025000A0009E
:100293000000E8030234830100002083023A830153
:1002A30000008615024083010000D904023A83014D
:1002B30000008715024283010000EF04023A830124
:1002C30000008815024483010000F104023A83010F
:1002D30000008915024683080000F204023A8301F4
:1002E30000008A150248830100008B15FF0100FFFF
:1002F300200234830100002F83023A83010000EFC0
:1003030015024A830000000000023C830300002022
:100313000517007F0F7F0F7F0F7F0F7F0F7F0F7FEB
:100323000F7F0F7F0F7F0F7F0F7F0F7F0F371249D5
:10033300123112020202020202020202010D000045
:100343000010010234830100002C83023A83010070
:100353000032160274830100003D09023A83010052
:100363000033160272830100005D82023A830100AA
:100373000034160270830100004F82023A830100A9
:10038300003516025C83010000C981023A83010033
:10039300003616025883010000FF81023A830100F0
:1003A300003716025683010000DB81023A83010005
:1003B300003816025483010000ED81023A830100E4
:1003C3000039160250830100004182023A83010082
:1003D300003A160238830100003B1601E803057753
:1003E300100A0A81131B001C001D001E101F002091
:1003F3000021041B801B001D021E301FE020002172
:100403000429195A081B821B00140F180615041619
:10041300190F0F0000000000000890019001000276
:1004230020280101400006010E0948494420416487
:100433007652656D6F74650201050319C0030502E9
:1004430012180F184849442041647652656D6F7441
:10045300650000C00360EA00000149154F155515FA
:10046300FFFF019D150000E60202192A040601128E
:1004730001011202011203010E0002120E120A0000
:10048300030234830100002383027A830100005AAC
:100493000B023A830100006717026683400000F4F1
:1004A30082023A830100006B17026A838000005CBA
:1004B3000B023A830100006C17026E83C000006DCB
:1004C30017023A83010000681702688340000000A6
:1004D30080024C830100006917023A830100006E19
:1004E30017026C834000005D0B023C838100005EB9
:1004F3000B024E830100006F17023A830100007163
:1005030017026C83400000600B023C838100006192
:100513000B024E830100007217023A83010000743C
:1005230017026C83400000630B023C83810000646C
:100533000B024E830100007517023A830100007716
:1005430017026C83C00000660B024E830100007823
:1005530017023A830100007A1702608340000067A4
:100563000B023C83810000680B023A830100007B8D
:1005730017026483C000006A0B023A830100007C07
:10058300170262834000006B0B023C838100006C06
:100593000B023A830100007D17026C83C000006EDA
:1005A3000B024E830100007E17FFFFFF0001307531
:1005B300030201060000000000000000000000002C
:1005C3000000000000000000000000000000000028
:1005D300FFFF0600800CE8030410023483010000CF
:1005E3002983023A83010000D718027E838000002A
:1005F3004014023A83010000D818028083000000EF
:100603004414023C83810000451412013529DA01A8
:1006130012013574DB01120135C0DC01120135B65C
:10062300DD0112013512DF011201357ADF011201FA
:1006330035CBE00112013522E401120135CBC302AF
:1006430012013571C40212013512C5021201354D72
:10065300C5021201352DC602120135CCC6021201A4
:100663003564C90212013525B90312013581B90375
:1006730012013594B903120135C6B9031201354984
:10068300BA031201356ABA03120135B8BA0312016B
:100693003577BB0312013505BC03120135D3BC0307
:1006A30012013529D6031201353CD6031201356DEB
:1006B300D603120135A7D60312013500D703120161
:1006C3003547D7031201358FD703120135BED70340
:1006D300120135EDD70312013524D8031201356B0E
:1006E300D80312013584D803120135D9D803120176
:1006F30035F2D80312013540D9031201357AD903F3
:100703001201359D8903120135A08A03120135D9DF
:100713008A03120135FC8A031201350E8B03120181
:10072300354C8B03120135C88B03120135908C03B2
:10073300120135B28C03120135498D031201359B29
:100743008D03120135CC8D03120135D98D031201AE
:1007530035438E031201359A8E031201359D8E03A4
:10076300120135D68E03120135D98E03120135E3FA
:100773008E03120135378F03120135788F0312016F
:1007830035AB8F03120135E88F03120135EA90036D
:100793001201358E9103120135F79103120135359C
:1007A30092031201357FCA03120135A7CA0312014E
:1007B30035D4CA031201350CCB031201356ACB03BE
:1007C300120135B6CB031201351DCC031201355D81
:1007D300CC031201359ACC03120135C8CC031201A4
:1007E3003572CD031201357CCD0312013589CD035A
:1007F300120135BCCD03120135C8CD03120135E01A
:10080300CD03120135EACD03120135D0FD031201E8
:1008130035DEFD03120135F6FD031201350DFE032E
:1008230012013599A70112013543A801120135566A
:10083300A901120135D2A901120135F0AA01120151
:10084300352CAB01120135C7AB01120135ABAC013D
:1008530012013577AD0112013505AF01120135766D
:10086300AF0112013530B00112013522B10112017D
:100873003562B10112013516B20112013548B201D8
:100883001201353EB40112013580B4011201359EC7
:10089300B40112013504B501120135D3B5011201BA
:1008A3003597B601120135B6B80112013566F80164
:1008B30012013550F901120135FBF9011201354CD2
:1008C300FA01120135FCFA011201356DFB01120127
:1008D3003552FC0112013586FC011201357FFD0101
:1008E300120135BCFD0112013598FE01120135D705
:1008F300FE01120135F3FE011201358FED031201E2
:100903003513EE031201353EEE0312013558EF03A2
:1009130012013578CE031201358ECE03120135ACA8
:10092300CE03120135BDCF03120135C7CF03120128
:1009330035F2D003120135E9D10312013556D20342
:10094300120135889A03120135B89B03120135321F
:100953009C03120135629C03120135759C0312013D
:1009630035BF9C03120135829E0312013585830135
:10097300120135118401120135758501120135818A
:100983008501120135BC85011201352B8601120147
:10099300353487011201353D88011201350489017F
:1009A300120135618A011201357F8A011201359CDA
:1009B3008A01120135498B01120135C68B011201DF
:1009C30035EE8B01120135B88E01120135BD8E0152
:1009D300120135D69001120135249101120135948B
:1009E3009101120135D29101120135AE920112012A
:1009F300356E9301120135BA9301120135BD93018E
:100A0300120135019401120135499401120135880F
:100A13009401120135AA9401120135DE94011201E9
:100A23003541950112013502A60312013510A603C3
:100A330012013563A60312013582A603120135C7DD
:100A4300A6031201350BA803120135A6A803120150
:100A530035EAA80312013514A90312013583A9034A
:100A6300120135C9A90312013540AA03120135F158
:100A7300AA03120135502E00120135602E00120117
:100A830035012F001201355D2F001201351A300098
:100A930012013536310012013568310012013597E4
:100AA3003100120135443300120135BB3500120108
:100AB300352B38001201351D3900120135163A0065
:100AC3001201351D3C00120135113F001201354062
:100AD3004000120135444200120135544300120113
:100AE30035E34400120135D4450012013522460096
:100AF300120135914600120135B546001201350643
:100B03004700120135A74B00120135A84C00120112
:100B130035094D00120135344D00120135FA4D00EF
:100B230012013545C6031201354FC6031201359430
:100B3300C603120135A8C60312013538C7031201D3
:100B43003571C703120135ACC703120135D5C7038D
:100B530012013529C8031201353EC803120135605D
:100B6300C80312013575C80312013589C803120180
:100B7300359EC803120135D8C80312013504C903D1
:100B830012013594C903120135BFC903120135029D
:100B9300CA031201352CCA0312013557CA031201C5
:100BA30035D6FE0212013531DA0212013514DB02A9
:100BB3001201358FDB02120135CADB021201351B2C
:100BC300DD02120135A9DD021201353BE0021201FB
:100BD30035EDE002120135F9E1021201356CE30251
:100BE300120135C5E302120135B3BD03120135F617
:100BF300BD031201357ABE0312013551C10312013F
:100C03003510E403120135C2E403120135BEE503D6
:100C1300120135FDE50312013557E6031201354292
:100C2300F303120135A5F30312013542F403120154
:100C33003577F403120135A7F403120135E2F40307
:100C430012013502F503120135DBAF0312013567DB
:100C5300B00312013526B1031201353EB20312016E
:100C63003558B40312013547B8021201356CB80286
:100C730012013539B9021201350DBA021201357A62
:100C8300BA02120135BABA0212013556BB02120179
:100C9300358ABC0212013565BD02120135C4BD029D
:100CA30012013550BE02120135BEBE021201354A91
:100CB300BF0212013590BF0212013502C0021201B8
:100CC3003594C00212013535C10212013555C102F6
:100CD3001201359DC102120135E6C102120135022E
:100CE300C20212013528C202120135A2C202120148
:100CF30035B0C2021201353FC302120135A8C30247
:100D03001201358FB40312013514B50312013556A0
:100D1300B5031201353AB603120135A7B603120122
:100D230035EBB6031201352FB7031201355CB70358
:100D330012013584B703120135BCB703120135FA2A
:100D4300B70312013521B8031201359BB803120111
:100D530035E5B8031201359CC9011201353BCB01BE
:100D630012013573CD01120135C7CD01120135F2E0
:100D7300CD01120135CECE01120135FECE01120195
:100D8300352DCF0112013540CF0112013581CF013D
:100D9300120135AECF01120135FCCF0112013538F6
:100DA300D0011201357DD001120135CAD0011201E3
:100DB3003544D10112013585D3011201356FD501B7
:100DC300120135ABD5011201353AD7011201357F36
:100DD300D701120135F2D70112013547D8011201AB
:100DE30035ABD801120135D6D801120135F5D90139
:100DF30012013506DA0112013592EE021201350BAA
:100E0300EF02120135C5F402120135D0F5021201C9
:100E13003579F70212013507F802120135B568007A
:100E2300120135366900120135636900120135ACD0
:100E33006900120135AD6A00120135066B0012011B
:100E430035826C00120135046D001201351F6D00EF
:100E5300120135906D001201354D6E0012013510EF
:100E63006F001201359E6F0012013555700012019B
:100E73003568700012013501710012013598710057
:100E8300120135BF7100120135287200120135724B
:100E93007200120135C0720012013567730012012E
:100EA3003505740012013592740012013503750083
:100EB3001201354A7500120135A27500120135D4AD
:100EC30075001201359576001201359877001201ED
:100ED30035E17700120135FE77001201351D7800E8
:100EE300120135507900120135077A001201352CB1
:100EF3007A00120135417A00120135B17A001201EC
:100F030035F27A00120135167C00120135977C0008
:100F13001201350080031201354B8003120135574E
:100F230080031201352B8103120135428103120123
:100F3300357F8103120135B08103120135E8810346
:100F43001201353E8203120135548203120135909A
:100F53008203120135A38203120135CA82031201EF
:100F630035FE82031201352484031201356E850395
:100F73001201356A86031201358087031201354554
:100F83002E001201350080021201352F800212015A
:100F930035818302120135D8840212013597850207
:100FA300120135FE8802120135EA89021201353C2D
:100FB3008A02120135568A02120135888A02120109
:100FC30035938A021201359C8A021201354E8B0237
:100FD3001201351E8C02120135658C02120135CBCC
:100FE3008C021201353D8D02120135199601120151
:100FF300355999011201355F99011201351EA0017E
:1010030012013543A401120135E2D90312013578E7
:10101300DA031201358EDA03120135E7DA0312011E
:10102300352BDB0312013565DB03120135FDDB03D1
:101033001201356CDC0312013575DC0312013581B5
:10104300DC031201359BDC03120135C5DC031201FD
:1010530035DADC031201353CDD0312013563DD03B0
:1010630012013503C20312013510C2031201352ADE
:10107300C2031201355DC2031201359BC203120183
:101083003500C30312013515C30312013520C30311
:101093001201352DC30312013544C3031201355226
:1010A300C3031201355DC30312013569C303120182
:1010B3003578C30312013583C303120135A6C30375
:1010C3001201354AC4031201355AC403120135749F
:1010D300C40312013591C403120135ACC4031201D8
:1010E30035D1C403120135DCC403120135F1C40345
:1010F30012013505C50312013566C5031201356CAE
:10110300C50312013572C50312013578C5031201F7
:101113003590C503120135C3C503120135C4AA02B4
:101123001201355BAB02120135F3AB02120135E359
:10113300AC021201351AAD021201352DAD021201B6
:10114300359BAD0212013536AF021201355DAF0298
:10115300120135FFAF0212013534B00212013545D9
:10116300B002120135BEB002120135DFB002120126
:1011730035F7B0021201354FB20212013558B402ED
:10118300120135A8B602120135ABB702120135FAC6
:10119300B702120135D9E901120135D6EA0112016C
:1011A30035C1EB01120135CBEB01120135EDEB013A
:1011B300120135F9EB011201354BED011201357ABC
:1011C300ED01120135AAEE01120135ECEE01120117
:1011D3003518F001120135EEF00112013540F1012D
:1011E3001201359FF101120135D6F10112013511BA
:1011F300F201120135ACF501120135C5F5011201F9
:101203003547F60112013555F601120135AAF601EB
:10121300120135B8F60112013525F7011201359790
:10122300F701120135DDF70112013521CF02120159
:101233003543CF021201352DD102120135D2D4022A
:1012430012013515D602120135EFD60212013510FF
:10125300F50312013535F503120135A6F503120125
:10126300355B92031201356492031201356D9203CB
:101273001201359E9303120135BD9503120135F317
:1012830095031201352D960312013563960312015E
:10129300359D9603120135D19603120135FD960350
:1012A300120135469703120135809703120135C8A1
:1012B30097031201351E9803120135539803120147
:1012C30035AE9803120135E89803120135399903B5
:1012D3001201356F9903120135A99903120135D70C
:1012E3009903120135FA990312013554FF011201D2
:1012F3003580FF01120135DBFF01120135E5FF01E6
:10130300120135F5FF01120135D4E003120135FB5B
:10131300E003120135BB8104120135664E00120150
:1013230035F05000120135F55100120135B7530065
:101333001201352354001201357D55001201353D4C
:101343005700120135665700120135B757001201D5
:10135300355A5B00120135B25C00120135F05C00B6
:10136300120135B35F00120135926000120135DFBF
:101373006100120135F66100120135356600120174
:1013830035FC670012013582E60312013514E703C9
:10139300120135A0E803120135E0FC03120135FF09
:1013A300FC031201351DFD0312013575FD03120106
:1013B300358CFD03120135008004120135118004C0
:1013C300120135B180041201358882041201355DA2
:1013D3007F00120135747F00120135BE7F001201B8
:1013E30035EAFF02120135E9FB03120135FBFB036A
:1013F30012013515FC0312013521FC031201352DB1
:10140300FC03120135DDFC03120135E4FA0312017A
:10141300356AFB03120135D0FB0312013548EB0398
:101423001201358AEB03120135D6EB03120135465F
:10143300EC031201357CEC03120135F2EC031201CB
:101443003542ED0312013556ED03120135C6F6039D
:10145300120135E5F60312013585F7031201351143
:10146300F80312013527F80312013587EF03120140
:1014730035C8EF031201352EF003120135E9F003ED
:101483001201355EF10312013561F103120135DEFC
:101493007F00120135EE7F00120135F17F0012014A
:1014A3003531F80212013550F80212013581F80284
:1014B30012013501F9021201355AF902120135768A
:1014C300F9021201359BF90212013517FA021201D2
:1014D300350FFB0212013552FB0212013546FE02A3
:1014E30012013588FE02120135F87F00120135EF33
:1014F300E80312013514EB031201356EE402120105
:101503003590E60212013538E7021201355AEA0234
:10151300120135A1EB02120135E5EB02120135E8A8
:10152300EB021201354CEC021201355DEC021201A3
:101533003573EC0212013597EC02120135A2EC026D
:10154300120135B3EC021201350AEE021201356ABB
:10155300EE021201356DEE0212013588EE02120120
:10156300358DEE021201358C8E02120135F38E0297
:101573001201355E90021201357990021201358B0A
:1015830090021201356691021201354A920212014C
:10159300356C9202120135BF9402120135B79702DE
:1015A300120135349902120135989902120135005E
:1015B3009A021201354C9A021201354F9A02120116
:1015C300357B9B02120135269C0212013560D20342
:1015D30012013557D503120135BFD5031201359DCD
:1015E300FE03120135C6FE03120135F4FE03120198
:1015F3003551A0031201355BA0031201359CA003F2
:10160300120135EBA00312013542A1031201359CEF
:10161300A103120135BBA103120135C5A1031201B8
:101623003516A20312013544A20312013526A30382
:1016330012013550A40312013593A403120135DCC2
:10164300A403120135EEA4031201350DA503120103
:101653003516A503120135D8A5031201353DF8034C
:1016630012013593F80312013520F903120135CD28
:101673007C00120135F77C00120135EE7D0012016A
:1016830035D37E00120135A5F90312013563FF033B
:1016930012013591DD03120135C7DD031201354116
:1016A300DF031201359AE003120135BC80041201F5
:1016B30035D28004120135DC8004120135328104F5
:1016C300120135EC9C02120135B4A002120135510E
:1016D300A1021201356CA402120135DBA70212012B
:1016E30035F2A7021201358FA902120135D9A902D9
:1016F30012013503AB0312013518AB031201350098
:10170300AC0312013533AC0312013580AC03120173
:1017130035DEAC031201354AAD031201356CAF035C
:10172300120135C3B801120135E0BD01120135754F
:10173300BF01120135CCBF01120135F0BF01120107
:10174300356EC0011201355FC4011201356DC5014B
:1017530012013566F103120135C2F103120135D5C9
:10176300F10312013571F20312013576F20312010E
:1017730035058204120135C7FF031201358B82043C
:10178300E066701008A3E066700A08A3E0667004C0
:1017930008A3E06622C3E09608A3E09608A3E096B8
:1017A30008A3E096A2D265D03322C008C3E096F521
:1017B3000808A3E096420808A3E096420808A3E0BD
:1017C300964208A2D265D033E5087001D3D008222F
:1017D300C3E7960809E7960809E7960809E79622FA
:1017E300C3E09608A3E09608A3E09608A3E0962238
:1017F300C008C3E096F50808A3E096420808A3E0F2
:1018030096420808A3E09645087001D3D008220841
:101813000808EAC0E0EBC0E086F0E7A4FA180986FE
:10182300F0E7A42AFA180986F0E7A42AFA18098629
:10183300F0E7A42AFA1986F0E7A4FBE5F02AFA19DF
:101843000886F0E7A42BFBE5F03AFA190886F0E7DF
:10185300A42BFBE5F03AFA18180986F0E7A4C5F0C3
:101863002BFBE43AFA1908E7C5F0C6A426F6E5F01F
:101873003BFBE43AFA1886F0E7A4F6E5F00826F60F
:10188300E43B08F6E43A08F6D0E0FBD0E0FA22E4C1
:10189300CFC0E0E4CEC0E0E4CDC0E0E4CCC0E0756E
:1018A300F020E626F608E633F608E633F608E633D4
:1018B300F6181818EC33FCED33FDEE33FEEF33FF6F
:1018C300C3EC9709ED9709EE9709EF97191919409A
:1018D3000FFFEC97FC09ED97FD09EE97FE1919062A
:1018E300D5F0BFECF709EDF709EEF709EFF7191992
:1018F30019D0E0FCD0E0FDD0E0FED0E0FF221219C9
:10190300691818181218921219581919192212194C
:1019130058191919080808E618181820E7E01218CA
:101923009212196918181822090909E719191920B7
:10193300E7DC080808E618181820E70302189212D3
:101943001969181818121892121969181818121907
:101953005819191922E4C397F709E497F709E4978B
:10196300F709E497F722E4C396F608E496F608E449
:1019730096F608E496F6226017080808C6A2E7134D
:10198300C618C613C618C613C618C613C6D5E0E9CB
:10199300226016080808C6C313C618C613C618C69D
:1019A30013C618C613C6D5E0EA2270090808082230
:1019B3006016181818C6C333C608C633C608C6331C
:1019C300C608C633C6D5E0EA22E627F60809E63795
:1019D300F60809E637F60809E637F622E026F608A0
:1019E300A3E036F608A3E036F608A3E036F622E0D5
:1019F30026F008A3E036F008A3E036F008A3E036AB
:101A0300F022C3E697F60809E697F60809E697F683
:101A13000809E697F622C3E0C696F608A3E0C69641
:101A2300F608A3E0C696F608A3E0C696F622C3E03E
:101A330096F008A3E096F008A3E096F008A3E096DA
:101A4300F022E056F608A3E056F608A3E056F6089F
:101A5300A3E056F622E056F008A3E056F008A3E010
:101A630056F008A3E056F022E0F608A3E0F608A338
:101A7300E0F608A3E0F622E6F008A3E6F008A3E602
:101A8300F008A3E6F022E0FAA3E0FBA3E0FCA3E066
:101A9300FD22EAF0A3EBF0A3ECF0A3EDF022E0F8D3
:101AA300A3E0F9A3E0FAA3E0FB22E8F0A3E9F0A3A3
:101AB300EAF0A3EBF022CAC0E0E6F0A308DAFAD01A
:101AC300E0FA22CAC0E0E0A3C582CCC582C583CDBB
:101AD300C583F0A3C582CCC582C583CDC583DAE6B1
:101AE300D0E0CA22C3E498F8E499F9121B288026AF
:101AF300C3E49AFAE49BFBE920E7E9121B28E49884
:101B0300F8E499F922C3E498F8E499F9121B28E45C
:101B130098F8E499F9C3E49AFAE49BFB22EB20E7F3
:101B2300CFE920E7E0B90010BB0008E88AF084F8A9
:101B3300AAF022E4FBC8FA22EB70227B10C833C858
:101B4300C933C9335007C39AC3DBF280069A5001E5
:101B53002ADBEAC833F4C8C933F4C9FA2275F0089A
:101B6300E4C833C8C933C933C99AC99B5004C92AC5
:101B7300C93BD5F0ECFBC833F4C8E4C9FA22600DC5
:101B830008C6A2E713C618C613C6D5E0F322600C35
:101B930008C6C313C618C613C6D5E0F422700422C0
:101BA300600D18C6C333C608C633C6D5E0F4182281
:101BB300251810AF08F518400C15198008F51840C2
:101BC300021519D2AF2200C0D0251810AF08F5189E
:101BD300500C05198008F51850020519D2AFD0D062
:101BE300222518F58210AF08F518400C1519800846
:101BF300F51840021519D2AF851983222518F582ED
:101C0300E43519F583222518F8E43519F922251846
:101C1300FAE43519FB222518FCE43519FD22E47397
:101C23002518C582C0E0E51934FFC583C0E0E51877
:101C3300C3958224F810AF0885831985821880081C
:101C4300858319858218D2AFCEF0A3E520F0A3785F
:101C530008E608F0A3DEFAEFF0A3E58124FAF8E63C
:101C630008F0A3E608F0A3E608F0A30808E608F0E6
:101C7300A3E608F0A315811581D0E0FED0E0F815A6
:101C83008115811581E8C0E0EEC0E0222518C582E8
:101C9300C0E0E51934FFC583C0E0E518C39582248D
:101CA300F910AF0885831985821880088583198503
:101CB3008218D2AFCEF0A3E520F0A37808E608F0AF
:101CC300A3DEFAEFF0A3E58124FBF8E608F0A3E630
:101CD30008F0A30808E608F0A3E608F0A3158115A9
:101CE30081D0E0FED0E0F815811581E8C0E0EEC0B8
:101CF300E022851983851882E0A3FEE0A3F520780E
:101D030008E0A3F608DFFAE0A3FFE0A3C0E0E0A346
:101D1300C0E0E0A3C0E0E0A3C0E0E0A3C0E010AFF8
:101D2300088582188583198008858218858319D2CE
:101D3300AFD083D082020132851983851882E0A354
:101D4300FEE0A3F5207808E0A3F608DFFAE0A3FF9E
:101D5300E0A3C0E0E0A3C0E0E0A3C0E0E0A3C0E0F4
:101D630010AF0885821885831980088582188583BA
:101D730019D2AFD083D08222C0D02518C582C0E04B
:101D8300E51934FFC583C0E0E518C3958224F31039
:101D9300AF08858319858218800885831985821881
:101DA300D2AFC8F0A3E9F0A3EAF0A3EBF0A379085C
:101DB300E709F0A3D8FAECF0A3EDF0A3EEF0A3EF5C
:101DC300F0A3D0E0F0A3D0E0F0A3D0E0F0A3E520AF
:101DD300F0A3E5F0F0A322851983851882E0C0E023
:101DE300A3E0F9A3E0FAA3E0FBA37808E0F608A3D5
:101DF300DFFAE0FCA3E0FDA3E0FEA3E0FFA3E0C065
:101E0300E0A3E0C0E0A3E0F5D0A3E0F520A3E0A3C6
:101E1300F5F010AF0885831985821880088583192A
:101E2300858218D2AFD082D083D0E0F8D0E032746C
:101E3300048006740280027401C0E0F404121BE4FF
:101E4300D0E0121AB9227404800474028000CCC05A
:101E5300E0EDC0E0E518C39CCCAD1950011D10AFF7
:101E6300068C188D1980068C188D19D2AF121AC6DC
:101E7300D0E0FDD0E0FC22D083D082E9C0E0E4933F
:101E8300A3C386F0C5F095F0F908E493A386F0C5E3
:101E9300F095F0700BE493A3C3994005E904800225
:101EA300A3E475F002A42582F582E5F03583F5837A
:101EB300D0E0F9E493A3C0E0E493C0E022D083D060
:101EC30082ECC0E0EDC0E0E493A3FCE493A3FDED5A
:101ED3004C600D121F0CEC24FFFCED34FFFD80EF72
:101EE300E493A3FCE493A3FDED4C600D121F4BECB4
:101EF30024FFFCED34FFFD80EFD0E0FDD0E0FCE4F7
:101F030093A3C0E0E493C0E022C0E0C3E493960847
:101F13007401939618400FE4936670080874019354
:101F2300661870007019A3A3C3E493960874019311
:101F33009618A3A3400DD0E0D0E0D0E0021EFCA38E
:101F4300A3A3A3A3A3D0E022C0E0C0F088F0E4934E
:101F53006670080874019366187000A8F0A3A37054
:101F63000BD0F0D0E0D0E0D0E0021EFCA3A3D0F071
:031F7300D0E02299
:101F780074F6121C8FEAFEEBFF8C088D09EE2434F0
:101F8800F8E43FF9E8FCE9FDEE24351222B2FAEE56
:101F980024371222B2F88508F0A4C885F00A85090A
:101FA800F0A4250AF9EA28F8E439F97A257B001221
:101FB8001B28EA8C828D83F0FA131313541FF8EE52
:101FC80028F8E43FF9E8245DF582E439F583E0C0B8
:101FD800E074075AF8D0E0B800028004C313D8FCB4
:101FE800A2E0EE50082434F582E43F80182436122B
:101FF80022B2F5F0EA84A8F0EE28F8E43FF9E824E4
:1020080038F582E439F583E0F97F03021D3B74F764
:10201800121C8FEAFEEBFFEE24341222B2C0E0EE6F
:102028002435F582E43FF583D0E0F08E828F83A3D8
:10203800A3A3A3A3A3A3C082C0838E828F83A3A3D9
:10204800A3A3A312211BD083D082E0C398F508A3D1
:10205800E099F509EE247F1222B26401705DEE2446
:10206800801221158E828F83A3A3A3A3A3A3A312F7
:1020780024558E828F83A3A3A3A3A3E0FAA3E0FB36
:10208800C3EA9CEB9D5010C3EC98ED99402DC3EA30
:1020980098EB995026800EC3EA98EB994007C3EC59
:1020A80098ED9940167CCA7D06EEFAEFFB120EBF3A
:1020B800EE247FF582E43FF583E4F0AC08AD09EE49
:1020C800FAEFFB121F78E9F9122CFA7F02021D3B86
:1020D800C082C08385188285198312211BC3EA9C9C
:1020E800EB9D5010C3EC98ED99401BC3EA98EB990F
:1020F8005014800EC3EA98EB994007C3EC98ED9909
:102108004004790180027900D083D08222F582E4EC
:102118003FF583E0F8A3E0F922EAC39CFAEB9DFBC4
:102128002274EF121C8F900590E064086005E0644B
:1021380007702A9061C8E060249005BEE0F4601D35
:10214800E0F875F00AA4C8AAF02AF974C028FE7449
:102158000539FF8E828F83A3A3A3E0700302223781
:10216800906060E0C0E0EE2468F582E43FF583D03B
:10217800E0F0750C3A750D07750800750900E5D98A
:1021880014F50AE5D95403F50E60127403650E6060
:1021980043E50A600AEE24671222B2700280759045
:1021A8000735E06401601F1222AF60047A048002E0
:1021B8007A00E50AC39AFA95E0FB120D698A088B42
:1021C80009EA450970051210FF80641222AF7004F5
:1021D8008A0C8B0DE50A6012850C82850D83F50B40
:1021E800E5D9F0A3150BE50B70F61222AF60447425
:1021F800FC250AF50A780C121E36AC0AA90EEEFA6E
:10220800EFFB120F797402121BC9E97026AA08ABFA
:1022180009121663793D8E828F83A3A3A3A3E0FAE4
:102228007B00120BCBEEFAEFFB120EE3120F8B7949
:1022380000806F7403650E6051850A10751100786F
:1022480010121E36AC0CAD0DAA08AB09120F3D7466
:1022580002121BC9EE24681222B264807004747FD3
:102268008001E0F50C780C121E3AE50EF50C780C9E
:10227800121E3AA90AAC08AD099005BEE0FA7B0027
:10228800120BA17402121BC98013900590E0640818
:10229800600BAC0CAD0DEEFAEFFB120FFD12110B3B
:1022A80079017F0A021D3BEE2482F582E43FF58323
:1022B800E02274F2121C8F74FC121BB3EAFEEBFFCF
:1022C8008909A2AFE433F508C2AF022376E0601BA8
:1022D800780C121E36AC0BA90EEEFAEFFB120F7338
:1022E8007402121BC97404250BF50B7401250BF538
:1022F800D9850ED9E50B6018F50A850C82850D8302
:10230800E0F5D9A385820C85830D150AE50A70EAE4
:1023180075E195EE2463F8E43FF97A007B00A2AFFB
:10232800E433F50BC2AF122451EC4D603288828938
:1023380083E0FAA3E0FB8A828B8312245588828982
:1023480083ECF0A3EDF08A828B83E4F0A3F01224EF
:1023580051EC4D700A88828983A3A3E4F0A3F0E5C9
:102368000BA2E092AF1216639006D1E004F0EE24BF
:1023780063122115E8496064EE24631222B2240234
:10238800F8A3E03400F988828983E5822402F50CF9
:10239800E43583F50DE0F50BA3E0F50EEE246212AB
:1023A80022B2640170369061D0E0F81222AF600466
:1023B8007C0480027C007480C398FA95E0FBE50BEE
:1023C8002CF8E43400F9E82402F8500109C3EA982B
:1023D800EB99A2D265D03340030222D59006D1E012
:1023E800604D9006D2E0F89006D1E0C398500C7486
:1023F800026509703A9006D3E060348E828F83A319
:10240800A3A3A3E0851882851983122447740212B6
:102418001BFFE81224479006D0E028F07402121C33
:1024280019AA18AB197901120BF59006D1E4F0E559
:1024380008A2E092AF7404121BC97F07021D3BF08B
:10244800A3E4F09006D1E0F82288828983E0FCA317
:10245800E0FD22008521878522C622C0E074EB12A8
:102468001D7BA2AFE433F508C2AF759B0090618273
:10247800E0A2E05030E591A2E0502A7591FE740187
:10248800652170211225F612104B1225E4121E49FF
:10249800122AA47404121BC9E96401700579011297
:1024A8001093122129906182E0A2E5505DE591A286
:1024B800E550577591DF900590E064076005E0648A
:1024C80008702F1225F674016521703E12104B1208
:1024D80025E4121E49122AA47404121BC9E96401D6
:1024E800700579011210937901EEFAEFFB1222BA06
:1024F8008018E0640D70139005B2E004F064287051
:1025080002E4F07A00E0F9121111906182E0A2E68B
:1025180040030225B9E591A2E640030225B9759169
:10252800BF900590E06405700812103312103F80C8
:102538000312103975210012109FE9900591F07966
:1025480000121093120E2F7A017B0090058FE0F98C
:10255800121633907803E064427056900739E014FD
:10256800F0704EC2AF12257000782AD0E0F618D06D
:10257800E0F6E59F5407F87005750DFF8003750DAB
:102588007FC4C0E07829E6F50A08E6550DF50B7416
:102598000B780A121B91D0E0250AF8906270E0A22D
:1025A800E740F8E8C333906272F0906270E0D2E0DE
:1025B800F0906181E0A2E35009E5E9A2E3500375D8
:1025C800E9F7A3E0A2E75009E591A2E75003759166
:1025D8007FE508A2E092AF7F08021DDA8E828F8322
:1025E800E0F8A3E0C82416F582E438F583229005C4
:1025F800BEE0F875F00AA4C8AAF02AF974C028FE4B
:10260800740539FF22C0E0C0D0C082C083906183C6
:10261800E0A2E05009E5BFA2E0500375BFFEE0A2CA
:10262800E15009E5BFA2E1500375BFFDE0A2E25009
:1026380009E5BFA2E2500375BFFBE0A2E35009E53C
:10264800BFA2E3500375BFF7E0A2E45009E5BFA2BB
:10265800E4500375BFEFE0A2E55009E5BFA2E550DD
:102668000375BFDFE0A2E65009E5BFA2E650037597
:10267800BFBFD083D082D0D0D0E032C0E074F21295
:102688001D7BE5A7A2E6500FE5A1A2E6500953A7D6
:10269800BF75A1BF1226D7E5A7A2E5500CE5A1A2F8
:1026A800E5500653A7DF75A1DFE5A7A2E15009E5CC
:1026B800A1A2E1500375A1FDE5A7A2E2500CE5A196
:1026C800A2E2500653A7FB75A1FB7F01021DDA7435
:1026D800F7121C8F752101900590E06406701512A1
:1026E8000FAF8A828B83A3A3A3A3A3A3E0FAA3E0DB
:1026F800FB121021A2AFE433FED2AF900596E0643E
:102708000170187A207B0090058FE0F912170B7A78
:10271800207B0090058FE0F9121639906182E0D293
:10272800E6F0900736E0602185C622801690059570
:10273800E064017008E5C654F84405F5C653BEFCCC
:1027480012245C7401652160E4EEA2E092AF7F027E
:10275800021D3B008E238F248582288583278518B8
:1027680082851983E0CEA3E0CF852882852783EB75
:10277800C9EAC8EDCBECCA75F010C3E833C8E93331
:10278800C9EA33CAEB33CBC3EA9EF526EB9FF5259E
:10279800B35004AB25AA26EC33CCED33CDD5F0DA13
:1027A800AE23AF242274E9121C8F74FA121BB3EA09
:1027B800FEEBFF8C0A8D0B121057EAF8EBF9ECFAD6
:1027C800EDFB8E828F83121AAD900590E024F7C33B
:1027D80094055006751401022914120FAF8A088B4C
:1027E80009EA45097003022911EEFCEFFDAA18ABAE
:1027F80019121051850882850983A3A3780C121A2F
:102808006B9082E8780C121A4585188285198378AE
:1028180010121A6B9082E87810121A45780C791009
:102828001217D3501F780C7910121A059082C478A9
:102838000C1217F34047850C14850D15850E168567
:102848000F1780459082C4851014851115851216BE
:102858008513177814790C121A0578141217F35087
:102868001C75140075150075160075170178147914
:1028780010121A057814790C1219CC800C751401F1
:10288800751500751600751700740978141219ADBE
:102898009082C8780C121A6B7814790C12189285E9
:1028A8000882850983A3A3A3A3A3A3122932121B19
:1028B80028880C890DE4F50EF50F7814790C121997
:1028C800CC7404121BFF122932121B28E8FA8A0C56
:1028D800E4F50D7814790C1217D350077814790C95
:1028E800121A05900590E06408600AE06406600525
:1028F800E0640570209082CC78141217F35016907B
:1029080082D078141219DF800C75140075150075C3
:102918001600751700850A82850B837814121A7AB7
:102928007406121BC97F10021D3BE0F8A3E0F97A78
:10293800D07B032274F7121C8F121069900734E0C1
:1029480064017010906245E4F0A3F053F4F343FE81
:102958000C5390F312100FE5C654B84441F5C6E580
:102968009E5447644170F8906185740FF090073267
:10297800E0F47002A3E0604E900733E06008146052
:102988001B14602E8040750801750900900732E01D
:102998007808121BA0E508F45280802A7508017592
:1029A8000900900732E07808121BA0E508F452905D
:1029B8008014750801750900900732E07808121B29
:1029C800A0E508F452A079007F02021D3B74F712BB
:1029D8001C8FE9FEEAFF12106974016E700C7A8090
:1029E8007B0090058FE0F9121633902E48E493F49B
:1029F8006008E493F9120E23800953C6B8E59E5483
:102A08004770FA121015900734E064017003120E33
:102A180041900732E0F47002A3E0604B900733E086
:102A2800600814601A14602C803D7508017509004F
:102A3800900732E07808121BA0E5084280802875CC
:102A48000801750900900732E07808121BA0E50814
:102A580042908013750801750900900732E07808E4
:102A6800121BA0E50842A0120FAF8A088B09A8081C
:102A7800A909E8496014E5E170FCE82414F582E44A
:102A880039F583E0F46003E0F5E174016F700A7AC8
:102A98000190058FE0F91216B70229D074F1121CC3
:102AA8008F8A088B098C0A8D0B9082E87808121A95
:102AB80045740F121BFF780C121A6B9082E8780C81
:102AC800121A457808790C1217D39082C4501078DE
:102AD80008790C121A0578081217F34014800E783A
:102AE8000C7908121A05780C1217F3500479018032
:102AF8000279007F08021D3B74ED121C8F8A088B37
:102B0800098C0A8D0B9082E87808121A4574131202
:102B18001BFF780C121A6B9082E8780C121A457811
:102B28000C79081217D340117808790C121A05AAE3
:102B380008AB09AC0AAD0B80227510007511007541
:102B480012007513017810790C121A05781079089B
:102B58001219CCAA10AB11AC12AD137F0C021D3B9D
:102B68009082E87808121A6B8A828B837808121A86
:102B7800587F04021D3B74F5121C8F8C828D83785C
:102B880008121A6B8A828B837808121A31122BD694
:102B9800C3E09CF0A3E09D122BC8402290830C78E0
:102BA80008121A6B8A828B8378081219F28A828B30
:102BB80083A3A3A3A3E02420F0A3E0344EF080A0D5
:102BC800F088828983C3E09420A3E0944E22EA240B
:102BD80004F8E43BF98C828D83A3A3A3A3E0FCA3B0
:102BE800E0FD888289832274F5121C8FE9FE900625
:102BF800ECE0FAA3E0FBEE29F8E433F9742128F5B8
:102C080082748239F583E02AF508A3E03BF5097858
:102C180008121E36908300121A8912275C74021259
:102C28001BC98A088B098C0A8D0B74107808121935
:102C380094AA08AB097F04021D3B74F1121C8F8A09
:102C48000C8B0D8C0E8D0F7411121BFF121E4D7400
:102C580011121BFFE02401F508A3E03400F509E494
:102C6800F50AF50B780C79081218129082DC7808AE
:102C7800121A6B780C7908121812AA0CAB0DAC0E4C
:102C8800AD0F12275C7402121BC98B09EA45096053
:102C9800047A0180027A00EC2AFCE43DFD741312E8
:102CA8001BFFE0F8A3E0F9E8FEE9FFECF8EDF97A9C
:102CB800717B02121B2888088909E4F50AF50B8E36
:102CC800828F837808121A7AECF8EDF97A717B0210
:102CD800121B288A088B0974057808121BA08E829B
:102CE8008F83A3A3A3A3E508F0A3E509F07F080257
:102CF8001D3BC082C083E9906000F0D083D082225F
:102D0800C0E0C0D0E8C0E0E9C0E0EAC0E0EBC0E065
:102D1800ECC0E0EDC0E0EEC0E0C082C083C0F0A22D
:102D2800AFE433FED2AFE58AA2E25018E58DA2E205
:102D38005012538DFB539AEF7A007B01900A2CE0D6
:102D4800F9121633758A00C2EBEEA2E092AFD0F00A
:102D5800D083D082D0E0FED0E0FDD0E0FCD0E0FB14
:102D6800D0E0FAD0E0F9D0E0F8D0D0D0E032C0E03E
:102D7800C0D0E8C0E0E9C0E0EAC0E0EBC0E0ECC0E9
:102D8800E0EDC0E0EEC0E0C008C009C00AC00BC05A
:102D980082C083C0F0AEA8D2AFE58954076037532C
:102DA800ABF87589F8900A36E070287401F01216AD
:102DB80087750819750900750A00750B00780812DF
:102DC8001E327A017B00900A2CE0F91216FF740477
:102DD800121BC943AB077589F8C2C5EEA2E7E433F5
:102DE800F8EEA2E792AFD0F0D083D082D00BD00A11
:102DF800D009D008D0E0FED0E0FDD0E0FCD0E0FB68
:102E0800D0E0FAD0E0F9D0E0F8D0D0D0E032C0E09D
:102E1800C0D0E8C0E0E9C0E0A9A8D2AFC2C7751A1F
:102E280000E9A2E7E433F8E9A2E792AFD0E0F9D0ED
:102E3800E0F8D0D0D0E032C2AF0200002202013266
:102E4800FFFFFFFFFFFFFFFFC082C083E99015EE81
:102E5800F0D083D08202013274F6121C23E9900567
:102E680002F0900562E0F50875090074027808120E
:102E78001BA0AA08AB0912169F90050312381390DD
:102E88000503123C00606F900562E075F003A4FA38
:102E9800ABF012169F900520123813900520123CB3
:102EA80000700B900503123BD11216A580489005BF
:102EB80020124B657AFF7BFF1213877A0080198AEC
:102EC8000875090074027808121BA012460D74FFD9
:102ED800123013E4F0A3F00A900562E0F8EAC39810
:102EE80040DD7905120A8D900502E0F91209797A18
:102EF800177B0B120D090246B074F4121C238A08C2
:102F08008B09EB54806047900502E0F912162D8A70
:102F18000A8B0BAE0AAF0BEE4F602A8E828F83E0CE
:102F280064B0701A120A9FE960148E828F83A3A37B
:102F3800A3A3E0F9EE2405FAE43FFB120A6FEEFAC8
:102F4800EFFB121621AA08E5096480FB80047A00C9
:102F58007B0002316374F2121C2374FB121BB3EA68
:102F6800FEEBFFEE4F60457403121BFFEEF0A3EF7C
:102F7800F0851882851983ECF0A3EDF07402121B1A
:102F8800FFE9F0AA18AB19120973E9F5087075740E
:102F980013121BFFE0F50AA3E0F50BE50A450B60E9
:102FA800638E828F8312359CEE4F70057508028000
:102FB800537A067B0012169F8A0C8B0DA80CA90D5C
:102FC800E8497005750813803B88828983E41230CC
:102FD80013EEF0A3EF12312FE50AF0A3E50BF09002
:102FE80005061231289005066017E0FCA3E080036F
:102FF800EAFCEBFD8C828D8312312870F38C828D74
:1030080083124228A9087405024DE5F0A3124B4724
:10301800A32274F2121C238908890C750D0074030D
:10302800780C121BA0850C0A850D0B900505F090F5
:103038000503124033123126602E1216A57900803E
:103048001D890C750D007402780C121BA0900503E5
:103058001244CC8882F583A3A3E4F0A3F009900579
:1030680062E0F8E9C39840D9900562E0FA850AF071
:10307800A4CAA8F0850BF0A428FB12169F8A0C8B13
:103088000DAE0CAF0DEE4F700302311C900562E0DF
:10309800FC850AF0A4CCA8F0850BF0A428FD7900E3
:1030A80012160F7C0080318D0C750D007403780C9E
:1030B800121BA08A828B8312312188828983E4F0D3
:1030C80012312EA3A3F0A3F00DEDC3950840D8EE5E
:1030D800250AFEEF350BFF0C900562E0F8ECC3986B
:1030E80050288C0C750D007402780C121BA09005EA
:1030F80003123121E82402500109FAE9FB8A828B84
:1031080083EEF0A3EFF07D0080BFE508900505F0A1
:10311800790080027913024DE81244D0F922A3A362
:10312800123BD5EA4B22A3124B47A3A3A32274F464
:10313800121C237900EAA2E0501F7508B4750982B1
:103148007808121E3679107C047D007AF07B1512FF
:103158000A877402121BC9E9F980007F04021CF572
:10316800C082C083900506123C00601C8882898357
:10317800A3A3E06A7003A3E06B8882898370E8A345
:10318800A3A3A3123BD180047A007B00022E5974BA
:10319800F2121C2374FD121BB3EAFEEBFF851882A2
:1031A800851983E4F0A3F07402121BFF7401F01276
:1031B8003BFD7014120C4312169F90050912381328
:1031C800123BFD7003023329123913EE2404F50A69
:1031D800E43FF50B850A82F583E024FE603C24FC7D
:1031E800607424FE607E24FE700302327924FE702F
:1031F8000302328624FE700302329324FE70030217
:1032080032A024FE70030232AD24FC70030232CED9
:1032180024FE70030232E6023322120C4390050B9F
:10322800EAF0A3EB1233351206AFE960030233224A
:1032380090050B121E4D8E828F83A3A3A3A3A31206
:103248004B65850882850983123BD1120A5774029F
:10325800121BC9023322AC18AD19EEFAEFFB120AA1
:10326800A50232F1AC18AD19EEFAEFFB120AAB80E9
:1032780078AC18AD19EEFAEFFB120AB1806BAC18F6
:10328800AD19EEFAEFFB120AB7805EAC18AD19EE75
:10329800FAEFFB120ABD8051AC18AD19EEFAEFFB3C
:1032A800120AC380447402121C09880C890D780C18
:1032B800121E367402121C19EEFAEFFB120AC974B8
:1032C80002121BC98023AC18AD19EEFAEFFB120AE3
:1032D800CFE9F870167402121BFFE4F0803CAC18BA
:1032E800AD19EEFAEFFB120AD5E9F8E8602C8E82E8
:1032F8008F83A3E064146022850A82850B83E090A3
:10330800050BF0851882851983123BD190050C12A4
:103318003813E8A31233351206A9EEFAEFFB120AA6
:103328002D7402121BFFE0F97403024DE5F07C0BCB
:103338007D05850882850983123BD52274E8121C15
:103348002374FA121BB37404121BFFECF0A3EDF004
:103358008A128B13EA2405F50EE43513F50FEA24D7
:1033680002F510E43513F511851082F583123BD16F
:1033780012079F8A0A8B0B7508007C037D00790071
:103388007A0B7B0512160FE50E2402F516E4350FAD
:10339800F5177402121C09880C890D780C121E3658
:1033A800850E82850F83A3A3A3A3E0F50C750D00FA
:1033B800780C121E36E50E2405F50CE4350FF50DD4
:1033C800780C121E36851682851783123ED812098C
:1033D800917406121BC98A0C8B0DE50C450D700300
:1033E8000235658020851882851983E08882898363
:1033F800F00508851882851983A3E0C0E01235A678
:10340800D0E0F00508E50A24FBFAE50B34FFFBC31E
:10341800E5089AE49B40030235657E007F0085122B
:1034280082851383A3A3A3A3E0F5097809121E3AA2
:10343800E4F514F5157814121E367514087515057B
:103448007814121E36900509121E4D7409121BFFBE
:10345800121E4DE50A24F9F9AC0CAD0D85108285D4
:103468001183123BD1120AFF7409121BC9E96003C8
:10347800023506850E82850F83A3A3A3A3A3A3A366
:10348800E0F8900508E0687075E0F5148E1578147A
:10349800121E36124B62850E82850F83A3A3A3A347
:1034A800A3A3A3A3123BD11216097402121BC9E9E4
:1034B800604C90050C123C00703BE4F51478141233
:1034C8001E367CFF7DFF7907851082851183123BAC
:1034D800D1120A697402121BC9123C067017850EB4
:1034E80082850F83124CFF7404121BFF1245C01211
:1034F8003F09023599850C82850D8312359CA818E1
:10350800A919881489157814121E367404121BFF21
:10351800121E4D85168285178312380912099D746B
:1035280004121BC98A0C8B0DEE4F70030233E21292
:1035380035A6EE1235B1123EBFEF1235B1F8A3E051
:103548003400F9E50C450D60030233ED8882898368
:1035580074FFF005081235A674FFF00508E5086049
:103568001A1313543F1238191206BBE96009900563
:103578000C123BD112166379008016850E82850FD6
:1035880083124CFF7404121BFF1245C012422879A3
:103598000A023E92A3A3A3A3E0FEA3E0FF22A80889
:1035A80090050CE028123EBF22F005080890050C93
:1035B800E0282274E8121C2374FA121BB374021256
:1035C8001BFF1238137404121BFFECF0A3EDF07408
:1035D80002121BFFE02405123EA8E0F50CA3E0F55B
:1035E8000D7402121BFFE02402F510A3E03400F56D
:1035F80011851082F583123BD112079F750800755B
:103608000900EA24FCFEEB34FFFF8008050CE50CFA
:103618007002050DA808C3EE98EF94005003023716
:10362800C5A818A919880E890F780E121E36851498
:1036380082851583A3A3A3A3124B69121E36E51432
:103648002405F50EE43515F50F780E121E3685148F
:10365800828515831238071209917406121BC98ACC
:103668000E8B0FEA450F70030237C5EA2404F516DE
:10367800E4350FF517851682F583E0F50CA3E0F520
:103688000D851882851983124B658A828B83A3A3C3
:10369800A3E0F9851082851183123BD112097FE9D5
:1036A800F50960030237C57402121BFF123ECFF5FD
:1036B800097809121E3AE4F512F5137812121E362B
:1036C8007512087513057812121E36900509121E18
:1036D8004D7407121BFF121E4DEEF9AC0EAD0F858F
:1036E8001082851183123BD1120AFF7409121BC97B
:1036F800E9F50960030237C5E508703FE4F50EF502
:103708000F780E121E367CFF7DFF790985108285A1
:103718001183123BD1120A697402121BC9123EF5B9
:10372800700D7404121BFF1237FC79110237F990DF
:103738000508E0240290050CF0801490050CE0FACE
:10374800900508E0790024025001096A497072A8BE
:1037580008900508E0FAE82AFAE43400FBEE9AEF4C
:103768009B405A851682851783E0C0E090050D12AC
:1037780035ABD0E0F00508851682851783A3E0C035
:10378800E00890050D1235ABD0E0F005089005086B
:10379800124B69121E36124B62A808123E9C121573
:1037A800F77402121BC9900508E02508F50874FF94
:1037B800650C700474FF650D6003023614E508603B
:1037C8001F90050CE0F5F0E508841238191206C1BF
:1037D800E9600990050D123BD1121663790080113A
:1037E800E509700375090A7404121BFF1237FCA956
:1037F80009023E92124037E50CF0A3E50DF022A332
:10380800A3124DF4AA0CAB0D22A3A3EAF0A3EBF08C
:103818002290050BF07C0B7D0585108285118312A3
:103828003BD52274EC121C2374FC121BB3124338D0
:103838007402121C19123BCB1209978A0C8B0DEAE1
:10384800450D7003023903123913A818A9198810F5
:1038580089117810121E367CFF7DFF790B8508824E
:10386800850983123BD1120A697402121BC9123AE4
:1038780009700C850A82850B83123F060239108E67
:10388800828F83A3A3A3A3E0F5127812121E3AE451
:10389800F512F5137812121E3675120B751305788A
:1038A80012121E367810121E367409121BFF121ED1
:1038B8004D7409121BFFE0F9AC0CAD0D850882852B
:1038C8000983123BD1120AFF7409121BC9E9FE7061
:1038D800157C0B7D05850882850983123BD112066C
:1038E800C7E97009802074166E70027E0090050C7E
:1038F800123BD1121663EE7004800B7E01850A829A
:10390800850B83124225EEF902423AEE2402F508AD
:10391800E43FF5092274EC121C2374FC121BB3EA71
:10392800FEEBFF8C0E8D0FEE2405F508E43FF5093C
:103938007402121C19850882850983123BD1120969
:10394800978A0C8B0DEA450D70030239F9EE2402B3
:10395800F50AE43FF50BA818A91988108911781001
:10396800121E367CFF7DFF790D123BCB120A69745B
:1039780002121BC9123A09700B8508828509831245
:103988003F06807A8E828F83A3A3A3A3E0F51278E3
:1039980012121E3A850882850983A3A3121E4D754B
:1039A800120B7513057812121E367810121E367413
:1039B80009121BFF121E4D7409121BFFE0F9123B7E
:1039C800C7120AFF7409121BC9E9FE700F7C0B7D30
:1039D80005123BCB1206CDE97009802074166E7073
:1039E800027E0090050C123BD1121663EE70048023
:1039F8000B7E01850882850983124225EEF9024271
:103A08003A123C10F510A3E0F511EA45112274E8CA
:103A1800121C2374FE121BB38A168B178C148D1577
:103A2800EA2405F50CE43517F50DEA2402F50EE451
:103A38003517F50F850E82F583123BD112079F8A41
:103A4800088B09750B007C037D0079007A0B7B05D8
:103A580012160F750A00E50814F5100424FFF5087E
:103A6800E50934FFF509805490050BE0FA90050844
:103A7800E0F8EA28F8E43400F9E50898E5099950EF
:103A88000D90050BE0F8E510C398900508F0E0F5F7
:103A9800127513007812121E36124B6290050CE054
:103AA8002AFAA3E03400FB1215F77402121BC9901E
:103AB8000508E0F890050BE028F0050A850C8285DA
:103AC8000D83A3A31244DC4003023BAC90050BE03A
:103AD800C39508E495094003023BACAE0AEE2EFEFE
:103AE800E433FF123BEBAC18AD19124B7DE439FB04
:103AF8001209978A128B13AC12AD13EC4D701B751B
:103B08000B01123BDB12422990050C12312860038D
:103B1800121663A90B7402023E94851682851783D8
:103B2800A3A3A3A3E0F50B780B121E3AE4F512F554
:103B3800137812121E367512087513057812121EA4
:103B480036900509121E4D7407121BFF121E4DA94F
:103B580010850E82850F83123BD1120AFF74091259
:103B68001BC9E9F50B709B90050C123C0060030221
:103B78003A70E4F512F5137812121E367CFF7DFFB9
:103B8800790F850E82850F83123BD1120A69740260
:103B9800121BC9123C066003023A70123BDB123F4B
:103BA8000A023B1D7C0B7D05850E82850F83123B27
:103BB800D11206D3E96003023B107900023B1DAC29
:103BC8000CAD0D850A82850B83123BD522E0FAA342
:103BD800E0FB22123BEBE0FAA3E0F9EA85148285C8
:103BE800158322850C82850D83E02EF8A3E03FF92A
:103BF8008882898322900509124D03E84922123CE4
:103C080010F8A3E0F9E8492290050CEAF0A3EBF0DC
:103C180090050CE02274E8121C2374FA121BB3748A
:103C280004121BFF1238138C168D177404121BFF15
:103C3800E02405F50EA3E03400F50F7404121BFF11
:103C4800E02402123EA8123BD112079F8A0A8B0B6E
:103C58007F007E00A818A919880889097808121E0B
:103C680036850E82850F83A3A3A3A3E0F5088E09EA
:103C78007808121E36E50E2405F508E4350FF50917
:103C88007808121E36850E82850F83A3A3123ED8AC
:103C98001209917406121BC98A0C8B0D8029123ED9
:103CA800C9F00F123EC9F00F900508124214121EF7
:103CB80036124B62EFF8123E9C1215F77402121B73
:103CC800C9900508E02FFFE50C450D7003023D582B
:103CD80085188285198312434AA3A3A3E0F98514A2
:103CE80082851583123BD112097FE9FEE50C240475
:103CF800F510E4350DF511EE70507404121BFF1227
:103D08003ECFF5087808121E3AE4F508F509780858
:103D1800121E367508087509057808121E369005B2
:103D280009121E4D7407121BFF121E4DE50A24FAD4
:103D3800F9AC0CAD0D851482851583123BD1120A9E
:103D4800FF7409121BC9E9FE6039123EE5124228C8
:103D5800EF7003023E7F90050CE0F5F0EF849005CC
:103D68000BF07C0B7D05851482851583123BD112DF
:103D780006D9E9600990050D123BD1121663790046
:103D8800023E928F08EF703BE4F512F51378121299
:103D98001E367CFF7DFF7911851482851583123BC1
:103DA800D1120A697402121BC9123EF57009123E3B
:103DB800E5123F09023E92900508E0240490050CA4
:103DC800F08035900508E0F890050CE0FAE8240446
:103DD800FCE43400FDEC6A4D6003023D5EE50A2414
:103DE800FAFAE50B34FFFBE50828F8E43400F9EAB1
:103DF80098EB995003023D5E851082851183E0C0DF
:103E0800E090050DE02FF8A3E034008882F583D018
:103E1800E0F00F851082851183A3E0C0E0123EB662
:103E2800D0E0F00F7402121C09880889097808127A
:103E38001E367402121BFF121E4D850E82850F83DB
:103E480012380712099D7404121BC98A0C8B0DEADB
:103E5800450D7003023CA67402121BFFE0C0E0127D
:103E68003EB6D0E0F00F7402121BFFA3E0C0E012D0
:103E78003EB6D0E0023CAEEE70027E0A850E828528
:103E88000F83123EEB124228EEF97406121BC97F0B
:103E980010021CF590050DE028FAA3E03400FB227F
:103EA800F514A3E03400F515851482F58322123E3B
:103EB800BA2290050DE02FFAA3E034008A82F58338
:103EC80022123EBA74FF22124037A3A3A3A3E02212
:103ED800124DF4850E82850F83123BD52285108200
:103EE800851183124D038516828517832290050D4F
:103EF800EAF0A3EBF090050D124D03E849221242B7
:103F08002EE8F0A3E9F079112274EA121C2374FE5A
:103F1800121BB38A088B098C128D13EA2405FEE460
:103F28003509FFAC18AD198E828F83123BD1120967
:103F3800978A0C8B0DEE2406F50EE43FF50FEA4543
:103F48000D7003024009E5082402F50AE43509F575
:103F58000B8A828B83A3A3A3E0A2E550288518824D
:103F6800851983123BD1120AF38A108B11EA451185
:103F780060207912123BC7851082851183121C219B
:103F8800E9F50C707F850E82850F83E06009795210
:103F98008011750C0E806D850882850983A3A3A303
:103FA800A3E0F9E4F508F5097808121E368E828F29
:103FB80083A3A3E0F5087808121E368E828F83A3A8
:103FC800A3A3121E4D8E828F83124B65123BCB1218
:103FD8000B057406121BC9E9F50C7011850E828554
:103FE8000F83E0702D123BCB1206DF802574166517
:103FF8000C7011750C007418121BFF124033E4800A
:1040080010750C01124CFB851282851383E8F0A30E
:10401800E9F0850E82850F83E0600479008002A9AB
:104028000C7402121BC97F0E021CF512403722E0E5
:10403800F8A3E0F58388822274EC121C2374F7122B
:104048001BB38A0A8B0B8C108D11EA2405FEE4350C
:104058000BFF750C00AC18AD198E828F83123BD103
:104068001209978A088B09EA450970030241FFE59E
:104078000A2402F50A5002050B8A828B83A3A3A3A4
:10408800E0A2E5502F851882851983123BD1120AC8
:10409800F38A0C8B0DEA450D604F7912AC08AD0917
:1040A800123BCB850C82850D83121C21E9F50C602F
:1040B80003024202850A82850B83E0F508A3E0F536
:1040C80009AA08FB120AE7EA4B70197AFF7BFF126C
:1040D8000AE7EA4B70030241F58A828B83E508F010
:1040E800A3E509F07508008008750C0E0242020568
:1040F80008900505E0F8E508C39840030241F585F6
:10410800080E750F007403780E121BA08A828B8329
:10411800A3A3E0250EF8A3E0350F1245C970D08E91
:10412800828F8312421D1238138E828F83A3A312AB
:10413800421D123811EE2404F508E43FF5098508FC
:1041480082F583E088828983A3A3A3A3F0A3E4F084
:10415800EE2405F50EE43FF50F850E82F583124235
:104168001DA3A3A3A31238117512077513007812A3
:10417800121E36EEFCEFFD7404121C111215F774B2
:1041880002121BC9E4F5127812121E3685088285C0
:104198000983E0FC7D007917123BCB120A6974028F
:1041A800121BC97407121BFF1238137407121BFF66
:1041B800E0FA4B603D850882850983124214121E7D
:1041C80036850E82850F83124B651215F77402121D
:1041D8001BC97402121C19123BCB1206E5E96026B2
:1041E8007407121BFF123BD11216638019750C0954
:1041F8008008750C118003750C01124CFB85108228
:10420800851183124228A90C74098028E0F50875E5
:104218000900780822123BD5888289832212422E0F
:10422800E8F0A3E9F022E0F8A3E0F9850E82850F13
:1042380083227404121BC97F0C021CF574EC121C37
:1042480023124338751000EE2402F50CE43FF50DF7
:10425800850C82F583123BD1120AE78A088B09EA9A
:104268004509700302431C850A82850B83E06401BB
:104278006003024311AC08AD09AA0AAB0B120ADBB2
:10428800E9606E85088285098312359EEE2406F55D
:104298000AE43FF50B8E828F83A3A3121E4D8E82F4
:1042A8008F83A3A3A3A3121E4D850A82850B8312B5
:1042B8001E4D79188E828F8312434A123BD1120BFE
:1042C800057406121BC9E9F8741668700B850A8212
:1042D800850B83E4F0A38014E860128E828F83122A
:1042E8003BD1850E82850F83EAF0A3EBF08810801E
:1042F80018780E121E36AC08AD09EEFAEFFB120A5A
:10430800E17402121BC9E9F510AA08AB09120AEDFB
:10431800E510700E850C82850D83123BD11206EBD9
:104328008009741665107003751000A91002423FC9
:10433800EAFEEBFF8C0E8D0FEE2405F50AE43FF53F
:104348000B22124DF4850C82850D832274EA121C0F
:10435800237508007509007E007F00750A00EC24AB
:1043680002F510E43DF5118035EC65087003ED6544
:1043780009600302440988828983A3A3E06A700361
:10438800A3E06B707C88828983A3A3A3A3124CFF4C
:10439800EE28FEEF39FFEA28FAEB39FB050A12444A
:1043A800D9503A850A0C750D007403780C121BA0BD
:1043B8008510828511831244CC1245C9601FE50817
:1043C800450970A58C088D098882898312359C88D7
:1043D800828983A3A3E02EFAA3E03F80BEE50AC347
:1043E800940250030244C7750800750900EE4F6037
:1043F80010EEFAEFFB12165D8A0E8B0FEA450F706E
:104408000579000244C9750B0002449C850B0C75A4
:104418000D007403780C121BA0851082851183E0AF
:10442800250CF50CA3E0350DF50DE50C2406F51467
:10443800E4350DF515851482F5831245CE6042E505
:104448000C2404F512E4350DF513851282F5831258
:104458001E4DE50E2508FAE50F3509FB1215F77410
:1044680002121BC9851282851383E02508F508A36B
:10447800E03509F509851482851583123BD112169A
:1044880063E50B600D7C087D007900AA0CAB0D126A
:10449800160F050BE50BC3950A500302441485104B
:1044A80082851183124CFF88828983A3A3A3A3A3C7
:1044B800A3E50EF0A3E50F12312FEEF0A3EFF0798C
:1044C8000102402E1244D022E0250CF8A3E0350D5D
:1044D80022900505E0F8E50AC3982274F0121C231F
:1044E8008A0E8B0F8C0A8D0B750D00750C00805091
:1044F8007916EE2406F508E43FF5098E828F83A32A
:10450800A3121E4D8E828F83A3A3A3A3121E4D85D3
:104518000882850983121E4D850E82850F83A3A309
:10452800123BD1120B057406121BC9E9F50D74165E
:10453800650D706C850882850983E4F0A3F0050C8D
:10454800900505E0F8E50CC3985066AA0C8A087532
:10455800090074037808121BA0850A82850B83A3BF
:10456800A3124618E8FEE9FF8E828F831245CE60BB
:1045780040EA2401F508E43400F509900505E065F2
:10458800087002E509601488828983A3A3A3A3A302
:10459800A3A3A3123C0060030244F879180244FA6A
:1045A800E9609B124CFB7410121BFF1245C01242AB
:1045B80028A90D7F08021CF5E0FAA3E0F5838A829A
:1045C80022F988828983124DF4EC4D2274F6121C6C
:1045D800237C0080010C900562E0F8ECC398501E23
:1045E8008C0875090074027808121BA012460DE0A9
:1045F8006A7003A3E06B70DDE8FAE9FB80047A00D7
:104608007B000246B09005031246188882898322EF
:10461800E02508F8A3E03509F92274F2121C238A70
:10462800088B09750A0080278E828F83A3A3A3A312
:1046380012312660031216637C087D007900EEFAB9
:10464800EFFB12160F8E828F83E4F0A3F0050A1297
:1046580044D95027850A0C750D007403780C121B79
:10466800A0850882850983A3A3E0250CFEA3E03575
:104678000DFF8E828F83123C0070AD8508828509FC
:104688008374FFF0A3F0024DE874F6121C23120A9B
:10469800998A828B83E582458370067A007B008045
:1046A80007A3A3A3A3123BD17F02021CF574F41243
:1046B8001C2389088C828D83E06402703C124C9E16
:1046C800FEA3E0F9EEF87402687003742969702992
:1046D800750A02750B00780A121E367410121BFF39
:1046E800121E4D7410121BFF121E4DA90812138DB5
:1046F8007406121BC9E9F98002790102316374E872
:10470800121C2374FB121BB3E9851882851983F0E8
:104718008A168B17ECFEEDFF7510008E828F83A32F
:10472800A3A3E0A2E4502D741D121BFF123BD1126B
:104738000AF38A828B83E58245837003024B3D79B5
:104748000AEEFCEFFDAA16AB17121C21E9F5106062
:1047580003024B40741F121BFFE0F508A3E0F509A4
:104768007421121BFFE0F50AA3E0F50B7423121B5A
:10477800FFE0F50EA3E0F50F8E828F83E064026000
:1047880003024ADEA3124CFF850882850983A385AC
:104798008212858313EE2406F50CE43FF50D88821A
:1047A8008983124B7DF514E439F5157814121EC06F
:1047B800010000280128E04707000228A54803282F
:1047C80013480029D4490129FF490229A04903298E
:1047D800D4490429784ADE4AE50E450F6003024AA7
:1047E800D9850C82850D83124CFFE8FAE9FB8A8291
:1047F8008B83E0850A82850B83124B88121E368ACA
:10480800828B83A3E0FCA3E0024A62E50E450F60B9
:1048180003024AD9850A82850B837401F0124B7210
:10482800850882850983F07C007D008E828F83A3B2
:10483800A3A3A3E02401FAA3E03400FB120997EA3A
:104848004B60408A828B83E02402F8850A82850BBC
:1048580083E028F0EA2404F8E43BF988828983E0BD
:10486800851282851383124B96124B88121E368A44
:10487800828B83A3124B65E5082403FAE43509FB10
:10488800024A67850A82850B83E02404F07C047D54
:10489800007900AA12AB1312160F024B40E50E4521
:1048A8000F6003024AD9124B72FEA3E0FF850A8209
:1048B800850B837404F0EE850882850983F0EF8503
:1048C8001282851383F07403121C19EEFAEFFB129F
:1048D80009978A0C8B0DEA450D70030249838A8279
:1048E8008B83A3A312359C7401121C09880E890FAF
:1048F800780E121E367405121BFF121E4D7CFF7DAA
:10490800FF12099D7404121BC98B0FEA450F7033FF
:10491800850C82850D83124B69121E36850C8285A3
:104928000D83A3121E4D7C027D007A367B8312070D
:104938008D7404121BC9E9700A7401121BFF74FFFD
:10494800F0A3F08E828F83E064027039750C0275D3
:104958000D00780C121E368E828F83A3124B65E5EC
:10496800082404FAE43509FB1215F77402121BC96E
:10497800850A82850B83E0240280097401121BFFDB
:10498800EEF0A3EFF07401121BFF124B57740112E3
:104998001BFF124B4E024AD3E50E450F6003024A35
:1049A800D9850C82850D83124DEDAA16AB1712130B
:1049B80093850A82850B837402F0850882850983B2
:1049C800EAF0851282851383EB024AD6E50E450F7D
:1049D8006003024AD9124B72F8A3E0F9850A82856E
:1049E8000B837402F0E8850882850983F0E9851253
:1049F80082851383024AD6850C82850D83123BD1AA
:104A08001215F1EAFAF8C3950EE4950F405CE865D3
:104A18000E450F70047A008021851882851983E07D
:104A2800FCE50E2CFCE4350FFDC3EC98ED9400502A
:104A380003E08005E50ECAC39AFAEA850A82850B67
:104A480083F08A0A750B00780A121E36850C828557
:104A58000D83E0250EFCA3E0350FFDAA08AB091273
:104A680015F77402121BC9024B40751007024B4020
:104A7800E50E450F705B850C82850D83124CFF8512
:104A88000A82850B837407F088828983124B4F1240
:104A98004B47E0851282851383F0E82402FAE43953
:104AA800FB8A828B83124B578A828B83124B4EA3CD
:104AB800A312312E124B5CF0E82405F85001098846
:104AC800828983124B5CA3124B96A3A3A3A3F08005
:104AD8006775100B8062741D121BFF123BD1120AFE
:104AE800998A828B83E5824583604A124CFF880C41
:104AF800890DE8450D603E7425121BFFE0F510781E
:104B080010121E3A780E121E36780A121E367808CF
:104B1800121E367407121BFFE0F9EEFCEFFDAA1611
:104B2800AB17850C82850D83121C217407121BC9D3
:104B3800E9F510800375100EA9107405023E94F073
:104B480088828983A322A3E08508828509832212AB
:104B58004B9DF022124B9DA3A322900509124DF400
:104B680022E0F50E750F00780E22850C82850D83E4
:104B7800124037E022E0FAA3E0F8E4C8F9EA282274
:104B8800F08A828B83E0F50A750B00780A22124BB3
:104B980047124B9D22E0850882850983A3A32274CE
:104BA800EE121C2374FE121BB38A088B09ECFEED6F
:104BB800FF890AAC18AD19EEFAEFFB1209978A0CB7
:104BC8008B0DEA450D7003024C8F85188285198379
:104BD800123BD1120A998A828B83E582458370033E
:104BE800024C8AA3A3124CFF880E890FE8450F7068
:104BF80003024C8A7414121BFFE0F510A3E0F511B0
:104C0800E50AF50B780B121E3A7419121BFF121ED7
:104C18004D7810121E36741B121BFFE0F9AC0CAD58
:104C28000DAA08AB09850E82850F83121C21740515
:104C3800121BC9E9F50B705274FE650A604C850CAD
:104C480082850D83E064027041124C9EFAA3E0F95C
:104C5800EAF87402687003742969702E85108285D9
:104C68001183124B7DF50CE439F50D780C121E36C4
:104C7800EEFCEFFDAA08AB09120B1D7402121BC94A
:104C88008008750B0E8003750B01A90B7402121BAB
:104C9800C97F0A021CF5A3124D0388828983E0228A
:104CA80074F6121C2374FE121BB3740C121BFF1231
:104CB8004CFFE8851882851983F07401121BFFE9FF
:104CC800F0E4F508F5097808121E36750802780828
:104CD800121E367404121C09880889097808121EE5
:104CE8003679FE120B057406121BC97402121BC911
:104CF8000246B08E828F83124D0322E0F8A3E0F9BA
:104D08002274F7121C23EAFEEBFF89089005201293
:104D18004B65121393EA5402600BA908EEFAEFFBF5
:104D280012098B800279017F01021CF574F2121CB2
:104D38002374FE121BB3EAFEEBFF890A7401650AAD
:104D480060147402650A6003024DE37901120D27AD
:104D5800E96003024DE3EEFAEFFB120AE7EA4B6063
:104D680003120AEDA818A919880889097808121EDB
:104D7800367508027509007808121E3675083C75E4
:104D880009837808121E367CFF7DFF7A017B0012AA
:104D980009917406121BC98038850882850983A386
:104DA800A3A3A3A3A3124DEDEEFAEFFB121387E41E
:104DB800F50CF50D780C121E367402121BFF121E2C
:104DC8004D7CFF7DFFAA08AB0912099D7404121BD4
:104DD800C98A088B09E508450970BE7402121BC907
:104DE8007F06021CF5124037124DF422E0FCA3E0C6
:104DF800FD2274F4121C238A088B09ECFEEDFF9047
:104E080015EEE0F4604B7A097B0012161BEA4B6042
:104E1800408A828B8374B1F0A3E4124E5CF08A82DC
:104E28008B83A3A3E508F0A3E509124E5CA3EEF07B
:104E3800A3EFF0740C121BFF124CFF8A828B83A322
:104E4800A3A3A3A3A3A31242289015EEE0F9121678
:104E580027023163F08A828B83A3A3A3A32274EC75
:104E6800121C2374FA121BB38909ECFEEDFF7508B6
:104E7800008A0A8B0B780A121E7A000410C150A906
:104E88004EC74EE34E014F1F4F3D4F604F7E4F922E
:104E98004FC74F5250695080509B50C150C150ED80
:104EA8004F7401650960030250BC8E828F83E0F85D
:104EB800C3940340030250BCE89016DA0250987479
:104EC80002650960030250BC8E828F83E0F8A3E07C
:104ED800F99016DBE8F0A3E90250987401650960BF
:104EE800030250BC8E828F83E0F8C3940240030211
:104EF80050BCE890094602509874016509600302A5
:104F080050BC8E828F83E0F8C3940540030250BCE6
:104F1800E89009470250987401650960030250BC83
:104F28008E828F83E0F8C3940240030250BCE8905D
:104F380009480250987410650960030250BC750A4C
:104F480010750B00780A121E367A497B091215F77C
:104F58007402121BC90250E474016509600302500F
:104F6800BC8E828F83E0F8C3940240030250BCE8F1
:104F78009009590250987401650960030250BC8E6B
:104F8800828F83E09016DE025098740465096003EE
:104F98000250BC8E828F83780C121A6B7510407584
:104FA800114275120F7513007810790C1217D3403F
:104FB800030250BC90095B780C121A7A0250E4E99B
:104FC80060030250BC120925E970157E00EEF91243
:104FD8001369E9F80EEEC3940A505AE860EF805559
:104FE8009009EE80617407650960030250BC750A78
:104FF80006750B00780A121E368E828F83A3AC8248
:10500800AD837402121C111215FD7402121BC97CA7
:10501800007D00AA18AB198E828F83E0F912133332
:10502800E9FEC3940A40030250E1120925E9700C15
:10503800EEF912136979501216ED807374EF2EF59C
:1050480082E43409F583740180467401650970644B
:105058008E828F83E0F8C394025059E890095A80F1
:105068002F74016509704D8E828F83E0F8C3940A0E
:105078005042E89016DD80187401650970368E82FA
:105088008F83E0F874F928C3940A5028E89016DF53
:10509800F0804974016509701B9009EDE0F88E8273
:1050A8008F83E09009EDF0E87032E06401702D1212
:1050B800136380287508188023C3EA9427EB9400AB
:1050C80050177402650970118E828F83E0FCA3E08B
:1050D800FD1207A5E9F5088003750802A9087406FA
:1050E800121BC97F0C021CF574F4121C23ECFEED94
:1050F800FF7508008A0A8B0B780A121E7A00040EC4
:10510800D45128512D51405145514A514F516D515B
:1051180072517751D45186518B51905195519F516D
:105128009016DA806B9016DBE0F8A3E0F98E828F98
:1051380083E8F0A3E90251E89009468053900947B3
:10514800804E9009488049750A10750B00780A123C
:105158001E367C497D09EEFAEFFB1215F774021230
:105168001BC90251EE90095980269016DE802190C5
:10517800095B121AA18E828F83121AAD806890097A
:105188005A800D9016DD80089016DF80039009ED97
:10519800E08E828F838049750900750A61750B0955
:1051A8007C0679FFAA0AAB0B121657E970020509AB
:1051B800E50A240EF50A5002050B64ED7004E50BB0
:1051C800640970DC8E828F83E5098014C3EA942712
:1051D800EB9400500E1207AB8E828F83EAF0A3EB9C
:1051E800F08003750802A9087F04021CF574EE120A
:1051F8001C2374A5121BB38C0C8D0D90829674140D
:10520800121C197406121AC67414121C19121333BC
:10521800E9FF746D121BFFE0F509EFC3940A400320
:1052280002537D75F006EFA4F508744D121C197A27
:105238000E74202508F91216E7E970097459121B33
:10524800FFE0FE80027E009016DAE06402700575C9
:105258000B018003750B00740865097004742280C3
:105268000274212508F50A7C1B7D007900741A1246
:105278001C1112160F741A121C197A1BA90A12167D
:10528800E7E9702D7434121BFFE024F9C3940A5027
:1052980020E50BF50A780A121E3A741B121C19EE47
:1052A800A2E0E433F9AA0CAB0D1208477401121BF3
:1052B800C97C147D007900AA18AB1912160FAC1816
:1052C800AD197A1074242508F91216E7E970327CB2
:1052D8001079FFAA18AB19121657E9702474101226
:1052E8001BFFAC82AD837A0474252508F91216E7F2
:1052F800AC18AD19EEA2E0E433F9AA0CAB0D120814
:105308002F7435121C197A1874702FF91216E7E9E0
:1053180070527435121C111213577F007435121C09
:1053280009880A890B850A82850B83E0FCA3E0FDC6
:10533800EC4D601F850A82850B83A3A3E0F51075E9
:1053480011007810121E36AA0CAB0D120B0B74024A
:10535800121BC90FE50A2403F50A5002050BEFC317
:10536800940840C1EEA2E1500C900945E0F9AA0C5E
:10537800AB0D120B117404650970289016DAE064FD
:105388000270207A00900959E060027A019009467B
:10539800E06004780480027800E84AF9AA0CAB0DB2
:1053A8001208FB7900745B121BC97F0A021CF57492
:1053B800F7121C23120925E9705E9009EEE06401DA
:1053C80070257E00EEF9121369E9F80EEEC3940A0F
:1053D8005003E860EF9009EEE4F07C0AFDF97AEFFB
:1053E8007B0912160F80297508007EEF7F098E82CF
:1053F8008F83E06401700BA9081213698E828F8372
:10540800E4F00508A3AE82AF83E508C3940A40DE42
:1054180079501216ED12136302608D74EE121C237C
:1054280074E2121BB38A0A8B0BECFEEDFF75080AB7
:10543800E9600F14600C14606E1470030254F302D8
:105448005576750E00750C61750D09751006751188
:10545800007810121E36AC0AAD0BAA0CAB0D121652
:10546800097402121BC9E97018050EE50C240EF523
:105478000C5002050DE50EC3940A400302557680D0
:10548800CA850E08E508C3940A4003025576EE4F14
:105498007003025576750C06750D00780C121E36D1
:1054A800AC0AAD0B02556A750E00750C67750D09CF
:1054B8007510067511007810121E36AC0AAD0BAACD
:1054C8000CAB0D1216097402121BC9E97018050EEF
:1054D800E50C240EF50C5002050DE50EC3940A40A8
:1054E8000302557680CA850E088047750C00750D35
:1054F80023740E121C197A10A90D1216E7E9701EF2
:105508007C1079FF740E121C11121657E9700FAC3B
:105518000AAD0B740E121C1112080BE96011050C70
:105528007406250DF50DE50CC3940A504180C2851B
:105538000C08E508C3940A5035EE4F6031AC18AD3D
:10554800197A0E75F006E508A42420F91216E7E981
:10555800701C750A06750B00780A121E3674021242
:105568001C19EEFAEFFB1215F77402121BC9A908F1
:10557800741E0253AF74F0121C2374DA121BB38C1E
:105588000C8D0D7508157436121BFFE0FEA3E0FFA5
:1055980074FF6A700374FF6B60030256F4750900A8
:1055A800750A207418121C197A0EA90A1216E7E94E
:1055B80060030256B07C0679FF7418121C1112168B
:1055C80057E960030256B074702509F50BAC18ADA5
:1055D800197A18F91216E7E960030256ADAA18AB52
:1055E80019121357E50C450D70217C187900AA187B
:1055F800AB19121657E960030256AD7C187D007985
:1056080000AA18AB1912160F02569B7A00A818A9FF
:105618001988828983E0650C7004A3E0650D700326
:105628000256C20AE82403F8500109EAC394084064
:10563800E078007900E849703BEE4F606B7A00A88B
:1056480018A91988828983E0FCA3E0FDEC4D70035A
:105658000256DB0AE82403F8500109EAC39408401B
:10566800E278007900E849603F88828983E50CF098
:10567800A3E50DF0E82402F582E439F583E0FAEEBB
:105688006A7001EF601FEEF04F700888828983E42A
:10569800F0A3F0AA18AB19121357AC18AD197A1861
:1056A800A90B1216E175080005097406250AF50A02
:1056B800E509C3940A50720255ABEA75F003A4F8E1
:1056C800A9F0851882851983E58228F8E58339F9D8
:1056D80002563DEA75F003A4F8A9F08518828519E9
:1056E80083E58228F8E58339F902566D120D1B8A85
:1056F800828B83E5824583602D7C007D00E58224D2
:1057080005FAE43583FBA3A3A3A3E0F9121333E955
:10571800F9C3940A5013EEFCEFFDAA0CAB0D12135B
:10572800517508008003750814A9087426121BC94E
:105738007F08021CF5C082C08390095FEAF0A3EBE2
:10574800F0900945E0FC7D007A267B001207A590C1
:105758000945E0F9120A75D083D08202013274EC4F
:10576800121C238A088B09E97E00703B7808121EF8
:10577800367416121BFF780C121A6B7510407511CF
:105788004275120F8E13780C7910121892AA10AB6A
:1057980011AC12AD131208417402121BC9E9FE6064
:1057A800097901AA08AB0912083BEEF90250EB741B
:1057B800F0121C2374EC121BB3EAFEEBFF8E828FEF
:1057C80083A3A3E024FA7003025B4424FD70030260
:1057D8005A1E14700302588714601024FD700302C7
:1057E80059DC147003025A56025B5390095FE0F8C3
:1057F800A3E0F9E8496059E0F5838882E0F8A3E07E
:10580800F988088909E845096046EE240CF582E420
:105818003FF583E0F50A780A121E3AEE240BF5826A
:10582800E43FF583E0F98E828F83A3A3A3A3A3A308
:10583800A3A3A3E0FCA3E0FDEE2403FAE43FFB8569
:105848000882850983121C217401121BC9025B534B
:10585800EE2409F8E43FF9E8FEE9FF8E828F83120F
:105868001E4D90095B121A891208417402121BC955
:10587800E97003025B5379018E828F83025AE575C2
:105888000C008E828F83A385820A85830BE06003D8
:10589800025964EE2405F508E43FF509850882F508
:1058A80083E0A2E040030259649009F9E0F8A3E01C
:1058B800F9E84960030259647C0E7D007900AA1852
:1058C800AB1912160FEE240CF582E43FF583E0FACB
:1058D800A3E0FBEA4B6010750C06750D00780C12FE
:1058E8001E36EA241080248E828F83A3A3A3E0FAB5
:1058F800A3E0FB120D1BEA4B7003025B53750C0609
:10590800750D00780C121E36EA2405FCE43BFD7484
:1059180002121C111215F77402121BC98508828520
:105928000983E0A2E25004D2F08002C2F0A2F0E4BF
:1059380033F8740C121BFFE048F0EEFCEFFDAA18D8
:10594800AB1912135DE970117A027B00900945E0EA
:10595800F91216337900025B55750C1590095FE052
:10596800F8A3E0F9E8497003025B53E0F583888205
:10597800A3A3E0F8A3E0F9890FE8450F7003025BE1
:1059880053EE2403F508E43FF509850A82850B8365
:10599800E0FC7901850882850983E0FAA3E0FB88A9
:1059A80082850F83121C21E50C7003025B53FC797E
:1059B80003850882850983E0FAA3E0FB90095FE08C
:1059C800F8A3E0F5838882A3A3E0F8A3E0F5838831
:1059D80082025B3F90095FE0F8A3E0F9E8497003B1
:1059E800025B53E0F5838882A3A3E0F8A3E0F9897A
:1059F80009E845097003025B538E828F83A3E0FC9C
:105A080079028E828F83A3A3A3E0FAA3E0FB8882A6
:105A1800850983025B3F7C007D00EE2404FAE43FA5
:105A2800FB8E828F83A3A3A3E0F9121333E9F8C393
:105A3800940A4003025B53EE240AFCE43FFD7A0417
:105A480075F006E8A42425F91216E1025B53EE244A
:105A580003F508E43FF509850882F583E0FAA3E039
:105A6800FB90095AE060079016DDE0F98074901603
:105A7800DAE070047905806A120D1B8A0A8B0BA87C
:105A88000AA90BE8497003025B53E82404F50AE409
:105A980039F50B8E828F83A3A3A3A3A3A3A3E0A2AC
:105AA800E05044850A82850B83E0F50C60398E82CC
:105AB8008F83A3A3A3A3A3A3A3A3A3A3E0540270C8
:105AC80026740E121C19E82405FAE439FBA90C12F5
:105AD8001333E970127903850882850983E0FAA3F4
:105AE800E0FB12083B8064EE2405FCE43FFD850AD8
:105AF80082850B83E0F9850882850983E0FAA3E0B3
:105B0800FB12137B90095FE0F8A3E0F9E849603BDA
:105B1800E0F5838882A3A3E0F8A3E0F9E8FEE9FFB3
:105B2800EE4F60277C007900850882850983E0FABA
